:10000000A81600204D0F000043530000390F0000D8
:10001000390F0000390F0000390F0000390F0000C0
:100020000000000000000000000000001D100000A3
:10003000390F000000000000E1110000390F00003E
:100040005D1200005D1200005D1200005D120000F4
:100050005D1200005D1200005D1200005D120000E4
:100060005D1200005D1200005D1200005D120000D4
:100070005D1200005D1200005D1200005D120000C4
:1004C80053B94AB9002908BF00281CBF4FF0FF31B3
:1004D8004FF0FF3000F00CB8ADF1080C6DE904CE18
:1004E80000F008F8DDF804E0DDE9022304B0704705
:1004F800704700BF2DE9F0478C468E46089E15468A
:1005080004461946002B40F0D080724547D9B2FA0C
:1005180082F74FB1C7F120030EFA07FCBD40BC407B
:1005280020FA03F343EA0C0C4FEA154EA8B2230C49
:10053800BCFBFEF80EFB18CC08FB00F943EA0C43A1
:10054800994528D9EB1808F1FF3204D2994502D908
:10055800A8F102022B44A3EB0903A4B2B3FBFEFCEF
:100568000EFB1C330CFB00F044EA0344A04214D9F0
:100578002C190CF1FF3304D2A04202D9ACF10203CA
:100588002C44241A43EA02401EB1FC400023346084
:100598007360BDE8F0874246DDE76346F1E7002A6D
:1005A80079D0B2FA82F3002B3FD01946C1F120036B
:1005B80002FA01F500FA01F42EFA03F20EFA01FE2E
:1005C80020FA03F3AFB243EA0E034FEA154EB2FB2B
:1005D800FEFC0EFB1C201A0C0CFB07F842EA00423A
:1005E80090455AD9AA180CF1FF3004D2904502D987
:1005F800ACF102002A44A2EB08029BB2B2FBFEFC5B
:100608000EFB1C220CFB07F743EA02439F4246D924
:10061800EB180CF1FF3204D29F4202D9ACF102026E
:100628002B44DB1B42EA004202E0AEEB020301224C
:100638004FEA154EAFB2200CB3FBFEFC0EFB1C3389
:100648000CFB07F840EA034398452AD9EB180CF14C
:10065800FF3004D2984502D9ACF102002B44A3EB39
:100668000803A4B2B3FBFEFC0EFB1C330CFB07F71C
:1006780044EA0344A74216D92C190CF1FF3304D2DB
:10068800A74202D9ACF102032C44E41B43EA004020
:100698000F46114678E71F2188E76046ABE76246B8
:1006A800BFE76046DBE76346EFE7734506D916B94F
:1006B800002108466DE7C6E9000EF9E7B3FA83F7AB
:1006C80087B9734501D3824207D8841A6EEB0303B6
:1006D80001209C461EB900215BE73846FAE7C6E9C7
:1006E800004CF8E7C7F1200CBB4000FA07F422FAE7
:1006F8000CF520FA0CF1BA401D432EFA0CF30EFA51
:1007080007FE4FEA154941EA0E011FFA85FEB3FBC1
:10071800F9F809FB18300B0C08FB0EFA43EA004302
:100728009A4540D9EB1808F1FF3004D29A4502D90E
:10073800A8F102002B44A3EB0A0389B2B3FBF9F832
:1007480009FB183308FB0EFE41EA03418E452CD9FC
:10075800691808F1FF3304D28E4502D9A8F10203C3
:10076800294443EA0040A1EB0E01A0FB0298414551
:10077800CE46434602D306D14C4504D20138B9EBE4
:10078800020E68EB0503002EA5D0B4EB0E0261EB58
:10079800030101FA0CFC22FA07F3F9404CEA0303BF
:1007A800C6E9003197E74046C5E74346D9E7000068
:1007B80008B50349034804F0DFFC002008BD00BF6A
:1007C800CC700000F0700000014B1B68184700BF98
:1007D800F0000020014B1860704700BFF0000020B7
:1007E80030B5044685B00D4610220021684605F054
:1007F8001CFE02238DF80230044B2A462146684627
:10080800019304F007FA05B030BD00BFD10700001E
:1008180080B505460E461746984602F0BBFF0346CC
:1008280000F02AFD0446DFF81890424649F80030E7
:1008380039463046A84754F8090000F0B7FC00BF15
:10084800080000002DE9F047058B044628071746E5
:100858000CD501290CBF45F0100545F0200525836E
:1008680087F31188BFF36F8FBDE8F087022905F081
:10087800070540F09480204604F08BFC052864D8D6
:1008880001A353F820F000BF69080000A709000081
:1008980053090000150900002F0900004109000054
:1008A80001F007035A1F012A1FD8002221F007016F
:1008B800062BD4F8008089B2C4E9002209D1434646
:1008C80003E0628B013262831B68002BF9D141F08F
:1008D80002012046218304F05CFC4FF00009002847
:1008E8006DD041F02001218369E0042B0AD121F069
:1008F800070189B22046218304F04BFC10B141F076
:10090800200121834FF00008C14658E02369D3F83D
:100918000090238B23F0070343F006034FF00008F1
:10092800238346464BE02369D3F80490238B23F0B6
:10093800070343F00403F1E72369D3F80890238BF6
:1009480023F0070343F00503E8E74FF00008C1462A
:10095800E7E7012243F00803238387F31188BFF3F5
:100968006F8F002A3BD1B8F1000F4AD1B9F1000FBF
:1009780002D020462C49C847EFF31187202383F380
:100988001288BFF36F8F238B23F008039BB2238356
:10099800D9063FD523F01002228303F007056669C4
:1009A800218B002EBFF67CAF00239946D4F8008037
:1009B80021F00701C4E9003341F001012183238BB1
:1009C80003F0070AAA4502D0A268002AC1D1B8F1EB
:1009D800000F02D1B9F1000FDAD00022BAE7A168FE
:1009E8000029C0D00D680029BDD0334652462046A4
:1009F8004F68B8471DB12B6829461D46F3E72B46BB
:100A0800FAE74146334652462046D8F8008004F0BB
:100A1800ECFBA8E79A067FF523AF23F02002228398
:100A280003F0070527E700BF1F520000014B0360D2
:100A380000207047786F000008B5044804F09CFB5C
:100A4800034804F099FB002008BD00BF05710000B1
:100A58003A71000008B50348034A0021121A04F04D
:100A680064FC08BDC802002064090020074808B5D6
:100A7800074A0849121A04F05AFCBDE8084006481B
:100A8800064A0749121A04F052BC00BF6000002051
:100A9800C8020020187600006000002060000020D6
:100AA8001876000038B505460C4699B1D1E90123FE
:100AB8000F48096804F060FBD4E90423E1680D4895
:100AC80004F05AFBE1690C4804F056FBA1690B4895
:100AD80004F052FB012D05D1EFF3058108481039C8
:100AE80004F04AFB21462846BDE8384002F094B994
:100AF8006771000097710000C7710000D77100008E
:100B08000672000030BFFFF7FDBF00BF2DE9F041BE
:100B180005460B4EDFF82C80324606EB0807CC1B47
:100B28002046094905F074FCA01942460021083CFA
:100B380005F07BFCAC6707F10800BDE8F08100BF59
:100B48000000000004000000586F000010B5204CA1
:100B5800204804F011FBA36A990137D51E4804F018
:100B68000BFB1E20A36ADA0103D51C4804F004FB22
:100B78001F20174CA36ADB0203D5194804F0FCFABE
:100B88000220A36A1C0303D5164804F0F5FA2120B5
:100B98000F4CA36A590303D5134804F0EDFA222039
:100BA800A36A9A0303D5114804F0E6FA2320084CF7
:100BB800A36ADB0303D50E4804F0DEFA2420A36AF7
:100BC8006FEA03436FEA1343A36210BD1D20C9E710
:100BD80000ED00E01A720000337200004772000056
:100BE800627200008D720000AC720000D2720000C8
:100BF800ED72000070B5244C064624480D4604F0FA
:100C0800BBFAA36AD90435D5214804F0B5FA1720F0
:100C1800A36A1A0503D51F4804F0AEFA18201A4C27
:100C2800A36A9B050FD51C4804F0A6FAA16BA36A1A
:100C3800180407D5194804F09FFA1EB1A36A23F4D3
:100C48000043A3621920104CA36A590503D5144820
:100C580004F092FA1A20A36ADA050DD5114804F0B7
:100C68008BFA1B20084A936A43F47F43936200235C
:100C78002B7070BD1620CBE7A36A9B04F2D50A48F7
:100C880004F07AFA1C20EDE700ED00E0197300008B
:100C98003073000042730000567300007073000048
:100CA80086730000A2730000BB73000070B5264C69
:100CB800064626480D4604F05FFAA36AD80640D5D2
:100CC800234804F059FA1120A36A190703D52148CB
:100CD80004F052FA12201C4CA36A9A070FD51E483A
:100CE80004F04AFA616BA36A1B0607D51B4804F097
:100CF80043FA1EB1A36A23F08003A3621320124CA7
:100D0800A36ADE0703D5164804F036FA1420A36A4E
:100D18009C0603D5134804F02FFA15200A4B9A6A4B
:100D2800D10658BF9A6A9A6A920642BF5A6A22F452
:100D380000525A629A6A42F0FF029A6200232B70AC
:100D480070BD1020C0E700BF00ED00E0EB730000AD
:100D58000274000042730000367400004F740000F3
:100D680066740000BB7300002DE9F0415D4B04463A
:100D78005F6800258AB0C7F3080685F31188BFF3BA
:100D88006F8F02F07F43B3F17F4F06D102F00C035F
:100D9800082B13D1544804F0EFF900252C464FF0E6
:100DA8000008F31E8DF80780092B00F28B80DFE81E
:100DB80003F00A7F837B89898989898710074CBF5B
:100DC8000C460125EBE74948464E04F0D5F98DF865
:100DD8000780F36A9A0704D5454804F0CDF9002343
:100DE8002AE0F36A002B01DA4248F6E7F36A5B006F
:100DF800F5D5414804F0C0F97369A26943F48073DA
:100E08007361BFF34F8FBFF36F8F32F8023C726983
:100E180022F480727261BFF34F8FBFF36F8F03F4B8
:100E28007F42B2F55F4F27D1DBB2022B24D1216874
:100E3800324804F0A1F923689DF80720CAB902AE28
:100E480004F12007324620686168083403C2BC42B6
:100E58001646F7D1099A002D40D0C2F3080121B9EE
:100E68006FEA52226FEA42220992184602A9FFF756
:100E780019FE0AB0BDE8F0811A4B9A6AD2B22AB1BB
:100E880001200DF10701FFF711FF0FE09A6A12F434
:100E98007F4F05D001200DF10701FFF7ABFE05E0FC
:100EA8009B6AB3F5803F9AD3FFF750FE0346C3E72A
:100EB80000200DF10701E6E700200DF10701ECE73E
:100EC8000F488AE70F4B17F4F87F0F490F4808BF00
:100ED8001946A6F1100204F04FF980E76FF30802F3
:100EE800C2E700BF00ED00E0B4740000E074000049
:100EF800F87400001A750000297500004975000093
:100F080066750000867400009B7400008B750000F5
:100F1800064B5A6942F010025A615A6942F48062DB
:100F28005A615A6922F008025A61704700ED00E0E0
:100F3800EFF30880EFF3098101B57246FFF714FF5C
:100F480001BD00BF002080F31488BFF36F8F00201D
:100F580080F30A8880F30B880F4880F3088801F033
:100F680053F900200D490860BFF34F8F00F02CF8AB
:100F7800202080F311880A484FF40061401880F35C
:100F88000988EFF314800221084380F31488BFF323
:100F98006F8F00F0A5F80000A816002094ED00E07F
:100FA80068090020002318460649D1F89020C2F3AA
:100FB8000722934200DB7047C1F89830C1F8A000BF
:100FC8000133F6E700ED00E010B572B6002484F3B3
:100FD8001388FFF7E7FF23464FF0FF300C4A03F171
:100FE80020010133102B42F82100F8D100234FF0E3
:100FF800FF30074A03F160010133102B42F821004A
:10100800F8D162B6BFF34F8FBFF36F8F10BD00BF2B
:1010180000E100E01EF0040F0CBFEFF30880EFF3CF
:101028000980816911F8021C0229FFD001B57246B6
:1010380004F07FF901BD00BF00B2002807DB0123DF
:101048004109034A00F01F00834042F821307047ED
:1010580000E100E000B200280CDB01220649430948
:1010680000F01F008240203341F82320BFF34F8F48
:10107800BFF36F8F704700BF00E100E0054B4209E6
:1010880053F82220012300F01F0003FA00F010405B
:10109800704700BF00E100E000B2002801F1010143
:1010A800ACBF00F16040064B4FEA4111C9B2ABBF7B
:1010B80000F5614000F00F0080F8001319547047E4
:1010C80014ED00E0044B054A23F07F039360BFF35F
:1010D8004F8FBFF36F8F70470000000000ED00E0F6
:1010E80008B5FFF7EFFF074AD2F8883023F47003FA
:1010F800C2F88830FFF7AEFCFFF7B8FC00F09CF8A8
:1011080001F04EFF00ED00E042F8203C009B0B4947
:1011180042F81C3C019B21F0010142F8183C029B5B
:1011280042F8081C42F8143C4FF0807342F8043C23
:101138000023203A0265C367704700BF1908000002
:1011480000B50D4B15469860826F0C4B0E461A6021
:10115800836E83F30B882C4686F309880020044BA2
:1011680098472046002100220023024C2047000017
:101178006753000019080000B4050020E8040020A7
:101188001022014B1A61704700ED00E0054B5A69C7
:101198009B689A421FBF044A536843F080535360C8
:1011A800704700BFB405002000ED00E0084B9B68C5
:1011B80083420BD1EFF3058343B1064B5A6842F0E3
:1011C80080525A605A6A22F400425A6202F0E8BA1F
:1011D800B405002000ED00E014498A684FF03000A3
:1011E8001044EFF3098C80E8F01F202080F3128868
:1011F800BFF36F8F0E4F4FF000664A698A603E60FA
:10120800906F0C4C2060D06F0023D36780F3118857
:1012180002F1300090E8F01F8CF3098802F1000019
:1012280004B504F095F8BDE804407047B405002003
:1012380004ED00E0E8040020002320210448C2183F
:101248000133B3F5917F82F80013F8D1704700BFDE
:1012580000E100E008B5EFF30583064A103B02EB16
:10126800C30152F8330049688847BDE80840FFF7D2
:101278008DBF00BFFC650000014800687047000092
:10128800E80400201FB50121094B0A4A0A4800F06A
:10129800F7F80023064A0393084B0121019301A89C
:1012A800D31A029300F0F6F805B05DF804FB00BF0E
:1012B80000FC012000000020786F0000C802002018
:1012C8000A7A0B6810B562F304031C46CB6852090E
:1012D80023F01F0343EA4203044A43F00103C2F820
:1012E8009800C2F89C40C2F8A03010BD00ED00E0A4
:1012F80010B5074BD3F89030C3F30723013B98424E
:1013080002D8FFF7DDFF10BD6FF01500FBE700BF47
:1013180000ED00E02DE9F04F0F46144606464FF069
:1013280000084B4D85B0B84580F28E80D6F8049001
:10133800B9F1000F35D0B9F11F0F40F2838019F0D1
:101348001F0F7FD1D6F800A01AF01F0F7AD1504690
:1013580004F028F8834609EB0A00013804F022F863
:1013680083456FD11BF1160F6CD05C456ADDC5F85B
:1013780098B0D5F89C10C5F898B0D5F8A03021F0F1
:101388001F0143F01F0AD6E900321A44994202F1BC
:10139800FF391BD1CA4508D131465FFA8BF004F0FA
:1013A8000AF808F101080C36BDE73146C5F898B0CF
:1013B800D5F89C30E0B263F30402C5F89C2003F032
:1013C800FAFF10F1160F3DD0441CEAE7C5F898B0B3
:1013D800D5F8A020013B23F01F0302F01F0213439E
:1013E800CA453146E0B2C5F8A030E8D003F0E3FFC3
:1013F80010F1160F26D0C5F898B0D5F89C209DF8A6
:1014080008300AF1FF3A62F304038DF80830D5F882
:10141800A0309DF808205B0863F347128DF8082078
:10142800D6E900321344009323F01F035344A3EB7F
:101438000903013023F01F036946C0B20393FFF785
:1014480057FFBEE76FF01504204605B0BDE8F08FE2
:1014580000ED00E00522044BC3F89420BFF34F8F42
:10146800BFF36F8F704700BF00ED00E0BFF35F8FE1
:101478000022024BC3F89420704700BF00ED00E043
:1014880010B5034C2278FFF745FF207010BD00BF50
:101498005C0900202DE9F74F294D8A4606464FF092
:1014A8000008AB46274FD0451BDAD6F80490B9F1AF
:1014B800000F3FD031680846019103F073FF01998E
:1014C800044609EB0100013803F06CFF84424FF039
:1014D80014021D4B08D002FB08F36FF015024BF8FD
:1014E800032003B0BDE8F08F14F1160F2C60F8D07C
:1014F8001978A142F5DD02FB08B0C7F89840C7F893
:101508009840D7F89C4000F10801007B64F3040080
:101518000871D7F8A0000C79400860F347140C71E3
:10152800D7F89C1021F01F016960D7F8A01021F0AE
:101538001F01296108F1010814350C36B3E700BF13
:10154800EC04002000ED00E05C090020F0B55349F0
:10155800534DD1F890302C68C3F307239C4287B0D1
:1015680000F299800020FFF781FF4E4BC1F8C03090
:10157800844216D14C4D01A82C70FFF757FA00266B
:1015880007464A4CB74213D100202B784349D1F87B
:101598009020C2F30722934277DBFFF75BFF00201E
:1015A80046E0696801EB0011FFF78AFE0130DFE7CA
:1015B8000199300101EB0613DA682240B2F1807F0D
:1015C80052D00AD8B2F5001F34D0B2F5800F3ED001
:1015D800B2F5801F12D00136D4E7B2F1006F43D0C4
:1015E800B2F1805FF7D15A689B680958013B22F035
:1015F8001F00034423F01F03012032E05A689B6850
:101608000958013B22F01F0003440120844623F0BF
:101618001F0340EA4C10CDE902218DF8100002A901
:1016280028780593FFF764FE00282ADA6FF0150082
:1016380007B0F0BD5A689B680958013B22F01F00AB
:1016480003444FF0020C012023F01F03E1E75A681E
:101658009B680958013B22F01F000344062023F031
:101668001F034FF0000CD4E75A689B680958013BE8
:1016780022F01F0003444FF0030C012023F01F0346
:10168800C7E72B7801332B70A5E7C1F89830C1F86C
:10169800A00001337BE74FF0FF30C9E700ED00E021
:1016A800846F0000AAFF44005C0900200000F0FFDE
:1016B80008B5024B1B689847002008BD00050020AC
:1016C800034B044A1860937843F002039370704701
:1016D80000050020F400002008B50649064821F05E
:1016E8000701C1F1005202F5FE3203F002FD0020AD
:1016F80008BD00BFAF1600200405002008B5244A25
:10170800244B1A6000F060F84FF47A612248D0F850
:101718002436C3F30802C3F309434B4382F48072AF
:101728001E49883201FB02334FF4FA215B00B3FBF8
:10173800F1F201FB12331A49B3F57A3F28BF01329F
:10174800C1F80429D0F820364FF47A60C3F30802B0
:10175800C3F30943434342F21C5082F4807202F2FD
:10176800172200FB02334FF47A701B0AB3FBF0F226
:1017780000FB12330020B3F5FA7F4FF0010328BFB6
:101788000132C1F81C27C1F80009C1F8003608BDAC
:101798000020A107F001002000C0FF00F82A008007
:1017A8000000125048B1054B054A1B68B3FBF2F321
:1017B8005843044B43F0010318477047F0010020D9
:1017C80040420F00606F00000122024BC3F804245E
:1017D800704700BF002008E0084B70B5C31A0D46DB
:1017E80007499B10044659434022064803F02DFE42
:1017F8002B4601462046BDE87040184724050020C6
:10180800B76DDBB68C650000402373B50B4C0093B5
:10181800041B0B460D460A49A41061430646094AB3
:10182800094803F03DFE014628B130462B4602B078
:10183800BDE87040184702B070BD00BF2405002005
:10184800B76DDBB6175500008C650000F8B50022AF
:10185800012105464FF48770FFF71EFC0F4800F082
:101868004DFD0446B8B900F069FD2F690C493846AA
:1018780003F0DEFC031E09DB01263E642D690849DE
:1018880005F11C0003F0D4FC031E02DA1C462046B6
:10189800F8BDEE64FBE76FF00404F8E7D519000023
:1018A800C06F00001FB5002201236C46CDE902235A
:1018B8006B46074ACDE9004403F022FE28B943F6F7
:1018C80009520023684601F0C7FC04B010BD00BFF0
:1018D8002955000010B5EFF31184202383F31288F3
:1018E800BFF36F8F074A136823F00201DB0711600B
:1018F80002D4012003F059FF84F31188BFF36F8FDE
:1019080010BD00BF740500200C22104B014602FBDD
:101918000033002030B4D3E90E529863EFF31180FE
:10192800202484F31288BFF36F8F1C6C04F0C0046A
:1019380044F002041C6480F31188BFF36F8F1DB15B
:101948002B4630BC0248184730BC7047240500209D
:101958008C65000010B4EFF31180202282F3128806
:10196800BFF36F8F16490B6843F0020413F00103AD
:101978000C6017D0134BD3F80C3413F4803311D008
:10198800EFF3118182F31288BFF36F8F0E4A136C45
:1019980003F0C00343F00203136481F31188BFF31B
:1019A8006F8F012380F31188BFF36F8F1BB1002065
:1019B80010BCFFF7A9BF012010BC03F0EEBE00BFAA
:1019C8007405002000E0105024050020022808D0EB
:1019D800042808D1044B186C10F0070003D1FFF756
:1019E80093BF0120FBE77047240500202DE9F04153
:1019F800012280463549D1E8EF3FC1E8E02F0028B1
:101A0800F9D133B9324933484B60CB608A6003F06F
:101A180022FC08F1FF33012B4CD8B8F1010F06D195
:101A28002D4BD3F8503403F00303012B42D004F0BC
:101A380044F9054650B1EFF31186202383F3128849
:101A4800BFF36F8F0125244C244F21E0244B1B78D2
:101A5800002BF0D00422204B0646C3F80823F2E7F7
:101A680055B3304603F08FFCD4F8403413F0FF032D
:101A78000ED1D4F808215AB1C4F80831D4F8083185
:101A88004FF480420123C4F84034C7F8A0212361F1
:101A9800D4F84C24D4F84C34D203E1D503F0030332
:101AA800012B02D0B8F1010FDAD155B186F31188B4
:101AB800BFF36F8FBDE8F0810021202004F071F999
:101AC800D2E70422044BC3F80423F3E720050020DF
:101AD800100500204005002000E0105000E100E063
:101AE8005F09002008B5074804F0BEF838B1064879
:101AF800FFF7E6FD0448FEF76DFE002008BD6FF015
:101B08001200FBE7E0650000151B00000A2838B545
:101B18000446074D04D1AB680D2128465B689847F9
:101B2800AB6803485B68E1B29847204638BD00BF00
:101B3800E06500002DE9F04340F206364768D0061C
:101B480048BF4FF0030C3B7C02EA060658BFC2F3BD
:101B5800401C87B001F01F05B6F5837F144645EA9F
:101B680043158DF803C043D00DD8062E42D005D8B2
:101B7800A6B1022E12D06FF0150036E0B6F5807FC0
:101B8800F9D101260AE040F20222964234D0B6F595
:101B9800407F33D0B6F5007FEDD1042622032FD540
:101BA80001237A688B405360B86890BB05F01F0327
:101BB8006D092CD0012D75D13C4A02EB8302C4F388
:101BC8000043D2F8801083F00103C4F3404444EA90
:101BD800430421F4706144EA8C0421F00F0144EAC3
:101BE80006230B43C2F88030002007B0BDE8F0831D
:101BF8000926D3E70826D1E70626CFE70526CDE74D
:101C0800630341BF01237A688B409360CCE7284A7D
:101C1800D3E729460DF1020203F09AFF14F4403F7E
:101C280080460CD12946B86803F0ABFFB8F1000F25
:101C3800DAD19DF80210B86800F004FED4E74FF03E
:101C4800000901ABCDE90199CDE90439CDF80C9033
:101C58002946B86803AA03F0C4FE4845C4DB14F457
:101C6800003314D09DF80330C4F3004484F0010419
:101C78008DF80E308DF80C608DF80D404B462946D6
:101C8800B86803AA00F030FD0028CFDAACE7CDE948
:101C980004330DF1030303932946B86803AA03F03C
:101CA800A0FEF1E7203350F82330FFDE00820D500C
:101CB80000A010504209012A034670B501D0BAB1FC
:101CC80070BD0D4E326951680029F9D0012503F025
:101CD8001F030C689D400029F2D08A682A4002D070
:101CE80030464B6898472CB1236821461C46F2E7DA
:101CF800024EE7E72346F8E7C4650000A865000040
:101D080038B54568A868C0B103F035FF0146A0B9E9
:101D1800A86800F05FFD044688B902460949A8682A
:101D280003F013FF22460121DB20FFF7B5F9224615
:101D3800012140F20D10FFF7AFF9002038BD6FF018
:101D48000400FBE7BD1C0000F0B544681646A06817
:101D5800227C01F01F0587B045EA421500286CD0A7
:101D6800B6F5001F04D1294603F05DFF002055E0B9
:101D78006268607CB6F5800F50624FF0000001AADF
:101D88000190506037D1B3F1007F14BF05230423BD
:101D98008DF804300023CDE904230393E3680DF1A3
:101DA800030723FA01F111F0010139D1B6F1A07F3F
:101DB80036D105F01F036A0903F1200326D0012A52
:101DC8003ED1214A52F82330DB0729D43A46294626
:101DD800A06803F0BDFE16301AD002972946A06805
:101DE80003AA03F0FEFD002818DB01222946A0689B
:101DF80003F0C9FEBAE7B3F1C06F05D0B3F1007FB5
:101E080014BF01230223C3E70323C1E70F4AD9E71D
:101E18003946A06800F020FD0028DEDA07B0F0BDE2
:101E28003A462946A06803F093FE0028D6D19DF8CB
:101E38000310A06800F006FDD0E76FF08500EDE71D
:101E480051F82330FFDE00BF00820D5000A0105073
:101E5800036803F01F025B09026004D0012B0348EA
:101E680018BF002070470248704700BF00820D501D
:101E780000A010502DE9F04F1746824640F2FF1897
:101E8800DFF8F8903E4E85B000EB8101514501D155
:101E980000201DE0DAF80020C2F3C323082BC2F3A8
:101EA800080468D8444508BF4FF0FF34B2F1806F8A
:101EB80019F803504FEA126306D2013B022B0AD8E5
:101EC800DFE803F03C404300382B41D06FF0850039
:101ED80005B0BDE8F08FC7F80446621C2BD003A8F4
:101EE8000394FFF7B5FF0122039B02FA03F3436053
:101EF800DAF800300394180448BF002203A858BF3A
:101F08009346CDE9003248BF4FF0010BFFF7A0FF21
:101F1800039C009B00EB8400D0F88040C3F3412C65
:101F2800019A2B0243EA8C0313433440234343EAC8
:101F38004B03C0F880300AF1040AA7E7C7F80C463B
:101F4800002215E0C7F81046C7E7C7F80846F7E7C4
:101F580003A80394FFF77CFF0122039B00EB830097
:101F6800D0F8803023F0E04343F08043C0F880305D
:101F7800631CBDD1DFE76FF01500A9E7FC75000011
:101F8800F0F0FCFF2DE9F04104460D46476803F0E8
:101F980094FE88B12021EFF311831A4681F3128849
:101FA800BFF36F8F60680068D0F83001D0B983F351
:101FB8001188BFF36F8FEEE71E4B1B78002BE9D01B
:101FC8004FF02008642663681B68D3F83031FBB9EA
:101FD800012003F0ABFB013EF5D10021202003F0E6
:101FE800E0FEEFE77B6A00201D706368796A1B6872
:101FF800C3F83C170121C3F84017C3F83001D3F8E0
:102008003001196582F31188BFF36F8FBDE8F08145
:10201800EFF311831A4688F31288BFF36F8F616854
:102028000968D1F830110029DCD183F31188BFF396
:102038006F8FD2E75F09002070B40F4CD4E9001508
:10204800501A63EB0506400940EAC6602026E0FB0B
:102058000615C4E90015002400250849C1E9002334
:10206800074BC3E90045EFF3118186F31288BFF3EC
:102078006F8F70BC01F070BDE8020020D002002014
:10208800E002002008B500220121E420FFF704F84F
:10209800164A0020D2F8183723F44033C2F818370C
:1020A80000F024FD002820DB0120114900F0AAFDE2
:1020B80000281ADB00F0F2FC0E4B20F01F00C3E9E9
:1020C80000010D4B0022C3E900014FF0FF304FF033
:1020D800FF310A4BC3E90001094B0A49187A00F09D
:1020E800EFFC67220020084B1A6008BD00200E5044
:1020F800EC010020E8020020C8020020D0020020E5
:10210800E4010020412000009805002008B500F0F7
:10211800C5FC064AD2E90032C01A054B61EB020140
:10212800C3E90001400940EAC16008BDE802002097
:10213800E0020020F7B5224B0146224F187A224BC5
:10214800D7E90056D3E900239E4208BF954211D132
:10215800B1F1806F0ED24901012938BF0121012256
:102168004D1946F10006C7E9005603B0BDE8F04036
:1021780000F0CEBD154BDFF858C0D3E90043DCE9C9
:10218800002CA41843EB0C0C4FF0200E224663469B
:10219800C1FB0E23954276EB0301C7E900230DD25C
:1021A800291B66EB0C04C82974F10004B4BF012193
:1021B8000021009100F076FD03B0F0BD0021F8E7A2
:1021C800E4010020D8020020D0020020E80200200C
:1021D800E002002003689A070CD50368DB070DD5D9
:1021E8000922074BC3F80C250F22C3F80425012246
:1021F8001A60FEE7034B0360EF3B0360704700BFC4
:1022080000801050F000FA5008B50123304A3148D8
:10221800C2F80038A2F55722D2F800242E4AD2F884
:102228004023272A04BF2D4AC2F80C34FFF7D2FFF7
:102238000830FFF7CFFF0830FFF7CCFF0830FFF773
:10224800C9FF00F5F470FFF7C5FF254AD2F88C30B6
:1022580043F44063C2F88C300022D30003F57F03B7
:1022680003F54043D3F8001401310AD0D3F8001421
:1022780039B1D3F800140132D3F80434402A0B6082
:10228800EBD1184BD3F80026D2071CD4164B1449AF
:10229800D3F8182522F00302C3F81825D3F8182517
:1022A80042F00302C3F81825D1F88C2042F44062AA
:1022B800C1F88C200022C3F8A0250C4AD2F80034BB
:1022C800012BFBD008BD6FF00102C3F80026DDE743
:1022D8000000125000F50E5000C0FF0000300550FD
:1022E80000ED00E000E0105000E0045000900450C1
:1022F800014B1B68184700BF9C05002010B50C4C0B
:10230800237993B9012323710A4B0028206018BF51
:10231800184600F0FDF850B923680748002B08BF9D
:102328001846BDE8104000F035B86FF0770010BDD2
:102338009C050020F92200009F57000008B5074BB4
:102348001B6853B14FF48770FEF798FE28B9BDE8B3
:1023580008404FF48770FEF76FBE08BD9C0500204B
:1023680038B504230A4C42F21075C4F80833012327
:1023780063610023C4F80831D4F80831D4F84C3428
:10238800DB0304D5012003F0D1F9013DF6D138BDB6
:1023980000E01050064A13793BB901211060117111
:1023A800044A1846C2F8403470476FF07700704707
:1023B800A405002000E0105010B51D4B1D4CD3F8AB
:1023C8004C14D3F84C2411F4803F19D002F00302C6
:1023D800012A01D08AB90022154BC3F840240022F3
:1023E800C3F80821D3F8082101221A6122688AB9A2
:1023F800D3F80821002AFBD014E0FFF7B1FFEAE781
:10240800D3F84824D107E6D5D3F850249207F4D45A
:1024180022681AB10422C3F8042310BDD3F8082196
:10242800002AFBD00022C3F80821D3F80831F4E7CA
:1024380000E01050A4050020F8B50125184C194EED
:10244800D4F80C3303F00C0303B9F8BDB3FA83F3E3
:102458000027C3F11F039A0002F5807292B202F1BD
:10246800A04202F58712176005FA03F1022B1268E1
:10247800D8B2C4F8081310D1D4F84C34D4F84C347A
:102488009B070AD10423C4F84054C4F804332561D7
:10249800D4F80C3303F00C03D6E733689847F7E712
:1024A80000E01050A4050020054BD3F84023272A4C
:1024B80003BFD3F84403B0FA80F040090020704706
:1024C80000C0FF0038B571230F490124C1F8083353
:1024D80000234C60C1F80031D1F80031FFF7E4FF68
:1024E80000B1CC6042F21074074DD5F80C3413F4E7
:1024F800803305D0012003F019F9013CF5D138BD2E
:10250800024A5371FBE700BF00E01050AC05002001
:10251800054B0246187918B91A6001221A717047DA
:102528006FF07700704700BFAC05002010B500249D
:102538001449C1F81041D1F81031C1F81841D1F847
:102548001831C1F81441D1F81431FFF7ADFF08B1C3
:1025580001238B60C1F80041D1F8003101230B60E1
:10256800094B1B6853B9074BD3F80021002AFBD04D
:102578000022C3F80021D3F8003102E07123C1F82A
:10258800043310BD00E01050AC050020F8B501265A
:10259800194C1A4DD4F80C3303F0710303B9F8BD84
:1025A800B3FA83F30021C3F11F039A0002F5807286
:1025B80092B202F1A04202F58712116006FA03F7FF
:1025C800042B1268D8B2C4F8087308D0062B10D0B0
:1025D8002B689847D4F80C3303F07103DEE7022325
:1025E8006B71C4F81411D4F814312023C4F80433DF
:1025F800EEE76971ECE700BF00E01050AC05002081
:10260800036803F01F025B09026004D0012B034832
:1026180018BF002070470248704700BF00820D5065
:1026280000A01050034A4309D35C00F01F0018446F
:10263800C0B2704705760000024611F0010010B5DF
:102648000BD18B07C1F340000DD50749086A5060CC
:102658000862003818BF012005E0044C236A1360A3
:102668002362002BEDD010BD00820D5000A0105049
:10267800F7B504460846FFF7D5FF04EB4006B38AD2
:102688000D46DB072AD5204603F089F9294620465E
:1026980003F0F6F850B1204603F008F90023276844
:1026A80007EB8000C0F81035C0F8103529462046E1
:1026B80003F025F9002101A8B1820195FFF7A0FFD9
:1026C800019B00EB8300D0F88020064B134043F0B9
:1026D8000203C0F88030084603B0F0BD6FF0150063
:1026E800FAE700BFF0F0FCFF2DE9F043044685B09F
:1026F800084615461F46FFF795FF0E46804625B348
:10270800204603F0C8F818B9204603F0B9F818BBFA
:1027180004EB4809B9F8143003F01C0313B16B78C3
:10272800012B19D001238DF80F3000233046CDE955
:1027380000536A1CAB1C0DF10F0103F049F8B9F8FE
:10274800143043F00303A9F81430002F3ED031466B
:10275800204603F0A0F820B96FF0150005B0BDE8D9
:10276800F0830022397823684FEA810C03EB810358
:10277800C3F81025C3F8102504EB4802938A23F404
:10278800604323F0200393827D78FDB12468B878F4
:102798006444D4F810750E4B2D043B40C4F8103532
:1027A80041F6F07305F4403503EA06130005D4F842
:1027B80010752B4300F4801003433B43C4F81035D5
:1027C800938A43EA413343F0200393820020C5E70C
:1027D8000FE0ECFF70B590F86C40054690F86D601E
:1027E80044BB3E222146143003F01FFE2146134A03
:1027F8002B6852F836608E4212D1002440F20D1038
:10280800C3F84441D3F844210D4A934208BFDB2062
:10281800FEF712FC0123204685F86C30AB6570BDCD
:10282800CAB2920002F58070442A04BF1C501A589C
:102838000131E0E76FF07700F1E700BF5470000066
:1028480000A00D5090F86D00024B03EB800002F0E1
:1028580089BF00BFF401002010B5064B90F86D0049
:102868000C4603EB800002F063FF0028A4BF207031
:10287800002010BDF40100202DE9F04F804658F8E3
:1028880004AB90F86D40DAF814136A4BC9B253F8E8
:10289800342007468BB0504641F4003103F058F815
:1028A8008203054639D50023CDE90833614BE6009C
:1028B80003EBC404636808A819460093FFF7BCFE3D
:1028C800331D03934FF0000B5B4B0DF1200902936E
:1028D800029A584912F8013B0292039A02EBD3027A
:1028E8008A5C03F0070322FA03F3DB071BD40BF11E
:1028F8000103022B4FF0010B09F10409E8D14FF451
:1029080000310022504603F023F8009908A8FFF789
:1029180093FE0028D6D125F400350124002D73D16B
:102928000BB0BDE8F08F454B5B440493D9F80060C9
:10293800002EDCD096FAA6F6B6FA86F6049B1C782A
:1029480046EA44142046FFF76DFE07EB4000818AF3
:10295800F208C1F3820305930193012319F80200D9
:1029680006F0070603FA06F620EA060009F8020050
:1029780007A80794FFF744FE079A11F0100F02F119
:10298800200250F82260059BC6F3014623D040463A
:10299800019A214602F094FF07A80794FFF730FE3A
:1029A800079BF6B2203350F82330C3F301439E420D
:1029B80007D10021204602F054FF3146204602F09C
:1029C80050FF07A80794FFF71BFE0122079B02FA96
:1029D80003F30362AAE7022E14BF02210321204653
:1029E800059302F03EFF059B032B03D0022E07D16F
:1029F800012BE6D121464046019A02F061FFE0E74B
:102A0800032EDED1022BF4E795FAA5F3B3FA83F38C
:102A180004FA03F225EA020503F5A2725AF8222005
:102A280007EB43034046B3F85C10C2F3014202F0DF
:102A380047FF73E754700000157600001576000014
:102A48000123034A03FA00F0936803439360704735
:102A58006000002073B504460191EFF3118620232E
:102A680083F31288BFF36F8F0B4D019B6A6801A82F
:102A78001340019302F05CFE002807DB01226B681B
:102A8800824023EA02036B602070002086F31188DD
:102A9800BFF36F8F02B070BD600000204FF0FF30B1
:102AA8006FF0404130B5054CD4E90023904271EBFA
:102AB8000305F9D31046C3F3130130BD40270E5068
:102AC80030B50C25074B1C1894F8544005FB04330B
:102AD800C3E9031218750123034A8340C2F824335B
:102AE80030BD00BF6000002000200E50F8B53E4CFD
:102AF8002278002A72D13D4BD3F8101521F002013B
:102B0800C3F81015D3F8101541F00101C3F81015DA
:102B18000521C3F8A4160421C3F8AC1607236721BE
:102B280001F001000244013BD2B24FEA5101F7D152
:102B3800052A56D119464FF0010C2B4E0025672067
:102B4800CFB204E00CFA02F220EA0200013590FA52
:102B5800A0F25FFA85FEBE45B2FA82F2F2D30131E5
:102B680032750529224482F8547006F10C06E5D125
:102B7800012100251E489A0801FA02F212F0670F97
:102B880018BF1D500433302BF5D1E420FEF754FA5A
:102B9800164B1849D3F8102503F5C07322F002022A
:102BA800C3F8902340F6FF72C3F8A82100221A60E8
:102BB800A3F5807004338B420260F8D101250B4BDA
:102BC8000D4A1D660D4B5D201B68B3FBF2F358439D
:102BD8000B4B2B43984700202570F8BD6FF077000A
:102BE800FBE76FF08B00F8E76000002000200E5034
:102BF80000210E50B0210E5040420F00F00100207D
:102C0800706F000038B5244B0D46D3F81025940793
:102C18003CD4D3F8102542F00202C3F81025C0B105
:102C2800D3F8482712F0010202BFD3F8481741F041
:102C38000101C3F84817184BD3F84017D3F84417C5
:102C48004800F9D42AB9D3F8482722F00102C3F87A
:102C58004827124B124A1B68B3FBF2F30E4A03EBE8
:102C68004313B3B1D2F84017D2F8441749000BD434
:102C78004FF0FF312846FFF7EDFE044610B92878DB
:102C8800FFF7DEFE204638BD013BEAE76FF0770428
:102C9800F8E76FF07304F5E700200E50F00100200C
:102CA80040420F0070B51E461546174A9DF8101091
:102CB800131893F854300C3302EBC30442F8335022
:102CC8006660C6F313020401A1B104F1A04404F53F
:102CD8006224C4F82055C4F824250C4C8000044410
:102CE800236833B1FFF7DAFEA842B14101D20023CD
:102CF800236070BD04F1A04303F56223C3F8205597
:102D0800C3F82425F5E700BF6000002000210E501D
:102D1800F0B50E4D2B1893F8543000010C3355F8CC
:102D2800334005EBC3077E68641800F1A04021F02A
:102D3800004146F1000641EAC27100F5622045F8FB
:102D480033407E60C0F82815F0BD00BF6000002049
:102D5800F7B5284B284CD3F82C6304F188070EB933
:102D680003B0F0BD96FAA6F00123B0FA80F08340D4
:102D7800DA43224926EA0306231893F854508300BD
:102D880019440C2303FB0543DB6873B3D7E8EF3F13
:102D980003EA020CC7E8EECFBEF1000FF6D1C3403C
:102DA800DB0719D5020102F1A04202F56222D2F82E
:102DB8002435D2F82025D1F800C0BCF1000FCED0C0
:102DC8004FF0000CC1F800C00C2101FB0545296932
:102DD8000091E9688847C2E705F10C0304EBC30CCE
:102DE80054F83320DCF80430E5E70A68002AB6D046
:102DF8000B60B4E700200E506000002000210E5048
:102E0800044B40EA0120C3F80005D3F80024D20798
:102E1800FBD5704700E0045038B5EFF31185202347
:102E280083F31288BFF36F8F064B9C6802F02FFF65
:102E380085F31188BFF36F8F2046BDE83840FEF751
:102E4800B5B900BFB405002038B50A4B53F8204087
:102E5800013053F82050A54200D838BD606830B121
:102E6800037EDB0701D402F0E7FE0834F3E72368AA
:102E78009847FAE764700000012270B5294B86B0C4
:102E880003201A70FFF7E0FF03F058F80420FFF75B
:102E9800DBFF254C254D2646AE4204F130040FD306
:102EA80000F0B4FB204CAC4226D300F0C3FBFDF786
:102EB8007FFC1F4A938923F00103938106B070BDFC
:102EC80054F80C3C059354F8103C049354F8143C03
:102ED800039354F8183C029354F81C3C019354F89B
:102EE800203C009354E90A2354E90C0100F0DAF974
:102EF80054F8303C5E65CEE7D4E90A23B3F1FF3FCE
:102F080008BFB2F1FF3F05D052EA0301206803D1A0
:102F180002F070FF3034C6E70649183000F08CFD27
:102F2800F8E700BF5F0900200C6F00000C6F00007D
:102F380078030020855D0000882370B5134E0122B8
:102F480003FB0066002386B0CDE904230F2201931A
:102F5800CDE9023214234FF4A0720D4D0D4903FB45
:102F68000055044602FB00110B4B3046009500F05B
:102F780099F9337C2C7423F004033374074B013420
:102F880003EBC423EE606B6006B070BDF002002056
:102F9800B4050020681100209D5C0000680900202D
:102FA8007FB50020FFF750FF284B03F5006282F33E
:102FB800088883F30A880024E023254D85F8223009
:102FC800EC772C766C76AC7685F820406B6A43F407
:102FD800E0236B6285F82340FDF79AFFFEF7D0F8EF
:102FE8004FF0FF33AB62EB62FEF7B0FAFEF74AF937
:102FF800184800F095F90120FFF726FF0220164D2A
:10300800FFF722FF00F040FB144B4FF480625D6134
:10301800134B1449059301232846CDE90343CDE911
:103028000144114B009400F03DF906462B7C2846DC
:1030380023F004032B7402F07EFE2046FFF77CFF8A
:1030480031462846084AFEF77BF800BF6809002089
:1030580000ED00E00004002078030020B405002003
:10306800E8750000A8120020812E00002DE9F34128
:10307800044617461E46EFF31188202383F312886F
:10308800BFF36F8F304BC2689B6872B180689842FB
:1030980017D057EA060216D188F31188BFF36F8F4D
:1030A8006FF00F0002B0BDE8F08193F90E10013205
:1030B8002161C4E9023288F31188BFF36F8F0020C1
:1030C800F0E72169F3E793F90E1090F90E30994271
:1030D80030DA9942A8BF194602F0E7FD05462246B4
:1030E8004146CDE90076194800F002FA0028E6D0FA
:1030F800EFF31186202383F31288BFF36F8FA06844
:10310800D0B1236821699C420AD04BB193F90E30A3
:103118009942A8BF19466FF07F039942B8BF194674
:1031280002F0C3FD40B13146084802F037FE6FF0A7
:103138000A00B7E70025D2E7002DF4D186F31188FD
:10314800BFF36F8FF3E700BFB405002060090020CC
:10315800F8B583680546002B40D0234A926893420D
:103168003FD1C368012B03D9013BC3600020F8BDE0
:10317800EFF31187202383F31288BFF36F8F016960
:10318800806802F092FD2C68A54207D10023C5E9AA
:10319800023387F31188BFF36F8FE7E7002CF5D070
:1031A800D4E90032002613605A60237CC4E9006623
:1031B80023F002032374A66004F1180002F085FED0
:1031C800AC6094F90E3020462B61C4F8806002F0A0
:1031D800B2FD3946054802F0E1FDC7E76FF015007A
:1031E800C5E74FF0FF30C2E7B405002060090020B2
:1031F80070B5EFF31186202383F31288BFF36F8F26
:103208000468A0421BD0D4B1D4E900320025136071
:103218005A60237CC4E9005523F002032374A56097
:1032280004F1180002F051FE2046C4F8805002F064
:1032380082FD3146BDE87040064802F0AFBDD0E9D6
:1032480002329A4218BF0133836086F31188BFF3B4
:103258006F8F70BD6009002013B5EFF31181202432
:1032680084F31288BFF36F8F846844B1013C846093
:1032780081F31188BFF36F8F002002B010BD52EAAE
:10328800030406D181F31188BFF36F8F6FF00F002D
:10329800F3E7CDE900230246014800F029F9ECE7FD
:1032A800600900202DE9F043984685B000F15803E5
:1032B800C0E91633109B002683810423073222F0CD
:1032C800070503740F9B01EB05090F4683734946F5
:1032D800C0E906668660C6730446FDF717FC0E9BB8
:1032E800073020F007002067C4E91A7502930D9B88
:1032F800A9EB000901930C9B4A46009339464346C3
:103308002046FDF701FF054B66659B6803B15B6FBF
:103318004846636705B0BDE8F08300BFB4050020E8
:103328000123037483810023C0E91A334367014BE7
:1033380098607047B40500206FF00A01094A936845
:10334800C3F880100849D8674B6843F080534B6036
:10335800002383F31188BFF36F8F9368D3F880003D
:10336800704700BFB405002000ED00E070B590F98B
:103378001020037C002A2FDBD9062DD11A4C63F0CC
:103388007F032246037452F8183FE169934207D13C
:10339800C0E900210860E0610FE09942F8D01B689D
:1033A800002BF5D093F90E6090F90E50AE42F4DD83
:1033B8005968C0E9003108605860A569954200D095
:1033C80005B9E568A3681A7CD20606D1DA897F2A8E
:1033D80003D9AA690AB9636170BDAB4202D0284615
:1033E80000F0ACFA6561F7E7B405002038B590F94C
:1033F80010200146002A037C04DA03F07F030374DB
:1034080002F061FC0D4D2A4652F8184FAB68944201
:1034180000D004B9EC688B4207D01A7CD20604D1DC
:10342800DA897F2A01D9A2692AB1A34202D02046AB
:1034380000F084FA23466B6138BD00BFB405002054
:10344800B3F1FF3F08BFB2F1FF3F03D00249183084
:1034580000F0F2BA704700BF855D0000034648B926
:10346800EFF3058232B9064A51699268914201D058
:10347800FFF762BF83F31188BFF36F8F704700BFF8
:10348800B405002038B5184CA168E0690B68814282
:1034980014BF1A46002249680B605960A368E169A5
:1034A8002AB9124AC3E900210B60E3610AE092F9E4
:1034B8000E5093F90E00854212DD5168C3E90021D0
:1034C8000B605360A569094B9D4200D005B9E568BA
:1034D800A3689D4202D0284600F030FA656138BDE5
:1034E8008A42DED01268DBE7B4050020CC05002054
:1034F800F8B5DDE906670D4B0C46986811460C4A8D
:103508001060EFF31182202282F31288BFF36F8FCD
:103518009D68284602F0E9FB284632463B46FFF7FD
:103528008FFF2046BDE8F840FFF706BFB40500202E
:10353800D4050020F8B50446EFF31187202383F360
:103548001288BFF36F8F037C49B203F01F02002A71
:103558000CBF0126002635D103F07F032A4D0374E2
:1035680002F0B1FB2A46037C817363F07F03037486
:1035780052F8183FE869934207D1C4E90020046073
:10358800EC610DE09842F8D01B68002BF5D093F958
:103598000EC08C45F6DD5968C4E900310C605C60EA
:1035A800AC69944200D004B9EC68AB689C4202D084
:1035B800204600F0C3F96C6187F31188BFF36F8F61
:1035C8003046F8BD9B071CD5856802F07CFB8173EB
:1035D8002B689D4209D16B68C4E900531C606C607C
:1035E800EAE76A689A42F6D01B68002BF3D093F991
:1035F8000E208A42F5DD5A68C4E9003214605C6026
:10360800DAE78173D8E700BFB4050020EFF3118132
:10361800202383F31288BFF36F8F054B9A68D37BFF
:10362800013BD37381F31188BFF36F8F704700BFDD
:10363800B405002070B5EFF31186202383F31288B8
:10364800BFF36F8F0F4DAB68DA7B0132DA732A460E
:1036580052F8184F944200D004B9EC681A7CD2068C
:1036680004D1DA897F2A01D9A2692AB19C4202D001
:10367800204600F063F923466B613046BDE8704090
:10368800FFF7ECBEB4050020024B03F11802C3E9B2
:1036980006227047B405002070B5EFF31186202389
:1036A80083F31288BFF36F8F1A4CA168E0690B6827
:1036B800814214BF1A46002249680B605960A3680A
:1036C800E1692AB9144AC3E900210B60E3610AE001
:1036D80092F90E5093F90E00854216DD5168C3E940
:1036E80000210B605360A5690B4B9D4200D005B9C2
:1036F800E568A3689D4202D0284600F01FF965617D
:103708003046BDE87040FFF717BE8A42DAD012682B
:10371800D7E700BFB4050020CC050020F8B550EA73
:10372800010306460C4603D1FFF7B6FF0020F8BD9B
:10373800EFF31187202383F31288BFF36F8F124DA5
:10374800124BA8681860FFF751FEA8682346324656
:103758000F49183000F070F9AA680446137C3846FF
:1037680043F004031374FFF7E7FDAB68D3E90A23BA
:10377800B3F1004F08BF002AD8D102F0DBFB201AB2
:1037880020EAE070D3E700BFB4050020D40500208C
:10379800855D0000014B9868704700BFB4050020A4
:1037A8002DE9F84304468789EFF31186202383F334
:1037B8001288BFF36F8F037C190705D586F311882C
:1037C800BFF36F8FBDE8F883D90943F008026FD1C2
:1037D8000274A36813B1204602F07DFA04F11800C0
:1037E80002F073FBA56D04F15808A84511D04FF0FD
:1037F800000975B1284602F06EFA05F1180002F0CA
:1038080064FB2846C5F88090FFF7B0FDA56DA84574
:10381800EFD1DFF8BC80D8F808309C4250D1EFF3E4
:103828000589B9F1000918BF4FF00109D8F81850F7
:10383800284A954200D00DB9D8F80C50AB4202D0B6
:10384800284600F07BF82046C8F8145001F084FDA3
:10385800B9F1000F02D02048FFF762FDD8F8083010
:103868009C4230D1EFF305836BBBA289D20711D5F7
:1038780086F31188BFF36F8F83F31188BFF36F8FBF
:103888000423184602DFEFF31186202383F31288FE
:10389800BFF36F8F3046FFF74FFDFB0792D500232C
:1038A80083F31188BFF36F8F0423184602DF89E77B
:1038B80003F07F0343F00803037402F004FA88E777
:1038C8004FF00009B2E786F31188BFF36F8FE4E782
:1038D800B4050020CC05002000040020027C03462B
:1038E80012F01F0210D10A4988420DD00949086810
:1038F80068B1D9897F2909D893F90E20064B1B682E
:103908009A42B8BF002070470020704710467047A1
:10391800F0020020FC010020D80500200122044B01
:10392800C01A044BC0105843034B1A54704700BFC9
:1039380088040020ABAAAAAA6009002070B50C4B25
:103948000C4D1E7CFFF7CAFF182303FB06550446DF
:10395800284602F0BAFA0022074B9A553CB1621E7B
:103968002846BDE870400549D31700F065B870BD1A
:10397800B4050020880400206009002025390000D3
:1039880038B5EFF31185202383F31288BFF36F8FC7
:103998000F4B104A9C681068A04206D1FFF7CEFF73
:1039A80085F31188BFF36F8F38BD00211B7C116030
:1039B800094AD35C002BF3D02046FFF78FFF00287D
:1039C800EED0237CDB0601D1FFF75CFD2046E5E75E
:1039D800B4050020D405002060090020024B1868B7
:1039E800984208BF0020704700020020034B1B6864
:1039F8000BB9FEF78BBB0020704700BFDC05002029
:103A080030B570B10B4B5B6898420AD0036843B17C
:103A1800D3E90421D0E90445121941EB0501C3E9B2
:103A28000421D0E9003213605A600023C0E9003352
:103A380030BD00BF00020020B3F1FF3F08BFB2F164
:103A4800FF3F2DE9F84F0446994615461F467AD0A0
:103A58008160EFF31188202383F31288BFF36F8FFF
:103A6800B9F1000FDFF8E4A020DBFFF7BFFFDAE9C8
:103A78000027013549F100092D1849EBE073064686
:103A88004FF00109C4E90453AD1843EB0707FFF7EA
:103A9800A5FF0346DFF8B8E0DEF804A0EBB9C4E9F7
:103AA80000EACAF80040CEF8044028E06FF00103AD
:103AB800DAE900125B1A4FF0FF3161EB02025B1B7F
:103AC80062EB0902012B72F10001BCBF0123002245
:103AD8004FF00009C0E90432D9E7D3E9041CD4E95E
:103AE80004208A4270EB0C0B24DA891A5A686CEBB2
:103AF8000000C3E90410C4E9003214605C60FFF7F9
:103B08006DFF84420ED1134B1B685BB9B9F1000FEE
:103B180002D1FFF76BFF0646304602F0BFF90021DD
:103B2800FEF708FB88F31188BFF36F8F28463946E4
:103B3800BDE8F88F521A60EB0C005345C4E9042025
:103B4800ADD01B68AAE700252F46EFE7A0040020A8
:103B580000020020DC0500202DE9F047DFF8A890DE
:103B68000246C9F800000D46FFF738FF0026002777
:103B7800DFF898804FEAE27ED8E9001350B1D0E927
:103B8800044CA2427EEB0C0A1ADAA41A6CEB0E065D
:103B9800C0E904460024521843EB0E032046C8E946
:103BA8000023C9F8004002F079F92146FEF7C2FA6D
:103BB80085F31188BFF36F8FBDE8F047FFF7E0BECC
:103BC800611843EBE473C0E90467C8E90013FFF721
:103BD80017FF01224FF00043C0E9042385F3118841
:103BE800BFF36F8F83689847EFF31185202383F322
:103BF8001288BFF36F8FD9F80020121BC9F8002074
:103C0800FFF7ECFEB6E700BFDC050020A0040020AB
:103C180010B5EFF31184202383F31288BFF36F8F5D
:103C2800FFF7E4FE0346054AD2E90001181841EB04
:103C3800E37184F31188BFF36F8F10BDA0040020D7
:103C480038B50C4C0C4802F0A9F965780A4802F01E
:103C5800ABF90A4802F0A2F9022D08D12478E31F33
:103C68005C425C41054802F09FF9204638BD0024BB
:103C7800F8E700BFE005002008020020200200202D
:103C880010B51B4C1B4802F089F92378590744BF2B
:103C980003F0FB0323709A0705D500F0B1F82378E9
:103CA80023F002032370134802F07EF9124802F051
:103CB80075F9637813B1114802F06EF900230421F5
:103CC8000E48637000F0B6F80B4802F06DF9094829
:103CD80002F064F92378DB0705D502F05AF9237856
:103CE80023F0010323700348BDE8104002F05CB9DB
:103CF800E00500202002002008020020E405002042
:103D080070B5FFF79DFF10B10024204670BD344800
:103D180002F044F9044620B16FF08F04FFF7B0FFBA
:103D2800F3E7304D2B789E0706D400F061F804467F
:103D38002B7843F002032B70294802F035F910B1B3
:103D4800002CE9D0EAE7002CE8D1254802F026F952
:103D580004460028E0D12B78D80706D402F017F9DA
:103D680004462B7843F001032B701D4802F01CF920
:103D78000028E5D1002CD1D1194802F00FF900280C
:103D8800CAD117482E7802F00FF90028C4D1164876
:103D980002F004F904460028BED16B783BB9F1075C
:103DA80005D5124802F0F6F8022304466B700E4857
:103DB80002F0FAF80028C3D1002CAFD1084802F06D
:103DC800EDF80028A8D12B7805485A075CBF43F0C6
:103DD80004032B7002F0E8F8002895D09CE700BF98
:103DE80020020020E005002008020020E405002051
:103DF8000122024B002083F8C0227047E80500200A
:103E08002DE9F0410A4C002526464FF0010803270A
:103E18002046C4F820802777013502F09BF8102D42
:103E280004F12C04F4D1002386F8C032BDE8F081F7
:103E3800E805002010B50A46044619B1024B0021D6
:103E48001B68984710BD00BF7C70000010B50D4C72
:103E5800206802F036FA0C4A1368591C11605BB9E5
:103E68000A4A5920D2F8003443F00703C2F8003454
:103E7800FDF7E2F800F080FA2068BDE8104002F093
:103E880026BA00BF3C020020AC0800200090055074
:103E980038B5164D286802F014FA154B1C68013C19
:103EA8001C60ECB95920FDF7D5F80722114BC3F86F
:103EB8000823D3F8002422F00702C3F80024C3F82B
:103EC8000041D3F80021C3F80441D3F804214FF08E
:103ED8000072C3F80841D3F80831074BC3F88821AA
:103EE8002868BDE8384002F0F2B900BF3C02002063
:103EF800AC0800200090055000E100E070B5104DBE
:103F0800104E2B68B34219D0FFF7A0FF00F084FBD6
:103F180000F01AFC38B102F049F80446FFF7B8FF80
:103F28003CB92E6005E000F0D1F9044618B1FFF75E
:103F3800AFFF204670BD02F0F4F8EEE70024F8E782
:103F480038020020117365000022074BC3F81021C6
:103F5800C3F80C21C3F80021C3F80421C3F80821D1
:103F6800C3F81821704700BF0090045008B5FFF748
:103F7800EBFF01230360104B0A6832B9D3F80C2118
:103F88001AB9D3F80821002AF6D00B687BB90B4B75
:103F980099420ED0A3F58473D3F80831002B14BFCF
:103FA8006FF002004FF0FF30FFF7CEFF08BD002092
:103FB800FAE74FF0FF30F7E70090045008910450FB
:103FC80038B505460C4691B10021012001F02DFEBF
:103FD80008480949C0F80055C0F80445FFF7C6FF6E
:103FE80000210446084601F020FE204638BD6FF047
:103FF8000104FAE70090045000910450034B04496F
:10400800C3F800050348FFF7B1BF00BF0090045094
:10401800049104500490045010B504460021012076
:1040280001F003FE064B0749C3F800450648FFF7B1
:104038009DFF00210446084601F0F7FD204610BD0B
:1040480000900450089104500890045038B50C466C
:1040580059B1074D0749C5F800050748FFF786FF1E
:1040680010B9D5F80835236038BD6FF00100FBE7BB
:1040780000900450109104500C9004502DE9F04F1A
:1040880089B01C4607460D46164602F027F8034637
:10409800002840F0F8807A690090C2F3013161F39A
:1040A80005138DF8003013F0300308D1B868800785
:1040B80010D06FF08608404609B0BDE8F08F102B8D
:1040C80008D1BDF8023023F4F87343F4A873ADF8AF
:1040D800023053E0D2B2F82A2ED100224FF0010B61
:1040E800904610469446D7F808E0DFF8D09159F882
:1040F80004AB1EEA0A0F08D00BFA0CF242EA0802D7
:1041080002F07F08012240EA0A000CF1010CBCF120
:10411800070FECD12AB19DF8032068F347028DF808
:1041280003203EEA000007D17A88FF2A0FD006D87C
:10413800802A35D0C02A35D06FF08508BBE7B2F5A4
:10414800807F31D0B2F5C07FF6D1062200E003228D
:104158009DF8020062F306108DF8020013B91EF0F4
:10416800030FA6D13B79022B2BD01FD8012BA0D14E
:10417800BDF8022063F3C812ADF80220012938D037
:10418800032923D0002994D13B88B3F5105FD3D1FC
:10419800182C03D0202C01D0102C8AD1484F2CE0A9
:1041A8000122D5E70222D3E70422D1E7032B02D06C
:1041B800FF2B7FF47EAF0222BDF8023062F3C813F2
:1041C80085E7BDF8023043F4C07380E7202C05D0A2
:1041D80006D8102C02D0182C7FF46BAF394F0CE0A6
:1041E80024F02003412B01D0302CF5E70136013CA7
:1041F800F4E7302C7FF45DAF334F4FF000080F34F5
:104208004FEA141905EB080001F046FF002852D0C8
:1042180008F10108C145F5D11F2C2ED11C2200211F
:1042280001A802F002F94FF0000B4FF0FF3A07EB3C
:104238000B124FEA0B130692BBF1000F26D1009A1E
:104248000792BDF802203344C2F3C11205920DF162
:10425800040C03F1100E624618685968083303C24B
:1042680073459446F7D101A905EB0B00FFF7A8FEAB
:10427800804670B101F032FF05E04946284601F05A
:1042880015FF0028CAD06FF0920814E7CDF81CA0DB
:10429800D7E71C2101A80BF1010B02F03AF8D94528
:1042A800C5D11F2C3FF407AFBA20FFF7B5FE002891
:1042B8003FF401AFE7E76FF08A08FCE68070000082
:1042C80000FF0220000000201094055010B590B0A7
:1042D8001C22002101A802F0A8F8F82001F0DCFE59
:1042E80000B3202200200DEB020100F02FFB044652
:1042F800F0B94FF48071104A104B01A8CDE90123A1
:104308000F4BCDE903130F4BF821069320230DEB38
:104318000302FFF7B3FE202104460DEB010001F074
:10432800F8FF05E0F92001F0B7FE0028D9D10446CE
:10433800204610B010BD00BF00240001014B4E8084
:104348000010C004F800FF7FBFF35F8F094A1368AD
:10435800BFF35F8F43F48071BFF35F8F1160BFF3CA
:104368005F8F23F48073BFF35F8F1360BFF35F8F9A
:10437800704700BF00100150BFF35F8F1522064B36
:104388005A62BFF35F8FBFF35F8F40F237129A62B2
:10439800BFF35F8F704700BF0010015008B5FFF7EB
:1043A800D3FFBFF35F8F064A1368BFF35F8F43F0F5
:1043B8000103BFF35F8F1360BFF35F8F08BD00BFBA
:1043C8000010015070B50026C0E9006605460C468D
:1043D800FFF73CFD01232B70FFF7B6FFBFF35F8F9C
:1043E800204BDB68BFF35F8F9B08013BACB32268AF
:1043F80042B19A4205D9FFF74BFD6FF03F002E708E
:1044080070BD1346D4E90115E068002908BF4FF4D0
:104418000071002808BFF1202469BFF35F8F114A9B
:104428009360BFF35F8FBFF35F8F1564BFF35F8F38
:10443800BFF35F8F5064BFF35F8FBFF35F8F51632C
:10444800BFF35F8F44F4802444F00104BFF35F8F0F
:104458001460BFF35F8F0020D2E74FF40071F120A2
:104468002546DAE70010015070B503780D4614466A
:10447800002B52D0BFF35F8F2C4A136BBFF35F8FB3
:1044880003F00E010A294BD013F00C0F02D14FF0A4
:10449800FF3070BD4368D3B9BFF35F8F5368BFF374
:1044A8005F8F032BF3D9224B2249BFF35F8FD2F8DA
:1044B8008060BFF35F8FBFF35F8F43F8046BBFF378
:1044C8005F8F8B42F1D1FFF769FF01234360BFF390
:1044D8005F8F164B9A68BFF35F8F0132B4EB021FF0
:1044E80021D8BFF35F8F5A68BFF35F8FB4EB820F99
:1044F800CDD884B1BFF35F8FD3F88020BFF35F8F2F
:10450800291D05F8012BA9424FEA122204F1FF34B4
:10451800EFD0002CF5D10020BBE76FF02000B8E702
:104528006FF05100B5E76FF03F00B2E7001001509F
:10453800101001502010015010B50446FFF786FCFA
:10454800104B186801F0BDFE0CB101232370BFF3B6
:104558005F8F00200C4BD861BFF35F8FBFF35F8F75
:104568004FF0FF321A63BFF35F8FBFF35F8F3422C0
:10457800DA61BFF35F8F012203F59223C3F80423A6
:1045880010BD00BF400200200000015010B50446D5
:1045980008B1037843B1FFF77BFC044B186801F0BE
:1045A80096FE0CB10023237010BD00BF400200200E
:1045B80038B5154CD4F80051BDB1BFF35F8F134B1C
:1045C800996ABFF35F8FBFF35F8F4FF0FF321A63B3
:1045D800BFF35F8F0023C4F80031D4F800310C4BCF
:1045E8001868BDE8384001F085BED4F8083153B1E9
:1045F80000F076F801F0C5FDC4F80851D4F8083188
:104608000121044BECE738BD009005500000015033
:10461800480200204402002008B5074B186801F042
:1046280058FE064B186801F054FEBDE80840002209
:1046380059201146FCF730BD4802002044020020F2
:1046480038B5094B1C7864B1084B4FF0FF311D6831
:10465800284601F040FE4FF0FF310446284601F09D
:1046680047FE204638BD00BF5F09002048020020F1
:1046780010B5064CE36C3BB9214651F84C3B9869A0
:1046880001F0D1FD0123E364014810BDB00800200A
:10469800FC08002010B504460E4B186801F011FE06
:1046A8000D4B1A68236122605A6862609A68A2609A
:1046B8000A4A12689A660023A364FFF7C7FB2046DC
:1046C80001F050FD0028FAD1204601F050FD0028E5
:1046D800F5D110BD4C020020B00800209C700000ED
:1046E80000487047B008002010B50446074A03691F
:1046F800126801219A66002201F077FD204601F038
:1047080085FD2046BDE8104001F043BDB4700000AF
:1047180010B50446FFF7E8FF0422084BC3F8082346
:10472800FFF7B6FB064A236912689A66002363649A
:10473800044BBDE81040186801F0C9BD0090055051
:104748009C7000004C02002010B50E4B0E4C2360EC
:1047580003F5C04363602461FFF78AFF236D204699
:10476800B3F5007FCCBF4FF480634FF40073A360B0
:10477800FFF790FF2046FFF7B7FF2046FFF7C8FF77
:10478800002010BD00200150B0080020244B034039
:10479800B3F5806F30D016DC402B2FD008DC102BFF
:1047A8002ED0202B2ED0181E18BF01204000704795
:1047B800B3F5807F28D0B3F5007F27D0802B14BFB6
:1047C80002200B207047B3F5804F21D00BDCB3F5E6
:1047D800805F1FD0B3F5005F1ED0B3F5006F14BF24
:1047E800022006207047B3F5004F17D0B3F5803F7D
:1047F80014BF022003207047112070470A20704719
:104808000C20704709207047082070470720704720
:104818001420704705207047042070470F20704708
:10482800F0FF010000212DE9F043064695B0084647
:10483800FFF782FE0DF12705044625F01F0520B17C
:1048480015B0BDE8F04301F0B1BB4FF01009DFF837
:104858008080012210211F4801F014FC1D4A2B19E9
:10486800009320211023CDF80490A2F1200000F03D
:104878000FF9074650B10020FFF788FE384601F0CF
:1048880095FB0746384615B0BDE8F083D8E90C32E9
:104898001034013342F10002302CC8E90C32D8D16F
:1048A800FFF774FE26B122463146284601F0DDFBAB
:1048B8002E46074C0FCE0FC496E80F00203584E82B
:1048C8000F0095E80F00103484E80F00DAE700BF06
:1048D800A8040020C8040020F0B5194D194FAB6B8F
:1048E8008DB0BB4229D0184E306801F0EAFC402355
:1048F80000221946284601F001FD3021684601F0E2
:10490800B8FC044678B96846FFF78CFF044690B9AE
:10491800302302461946684601F0F0FC01220023C4
:10492800C5E90C23AF63306801F0D1FC204601F0E3
:104938003DFB0DB0F0BD0E24F5E70020F9E700BF00
:10494800A8040020B4A5B4A5500200202DE9F04F1A
:1049580099B00DF1570902F10F0A04468846154629
:1049680029F01F094FEA1A1A32B1002900F087808E
:10497800B2F5005F00F28380424F434E386801F081
:10498800A0FCD6E90C32134308D12046FFF7A4FF58
:10499800044618B1386801F09AFC5CE0D6E90C23AB
:1049A8001AEB020A43F10003BAF5803F73F10003E2
:1049B80014D3302102A801F05CFCF8B902A8FFF773
:1049C80031FF04460028E5D130230246194602A8E3
:1049D80001F094FC00220023C6E90C2300210846BC
:1049E800FFF7AAFD044660B910249DB92846FFF7D1
:1049F800CDFD2846FFF716FF0446CBE76FF092047B
:104A0800C8E7386801F063FC204619B0BDE8F04FEC
:104A180001F0CCBA102D4FF001024FF010011B48E5
:104A2800AB4628BF4FF0100B01F02CFB174A1023A0
:104A38002021CDE90094A2F1200000F029F8824657
:104A480068B10020FFF7A2FD386801F040FC50462D
:104A580001F0ACFA0446204619B0BDE8F08F5A467A
:104A68004046494601F0D4FCD6E90C32013342F104
:104A78000002C6E90C32A5EB0B05D844B5E76FF088
:104A88008604E8E750020020A8040020C80400209B
:104A980037B54FF480740194214C41F00051A16165
:104AA80040F6110143F00053A3622123E16104F1B0
:104AB8002001616101212262E362069A194B01AD6E
:104AC8001A60079A256042F000521125C3E90112C5
:104AD8002022DFF854C02061C4E902C504F11005A2
:104AE80065606162DA60BFF35F8F104A1460BFF3DC
:104AF8005F8FBFF35F8F1361BFF35F8FBFF35F8F6C
:104B080003235363BFF35F8FBFF35F8F9363BFF3D9
:104B18005F8F00F033F8431CFBD003B030BD00BFFB
:104B28002C0900201C09002004000020000001506E
:104B380038B5BFF35F8F104CE569BFF35F8FBFF3E4
:104B48005F8F10236363BFF35F8F012001F0D4FBF5
:104B5800BFF35F8F00236363BFF35F8FBFF35F8F84
:104B6800E36BBFF35F8F5B06F8D425B1BFF35F8FAC
:104B7800E561BFF35F8F38BD0000015008B5FFF74E
:104B88005FFD104A20B9BFF35F8F906ABFF35F8F54
:104B9800BFF35F8FD36BBFF35F8F10F0240F03F069
:104BA800230304D0FFF7C4FF6FF01F0008BD4FF0C8
:104BB800FF30002BFAD1BFF35F8F1063BFF35F8F15
:104BC8001846F3E70000015073B50446EFF3118669
:104BD800202383F31288BFF36F8F8368594003EA59
:104BE80002050A4053400022009309496B4601928E
:104BF80001F020F9DDE9003223EA020304F10C0098
:104C08003146A36001F0CAF8284602B070BD00BF63
:104C1800B96300002DE9F04F43688BB08046924697
:104C2800009383789C0740F1F980002508780028D4
:104C380000F0F68025280AD04B1C01930135414627
:104C4800009B98470028C0F2E3800199EEE74E7870
:104C58008B1C252E0193F1D000270A22B9463C4629
:104C68001F2C22D8A6F12003102B20D8DFE803F050
:104C7800141F1F1A1F1F1F0B1F1F1F121F171F1F75
:104C8800090044F00104019B13F8016B0193002E05
:104C9800E6D13AE044F0020444F00404F3E744F0B7
:104CA8000804F0E744F01004EDE77F2C24D8A6F1BF
:104CB8003003092B08D860064EBF02FB073744F0C3
:104CC800200402FB0939DEE72A2E0DD161065AF8C5
:104CD800043B53D4002BA7BF44F020049946C3F1EA
:104CE800000944F02804CEE72E2E05D1630600F112
:104CF800978044F04004C6E76C2E2ED028D8682E42
:104D080032D06A2E37D04C2E35D0002F46F02003F3
:104D1800B8BF24F04004A3F16502BCBF0027A4B2C9
:104D2800022A01D9612B2BD10AF1070A07279D4EC8
:104D38002AF0070A0AF1080A210760D506EB070BD3
:104D480034465C455DD1AE1BA9EB0709A21959E1B0
:104D5800742E98D07A2E96D0D7E7260648BF44F40A
:104D6800007444F080048EE7E00548BF44F4007402
:104D780044F4807487E744F4207484E71F4682E78C
:104D8800A6F16302122A00F2D880DFE812F01300BD
:104D98004D00D600D600D600D6004D00D600D6006D
:104DA800D600D600D600E800D100D600D6001A00FA
:104DB800D600A0005AF8043B012704AE8DF8103045
:104DC800BAE75AF8046B784B002E08BF1E4614F059
:104DD800400F304614BF39464FF0FF3101F02DFB2C
:104DE8000746A9E741462020009B984700280FDB8B
:104DF800013CA742F6D34D44A1462D1B9EE74C46E5
:104E0800F7E7414614F8010B009B9847002898DA09
:104E180098F8023043F0040388F802304FF0FF3569
:104E280028460BB0BDE8F08F220630D5A3052AD559
:104E38000AF1070A2AF007039A4659685AF8080B34
:104E480024F0100B00291FFA8BFB2FDA40424BF499
:104E5800806B61EB410104AC0A23224601F0F9FAA8
:104E68001BF0400FA0EB040200F08E802BF0010431
:104E78009742A4B240F38F80002E40F08E802BF032
:104E88001104A4B21DE05AF8040BC117D8E7E005D5
:104E98005AF8041B01D40846F7E7A20547BF48B2F1
:104EA80041F3C01108B241F3C031C9E750EA010328
:104EB800D1D16306CFD5002FCDD124F011043A46C5
:104EC800A4B23B4640F206410C4262D124E024F0F1
:104ED80010040A23A4B214F0800243D014F4007121
:104EE80017BF0AF1070A5AF8040B2AF0070292467C
:104EF8001CBF51685AF8080B50EA01023ED124F051
:104F0800160B62061FFA8BFB3CD5002F3AD124F012
:104F180017043A463B46A4B221075AD4E10705D5FF
:104F2800994572DDA9EB03039F184B469B464AE05F
:104F380044F0100410237826CDE7782B04D1C6F16D
:104F4800780343F01003C6E741462520009B9847A5
:104F58000028FFF65DAF02354146304670E608236B
:104F68000026B8E714F480715AF8040BC4D014F47E
:104F780000711ABFC0B2114680B2BDE724F0060422
:104F88001FFA84FB04AC68E713465C46E10699D532
:104F98002EB90133C0E71346F8E73B46F6E702337C
:104FA800BAE700BFF4750000ED750000CDE90232E4
:104FB80041462020009B98470028FFF629AF0BF1B7
:104FC800010BDDE90232D945F0DCEB1A03EB0B05E6
:104FD8005B46E10627D541463020CDE90232009BE9
:104FE80098470028FFF614AFDDE902327EB9013593
:104FF8002F44791B8A4229DB144604AE94BB2A4409
:10500800A9EB03091546914440E017468EE702359F
:1050180041463046CDE90232009B98470028DDE939
:105028000232E5DAF4E640F206410C42E0D014F030
:10503800020F05F10105414614BF2B20202014F46E
:10504800806FCDE9023218BF2D20E5E7CDE90232A5
:105058004146009B3020013598470028DDE902329F
:10506800C7DAD5E6013C4146CDE90232305D009B06
:1050780098470028DDE90232C0DAC9E64146202017
:10508800009B013598470028FFF6C2AEA9EB05033F
:10509800002BF3DCD9E500BF704700EBC100408866
:1050A80040087047F8B50346FFF7F7FFB0FA80F0FD
:1050B800C0F11F0003EB800CDCF81060CA00171D5C
:1050C8000C4606328DB256B9012101FA00F0D968B2
:1050D8000143D960CCF81040DD539D52F8BDF10072
:1050E8000431585AD85303EBC0009E52C5805D5214
:1050F800F4E7043A2DE9F843CC1D114424F00704E1
:1051080021F00706A6EB04084FEAD807B7FA87F29A
:105118004FF00009C2F12405AD000735C2F12002A5
:10512800ED0804604946A760C4F80C90920004F1A9
:10513800100001F07AF9AAB2530043F0010363802A
:105148007B1B9BB204EBC5015800A4F80090488073
:1051580024F83520A6F8029024F8083004EBC70399
:105168005A88294642F001025A802046BDE8F84391
:10517800FFF798BF002070470FB407B504A951F88E
:10518800040B0191FBF72CFB03B05DF804EB04B0B2
:105198007047038B13F0070306D10368002B18BF71
:1051A800032008BF00207047022B05D1408BB0FABE
:1051B80080F0400980007047012B04D10368002B60
:1051C80018BF0520EDE70020704710B50C4600B168
:1051D80011B96FF0150010BD081D00F087F8002800
:1051E800F9D1A368032BF6D9F3E72DE9F0410D4671
:1051F80007461946281D90461E4600F088F80446C2
:1052080038B13346424629463846A446BDE8F041FF
:105218006047BDE8F08110B4EFF31182202484F3D5
:105228001288BFF36F8F416110BC0121FBF70ABBE5
:1052380038B50C46054658B151B10B6843B14B68B7
:1052480033B11C22002101F0F0F800202C6138BD98
:105258006FF01500FBE7F8B504460E46FFF7B5FFFB
:10526800051E3BDBEFF31182202383F31288BFF383
:105278006F8F4FF6FF71638B278B8B4207F0070701
:105288002ED0062F2FD8DFE807F0182E082E180486
:1052980018006FF08505002303E0013363830225BE
:1052A800012382F31188BFF36F8FBBB100233A4605
:1052B80031462046FFF799FF10E00023336063680A
:1052C80023B9C4E9006627B13D46E4E71E6066607D
:1052D800F9E702212046FBF7B5FA3D462846F8BD16
:1052E8006FF00A05D7E76FF00405D4E7034658B115
:1052F800426802F00302012A03D0032A04D102689B
:1053080012B10020986070476FF01500704742682E
:10531800034602F00302032A4FF00002816014BF23
:10532800104600685A607047704701F07EB801F077
:105338006FB801460068FBF7B5BB08B5FBF7E2FBA1
:10534800BDE80840FBF722BF00210120FBF7AABBFC
:10535800836E83F30B8870476FF08500704761B6E2
:1053680062B680F31188BFF36F8F704772B600235F
:1053780083F31188BFF36F8FBFF34F8F30BF62B6CF
:10538800BFF36F8F704772B6002383F31188BFF3A2
:105398006F8FBFF34F8F20BF80F31188BFF36F8FDC
:1053A80062B6704740E800F313F4803FD8B208BFF4
:1053B8006FF01500704730B50C684B6885B00A89E6
:1053C8004D890094013B24F01F04234402F01F027E
:1053D80042EA451223F01F0369468DF8082003931B
:1053E800FBF786FF05B030BD08B5FCF761F9002072
:1053F80008BD10B544686068E0B1226912B1E1687F
:1054080001F006F8237A6BB12368C3F305339B00D8
:1054180003F1A04303F58023D3F8002542F01002DE
:10542800C3F80025D4E90032C3F80828012223680C
:10543800C3F80028002010BD0C220369C9B202FB82
:105448000133186C00F00700704770B50346C9B205
:105458000069EFF31186202484F31288BFF36F8F5D
:105468000C2505FB0104246C14F0C00401D0A242F1
:1054780010D1012205FB01000264002086F3118887
:10548800BFF36F8F28B95B6803EBC1035B6898476C
:10549800002070BD4FF0FF30F0E78022FFF7D5BF46
:1054A800F8B5069F05460469C9B2EFF3118C2020B0
:1054B80080F31288BFF36F8F0C2606FB0146306C11
:1054C80000F0070EBEF1010F11D1376400268CF3EE
:1054D8001188BFF36F8F46B90C2000FB0144C4E963
:1054E8000E236B6853F8313098473046F8BD00F00A
:1054F800C00087420CBF6FF077064FF0FF36E6E733
:1055080013B580240094FFF7CBFF02B010BD10B490
:105518001C240069CBB204FB0300002110BC104717
:105528001046FDF765BE00F04FB9FCF745BF43686C
:1055380000205B68DB680B607047436802EA010083
:105548005B6821EA0201586000209960704743684F
:1055580000205B6859607047436800205B68996069
:10556800704743685B681A6821EA02001140586076
:1055780000209960704730B50369586800B300246B
:10558800884219D108688CB99C685860A14200D13A
:105598009860002008602AB15A680A609A685960C1
:1055A80002B9996000200FE02846E9E72060986872
:1055B800814208BF9C60ECE705680446002DF3D1E2
:1055C800002AE9D16FF0150030BDFDF755B930B5A7
:1055D80043681360057A446804EBC504A34202D308
:1055E8006FF0010030BD5C7908338C42F1D10020A6
:1055F800F8E743681B68D3F83031704743681B6885
:10560800D3F88004C3F88004704742681368D3F85D
:105618004C0150B10020926A12780A70C3F84C010C
:10562800D3F84C2101229A6270474FF0FF3070473F
:1056380013B501AA0446FFF7CAFF002805DB019B42
:10564800226819791868FCF715FC02B010BD38B546
:105658000546002201214FF48270FBF71DFD4FF42F
:105668008270FBF7E9FC6C680121E068FFF7E0FF56
:105678006B6819686369C1F82435E28BA38BA07E37
:105688001343228C1343628C1343627E9BB2024302
:10569800207E02431343C1F86C3569680B68D3F860
:1056A800002242F48022C3F800220822C3F8002511
:1056B8004A6A0121C3F83C270022C3F8402719652C
:1056C800D3F830110029FBD0C3F800256D680021FC
:1056D800E8682C68FFF7ACFF0823C4F800352A7A7D
:1056E80052B9AB6AC4F804370123C4F80837C4F8C0
:1056F8004C21D4F84C21A362002038BD08B5022003
:10570800FCF774F9002008BD08B5FEF7F9FA48B1AE
:10571800002383F31188BFF36F8F0423184602DF39
:105728006FF0040008BD03460020184700F080BA57
:10573800024610B5116891B1B1FA81F3C3F11F00A7
:105748000123834021EA0303D2E8EF4F8C4204D1BE
:10575800C2E8EC3FBCF1000FF6D1EBD110BD6FF001
:105768000B00FBE710B50368CB40DB0710D401231F
:105778008B40026843EA0201D0E8EF4F944204D11B
:10578800C0E8EC1FBCF1000FF6D1F2D1002010BD2B
:105798006FF01500FBE7FCF7ABBD10B1012802D094
:1057A8007047FCF709BEFCF7C1BE18B1012803D148
:1057B80000F00CB800F008B8704708B5FCF7E6FE32
:1057C800BDE80840FCF738BEFCF7CABDFCF77ABE56
:1057D800F7B51646DDE90847019001A81D46FCF714
:1057E8000FFF019BB6F1000C18BF4FF0010C00EB46
:1057F80083000B1E18BF0123002D43EA4C030CBF86
:105808004FF0000C4FF00C0C002C43EA0C030CBFBB
:105818004FF0000C4FF4706C002F43EA0C030CBFE0
:105828004FF0000C4FF4403CD0F8802043EA0C03C2
:1058380022EA030301B109780EB1367876001943DC
:105848000DB12D78AD0031430CB1247824022943E1
:105858000FB13F783F040C433C43C0F8804003B08D
:10586800F0BD1FB50DF10F03019300238DF80F1044
:105878001A4619460093FFF7ABFF05B05DF804FB25
:1058880010B504460846FCF7CDFE04EB4004207D25
:10589800C0F3401010BD10B504460846FCF7C2FE20
:1058A80004EB4004207DC0F3400010BD10B5044651
:1058B8000846FCF7B7FE04EB4004A08A400B10BD75
:1058C80070B5044608461646FCF7ACFE083034F8B6
:1058D80010300D46DA0509D5C3F3432304EBC302A0
:1058E8003146284654F8333052689847A3682BB19C
:1058F80031462846E268BDE87040184770BD10B5CB
:1059080004460846FCF78EFE04EB4000838ADA055D
:105918001DD5C3F3432123F4F853838204F1120203
:1059280004F1500032F8023F13F4807F03D0C3F330
:10593800432399420BD08242F4D1002204EBC103E5
:105948005A6004F15800BDE81040FFF70BBF10BDC6
:10595800F0B50446002001270546844695420AD141
:10596800D4F8443133B10023C4F84431D4F8443175
:1059780040F40030F0BDEBB29B0003F580769B0845
:1059880007FA03F3194208D054F806E0BEF1000FF5
:1059980003D044F806C0A65918430135DEE738B5E8
:1059A80004460D46FFF76CFFA8B12046FFF773FFCA
:1059B80088B92046FFF77AFF012322688340C2F89E
:1059C8001833236803EB8000D0F8103523F0030365
:1059D800C0F8103538BD2846BDE838400021FFF72B
:1059E80040BF2DE9F0431746044685B00846FCF74A
:1059F80019FED7F800800E460546B8F1000F1ED0F4
:105A08002046FFF748FF18B12046FFF739FF20BBB3
:105A180000230DF10F02CDE900338DF80E308DF81B
:105A28000F30304643460DF10E01FFF7D1FE04EB6F
:105A38004502938A23F0020343F0010393827B68B3
:105A48009BB33146204693F80080D3F80490FFF7C3
:105A580022FF28B1B9F1000F1FD06FF0150027E021
:105A680004EB4500838A23F4604323F020038382F8
:105A7800B9F1000F11D0B8F1030FEED87B68216897
:105A88005B6893F800C04FEA8C031944B8F1000F23
:105A980011D1C1F81085C1F8108504EB4502938A2D
:105AA80023F01C0343EA88039382BB684BBB0020A6
:105AB80005B0BDE8F083D1F8102522F00302C1F843
:105AC800102522681344D3F8102522F4473222F413
:105AD8007C72C3F8102541F6F072D3F8101502EA6B
:105AE800061242EA08420A43C3F8102504EB4C03A5
:105AF800A3F85C60838A43EA4C3343F02003838233
:105B0800CBE73146D3E900782046FFF7F8FE002FAF
:105B1800CDD063689F4206D004F15800FFF708FE15
:105B2800002804DAC4E7A3689845F5D1002004EBFF
:105B3800C003C3E9017804EB4505AB8AC0B243EA68
:105B4800402343F48073AB82B1E7C0E90312704786
:105B580070B504461546FFF793FE48B10846FCF7B2
:105B680061FD04EB40040020A38A5B0B2B7070BD21
:105B78006FF01500FBE790F86C00003818BF0120A3
:105B88007047FCF775BD2DE9F34104461746FFF74A
:105B980077FE0D462668F0B12046FFF77CFE80466A
:105BA800C8B92046FFF782FE820002F5807346F8E6
:105BB8000380F35823681344D3F8102542F00102F8
:105BC800C3F8102527B1012322688340C2F8143393
:105BD80002B0BDE8F081D6F8143328469B035CBFB9
:105BE8004FF40033C6F81433FCF71CFD04EB4004F3
:105BF800A38AC3F38203042B11D0052B11D001A86B
:105C08000195FCF7FDFC019BC168D94001F0010139
:105C18000231284602B0BDE8F041FFF722BE032159
:105C2800F7E70221F5E7FFF7BABEC9B2FDF7E8B812
:105C380008B1FBF7B7BD704710B5436904463BB9D7
:105C48000020E2684042537843F00103537010BDCE
:105C580098470028F4D00028B8BF4042FF28A8BFC2
:105C6800FF20E3681870ECE740B1C368587810F07B
:105C780001001EBF1878B0FA80F040097047EFF3B2
:105C88001183202383F31288BFF36F8FFEE708B5D3
:105C9800FFF7F5FF202408B5EFF3118384F312888A
:105CA800BFF36F8FFFF762FBF6E790F90E308B4278
:105CB80001D0FDF73FBC00207047EFF305800038A6
:105CC80018BF01207047D0E9003213605A600023E2
:105CD800C0E90033704708B5FFF7F5FF037C23F0F0
:105CE800020303740023836008BD38B504460D46DB
:105CF800FDF77CFB237C43F002032374D5B1A56038
:105D08002B689D4209D16B68C4E900531C606C6024
:105D180010E06A689A42F6D01B68002BF3D093F91A
:105D28000E1094F90E209142F3DD5A68C4E900324E
:105D380014605C6038BD10B5EFF31184202383F341
:105D48001288BFF36F8FFDF711FB84F31188BFF33F
:105D58006F8F10BD08B5037C014613F0280F0CD1D6
:105D680083680BB1FFF7B7FF0B7C084623F00403E9
:105D78000B74BDE80840FDF7F9BA08BD10B5EFF39C
:105D88001184202383F31288BFF36F8F1838FFF72D
:105D9800E1FF84F31188BFF36F8F10BD0846FDF74C
:105DA8005DBB70B506460D46FDF7B8FCB5F1FF3F83
:105DB80008BFB6F1FF3F04460CD047F6112000217A
:105DC8004FF47A7547F612220023E4FB0501FAF72F
:105DD80077FB70BD4FF0FF30FBE708B5C3171F30E6
:105DE80043F10003400940EAC360C117FDF796FC80
:105DF800400108BD38B50446EFF31185202383F32D
:105E08001288BFF36F8F037C5B070ED5183000F044
:105E18005CF8237C204623F004032374FDF7A6FADC
:105E28002846BDE83840FDF719BB85F31188BFF354
:105E38006F8F38BD2DE9F04706460F4691469A46C2
:105E4800EFF31188202383F31288BFF36F8F006864
:105E5800864206D028B1736898420CBF00250568B1
:105E680068B90024B9F1000F02D051462046C8474E
:105E780088F31188BFF36F8F2046BDE8F08751463D
:105E8800B84704460028EDD135B17368AB4200D05D
:105E98002C6828462546E3E72C46FAE708B502466B
:105EA800FDF79CFD70B1D0E904319B1A61EBE272F9
:105EB800B3F1004F72F1000104DA002AACBF1846B2
:105EC800002008BD6FF00040FBE7024638B5EFF34D
:105ED8001185202383F31288BFF36F8F0368D3B132
:105EE800FDF77CFD04461046FDF78AFD00224FF0C1
:105EF80000438442C0E9042305D0002085F31188BB
:105F0800BFF36F8F38BDFDF771FDFFF7C7FF0021A5
:105F1800FCF710F9F1E7D0E90413B3F1004F08BF1B
