:10000000E87300203D3F01001D4F0200293F010021
:10001000293F0100293F0100293F0100293F01003C
:10002000000000000000000000000000A1400100EE
:10003000293F01000000000039400100293F010074
:100040002142010021420100214201002142010020
:100050002142010021420100214201002142010010
:100060002142010021420100214201002142010000
:1000700021420100214201002142010021420100F0
:1000800021420100214201002142010021420100E0
:1000900021420100214201002142010021420100D0
:1000A00021420100214201002142010021420100C0
:1000B0002142010025C4010021420100214201002A
:1000C00021420100214201002142010021420100A0
:1000D0002142010021420100214201002142010090
:1000E0002142010021420100214201002142010080
:1000F0002142010021420100214201002142010070
:10010000214201002142010021420100214201005F
:10011000214201002142010021420100214201004F
:10012000214201002142010021420100214201003F
:10013000214201002142010021420100214201002F
:10014000214201002142010021420100214201001F
:10015000214201002142010021420100214201000F
:1001600021420100214201002142010021420100FF
:1001700021420100214201002142010021420100EF
:1001800021420100214201002142010021420100DF
:1001900021420100214201002142010021420100CF
:1001A00021420100214201002142010021420100BF
:1001B00021420100214201002142010021420100AF
:1001C000214201002142010021420100214201009F
:1001D000214201002142010021420100214201008F
:1001E000214201002142010021420100214201007F
:1001F000214201002142010021420100214201006F
:10020000214201002142010021420100214201005E
:10021000214201002142010021420100214201004E
:10022000214201002142010021420100214201003E
:10023000214201002142010021420100214201002E
:10024000214201002142010021420100214201001E
:10025000214201008988020021420100214201005F
:100260002142010021420100738802002142010065
:1002700021420100214201002142010021420100EE
:1002800021420100214201002142010021420100DE
:1002900021420100214201002142010021420100CE
:1002A00021420100214201002142010021420100BE
:1002B00021420100214201002142010021420100AE
:1002C000214201002142010021420100214201009E
:1002D000214201002142010021420100214201008E
:1002E000214201002142010021420100214201007E
:1002F000214201002142010021420100214201006E
:10030000214201002142010021420100214201005D
:10031000214201002142010021420100214201004D
:10032000214201002142010021420100214201003D
:10033000214201002142010021420100214201002D
:10034000214201002142010021420100214201001D
:10035000214201002142010021420100214201000D
:1003600021420100214201002142010021420100FD
:1003700021420100214201002142010021420100ED
:1003800021420100214201002142010021420100DD
:100390002142010021420100CD8C020021420100D6
:1003A00021420100214201002142010021420100BD
:1003B00021420100214201002142010021420100AD
:1003C000214201002142010021420100214201009D
:1003D000214201005D88020021420100214201000A
:1003E000214201002142010021420100214201007D
:1003F000214201002142010021420100214201006D
:10040000214201002142010021420100214201005C
:10041000214201002142010021420100214201004C
:10042000214201002142010021420100214201003C
:10043000214201002142010021420100214201002C
:10044000214201002142010021420100214201001C
:10045000214201002142010021420100214201000C
:1004600021420100214201002142010021420100FC
:1004700021420100214201002142010021420100EC
:1004800021420100214201002142010021420100DC
:1004900021420100214201002142010021420100CC
:1004A00021420100214201002142010021420100BC
:1004B00021420100214201002142010021420100AC
:0804C00021420100214201006C
:1004C800064A074B02604FF43E72DB7882800822AE
:1004D800C371002382710372704700BFB913010012
:1004E800480F0020064A074B02604FF4C472DB7ABB
:1004F80082800822C371FF2382710372704700BF94
:10050800970E0100480F00202DE9F341C41D002873
:10051800064624F007040CBF0020204600F0FCFC2F
:10052800071E04DA6FF00B0002B0BDE8F081374D0A
:10053800E988A88803316B7A03302A7A89B280B2B5
:100548000DF0F4FC0028EDDB3C44A978EB78002E94
:1005580004F10304194424F0030400FB01F10CBF67
:100568000020204600F068FE20440EB90028D9DBA0
:10057800EA7A0446B2B1EB7B697C13441944FF293B
:10058800D0D80330002EAA89C9B220F003040CBFCA
:100598000020204600F0C2FE0028C3DB04440EB948
:1005A800002CBFDB012000F0ADFCB0B1A97BA1B1EC
:1005B80095F82B3033B340234FF481720734002E63
:1005C80024F007040CBF0020204601F0DDFE0028BF
:1005D800A8DB04440EB9002CA4DBAB7AFBB1EB7AA0
:1005E800B3B10734002EA97A24F007040CBF002009
:1005F800204604F05BFC002894DB04447EB9002C00
:100608000DDA8FE725232822D8E700BF480F0020FE
:10061800012000F077FC10B1AB7B002BE1D1734BCC
:100628001B6893B1A97D81B10334002EEA7D24F0C3
:1006380003040CBF0020204698470028FFF672AF3D
:10064800044416B9002CFFF66DAF694B1B688BB1DB
:10065800297C79B10334002E24F003040CBF002058
:10066800204698470028FFF65DAF044416B9002CD1
:10067800FFF658AF5F4B1F68B7B1697CA1B103346F
:10068800002E2B7D24F0030408BF0020009318BF20
:100698002046EB7CAA7CB8470028FFF643AF044409
:1006A80016B9002CFFF63EAF072000F02BFC98B1DE
:1006B800A97D89B10334002E2A7E24F003040CBFDF
:1006C8000020204600F018FF0028FFF62BAF044456
:1006D80016B9002CFFF626AFB6FA86F795F8230070
:1006E8007F09A0B103346B7FA97E24F00704194465
:1006F8003B4644F00404C9B2224600F03DFF0028FE
:10070800FFF610AF044416B9002CFFF60BAF95F8AE
:10071800241000294CD004F10708002EEA8C28F098
:1007280007080CBF002040460DF014FC041EFFF61D
:10073800F9AE4444002E3ED1002CFFF6F3AEA97F5B
:10074800002945D095F82230002B41D02A8C073457
:10075800002E02F1240224F007080CBF00204046B6
:1007680092B20DF0F7FB0028FFF6DCAE404416B954
:100778000028FFF6D7AE03302B7FA97E20F00700B4
:1007880019443B4640F0040495F82200C9B22246B9
:1007980000F0E4FE0028FFF6C5AE044486B9002C3C
:1007A800FFF6C0AEEB6AF3B1C6B1EC620020BBE65F
:1007B800002EC4D08846E98C40460AF027F9BEE7E7
:1007C8002A8C4046A97F083292B20AF025F9E9E757
:1007D800002EE7D0002211461046F6E728343FF5F0
:1007E800A1AE2046A0E6002EE0D1FAE7CC0000201A
:1007F800D0000020D40000201FB572B6194B1C6B26
:10080800ECB9BFF34F8F1849184BCA6802F4E0627D
:100818001343CB60BFF34F8F00BFFDE7B2FBF6F287
:100828002B465D1C002AF9D1DBB203F110056D449B
:1008380005F80C2C0A2233B901A8A047E1E70246C3
:1008480000230A26EDE7013BDBB203F110050DEBAF
:100858000506B0FBF2F502FB1500303006F80C0C6B
:100868002846E8E7480F002000ED00E00400FA05FC
:1008780013B5124C68462389ADF80030E388ADF80B
:100888000430A388ADF8023002F0C6FB18B1FC2191
:100898009C20FFF7B1FF207D02F0EEFB08B1FF219D
:1008A800F6E7E07C02F0E2FB10B14FF48071EFE76D
:1008B80094F8290008F0E0FC02B010BD480F0020B1
:1008C80070B50546002858D00CF08EFA18B94FF0CC
:1008D800FF34204670BD0AF0B7FDB0F5FA7FF6D8B0
:1008E800274C012625630025284684F834502570B6
:1008F80084F82B50E56284F82A500AF029F81A2265
:10090800294604F10F0011F063FB1B230821032281
:10091800A3802846E3800223A1721F216372E37536
:10092800F72322722384FB23A2734922E3840A2338
:10093800A1812946E27484F82930A670E670E6722F
:10094800A674267601F0BCFD2A463146304601F0F1
:1009580073FD044620B140F2B7319C20FFF74CFFED
:100968000246014601F096FDEFF3108572B600F0DD
:1009780029FE002DADD162B6ABE76FF01504A8E7EC
:10098800480F002038B51446002840F0EE80784D16
:1009980095F83430032B00F0E58019B312B96FF0E5
:1009A800150038BD0139172900F2DF80DFE811F0A2
:1009B800180029002C0042006C00750094004800C3
:1009C80078007B008E004E005400620067009A0099
:1009D8009D00AC00AF00B200A300B500B900D20082
:1009E8001378AB700020FFF78FFD0028B7BF0123F5
:1009F80002236FF00B0085F83430A8BF85F8343037
:100A0800CFE71378EB70EDE71379002BC7D0537954
:100A1800002BC4D01288FB2AC1D863881B3B9BB229
:100A2800E02BBCD81A2ABAD92368A2886B60514B2C
:100A38009A80D7E71378EA7B9342B0D3EB72D1E779
:100A48001378EA7A9342AAD8EB73CBE71378EA7A59
:100A58009342A4D86B74C5E71378002B9FD05378C2
:100A6800013BDBB2F82B9AD8138892786B82424B01
:100A78009A70B7E71078687508F0AAFBB2E71378A0
:100A8800002B8CD02B76ADE7012000F03BFA2378C1
:100A980008B1012B83D9AB73A4E71388AB81A1E715
:100AA8001378AB759EE7072000F02CFA18B9237865
:100AB800012B7FF674AF072000F024FA18B12378D1
:100AC800002B3FF46CAF2378EB758BE71378082B7A
:100AD8003FF665AF2B7485E71388FF2B3FF65FAFB2
:100AE800AB727FE713786B767CE713780E2B3FF6B3
:100AF80056AFAB7676E72368204AC5F81E306368A0
:100B08005360238913816DE71378EB766AE71378CE
:100B18006B7767E713782B7764E7137885F82830C5
:100B280060E701F083FC98B1007900F00102617878
:100B3800207801F081FC00287FF433AF6378012B23
:100B48007FF650AF09F00AFF00287FF44BAF26E785
:100B58000246ECE713785A1E092A3FF620AF85F8BB
:100B680029303FE74FF0FF301BE76FF02C0018E704
:100B7800480F00204C0F00205A0F0020660F00205D
:100B8800F8B50D46064630B329B311F0070422D153
:100B9800124F97F83430012B02D16FF00B00F8BDDB
:100BA800032B02D14FF0FF30F9E700F063F800287B
:100BB800F8D02846FFF7A8FC0028EEDB10F0DAFC96
:100BC8003046F96A02F0C0FAFFF752FE03232046C6
:100BD80087F83430E3E76FF01500E0E7480F0020AE
:100BE80010B5074C94F83430032B03D102F0C4FA43
:100BF80003F080F90DF0DBFA002084F8340010BD12
:100C0800480F002050B1074B03F1140253F8041B9E
:100C1800934240F8041BF9D1002070476FF015008B
:100C2800704700BF2FE3020008B502F051FA0349EC
:100C38000320BDE8084000F05DB900BFED040000E6
:100C480008B502F05FFA03490220BDE8084000F049
:100C580051B900BFC904000002680020014B1A60A6
:100C6800704700BF800F0020014B1B68184700BF6A
:100C7800800F0020024B1868003818BF0120704709
:100C8800800F0020F7B504462D4E071D2C4837600D
:100C980003F048F90228054606D1294920460CF0F8
:100CA80000FB284603B0F0BD042842D13378092B55
:100CB8000AD0262B1ED0314620460CF06CFBB0F52E
:100CC800817F2DD3722112E005213E200CF0BBFA62
:100CD8000028F0D1F37801A93279684643EA022363
:100CE800ADF800300CF0E6FE0028CFD053210820E4
:100CF800FFF782FD1A213E200CF0A5FA0028DAD170
:100D08007368694601A8C3F30F23ADF804301123B3
:100D18008DF806300CF008FF0028B7D06521E6E70B
:100D28000028B3D0A17820780CF08DFA0028B8D12B
:100D3800ACE70828B5D1024920460CF0EAFAB0E73A
:100D4800840F0020074B4FF0FF3141F6FF72C3E9D3
:100D5800001205490022C1E900221F21C3E902123D
:100D6800704700BF60000020881000203F280CD882
:100D780001380B4BC0F3421200F01F0053F8223029
:100D880023FA00F000F001007047FF2806D0403831
:100D9800044BC0F3421200F01F00EFE70120704738
:100DA8006000002088100020074B01460068496851
:100DB8001A4603C240F48C2200201A6041F01072D7
:100DC80042F4FF625A607047600000200246034BFD
:100DD8000068516803C30020704700BF88100020D6
:100DE8000246024B0068516803C370476800002040
:100DF80008B5382800F1FF33DBB205D102F02AFA32
:100E08004078C0F3C00008BD5909054A03F01F0324
:100E180002EB81029068D84000F00100F3E700BFC0
:100E2800600000200A8870B595B2C67CC2F30E0235
:100E38000488023602F118033444C35AA4B2334476
:100E48002344013BB3FBF4F303FB0422438892B22F
:100E58009342044B8BBF2B40AB4313439BB20B8095
:100E680070BD00BF0080FFFF4A1E062A08B5034672
:100E7800084604D84FF4D1711520FFF7BDFC094A84
:100E8800914202D940F2A311F6E711B903B11960F2
:100E980008BD2BB11B680022C3E901211A1D1A6085
:100EA8000430F5E7FAFFFF7F10B5114B00EB410462
:100EB8001A786389B3FBF2F303FB0223013A1A445D
:100EC800B2F5706F0279807828BF00231A440B1896
:100ED800B2FBF0F100FB11215B1AB3FBF0F100FB50
:100EE800113313446FEA43436FEA5343638110BDE0
:100EF80090100020024B03EB80035960704700BF3D
:100F080090100020034B03EB80035868003818BF8B
:100F180001207047901000202DE9F04F10F0070ACB
:100F280085B0054604D040F261111720FFF764FC34
:100F3800534F04464FF0010B07F15406B146B04633
:100F480057F8043B8DF80BA03BB101A898479DF8D2
:100F58000A30082B01D9E821E7E79DF80B1041BBBF
:100F680005B131604F4506F10406E9D1002D6ED078
:100F78000022DFF810911427964689F8002058F8C7
:100F880027A0013FBAF1000F54D09AF804609AF8EC
:100F980002C0FF2E5FD039460023481C37D19C443D
:100FA800BCF1FF0F3ED90AB189F800E040F22711E1
:100FB800BBE79DF80AC04B1D60465A0004EB43038B
:100FC800022838BF0220441E40422344BDF808408E
:100FD8006444CCF1000C0340013C04EA0C04B4F571
:100FE800803F01D3F821A0E775B19A1A3260917059
:100FF800148082F803B09DF80C00107101984FEA34
:10100800104C1081A2F806C004FB0134AAE758F876
:10101800210028B190F804B0B34504BF80781B18AC
:101028000139BAE7DBB2E6458AF804303CBF5FFA1B
:101038008CFE01227B1CA2D10AB189F800E014269B
:1010480040F6FF6A58F82670B7B9013EFAD2601B1D
:1010580005B0BDE8F08F0023E5E707EB410309F190
:1010680001093846A3F80AA0FFF71EFF5FFA89F1C5
:10107800BB788B42F1D8E8E74FF00009F6E700BFEC
:101088009410002090100020034B03EB8003986D10
:1010980000B18078704700BF9010002038B54FF637
:1010A800FF7302460380184B03EB8103986DA8B1C8
:1010B80084780379B3FBF4F104FB1133DBB21946EE
:1010C80000EB4105B5F90A50002D0EDB0131B1FBEB
:1010D800F4F504FB1511C9B28B42F1D1002038BDDB
:1010E8006381BDE838400CF0FDBE00EB4104638924
:1010F800C3F30E031380C278002AF1D14FF4D571DF
:101108001720FFF779FB00BF901000201C4B03EB62
:10111800810370B59C6D054644B3030404D54FF4B0
:10112800DC711720FFF768FB014620460CF0BDFE76
:10113800FF28014604D02046BDE870400CF0D2BE1E
:10114800A078B5FBF0F300FB1353DBB219460A1D78
:1011580004EB4206B6F90260002E09DB0131B1FB4F
:10116800F0F200FB1211C9B28B42F0D1002070BD21
:101178008B4201D00023E37004EB42025580DAE78A
:1011880090100020094B03EB8103014610B59C6DBC
:1011980020460CF08AFEFF28014604D02046BDE810
:1011A80010400CF09FBE002010BD00BF9010002022
:1011B800F8B5104B074603EB810301469C6D2046AA
:1011C8000CF073FEFF28054611D0E288238953EA04
:1011D800024606D0014620460CF084FE01463846F9
:1011E800B04720462946FFF75FFE0020F8BD0520DE
:1011F800FCE700BF9010002038B50E4B04468279FA
:1012080003EB8203986D08B9052038BD8278E1792F
:101218009142F9D24B1CE37100EB41035D89B3F9AC
:101228000A30002BF3DBA5800CF05CFE2060002068
:10123800EBE700BF9010002070B5044610F00300E3
:101248000E4603D04E211820FFF7D6FAFFF70CFE02
:10125800054624B1034831460460FFF705FE2846D9
:1012680070BD00BF3C1100202DE9F14FDFF870B0D0
:101278001E4607460D46DBF8003090469DF828A02C
:101288009DF82C901BB960211820FFF7B5FA52463B
:10129800092140460CF089FC4A4684B209213046AF
:1012A8000CF083FC81B2DBF8000021440CF0D1FD86
:1012B800386018B9286001B0BDE8F08F044453467F
:1012C800414609222C6038680CF032FC4B46092252
:1012D8003146286801B0BDE8F04F0CF029BC00BFCA
:1012E8003C11002070B50E4604460CF071FC054612
:1012F80030460CF06DFC044B2A1821461868BDE8EE
:1013080070400CF0CBBD00BF3C110020024B1868A8
:1013180008B10CF092BD70473C1100201F2AF8B5A7
:10132800044613460ED89200033222F00303B3F5A5
:10133800803F2DD2184DACB1A00710D068210920EC
:10134800FFF75AFAFF2B4FEA420204D9FF339A42B9
:10135800A8BF1A46E8E77C2AB8BF7C22E4E72970D0
:101368006C602B8122F0030228230127120403FB5F
:1013780001F06B680025120CEEB2B14200D8F8BD3E
:1013880014B126181F705E60104401352833F3E746
:101398004FF0FF30F3E700BF40110020154A00214D
:1013A80070B553681578C8B2854203D8BA210920A8
:1013B800FFF722FA1C461846013114F8286B0EB9BB
:1013C8002346F0E70021997001241289996103F1FD
:1013D80026055C709208D96103F11E04596824F847
:1013E800022FA54243F8041F1144F8D1002343619A
:1013F800037070BD401100200A4B1B89B3F5FF7FB5
:101408004FEA930006D25A089B1A9BB2984238BFFB
:1014180018467047B3F5EE6F01D8FF22F4E740F2A3
:101428007263F3E7401100204B782DE9F04106463E
:101438000C4602F0040702F0FB05E3B1A5BBFF234D
:10144800A3707B0804EB57073A7D032A02D1022DCB
:1014580018BF0133E2180121117503F10C010022B4
:1014680004EB830324F811205B68A27030463360D4
:10147800B280BDE8F081002DE1D1012301F11E0207
:101488008D6120464B7004F1260C1A4BCD611B89E7
:1014980049689B0822F8023F944540F8041F194404
:1014A800F8D100236361CAE7D1F80480142200212F
:1014B800A018617010F08CFD0E4B1B89B3F5FF7FEF
:1014C8000FD25A089B1A9BB208EB0301C4F8048098
:1014D8002384A1606284C4F80C80A3842161E2841F
:1014E800ADE7B3F5EE6F4FF0FF02EBD940F2726350
:1014F800EAE700BF401100202DE9F84305460C46F5
:10150800F720052191460CF050FB061E21DB1DB982
:1015180006FB04F0BDE8F88315F0030703D0982113
:101528001920FFF769F9DFF83080C8F81050A8F8DB
:101538001460BBB29C42EBD9B8F814504B46D8F8AB
:1015480010000522F72107FB050001370CF0F0FA1F
:10155800EFE74FF0FF30DDE75411002007B5CDE984
:1015680000230B4603490246081D0CF0FAFD03B0A0
:101578005DF804FB6C11002013B5064CCDE900237F
:101588000B46024604F1080104F10C000CF0E9FDD9
:1015980002B010BD6C11002008B54B1E032B03D9F7
:1015A80023219020FFF728F90028054A0CBF0523BE
:1015B8000C2303EB8103053323F00103137008BDEB
:1015C8007C110020124B01224FF0FF3000215A609D
:1015D800C3F80803C3F80015C3F804255A6040F699
:1015E800FE72C3F808034FF48060C3F8001503F5D2
:1015F80060330849C3F80825C1F88800BFF34F8F46
:10160800BFF36F8FC1F88801C3F80825704700BF82
:1016180000A0045000E100E00A4606483D2302F815
:10162800033BC368C1F8033003695360436993609F
:10163800704700BF80110020024B5A8C02435A8425
:101648005B6A184780110020014B00215B6A18472C
:101658008011002070B5194C054694F828604EB1E9
:10166800012807D1638C1A0704D594F830300BB1E0
:10167800012070BD0129FBD8636B284698470028D4
:10168800F6D094F838000028F2D11EB9012D0BD0FD
:101698003046EEE7002DECD1638C9B0704D594F817
:1016A800300080F00100E4E7608C0028E0D194F875
:1016B8003930002BDDD194F83A00F2E78011002090
:1016C80010B5154C08F0D2FB09F004F9A08FFFF70C
:1016D800BBFF237E63B12246104904F1190052F87A
:1016E8000C3BE36063685360A36893600EF0F2FB01
:1016F8000B4BA28F93E8030003F008FCE36A1888F9
:1017080003F08AFB236C94F8381094F83E0098474D
:10171800002384F8443010BD8011002021160000F9
:10172800A8110020034B93F844300BB1FFF7C8BF52
:10173800704700BF8011002070B5274C0646A36D86
:10174800E56AA3644FF4817395F89220A4F84C30AD
:1017580094F85C3095F8751003EB82002EB9FF28D9
:1017680003D195F874308B4201D008F0F3F995F85D
:10177800923053B3206E08F05BFC94F82830216E49
:10178800003BA06C18BF012384F88830D5E93C23BE
:10179800C4E91E2309F024F85EB995F87530033BB7
:1017A800012B2B8F8CBF00202820184480B208F012
:1017B8008DFCA88E08F072F995F87410002008F0D6
:1017C800CDFC022384F8443070BDA06C08F030FCD6
:1017D80009F080F8E0E700BF801100200138C0B2AE
:1017E800032808B504D940F2A2410620FFF704F8FF
:1017F800014B185C08BD00BF3BC402002DE9F34152
:101808002F4C06460F4694F84430012B5FFA83F8B4
:1018180004D040F22E712720FEF7EEFFE56A95F816
:10182800843053B10021042085F88410FFF704FFA9
:1018380094F828300BB185F8858095F88830042B0A
:101848000ED120490220FFF7F7FE94F828303BB16B
:10185800D4F898301B789A1E5342534184F830309C
:1018680095F89230CBB194F82830E16A003B94F8AF
:101878005C8091F8750018BF012384F88830D5E999
:101888003C23C4E91E23FFF7A9FF002203460E49A3
:1018980000920220424608F0CDFE26B102B0BDE813
:1018A800F041FFF70DBF002FF8D031463046FFF763
:1018B800D1FE0028F2D102B0BDE8F041FFF73CBFED
:1018C8008011002018120020E811002008B5094BEB
:1018D80093F84420022A04D040F2A3212720FEF7DF
:1018E8008BFFDA7A42F00102DA72BDE80840FFF7AE
:1018F800E7BE00BF801100202DE9F74FC94C002337
:10190800E56A8DF8013095F87410ADF8023058B9D1
:1019180095F8922094F85C3003EB8203FF2B03D1F7
:1019280095F875308B4202D0FF2008F013F995F82E
:101938008830052B00F24481DFE813F0060010011F
:10194800170117013201320194F8A3300DF1020199
:1019580001A8A5F86430ADF8023001F0E9FD40B106
:10196800019E36B1012384F8A430042385F8883019
:1019780011E195F8CFA0BAF1000F40F0EC800DF11D
:1019880001020DF10201D4F8A8000CF048F906464E
:10199800002800F0E0809DF80180B8F1000F18D011
:1019A8000146D4F8A8000CF024FA0CF026FAD0F876
:1019B80000B0D0F8049007465BEA090340F0A8801D
:1019C80000233B707B70BB70FB703B717B71BB71FC
:1019D800FB71BDF80230002B40F0AA80012385F886
:1019E8008830012384F8A430BDF8023095F8887057
:1019F800A4F89C30F31C022F95F8899095F88A80FA
:101A0800C4F89060C4F8983000F0DE80043F012FDD
:101A180000F2D980BAF1000F00F0DC800026D4F87B
:101A280098301B781B2B40F0EE80012105F1100047
:101A380008F0D8F803270122D4F890104FEAC90912
:101A48004FEA88080B7809F0080908F0040803F041
:101A5800F30343EA090343EA080323F0100343EAC4
:101A6800061323F003033B430B70B4F89C304B7010
:101A78000223D4F89000A4F89430037823F02003CC
:101A880043EA4213037052B1E36A197C5B7C032971
:101A980003F01F0308BF002143EA8113837006F097
:101AA800010695F8913084F839601646002B00F04D
:101AB800AC80B4F89C30002B00F0A780206E08F0B2
:101AC800B7FA94F82830216EB3FA83F3D4F890006B
:101AD8005B0984F88830D5E93A23C4E91E233246E5
:101AE80008F0CAFC20B9D4F89010206E08F016FE51
:101AF800E88E07F0D3FF95F87510012008F02EFB4B
:101B0800012384F8AC3084F8443003B0BDE8F08F8A
:101B18000FF0B3FE834579EB0101BFF451AF002309
:101B28000122C246404EADF8023085F888205DE7B4
:101B38009DF801301BB93380B37003234FE7337826
:101B480003F00303012BF8D0022385F88830002323
:101B580085F8943045E74FF00008E0E74FF0000AB9
:101B6800314E5346ADF802A040E7B5F864300DF1A8
:101B780001020DF10201D4F8A800ADF802300CF012
:101B88004EF8064620B940F2AA412720FEF734FE57
:101B9800012384F8A430BDF802304FF0000A25E78D
:101BA8000DF1020101A801F0C3FC08B1019E16B9AC
:101BB80040F2B741E9E7012384F8A4300523D5E6CC
:101BC80040F2BF41E1E70127BAF1000F07D0002634
:101BD800324631E7F378022B3FF420AF0327D4F8DD
:101BE800A8000CF074F848B9032F3FF417AF01F0C0
:101BF800BBFC80F00106F6B200221DE7032F4FF070
:101C08000106F9D10BE70327F6E7D4F8900008F0AE
:101C18000FFA08F05FFE3146D4F890000FF0E5FCAB
:101C280066E700BF8011002020120020064B10B587
:101C380093F8442002F0FF0422B91C7603F05EF901
:101C4800204610BD0C24FBE780110020094B0A4AEE
:101C580010B51A60FFF7EAFF20B14FF49F712720F3
:101C6800FEF7CAFD054C01F0A3FAA06501F0A4FA3D
:101C7800206610BDD80000208023000080110020BD
:101C8800F0B585B0A54C02AE0A9F86E8030094F82B
:101C9800441001F0FF0511B90AB103B127B940F2A8
:101CA800D3112720FEF7A8FD96E8030004F1280CBD
:101CB800636384F838509DF82C3084F8AE5084F86B
:101CC8003E5084F8AC5084F8A4506584A58784F805
:101CD800395084F83A5084F83050C4F89050C4F819
:101CE8009850A4F89C50A5642565A4F854506262E5
:101CF80084F8AD3027648CE80300E56A07F094FFA8
:101D080008F0E8FD95F97C0007F0F6FFAE6A286A4E
:101D180007F0F8FF304608F06FF995F8A30007F0D0
:101D2800FBFF94F82860002E40F0A8800EF0A3FD79
:101D380095F874207A4B4FF47A7153F8223003F5F2
:101D4800FA73B3FBF1F352331918304608F07AF8F6
:101D5800744B754E05F58477186808F053F96B696C
:101D6800C4F8A830AB69C4F8B03005F1F8031868B6
:101D7800083353F8041C3246BB4203C21646F6D158
:101D880059686A4AD5F8080103C2E26A92F88C30A9
:101D980092F87460A3F12601012903D992F88D10F5
:101DA800262976D194F82830002B6FD192F83A1270
:101DB80030460CF0FEF9064605F13C073146384638
:101DC8000EF05CF931460DF0CDFCB5F8483095F8C9
:101DD8007510834228BF0346384684F8A3300EF0B6
:101DE800FBF895F8751095F892700429B5F85060CD
:101DF80008BF03210DF0B6FC0FB9043080B286424B
:101E080028BF0646F6B284F8B46002F025FA28B175
:101E180002F028FAB04238BF3046C6B294F82870AB
:101E280084F85C60002F5AD195F891308BB101236A
:101E380095F8740084F88830D5E93A23C4E91E235C
:101E4800FFF7CCFCFB22034637490420009708F033
:101E5800F1FB0120FFF750FD002323606360A360BE
:101E6800B5F8863063802B88238095F8A3302371DA
:101E7800AB6F0BB101221A6005B0F0BD0EF0FBFC90
:101E880095F8752000F1710101205FE792F8C21200
:101E98008EE7213B012B11D8242911D094F8283042
:101EA800CBB192F82E315A0713D413F001017FF405
:101EB8007FAFC3F340035B00D9B279E724290AD185
:101EC80094F828303BB192F82E3192F86D201340E7
:101ED800E9E704216CE7032E08BF04266CE795F8B0
:101EE800923093B1012395F8750084F88830D5E9CC
:101EF8003C23C4E91E23FFF771FC002203460A496C
:101F080000920220324608F095FB0120FFF714FCEE
:101F1800E36AD3F8D80108F0A7F89DE780110020FC
:101F280040C70200D8000020E8110020001200205D
:101F3800014B93F8AC00704780110020044B93F8D4
:101F4800A40018B993F83D00C0F30010704700BF13
:101F580080110020024B93F83D00C0F3C000704789
:101F680080110020014B93F8AE00704780110020CB
:101F780073B5174C0646D4F8B8500DB1236D23B984
:101F880040F21B712720FEF737FCB4F84C20284696
:101F9800A16C0BF081F8EB1CB4F854201846216DA5
:101FA8000BF07AF80DF1020201A92065D4F8B0000F
:101FB800A5640BF038FF01980BF01FFF0122B4F85D
:101FC80054103060D4F8B0000BF0C2FE02B070BDFF
:101FD800801100202DE9F04F0023BA4C85B0074648
:101FE8008B46E56ACDE9023394F84430022B04D0DD
:101FF8004FF4F9612720FEF7FFFBA36C5A7893F89A
:1020080000A0A4F8542003221344A4F84C2023650C
:1020180095F89230002800F06881CAF3C006C3B171
:1020280008F076FC831EDBB2012B04D8FFF748FBCF
:1020380005B0BDE8F08F60B9B4F854304BB195F8ED
:102048008A3003F00103B34203D1012384F83E3000
:10205800ECE7B4F8541021B1D4F8B0000BF058FEF6
:102068000146A38F95F8892043F40073C4F8B8108B
:10207800A38782EA9A03D90730D4B94695F88A30FB
:1020880003F00103B34226D1B4F854300AF0030632
:10209800002B73D0721E012A70D8A38F95F89280F6
:1020A80043F48053A38707F007FD042894F8B4206D
:1020B80007D1B8F1000F0CBF1F231B239A4228BF7A
:1020C8001A46B4F8543093424DD994F8383043F056
:1020D800100384F838300026B04667E095F8883059
:1020E80063B3013B0132DBB285F88920042B0FD89A
:1020F800754A13441B79002BBFD0022B0BD102A9C0
:10210800D4F8A8000BF0ADFD88B940F22B6171E757
:1021180040F213616EE7032B10D101F017FA10B9E2
:1021280040F2356166E700210820FFF785FAD5E916
:102138003A32013342F10002C5E93A32002194F8FB
:10214800283085F888103BB195F8853023B11020E8
:1021580085F88510FFF770FAA38F4FF0000943F454
:102168000063A3878AE7D4F8B820002AB3D094F88C
:10217800AD201AB12020FFF767FAACE795F88A205E
:10218800032E02F1010285F88A2000F0A380013EA7
:10219800012E00F28B80002B9DD0B8460026D5E991
:1021A8003C32013342F10002C5E93C3295F89130E6
:1021B800B3B194F8283095F87400B3FA83F35B0947
:1021C80084F88830D5E93A23C4E91E23FFF706FBD3
:1021D800002203463D4900920420FB2208F02AFA17
:1021E800D4F8B830002B40F0A780B4F85430B3FAD4
:1021F80083F35B0903EA1A1384F83A30BBF1000F42
:1022080000F09C8007F0E0FFB8F1000F40F0A880D4
:102218000126A38F5A0606D44020FFF715FAA38F8C
:1022280043F04003A387B9F1000F10D094F8283089
:1022380043B1B4F80720B4F805301343B5F8862045
:10224800134304D0B4F809300133A4F80930002F3F
:1022580000F08A80B4F805300133A4F80530002373
:1022680084F8AE301A4802F0C5FD029830B10BF080
:10227800C4FDE16A0022027201F056FF039B33B1EC
:10228800E16A00221A720C22039801F01BFF002E4B
:102298007FF4CCAEA38F1B063FF5CAAE8020FFF7B4
:1022A800D3F9A38F43F08003A387C1E6002B3FF443
:1022B80012AFD5E93C32013342F10002C5E93C32A4
:1022C80009E700BF801100203BC40200E81100208C
:1022D800A8110020A38F0120264943F4805385F8D4
:1022E8008400A387FFF7A8F9E3E70BB108F02AFBFE
:1022F80094F8AE30013384F8AE30A38F43F4806392
:10230800A38795F87530033B012B0DD807F0D4FB54
:1023180004280DD1B4F854604FF000081B2EC146B4
:1023280094BF0026012641E701F096FF0028EDD171
:102338000026B046B14639E701235BE794F8AE10B2
:102348000120FFF787F900287FF45CAFFFF7D4FA84
:10235800B8F1000F3FF45DAF03A8FFF709FE58E797
:1023680003A8FFF705FE53E7B4F807300133A4F8D4
:10237800073077E7D0110020D5180000DD1F0000D6
:10238800051800002D170000343270B5054692B2CA
:102398000C461E460BF0DEFD25B1034A5560147449
:1023A8005674147070BD00BF541200200138C0B2BA
:1023B800032808B504D940F287310620FEF71CFA35
:1023C800014B185C08BD00BF6EC402000138C0B2E2
:1023D800032808B504D940F287310620FEF70CFA25
:1023E800014B185C08BD00BF8BC402000138C0B2A5
:1023F800032808B504D940F287310620FEF7FCF916
:10240800014B185C08BD00BFECC402000138C0B223
:10241800032808B504D940F287310620FEF7ECF905
:10242800014B185C08BD00BFE5C50200014B1868E8
:10243800704700BF4413002008B5034610465A1ED3
:10244800032A10D84A1E032A0DD8084A01295170B8
:102458000CBF00210A211071937091721946FFF781
:102468009BF8002008BD6FF01500FBE7B0040020C2
:10247800074B5A8A38B142F01002987A5A82DA8A9F
:102488009A839877704722F0100298835A82F8E767
:10249800B004002010B4094C637A58B143F0040327
:1024A8000029637210460CBF00230723637110BC18
:1024B800FFF7DEBF03F0FB03F2E700BFB004002024
:1024C80040EA4100014BD870704700BFB0040020BB
:1024D800304BF0B5B0F868700C4611461A88B0F861
:1024E800666085B097425D8828BF1746964228BF28
:1024F80016461B2E2ED0B5F5A47F2DD040F64803E6
:1025080001AA9D4228BF1D460BF0C2FEBDF80A3045
:10251800BB4228BF3B46E380BDF80C30AB4228BF26
:102528002B462381BDF80630B34228BF334663806B
:10253800BDF80830AB4228BF2B46A380FF23237089
:10254800E3881B3B9BB2E02B08D940F22D71392060
:10255800FEF752F91B2FCED105B0F0BD63881B3BA7
:102568009BB2E02B02D940F22F71F0E7238940F6A5
:102578004812A3F5A4739BB2934202D940F2317179
:10258800E5E7A388A3F5A4739BB29342E4D940F28C
:102598003371DCE750130020F7B5002304460E46DC
:1025A8001746CDE900336846FEF726FE08B100203D
:1025B80016E0009DA542F6D03046EB1C0BF039FE24
:1025C8003946AA780CF0CFFF0028ECD005F10A03B1
:1025D8006A7A04F10A01607A0CF0C5FF0028E2D09B
:1025E80003B0F0BD054A516A02F11D03127F11F8CC
:1025F800030BC0F380100CF0B6BF00BFD01800204A
:1026080010B503210020FEF7BDFD044670B9032173
:10261800FEF77CFD044620B940F29B313920FEF7D5
:10262800EBF8034B93F95C100EF0F5FB204610BD58
:10263800501300202DE9F04F87B0074688460088E0
:1026480004A90CF0DEFF064600287CD1059D95F80C
:102658007531002B6DD0B8F1020918BF4FF0010990
:1026680095F88D30232B95F8E13043EAD3030CBF5E
:1026780089F0010A4FF0000AD90702D4BAF1000F15
:1026880063D0B8789DF8104008B900F0E7FD8DF8E0
:102698000B00F87808B900F0E1FD2E4B8DF80C001E
:1026A800D3F800B0BBF1000F0BD00AF001032046AD
:1026B8000DF10B022946009303ABD84704460028C6
:1026C8003AD19DF80B20B2B39DF80C309BB3164657
:1026D80095F87D2032B1B20703F0020337D5B3B3C2
:1026E80002231E46FF2285F82D21B9F1000F28D1BB
:1026F80095F82C2102F0FF041ABB85F82C8103A958
:1027080085F82E61284685F82F31BB88A5F8303129
:10271800BA78ADF80E308DF80C20FA788DF80D20C7
:102728000DF041F8002385F82D31204607B0BDE8AB
:10273800F08F814694E70924BAF1000FF5D0002301
:10274800C6E73A24EEE70446EFE71A24EDE7092442
:10275800EBE700BF00010020034B93F82200C043C1
:1027680000F00100704700BF0C180020044B93F8DC
:102778002200C0F3400080F0010000F00100704723
:102788000C18002038B50CF0EDFE002501F08CF88F
:10279800224C00F071FD0DF075FB02F099FB01F081
:1027A80075FA06F055FD012000F00AFD1C4B1D4A84
:1027B80029461D601C4BA4F854501A601B22DD8367
:1027C8009A80F9221D8483F822501D77174B2283A3
:1027D8005868174A1B8922601422E06104F124001A
:1027E8002384A576A580A5750FF0F2FB012342F29C
:1027F800107204F13A0084F8243084F83930C4E9BE
:102808000A220EF083FE04F144000EF0A4FE00221A
:10281800002384F86850C4E9182338BD50130020F9
:10282800DC00002003021B000C1800208BC40200EF
:102838001B004801064B41F64C521B215A61197482
:10284800C3E9022241F288329A61FFF79BBF00BFB9
:102858000C18002073B5344D0446AB68C363334B82
:102868001B79003B18BF012380F87D30304BC361D2
:102878000EF0AEF8064600F0E7FC8306297C53BF4D
:102888001B236B88AA881A46A4F86630294BA4F83B
:1028980068201B6884F84410A4F846601BB194F9BA
:1028A8007C1020889847244B1B6813B12349208843
:1028B8009847234920460CF076FF01236386214B75
:1028C8001B6813B10021208898471F4B1B6813B160
:1028D8000021208898471D4B1B680BB1208898471A
:1028E8001B4B1B680BB120889847AB8804F1140078
:1028F8006A8869780333033201919BB2297892B2CE
:10290800009104F11801FEF7AFFC636923B940F2A6
:1029180004713920FDF770FFA36913B940F20571FE
:10292800F7E7002002B070BD0C18002050130020FB
:1029380000093D00F0000020E400002058130020AA
:102948002A18002004010020F4000020F8000020CC
:10295800FC0000202DE9F34104460E460EF09CFAD7
:10296800002800F0B08020460EF023FB30B1B6F806
:102978000130013B7F2B01D9122004E020460EF0E4
:102988001CFB18B90C2002B0BDE8F08120460EF0FF
:10299800D6F80028F6D120460EF027FA0746002878
:1029A800F0D1204604F012FE0028E5D042F2107360
:1029B800B6F80180F178204603FB08F80EF0E4FA37
:1029C80004213078FEF7DEFB054606213078FEF755
:1029D800D9FB2DB140B141F68C413920FDF70CFFF0
:1029E80008B3054690F8E570384E3368DBB14035DA
:1029F80028460DF037FFB0B128460DF024FF90B9F6
:102A08003FB1334B28461B68984760B14FF4E551F6
:102A1800E3E730493A46336828464969984710B190
:102A280041F6A541D9E720460EF0BBFA014640B968
:102A38004246204602F02CFF002842D041F6AE4123
:102A4800CBE720460EF0B5FA40B902210DF1060099
:102A5800FEF724FB054658B90D2094E720460EF0F2
:102A6800BBFA0028F1D11C4B1B79002BEDD183E771
:102A780000210CF0DCFDBDF80630204629462B80ED
:102A88000EF0C8FA20460EF0A7FA88B9216A204647
:102A98000EF0ACFA01462846FFF7DCFE424629460E
:102AA800204602F0F5FE024620B141F6D14194E7F6
:102AB8000121F0E7084B9B6D1BB105F59171284684
:102AC800984700205FE742205DE700BFE000002054
:102AD800E80000200C18002050130020024B1B684F
:102AE80003B118470C207047DC000020B0F9002023
:102AF80011B292B2F8B502F5A0639BB2B3F5206F9C
:102B080037D8B0F902301DB29BB203F5A06080B28D
:102B1800B0F5206F2DD802F2F64040F2BE5480B2D4
:102B2800A04228D803F2F64080B2A04223D8002958
:102B38004FF00A04C4BF093211B2002DC8BF0933CF
:102B480091FBF4F4C8BF1DB206F08AFB0A2367B2F2
:102B5800064695FBF3F1384649B206F073FB074B7E
:102B68001B6813B1A01B40B208B90020F8BD9847F4
:102B7800FBE73020FAE71120F8E700BFEC0000205F
:102B8800034B5A8802801B7883700020704700BF6F
:102B98000C1800207FB5837806461A2B08D8042B1A
:102BA80004D9334A22FA03F3DB0705D412251AE0C5
:102BB800292B01D03B2BF9D13088B0F5706FF5D2B5
:102BC80069460CF01EFD88B9019B93F8202102F09C
:102BD800FF05C2B9B27883F82121FF2283F82021AA
:102BE80068460BF04BFD284604B070BD09213088BB
:102BF800FEF7C8FA0446002837D002A9B0F8AC019D
:102C08000CF0FFFC08B10C25EDE70821B4F8AE0183
:102C1800FEF7B8FA20B940F667213920FDF7ECFD38
:102C280003781BB994F8C831032BECD1039B93F8B4
:102C38003621002AE7D194F8F02102F0FF05002A96
:102C4800E1D1B4F8B021A3F8382194F8B82183F879
:102C58003A21027D83F83B21B27883F83C2184F83D
:102C6800F021FF2283F83621BDE70225BBE700BF2C
:102C7800200038040188A1F11B039BB2E02B0CD87B
:102C8800428844F24810A2F5A4739BB2834204D848
:102C9800034B002019805A8070471220704700BFEC
:102CA80050130020034B1A885B8802804380002061
:102CB800704700BF5013002038B50278447802F0FE
:102CC800010302F0020254EA030101D1112038BDC8
:102CD800BAB98578002DF9D0002B18BF002400E080
:102CE8001D4620460BF0C7FA0028EFD028460BF007
:102CF800C2FA0028EAD0054B00209C77DD771884BB
:102D0800E5E7002BECD000242546EAE70C18002064
:102D180013B5008869460CF074FC18B102242046EB
:102D280002B010BD68460BF0D9FB0028F6D0019818
:102D380090F832310BB13A24F1E790F8DA3003F029
:102D4800FF04002BF7D190F8D1309B0706D1FF2361
:102D580080F8323168460BF091FCE0E70249D23046
:102D68000DF0B8F8DBE700BFAB070100F7B5067850
:102D780004460F46EF2E03D91226304603B0F0BDA5
:102D880090F901204378002AF6DB82789207F3D184
:102D980013F0100048D19D0603F0030241D5002A24
:102DA800EAD119074FD503F06702012AE4D1627A04
:102DB800013A062AE0D8A27A032ADDD813F00401E2
:102DC80002D1023A012A03D8E27A012AD4D811B9E9
:102DD800A27C032AD0D8227D002847D0012ACBD153
:102DE800237E012BC8D8002850D06378D90703D593
:102DF80000F0A4F9002850D06378227D03F018036E
:102E0800082B5AD1022A48D103213046FEF7BAF9D5
:102E18000546002857D00DF092FE00285FD00C26FA
:102E2800ABE7032ABDD1A7E713F0600FA4D103F0E5
:102E38000702052A05D003F00F010D22CA40D20768
:102E48009AD51D07B3D42179E278E57942EA0122BF
:102E5800617942EA0142A17941EA0521257A41EAEC
:102E680005418A4288D81F2AA1D885E7022A04D1B9
:102E780003F06F03092B7FF47FAFA37D013B022B87
:102E88003FF67AAFE37D0F2BAAD975E700F0E6F994
:102E9800820707D4237D022B01D111266DE7A37D7C
:102EA800022BFAD000F0DAF943079ED4237D032BD6
:102EB800F3D0A37D032B98D1EFE7022AA4D0237F78
:102EC800002BA1D0E9E703213046FEF71FF905469C
:102ED800002843D0224B93F95C100DF09CFF002191
:102EE80030460EF0DFFA28BB28460EF057F8214688
:102EF8003870E074284604F0C9FBE37E0646002BD0
:102F08003FF43BAF00287FF438AF0246E96C6846CF
:102F1800FEF78AFA3246E86C01210BF070F8E96C8A
:102F280068460422FEF780FA32463146E86C0BF018
:102F380066F822E740300DF095FC0028D4D063787D
:102F480013F0330F7FF418AFA67D2846296A0EF0D8
:102F58004DF8FFF73BFA8642C6D060E707260CE734
:102F68005013002030B502798BB00346042A4FD89D
:102F78004088B0F5804F4BD8264900241144ADF85D
:102F880000408DF808408A7C4D7B42F010028DF895
:102F9800244042EA4502CD7D097F42EA850242EAA1
:102FA800C102694602F01F028DF80020BDF800201A
:102FB800ADF809201A888DF80E00000A8DF80B204C
:102FC800120A8DF80D408DF80C208DF80F008DF841
:102FD80010405A7BD3F807008DF811205A790590D4
:102FE80002A88DF812209A798DF81320B3F80B20D7
:102FF8009B7BADF818208DF81A307F238DF81B3095
:103008004FF00113CDE90734FFF7B0FE0BB030BD28
:103018001220FBE78BC402000278034672B14278A3
:1030280062B142881A2A09D982881A2A06D9006800
:10303800034A106000209B889380704712207047D5
:103048000C18002002680020014B9A60704700BFEE
:103058000C1800200378A3F10A02112A9BBF024A28
:1030680000201220137470470C180020014B1876AA
:103078000020704750130020014B587600207047FD
:1030880050130020024B1B6803B1184711207047EA
:103098000801002008B5052000F09EF806F086F823
:1030A800014B024A9A6508BD50130020D92400003C
:1030B80008B50122054B1A7104F076F905F024FAD7
:1030C8000CF0FFF8BDE8084000F024BFBC13002056
:1030D80010B50C20084C00F07FF8282000F07CF890
:1030E80004F1080005490CF0A3F804F10C000449A8
:1030F800BDE810400CF09CB8BC1300200C01002067
:103108001401002010B5094C094904F108000CF01D
:103118008FF804F10C0007490CF08AF804F110004C
:103128000549BDE810400CF083B800BFBC1300206F
:103138001C010020240100202C010020014B1879DB
:10314800704700BFBC13002038B5074C0D4600F08F
:10315800BDFEA06825600CF063F8FFF76BFB01F07B
:10316800B7F80123237538BDBC130020014B187D27
:10317800704700BFBC13002010B50C4CE0680CF081
:103188004FF820690CF04CF8FFF7FCFA202000F00B
:1031980037F82F2000F034F8262000F031F82920E5
:1031A80000F02EF80023237510BD00BFBC130020CB
:1031B80000487047D113002000487047D3140020FE
:1031C800014B83F819027047BC130020014B93F898
:1031D80019027047BC130020C208074900F0070015
:1031E80001238340885C03438B5404490B78934242
:1031F80038BF13460B70704778000020D6150020A2
:103208000F4B012110B503EBD002C40800F00700F2
:1032180001FA00F0195D21EA0001195509490B78F6
:10322800A34205D1002012F8014914B100B10B7076
:1032380010BD002BFAD0013B0120DBB2F3E700BF41
:1032480078000020D6150020014BD3E90001704713
:10325800780000200048704780000020054B18685F
:10326800C0F3C022C0F30020400040EA820040F0D2
:10327800010070477800002008B508F0E5F8002341
:10328800074A32F82310814205D302EB8302937870
:10329800044A137008BD01330C2BF2D10023F7E761
:1032A800BCC40200D7150020024B1878072828BF95
:1032B80007207047D715002010B54468238884F884
:1032C8008311A4F8843194F87400FFF78FF884F818
:1032D800860194F87500FFF789F8054984F8870195
:1032E80004F5BD700CF0F6FD002384F82C3110BDF8
:1032F800E9F20000406807490388A0F8763190F8A1
:103308006C3080F8783190F86D3000F26D100373EE
:103318000CF0DABDFFF200002DE9F0438946497848
:10332800456885B099F8028001F00701044695F8D0
:103338008C7008F007084B1E08F1FF320B4002EAB8
:103348000802134395F88D20242A3DD105F18D06F6
:103358000BBB40460CF010F8002840D095F87430AC
:1033680098423CD095F82E2118EA020F13D0222F4C
:1033780035D095F86D2018EA020F30D10138013B9D
:10338800574AC0B2DBB21044032B007922D81A4442
:103398001379834223D995F82C31012B60D11E2152
:1033A8002046FFF789FF222F5ED16368182283F831
:1033B80011210A2283F88C2093F8CA30002B4BD1B4
:1033C8004FF43371AE2008E0222F40F0868005F1DB
:1033D8008C06BDE740F23E210620FDF70DFA0846AF
:1033E8000BF0CAFF38B195F87530834203D095F8D1
:1033F8002F311942CFD0B9F8037003AB28464246A3
:1034080000933B460BF0C5FF656800283FD195F84F
:103418002C31012B38D1B5F8863005F5307295F886
:103428007410B5F830010CF016F8074640BB014699
:103438002046FFF741FF3770636803F18D0296421B
:1034480002D1002283F88D20636803F18D02964231
:103458003FD120460CF0B7FE002005B0BDE8F08350
:10346800002385F82C319EE70023204633700CF0AA
:10347800AAFE1821204605B0BDE8F0430CF0CFBEE7
:10348800282385F88C30D7E785F82C01D4E7B5F8E0
:103498008630A5F8C072013FFF1A47F6FD73BFB228
:1034A8009F4206D92823204685F8AF3001F058FA04
:1034B800CAE795F88D300E2B02D00B3B012B01D8B3
:1034C8002A23F0E7BDF80C30A5F8C2322623337062
:1034D800BAE7002283F8CA20BEE70220BDE700BF92
:1034E800ECC40200034B002283F85020A3F85220BA
:1034F800704700BFDA150020044B93F85020012ACA
:103508001ABF036001200020704700BFDA150020B1
:10351800064B024693F8501001291BBF0120A3F85F
:103528005220002083F85000704700BFDA150020B1
:10353800054B024693F8500028B1136011B1B3F857
:1035480052300B8001207047DA150020054B00220D
:1035580093F85000A3F8522010B1012083F85020AE
:10356800704700BFDA150020034B93F85000B0FAFB
:1035780080F04009704700BFDA15002050B90A4AA8
:103588000120134603F8010B0868C2F801008A8875
:103598009A807047012805D1034B0A68D8719A6050
:1035A8008A889A81704700BF2E16002050B90B4BAD
:1035B800187888B1D3F80120B3F805300A600120E3
:1035C8008B807047012806D1044BD87920B19A68BE
:1035D8009B890A60F3E70020704700BF2E16002081
:1035E80010B9044B18787047012806BF014BD879E9
:1035F800002070472E160020F7B58A8800238DF822
:103608000600ADF8042008680B4A8DF8073001461B
:10361800147802F5A872019DD8B2844201D8082016
:1036280007E052F8087F01335668AE4208BF8F4260
:10363800F2D103B0F0BD00BF40160020084B014690
:10364800002230B55C7803F20113D0B2844201D86D
:10365800082004E013F8015F01328D42F5D130BD36
:1036680040160020F8B52D4C63782218013B92F8DB
:103678000251DBB28342637030D01A010101961CFB
:103688008F1C2644274406F1100C56F804EB6645B7
:1036980047F804EBF9D1823282312244214402F105
:1036A800100652F8047BB24241F8047BF9D1E118C4
:1036B800221891F8026182F802610626734370436A
:1036C80003F5857300F58570E618E358271823502D
:1036D800B388BB8091F83A3182F83A312846FFF72F
:1036E800ADFF082818D12378013BDBB29D42237037
:1036F80012D02B3305F12B0204EBC30304EBC202F7
:1037080093E8030082E803002078FFF797FF082872
:103718001CBF241884F80251F8BD00BF40160020D1
:10372800F0B5254D89B095F8984105F2991168468C
:10373800224609F0B1FC214668460BF032FF0446E8
:10374800B8B300EB400102A8C9B2FDF78DFA631EB9
:1037580095F8A1610124DBB295F8981105E0721C77
:10376800B2FBF1F001FB1022D6B206F120020DEBFC
:10377800020010F8202C002AF1D103EB430100F8D5
:10378800204C06EB460220312A44694411F8187C83
:1037980082F8A27111F8177C11F8161C82F8A3712F
:1037A80082F8A411013BAA19DBB282F89941FF2BD8
:1037B800D2D109B0F0BD00BF4016002070B5064652
:1037C80088B00C46002A4ED0294A92F8A131D01868
:1037D80090F8991119B9FF212820FDF70DF803EB8E
:1037E80043010133114491F8A251E57091F8A351B6
:1037F80091F8A41125716171002180F8991192F84E
:103808009811B3FBF1F001FB103382F8A13192F863
:10381800C23123B9174902F5DD700CF058FB657900
:103828000D220021684605F03F0545F04005657109
:103838000EF0CEFBE37804AA69468DF80F303046C7
:1038480023798DF80D508DF80E3004230EF02AFBE5
:103858009DF81F3023709DF81E3063709DF81D3051
:10386800A37008B070BD03216018FDF7FDF9D6E715
:103878004016002029370000044B5A78824286BF40
:103888001B1893F84A010020704700BF401600201B
:10389800044B5A78824286BF1B1893F842010020D5
:1038A800704700BF40160020064B00224FF461719C
:1038B8001A8083F8C32183F8C421A3F8C61183F8BA
:1038C800C2217047401600202DE9F04782468946FC
:1038D80017469846FFF790FE08280546064603D087
:1038E800FFF7ACFE082860D1324C6378072B5ED80E
:1038F800082D15D12678731C072E237003D96C2147
:103908002820FCF779FF06F12B02D9F8000004EB18
:10391800C20344F83200B9F8042083F806A09A805C
:10392800657807F110026B1C290163704B1C234456
:1039380012F8010DBA4203F8010FF9D1813108F1EB
:103948001003214413F8012D984501F8012FF9D1EE
:103958002544102140460BF0C9FE102185F842018C
:1039680038460BF0C3FE85F802616678002385F8B7
:103978004A013146104885F83A310BF012FE012809
:10398800054607D831460D480BF00BFE002818BF36
:103998000135EDB284F898510025284684F8A151E4
:1039A800FFF7BEFE2846BDE8F0871220FBE7072098
:1039B800F9E700BF40160020821700208A17002070
:1039C800064B10B55878013840B2002800DA10BD0F
:1039D800C4B22046FFF746FE601EF5E740160020F9
:1039E800014B83F8C301704740160020014B93F840
:1039F800C301704740160020431E4AF2B7129BB21B
:103A080093429DBF024BA3F8C601012000207047D6
:103A180040160020014BB3F8C6017047401600203D
:103A28000A4B30B55C7884420ED9184490F80201EC
:103A38002B3003EBC004A5790D7053F830001060EB
:103A48000120A388938030BD0020FCE740160020A9
:103A58000246074810B590F8C34124B1417821B116
:103A6800023005F029FC204610BD0C46FBE700BFDC
:103A7800401600202DE9F74F2F4C9A46804689467C
:103A88006378834256D9231893F8425185F001058B
:103A9800F9B193F84A31E3B945F002070135BAF1B3
:103AA800000F18D1FA070AD5062104EB0810524670
:103AB80001FB0841823001F58571FFF77FFEBB07E6
:103AC80034D504EB0810524649460230FFF776FE1B
:103AD8002CE02F46E3E794F8A1614FF0010B002D8D
:103AE800E0D0A31993F89911019399B90092DAB12A
:103AF80000F0BEFB019B06EB4601009A4FEA102C32
:103B080083F899B1214481F8A201000C81F8A3C17E
:103B180081F8A401013694F89831013DB6FBF3F120
:103B280003FB1166F6B2DAE747F00407384603B03C
:103B3800BDE8F08F0027F9E740160020074B5A78B8
:103B4800824209D91A1892F842212AB9062202FBA0
:103B5800003000F58570704700207047401600203F
:103B6800064B5A78824281BF1B1893F83A01B0FA83
:103B780080F0400998BF0020704700BF4016002021
:103B8800F8B50E4607460621154630460BF0AEFD41
:103B9800044670B10C4B0022587803F23913D1B2A5
:103BA800884202D801242046F8BD013203F8015F9B
:103BB800F5E7314638460BF010FD0828F3D0024BE4
:103BC800034483F83A51EDE74016002030B500244D
:103BD80042F21075A0F84040B0F844404C43B4FBA2
:103BE800F2F4A0F84440541E05FB0343B3FBF2F380
:103BF800A0F84230084BB3FBF2F30133A0F8483089
:103C0800838F05FB0344436B5943B4FBF2F4B1FBC8
:103C1800F2F18463416330BD005A6202034B80F8BD
:103C28007C101B680BB100881847704734010020CE
:103C38000B2808B504D940F2C7112920FCF7DCFD90
:103C4800014B33F8100008BDF4C40200054B1B7883
:103C580033B9054B1A681B7902600371012070475C
:103C6800002070470818002088000020054BFF221C
:103C78001A70054A016811600179117100221A70E1
:103C8800704700BF081800208800002007B5064AC2
:103C980010681279009068468DF80420FFF7E6FF57
:103CA80003B05DF804FB00BF44E302000346084686
:103CB80071B13F2B0BD8074AD35C03F07F029142C6
:103CC80005D08CBF0120002000EAD31070470120E6
:103CD800704700BF0CC502002DE9F04F85B08B4638
:103CE8001546984602A99DF838400BF08AFC824692
:103CF80020B9039E35B9012386F89330012005B019
:103D0800BDE8F08F77692946384609F032FF014649
:103D18000028F4D0224B5B88AB423FD30190384651
:103D28000AF063F896F8933001998146002BA0F8C1
:103D380001A018BF4FF0020B80F800B008460AF047
:103D48005CF88246E4B1748FD4B10DF0D9FC40F22E
:103D580071235C43241841F10001CAF804102A4673
:103D6800414609F10300CAF8004009F095F92946CF
:103D7800384609F039FF28B98C212B20FCF73CFD87
:103D88002146EAE79DF8083033B102A80AF076FC2C
:103D9800039B0022A3F8CA210023ADE75046AEE7F3
:103DA8000C18002083230B70014B1B78CB707047D5
:103DB800301800202DE9F84FD0F804800D46D8F8C7
:103DC800186030460AF003F8044620B940F245115D
:103DD8001020FCF711FD014630460AF006F8B4F849
:103DE80000B082461FFA8BF9B9F1000F02D140F2F8
:103DF8004911EDE71E4BC71C1B688BB9B8F800309A
:103E0800A5F806B0AB8000236B729AF8003003F077
:103E18000303012B0FD0022B0DD040F26311D7E71B
:103E28004A463946B8F80000984704460028E5D1C4
:103E38002046BDE8F88F30462B7209F0E0FF0446B3
:103E480010B94FF4B671C3E7B9F1FB0F02D940F2CC
:103E58007B11BDE7286810B94FF4BE71B8E74A4630
:103E6800394609F019F9304609F020FFE0E700BFAC
:103E78003801002038B5134C10220021201D0EF007
:103E8800A7F80125257404F108031022002104F184
:103E98001400C4E901330EF09BF884F8205004F1B3
:103EA8001803094AC4E9053300236362A36284F84E
:103EB8002C30C4F82D30C4F8313084F83530136014
:103EC800A36338BD301800203801002010B5084C15
:103ED8002378FF2B04D04FF4C3711020FCF78CFC1F
:103EE80009F046F82070BDE81040FFF7C3BF00BFD7
:103EF8008D00002010B5034C207809F053F8FF23FB
:103F0800237010BD8D000020014B187809F05AB8B5
:103F18008D000020014B024A1A60704740010020C2
:103F2800BD3D00002DE9F341DFF88881054608F121
:103F38001407D8F80830D8F81840227A012A22D174
:103F4800D8F8382052B1137A1BB9B9211020FCF7E0
:103F580053FCD8F83840C4B9002093E01A7A012AF3
:103F6800FAD01C46544AEFF3108172B650680068C4
:103F7800506001B962B6A34208BFC8F83840237A36
:103F88001BB9E821E2E73A46EDE7267AF6B20523BF
:103F98002372731E0B2B7ED8DFE803F07A062336D4
:103FA800773F4E3F3F3F3F6B636813B940F2F711CD
:103FB800CCE72046294698470420EFF3108272B6D2
:103FC800237A052BD9B24FF0000369D12372D8F8B0
:103FD8003810A14201D1C8F83830002A45D162B65C
:103FE80043E0636813B94FF40071AFE729462046F0
:103FF80098470346ADF80400C0B2C3F30723012B6A
:104008003ED0022BD9D129E0636813B94FF402716D
:104018009CE7204698470020CFE7284B1B68002BD9
:10402800F9D03246606829469847A6F10A0204206A
:10403800534253415B00E4E763680BB9FA2185E713
:104048000D222A7001221988AA706A710022586903
:10405800A5F80310AA7109F029FE0420D8F8383011
:10406800A34202D10023C8F8383000283FF461AFDA
:1040780008E0134B294620461B689847034668B951
:10408800267298B102B0BDE8F08140F23F215DE7A9
:1040980040F242215AE740F2452157E70220DDE786
:1040A80011B940F2662151E7184696E7002B7FF4D4
:1040B80040AF51E730180020341800203C010020A0
:1040C80040010020134610B5027A22B140F2ED21DA
:1040D8001020FCF791FB0A4601460248BDE8104053
:1040E8000BF0D2BE34180020044890F82C301BB9CD
:1040F800034924300BF0E5BE704700BF301800209C
:1041080083FE00000346064890F83C203AB190F838
:10411800352022B9034900F82D3B0BF0D2BE704779
:1041280030180020AD3D00000A4610B5037A23B1CF
:1041380040F2F5211020FCF75FFB014607230248F7
:10414800BDE810400BF0A0BE441800201346027AC8
:104158000AB1037270470A46014601480BF094BE43
:104168003418002003460846F0B4B3F86020B3F8CA
:10417800544093F875509442B3F85810A5F10305CC
:10418800B3F84A7028BF1446B3F86220EDB2B3F80A
:104198004E608A42A3F84A4028BF0A46012DB3F868
:1041A800501087BFB3F852C015464FF4296C4FF42E
:1041B8002965A142A3F84E5038BF2146624538BF51
:1041C8006246A742A3F85010A3F8522026D1741BC8
:1041D80018BF0124B3F85C20B3F85610B3F8486050
:1041E8009142B3F84C5028BF114693F87420033A13
:1041F800012A15D9B3F85A20B3F85E70BA4228BF1D
:104208003A468E42A3F84810A3F84C2002D19542B2
:1042180000D144B10549F0BC0BF05CBE0124D9E7DC
:104228004FF42962EDE7F0BC704700BFE3FE0000E1
:104238000B8BA2F809001046A2F80B304B8BA2F8A2
:104248000D308B8BA2F80F30CB8B0249A2F81130BE
:104258000BF03ABE45FF0000014B1878704700BFCD
:104268006D180020014B1878704700BF8E000020A1
:10427800094AD2E90003434083EAB01181EA4321A5
:104288004FEAF34311605360044B58434FEAF06020
:1042980000EB8000704700BF70180020BB79379E84
:1042A800094AD2E90003434083EAB01181EA432175
:1042B8004FEAF34311605360044B58434FEAF060F0
:1042C80000EB8000704700BF90000020BB79379E4C
:1042D80010B50A4C08210948FCF7C6FCD4E900329D
:1042E8001343F7D0064CFFF7DBFF2060FFF7D8FF3A
:1042F800236860601843F6D010BD00BF900000200E
:1043080070180020174B184A9A60184A5A60184AC1
:104318001A60184A9A62184ADA62184ADA60184A21
:104328009A61184A1A63184A1A62184ADA64184ACB
:104338009A64184A5A62184B184A9A60184A5A627C
:10434800184ADA62184A1A61184A5A61184A9A6170
:10435800184A1A63184A9A64184ADA64184A9A6317
:10436800704700BF440100206D0201009D0201005A
:10437800D30301008B050100FD050100914A0000EF
:1043880013060100494D00009D4B0000F306010093
:104398001B070100014C00004402002089020100B3
:1043A800B306010035060100D905010059060100D0
:1043B8003D4B0000C90701006907010053070100D0
:1043C80099060100044B054A5A65054B054A1A65CA
:1043D800054A5A65704700BF4401002005050100E1
:1043E80044020020EB04010033050100054B064A96
:1043F8009A65064A1A66064B064A9A65064ADA65B7
:10440800704700BF4401002097F4000021330000EA
:104418004402002067F3000049F500003F2A2DE917
:10442800F04105460C4643D83F2A44D8DFE812F04D
:1044380046009700B200BE00D900F701F701E90075
:10444800EB00F100F701F701F4000001EB00430075
:1044580043000401F701F701180118012F012F018A
:10446800360143004300F7017601820186018A0183
:104478009301950197019901A201AA01D701D901D8
:1044880043004300B101E101DF01C901BF01C101DE
:10449800C301C501CB01CF01CD01D301F701430011
:1044A800D101C701D501E301E5014300DB01DD01CD
:1044B800FF2A00F0A88140F2165149E1456841F20F
:1044C8007073D5F84412B5F83E22A1F57A70984277
:1044D8000BD84FF47A73B1FBF3F303F550639BB237
:1044E80064200126B2FBF0F20CE040F2E2406FF4E7
:1044F8005066B1FBF0F39BB29E19062EF0D9002648
:10450800B2FBF0F223711B0A62706371B5F848328E
:10451800A3711B0AE371B5F84A3223721B0A63724E
:1045280095F8173133B905F50F7305F5107228465C
:104538000BF0D6FEB5F83C32A3721B0AE372D5F82D
:1045480040324EB164220C20B3FBF2F3A370C3F3E4
:104558000723E370BDE8F08140F2E242F3E74668E2
:10456800D6F83032C1F8013096F834324B714068D1
:1045780090F817313BB90BF065FE6B68B3F88630DD
:104588001844A6F83602B6F836320820A3711B0A7A
:10459800E371DFE70378012B436802D193F8183100
:1045A80001E093F8213102206370D3E743681720B4
:1045B800D3F87822C1F80120D3F87C22C1F805206D
:1045C800B3F88022A1F80920D3F85822C1F80B20AB
:1045D800D3F85C22C1F80F20D3F80831C1F81330A2
:1045E800B8E74268D2F8E631C1F80130D2F8EA31CA
:1045F800C1F8053043680D20D3F80C31C1F80930F3
:10460800A8E74368CAE7084600F04EFB0028A1D196
:104618009CE000F05BFBF9E7102306204B70592360
:104628008B700023CB7073230B7130234B7191E790
:10463800436893F81231B6E70278436852B993F8A1
:1046480018213AB193F815214A7093F814310320D0
:10465800A3707FE793F81321627093F81231F6E79D
:1046680043680920B3F860204A70120A8A70B3F8C8
:104678001A21CA70120A0A71B3F85C204A71120A28
:104688008A71B3F81831CB711B0A0B7262E7436861
:1046980093F82E214A7093F82F31D8E7476897F896
:1046A8003A82A8F10303012B32D897F87430DA1E46
:1046B800012A2DD8B8EB030818BF4FF0010897F866
:1046C8003B020AF0D9FE0646B8F1000F23D197F84D
:1046D8003A020AF0D1FE8046686890F817316BB943
:1046E80046EA080313F0FF0306D00BF0ABFD6B6836
:1046F800B3F8863003449BB2A7F83832B7F838329B
:10470800A670E3701B0A84F801802371052021E755
:104718004FF00008D3E74FF00008DDE743681121A8
:104728001888FCF72FFD00F15B0120460BF068FBB1
:1047380023200FE708460CF0D7FE67E708460CF081
:10474800DCFE63E7374B1B68002B58D140F21B5146
:104758005120FCF751F8344BF5E7344BF3E7344B71
:10476800F1E7344B1B68002BF0D002462320984712
:104778000420EFE62F4B1B68002BE7D002462420CD
:104788009847C3E72B4B1B68002BDFD00246252038
:10479800F6E7436811211888FCF7F4FC00F17D0264
:1047A80000F15B0120460BF037FB2B20D2E6224BB1
:1047B800C9E7224BC7E7224BC5E7224BC3E7224B89
:1047C800C1E7224BBFE7224BBDE7224BBBE7224B99
:1047D800B9E7224BB7E7224BB5E7224BB3E7224BA9
:1047E800B1E7224BAFE7224BADE7224BABE7224BB9
:1047F800A9E7224BA7E7224BA5E7224BA3E72946C7
:104808002046984702E74368204693F8B722D3F832
:10481800B8120BF0C1FA6B6893F8B702F6E60120FC
:1048280098E600BF440300204C0300204803002002
:104838005003002054030020580300205C0300208C
:104848006003002064030020680300206C0300203C
:104858007003002078030020740300207C030020EC
:10486800800300208403002090030020940300208C
:10487800980300209C030020880300208C0300205C
:10488800A0030020A40300203F289ABF024B53F83E
:1048980020000020704700BF440100203F289ABF35
:1048A800024B53F820000020704700BF440200204C
:1048B80030F8023CF7B504460E4630F8A65C73B1F2
:1048C80001226846ADF801508DF80020ADF803309C
:1048D800FEF704F918B195216320FBF78DFF1C4BF7
:1048E8001B6813B1A4F1260098471A4B1B680BB13B
:1048F80028469847184B1B680BB1284698470A2347
:104908000027A6F803503370B770637A54F88E0CFA
:10491800737109F0D5F908B9BA21DDE73946284697
:10492800FCF746FC02212846FCF742FC18B90B4B61
:104938001B6803B198474FF40173002003F0040289
:104948001B0A62F3070063F30F2003B0F0BD00BF3A
:10495800A8030020AC030020B4030020B00300200B
:10496800F7B5456804464FF6FF776E690DF1020109
:104978000DF101023046ADF8027009F050F901A9B5
:10498800304609F06EF940B1019809F036FA6168CD
:1049980000220272FFF7C8FBE8E7044905F1A60008
:1049A80003B0BDE8F0400BF08FBA00BFB948000073
:1049B800F0B5044685B00D46FF2600F8E96C10F8FE
:1049C800EA3CF3B1184F3B781BB148211F20FBF795
:1049D80013FF0C21381DFCF747F93E70002304F83B
:1049E800E93C09232A4602F8033BD4F80930C5F804
:1049F8000330D4F80D305360D4F81130936005B00B
:104A0800F0BD01A80C21FCF72FF9A4F53673039A21
:104A1800C3F80C2101AB03CB44F8F20C44F8EE1CAC
:104A280004F8EA6CDAE700BF7818002010B5054CE6
:104A380023782BB90C21201DFCF716F9FF232370CE
:104A480010BD00BF78180020024690F8EE31BBB9BF
:104A580090F8EF3103F0FF010BB100207047094BCC
:104A680018780028F9D01970D9680433C2F80C11E5
:104A780003CBC2F8E601C2F8EA11FF2382F8EE314F
:104A88000120704778180020426838B592F88D30B8
:104A980004460D463BB1142B05D0123B0B2B8CBFA3
:104AA8000120082038BDD2F81C3193BB92F8D030D1
:104AB80013B920460BF076FB6268D5F80B30C2F8C4
:104AC800DE31D5F80F30C2F8E2316368D5F813202B
:104AD800C3F808211A88A3F8E122D5F80120C3F801
:104AE800E322D5F80520C3F8E7226368B5F8092062
:104AF800A3F8EB226368002283F8EE2160680C4972
:104B080000F536700BF0DDF96368162283F88D2006
:104B18000BE00C22204603210BF068FB636832226D
:104B2800204683F88D200BF03DFB0020BAE700BF3C
:104B3800B949000038B54368044693F88D201D2A0A
:104B480004D040F2D9111F20FBF756FE002293F83B
:104B5800D0101D8803F5D77083F8CF2069B10B49B1
:104B680083F8D020A3F8B85183F8B7210BF0A9F93E
:104B78006368002283F88D2038BD012283F8B711BD
:104B8800A3F8B851024983F8BA21EFE77705010085
:104B98006905010038B50578446825B994F88D3061
:104BA8002BB101201CE0D4F88030DB07F9D4D1F810
:104BB80001200F4BD1F8051013400E4AC4F8E0301D
:104BC800C3F307630A4043F00803C4F8E42084F8F9
:104BD800E3300BF0E7FA25B9042384F88D30002080
:104BE80038BDD4F8803043F00103C4F88030F6E7CC
:104BF8002FC904F76FDB008038B5436893F88C2021
:104C0800042A32D1D1F801204C1C0078D1F8055083
:104C1800C3F8E020C2F30762C3F8E45042F0080288
:104C280083F8E320002283F8CA2083F88C2008B98F
:104C380083F8330193F83421AAB993F8902102F04C
:104C4800FF0082B91A8883F8910103F5C470A3F8AC
:104C58009221D1F801200649C3F894216268C3F86B
:104C680098210BF02EF9002038BD0120FCE700BF89
:104C780077060100436893F8342112B1084B1B688A
:104C8800184793F8902152B91A8803F5C47005495A
:104C9800A3F892211A2283F891210BF012B97047D8
:104CA800B80300207706010010B50446FEF7CCFAD9
:104CB800044A054B024009200B40C4F80120C4F8FF
:104CC800053010BD2FC904F76FDB008037B50C46DF
:104CD8004568FEF7B9FA0A4B0A4A03400A4095F8B4
:104CE800E01000930B4001928DF800306B4603CB27
:104CF800C4F801000920C4F8051003B030BD00BF96
:104D08002FC904F76FDB008038B5DB04154604D5DE
:104D1800837C13B10023436338BD446B013444637F
:104D28000BF02FFD836B9C42F6D3002303494363AA
:104D38002846BDE838400BF0CDB800BFE5060100B5
:104D480070B544680546067894F88C30012B09D074
:104D580026B994F88D302BB101203DE0D4F880308D
:104D68009807F9D494F8D1309A0713D44A78D80719
:104D780084F8DB204A88A4F8DC208A88A4F8DE209E
:104D880043F0020284F8D12010D5194904F1D20069
:104D98000BF0A0F894F8D130D90712D4EEB994F8F2
:104DA8008D3043B152214020FBF726FD94F8323173
:104DB800002BEAD1EEE7012384F88D3028460BF06A
:104DC800F1F994F88C300020012B4FF0000304BF58
:104DD80084F88C3084F8CA3070BDD4F880309A07D3
:104DE80001D55721DFE743F00203C4F88030E5E737
:104DF800AB07010070B54568044604F001FA054B9D
:104E0800014685F88B001B681BB12046BDE8704041
:104E1800184770BDC0030020024B1B6803B1184738
:104E2800704700BFBC030020F0B51F4D00242B784D
:104E380014709BB1013B6D68DBB21E1B012E0FDCA9
:104E480005EBC40655F8347076688E4208BF874271
:104E580027D0B84271EB060612D214700020F0BDBC
:104E68001E197710C6F3470655F837C005EBC70E6D
:104E78008445DEF804708F412CBF33463446DCE7A6
:104E880005EBC30455F8335064688C4208BF85426B
:104E980006D0A84271EB040428BF01331370DDE784
:104EA8001C4601201470DAE79818002010F0070259
:104EB80008B503D063214820FBF79EFC18B1034BCB
:104EC800197258601A70C80008BD00BF98180020F1
:104ED800014B00221A707047981800200A460648AD
:104EE800822302F8033B0368C1F803304368536028
:104EF80083689360704700BFA11800201622002124
:104F080001480DF065B800BFA1180020F7B51E4C88
:104F180002AB03E90300637DA3B39DF800300D469F
:104F28002BBBD1E972760BF0A6FC95F87420174BD1
:104F3800523053F822304FF47A7203F2E733B3FB5E
:104F4800F2F3DB192A8846F100061B18228046F185
:104F580000066360A660B5F8863002220C4904F1A9
:104F68000C00638003B0BDE8F040FFF7EFB85306CC
:104F780008D50B882380D1F868326360D1F86C3289
:104F8800A360E8E703B0F0BDA118002040C7020005
:104F9800E54E0000024B187A003818BF0120704710
:104FA800BC180020094B53F8203003F5224370B594
:104FB800B13316464FF47A720C46B3FBF2F534441B
:104FC80005F04AFA2C44204470BD00BF2CC70200EB
:104FD8002DE9F04F99468BB00023044688461746C2
:104FE800069390F875B00AF079F9064694F87F00B0
:104FF800FEF71EFE06440BF03EFC94F88D3000F1DF
:105008004805B6B2442B3BD00E2B39D094F88CA06F
:10501800AAF14401D1F1000A4AEB010A002F75D127
:1050280094F80432032B71D1BAF1000F58D0B4F8B8
:10503800C032434554D1D4F80C322046B4F8DC21B0
:10504800C4F8F831E369C4F8FC31B4F87A3213448F
:10505800C4F8003204F028F841F64B53D4F8C822BB
:1050680094F8D4129A428CBF0023012359B9E169FC
:105078008A421ED0208802930CF055FA029B18E051
:105088004FF0010ACAE720880CF04AFA20B940F22A
:105098005A713020FBF7B0FBB4F8D0326386B4F80D
:1050A800D2328381B4F8C032C7814381013B038285
:1050B8003B4694F87E20002A50D1002B4FD1D4F8DB
:1050C800C42284F87E300223E262B4F8C22284F853
:1050D80004322286D4F8C822E261D4F8CC22626273
:1050E80094F88C10262945D0A1F12802514251414B
:1050F80094F88D20262A00D041B1B4F8C032A8EB2C
:1051080003031B0402D4204603F0A6F9B4F878E29E
:1051180004F5127394F87500A8EB0E0E0293B4F818
:1051280086300FFA8EFEA8EB0303BEF1000F0FFACC
:1051380083FC21DAE646D4E99823C4E99C230023BA
:1051480084F81F32012394F80422032A00F2AB8169
:10515800DFE812F0140027016C0049012BB14FF071
:105168004D12626300222287A9E74FF09612238727
:105178006263A4E70121BBE74B46E4E7014694F8E4
:10518800D6010AF025FB8346E06A3146584406F00A
:105198000FF93146C4F80802E06906F009F994F8F5
:1051A8007E3007A95B00DBB2034408A8C4F80C32C0
:1051B80005F01AF8079B0093DDE90823D4E99C0160
:1051C8000CF0A6FA064620460BF07AFBD4F87C329F
:1051D800E26A94F875000693029205F045F9069B79
:1051E80000F52240029A203BD4F80812B13013444B
:1051F8004FF47A725B1A30315B1BB0FBF2F05B4400
:105208002A469B1B1B1A94F875000693238E03EB02
:105218004101FFF7C7FED4F87C22069BC4F81002B0
:105228009B1ACC2B5DD840F2E44132E7E36A314661
:10523800D4F8FC01184406F0BBF83146C4F808025B
:10524800E06906F0B5F894F87E305B00DBB2034401
:105258002046C4F80C320BF033FBE36AD4F8FC6147
:105268001E44B4F8DC31002B40F09780B9F1000FF0
:1052780000F0938094F8750005F0F6F8D4F8081259
:10528800D4F8683200F52240761A94F87520B130C7
:10529800203E1E449E4B53F822204FF47A7302F2AC
:1052A800E732D4E998BCB2FBF3F2A6EB0B06B0FBED
:1052B800F3F01644761B361AD4F8F831D4F80022E5
:1052C80094F8750002FB0311238E2A4606963031A6
:1052D80003EB4101FFF766FE0123C4F8100284F8CE
:1052E8000432E36904F13C00D4F80C22A93B069986
:1052F8009B1A5D1BD4F810329D4228BF1D4600231F
:1053080084F84832C4F8D851D4E99C325B1842F189
:105318000002C4E996320AF05DFE04232844A4F88A
:10532800788284F85132C4F84C02D4E99623C4E94F
:105338009C2303F0A7F920B1D4F84C321E33C4F8EB
:105348004C32B4F8C831A3EB08031BB2002BD4BF0E
:1053580000220122520084F85022BAF1000F40F0D6
:10536800A580B9F1000F40F0A48094F80432002B16
:1053780000F0BB80E16904F51270D4F80C32C91A48
:105388000AF0C0F980B2002800F0AF80149B03B186
:10539800188001200BB0BDE8F08FD4F80812761AF7
:1053A8008AE7D4F80C22E369D4F800129B1AD4F8DF
:1053B800F8610EFB03F30693B4F8DC319C44D4F88F
:1053C8000832ACEB010C30330CF1FF3C06FB013327
:1053D800218E02FB0C332A4601EB4301FFF7E2FD65
:1053E800C4F810027DE7E26902FB0EF20692B9F1F9
:1053F800000F1BD0B4F8DC11C1B984F81F12D4F81F
:105408000C1201FB1E2EB4F8DC210291CDF818E035
:1054180003925BB352BBD4E99A61D4E99823B242B0
:1054280073EB010108D340F22B5132E694F81F12B6
:1054380000297FF456AFE2E7354B203E53F82B1096
:105448004FF47A7BD4E99823CDE9042301F2E733BA
:1054580001F52241049AB131B61AB3FBFBF3B1FB53
:10546800FBF11E44761A761B76440696039E2A465E
:10547800029B66445E43303676003146FFF792FD64
:1054880041F64B53C4F81002E06998423FF629AF41
:1054980006AB2A463146009304F504730AF0B5F9C1
:1054A80084F81F021DE740F24351F2E5B9F1000FFD
:1054B8001BD0B4F8F00110B3B4F8F21194F8F42149
:1054C8004D1CA4F8F21101FB022290420DDD002BC5
:1054D8000BDD0023A4F8F25184F85032FEF7C8FE21
:1054E80000F00700013084F8F40104F5127104F5A6
:1054F800087006F09BFF20B940F28D51C9E50146BE
:10550800DCE787F0010784F81C72002042E700BF3F
:105518002CC70200F0B5044685B018B9A92130207F
:10552800FBF76AF9072900F2E980DFE811F00800C3
:10553800DF003C003C003700E700DA00E50090F8A7
:105548001C32B0F8862003B3B0F81A32934208BF71
:10555800B0F8CC319A1AA0F8CE21A4F886302046AB
:10556800D4E99623C4E9982302F0DCFF94F8D331F8
:10557800002B00F0B480624B1B68002B00F0AF805A
:10558800204605B0BDE8F0401847B0F818329B1A1D
:10559800A0F8CE31B0F818329BB2DEE705B0BDE80E
:1055A800F04004F02DBE0CF0ABF8D4E99823801A33
:1055B80061EB0301012871F1000302DA4FF4C361C2
:1055C800ADE76FF0010383424FF000038B4102DA2D
:1055D80040F21961A3E7E3690BB1B0FBF3F394F868
:1055E8008D00B4F81A22442810D094F88C1043394E
:1055F80001290BD90E2809D0B4F886100B449BB2A8
:10560800D11A0D0444D501339BB243E00132A4F80A
:105618001A22B4F87A3202AEB4F886500133394F00
:10562800A4F87A32B4F8C2301D44B4F8C030013D51
:10563800ED1AADB23B685BB1B4F81A1200222046ED
:10564800013989B29847B4F81A321844A4F81A02F2
:10565800B4F81A126B1A18042CD4002320460096AA
:105668001A46FFF7B5FC012839D1B4F81A22B4F864
:10567800C811BDF808301344521A12049BB204D55D
:10568800EA1A12F4004F18BF0B46A4F81A32D1E7F1
:10569800013293B2A4F81A3294F81D32002BB8D113
:1056A800B4F8CC31B4F81A22934204BF0133A4F8F9
:1056B8001A32AEE794F8903030460394002B14BFAA
:1056C80008233E2384F8AF3001238DF80830FFF714
:1056D80047F920460BF098FE002384F8043205B001
:1056E800F0BD05B0BDE8F04008F073BD90F8043295
:1056F800042BF1D0CB2112E7D12110E7D5210EE7F9
:10570800C4030020CC030020F7B5044618B9DD21F6
:105718003020FBF771F8072900F2B580DFE801F0C7
:10572800048244443FB32FB10CF0A7F8C4E95A01EE
:10573800204602F03FFAD4F85C01A4380BF0E2FFEF
:1057480020460BF036FC054608BB014620460BF008
:10575800A8FB00F1AE06D4F85C01B04209D2301AB9
:105768000321192838BF19200CF059F868B10BF03B
:10577800CBFFC4F85C6120460BF058FC4DB12046C5
:1057880003B0BDE8F0400BF052BC0125F1E700255D
:10579800F1E7D4E95A23C4E9542303B0F0BD03B0B8
:1057A800BDE8F04004F02CBD0BF0CAFB042307460B
:1057B8000E4684F861310BF0A3FF0722A7FB0235E0
:1057C80002FB0655D4F854210192D4F850219B18B5
:1057D800019A45EB0205D4F8382132B157EA06029E
:1057E80003D0984271EB050216D2022284F8602198
:1057F800D4F87021D4F874C1121A6CEB010C94F827
:1058080080E1BEF1000F09D1012A7CF1000E0DDA0A
:10581800204602F0D7F905E00122E7E7012A7CF1EA
:10582800000CF5DB002384F87831B6E7984271EB79
:10583800050E0ED23E430CD01B1A65EB01019A42AD
:105848007CEB010005DB012B71F10000A4BF1A46B7
:105858008C460E49012304F58870914284F8793109
:105868004FF0000384F8583173EB0C03B8BF0A46B5
:1058780004F5AC7106F06AFE00288ED140F2CA61C8
:1058880046E7FB2144E7FF2142E700BF0040420F03
:105898002DE9F84304460E46154690F8783103F092
:1058A800FF07002B40F0A28000F58878394678225F
:1058B80040460CF08DFB22464D4940460CF05AF804
:1058C800C4F83861FF2384F8783166B1FEF7E8FC44
:1058D80000F0070032464749013086F8F40106F522
:1058E80008700CF047F840F202434FF00009A4F8A2
:1058F800603184F8589105F0B1FD00F14906204661
:105908000BF057FB0146B6B2002845D009F0E6FC7B
:1059180000F5CD61284689B205F04AFD2844C4F84F
:105928005C010BF0EDFE30184FF00106A4F826904C
:1059380041F1000184F83C61C4E95A0120460BF0AA
:105948004FFB20B3A5F2AA45314620460BF0A9FA31
:105958002D1AC4F840514FF0FF356FF00041404612
:10596800D4E95A23C4E95C51002504F5AC71C4E9B3
:105978005223C4E9542384F8795142F2107206F094
:10598800E5FD60BB40F2C9113020FAF735FF30461B
:10599800AE3D0BF01FFCDBE72046DFF85C900BF018
:1059A80080FAAE30C4F85C01B9F8000048B1E08C68
:1059B80038B1FEF775FCB9F80030B0FBF3F202FB22
:1059C800130006440BF09CFE361841F10001C4E9AF
:1059D8005A61002DBFD0AD1941F10001BFE729463A
:1059E80020460BF026FB3846BDE8F8830C27FAE77B
:1059F800115700001D550000C8180020F0B50023FD
:105A080085B0CDE9003303238DF806306846FBF7EF
:105A1800F3FB88B10123124EB3700023CDE90233A2
:105A280002238DF80E3002A8FBF7E6FB044638B1D6
:105A38000023B37005B0F0BD00980AF09CFFE5E7BD
:105A4800029D95F80432002BEDD005F5087738460D
:105A580006F04CFD38460BF0B3FF85F80442E2E748
:105A6800C8180020044B0022DA709A7042F21072B3
:105A78001A80FFF7C3BF00BFC8180020014BD870B9
:105A8800704700BFC818002008B504F01BF8044B85
:105A98005A6882422ABF9878002080F0010008BD29
:105AA800C8180020F0B5044685B090F8D33103F04B
:105AB800FF05002B6AD190F80432032B66D10BF056
:105AC8001FFED4E99823801A61EB0301012871F1C4
