:1000000060670020CD2F0100B9270200B92F010041
:10001000B92F0100B92F0100B92F0100B92F01003C
:100020000000000000000000000000009D30010002
:10003000B92F0100000000004D320100B92F01006E
:10004000C9320100C9320100C9320100C9320100C0
:10005000C9320100C9320100C9320100C9320100B0
:10006000C9320100C9320100C9320100C9320100A0
:10007000C9320100C9320100C9320100C932010090
:10025000C932010043600200C9320100C932010005
:10026000C9320100C93201002D600200C93201000B
:10027000C9320100C9320100C9320100C93201008E
:10028000C9320100C9320100C9320100C93201007E
:10029000C9320100C9320100C9320100C93201006E
:1002A000C9320100C9320100C9320100C93201005E
:1002B000C9320100C9320100C9320100C93201004E
:1002C000C9320100C9320100C9320100C93201003E
:1002D000C9320100C9320100C9320100C93201002E
:1002E000C9320100C9320100C9320100C93201001E
:1002F000C9320100C9320100C9320100C93201000E
:10030000C9320100C9320100C9320100C9320100FD
:10031000C9320100C9320100C9320100C9320100ED
:10032000C9320100C9320100C9320100C9320100DD
:10033000C9320100C9320100C9320100C9320100CD
:10034000C9320100C9320100C9320100C9320100BD
:10035000C9320100C9320100C9320100C9320100AD
:10036000C9320100C9320100C9320100C93201009D
:10037000C9320100C9320100C9320100C93201008D
:10038000C9320100C9320100C9320100C93201007D
:10039000C9320100C9320100C9320100C93201006D
:1003A000C9320100C9320100C9320100C93201005D
:1003B000C9320100C9320100C9320100C93201004D
:1003C000C9320100C9320100C9320100C93201003D
:1003D000C932010059600200C9320100C93201006E
:1003E000C9320100C9320100C9320100C93201001D
:1003F000C9320100C9320100C9320100C93201000D
:10040000C9320100C9320100C9320100C9320100FC
:10041000C9320100C9320100C9320100C9320100EC
:10042000C9320100C9320100C9320100C9320100DC
:10043000C9320100C9320100C9320100C9320100CC
:10044000C9320100C9320100C9320100C9320100BC
:10045000C9320100C9320100C9320100C9320100AC
:10046000C9320100C9320100C9320100C93201009C
:10047000C9320100C9320100C9320100C93201008C
:10048000C9320100C9320100C9320100C93201007C
:10049000C9320100C9320100C9320100C93201006C
:1004A000C9320100C9320100C9320100C93201005C
:1004B000C9320100C9320100C9320100C93201004C
:0804C000C9320100C93201003C
:1004C800064A074B02604FF44472DB7882800822A8
:1004D800C371002382710372704700BF5B0601007D
:1004E80098090020064A074B02604FF4B072DB7A85
:1004F80082800822C371FF2382710372704700BF94
:1005080095FF0000980900202DE9F341C41D00283B
:10051800064624F007040CBF0020204600F06AFCC1
:10052800071E04DA6FF00B0002B0BDE8F081374D0A
:10053800E988A88803316B7A03302A7A89B280B2B5
:100548000CF02CFD0028EDDB3C44A978EB78002E5C
:1005580004F10304194424F0030400FB01F10CBF67
:100568000020204600F0CCFD20440EB90028D9DB3D
:10057800EA7A0446B2B1EB7B697C13441944FF293B
:10058800D0D80330002EAA89C9B220F003040CBFCA
:100598000020204600F026FE0028C3DB04440EB9E4
:1005A800002CBFDB012000F01BFCB0B1A97BA1B17E
:1005B80095F82A3033B340234FF481720734002E64
:1005C80024F007040CBF0020204601F011FE00288B
:1005D800A8DB04440EB9002CA4DBAB7AFBB1EB7AA0
:1005E800B3B10734002EA97A24F007040CBF002009
:1005F800204604F083F9002894DB04447EB9002CDB
:100608000DDA8FE725232822D8E700BF98090020B4
:10061800012000F0E5FB10B1AB7B002BE1D1734B5F
:100628001B6893B1A97D81B10334002EEA7D24F0C3
:1006380003040CBF0020204698470028FFF672AF3D
:10064800044416B9002CFFF66DAF694B1B688BB1DB
:10065800297C79B10334002E24F003040CBF002058
:10066800204698470028FFF65DAF044416B9002CD1
:10067800FFF658AF5F4B1F68B7B1697CA1B103346F
:10068800002E2B7D24F0030408BF0020009318BF20
:100698002046EB7CAA7CB8470028FFF643AF044409
:1006A80016B9002CFFF63EAF072000F099FB98B171
:1006B800A97D89B10334002E2A7E24F003040CBFDF
:1006C8000020204600F07CFE0028FFF62BAF0444F3
:1006D80016B9002CFFF626AFB6FA86F795F8230070
:1006E8007F09A0B103346B7FA97E24F00704194465
:1006F8003B4644F00404C9B2224600F0A1FE00289B
:10070800FFF610AF044416B9002CFFF60BAF95F8AE
:10071800241000294CD004F10708002EEA8C28F098
:1007280007080CBF002040460CF04CFC041EFFF6E6
:10073800F9AE4444002E3ED1002CFFF6F3AEA97F5B
:10074800002945D095F82230002B41D02A8C073457
:10075800002E02F1240224F007080CBF00204046B6
:1007680092B20CF02FFC0028FFF6DCAE404416B91C
:100778000028FFF6D7AE03302B7FA97E20F00700B4
:1007880019443B4640F0040495F82200C9B22246B9
:1007980000F048FE0028FFF6C5AE044486B9002CD8
:1007A800FFF6C0AEEB6AF3B1C6B1EC620020BBE65F
:1007B800002EC4D08846E98C404609F06DFCBEE79F
:1007C8002A8C4046A97F083292B209F06BFCE9E70F
:1007D800002EE7D0002211461046F6E728343FF5F0
:1007E800A1AE2046A0E6002EE0D1FAE7F4160020DC
:1007F800F8160020FC1600201FB572B6194B1C6BAA
:10080800ECB9BFF34F8F1849184BCA6802F4E0627D
:100818001343CB60BFF34F8F00BFFDE7B2FBF6F287
:100828002B465D1C002AF9D1DBB203F110056D449B
:1008380005F80C2C0A2233B901A8A047E1E70246C3
:1008480000230A26EDE7013BDBB203F110050DEBAF
:100858000506B0FBF2F502FB1500303006F80C0C6B
:100868002846E8E79809002000ED00E00400FA05B2
:1008780013B5124C68462389ADF80030E388ADF80B
:100888000430A388ADF8023002F0D2F918B1FB2188
:100898009C20FFF7B1FF207D02F0FAF908B1FE2194
:1008A800F6E7E07C02F0EEF908B1FF21F0E794F8F2
:1008B800290008F04BF802B010BD00BF98090020CD
:1008C80070B50546002855D00BF008FD18B94FF053
:1008D800FF34204670BD0AF0E7F8B0F5FA7FF6D885
:1008E800264C012625630025284684F834502570B7
:1008F80084F82A50E56209F071FB1A22294604F1AE
:100908000F0010F092FC1B2308210322A380284625
:10091800E3800223A1721F216372E375F723227219
:100928002384FB23A2734922E3840A23A181294655
:10093800E27484F82930A670E670E672A67426760A
:1009480001F0DCFC2A463146304601F0A9FC044699
:1009580020B140F2B6319C20FFF74EFF014601F06E
:10096800BBFCEFF3108572B600F090FD002DB0D1FE
:1009780062B6AEE76FF01504ABE700BF9809002038
:1009880038B51446002840F0EE80784D95F834309C
:10099800032B00F0E58019B312B96FF0150038BDCC
:1009A8000139172900F2DF80DFE811F0180029006B
:1009B8002C0042006C0075009400480078007B0011
:1009C8008E004E005400620067009A009D00AC0043
:1009D800AF00B200A300B500B900D2001378AB7025
:1009E8000020FFF791FD0028B7BF012302236FF015
:1009F8000B0085F83430A8BF85F83430CFE713787A
:100A0800EB70EDE71379002BC7D05379002BC4D0D6
:100A18001288FB2AC1D863881B3B9BB2E02BBCD849
:100A28001A2ABAD92368A2886B60514B9A80D7E7F3
:100A38001378EA7B9342B0D3EB72D1E71378EA7A62
:100A48009342AAD8EB73CBE71378EA7A9342A4D8F7
:100A58006B74C5E71378002B9FD05378013BDBB24A
:100A6800F82B9AD8138892786B82424B9A70B7E722
:100A78001078687507F028FFB2E71378002B8CD040
:100A88002B76ADE7012000F0ABF9237808B1012BF4
:100A980083D9AB73A4E71388AB81A1E71378AB754F
:100AA8009EE7072000F09CF918B92378012B7FF600
:100AB80074AF072000F094F918B12378002B3FF4A5
:100AC8006CAF2378EB758BE71378082B3FF665AF8F
:100AD8002B7485E71388FF2B3FF65FAFAB727FE778
:100AE80013786B767CE713780E2B3FF656AFAB7610
:100AF80076E72368204AC5F81E3063685360238967
:100B080013816DE71378EB766AE713786B7767E7FD
:100B180013782B7764E7137885F8283060E701F0BD
:100B2800B9FB98B1007900F001026178207801F0F2
:100B3800B7FB00287FF433AF6378012B7FF650AF03
:100B480009F052FA00287FF44BAF26E70246ECE79B
:100B580013785A1E092A3FF620AF85F829303FE757
:100B68004FF0FF301BE76FF02C0018E798090020C2
:100B78009C090020AA090020B6090020F8B50D46F6
:100B8800064630B329B311F0070422D1124F97F863
:100B98003430012B02D16FF00B00F8BD032B02D1CA
:100BA8004FF0FF30F9E700F0A9FC0028F8D02846FC
:100BB800FFF7AAFC0028EEDB0FF031FE3046F96A99
:100BC80002F0CEF8FFF754FE0323204687F83430AE
:100BD800E3E76FF01500E0E79809002010B5074C2F
:100BE80094F83430032B03D102F0D2F802F082FFDC
:100BF8000CF015FB002084F8340010BD9809002083
:100C080008B502F071F803490320BDE8084000F078
:100C1800DFB800BFED04000008B502F07FF8034913
:100C28000220BDE8084000F0D3B800BFC9040000A6
:100C3800074B4FF0FF3141F6FF72C3E90012054937
:100C48000022C1E900221F21C3E90212704700BF38
:100C580060000020D00900203F280CD801380B4B39
:100C6800C0F3421200F01F0053F8223023FA00F0BC
:100C780000F001007047FF2806D04038044BC0F34D
:100C8800421200F01F00EFE70120704760000020CB
:100C9800D0090020074B0146006849681A4603C27C
:100CA80040F48C2200201A6041F0107242F4FF6276
:100CB8005A607047600000200246034B0068516884
:100CC80003C30020704700BFD00900200246034B31
:100CD8000068516803C30020704700BF6800002007
:100CE8000138064BC0F3421200F01F0003EB8203E9
:100CF8009B6823FA00F000F00100704760000020B4
:100D08000A8870B595B2C67CC2F30E020488023612
:100D180002F118033444C35AA4B233442344013BB8
:100D2800B3FBF4F303FB0422438892B29342044BCF
:100D38008BBF2B40AB4313439BB20B8070BD00BFEE
:100D48000080FFFF4A1E062A08B50346084604D855
:100D58004FF4D1711520FFF74FFD094A914202D98E
:100D680040F2A311F6E711B903B1196008BD2BB120
:100D78001B680022C3E901211A1D1A600430F5E737
:100D8800FAFFFF7F10B5114B00EB41041A78638915
:100D9800B3FBF2F303FB0223013A1A44B2F5706F76
:100DA8000279807828BF00231A440B18B2FBF0F1AF
:100DB80000FB11215B1AB3FBF0F100FB1133134464
:100DC8006FEA43436FEA5343638110BDD80900209B
:100DD800024B03EB80035960704700BFD80900201D
:100DE800034B03EB80035868003818BF0120704795
:100DF800D80900202DE9F04F10F0070A85B0054604
:100E080004D040F26F111720FFF7F6FC534F044649
:100E18004FF0010B07F15406B146B04657F8043BB2
:100E28008DF80BA03BB101A898479DF80A30082B14
:100E380001D9F521E7E79DF80B1041BB05B13160F9
:100E48004F4506F10406E9D1002D6FD00022DFF8E6
:100E580010911427964689F8002058F827A0013FDA
:100E6800BAF1000F55D09AF804609AF802C0FF2E24
:100E780060D039460023481C38D19C44BCF1FF0F90
:100E88003FD90AB189F800E04FF49A71BBE79DF8A1
:100E98000AC04B1D60465A0004EB4303022838BFC2
:100EA8000220441E40422344BDF808406444CCF16B
:100EB800000C0340013C04EA0C04B4F5803F02D363
:100EC80040F205119FE775B19A1A3260917014804B
:100ED80082F803B09DF80C00107101984FEA104C8D
:100EE8001081A2F806C004FB0134A9E758F82100D4
:100EF80028B190F804B0B34504BF80781B180139B5
:100F0800B9E7DBB2E6458AF804303CBF5FFA8CFEED
:100F180001227B1CA1D10AB189F800E0142640F611
:100F2800FF6A58F82670B7B9013EFAD2601B05B0BF
:100F3800BDE8F08F0023E5E707EB410309F101095C
:100F48003846A3F80AA0FFF71DFF5FFA89F1BB78BE
:100F58008B42F1D8E8E74FF00009F6E7DC090020FA
:100F6800D809002038B54FF6FF7302460380184BA6
:100F780003EB8103986DA8B184780379B3FBF4F18E
:100F880004FB1133DBB2194600EB4105B5F90A50F1
:100F9800002D0EDB0131B1FBF4F504FB1511C9B2CC
:100FA8008B42F1D1002038BD6381BDE838400BF099
:100FB800D1BF00EB41046389C3F30E031380C278E9
:100FC800002AF1D14FF4E5711720FFF715FC00BF97
:100FD800D80900201C4B03EB810370B59C6D0546B6
:100FE80044B3030404D54FF4EC711720FFF704FC55
:100FF800014620460BF091FFFF28014604D0204609
:10100800BDE870400BF0A6BFA078B5FBF0F300FB7D
:101018001353DBB219460A1D04EB4206B6F9026007
:10102800002E09DB0131B1FBF0F200FB1211C9B24D
:101038008B42F0D1002070BD8B4201D00023E370B9
:1010480004EB42025580DAE7D8090020094B03EB8C
:101058008103014610B59C6D20460BF05EFFFF280A
:10106800014604D02046BDE810400BF073BF0020B5
:1010780010BD00BFD8090020F8B5104B074603EB98
:10108800810301469C6D20460BF047FFFF2805466B
:1010980011D0E288238953EA024606D00146204649
:1010A8000BF058FF01463846B04720462946FFF75F
:1010B80069FE0020F8BD0520FCE700BFD809002024
:1010C80038B50E4B0446827903EB8203986D08B954
:1010D800052038BD8278E1799142F9D24B1CE37141
:1010E80000EB41035D89B3F90A30002BF3DBA580DF
:1010F8000BF030FF20600020EBE700BFD80900208C
:1011080070B5044610F003000E4603D04E21182097
:10111800FFF772FBFFF716FE054624B10348314678
:101128000460FFF70FFE284670BD00BF840A002048
:101138002DE9F14FDFF870B01E4607460D46DBF883
:10114800003090469DF828A09DF82C901BB960218E
:101158001820FFF751FB5246092140460BF061FD6C
:101168004A4684B2092130460BF05BFD81B2DBF8B8
:10117800000021440BF0A5FE386018B9286001B0C2
:10118800BDE8F08F04445346414609222C60386874
:101198000BF00AFD4B4609223146286801B0BDE82C
:1011A800F04F0BF001BD00BF840A002070B50E4659
:1011B80004460BF049FD054630460BF045FD044B4F
:1011C8002A1821461868BDE870400BF09FBE00BF82
:1011D800840A0020024B186808B10BF066BE7047FD
:1011E800840A00201F2AF8B5044613460ED8920038
:1011F800033222F00303B3F5803F2DD2184DACB172
:10120800A00710D068210920FFF7F6FAFF2B4FEA54
:10121800420204D9FF339A42A8BF1A46E8E77C2A5B
:10122800B8BF7C22E4E729706C602B8122F00302AE
:1012380028230127120403FB01F06B680025120C18
:10124800EEB2B14200D8F8BD14B126181F705E6026
:10125800104401352833F3E74FF0FF30F3E700BFC0
:10126800880A0020154A002170B553681578C8B25D
:10127800854203D8BA210920FFF7BEFA1C46184652
:10128800013114F8286B0EB92346F0E70021997054
:1012980001241289996103F126055C709208D961CD
:1012A80003F11E04596824F8022FA54243F8041FCD
:1012B8001144F8D100234361037070BD880A0020EF
:1012C8000A4B1B89B3F5FF7F4FEA930006D25A08F1
:1012D8009B1A9BB2984238BF18467047B3F5EE6F19
:1012E80001D8FF22F4E740F27263F3E7880A00208E
:1012F8004B782DE9F04106460C4602F0040702F04F
:10130800FB05E3B1A5BBFF23A3707B0804EB5707DC
:101318003A7D032A02D1022D18BF0133E2180121B8
:10132800117503F10C01002204EB830324F811204A
:101338005B68A27030463360B280BDE8F081002D52
:10134800E1D1012301F11E028D6120464B7004F1A9
:10135800260C1A4BCD611B8949689B0822F8023F6D
:10136800944540F8041F1944F8D100236361CAE783
:10137800D1F8048014220021A01861700FF055FFE5
:101388000E4B1B89B3F5FF7F0FD25A089B1A9BB2ED
:1013980008EB0301C4F804802384A1606284C4F8C4
:1013A8000C80A3842161E284ADE7B3F5EE6F4FF0C2
:1013B800FF02EBD940F27263EAE700BF880A002017
:1013C8002DE9F84305460C46F720052191460BF018
:1013D80028FC061E21DB1DB906FB04F0BDE8F883D6
:1013E80015F0030703D098211920FFF705FADFF855
:1013F8003080C8F81050A8F81460BBB29C42EBD9F2
:10140800B8F814504B46D8F810000522F72107FB0E
:10141800050001370BF0C8FBEFE74FF0FF30DDE7C1
:101428009C0A002007B5CDE900230B460349024674
:10143800081D0BF0CEFE03B05DF804FBB40A0020D3
:1014480013B5064CCDE900230B46024604F108010A
:1014580004F10C000BF0BDFE02B010BDB40A002070
:1014680008B54B1E032B03D923219020FFF7C4F99D
:101478000028054A0CBF05230C2303EB8103053321
:1014880023F00103137008BDC40A0020124B012287
:101498004FF0FF3000215A60C3F80803C3F8001565
:1014A800C3F804255A6040F6FE72C3F808034FF4E7
:1014B8008060C3F8001503F560330849C3F80825B0
:1014C800C1F88800BFF34F8FBFF36F8FC1F8880151
:1014D800C3F80825704700BF00A0045000E100E0F1
:1014E80002680020014B1A60704700BFC80A00203C
:1014F800014B1B68184700BFC80A0020024B186838
:10150800003818BF01207047C80A00200A4606485C
:101518009C2302F8033BC368C1F803300369536096
:1015280043699360704700BFCC0A0020024B5A8C75
:1015380002435A845B6A1847CC0A0020014B0021F9
:101548005B6A1847CC0A002070B51A4C0546A36A96
:1015580093F8A8604EB1012807D1638C1A0704D507
:1015680094F82C300BB1012070BD0129FBD8236BF6
:10157800284698470028F6D094F834000028F2D17D
:101588001EB9012D0BD03046EEE7002DECD1638C4F
:101598009B0704D594F82C0080F00100E4E7608CE8
:1015A8000028E0D194F83530002BDDD194F83600CE
:1015B800F2E700BFCC0A002010B5154C08F0BEF9C0
:1015C80008F0CEFC208FFFF7B9FF237E63B12246D7
:1015D800104904F1190052F80C3BE360636853604A
:1015E800A36893600DF057FC218FA06A03F0C2F93D
:1015F800A36AB3F8AA0003F037F9E36B94F8341040
:1016080094F83A009847002384F8403010BD00BF92
:10161800CC0A002015150000034B93F840300BB19D
:10162800FFF7CABF704700BFCC0A002070B5204C36
:101638000646636DA56A63644FF4817394F8580095
:10164800A4F848302B7D95F8211100EB83002EB9C2
:10165800FF2803D195F820318B4201D007F018FEFE
:101668002B7DFBB1E06D08F0A7F8E16D606C08F028
:10167800FDFB66B995F82131033B012BB5F8E43041
:101688008CBF00202820184480B208F0E3F8B5F891
:10169800E00007F0BDFD002008F01AF9022384F8E5
:1016A800403070BD606C08F087F808F059FCE0E73E
:1016B800CC0A002008B5094B93F84020022A04D030
:1016C80040F257312720FFF797F8DA7A42F0010203
:1016D800DA72BDE80840FFF76FBF00BFCC0A0020F0
:1016E8007FB50023012200F180010393CDE9043284
:1016F8000A4B93F85820029200F1900201929B6ADB
:1017080093F8A830003B18BF01230093D0E91E23AB
:10171800022008F0D5FA07B05DF804FBCC0A0020D7
:101728002DE9F041264C06460F4694F84030012B2F
:101738005FFA83F804D040F60E112720FFF75CF813
:10174800A56A2B7953B1002104202971FFF7EEFE19
:10175800A36A93F8A8300BB185F805802B7A052B7E
:101768000ED118490220FFF7E1FEA36A93F8A830CA
:1017780033B1A36E1B789A1E5342534184F82C3020
:101788001EB1BDE8F041FFF717BF002FF9D0314671
:101798003046FFF7D9FE0028F3D12B7DA46A13B198
:1017A8002846FFF79DFF94F821210120B4F8E210A4
:1017B8000FF064F80020BDE8F041FFF737BF00BF25
:1017C800CC0A0020340B00207FB50023012200F151
:1017D80080010393CDE90432FB23029300F19003C7
:1017E8000193084B9B6A93F8A830B3FA83F35B091B
:1017F8000093D0E91C23042008F062FA07B05DF8D2
:1018080004FB00BFCC0A00201E4A10B5146E4178B4
:101818002378C90003F0F30301F008010B43817832
:10182800890001F004010B43C178090103F0EC03BE
:1018380001F010010B43017801F003010B43237001
:10184800B2F86C3063700223116EA2F86430047928
:101858000B786001012C23F0200300F0200043EAFC
:1018680000030B700CD1936A93F8BA2093F8BB303D
:10187800032A03F01F0308BF002243EA82138B7078
:1018880010BD00BFCC0A0020F7B5184C0646256FDE
:101898000DB1E36C23B940F6C6012720FEF7ACFF73
:1018A800B4F8503001F003012F466B702B7823F009
:1018B80003030B4307F8033B3846B4F85020E16CA8
:1018C8000AF076FE0DF1020201A9606F6564E76413
:1018D8000BF0E1FA01980BF0CCFA0122B4F85010A1
:1018E8003060606F0BF070FA03B0F0BDCC0A0020D6
:1018F8002DE9F04FB04C87B0A76A97F8201150B97E
:101908003A7D94F8583003EB8203FF2B03D197F804
:1019180021318B4202D0FF2007F0BAFCD4F828808E
:10192800002398F8082004938DF814308DF80930B6
:10193800ADF80A30062A00F2ED80DFE812F0070061
:10194800EE00C100C100EB00DB00DB00A8F844306A
:101958000DF10A0194F87B3003A8A8F81031ADF80E
:101968000A3001F03BFC40B1039E36B1012384F8F4
:101978007C30052388F80830B8E0A36A93F85550FE
:10198800002D40F09A800DF109020DF10A01D4F8FA
:1019980080000BF080F90646002800F08E809DF844
:1019A80009A0BAF1000F1ED00146D4F880000BF050
:1019B8005CFA0BF05EFA0368D0F804B0814653EA8B
:1019C8000B0256D1002389F8003089F8013089F8D4
:1019D800023089F8033089F8043089F8053089F82D
:1019E800063089F80730BDF80A30002B52D10123A0
:1019F80088F80830012384F87C30BDF80A30266660
:101A0800A4F86C3003B1F31CA36698F8092098F881
:101A180008908DF81120B9F1020F98F80A208DF876
:101A2800122008D0A9F10509B9F1010F8CBF4FF0B8
:101A380001094FF003098DF81090002D71D1B9F10B
:101A4800030F02D11B78022B11D0D4F880000BF0C1
:101A58007AF9002840F0A080B9F1030F00F09E80C9
:101A680001F0D8FB80F00105EDB28DF8135000228B
:101A780067E001930FF048F8019B83427BEB01017B
:101A8800A0D20023012255464C4EADF80A3088F802
:101A98000820B4E79DF809301BB93380B3700323DD
:101AA800A6E7337803F00303012BF8D0022388F864
:101AB8000830002388F816309CE74FF0000AE0E76A
:101AC800B8F810310DF109020DF10A01D4F88000BF
:101AD800ADF80A300BF0DFF8064620B940F2C451E1
:101AE8002720FEF789FE012384F87C30BDF80A30F0
:101AF800002584E70DF10A0103A801F06FFB08B186
:101B0800039E16B940F2D351EAE7012384F87C30EA
:101B180006232FE740F2DD51E2E70025274E2B464A
:101B28006DE70025B9F1030F8DF813509FD1A36E0F
:101B38001B781B2B9BD1012108F1BA0007F0F0FBA1
:101B4800012205F00105FB7C04A88DF8142084F817
:101B58003550154623B3B4F86C300BB3FFF754FE79
:101B6800E06D07F029FE2A46D4E9171007F0AEFF0A
:101B780018B9D4E9170108F017F9B7F8E20007F027
:101B880047FB012007F0A4FE012384F8843084F881
:101B9800403007B0BDE8F08F0125C3E70546C6E72A
:101BA800FFF732FE206E07F007FE08F0D9F9294644
:101BB800206E0EF070FEE0E7CC0A0020440B0020F7
:101BC8002DE9F04F002285B0B34C06460191D4F8B8
:101BD80028B0CDE9022294F840200BF1A803022A8C
:101BE800D5B2009304D040F6AF112720FEF704FECB
:101BF800626C032092F800A0517802440AF00308AE
:101C0800A4F84800A4F85010E264002E00F04E81B9
:101C180019B1606F0BF0B8F8014621679BF80910FD
:101C2800228F013142F40072C9B2228781EA9A02F6
:101C3800D0075DD49BF80820DAB1032A8BF8091085
:101C480011D8012A08BF0125BBF84420022DABF8A2
:101C5800462012D102A9D4F880000BF03EF8C0B992
:101C680040F2D671C1E7053A012A04D940F2B471AD
:101C7800BBE70425E8E70325E6E7032D10D101F0CB
:101C8800BBFA10B94FF4FC61AFE700210820FFF759
:101C98004DFCDBE91C21013241F10001CBE91C219B
:101CA8000021A26A8BF8081092F8A8203AB19BF894
:101CB800052022B110208BF80510FFF737FC228F82
:101CC8004FF0000942F4006222879BF81420CAF3FF
:101CD800C005D2B1B4F85020BAB108F05FF90328B2
:101CE800FBD0022806D1FFF767FC05B0BDE8F08FEE
:101CF800B146EAE748B99BF80A2002F00102AA4275
:101D08002DD1012384F83A30EDE79BF80A2002F040
:101D18000102954223D1B4F850506DB308F1FF3257
:101D2800012A29D8228F9BF8147042F48052228706
:101D380007F084FA032894F8852006D1002F0CBFF9
:101D48001F211B218A4228BF0A46B4F8501091422D
:101D580008D994F8342042F0100284F83420002581
:101D68002F4633E0226F002AF9D094F886201AB162
:101D78002020FFF7E3FBF2E79BF80A20B8F1030FF6
:101D880002F101028BF80A2011D1228F0120434968
:101D980042F480528BF804002287FFF7C7FBDBE987
:101DA8001E21013241F10001CBE91E21D7E708F1DC
:101DB800FF32012A76D8002DD1D037460025DBE93D
:101DC8001E21013241F10001CBE91E21226F002AB8
:101DD80040F09480B4F85020B2FA82F2520902EA34
:101DE8001A12019B84F83620002B00F0898007F036
:101DF800A5FD002F40F0A4800125228F520606D4AD
:101E08004020FFF79BFB228F42F040022287B9F166
:101E1800000F11D0BBF806304BB9A36A93F8A8306D
:101E28002BB1B4F80530B4F80720134304D0B4F844
:101E380009300133A4F80930002E00F08680B4F888
:101E480005300133A4F80530002384F8873014489E
:101E580002F0F8FC029830B10BF00BF80022027285
:101E6800009901F061FF039B33B100221A720C2222
:101E78000099039801F026FF002D7FF434AF238FDB
:101E88001B063FF532AF8020FFF758FB238F43F046
:101E98008003238729E700BFCC0A0020180B002005
:101EA800F40A0020002D7FF47AAF58E79BF814203D
:101EB8000AB108F08DF894F88720013284F8872059
:101EC800228F42F4806222879BF82121033A012A5B
:101ED8000CD807F0B3F903280CD1B4F850500027F8
:101EE8001B2DB94694BF002501256FE701F054FF6B
:101EF8000028EED100252F46A94667E701226EE7A4
:101F080094F887100120FFF71FFB00287FF46FAFBC
:101F18009BF8132012B15846FFF756FC00209BF897
:101F28002021BBF8E0100EF0A9FC0020FFF7E0FC30
:101F3800002F3FF462AF414603A8FFF7A5FC5CE71A
:101F4800414603A8FFF7A0FC56E7B4F80730013371
:101F5800A4F807307BE700BF064B10B593F8402084
:101F680002F0FF0422B91C7602F0FCFC204610BDEA
:101F78000C24FBE7CC0A0020094B0A4A10B51A606A
:101F8800FFF7EAFF20B14FF4B1712720FEF734FCC8
:101F9800054C00F019FF606500F01AFFE06510BD00
:101FA80000170020E8210000CC0A0020F8B5784C82
:101FB800054694F8406006F0FF0016B909B102B171
:101FC80023B94FF420712720FEF716FCE3639DF830
:101FD8001830226384F8863084F8340084F8870047
:101FE80084F83A0084F884006084208784F83500F7
:101FF80084F8360084F87C0084F82C002066A066FB
:10200800A4F86C006064E064A4F85000C4E9091501
:1020180007F0A8F907F0A4FF95F9280107F006FAD8
:10202800D5F8D460D5F8CC0007F006FA304607F0AA
:10203800A7FB95F8250007F009FAB5F8E030622B00
:1020480003D9B5F8E230622B01D807F0E7F8A36AA4
:1020580093F8A860002E40F083800DF01FFC95F8DF
:1020680020214C4B4FF47A7153F8223003F5FA7360
:10207800B3FBF1F352331918304607F0F5F9464B24
:10208800186807F083FBD5F8C030C4F88030D5F85D
:10209800C4306367AB7B243B072B69D9EB7B243BBC
:1020A800072B65D9B5F8F230B5F8F80095F8201186
:1020B800984228BF1846042908BF03210CF0BBFA30
:1020C800034695F8F400984228BF184695F8F03072
:1020D80080B2984200D3C3B295F8211105F1E80007
:1020E80084F87B300CF055FF95F821112F7D0329DA
:1020F800B5F8FC6008BF04210CF09DFA0FB9043054
:1021080080B2864228BF0646F6B284F8856001F0A0
:1021180043FE28B101F046FE864238BF0646F6B2B5
:10212800A36A84F8586093F8A8301BBBEB7C13B102
:102138002846FFF749FB0120FFF7DAFB002323605D
:102148006360A360EB886380B5F8AA30238095F8B4
:1021580025302371D5F824310BB101221A60F8BD5E
:102168000DF09CFB95F8212100F17101012084E715
:102178001B23B1E72B7D13B12846FFF7B1FA0120E5
:10218800FFF754FAA36AD3F8F00107F031FBD5E75B
:10219800CC0A00205C96020000170020014B93F83F
:1021A80084007047CC0A0020054A138F92F87C00FF
:1021B80003F4805110B113F4C06F00D1080B7047BD
:1021C800CC0A0020024B93F83900C0F3C0007047D6
:1021D800CC0A0020014B93F887007047CC0A0020F6
:1021E800BD160000C91B00002917000021160000B9
:1021F800343270B5054692B20C461E460AF0E2FE2D
:1022080025B1034A556014745674147070BD00BF2C
:102218006C0B00200138C0B2032808B504D94FF46C
:102228003F710620FEF7E8FA014B185C08BD00BFB5
:10223800909302000138C0B2032808B504D94FF4BE
:102248003F710620FEF7D8FA014B185C08BD00BFA5
:10225800AD9302000138C0B2032808B504D94FF481
:102268003F710620FEF7C8FA014B185C08BD00BF95
:10227800109402000138C0B2032808B504D94FF4FD
:102288003F710620FEF7B8FA014B185C08BD00BF85
:1022980009950200014B1868704700BF3C0C0020EC
:1022A80008B5034610465A1E032A10D84A1E032AA8
:1022B8000DD8084A012951700CBF00210A2110715C
:1022C800937091721946FFF7CBF8002008BD6FF0A4
:1022D8001500FBE706010020074A537A40B143F096
:1022E8000403002953720CBF00230723537170475E
:1022F80003F0FB03F5E700BF0601002040EA4100B8
:10230800014BD870704700BF06010020304BF0B574
:10231800B0F86C700C461146DA88B0F86A6085B07F
:1023280097421D8928BF1746964228BF16461B2E7E
:102338002ED0B5F5A47F2DD040F6480301AA9D42C2
:1023480028BF1D460AF0A4FFBDF80A30BB4228BFCB
:102358003B46E380BDF80C30AB4228BF2B462381B7
:10236800BDF80630B34228BF33466380BDF8083055
:10237800AB4228BF2B46A380FF232370E3881B3B77
:102388009BB2E02B08D940F202513920FEF734FA0B
:102398001B2FCED105B0F0BD63881B3B9BB2E02B51
:1023A80002D940F20451F0E7238940F64812A3F518
:1023B800A4739BB2934202D940F20651E5E7A38881
:1023C800A3F5A4739BB29342E4D94FF4A161DCE76F
:1023D800480C0020F7B5002304460E461746CDE901
:1023E80000336846FEF76CFE08B100201AE0009D35
:1023F800A542F6D0304605F1AD030AF043FF394651
:1024080095F8AC200CF079F80028EAD005F1B4036F
:1024180095F8B32004F1B40194F8B3000CF06DF80A
:102428000028DED003B0F0BD054A516A02F11D0351
:10243800127F11F8030BC0F380100CF05EB800BFD8
:10244800B811002010B503210020FEF7FFFD044657
:1024580070B90321FEF7BEFD044620B940F21E31D3
:102468003920FEF7C9F9034B93F970100DF052FDAE
:10247800204610BD480C0020014B5888704700BF0B
:10248800480C0020044BD87BC0F3400080F00100CA
:1024980000F00100704700BF480C002038B50CF070
:1024A8002BF8002501F054F8214C00F0F1FC0CF059
:1024B800CAFC02F035FA01F045FA06F03FFA0120AD
:1024C80000F08AFC1B4B1C4A29461D604FF01B1369
:1024D800A4F86850A58184F83650E573C4E9002350
:1024E8004FF4A4731022A3604FF479432361134B74
:1024F80058681B89A06304F14000A3870EF095FE7D
:10250800012342F2107204F15E0084F840306375D2
:10251800C4E911220EF04EF904F150000EF070F9E2
:102528000022002384F88050C4E91E2338BD00BF70
:10253800480C00200417002003021B00AD93020082
:10254800064B41F64C521B211A629973C3E90622C5
:1025580041F288325A62FFF7A1BF00BF480C002041
:10256800F7B53A4D00F1A8070446AB69C0F8E83062
:102578002B7C003B18BF012380F82931344BC0F86D
:10258800C83038460DF096FA064600F069FC830616
:10259800A97B53BF1B236B88AA881A46A4F812315B
:1025A8002C4BA4F814211B6884F8F010A4F8F260EE
:1025B80023B194F92811B4F8AA009847264B1B6850
:1025C8001BB12649B4F8AA009847254938460BF0AC
:1025D80003FE0123A4F8DE30224B1B681BB1002147
:1025E800B4F8AA009847204B1B681BB10021B4F827
:1025F800AA0098471D4B1B6813B1B4F8AA00984766
:102608001B4B1B6813B1B4F8AA009847AB8804F1B8
:10261800C0006A8869780333033201919BB2297834
:1026280092B2009104F1C401FEF782FDD4F8C030E3
:1026380023B940F2DB413920FEF7DEF8D4F8C43084
:1026480013B940F2DC41F6E703B0F0BD480C0020B6
:1026580000093D00141700200C170020700C002002
:10266800520C002024170020181700201C170020E7
:10267800201700202DE9F34104460E460DF08BFC8F
:10268800002800F0968020460DF0FAFD40B1B6F81B
:102698000130013B7F2B03D9122002B0BDE8F08145
:1026A80020460DF0F1FD08B90C20F6E720460DF0A4
:1026B800D5FA0028F8D120460DF016FC80460028EF
:1026C800F2D1204604F00CFC0028E5D042F2107349
:1026D800B6F80170F17820465F430DF0BCFD042187
:1026E8003078FEF7B3FC054606213078FEF7AEFCDD
:1026F8002DB140B141F678213920FEF77DF818B3A5
:10270800054690F8E5802C4E3368EBB140352846F5
:102718000DF0ADF8C0B128460DF09AF8A0B9B8F19F
:10272800000F07D0254B28461B68984760B141F633
:102738008C21E1E72249424633682846096A9847CE
:1027480010B141F69121D7E720460DF091FD0146E1
:1027580038B93A46204602F0C1FD40B341F69A2105
:10276800CAE702210DF10600FEF7FCFB054608B991
:102778000D2092E7BDF806100BF0F4FF294620461D
:102788000DF0A9FD2846FFF7EBFE3A4629462046FC
:1027980002F0A4FD024610B141F6B621ACE7084BA1
:1027A800DB6E23B105F5977105F1A8009847002065
:1027B80073E7422071E700BF0817002010170020B8
:1027C800480C0020024B1B6803B118470C207047C7
:1027D80004170020034B5A8802801B78837000205E
:1027E800704700BF480C002073B5837806461A2B43
:1027F80008D8042B04D9334A22FA03F3DB0705D49B
:1028080012251AE0292B01D03B2BF9D13088B0F5DD
:10281800706FF5D269460BF074FF88B9009B93F886
:102828002C2102F0FF05C2B9B27883F82D21FF22CE
:1028380083F82C2168460AF013FF284602B070BDC1
:1028480009213088FEF702FC0446002837D001A988
:10285800B0F8AC010BF055FF08B10C25EDE70821E5
:10286800B4F8AE01FEF7F2FB20B940F63901392081
:10287800FDF7C2FF03781BB994F8C831032BECD1DC
:10288800019B93F84221002AE7D194F8F02102F045
:10289800FF05002AE1D1B4F8B021A3F8442194F847
:1028A800B82183F84621027D83F84721B27883F85E
:1028B800482184F8F021FF2283F84221BDE7022550
:1028C800BBE700BF200038040188A1F11B039BB2BD
:1028D800E02B0CD8428844F24810A2F5A4739BB2AE
:1028E800834204D8034B0020D9801A8170471220F4
:1028F800704700BF480C002038B50278447802F0D1
:10290800010302F0020254EA030101D1112038BD8B
:10291800BAB98578002DF9D0002B18BF002400E043
:102928001D4620460AF03FFD0028EFD028460AF051
:102938003AFD0028EAD0054B00209C72DD72988190
:10294800E5E7002BECD000242546EAE7480C0020F8
:1029580013B5008801A90BF0F6FE044620B90198CA
:1029680090F83E311BB13A24204602B010BD90F8D1
:10297800603003F0FF04002BF5D190F857309B0727
:1029880006D1FF2380F83E3101A80AF069FEEBE783
:10299800024958300CF07FFAE6E700BFBBF70000A9
:1029A800F7B5067804460F46EF2E03D912263046AF
:1029B80003B0F0BD90F901204378002AF6DB827855
:1029C8009207F3D113F010001DD19D0603F0030206
:1029D80016D5002AEAD11907E8D42179E278E579F1
:1029E80042EA0122617942EA0142A17941EA0521DC
:1029F800257A41EA05418A42D8D81F2A12D8D5E754
:102A0800032AE8D1D2E713F0600FCFD103F0070211
:102A1800052A05D003F00F010D22CA40D207C5D5FB
:102A28001D07DAD5627A013A062ABFD8A27A032AA4
:102A3800BCD813F0040302D1023A012A03D8E27A7F
:102A4800012AB3D813B9A37C032BAFD8237DF8B1DF
:102A5800012BABD1237E012BA8D818B36378D907F3
:102A680002D500F077F920B36378227D03F01803CC
:102A7800082B2ED1022A1CD103213046FEF7E6FA94
:102A8800054660B30DF0EAF8002834D00C268EE72E
:102A9800022B8BD0A37D013B022B87D8E37D0F2B24
:102AA800D8D983E700F0E6F9820707D4237D022B03
:102AB80001D111267BE7A37D022BFAD000F0DAF9C9
:102AC8004307CBD4237D032BF3D0A37D032BC5D1A0
:102AD800EFE7022AD0D0237F002BCDD0E9E70321EE
:102AE8003046FEF777FA0546002843D0224B93F983
:102AF80070100DF00FFA002130460DF027FE28BBAC
:102B080028460DF0B2FB21463870E07428460DF0D7
:102B180094FAE37E0646002B3FF449AF00287FF481
:102B280046AF0246E96C6846FEF7E2FB3246E86CBF
:102B380001210AF09CFAE96C68460422FEF7D8FBEA
:102B480032463146E86C0AF092FA30E740300CF031
:102B58008EFE0028D4D0637813F0330F7FF426AFAD
:102B6800A67D2846296A0DF0A2FBFFF763FB864283
:102B7800C6D08BE707261AE7480C002030B5027943
:102B88008BB00346042A4FD84088B0F5804F4BD805
:102B9800264900241144ADF800408DF808408A7C8D
:102BA8004D7B42F010028DF8244042EA4502CD7D6B
:102BB800097F42EA850242EAC102694602F01F0221
:102BC8008DF80020BDF80020ADF809201A888DF88E
:102BD8000E00000A8DF80B20120A8DF80D408DF8B2
:102BE8000C208DF80F008DF810405A7BD3F80700A1
:102BF8008DF811205A79059002A88DF812209A793B
:102C08008DF81320B3F80B209B7BADF818208DF8B6
:102C18001A307F238DF81B304FF00113CDE90734AC
:102C2800FFF7BEFE0BB030BD1220FBE7AD930200EC
:102C38000278034672B1427862B142881A2A09D9E9
:102C480082881A2A06D90068034A106000209B88E7
:102C58009380704712207047480C002002680020BB
:102C6800014B9A61704700BF480C00200378A3F11C
:102C78000A02112A9BBF024A002012209373704750
:102C8800480C0020014B587400207047480C002065
:102C9800014B987400207047480C0020024B1B68B9
:102CA80003B11847112070472817002008B50520E0
:102CB80000F09EF805F0F6FD014B024ADA6608BD01
:102CC800480C00201523000008B50122054B1A7195
:102CD80004F0F0F804F07CFF0BF064FABDE808405B
:102CE80000F018BFCC0C002010B50C20084C00F0E8
:102CF8007FF8282000F07CF804F1080005490BF063
:102D080008FA04F10C000449BDE810400BF001BAC0
:102D1800CC0C0020D0000020D800002010B5094CB1
:102D2800094904F108000BF0F4F904F10C00074913
:102D38000BF0EFF904F110000549BDE810400BF065
:102D4800E8B900BFCC0C0020E0000020E80000201B
:102D5800F0000020014B1879704700BFCC0C002010
:102D680038B5074C0D4600F0B1FEA06825600BF0A1
:102D7800C8F9FFF7E5FB01F04BF80123237538BDCF
:102D8800CC0C0020014B187D704700BFCC0C0020F4
:102D980010B50C4CE0680BF0B4F920690BF0B1F9F0
:102DA800FFF77CFB202000F037F82F2000F034F8E4
:102DB800262000F031F8292000F02EF80023237592
:102DC80010BD00BFCC0C002000487047E10C00206B
:102DD80000487047E30D0020014B83F81902704743
:102DE800CC0C0020014B93F819027047CC0C002042
:102DF800C208074900F0070001238340885C0343A9
:102E08008B5404490B78934238BF13460B707047B4
:102E180078000020E60E00200F4B012110B503EBCF
:102E2800D002C40800F0070001FA00F0195D21EA99
:102E38000001195509490B78A34205D1002012F861
:102E4800014914B100B10B7010BD002BFAD0013B41
:102E58000120DBB2F3E700BF78000020E60E002077
:102E6800014BD3E900017047780000200048704703
:102E780080000020054B1868C0F3C022C0F3002072
:102E8800400040EA820040F00100704778000020CE
:102E980008B507F009FE0023074A32F823108142DB
:102EA80005D302EB83029378044A137008BD0133FB
:102EB8000C2BF2D10023F7E7E0930200E70E002085
:102EC800024B1878072828BF07207047E70E002014
:102ED8002DE9F04F046898460F4685B094F867309E
:102EE800164604F1A80994F80FA043EAD303D907BA
:102EF80002D4BAF1260F5FD194F8A850002F55D10B
:102F0800FFF7B8FF8DF80B00002E51D1FFF7B2FF85
:102F18002B4B8DF80C00D3F800B0BBF1000F0CD090
:102F2800AAF1260228464946534253410DF10B02A5
:102F3800009303ABD847054630B99DF80B3013B161
:102F48009DF80C0028B90925BAF1260F2AD10020CE
:102F5800034694F8292132B19B0700F002002DD5D1
:102F680060B302200346FF2284F8392194F83821FF
:102F780002F0FF05F2B99DF8382003A984F83B0157
:102F8800484684F8382184F83A31A4F83C818DF811
:102F98000C708DF80D60ADF80E800BF01DF9002354
:102FA80084F83931284605B0BDE8F08F3846A9E7DE
:102FB8003046ADE73A25F2E71A25F3E70925F1E7A8
:102FC8002C17002010B50468B4F8AA3084F88411CE
:102FD800A4F8853194F82001FFF73CF984F88701BB
:102FE80094F82101FFF736F9044984F8880104F2BE
:102FF8007B10BDE810400BF04EBF00BFCBE10000D6
:103008002DE9FF4704688946054694F80EA0AAF101
:10301800250359425941052A35D1E37B272B37D15E
:1030280004F10F0799F8018099F8026008F0070881
:1030380006F0070608F1FF33721E03EA0803324060
:1030480013431FD130460BF05FF960B394F8203179
:10305800984228D094F83A21164213D0BAF1250F95
:1030680021D094F8192116421DD10138013B474A55
:10307800C0B2DBB21044032B00790FD81A4413797D
:10308800834210D9284604B0BDE8F0470BF004B9D4
:10309800BAF1250F77D104F10E07C3E74FF4DD71BC
:1030A8000620FDF7A9FB40460BF02EF940B194F835
:1030B8002131834204D094F83B3118EA030FE1D060
:1030C800B9F8039003AB20463246009341464B467D
:1030D8000BF027F92C6878BB94F83831012B28D1EC
:1030E800E38804F5367294F82011B4F83C010BF02B
:1030F80079F90646D0B901462846FFF763FF2B68E1
:1031080083F838613E702B6803F10F02974201D1B2
:103118000022DA732B6803F10F0297422FD1284659
:103128000CF08FF8002004B0BDE8F0872C23A373BF
:10313800E9E784F83801E6E7E388A4F8D89209F1CA
:10314800FF39A9EB030947F6FD731FFA89F9994579
:1031580006D92823284684F8313001F031F9D9E717
:10316800E37B0D2B02D00A3B012B01D82A23F1E780
:10317800BDF80C30A4F8DA3229233B70CAE70022E4
:1031880083F84E20CEE70220CDE700BF109402005E
:10319800034B002283F85020A3F85220704700BF49
:1031A800EA0E0020044B93F85020012A1ABF03604E
:1031B80001200020704700BFEA0E0020064B02469F
:1031C80093F8501001291BBF0120A3F852200020BA
:1031D80083F85000704700BFEA0E0020054B0246F6
:1031E80093F8500028B1136011B1B3F852300B8036
:1031F80001207047EA0E0020054B002293F850008A
:10320800A3F8522010B1012083F85020704700BF66
:10321800EA0E0020034B93F85000B0FA80F0400902
:10322800704700BFEA0E002050B90A4A0120134631
:1032380003F8010B0868C2F801008A889A80704771
:10324800012805D1034B0A68D8719A608A889A8147
:10325800704700BF3E0F002050B90B4B187888B15B
:10326800D3F80120B3F805300A6001208B8070473D
:10327800012806D1044BD87920B19A689B890A6045
:10328800F3E70020704700BF3E0F002010B9044B41
:1032980018787047012806BF014BD879002070477D
:1032A8003E0F0020F7B58A8800238DF80600ADF898
:1032B800042008680B4A8DF807300146147802F597
:1032C800A872019DD8B2844201D8082007E052F8BC
:1032D800087F01335668AE4208BF8F42F2D103B06F
:1032E800F0BD00BF500F0020084B0146002230B54A
:1032F8001C7903F20713D0B2844201D8082004E0F5
:1033080013F8015F01328D42F5D130BD500F002016
:103318002DE9F8432B4C0746257904EB000E013DB7
:103328009EF80861EDB2854225712BD04FEA051849
:103338004FEA001C08F108030CF108090CF1880C8D
:103348002344A144A4440FCB89E80F0008F1880363
:1033580023440FCB8CE80F00631993F808218EF8EB
:10336800082106225543574305F5887507F58877E0
:1033780060596219E119E05192888A8093F84031C6
:103388008EF840313046FFF7AFFF082818D1237870
:10339800013BDBB29E42237012D02B3306F12B0285
:1033A80004EBC30304EBC20293E8030082E80300C2
:1033B8002078FFF799FF08281CBF241884F80861B3
:1033C800BDE8F883500F0020F0B5254D89B095F879
:1033D800984105F299116846224609F0E9F8214614
:1033E80068460BF0A8F80446B8B300EB400102A801
:1033F800C9B2FEF77DF8631E95F8A1610124DBB21E
:1034080095F8981105E0721CB2FBF1F001FB10224F
:10341800D6B206F120020DEB020010F8202C002A8B
:10342800F1D103EB430100F8204C06EB46022031B2
:103438002A44694411F8187C82F8A27111F8177CA3
:1034480011F8161C82F8A37182F8A411013BAA197D
:10345800DBB282F89941FF2BD2D109B0F0BD00BF91
:10346800500F002070B5064688B00C46002A4ED092
:10347800294A92F8A131D01890F8991119B9FF2169
:103488002820FDF7B9F903EB43010133114491F802
:10349800A251E57091F8A35191F8A41125716171B9
:1034A800002180F8991192F89811B3FBF1F001FB13
:1034B800103382F8A13192F8C23123B9174902F5C5
:1034C800DD700BF0E5FC65790D220021684605F0FA
:1034D8003F0545F0400565710DF0A7FEE37804AAA5
:1034E80069468DF80F30304623798DF80D508DF8E8
:1034F8000E3004230DF0ECFD9DF81F3023709DF86D
:103508001E3063709DF81D30A37008B070BD032194
:103518006018FDF7EDFFD6E7500F0020D13300000B
:10352800044B1A79824286BF1B1893F85001002079
:10353800704700BF500F0020044B1A79824286BFA3
:103548001B1893F848010020704700BF500F002057
:10355800074B00224FF461711A701A7183F8C32166
:1035680083F8C421A3F8C61183F8C221704700BFAD
:10357800500F00202DE9F0478246894617469846A5
:10358800FFF790FE08280546064603D0FFF7ACFE75
:10359800082860D1324C2379072B5ED8082D15D125
:1035A8002678731C072E237003D96C212820FDF779
:1035B80023F906F12B02D9F8000004EBC20344F802
:1035C8003200B9F8042083F806A09A80257907F11B
:1035D80010026B1C29012371CB1D234412F8010D25
:1035E800BA4203F8010FF9D1873108F110032144D9
:1035F80013F8012D984501F8012FF9D12544102120
:1036080040460AF0DEFF102185F8480138460AF0E6
:10361800D8FF85F808612679002385F850013146DE
:10362800104885F840310AF086FF0128054607D87A
:1036380031460D480AF07FFF002818BF0135EDB26A
:1036480084F898510025284684F8A151FFF7BCFE5C
:103658002846BDE8F0871220FBE70720F9E700BFFE
:10366800500F002098100020A0100020064B10B525
:103678001879013840B2002800DA10BDC4B22046DB
:10368800FFF746FE601EF5E7500F0020014B83F858
:10369800C3017047500F0020014B93F8C3017047D6
:1036A800500F0020431E4AF2B7129BB293429DBFAF
:1036B800024BA3F8C601012000207047500F0020DC
:1036C800014BB3F8C6017047500F00200A4B30B5C4
:1036D8001C7984420ED9184490F808012B3003EB6A
:1036E800C004A5790D7053F8300010600120A3883C
:1036F800938030BD0020FCE7500F002002460748A9
:1037080010B590F8C34124B1017921B1083005F012
:103718003DF9204610BD0C46FBE700BF500F0020C6
:103728002DE9F74F2F4C9A468046894623798342E4
:1037380056D9231893F8485185F00105F9B193F843
:103748005031E3B945F002070135BAF1000F18D13D
:10375800FA070AD5062104EB0810524601FB084176
:10376800883001F58871FFF77DFEBB0734D504EB7F
:103778000810524649460830FFF774FE2CE02F46E1
:10378800E3E794F8A1614FF0010B002DE0D0A319F5
:1037980093F89911019399B90092DAB100F008FBF6
:1037A800019B06EB4601009A4FEA102C83F899B169
:1037B800214481F8A201000C81F8A3C181F8A40179
:1037C800013694F89831013DB6FBF3F103FB11661D
:1037D800F6B2DAE747F00407384603B0BDE8F08FE1
:1037E8000027F9E7500F0020074B1A79824209D9C0
:1037F8001A1892F848212AB9062202FB003000F56F
:103808008870704700207047500F0020064B1A79C7
:10381800824281BF1B1893F84001B0FA80F040093A
:1038280098BF0020704700BF500F0020F8B50E4623
:1038380007460621154630460AF0C3FE044670B115
:103848000C4B0022187903F23F13D1B2884202D8F8
:1038580001242046F8BD013203F8015FF5E731463F
:1038680038460AF084FE0828F3D0024B034483F854
:103878004051EDE7500F0020034B80F880101B6883
:103888000BB1408818477047301700200B2808B53F
:1038980004D940F229112920FCF7AEFF014B33F877
:1038A800100008BD18940200036830B50024D3F84E
:1038B800C80042F21075A3F84040A3F84640B3F898
:1038C80048404443B4FBF1F4A3F848404C1E05FBC0
:1038D8000242B2FBF1F2A3F84220094AB2FBF1F22C
:1038E8000132A3F84C209A8F05FB02445A6B5043CF
:1038F800B4FBF1F4B0FBF1F09C63586330BD00BF3A
:10390800005A6202054B1B7833B9054B1A681B79BC
:1039180002600371012070470020704718110020D1
:1039280088000020054BFF221A70054A01681160C3
:103938000179117100221A70704700BF1811002018
:103948008800002007B5064A10681279009068467A
:103958008DF80420FFF7E6FF03B05DF804FB00BF15
:1039680055AD02000346084671B13F2B0BD8074AF4
:10397800D35C03F07F02914205D08CBF0120002068
:1039880000EAD31070470120704700BF309402004E
:10399800FF230B7002234B7083238B70014B1B7822
:1039A800CB7070471C1100202DE9F84FD0F8048027
:1039B8000C46D8F81C60304609F045FA054620B98F
:1039C8004FF4AA711020FCF717FF0146304609F0A2
:1039D80048FAB5F800B082461FFA8BF717B94FF4CA
:1039E800AC71EFE7224B00F103091B68D3B998F8D3
:1039F800023098F803202370637802F00F02A4F8CD
:103A080002B023F00F03134323F0C00363709AF846
:103A1800003003F00303012B0FD0022B0DD04FF41D
:103A2800BB71CFE73A464946B8F8020098470546C1
:103A38000028DCD12846BDE8F88F6278304663F369
:103A48000512627009F017FA054610B94FF4C071F3
:103A5800B8E7FB2F02D940F28F11B3E73A4649463F
:103A6800201D08F0A5FD304609F05CF9E2E700BF2B
:103A78003417002038B5134C10220021201D0DF0FA
:103A8800D4FB0125257404F108031022002104F158
:103A98001400C4E901330DF0C8FB84F8205004F188
:103AA8001803094AC4E9053300236362A36284F852
:103AB8002C30C4F82D30C4F8313084F83530136018
:103AC800A36338BD1C1100203417002010B5084C22
:103AD8002378FF2B04D040F299111020FCF78CFEBC
:103AE80008F0D2FC2070BDE81040FFF7C3BF00BF4C
:103AF8008D00002010B5034C207808F0DFFCFF2370
:103B0800237010BD8D000020014B187808F0E6BC2A
:103B18008D000020014B024A1A6070473C170020B4
:103B2800B13900002DE9F341DFF88881054608F135
:103B38001407D8F80830D8F81840227A012A22D178
:103B4800D8F8382052B1137A1BB9BF211020FCF7DE
:103B580053FED8F83840C4B9002093E01A7A012AF5
:103B6800FAD01C46544AEFF3108172B650680068C8
:103B7800506001B962B6A34208BFC8F83840237A3A
:103B88001BB9EE21E2E73A46EDE7267AF6B20523BD
:103B98002372731E0B2B7ED8DFE803F07A062336D8
:103BA800773F4E3F3F3F3F6B636813B94FF4037154
:103BB800CCE72046294698470420EFF3108272B6D6
:103BC800237A052BD9B24FF0000369D12372D8F8B4
:103BD8003810A14201D1C8F83830002A45D162B660
:103BE80043E0636813B940F21521AFE72946204640
:103BF80098470346ADF80400C0B2C3F30723012B6E
:103C08003ED0022BD9D129E0636813B940F21D21B7
:103C18009CE7204698470020CFE7284B1B68002BDD
:103C2800F9D03246606829469847A6F10A0204206E
:103C3800534253415B00E4E763680BB9FE2185E713
:103C480086222A7001225988AA706A71002298690E
:103C5800A5F80310AA7109F065F80420D8F83830DF
:103C6800A34202D10023C8F8383000283FF461AFDE
:103C780008E0134B294620461B689847034668B955
:103C8800267298B102B0BDE8F0814FF415715DE776
:103C980040F257215AE740F25A2157E70220DDE760
:103CA80011B940F27B2151E7184696E7002B7FF4C3
:103CB80040AF51E71C1100202011002038170020C8
:103CC8003C170020134610B5027A22B140F20231A7
:103CD8001020FCF791FD0A4601460248BDE8104055
:103CE8000BF0B3B820110020044890F82C301BB911
:103CF800034924300BF0C6B8704700BF1C110020E0
:103D080043EE00000346064890F83C203AB190F88C
:103D1800352022B9034900F82D3B0BF0B3B87047A2
:103D28001C110020993900000A4610B5037A23B106
:103D380040F20A311020FCF75FFD014607230248D4
:103D4800BDE810400BF081B8301100201346027A0C
:103D58000AB1037270470A46014601480BF075B86C
:103D68002011002001490BF096B800BFA5EE000015
:103D78000B8BA2F809001046A2F80B304B8BA2F867
:103D88000D308B8BA2F80F30CB8B0249A2F8113083
:103D98000BF07BB803EF0000014B1878704700BFA9
:103DA80059110020014B1878704700BF8E00002081
:103DB800094AD2E90003434083EAB01181EA43216A
:103DC8004FEAF34311605360044B58434FEAF060E5
:103DD80000EB8000704700BF5C110020BB79379E64
:103DE800094AD2E90003434083EAB01181EA43213A
:103DF8004FEAF34311605360044B58434FEAF060B5
:103E080000EB8000704700BF90000020BB79379E10
:103E180010B50A4C08210948FDF76AFBD4E90032BD
:103E28001343F7D0064CFFF7DBFF2060FFF7D8FFFE
:103E3800236860601843F6D010BD00BF90000020D2
:103E48005C110020174B184A9A60184A5A60184AA1
:103E58001A60184A9A62184ADA62184ADA60184AE6
:103E68009A61184A1A63184A1A62184ADA64184A90
:103E78009A64184A5A62184B184A9A60184A5A6241
:103E8800184ADA62184A1A61184A5A61184A9A6135
:103E9800184A1A63184A9A64184ADA64184A9A63DC
:103EA800704700BF40170020F3F2000019F300002C
:103EB80045F40000D1F500002DF60000F1440000A3
:103EC8003FF60000A94700000146000011F7000076
:103ED80037F700005D4600004018002009F3000095
:103EE800D7F600005DF600000DF600007DF6000034
:103EF80091450000DDF700007BF7000067F7000040
:103F0800C1F60000044B054A5A65054B054A1A6577
:103F1800054A5A65704700BF401700202DF9000078
:103F28004018002017F9000057F90000054B064A11
:103F38009A65064A1A66064B064A9A65064ADA657B
:103F4800704700BF401700209FE4000009300000C0
:103F580040180020F9E20000E1E40000F7B504464B
:103F680001A80F46FFF71EF920B94FF4AA615120A6
:103F7800FCF742FC5022002101980DF056F9019DF2
:103F88003F2F2E4606F8037F43D83F2F44D8DFE85B
:103F980017F046004C006C0075008D007401740128
:103FA8009A00B3009E0074017401A300AF00B3002F
:103FB80043004300B70074017401CC00CC00E30057
:103FC800E300EA00430043007401EF00FC00000135
:103FD80004010B010D010F0111011B012501540101
:103FE8005601430043002D015E015C0146013C017E
:103FF8003E014001420148014C014A01500174014F
:1040080043004E014401520160016201430058011E
:104018005A01FF2F00F0258140F24451A7E72146BD
:1040280030460BF06FFAC0B9BBE02668D6F83832D4
:104038006B6096F83C322B72206890F89F3033B949
:104048000BF040F92368DB881844A6F83E02B6F85E
:104058003E3208206B721B0AAB72FFF7AFF80028DC
:1040680040F00D8140F2575181E7236893F8A8206A
:1040780052BB93F82D3102202B71EEE723681720ED
:10408800D3F880226A60D3F88422AA60B3F8882221
:10409800AA81D3F86022C5F80E20D3F86422C5F8A7
:1040A8001220D3F89030C5F81630D6E722680D20D4
:1040B800D2F8FE316B60D2F80232AB602368D3F8D5
:1040C8009430EB60C9E7236893F8A030D3E7314612
:1040D800204600F02BFBA6E7112306202B7159235D
:1040E8006B710023AB718023EB7130232B72B4E723
:1040F800236893F89A30BEE7304600F005FB92E754
:10410800236893F8A82052B993F8A0203AB193F8FD
:104118009D202A7193F89C3003206B719DE793F8DA
:104128009B202A7193F89A30F6E723680920B3F8A0
:104138000C212A71120A6A71B3F8A220AA71120A14
:10414800EA71B3F808212A72120A6A72B3F8A03029
:10415800AB721B0AEB7280E7236893F83A212A7145
:1041680093F83B31D8E7214630460AF057F95AE729
:1041780023681121B3F8AA00FCF768FF00F15B017E
:1041880030460AF0ADFD232067E730460CF000FB0F
:1041980049E730460CF005FB45E73A4B1B68002B16
:1041A8005BD140F24951E2E6374BF7E7374BF5E789
:1041B800374BF3E7374B1B68002BF2D023202246FE
:1041C80031469847042048E7324B1B68002BE8D05B
:1041D800224631462420984705203EE72D4B1B6890
:1041E800002BDED0224631462520F4E72368112132
:1041F800B3F8AA00FCF72AFF00F17D0200F15B0189
:1042080030460AF079FD2B2027E7234BC6E7234BDE
:10421800C4E7234BC2E7234BC0E7234BBEE7234B3E
:10422800BCE7234BBAE7234BB8E7234BB6E7234B4E
:10423800B4E7234BB2E7234BB0E7234BAEE7234B5E
:10424800ACE7234BAAE7234BA8E7234BA6E7234B6E
:10425800A4E7234BA2E7234BA0E721463046984723
:10426800E1E62368304693F8CF22D3F8D0120AF05B
:1042780004FD236893F8CF02D5E60120EDE603B0EC
:10428800F0BD00BF40190020481900204419002043
:104298004C190020501900205419002058190020EA
:1042A8005C19002060190020741900207C19002076
:1042B800641900207819002080190020681900204E
:1042C8006C190020701900208C190020901900200A
:1042D80094190020981900208419002088190020BA
:1042E8009C190020A01900203F289ABF024B53F8C0
:1042F80020000020704700BF401700203F289ABFC9
:10430800024B53F820000020704700BF40180020DF
:1043180030F8023CF7B504460E46B0F8825073B147
:1043280001226846ADF801508DF80020ADF8033041
:10433800FEF748FA18B195216320FCF75DFA1C4B8B
:104348001B6813B1A4F1280098471A4B1B680BB1DE
:1043580028469847184B1B680BB128469847832373
:104368000027A6F803503370B770637AD4F89C001E
:10437800737108F0E1FC08B9BA21DDE7394628462F
:10438800FCF77AFE02212846FCF776FE18B90B4B9B
:104398001B6803B198474FF40173002003F004022F
:1043A8001B0A62F3070063F30F2003B0F0BD00BFE0
:1043B800A4190020A8190020B0190020AC19002069
:1043C800F7B5056804464FF6FF77D5F8C0600DF1DC
:1043D80002010DF101023046ADF8027008F05BFCF5
:1043E80001A9304608F079FC48B1019808F041FD70
:1043F8002168A83100220272FFF796FCE7E704491A
:1044080005F1280003B0BDE8F0400AF03EBD00BF4A
:1044180019430000F0B5044685B00D46FF2600F8A4
:10442800E96C10F8EA3CF3B1174F3B781BB16221F5
:104438001F20FCF7E1F90C21381DFDF759F83E70F3
:10444800002304F8E93C8A232A4602F8033BD4F8FF
:104458000930C5F80330D4F80D305360D4F8113062
:10446800936005B0F0BD01A80C21FDF741F8A4F553
:104478001773039A1A6001AB03CB44F8F20C44F8A3
:10448800EE1C04F8EA6CDBE76411002010B5054C5B
:1044980023782BB90C21201DFDF72AF8FF23237060
:1044A80010BD00BF64110020024690F80632BBB967
:1044B80090F8073203F0FF010BB100207047094B59
:1044C80018780028F9D01970D9680433C2F8941004
:1044D80003CBC2F8FE01C2F80212FF2382F80632AB
:1044E8000120704764110020026838B5D37B044668
:1044F8000D463BB1132B05D0113B0F2B8CBF012070
:10450800082038BDD2F8A430ABBB92F8563013B9A6
:1045180020460AF084FED5F80B302268C2F8F6313E
:10452800D5F80F30C2F8FA312368D5F81320C3F84C
:104538009020B3F8AA20A3F8F922D5F80120C3F8EF
:10454800FB22D5F80520C3F8FF222368B5F8092017
:104558000025A3F80323236883F8BE5183F8065285
:104568002068084900F53C700AF08CFC2368162284
:104578002846DA73C5E720460C220321BDE83840F7
:104588000AF073BE1D440000036810B5DA7B0446C8
:10459800202A04D040F29D211F20FCF72DF900218C
:1045A80093F85620B3F8AA0083F8551082B1C3F8DF
:1045B800C91183F85610A3F8CD11A3F8CA0103F561
:1045C800E0700B490AF05EFC23680022DA7310BD24
:1045D8000121A3F8B90183F8B82103F2AF1083F8D9
:1045E800BB1183F8BF210349A3F8BC21EAE700BF48
:1045F800B9F50000A1F5000038B5046894F8A85092
:104608001DB9E37B23B101201AE02368DB07FAD444
:10461800D1F801200D4BD1F8051013400C4AC4F80D
:104628006630C3F307630A4043F00803C4F86A20FE
:1046380084F869300AF0F3FD1DB90423E373002000
:1046480038BD236843F001032360F8E72FC904F756
:104658006FDB008038B503689A7B042A34D1D1F81F
:1046680001204C1CD1F80550C3F86620C2F307623C
:10467800C3F86A5042F0080283F86920002283F8E0
:104688004E209A73026892F8A8200AB983F83F214D
:1046980093F84021B2B993F8912102F0FF008AB94A
:1046A800B3F8AA2083F8920103F28910A3F89321A2
:1046B800D1F801200549C3F895216268C3F899210A
:1046C8000AF0E0FB002038BD0120FCE797F6000067
:1046D800036893F8402112B1094B1B68184793F8F7
:1046E80091215AB9B3F8AA2003F289100549A3F811
:1046F80093211A2283F892210AF0C4BB704700BFA5
:10470800B419002097F6000010B50446FEF7A8FB80
:10471800044A054B024009200B40C4F80120C4F8A4
:10472800053010BD2FC904F76FDB008037B50C4684
:104738000568FEF795FB0A4B0A4A03400A4095F8BC
:10474800661000930B4001928DF800306B4603CB46
:10475800C4F801000920C4F8051003B030BD00BF3B
:104768002FC904F76FDB008038B5DB04154604D584
:10477800037D13B10023436338BD446B01344463A4
:104788000BF007F8836B9C42F6D30023034943637D
:104798002846BDE838400AF07EBB00BF05F7000098
:1047A80070B504680546A37B94F8A860012B07D070
:1047B8001EB9E37B23B1012038E023689807FAD4B7
:1047C80094F857309A0713D44A78D80784F86120A8
:1047D8004A88A4F862208A88A4F8642043F0020278
:1047E80084F857200FD5164904F158000AF053FBF6
:1047F80094F85730D90710D4CEB9E37B43B153218D
:104808004020FBF7F9FF94F83E31002BEBD1EFE79E
:104818000123E37328460AF002FDA37B0020012B45
:104828004FF0000304BFA37384F84E3070BD2368B3
:104838009A0701D55821E3E743F002032360E9E72B
:10484800BBF7000070B50568044604F055F8054B41
:104858000146E8721B681BB12046BDE87040184746
:1048680070BD00BFBC190020024B1B6803B118477C
:10487800704700BFB8190020F0B51F4D00242B78F1
:1048880014709BB1013B6D68DBB21E1B012E0FDC5F
:1048980005EBC40655F8347076688E4208BF874227
:1048A80027D0B84271EB060612D214700020F0BD72
:1048B8001E197710C6F3470655F837C005EBC70E23
:1048C8008445DEF804708F412CBF33463446DCE75C
:1048D80005EBC30455F8335064688C4208BF854221
:1048E80006D0A84271EB040428BF01331370DDE73A
:1048F8001C4601201470DAE78411002010F007022A
:1049080008B503D063214820FBF776FF18B1034BA5
:10491800197258601A70C80008BD00BF84110020C1
:10492800014B00221A70704784110020024B18793D
:10493800003818BF0120704794110020FF23084A4F
:104948000B700D234B7082238B701368C1F80330F2
:104958005368C1F807309368C1F80B30704700BF3F
:104968009A1100201622002101480CF05EBC00BFFD
:104978009A110020F8B51C4D04466B7D9BB390F846
:10498800A83023BBD0E978760AF088FF94F8202174
:10499800164B523053F822304FF47A7203F2E73351
:1049A800B3FBF2F3DB19B4F8AA2046F100061B1892
:1049B8002A8046F100066B60AE60E38805F10C00C2
:1049C80002220B496B80BDE8F840FFF7BFB94B06E0
:1049D80009D5B0F8AA302B80D0F880326B60D0F8B7
:1049E8008432AB60E9E7F8BD9A1100205C960200BA
:1049F80045490000094B53F8203003F5224370B5B0
:104A0800B13316464FF47A720C46B3FBF2F53444D0
:104A180005F04CF82C44204470BD00BF48960200B5
:104A28002DE9F04F98468BB0002304460F460392B9
:104A3800069390F821B109F0C2FB064694F82B01C1
:104A4800FEF724FF06440AF029FFE37B00F148053E
:104A5800B6B2472B47D00D2B45D094F80E90A9F14C
:104A68004701D1F1000949EB0109039B002B40F0F4
:104A78008580637B032B40F08180B9F1000F6AD0F9
:104A8800B4F8D832BB4266D1D4F820322046B4F804
:104A9800F421C4F81032D4F8C830C4F81432B4F889
:104AA80092321344C4F8183203F088FE94F829A10E
:104AB800BAF1000F09D0D4F8E02241F64B539A42DC
:104AC8008CBF4FF0000A4FF0010A94F8EC326BB932
:104AD800D4F8C820D4F8E0329A4221D0B4F8AA0019
:104AE8000BF075FE1CE04FF00109BEE7B4F8AA0010
:104AF8000BF06AFE20B940F241713020FBF77CFED2
:104B0800B4F8E8324FF0000AA4F8DE30B4F8EA321C
:104B18008381B4F8D832A0F80EA04381013B038208
:104B280094F82A31002B4ED1BAF1000F4ED1D4F8A7
:104B3800DC3284F82AA1C4F8D830B4F8DA32A4F800
:104B4800DC30D4F8E032C4F8C830D4F8E432C4F821
:104B5800D03002236373A17B292946D0A1F12C020E
:104B680051425141E27B292A00D039B1B4F8D832F8
:104B7800FB1A1B0402D4204602F0D0FFB4F890A21E
:104B880004F5187394F82101A7EB0A0A0293E38845
:104B98000FFA8AFAFB1ABAF1000F0FFA83FC26DA29
:104BA800E246D4E99E23C4E9A223002384F83332E1
:104BB8000123627B032A00F2B581DFE812F01A00B4
:104BC8002A0170004E01BAF1000F07D04FF04D13C3
:104BD800C4F8E0300023A4F8E430A8E74FF09613B7
:104BE800A4F8E4A0C4F8E030A1E70121BAE74346FD
:104BF800DFE7014694F8ED0109F03EFD8246D4F85E
:104C0800D8003146504405F003FF3146C4F81C0271
:104C1800D4F8C80005F0FCFE07A9C4F8200208A8CB
:104C280004F09CFE079B0093DDE90823D4E9A20168
:104C38000BF0C6FE064604F1A8000AF0B8FED4F848
:104C4800943294F82101D4F8D8B0069304F036FFD2
:104C5800069B00F52240D4F81C124FF47A72203BD0
:104C6800B1305B445B1A30315B1BB0FBF2F053444C
:104C78002A469B1B1B1A94F821010693B4F8DC30D2
:104C880003EB4101FFF7B6FED4F89422069BC4F863
:104C980024029B1AB92B5CD840F2C6412DE7D4F800
:104CA800D8303146D4F81402184405F0B1FE314624
:104CB800C4F81C02D4F8C80005F0AAFEC4F8200203
:104CC80004F1A8000AF073FED4F8D830D4F81462BE
:104CD8001E44B4F8F431002B40F09780B8F1000F6F
:104CE80000F0938094F8210104F0E8FED4F81C1237
:104CF800D4F8803200F52240761A94F82121B13098
:104D0800203E1E44A24B53F822204FF47A7302F23D
:104D1800E732D4E99EABB2FBF3F2A6EB0A06B0FB8E
:104D2800F3F01644761B361AD4F81032D4F8182249
:104D380094F8210102FB0311B4F8DC302A460696E8
:104D4800303103EB4101FFF755FE0123C4F824027B
:104D58006373D4F8C83004F1E800D4F82022723B19
:104D680006999B1A5D1BD4F824329D4228BF1D4624
:104D7800002384F86032C4F8F051D4E9A2325B18F9
:104D880042F10002C4E99C320AF001F904232844E4
:104D9800A4F8907284F86932C4F86402D4E99C23B8
:104DA800C4E9A22302F0DEFF20B1D4F864321E3336
:104DB800C4F86432B4F8E031DB1B1BB2002BD4BF5B
:104DC80000220122520084F86822B9F1000F40F055
:104DD800AC80B8F1000F40F0AB80637B002B00F093
:104DE800C380D4F8C81004F51870D4F82032C91A52
:104DF80009F0F3FB80B2002800F0B680149B03B1E1
:104E0800188001200BB0BDE8F08FD4F81C12761A78
:104E18008AE7D4F82022D4F8C830D4F818129B1A9C
:104E2800D4F810620AFB03F30693B4F8F4319C44F7
:104E3800D4F81C32ACEB010C30330CF1FF3C06FB10
:104E48000133B4F8DC1002FB0C332A4601EB4301B2
:104E5800FFF7D0FDC4F824027BE7D4F8C82002FB92
:104E68000AF20692B8F1000F1CD0B4F8F411C9B9CF
:104E780084F83312D4F8201201FB1A2EB4F8F4A1E6
:104E88000291CDF818E06BB3BAF1000F2AD1D4E93A
:104E9800A061D4E99E23B24273EB010108D340F22A
:104EA8000D512AE694F8331200297FF452AFE1E756
:104EB800374B203E53F82B104FF47A7BD4E99E23CE
:104EC800CDE9042301F2E73301F52241049AB13117
:104ED800B61AB3FBFBF3B1FBFBF11E44761A761B43
:104EE80076440696029BE2442A4603FB0AFA0AF134
:104EF800300A4FEA4A0A5146FFF77CFD41F64B5308
:104F0800C4F82402D4F8C80098423FF622AF06AB92
:104F18002A465146009304F5097309F0C9FB84F841
:104F2800330216E740F22551E7E5B8F1000F1BD030
:104F3800B4F8080210B3B4F80A1294F80C224D1C05
:104F4800A4F80A1201FB022290420DDD002B0BDDB2
:104F58000023A4F80A5284F86832FEF729FF00F00B
:104F68000700013084F80C0204F5187104F50E707E
:104F780006F0F6FC20B940F27551BEE50146DCE7C3
:104F8800039B83F0010384F8303200203AE700BF26
:104F980048960200F0B5044685B018B9A52130201E
:104FA800FBF72AFC052900F2DA80DFE811F0060099
:104FB800D30038003300D800CE0090F83032C288D1
:104FC800FBB1B0F82E32934208BFB0F8E4319A1A18
:104FD800A0F8E621E3802046D4E99C23C4E99E2377
:104FE80002F004FE94F85030002B00F0AC805D4BCA
:104FF8001B68002B00F0A780204605B0BDE8F040F4
:105008001847B0F82C329B1AA0F8E631B0F82C32C9
:105018009BB2DFE705B0BDE8F04004F0ABBC0BF095
:10502800C7FCD4E99E23801A61EB0301012871F1C2
:10503800000302DA4FF4C061B1E76FF00103834265
:105048004FF000038B4102DA40F20161A7E7D4F880
:10505800C8300BB1B0FBF3F3E07BB4F82E2247283D
:105068000ED0A17B463901290AD90D2808D0E1883C
:105078000B449BB2D11A0D0443D501339BB242E0D5
:105088000132A4F82E22B4F8923203AEE588013337
:10509800354FA4F89232B4F842301D44B4F8403089
:1050A800013DED1AADB23B685BB1B4F82E12002297
:1050B8002046013989B29847B4F82E321844A4F82A
:1050C8002E02B4F82E126B1A18042CD40023204692
:1050D80000961A46FFF7A4FC012834D1B4F82E2212
:1050E800B4F8E011BDF80C301344521A12049BB204
:1050F80004D5EA1A12F4004F18BF0B46A4F82E3252
:10510800D1E7013293B2A4F82E3294F83132002B51
:10511800B9D1B4F8E431B4F82E22934204BF013374
:10512800A4F82E32AFE7A37C30460394002B14BFBB
:1051380008233E2384F83130FFF742F920460BF06C
:10514800B3FA0023637305B0F0BD05B0BDE8F040C5
:1051580008F067B8437B042BF3D0C6211FE7CB21A7
:105168001DE700BFC0190020C81900202DE9F84329
:105178000E46044618B9D3213020FBF73DFB05291C
:1051880000F2A780DFE801F00376413DA52E0BF081
:10519800BBFCC4E95001204602F0A2F8D4F834015F
:1051A800A4380BF007FC20460BF06AF8054600BB54
:1051B800014620460AF0F4FE00F1AE06D4F83401A8
:1051C800B04209D2301A0321192838BF19200BF030
:1051D8006DFC60B10BF0F0FBC4F8346120460BF0B5
:1051E80088F845B12046BDE8F8430BF083B801259F
:1051F800F2E70025F2E7D4E95023C4E94A23BDE8E1
:10520800F883BDE8F84304F0B5BB0AF00AFF0423AD
:105218008146884684F839310BF0CAFB07220F46CD
:10522800A9FB023102FB0811D4E94A525B1941EB90
:105238000205D4F810213AB159EA080204D098427C
:1052480077EB050228BF012684F83861D4E9522695
:10525800121A66EB070694F8581139B9012A76F143
:1052680000010BDA204602F043F803E0012A76F148
:105278000006F7DB002384F85031C0E7984277EB4B
:1052880005010FD259EA08080CD01B1A65EB070173
:105298009A4276EB010005DB012B71F10000A4BFF7
:1052A8001A460E460C49012304F1E800914284F89D
:1052B80051314FF0000384F83031B341B8BF0A468A
:1052C80004F5987106F0C4FB002898D140F2B1614A
:1052D80052E7EF2150E700BF0040420F2DE9F843A5
:1052E80004460E46154690F8503103F0FF07002B90
:1052F80040F0918000F1E8083946782240460BF0EA
:1053080094FF2246454940460BF07BFCC4F81061E7
:10531800FF2384F8503166B1FEF762FD00F0070004
:1053280032463F49013086F80C0206F50E700BF044
:1053380068FC40F20243A4F83831002384F8303185
:1053480005F0BCFB00F1490620460AF099FF01462A
:10535800B6B2B0B308F033FF00F12801284689B28D
:1053680005F056FB2844AE3DC4F834010BF020FB91
:10537800301841F10001C4E95001012084F81401FA
:105388000BF086F82D1AC4F818514FF0FF356FF05E
:1053980000414046D4E95023C4E95251002504F5A0
:1053A8009871C4E94823C4E94A2384F8515142F268
:1053B800107206F04DFB38BB4FF4DC713020FBF760
:1053C8001BFA2046DFF85C900AF0EAFDAE30C4F81C
:1053D8003401B9F8000048B1E08C38B1FEF700FD9F
:1053E800B9F80030B0FBF3F202FB130006440BF0EF
:1053F800DFFA361841F10001C4E95061002DC4D02C
:10540800AD1941F10001C4E7294620460AF074FFAE
:105418003846BDE8F8830C27FAE700BF755100004D
:105428009D4F0000B0110020F0B5002385B0CDE9F4
:10543800003303238DF806306846FBF741FE88B138
:105448000123114EB3700023CDE9023302238DF8F6
:105458000E3002A8FBF734FE044638B10023B370BF
:1054680005B0F0BD00980AF0F8FAE5E7029D6B7BFD
:10547800002BEED005F50E7738460BF0BEFA38460D
:105488000BF0C7FA6C73E4E7B0110020044B00225C
:10549800DA709A7042F210721A80FFF7C5BF00BF27
:1054A800B0110020014BD870704700BFB011002028
:1054B80008B503F0C9FE044B5A6882422ABF98789F
:1054C800002080F0010008BDB0110020F0B50446AE
:1054D80085B090F8503003F0FF05002B68D1437B6E
:1054E800032B65D10BF064FAD4E99E23801A61EB93
:1054F8000301012871F100035ADB6FF001038342B5
:1055080075EB010104DA40F2A9513020FBF774F978
:10551800D4F8C820E3880AB1B0FBF2F2013313448F
:105528009BB2A4F82C32B4F8E431B4F82C229B1ABC
:105538001BB2002B3CDD04F50E700BF05EFA002860
:1055480036D0FF2384F83132B4F842300DF10E071B
:10555800E588184E1D44B4F84030013DED1AADB24F
:10556800336863B1B4F82C1200222046013989B29D
:105578009847B4F82C32184480B2A4F82C02B4F836
:105588002C32EB1A1B0413D4B4F82C12002301227A
:10559800204689B20097FFF743FA012808D1B4F8EA
:1055A8002C32BDF80E2013449BB2A4F82C32D7E756
:1055B80005B0F0BDC81900202DE9F74304460629B7
:1055C80000F2A980DFE801F004251422282DA100AB
:1055D800524B9B7803F0FF0253B900920123B0F8B5
:1055E800E411FFF71DFA28B140F2CD61302031E017
:1055F8000423637304F030F806F09EF90023E28870
:10560800A4F89232A4F82E2284F8313203B0BDE80F
:10561800F08303234373F9E70BF01FF9C4E9A001F2
:10562800F4E73F4B00F1A8081B681BB14246D0E9DC
:10563800A00198471321B4F8AA00FBF707FD00283A
:1056480061D094F82131022B5BD005D8012B08D00A
:10565800DC21B420FBF7D0F8033B012BF8D81E302F
:1056680000E00A30858894F82101DFF8B090C31E65
:10567800012B8CBF002728270AF082F96430D4F860
:105688002022373FA842FFB234BF2B1A0023D4F898
:10569800C85099188D428ABFAD1A0025ED1A99F89D
:1056A800033023B9D4F8E8309D4228BF1D46D4F80A
:1056B800F06104F1E80009F06AFC064402200BF0EE
:1056C800CBF90221AD1B25EAE575854228BF0546C1
:1056D80028460BF0EBF910B12E440BF06DF90123BD
:1056E8003A463146404609F05EFDD4F8F031C9F833
:1056F8000400D4F8C800184403B0BDE8F0430BF028
:1057080059B91430AEE79625ADE7A83003B0BDE827
:10571800F0430AF04CB940F29B7167E7B0110020E2
:10572800C4190020014B1880704700BFB011002039
:10573800044B1A78012AD0B203D01878831E584235
:1057480058417047B81100200C4B4FF47A7253F847
:105758002130023903F2E733C9B2B3FBF2F302296D
:1057680000F1FF3210B54FEAC21296BF044CF02187
:1057780034F81110134400FB013010BD5C96020090
:10578800B4940200D928F0B5054628BFD925BDF83C
:1057980014600446303501F5A57006F00207ADB275
:1057A800FF2D28BFFF2516F0010621D10FBB002BC6
:1057B80000F0C580911EC9B2022996BF7B4D40F604
:1057C800480135F811100844D92C7FD9D93C951EC9
:1057D800F721A4B2EDB2002B00F0CF80F634022DF1
:1057E800B4FBF1F400F2C680714B33F815306BE06E
:1057F800EFB1911EC9B2022997BF6E4D4FF41471D3
:1058080005EB4101C9880144D01E012837D801F6AB
:1058180014409830002E3BD0023AD2B2022A97BFE9
:10582800644BC02303EB42035B8A18444EE053B138
:10583800911EC9B2022997BF5E4D40F6480105EB9B
:1058480041018989DFE7032A05D1691D89B28901E8
:1058580001F5C871D7E7042A05D1691D89B2090184
:1058680001F5BF71CFE7022A0BBF05F10B0105F166
:105878000A0189B289B20CBF8900C900C3E7022AAC
:1058880001F19C0114BF4FF4B070B4200844C0E784
:10589800EBB1911EC9B2022996BF474D40F64801A7
:1058A80035F81110D92C084410D9D93C951EF72188
:1058B800A4B2EDB24BB3F634022DB4FBF1F459D8CF
:1058C8003C4B03EB45031B8B03FB0400F0BDF12CA1
:1058D800214628BFF121032A05D1133189B2890154
:1058E80001F5C871DEE7042A05D1133189B209012F
:1058F80001F5BF71D6E7022A0BBF1931183189B2F9
:1059080089B20CBF8900C900CCE7B4FBF1F3022DC2
:10591800DBB239D8294931F8151001FB0300C3EB74
:105928004311C3EBC103E41AA3B2002BCED0083352
:10593800032A9BB22BD19B0103F21A4375E7032A72
:1059480006D10535ADB2AD0105F5C87528443BE76C
:10595800042A05D10535ADB22D0105F5BF75F5E76A
:10596800022A0BBF0B350A35ADB2ADB20CBFAD0084
:10597800ED00EBE740F69213A6E7B4FBF1F3022D36
:10598800DBB201D80E49C6E740F69211C5E7042AF2
:1059980003D11B0103F5467347E7022A0BBF9B009F
:1059A800DB0003F5BB7303F5CD733EE7C09402003B
:1059B800CC940200B4940200C0940200CC9402007B
:1059C800CC940200294B5A6A10B5D2F80F30C0F8AF
:1059D800CC30537D117D1B0443EA0123D17C0B435A
:1059E8006FF45061C0F8D430B2F81930591806294C
:1059F8008DBF40F2E241A3F550634FF47A714B43F7
:105A08008EBF00214B430121C0F8C83080F82A110D
:105A1800937DF9B103EB830303EB83039B00A0F8A9
:105A2800DC30B2F81730F1B164214B43C0F8D830FC
:105A3800B2F81B30A0F8D030B2F81D30A0F8D23040
:105A480092F8243003F01F025B0980F8232080F8C5
:105A58002B3110BDC3EB431403EB840303EB830327
:105A68005B009BB2DBE740F2E241DEE7B8110020C1
:105A7800032937B5144617D19B0103F534734179CF
:105A880090F844500139C9B203291AD8194A0A446E
:105A9800907FE201CA3203FB0422174B9A4215D9C0
:105AA80040F296712D200FE0042903D11B0103F564
:105AB800E773E4E702290BBF0B330A339B00DB00D3
:105AC800DDE740F24E310620FAF796FE1E23B2FBC0
:105AD800F3F205F03F03110AD2B241EA401143F054
:105AE8004003002063F3070062F30F2061F31740BF
:105AF80003B030BDB4940200C3BF03000346074A95
:105B0800506AD3F86920C0F80320B3F86D20A0F8D4
:105B1800072093F8681008F038BF00BFB8110020BC
:105B2800D0F8803073B50BB101221A604388DB07C7
:105B380027D50023144E056ACDE9003302238DF8DA
:105B48000630FF2333776846FBF7BAFAC8B9009CDA
:105B5800A542F8D005F1B40395F8B32004F1B401D7
:105B680094F8B30008F0C9FC0028ECD094F8AC30E5
:105B7800B4F8B1203377D4F8AD30C6F81D30034BF4
:105B88009A8002B070BD00BFB8110020D511002066
:105B980038B5084D044600F169010623686A0022F9
:105BA80008F0D2FF94F86810686ABDE8384008F039
:105BB800ECBE00BFB811002007B50AF0E2FD8DF871
:105BC80007000548012306220DF10701406A08F085
:105BD800BBFF03B05DF804FBB8110020034B586904
:105BE80010B1403009F034BE704700BFB811002032
:105BF800034B986910B1403009F02ABE704700BFC6
:105C0800B811002070B504460E461346407F6588DB
:105C1800324615F0040118BF04F17701FDF780FD45
:105C28004107054621D4C2070BD50123607F84F8BC
:105C38006830FDF7D9FD0368C4F869308388A4F893
:105C48006D30AB0701D4012070BD094B0121586AA2
:105C5800D4F8773084F87610C0F80930B4F87B307F
:105C6800A0F80D3008F09AFEEDE70020ECE700BF41
:105C7800B811002010B50446084694F8D8306BBB1C
:105C88002378082904F1DB0284F8D93016D004F10E
:105C9800DA01FDF71BFD20B94FF477612D20FAF7E3
