:1000000058BD002071350100A727030055350100B8
:1000100055350100553501005535010055350100B4
:100020000000000000000000000000005936010040
:1000300055350100000000001D3801005535010054
:10004000B9380100B9380100B9380100B9380100E8
:10005000B9380100B9380100B9380100B9380100D8
:10006000B9380100B9380100B9380100B9380100C8
:10007000B9380100B9380100B9380100B9380100B8
:10025000B9380100DF190300B9380100B9380100CD
:10026000B9380100B9380100C9190300B9380100D3
:10027000B9380100B9380100B9380100B9380100B6
:10028000B9380100B9380100B9380100B9380100A6
:10029000B9380100B9380100B9380100B938010096
:1002A000B9380100B9380100B9380100B938010086
:1002B000B9380100B9380100B9380100B938010076
:1002C000B9380100B9380100B9380100B938010066
:1002D000B9380100B9380100B9380100B938010056
:1002E000B9380100B9380100B9380100B938010046
:1002F000B9380100B9380100B9380100B938010036
:10030000B9380100B9380100B9380100B938010025
:10031000B9380100B9380100B9380100B938010015
:10032000B9380100B9380100B9380100B938010005
:10033000B9380100B9380100B9380100B9380100F5
:10034000B9380100B9380100B9380100B9380100E5
:10035000B9380100B9380100B9380100B9380100D5
:10036000B9380100B9380100B9380100B9380100C5
:10037000B9380100B9380100B9380100B9380100B5
:10038000B9380100B9380100B9380100B9380100A5
:10039000B9380100B9380100B9380100B938010095
:1003A000B9380100B9380100B9380100B938010085
:1003B000B9380100B9380100B9380100B938010075
:1003C000B9380100B9380100B9380100B938010065
:1003D000B9380100F5190300B9380100B938010036
:1003E000B9380100B9380100B9380100B938010045
:1003F000B9380100B9380100B9380100B938010035
:10040000B9380100B9380100B9380100B938010024
:10041000B9380100B9380100B9380100B938010014
:10042000B9380100B9380100B9380100B938010004
:10043000B9380100B9380100B9380100B9380100F4
:10044000B9380100B9380100B9380100B9380100E4
:10045000B9380100B9380100B9380100B9380100D4
:10046000B9380100B9380100B9380100B9380100C4
:0C047000B9380100B9380100B9380100AA
:10048000064A074B02604FF41E729B788280082256
:10049000C371002382710372704700BF53BB000019
:1004A000F00C0020064A074B02604FF49C721B7B45
:1004B00082800822C371FF2382710372704700BFDC
:1004C0004FB60000F00C0020F8B5C41D002805460A
:1004D00024F007040CBF0020204600F037FA071E66
:1004E00002DA6FF00B00F8BD254EF188B0880331B9
:1004F000737A0330327A89B280B209F0AFF80028FB
:10050000EFDB3C44B3787178002D04F10304194407
:1005100024F0030400FB01F10CBF0020204600F092
:1005200097FB23180DB9002BDBDB317B184679B123
:100530000333002D728923F003040CBF00202046F2
:1005400000F0F8FB0028CCDB20440DB90028C8DB04
:10055000317891B1337B83B1C41D002D24F00704A1
:100560000CBF0020204602F0BFFF0028B9DB0DB110
:100570000020B8E72018B6D5B3E7002DF8D1B2E7D0
:10058000F00C0020014608B572B6094B1B690BB18F
:1005900008489847BFF34F8F0749084BCA6802F4D1
:1005A000E0621343CB60BFF34F8F00BFFDE700BF96
:1005B000F00C002008D2030000ED00E00400FA0572
:1005C0000A4B07B51A896846ADF80020DA889B887F
:1005D000ADF80420ADF8023001F096FC18B148F6F1
:1005E0005300FFF7CFFF03B05DF804FBF00C0020D1
:1005F00010B5044620B308F099FA10B94FF0FF3057
:1006000010BD06F0C9FEB0F5FA7FF7D80E4B1B21DE
:10061000002299801A750822D98040F203211A809D
:10062000012219811F211C615A8059819A81EFF39F
:10063000108472B600F0DAFB04B962B60020DFE77E
:100640006FF01500DCE700BFF00C002010B50028AB
:100650003FD1234C237D032B38D059B1002A3BD006
:100660000239052935D8DFE801F003122634292C98
:100670001378A3700020FFF727FF0028B7BF0123DE
:1006800002236FF00B002375A8BF237510BD1379EB
:1006900013B3537903B31188FB291DD853881B3B2F
:1006A0009BB2E02B18D81A2916D913689288636078
:1006B0000C4B9A80DEE713782373DBE713886381A2
:1006C000D8E71388FF2B07D82370D3E74FF0FF300C
:1006D000DCE76FF02C00D9E76FF01500D6E700BF1C
:1006E000F00C0020F40C0020F8B50D46064620B3AF
:1006F00019B311F0070420D1114F3B7D012B02D11A
:100700006FF00B00F8BD032B02D14FF0FF30F9E77B
:1007100000F0A2FB0028F8D02846FFF7D5FE0028FD
:10072000EEDB0BF06CFA3046214601F071FCFFF76E
:1007300047FF032320463B75E4E76FF01500E1E730
:10074000F00C002010B5064C237D032B03D101F0E3
:1007500075FC02F059F909F082F80020207510BDEF
:10076000F00C002008B501F01FFC03490120BDE892
:10077000084000F0E3B800BFA504000008B501F090
:1007800027FC03490020BDE8084000F0D7B800BFAF
:1007900081040000074B4FF0FF3141F6FF72C3E9BF
:1007A000001205490022C1E900221F21C3E90212FB
:1007B000704700BF60000020080D00203F280CD8C3
:1007C00001380B4BC0F3421200F01F0053F82230E7
:1007D00023FA00F000F001007047FF2806D04038EF
:1007E000044BC0F3421200F01F00EFE701207047F6
:1007F00060000020080D0020074B01460068496892
:100800001A4603C240F48C2200201A6041F0107294
:1008100042F4FF625A607047600000200246034BBA
:100820000068516803C30020704700BF080D002016
:100830000246034B0068516803C30020704700BFA5
:10084000680000203F280DD80138074BC0F3421242
:1008500000F01F0003EB82039B6823FA00F000F016
:100860000100704700207047600000200A8870B5C2
:1008700095B2C67BC2F30E020488023602F1100361
:100880003444C35AA4B233442344013BB3FBF4F3CE
:1008900003FB0422438892B29342044B8BBF2B404C
:1008A000AB4313439BB20B8070BD00BF0080FFFFC2
:1008B0004A1E062A08B50346084603D84CF2A6503D
:1008C000FFF760FE094A914202D947F24660F7E716
:1008D00011B903B1196008BD2BB11B680022C3E92F
:1008E00001211A1D1A600430F5E700BFFAFFFF7FEF
:1008F00010B5114B00EB41041A786389B3FBF2F396
:1009000003FB0223013A1A44B2F5706F0279807832
:1009100028BF00231A440B18B2FBF0F100FB112191
:100920005B1AB3FBF0F100FB113313446FEA43434E
:100930006FEA5343638110BD100D0020024B03EB9F
:1009400080035960704700BF100D00202DE9F04F63
:1009500010F0070A85B0054603D04EF6A700FFF752
:1009600011FE534F044607F10C06B146B04657F846
:10097000043B8DF80BA043B101A898479DF80A30BD
:10098000082B02D94CF63910E9E79DF80B1041BB52
:1009900005B131604F4506F10406E8D1002D6FD056
:1009A0000022DFF810910227964689F8002058F8B7
:1009B00027A0013FBAF1000F55D09AF804609AF8C9
:1009C00002C0FF2E60D039460023481C38D19C4419
:1009D000BCF1FF0F3FD90AB189F800E044F6E620E8
:1009E000BDE79DF80AC04B1D60465A0004EB430367
:1009F000022838BF0220441E40422344BDF808406C
:100A00006444CCF1000C0340013C04EA0C04B4F54E
:100A1000803F02D34EF61650A1E775B19A1A012015
:100A2000326091701480D0709DF80C0010710198A4
:100A30004FEA104C1081A2F806C004FB0134A9E76C
:100A400058F8210028B190F804B0B34504BF80786D
:100A50001B180139B9E7DBB2E6458AF804303CBF20
:100A60005FFA8CFE01227B1CA1D10AB189F800E05B
:100A7000022640F6FF6A58F82670B7B9013EFAD24E
:100A8000601B05B0BDE8F08F0023E5E707EB4103ED
:100A900009F101093846A3F80AA0FFF729FF5FFA18
:100AA00089F1BB788B42F1D8E8E74FF00009F6E70F
:100AB000140D0020100D002038B54FF6FF730246CC
:100AC0000380174B03EB81031869A8B1847803797D
:100AD000B3FBF4F104FB1133DBB2194600EB410523
:100AE000B5F90A50002D0EDB0131B1FBF4F504FB22
:100AF0001511C9B28B42F1D1002038BD6381BDE828
:100B0000384008F088BD00EB41046389C3F30E034D
:100B10001380C278002AF1D14FF6EF10FFF732FDB3
:100B2000100D00201C4B03EB810370B51C690546BA
:100B30003CB3030403D546F63870FFF723FD0146A6
:100B4000204608F04BFDFF28014604D02046BDE8B2
:100B5000704008F060BDA078B5FBF0F300FB1353C4
:100B6000DBB219460A1D04EB4206B6F90260002EFC
:100B700009DB0131B1FBF0F200FB1211C9B28B426B
:100B8000F0D1002070BD8B4201D00023E37004EB54
:100B900042025580DAE700BF100D0020094B03EB3D
:100BA0008103014610B51C69204608F017FDFF2897
:100BB000014604D02046BDE8104008F02CBD0020BE
:100BC00010BD00BF100D0020F8B5104B074603EB19
:100BD000810301461C69204608F000FDFF280546F8
:100BE00011D0E288238953EA024606D00146204606
:100BF00008F011FD01463846B04720462946FFF768
:100C000077FE0020F8BD0520FCE700BF100D002096
:100C100038B50E4B0446827903EB8203186908B994
:100C2000052038BD8278E1799142F9D24B1CE371FD
:100C300000EB41035D89B3F90A30002BF3DBA5809B
:100C400008F0E9FC20600020EBE700BF100D002059
:100C500070B5044610F003000E4603D04BF6BD00FD
:100C6000FFF790FCFFF724FE054624B10348314608
:100C70000460FFF71DFE284670BD00BF2C0D00204C
:100C80002DE9F14FDFF870B01E4607460D46DBF840
:100C9000003090469DF828A09DF82C901BB945F691
:100CA0001E00FFF76FFC52460921404608F060FB2A
:100CB0004A4684B20921304608F05AFB81B2DBF87B
:100CC0000000214408F05FFC386018B9286001B0CA
:100CD000BDE8F08F04445346414609222C60386831
:100CE00008F00CFB4B4609223146286801B0BDE8EC
:100CF000F04F08F003BB00BF2C0D002070B50E466E
:100D0000044608F048FB0546304608F044FB044B17
:100D10002A1821461868BDE8704008F058BC00BF8A
:100D20002C0D0020024B186808B108F020BC704759
:100D30002C0D00201F2AF8B5044624D89200134D2C
:100D4000033250B1830703D04FF6FC00FFF71AFCC3
:100D500022F00303297068602B8122F0030228230C
:100D60000127120403FB01F06B680025120CEEB2A0
:100D7000B14200D8F8BD14B126181F705E6010444F
:100D800001352833F3E74FF0FF30F3E7300D002053
:100D9000154A002170B553681578C8B2854203D84A
:100DA00049F28140FFF7EEFB1C461846013114F86A
:100DB000286B0EB92346F0E70021997001241289AF
:100DC000996103F126055C709208D96103F11E0454
:100DD000596824F8022FAC4243F8041F1144F8D19B
:100DE00000234361037070BD300D0020114B0122C0
:100DF0004FF0FF3000215A60C3F80803C3F8001514
:100E0000C3F804255A6040F6FE72C3F80803402078
:100E1000C3F8001503F570330749C3F80825C1F876
:100E20008800BFF34F8FBFF36F8FC1F88801C3F8FD
:100E3000082570470060045000E100E002680020CF
:100E4000014B1A60704700BF3C0D0020014B1B682E
:100E5000184700BF3C0D0020024B1868003818BF2F
:100E6000012070473C0D00200A4606488F2302F8F7
:100E7000033BC368C1F8033003695360436993605F
:100E8000704700BF400D0020024B5A8C02435A8429
:100E90005B6A1847400D0020014B00215B6A184730
:100EA000400D002010B5154C05F024FA05F0E6FCC5
:100EB000208DFFF7F1FF237E63B12246104904F134
:100EC000190052F80C3BE36063685360A3689360B9
:100ED00009F0CEFD218DE06A02F03AFBE36AB3F837
:100EE000AA0002F0B7FA636B94F8301094F831005E
:100EF0009847002384F8383010BD00BF400D002013
:100F0000690E0000034B93F838300BB1FFF7CABFEE
:100F1000704700BF400D002070B5184C0546E36CCB
:100F2000E66AE3634FF4817394F85000A4F840300C
:100F3000B37E96F81D1100EB83002DB9FF2803D175
:100F400096F81C318B4201D004F02EFFB37E7BB1AA
:100F5000606D05F043F9616DE06B05F021FC1DB992
:100F60009621284605F088F9022384F8383070BDB0
:100F7000E06B05F033F905F081FCF0E7400D00204F
:100F800008B5084B93F83820022A03D049F6FB50E5
:100F9000FFF7F8FADA7A42F00102DA72BDE80840A7
:100FA000FFF780BF400D002070B50F4DC9009200C3
:100FB00000F00300AE6D01F0080102F004021B0115
:100FC000347803F0100304F0F3040C43144304F0EA
:100FD000EC041C4304433470B5F86430737002238E
:100FE000A5F85C3070BD00BF400D00207FB5002229
:100FF000012300F180010392CDE90423074A92F80E
:101000005020029200F19002CDE90032D0E91E2377
:10101000022005F003FB07B05DF804FB400D002043
:101020002DE9F0412F4C06460F4694F83830012B3D
:101030005FFA83F803D049F2C870FFF7A3FAE56AB4
:101040002B7933B1002104202971FFF71DFF85F8AA
:1010500005802B7A052B0AD123490220FFF714FFC4
:10106000236E1B78991E4B424B4184F868301EB1A9
:10107000BDE8F041FFF716BF002FF9D0E36E304610
:1010800098470028F4D094F83030002BF0D1E66A6D
:1010900004F066FE73699842EAD8B37C002BE7D16E
:1010A000638C9A0714D594F86830002BE0D0AB7E9F
:1010B000E46A13B12846FFF799FF94F81D21012037
:1010C000962104F0A1FF0020BDE8F041FFF724BF06
:1010D000002BCDD194F87030002BE8D194F871300A
:1010E000E3E700BF400D0020A00D0020F7B5174C2E
:1010F0000646656F0DB1636C1BB942F6D410FFF75D
:1011000041FAB4F8483001F003012F466B702B7898
:1011100023F003030B4307F8033B3846B4F8482099
:10112000616C07F06FFE0DF1020201A9A06FE5638B
:10113000676408F012FA019808F0FDF9B4F8481055
:101140003060A06F08F0DDF903B0F0BD400D002065
:101150002DE9F04FAE4D91B0EC6A079004F1A80371
:1011600009910A930023CDE90D3395F83830022B0D
:101170005FFA83FA03D045F22F60FFF703FAEB6BB7
:1011800003221E785978134406F00308A5F840207E
:101190006B64079BA5F84810002B00F0258119B15E
:1011A000A86F08F097F90146627A2B8D01326967C2
:1011B00043F40073D2B22B8582EA960717F0010739
:1011C00046D1237A23B3032B62720AD8012B1FD096
:1011D0000DA9D5F8800008F027F990B94DF2995083
:1011E000CBE7053B012B02D940F66E70C5E700F056
:1011F000C5FF10B948F2D640BFE739460820FFF7CF
:1012000043FED4E91C32013342F10002C4E91C322E
:101210000021637921721BB110206171FFF734FE48
:101220002B8D43F400632B8500230893C6F3C0077E
:10123000A37ECBB1B5F84830B3B105F039FB032834
:10124000FBD0022806D1FFF72DFE11B0BDE8F08FCC
:10125000079BEAE740B9A37A03F001039F4203D159
:10126000012385F83130EEE7A27A02F001039F42B4
:101270006ED04FF000096B6F002B40F0C780B5F8BF
:101280004830B3FA83F35B0903EA161385F871302B
:10129000099B002B40F0C0806A8C95F885301107BF
:1012A00004D595F86820002A40F0B680012B00F2A2
:1012B000B380EB6E01209847002800F0AD8095F8D0
:1012C0003060002E40F0A880637E83B10123039636
:1012D00004F180010420CDE90463FB23029304F1AF
:1012E0009003CDE90063D4E91C2305F097F994F845
:1012F0001C219621002004F087FEEB6AB5F84870A7
:101300009A7E93F81C11069395F8503003EB8203F4
:10131000FF2B04D1069B93F81D318B4202D0FF2096
:1013200004F042FD3A480022D0F82CB08DF831206C
:101330009BF80850ADF83220062D00F2AD81DFE8B1
:1013400015F0C2008A018D018D01AB019E019E0145
:10135000B5F84830EBB108F1FF31012919D8298DD2
:1013600041F48051298594F80A118B4206D995F8E9
:10137000303043F0100385F830307AE7696F002988
:101380003FF477AF95F8841019B12020FFF784FD62
:101390006FE70132B8F1030FA2721BD008F1FF32E0
:1013A000012A0CD8002B3FF464AFDDF81C90D4E97F
:1013B0001E32013342F10002C4E91E325BE7002B0A
:1013C0003FF457AFD4E91E32013342F10002C4E9C1
:1013D0001E324EE72B8D01200E4943F480532071BD
:1013E0002B85FFF751FDEDE7A37E0BB105F07AFAEF
:1013F00095F885304FF000090133CDF8209085F83D
:1014000085302B8D43F480632B8534E701233BE744
:10141000400D0020840D002004F06CFFB9F1000F96
:101420004CD101230993AB4D2B8D5A0606D4402095
:10143000FFF732FD2B8D43F040032B85089B63B1F2
:10144000B5F80720B5F805301343E28813431EBFF3
:10145000B5F809300133A5F80930079B002B00F0DF
:101460003281B5F805300133A5F80530002385F841
:101470008530E86A01F0DEFF0D9830B108F05BF8C6
:10148000002202720A9901F0C9FB0E9B33B10022BF
:101490001A720C220A990E9801F08EFB099B002B00
:1014A0007FF4D1AE2B8D1B063FF5CFAE8020FFF72A
:1014B000F3FC2B8D43F080032B85C6E641460EA836
:1014C000FFF714FEADE79BF80E20233A072A04D954
:1014D0009BF80F20233A072A6BD87E4A92F8862081
:1014E000ABF810210DF132010FA8ADF8322000F059
:1014F00037FEBDF83220002800F081800F980028C8
:101500007DD005218BF80810724DA865A5F86420E0
:1015100002B1C21C2A669BF808709BF80A30022FA1
:101520009BF809A00B9307D0053F012F00F2B7806D
:1015300013780327022B0DD0D5F8800007F0A9FF00
:10154000002840F0AE80032F04D000F023FE80F08E
:101550000106F6B206F0010385F87030069B5B7E4B
:10156000002B00F0A080B5F86430002B00F09B80C9
:101570000B9A514633463846FFF716FD686D04F066
:101580002DFE0022D5E9151004F056FF18B9D5E953
:10159000150105F0ABF8012385F8873085F8383060
:1015A000B9F1000F3FF43FAF41460EA8FFF79EFD93
:1015B00039E79BF81C31FFB20B9304F0CBFB454A93
:1015C0000B9BD16A91F80A21B1F80811BA4284BF85
:1015D000D21BD5B2012814BF04220822012B02FB22
:1015E00005F514BF04220822B5FBF2F5394A92F83A
:1015F00086202A44914234BFCAB2D2B270E722B3E5
:101600003448C26A92F85520FAB90DF131020DF151
:101610003201D0F8800007F0E5FEB0B19DF831202E
:101620003AB90280827003228BF80820BDF832207C
:101630006AE70178BDF8322001F00301012908BFF3
:101640004FF0030A8BF808A05EE70022ADF83220C5
:1016500001228BF808202048002255E7BBF8102112
:101660000DF13201D0F88000ADF832200DF13102D9
:1016700007F0B8FE0028D9D14DF647007DE50DF101
:1016800032010FA800F06CFD08B10F9810B945F2B7
:101690004E4072E50622C7E74DF63B606DE5012737
:1016A0004AE7012656E7514633460B9A3846FFF77C
:1016B0007BFCA86D04F092FD05F0E0F80021A86D18
:1016C0000AF0C5FA67E7B5F807300133A5F8073027
:1016D000CFE600BF400D0020BC0D0020064B10B52A
:1016E00093F8382002F0FF0422B91C7601F028FF9D
:1016F000204610BD0C24FBE7400D0020094B0A4A90
:1017000010B51A60FFF7EAFF18B148F67620FEF729
:1017100039FF064C00F0A2FCE06400F0A3FC606519
:1017200010BD00BFFC15002074180000400D002003
:1017300070B5444C054694F8386006F0FF0016B9C1
:1017400009B102B11BB940F60430FEF71BFF636319
:101750009DF81030616284F88430E26684F83000CD
:1017600084F8850084F8310084F88700608420853F
:1017700084F8700084F8710084F86800A065206621
:10178000A4F86400E0636064A4F84800E56204F033
:1017900037FB05F073F895F9240104F091FBD5F8B7
:1017A000D060D5F8C80004F093FB304604F008FD83
:1017B00095F82A0004F096FB09F0B8FC95F81D2175
:1017C00000F15501012004F00BFC1F4B186804F0D8
:1017D000FDFCD5F8BC30C4F88030D5F8C030A36724
:1017E000AB7B233B072B2AD9EB7B233B072B26D94B
:1017F00095F8E63084F88630B5F80A3184F8503030
:10180000AB7E13B12846FFF7F1FB0120FFF784FB05
:10181000E36AD3F8B80104F0FDFC002323606360A1
:10182000A360EB886380B5F8AA30238095F82A304E
:101830002371D5F820310BB101221A6070BD1B2332
:10184000D8E700BF400D0020FC150020014B93F8A5
:1018500087007047400D0020024B93F82900C0F329
:10186000C0007047400D0020014B93F88500704781
:10187000400D0020810F00005111000021100000D8
:10188000050F00002A4B70B51D890C46DE8840F616
:101890004803114622469D4228BF1D46002309F0F9
:1018A000D7F9E2882389B2426088A18828BF3246EE
:1018B000AB4228BF2B46B042E28028BF3046A94247
:1018C000238128BF29461B286080A18002D0B1F562
:1018D000A47F04D11B2A29D0B3F5A47F26D0FF23EF
:1018E0002370E3881B3B9BB2E02B03D947F69A2079
:1018F000FEF748FE63881B3B9BB2E02B02D94DF2FA
:10190000DA40F5E72389A3F5A4739BB2B3F5E06F42
:1019100002D943F25500EBE7A388A3F5A4739BB269
:10192000B3F5E06F02D947F69F30E1E770BD00BF25
:10193000C80D002010B501210020FFF72FF9044643
:1019400068B90121FFF7EEF8044618B946F6BC1055
:10195000FEF718FE034B93F9161009F04AFE2046D5
:1019600010BD00BFC80D0020014B5888704700BF54
:10197000C80D002008B508F074FD00F0ABFD00F0C4
:1019800091FB09F04EF801F0C1FD03F0F7FE0022D3
:10199000074B4FF01B1107481A60074BC3E90001C2
:1019A0004FF4A4719A829A819960DA7308BD00BFDE
:1019B0000016002003021B00C80D0020034B41F657
:1019C0004C521A611B229A73FFF7D4BFC80D002036
:1019D00073B5254D04462B69AE7BC0F8DC30234B34
:1019E000C0F8C43001F094F9002818BF002600F0B8
:1019F00049FB830684F8E46053BF1B236B88AA88E5
:101A00001A46A4F8F8301A4BA4F8FA201B6823B140
:101A100094F92411B4F8AA009847164904F1A800D3
:101A200008F0D2FA01236A8804F1BC006978A4F8AE
:101A3000DA300332AB88019192B2297803330091F6
:101A40009BB204F1C001FFF71BF9D4F8BC301BB9FD
:101A500042F20B20FEF796FDD4F8C03013B94FF6D2
:101A60005420F7E702B070BDC80D002000093D000A
:101A700004160020D20D0020024B1B6803B118474A
:101A80000C20704700160020034B5A8802801B78F8
:101A900083700020704700BFC80D002038B58378E0
:101AA00005461A2B08D8042B04D9124A22FA03F34C
:101AB000DB0705D4122417E0292B01D03B2BF9D1E9
:101AC0002888B0F5706FF5D208F075FD70B190F808
:101AD000282102F0FF045AB9AA7880F82921FF22B0
:101AE00080F8282107F066FF204638BD0224FBE776
:101AF0000C24F9E7200038040188A1F11B039BB2F4
:101B0000E02B0CD8428844F24810A2F5A4739BB293
:101B1000834204D8034B0020D9801A8170471220D9
:101B2000704700BFC80D002038B50278447802F035
:101B3000010302F0020254EA030101D1112038BD71
:101B4000D2B98578002DF9D0002B18BF002400E011
:101B50001D46204607F0A7FE0028EFD0284607F0D4
:101B6000A2FE0028EAD0074B00201A7B9C7222F0CC
:101B70000302DD721A73E2E7002BE9D00024254648
:101B8000E7E700BFC80D002010B5008808F023FD6E
:101B9000D0B190F83A2112B13A24204610BD90F805
:101BA000602002F0FF04002AF6D190F85720920737
:101BB00005D1FF2280F83A2107F0FCFEEDE703494A
:101BC000583008F055FFE8E70224E6E783B000004C
:101BD000F7B5077805460C46EF2F0FD890F901208E
:101BE0004378002A0ADB8278900707D113F01000AF
:101BF0001DD1990603F0030202D51AB1122442E066
:101C0000032AFBD01E07F9D42979EA78EE7942EA53
:101C10000122697942EA0142A97941EA06212E7A34
:101C200041EA06418A42E9D81F2A0FD8E6E713F0B5
:101C3000600FE3D103F00702052A05D003F00F017E
:101C40000D22CA40D107D9D51A07DDD56A7A013AE3
:101C5000062AD3D8AA7A032AD0D813F0040102D1D5
:101C6000023A012A03D8EA7A012AC7D811B9AA7C14
:101C7000032AC3D82A7D48B1012ABFD12A7E012A6E
:101C8000BCD830B91124204603B0F0BD022AF5D1EA
:101C9000B4E7DB0712D46B782A7D03F01803082B16
:101CA00011D1022AEED101213846FEF777FF064610
:101CB00078B109F053FCB8B10C24E4E700F0A2F9C4
:101CC0000028E8D1DEE7022AEDD02B7F002BEAD0F6
:101CD000D8E701213846FEF725FF064640B3154BED
:101CE00093F9161009F085FC304609F071FD29467C
:101CF0002070E874304609F0C2FCEB7E0446002BED
:101D0000C1D00028BFD10246B16A684607F0BDFCC9
:101D10002246B06A012107F003FDB16A6846042239
:101D200007F0B3FC22462146B06A07F0F9FCAAE7A7
:101D30000724A8E7C80D002030B502798BB0034610
:101D4000042A4FD84088B0F5804F4BD8264900244C
:101D50008D5C1144ADF800404A798DF8084042F09E
:101D600010028DF8244042EA45028D7AC97B42EA8E
:101D7000850242EAC102694602F01F028DF8002086
:101D8000BDF80020ADF809201A888DF80E00000A71
:101D90008DF80B20120A8DF80D408DF80C208DF86F
:101DA0000F008DF810405A7BD3F807008DF81120F2
:101DB0005A79059002A88DF812209A798DF813208F
:101DC000B3F80B209B7BADF818208DF81A307F23D9
:101DD0008DF81B304FF00113CDE90734FFF7F8FE03
:101DE0000BB030BD1220FBE7306B030073B5064625
:101DF000FFF7A0FD044609F0F6FC33780546012BF9
:101E00005ED1204609F028FC002879D0204609F050
:101E1000EAFC18B115B9122002B070BD204609F0D5
:101E20009DFB08B10C20F7E7204609F0D3FB0646DE
:101E30000028F7D1204602F0E9FC0028EBD0ED01A4
:101E400042F2107331462046ADB25D4309F0B7FC53
:101E5000204609F0C0FC014650B92A46204601F050
:101E60006DFF08B90020D7E74FF68800FEF78AFB20
:101E700031460DF10600FEF71FFE064608B90D209B
:101E8000CAE7BDF8061008F0BDFB3146204609F050
:101E9000AEFC3046FFF79CFD2A463146204601F055
:101EA0004DFF024610B141F2D770DFE7154B9B6939
:101EB000002BD7D006F5957106F1A8009847D1E719
:101EC000002BA8D1204609F0C7FBC8B1204609F075
:101ED00045FB0028C6D0204609F027FA05462046D3
:101EE00009F026FA014600289CD1002DBAD0B5F899
:101EF000AA00FEF769FE0028B4D04FF2E370B5E700
:101F0000422089E7C80D00200278034672B142786A
:101F100062B142881A2A09D982881A2A06D9006829
:101F2000034A106000209B889380704712207047FE
:101F3000C80D002002680020014B1A61704700BFE5
:101F4000C80D00200378A3F10A02112A9BBF024AA0
:101F50000020122093737047C80D002008B505209B
:101F600000F084F803F0CAFB014B024A9A6108BDF5
:101F7000C80D00208518000008B50122094B1A7011
:101F800002F034FC09F0FEFD08F069FAFFF7B6FB39
:101F9000002007F048FB00F047FDBDE8084002F0D4
:101FA0001DB800BFE40D002010B5064C0649201DE9
:101FB00007F0BCFF04F108000449BDE8104007F039
:101FC000B5BF00BFE40D0020A8000020B000002035
:101FD00010B5084C0849201D07F0A8FF04F10800BF
:101FE000064907F0A3FF04F10C000549BDE81040C5
:101FF00007F09CBFE40D0020C0000020C8000020B6
:10200000B8000020014B1878704700BFE40D002095
:1020100010B5064C00F0E6FC606807F07FFFFFF7A4
:10202000CDFC00F0ABFE0123237410BDE40D0020B5
:10203000014B187C704700BFE40D002010B5064C22
:10204000A06807F06BFFE06807F068FFFFF792FCFD
:102050000023237410BD00BFE40D0020004870472A
:10206000F50D002000487047F70E0020C208044913
:1020700000F0070001238340885C03438B547047C2
:1020800070000020014BD3E9000170477000002070
:10209000034B1868C0F30020400040F00100704777
:1020A0007000002008B505F077F90023074A32F8E0
:1020B0002310814205D302EB83029378044A137004
:1020C00008BD01330C2BF2D10023F7E7446B03006A
:1020D000F90F002008B5B0F8AA3080F85911A0F81F
:1020E0005A3190F81C31012B05D0022B03D04EF24F
:1020F0003F70FEF747FA80F85C3190F81D31012BF4
:1021000001D0022BF3D180F85D3100F5A8700249AF
:10211000BDE8084008F0ACBCB39F0000024B0022B1
:1021200083F822209A847047FA0F0020044B93F81A
:102130002220012A1ABF036001200020704700BF3F
:10214000FA0F0020054B024693F8221001291BBF0D
:1021500001209A84002083F822007047FA0F0020A3
:10216000054B024693F8220020B1136009B19B8C05
:102170000B800120704700BFFA0F0020044B0022A3
:1021800093F822009A8410B1012083F8222070472E
:10219000FA0F0020034B93F82200B0FA80F04009B8
:1021A000704700BFFA0F002050B90A4A01201346B9
:1021B00003F8010B0868C2F801008A889A8070470A
:1021C000012805D1034B0A68D8719A608A889A81E0
:1021D000704700BF2010002050B90B4B187888B111
:1021E000D3F80120B3F805300A6001208B807047D6
:1021F000012806D1044BD87920B19A689B890A60DE
:10220000F3E70020704700BF2010002010B9044BF6
:1022100018787047012806BF014BD8790020704715
:1022200020100020F7B58A8800238DF80600ADF84D
:10223000042008680B4A8DF807300146147802F52F
:10224000A872019DD8B2844201D8082007E052F854
:10225000087F01335668AE4208BF8F42F2D103B007
:10226000F0BD00BF30100020084B0146002230B501
:102270005C7803F20113D0B2844201D8082004E054
:1022800013F8015F01328D42F5D130BD30100020CE
:10229000F8B52D4C63782218013B92F80251DBB25D
:1022A0008342637030D01A010101961C8F1C2644B2
:1022B000274406F1100C56F804EB664547F804EB8A
:1022C000F9D1823282312244214402F1100652F8BF
:1022D000047BB24241F8047BF9D1E118221891F84D
:1022E000026182F8026106267343704303F5857329
:1022F00000F58570E618E35827182350B388BB8093
:1023000091F83A3182F83A312846FFF7ADFF0828B4
:1023100018D12378013BDBB29D42237012D02B33BE
:1023200005F12B0204EBC30304EBC20293E80300A4
:1023300082E803002078FFF797FF08281CBF2418C5
:1023400084F80251F8BD00BF30100020F0B5254DD3
:1023500089B095F8984105F299116846224606F031
:1023600051FD2146684608F09BF80446B8B300EBDF
:10237000400102A8C9B2FEF769FD631E95F8A1618C
:102380000124DBB295F8981105E0721CB2FBF1F064
:1023900001FB1022D6B206F120020DEB020010F86C
:1023A000202C002AF1D103EB430100F8204C06EB6E
:1023B000460220312A44694411F8187C82F8A2713F
:1023C00011F8177C11F8161C82F8A37182F8A41179
:1023D000013BAA19DBB282F89941FF2BD2D109B097
:1023E000F0BD00BF3010002070B5064688B00C4626
:1023F000002A4ED0294A92F8A131D01890F89911AC
:1024000019B941F64F20FEF7BDF803EB4301013344
:10241000114491F8A251E57091F8A35191F8A411DB
:1024200025716171002180F8991192F89811B3FB20
:10243000F1F001FB103382F8A13192F8C23123B9D7
:10244000174902F5DD7008F010FB65790D220021B7
:10245000684605F03F0545F0400565710AF05DF8F6
:10246000E37804AA69468DF80F30304623798DF859
:102470000D508DF80E30042309F0B9FF9DF81F3080
:1024800023709DF81E3063709DF81D30A37008B056
:1024900070BD03216018FEF7D9FCD6E7301000208C
:1024A0004D230000044B5A78824286BF1B1893F8D4
:1024B0004A010020704700BF30100020044B5A78BA
:1024C000824286BF1B1893F842010020704700BF6C
:1024D00030100020064B00224FF461711A8083F8FF
:1024E000C32183F8C421A3F8C61183F8C221704721
:1024F000301000202DE9F04782468946174698465D
:10250000FFF790FE08280546064603D0FFF7ACFE0D
:10251000082860D1324C6378072B5ED8082D15D17E
:102520002678731C072E237003D94FF6C370FEF76D
:1025300029F806F12B02D9F8000004EBC20344F895
:102540003200B9F8042083F806A09A80657807F174
:1025500010026B1C290163704B1C234412F8010DFF
:10256000BA4203F8010FF9D1813108F11003214477
:1025700013F8012D984501F8012FF9D125441021B8
:10258000404607F0BDFF102185F84201384607F0AC
:10259000B7FF85F802616678002385F84A01314665
:1025A000104885F83A3107F07BFF0128054607D827
:1025B00031460D4807F074FF002818BF0135EDB211
:1025C00084F898510025284684F8A151FFF7BEFEF3
:1025D0002846BDE8F0871220FBE70720F9E700BF97
:1025E00030100020721100207A110020064B10B527
:1025F0005878013840B2002800DA10BDC4B2204635
:10260000FFF746FE601EF5E730100020014B83F80F
:10261000C301704730100020014B93F8C30170478D
:1026200030100020431E4AF2B7129BB293429DBF66
:10263000024BA3F8C6010120002070473010002093
:10264000014BB3F8C6017047301000200A4B30B57B
:102650005C7884420ED9184490F802012B3003EBC9
:10266000C004A5790D7053F8300010600120A388D4
:10267000938030BD0020FCE7301000200246074860
:1026800010B590F8C34124B1417821B1023003F074
:1026900097F8204610BD0C46FBE700BF3010002025
:1026A0002DE9F74F2F4C9A4680468946637883423E
:1026B00056D9231893F8425185F00105F9B193F8E2
:1026C0004A31E3B945F002070135BAF1000F18D1DC
:1026D000FA070AD5062104EB0810524601FB08410F
:1026E000823001F58571FFF77FFEBB0734D504EB1F
:1026F0000810524649460230FFF776FE2CE02F467E
:10270000E3E794F8A1614FF0010B002DE0D0A3198D
:1027100093F89911019399B90092DAB100F0FEFA99
:10272000019B06EB4601009A4FEA102C83F899B101
:10273000214481F8A201000C81F8A3C181F8A40111
:10274000013694F89831013DB6FBF3F103FB1166B5
:10275000F6B2DAE747F00407384603B0BDE8F08F79
:102760000027F9E730100020074B5A78824209D938
:102770001A1892F842212AB9062202FB003000F50D
:10278000857070470020704730100020064B5A7843
:10279000824281BF1B1893F83A01B0FA80F04009D9
:1027A00098BF0020704700BF30100020F8B50E46DB
:1027B000074606211546304607F0A2FE044670B1D2
:1027C0000C4B0022587803F23913D1B2884202D858
:1027D00001242046F8BD013203F8015FF5E73146D8
:1027E000384607F079FE0828F3D0024B034483F8FB
:1027F0003A51EDE730100020034B80F87C101B6845
:102800000BB1408818477047081600200B2808B500
:1028100003D94FF28250FDF7B5FE024B33F810009A
:1028200008BD00BF746B030030B50024D0F8C4307D
:1028300042F21075A0F84440B0F848405C43B4FB45
:10284000F1F4A0F848404C1E05FB0242B2FBF1F245
:10285000A0F84620094AB2FBF1F20132A0F84C2060
:10286000B0F8402005FB0244826B5343B4FBF1F403
:10287000B3FBF1F3C463836330BD00BF005A62024F
:102880000346084671B13F2B0BD8074AD35C03F0CF
:102890007F02914205D08CBF0120002000EAD310B6
:1028A00070470120704700BF8C6B0300FF230B7043
:1028B00002234B7083238B70014B1B78CB707047C6
:1028C000FC1100202DE9F84FD0F804800C46D8F810
:1028D0001860304606F01DFE054618B94DF2DF308F
:1028E000FDF750FE0146304606F021FEB5F800B077
:1028F00082461FFA8BF717B94FF64970F0E7224B63
:1029000000F103091B68D3B998F8023098F8032046
:102910002370637802F00F02A4F802B023F00F03D3
:10292000134323F0C00363709AF8003003F00303ED
:10293000012B0FD0022B0DD04BF2EC00D0E73A4622
:102940004946B8F80200984705460028DCD12846D9
:10295000BDE8F88F6278304663F30512627006F0C6
:10296000ECFD054610B94EF65B00B9E7FB2F02D926
:1029700042F2D120B4E73A464946201D06F042FA19
:10298000304606F075FDE2E71016002038B5134C0E
:1029900010220021201D09F0C0FD0125257404F13D
:1029A00008031022002104F11400C4E9013309F0E6
:1029B000B4FD84F8205004F11803094AC4E9053332
:1029C00000236362A36284F82C30C4F82D30C4F86D
:1029D000313084F835301360A36338BDFC1100201A
:1029E0001016002010B5074C2378FF2B03D040F2BF
:1029F000B250FDF7C7FD06F06FF92070BDE810403A
:102A0000FFF7C4BF7D00002010B5034C207806F00E
:102A10007DF9FF23237010BD7D000020014B187845
:102A200006F084B97D000020014B024A1A6070470D
:102A30000C160020C52800002DE9F341DFF86C8159
:102A4000054608F11407D8F80830D8F81840227A5B
:102A5000012A23D1D8F8382052B1137A1BB94BF28E
:102A6000A730FDF78FFDD8F83840CCB9002085E0BD
:102A70001A7A012AFAD01C464D4AEFF3108172B639
:102A800050680068506001B962B6A34208BFC8F838
:102A90003840237A23B947F61930E2E73A46ECE7A3
:102AA000267AF6B205232372731E0B2B6FD8DFE84C
:102AB00003F06B062235686E3E6E6E6E6E5C636868
:102AC00013B94FF20E00CCE7204629469847042060
:102AD000EFF3108272B6237A052BD9B24FF00003C0
:102AE0005AD12372D8F83810A14201D1C8F8383031
:102AF000BABB62B635E0636813B947F2B840B0E7D5
:102B00002946204698470346ADF80400C0B2C3F3F7
:102B10000723012B30D0022BDAD11BE0636813B9F5
:102B20004BF29B609DE7204698470020D0E7636802
:102B300013B94CF2CB6094E786222A70012259889F
:102B4000AA706A7100225869A5F80310AA7106F0EC
:102B50008FFC0420D8F83830A34202D10023C8F8F3
:102B6000383000283FF46FAF08E0124B294620466A
:102B70001B689847034668B9267298B102B0BDE851
:102B8000F08143F26B206CE74DF6672069E747F66A
:102B90006B0066E70220DDE711B944F6380060E714
:102BA0001846A5E7002B7FF44EAF5FE7FC1100202D
:102BB000001200200C160020134610B5027A1AB13C
:102BC00044F28140FDF7DEFC0A4601460248BDE8BA
:102BD000104007F028BF00BF00120020044890F802
:102BE0002C301BB90349243007F039BF704700BFB0
:102BF000FC11002017AA00000346064890F83C206C
:102C00003AB190F8352022B9034900F82D3B07F07E
:102C100026BF7047FC110020AD2800000A4610B501
:102C2000037A1BB143F29510FDF7ACFC0146072374
:102C30000248BDE8104007F0F6BE00BF10120020A9
:102C40001346027A0AB1037270470A4601460148E8
:102C500007F0E9BE0012002000F10C034FF01B1238
:102C600003621B23C26203838382038642628386DC
:102C70004381C26039B94FF4A473034A4383C382CA
:102C8000026143868262704748014801014907F0AA
:102C9000EFBE00BF77AA00002DE9F84380469E1DD5
:102CA0000D46008E9DF82410164407F0FDFEB8F87E
:102CB00032709DF820908742494628BF0746B8F8F1
:102CC0002400BFB2BB19AB4234BFED1A002507F098
:102CD000EBFEB8F828400D4B84421B7828BF044611
:102CE000A4B283B998F80800494607F0DDFEA8426F
:102CF0000A9B38BF2846844288BF84B2E0191C80F2
:102D00003044BDE8F8830020EEE700BF3912002010
:102D1000014B1878704700BF39120020094AD2E9E8
:102D20000003434083EAB01181EA43214FEAF343B1
:102D300011605360044B58434FEAF06000EB800091
:102D4000704700BF3C120020BB79379E094AD2E988
:102D50000003434083EAB01181EA43214FEAF34381
:102D600011605360044B58434FEAF06000EB800061
:102D7000704700BF80000020BB79379E10B50A4C19
:102D800008210948FEF762F8D4E900321343F7D06E
:102D9000064CFFF7DBFF2060FFF7D8FF2368606079
:102DA0001843F6D010BD00BF800000203C12002068
:102DB000174B184A9A60184A5A60184A1A60184AFB
:102DC0009A62184ADA62184ADA60184A9A61184A0E
:102DD0001A63184A1A62184ADA64184A9A64184A36
:102DE0005A62184B184A9A60184A5A62184ADA62AC
:102DF000184A1A61184A5A61184A9A61184A1A639D
:102E0000184A9A64184ADA64184A9A63704700BFED
:102E100018160020CDAD0000EFAD000051AE00004F
:102E200007AF000049AF00004931000059AF000072
:102E3000A9330000413200000DB0000023B00000B3
:102E40008D32000018170020E1AD0000E3AF000054
:102E500073AF00002DAF00008FAF0000C93100003C
:102E6000A5B000004FB0000043B00000CFAF00009D
:102E7000044B054A5A65054B054A1A65054A5A65C9
:102E8000704700BF1816002051B10000181700202D
:102E90003DB10000B7B10000054B064A9A65064AED
:102EA0001A66064B064A9A65064ADA65704700BFFD
:102EB00018160020A5A100005DA200001817002030
:102EC000F9A00000CDA3000037B5044601A80D46C7
:102ED000FFF72CF918B947F2B370FDF753FB002147
:102EE0002222019809F019FB019B194601F8035FA2
:102EF000023D232D79D8DFE805F02378127B7B2370
:102F00007828787B2E3A3D7878417B7B4949575722
:102F100078787878787878787878785D6871D4F887
:102F2000C6210D205A60D4F8CA219A60D4F89420A2
:102F3000DA60FFF707F900285CD14DF6FD50CCE7C9
:102F400094F8A02002201A71F3E7204600F0F2F96D
:102F50000028EED131E0112206201A7159225A714F
:102F600000229A714522DA7130221A72E1E794F850
:102F70009A20E7E7084600F0CBF9E9E794F89B20B0
:102F80001A7194F89A2003205A71D2E7D4F8FC20E1
:102F9000092091899980B4F8A210D98012891A81E8
:102FA000B4F8A0205A81C4E794F836211A7194F835
:102FB0003721E8E7104B1B6813B94EF6D2008CE7B7
:102FC0002320224698470420B3E70B4B1B68002BB5
:102FD000F3D02246242098470520AAE7064B1B6819
:102FE000002BEAD022462520F5E740F28B5074E70B
:102FF00001209EE703B030BD141600203F289ABF81
:10300000024B53F820000020704700BF1816002024
:103010003F289ABF024B53F820000020704700BFA2
:103020001817002073B50446D0F8BC504FF6FF7651
:103030000DF102010DF101022846ADF8026006F023
:10304000D1F901A9284606F0EFF948B1019806F038
:1030500072FA0022027204F1A801FFF7DFFDE7E730
:10306000034904F12E0002B0BDE8704007F0FABC3D
:103070005FAD0000F0B5044685B00D46FF2600F8B0
:103080008D6C10F88E3CF3B1174F3B781BB142F6B4
:103090000970FDF777FA0C21381DFDF7D7FE3E7059
:1030A000002304F88D3C8A232A4602F8033BD4F817
:1030B0000930C5F80330D4F80D305360D4F811301E
:1030C000936005B0F0BD01A80C21FDF7BFFEA4F58B
:1030D000E473039A1A6001AB03CB44F8960C44F8EE
:1030E000921C04F88E6CDBE74412002010B5054CEE
:1030F00023782BB90C21201DFDF7A8FEFF23237098
:1031000010BD00BF44120020024690F8CE31BBB97A
:1031100090F8CF3103F0FF010BB100207047094B4D
:1031200018780028F9D01970D9680433C2F89410BF
:1031300003CBC2F8C601C2F8CA11FF2382F8CE3110
:10314000012070474412002038B5C37B04460D4669
:103150003BB1122B05D0103B0F2B8CBF0120082058
:1031600038BD94F8563013B9204607F0C1FDD5F8A4
:103170000B30C4F8BE31D5F80F30C4F8C231D5F8E1
:103180001330C4F89030B4F8AA30A4F86532D5F8FA
:103190000130C4F86732D5F80530C4F86B32B5F8A1
:1031A00009300025A4F86F3284F8935184F8CE5189
:1031B000044904F5177007F052FC15232846E37301
:1031C000CEE700BF7530000010B5C37B04461F2B4F
:1031D00003D04EF21400FDF7D5F9002290F85630D6
:1031E000B0F8AA1080F85520BBB180F8562090F8AE
:1031F000930194F89431A4F89F1184F8A20104F289
:1032000095100D4984F89E2184F8A12184F8A331FA
:1032100007F02EFC0023E37310BD0122A0F88E11ED
:1032200080F88D3100F5C2700273437383730374A9
:10323000024907F014FCEDE7EFAE0000D7AE000046
:1032400038B50368044613F0010519D1D1F80120FF
:103250000C4BD1F8051013400B4AC0F86630C3F38D
:1032600007630A4043F00803C0F86A2080F8693019
:1032700007F03EFD2368284643F00103236038BD74
:103280000120FCE72FC904F7EFDB008010B5837B3A
:10329000042B28D1D1F801304A1CD1F80540C0F8E0
:1032A0006630C3F30763C0F86A4043F0080380F850
:1032B0006930002380F84E30837390F8663103F054
:1032C000FF040BB1002010BDB0F8AA3000F5AF70BC
:1032D00044724381D1F801300449C36053680361EB
:1032E00007F0BDFBEEE70120EDE700BFA5AF000052
:1032F00090F866314BB9B0F8AA3000F5AF700349C9
:1033000043811A23437207F0AABB7047A5AF0000A0
:1033100010B50446FEF7B6FE044A054B02400920EC
:103320000B40C4F80120C4F8053010BD2FC904F7C4
:10333000EFDB008037B50C460546FEF7A3FE0A4BCF
:103340000A4A03400A4095F8661000930B40019228
:103350008DF800306B4603CBC4F801000920C4F897
:10336000051003B030BD00BF2FC904F7EFDB0080AC
:1033700038B5DB04154604D5837E13B1002383637F
:1033800038BD846B0134846307F06BFEC36B9C42D1
:10339000F6D30023034983632846BDE8384007F08D
:1033A00067BB00BF01B0000010B5837B0446012B52
:1033B00002D00368980738D494F857309A0713D48A
:1033C0004A78D80784F861204A88A4F862208A885D
:1033D000A4F8642043F0020284F857200FD5144962
:1033E00004F1580007F044FB94F85730D90711D482
:1033F00023689A0708D54CF6C610FDF7C3F894F871
:103400003A31002BEBD1EFE743F002032046236073
:1034100007F06EFCA37B012B4FF0000301D00020CE
:1034200010BDA37384F84E30F9E70120F8E700BF20
:1034300083B0000010B5044602F07EF9044B01464B
:10344000E0721B681BB12046BDE81040184710BD54
:103450001C180020024B1B6803B11847704700BFBF
:1034600018180020F0B51F4D00242B7814709BB164
:10347000013B6D68DBB21E1B012E0FDC05EBC406A1
:1034800055F8347076688E4208BF874227D0B8421C
:1034900071EB060612D214700020F0BD1E197710D1
:1034A000C6F3470655F837C005EBC70E8445DEF86E
:1034B00004708F412CBF33463446DCE705EBC30470
:1034C00055F8335064688C4208BF854206D0A84244
:1034D00071EB040428BF01331370DDE71C460120A3
:1034E0001470DAE76412002010F0070208B503D068
:1034F00042F24F40FDF746F818B1034B197258607D
:103500001A70C80008BD00BF64120020014B0022E1
:103510001A70704764120020FF23084A0B700D23B5
:103520004B7082238B701368C1F803305368C1F865
:1035300007309368C1F80B30704700BF7A12002043
:1035400016220021014808F0E8BF00BF7A120020CF
:103550000B4B5A7D92B14A0610D5B0F8AA20094902
:103560001A80D0F830225A60D0F834229A60C2888B
:1035700003F10C005A800222FFF762BB704700BFC4
:103580007A12002019350000094B53F8203003F55A
:10359000224370B5B13316464FF47A720C46B3FB32
:1035A000F2F5344402F038FF2C44204470BD00BFD3
:1035B000946C03002DE9F04F91B00446894690F8D1
:1035C0001DA198460592002B40F08480437BB3F107
:1035D000000B18BF4FF0010B06F0E9FC064694F80B
:1035E0002701FFF713F9064407F0A0FDE37BB6B20D
:1035F00000F12C070493059B002B4BD1637B032B1D
:1036000048D1049B0C2B32D1B4F84C324B452ED10F
:10361000D4F8E8312046B4F8BC21C4F8D831D4F845
:10362000C430C4F8DC31B4F842321344C4F8E03199
:1036300002F030F8D4F8542241F64B5194F8253179
:10364000C4F8C4208A428CBF002303F00103D4F8DD
:103650005012D4F85822C4F8D41084F8263102232A
:10366000B4F84E12C4F8CC20A4F8D8106373E37BEE
:10367000A17B282B01D028290CD1B4F84C32A9EB1E
:1036800003031A0406D4A1F12803204659425941E4
:1036900001F0F2FBB4F84052B4F806C0A9EB0505FE
:1036A00094F81D31A9EB0C0C2DB202930FFA8CFC8F
:1036B000002D12DA6546D4E98A23C4E98E2301225B
:1036C000637B032B00F26981DFE813F009000D0131
:1036D0005E0031014FF0000B7EE74246F0E701212A
:1036E000002006F053FF8246D4F8D40031465044FF
:1036F00003F008FE3146C4F8E401D4F8C40003F036
:1037000001FE09A9C4F8E8010AA802F003FE099B1A
:103710000093DDE90A23D4E98E0108F00DFB029045
:1037200004F1A80007F070FDD4F84422D4F8D46066
:1037300094F81D01164402F077FED4F8E41100F568
:103740002240A6F12005029BB1303A466D1A303175
:10375000ED1B5544ED1A4FF47A73B0FBF3F0B4F857
:10376000D8302D1A94F81D0103EB4101FFF70CFF2F
:10377000D4F844320646C4F8EC01EB1AB92B5FD8F2
:1037800048F6DC00FCF7FEFED4F8D4303146D4F81D
:10379000DC01184403F0B6FD3146C4F8E401D4F866
:1037A000C40003F0AFFDC4F8E80104F1A80007F07D
:1037B0002BFDD4F8D430D4F8DC511D44B4F8BC311E
:1037C000002B40F08C80B8F1000F00F0888094F856
:1037D0001D0102F029FED4F8E41100F522406D1A13
:1037E000B130203DD4E98A23CDE90223D4F8303228
:1037F00094F81D211D44029BED1A8E4B53F8222094
:103800004FF47A7302F2E732B2FBF3F2B0FBF3F05B
:103810001544ED1B2D1AD4F8E021D4F8D83194F8D2
:103820001D0102FB0313B4F8D8103A46303301EB04
:103830004301FFF7A9FE01230646C4F8EC016373B8
:10384000102200210CA808F068FE7B4BD4F8E82178
:1038500004F1DC000D9301238DF83D30D4F8C43021
:10386000653B9B1ADB1B9E4228BF1E46D4E98E3265
:10387000C4F8B8615B1942F10002CDE90A3207F0E1
:1038800023F93044A4F840920C90DDE90A23C4E9FE
:103890008E23B4F8A831A3EB09031BB2002BD4BFCD
:1038A000002301235B008DF83C30049B0C2B77D068
:1038B000BBF1000F00F0AD80D4F8C4100AA8D4F812
:1038C000E831C91A06F028FE80B2002800F0AE8068
:1038D0001A9B03B11880012011B0BDE8F08FD4F815
:1038E000E4116D1A97E7D4F8E821D4F8C430D4F87D
:1038F000E0619B1AD4F8D801B4F8D8105D43B4F84D
:10390000BC319C44D4F8E431ACEB060C30330CF100
:10391000FF3C00FB063302FB0C333A4601EB43014C
:103920000298FFF731FE0646C4F8EC0188E7D4F8A8
:10393000E8E1D4F8C430B4F8BC11A3EB0E035D4346
:1039400022B319BBD4E98C60D4E98A23B24273EB69
:10395000000002D340F6512014E7364B203E53F8C6
:103960002A004FF47A7AD4E98A23CDE9062300F2BB
:10397000E73300F52240069AB130B61AB3FBFAF3EA
:10398000B0FBFAF01E44361AF61B354461443A4641
:103990000EFB01F130314900C2E74EF69670F1E6B8
:1039A000B8F1000F1CD0B4F8D01129B3B4F8D2216B
:1039B00094F8D431501CA4F8D22102FB033399426D
:1039C0000EDD9DF83C305BB10023A4F8D2018DF8E8
:1039D0003C30FFF7A3F900F00700013084F8D40170
:1039E000BBF1000F18D00AA904F5007008F0AAF97D
:1039F00020B94DF2F530C5E60A46D9E7DDE90A23DC
:103A0000C4E98823059B83F0010384F8F831002082
:103A100062E7B8F1000FC6D10AA904F5007003F0FF
:103A2000A3FD0028EAD14FF28660ABE6B8F1000FA3
:103A3000B9D1D8E7946C03003D3A00007FB5054644
:103A4000A0F50074052900F2BB80DFE801F003B3A4
:103A50002DB9B9AE10F8083CE288E3B1B4F8F631FC
:103A6000934208BFB4F8AC319A1AA4F8AE21E380AF
:103A70002046D4E98823C4E98A2301F00BFAA5F58E
:103A8000D8752B78002B00F08E804F4804B0BDE82D
:103A9000704004F001BBB4F8F4319B1AA4F8AE31C5
:103AA000B4F8F4319BB2E2E708F03EF9D4E98A2396
:103AB000801A61EB0301012871F1000303DA44F677
:103AC0006B60FCF75FFD6FF0010383424FF0000372
:103AD0008B4102DA41F63750F3E7D4F8C4300BB12A
:103AE000B0FBF3F3E17BB4F8F6210C2932D10132BB
:103AF000A4F8F621B4F842320DF10E06E588013340
:103B0000A4F84232B4F846301D44B4F84430013DC4
:103B1000ED1AADB2B4F8F6116B1A180434D40023C0
:103B2000204600961A46FFF745FD01283BD1B4F820
:103B3000F621B4F8A811BDF80E301344521A12043D
:103B40009BB204D5EA1A12F4004F18BF0B46A4F832
:103B5000F631DFE7E1880B449BB2D11A0E044BBF6C
:103B6000013301329BB293B2A4F8F63115F8073C49
:103B7000002BBFD1B4F8AC31B4F8F621934204BFA6
:103B80000133A4F8F631B5E7237E2046002B14BF9D
:103B900008233E2384F83730FFF744FA204607F025
:103BA000F8FF0023637304B070BD04B0BDE870403B
:103BB00005F057BE637B042BF3D041F2940080E7FD
:103BC00040F682407DE700BF2D6300002DE9F843F9
:103BD0000E46044618B94FF62360FCF7D3FC0529BE
:103BE00000F2A780DFE801F00376413DA52E08F042
:103BF00045F9C4E94601204600F028FFD4F80C013D
:103C0000A43808F093F8204607F0EDFD054600BB08
:103C10000146204607F025FD00F1AE06D4F80C0160
:103C2000B04209D2301A0321192838BF192008F0F0
:103C3000F8F860B108F07CF8C4F80C61204607F091
:103C4000E4FD45B12046BDE8F84307F0DFBD01259E
:103C5000F2E70025F2E7D4E94623C4E94023BDE8B2
:103C6000F883BDE8F84302F061BB07F005FD0423CB
:103C70008146884684F8113108F056F807220F462D
:103C8000A9FB023102FB0811D4E940525B1941EB58
:103C90000205D4F8E8203AB159EA080204D0984263
:103CA00077EB050228BF012684F81061D4E9482685
:103CB000121A66EB070694F8301139B9012A76F129
:103CC00000010BDA204600F0C9FE03E0012A76F17C
:103CD0000006F7DB002384F82831C0E7984277EB31
:103CE00005010FD259EA08080CD01B1A65EB070131
:103CF0009A4276EB010005DB012B71F10000A4BFB5
:103D00001A460E460C49012304F1C000914284F882
:103D100029314FF0000384F80831B341B8BF0A4697
:103D200004F5847104F0FEFA002898D143F65A2075
:103D300053E742F6625050E70040420F2DE9F84346
:103D400004460E46154690F8283103F0FF07002B75
:103D500040F0938000F1C00839467822404608F0D0
:103D6000DCFB22464649404608F0F8F8C4F8E86013
:103D7000FF2384F8283166B1FEF7E8FF00F0070062
:103D800020223946013086F8D40106F5007008F08B
:103D9000C4FB40F202434FF00009A4F8103184F84C
:103DA000089103F003FB00F14906204607F01BFDD4
:103DB0000146B6B2B8B306F0FAF800F12801284679
:103DC00089B203F09FFA2844AE3DC4F80C0107F015
:103DD000ABFF3018A4F81E9041F10001C4E9460180
:103DE000012084F8EC0007F0A8FD2D1AC4F8F0506B
:103DF0004FF0FF356FF000414046D4E94623C4E957
:103E00004851002504F58471C4E93E23C4E94023E8
:103E100084F8295142F2107204F084FA30BB42F265
:103E20001860FCF7AFFB2046DFF8589007F019FC4C
:103E3000AE30C4F80C01B9F8000048B1E08B38B1DD
:103E4000FEF784FFB9F80030B0FBF3F202FB130079
:103E5000064407F069FF361841F10001C4E94661E4
:103E6000002DC5D0AD1941F10001C5E72946204616
:103E700007F0CEFC3846BDE8F8830C27FAE700BF10
:103E8000CD3B000090120020034B00229A7042F2BA
:103E900010721A8007F067BA90120020014B9870D8
:103EA000704700BF90120020054B1B6810B51BB96E
:103EB00046F6CC70FCF766FBBDE81040184700BF23
:103EC0002018002073B5044606297CD8DFE801F0ED
:103ED00004241326282D7500837C03F0FF0253B9B8
:103EE00000920123B0F8AC11FFF764FB28B145F252
:103EF0001F70FCF747FB042363730023E288A4F8D8
:103F00004232A4F8F62184F8F93102F0FFF802B049
:103F1000BDE8704003F050BB0323437302B070BD93
:103F200007F08BFEC4E98C01F8E790F81D0107F05B
:103F30005BF96430D4F8E8319528D4F8C4508CBFCC
:103F40000020C0F19600C218954288BFED1A1F4BA1
:103F500098BF00259B7888BF2D1A23B9D4F8DC3090
:103F60009D4228BF1D46D4F8B86104F1DC0006F07C
:103F7000ABFD0644022007F02BFF0221AD1B25EA12
:103F8000E575854228BF0546284607F04AFF10B16F
:103F90002E4407F0CDFE0123BC22314604F1A800D7
:103FA00006F007FED4F8B8316061D4F8C4001844B4
:103FB00002B0BDE8704007F0B9BEA83002B0BDE85D
:103FC000704007F021B94AF6766092E7901200201F
:103FD000014B1880704700BF90120020014B024A2D
:103FE0001A6070472018002023B200000346074AD9
:103FF0001068D3F84920C0F80320B3F84D20A0F88A
:10400000072093F8481006F003BC00BF941200206C
:1040100070B504460E461346807D6588324615F01D
:10402000040118BF04F15701FEF73AFB41070546AA
:1040300021D4C2070BD50123A07D84F84830FEF7B8
:1040400093FB0368C4F849308388A4F84D30AB076C
:1040500001D4012070BD094B01211868D4F85730F4
:1040600084F85610C0F80930B4F85B30A0F80D3071
:1040700006F0D7FBEDE70020ECE700BF941200202C
:1040800038B5C38C04460F4D0133C3F30E03C3840C
:104090002B7C2BB102F014F901F0EAFB00232B7406
:1040A00000232B7194F869302BB101212046BDE823
:1040B000384007F0D2B9637C13B1E28C9A42F4D253
:1040C0000021F3E79412002010B5074C2379012B4F
:1040D00005D1237C1BB102F0F3F801F0C9FBA06904
:1040E000BDE81040FFF7CCBF9412002070B5254CFE
:1040F0002379012B03D046F61C40FCF743FA98B90C
:104100000125237C1BB102F0DBF801F0B1FB002D8F
:1041100036D0A06907F054F968B301F0A3FFE36952
:10412000BDE870409B6818472168A26911F8095BD7
:1041300002F1490392F84820E80906F093F90028B3
:10414000DED00021206806F091FB0028D8D023792A
:10415000A069012B02D044F20110CEE7237905F0CB
:104160000F01E26903F180435269013B52F82330A9
:1041700098470546C5E7A069BDE87040FFF780BFD6
:1041800070BD00BF941200200346074A906903B92E
:1041900009B9FFF775BF1379D26903F1804312693A
:1041A000023B52F8233018479412002003292DE9CE
:1041B000F043054685B0174607D14388980722D4B7
:1041C0000024204605B0BDE8F083428890F86830AE
:1041D000D107DBB2F4D5002BF2D14FF00108DFF8A4
:1041E000D49099F81060BEB106F080F908283870B4
:1041F00015D002AA0DF10701FEF728FA30B941F6F1
:104200004200FCF7BFF94FF00208E8E702A99DF869
:10421000070006F073FF06463B78082B08D1D9F853
:10422000001011F8030BC0F3801006F067FF06467C
:10423000D9F8001005F1500395F84F2011F8030B41
:10424000C0F3801006F00EF9D9F80010044611F8FA
:10425000030BC0F3801006F03FF98146FEF796FA93
:1042600040B1B9F1080F1BD04846FEF71BF980F0AA
:104270000103D8B23A78082A14D01CB9AC7DA21A2E
:10428000544254416A8853079BD4002898D176B988
:10429000EC7C444518BF002C0CBF0124002490E79F
:1042A0000020E7E780F001022240D4B2EAE734467A
:1042B00087E700BF941200202DE9F04F85B0082356
:1042C000052104460DF107028DF80730FFF76EFF58
:1042D000064620B90026304605B0BDE8F08F794F7C
:1042E000396807F112037A7C11F8030BC0F38010D0
:1042F00006F0B8F880460028ECD13B6840F2E2496D
:10430000A16918460D7F10F8032BC2F340122A4012
:104310001D460A77D3F80320C1F8AD208288A1F8A2
:10432000B12015F81F1BA269C1F3801182F8AC10EF
:1043300002A9D3F81F00029028790871D3F80F0062
:10434000C2F8C800587D1D7D000440EA0520DD7CD0
:104350002843C2F8D000B3F8190082F8268109FB7F
:1043600000F0C2F8C4009D7DC5EB451005EB80054B
:1043700005EB85056D00A2F8D850B3F8170009FBCE
:1043800000F0C2F8D400B3F81B00A2F8CC00B3F8D8
:104390001D00A2F8CE0093F8243003F01F005B0943
:1043A00082F8280082F82731A56994F912A005F156
:1043B0001C0006F089F9012385F81C3185F81D31B0
:1043C0004FF0FF0B85F81EB1414605F1DC00FEF70A
:1043D00043FC514605F1A800FEF70EFAA36984F8E4
:1043E000738004F17E01B3F8AA2084F891B0A4F898
:1043F00074204FF6FF729DF80700A4F89220D3F8BE
:10440000C420B2FBF9F2A4F88A20B3F8CC20A4F8B7
:104410008C20B3F8CE20A4F88E2093F8272184F8BE
:104420009020627D5AB394F84820012A27D194F84D
:104430004E2002F0C002402A21D1D4F84920C4F80D
:104440007E20B4F84D208A80082893F8AC2003F130
:10445000AD0504F1840184F8772004F17802D3F8E3
:10446000AD3026D0C4F88430AB888B8004F177015E
:10447000FEF7ECF838B949F24C00FCF783F800225B
:10448000C4F87E20DFE794F8773043F0020384F825
:10449000773004F16A000C4906F0E1FA0B4B002278
:1044A000A0691B683A71002B3FF415AF214698476D
:1044B00011E7A367AB8893800023C4F884308B8016
:1044C000E7E700BF9412002081B500002818002003
:1044D00037B5044640880D4610F0040003D1227918
:1044E000962101F091FD032D04D0052D58D0012017
:1044F00003B030BD08230DF10702294620468DF890
:104500000730FFF753FE0028F1D0237C294DFBB183
:104510009DF8070094F8B630D3B92378082804F141
:10452000B90284F8B7302CD004F1B801FEF78EF848
:1045300018B947F61C00FCF725F894F8B83043F09A
:10454000020384F8B8301C4904F1AE0006F087FA83
:104550002B68042220461A7006225A70FFF746FD87
:10456000616B94F83820286806F071F903232868F5
:104570002B7101F033FE0021286807F068FB002052
:10458000B6E72868034613F8031BC1F3801184F8CB
:10459000B810D0F80310C4F8B9109B889380D2E704
:1045A000064B1B68002BEAD02046984780F001009C
:1045B000C0B29DE79412002069B5000024180020C5
:1045C000F8B504460F4619B300F12005284607F058
:1045D00091F9A0B963881A072ED5284607F09FF9EC
:1045E0000646284607F086F9301AC0B207F0A5F94A
:1045F0003D4A936803442846936007F05AF92846D9
:1046000007F05CF901F06EFC2179252001F0CCFB6C
:10461000354E002394F85620306803704370638849
:10462000103B0D2B5CD8DFE803F0575B530C5B3875
:104630005B5B5B5B5B5B5B382046BDE8F840FFF78C
:104640001FBD06234370202303702046FFF7CEFCD6
:10465000638823F008039BB2152B05D094F8302013
:10466000E16A306806F0E4F8306801F0B7FD002137
:10467000306807F0ECFA022321790020337101F051
:104680003FFC054607B9F06063881B0704D507F0B7
:1046900051F90544C4F8F450F8BD0C2321214370AE
:1046A000034603F8091B52B1D4F857200121C0F882
:1046B0000920B4F85B209A8006F0B3F8C5E7226DB4
:1046C000C0F80920B4F854209A8094F84F10F3E70A
:1046D000062303704370B8E7022303700623F9E74B
:1046E00044F29510FBF74EFF941200204288102AE6
:1046F00010B504D10121BDE81040FFF761BF0B4C9C
:1047000096210279012001F07FFC237C23B101F086
:1047100089F8402001F0C8FD206801F05FFD962176
:10472000002001F0A9FD0123237110BD9412002087
:10473000024B01219869FFF743BF00BF941200208C
:1047400010B5114C237C1BB101F0BAFD01F090F8BB
:10475000A06906F035FE30B12379012B08D048F26C
:104760008720FBF70FFFA069BDE81040FFF788BC6A
:104770002379E26903F18043A069D268013BBDE877
:10478000104052F82330184794120020074810B503
:10479000037903F0FF0433B914222146043007F0F3
:1047A000BCFE204610BD0C24FBE700BF9412002085
:1047B00010B50023084C2371FDF750FC2060FFF773
:1047C000E5FF18B14BF69E30FBF7DCFEE36913B949
:1047D00048F6CD70F8E710BD94120020014B024A54
:1047E000DA61704794120020A44A0000034B044A87
:1047F0001A60044B044A1A60704700BF2418002056
:10480000B9420000281800200FB40000F8B5057D5B
:104810000446AF1EFFB2CDB3012F2CD800F15001DA
:1048200090F84F0005F058FE0828064623D0FDF703
:1048300045FE08BB023D18BF0125012F84F84850F2
:10484000A6758CBF002701276775FDF7F9FE0546A1
:1048500007F06AFA0022144B84F85620E5FB0301A6
:10486000C4E9100111462046FFF7D2FB68B945F2B2
:104870005020FBF787FE0826022D09D104F14901DB
:104880000020FDF7A9FC60B90020F8BD0826F5E777
:1048900004F149010120FDF79FFC0028F4D0012517
:1048A000CBE70025C9E700BF40420F00F0B5434EFB
:1048B00085B00446327902F0FF0312B90278FF2A6C
:1048C00003D14CF69F60FBF75DFEB36080F8693062
:1048D0003B4B684604F1200500933A4B01933A4B59
:1048E0000293F3695B68039301F070FC01F088FAAE
:1048F00001F0E6FC00F0BCFF344801F0E9FA34486E
:1049000001F05EFC284606F0D4FF284606F0D6FFEC
:1049100001F0E8FA2179252001F046FA94F9120015
:1049200001F0CEFA04F12C01A06A04F016FF07464C
:1049300004F13401A06A04F037FF0546DFB1237F9C
:10494000CBB1B4F92650ED43ED0F637D13B9638805
:104950005B0709D56FF00043D4E910129A4208BFF3
:10496000B1F1FF3F0DD19DB930680330FDF786FEF0
:10497000307405B0F0BD002DE7D0657F002DE0D18B
:10498000E3E707F0D1F9D4E9102390429941EAD343
:10499000012229462046FFF73BFB50B1FDF750FEB0
:1049A000054607F0C1F90B4BE5FB0301C4E9100113
:1049B000DAE7002DD8D040F2231084E794120020CB
:1049C00041470000ED40000089410000D6BE898EBD
:1049D0005555550040420F0073B50446FFF766FF7A
:1049E00000212046FFF7ECFD236E0BB101221A6077
:1049F0006388DB0724D50023124EA569CDE9003377
:104A0000FF2373746846FCF703F9C8B9009CA542FC
:104A1000F8D005F1B40395F8B32004F1B40194F88B
:104A2000B30005F01FFD0028ECD094F8AC30B4F8CA
:104A3000B1207374D4F8AD30C6F81230024B9A80AE
:104A400002B070BD94120020A6120020024B9861A3
:104A5000DB691B68184700BF9412002043881B07BE
:104A600010B504460FD583693C2209496A30427269
:104A7000B3F8AA304381FF2380F827304FF6FF7345
:104A8000038505F0ECFFFF2384F8693010BD00BFFB
:104A900081B50000D1440000ED460000D1B5000012
:104AA000CBB50000D9490000C940000031470000E3
:104AB000A04A0000984A0000944A000001380228E9
:104AC00008B503D946F29A50FBF75CFD13290B4B4E
:104AD00006D811290DD8102908D046F61770F3E72B
:104AE0001529FAD103EB4003D88801E033F8100010
:104AF00008BD03EB40039889FAE700BF106C030080
:104B00000C4A137893B9536840B9B3F81001B3F85D
:104B1000003198428CBF0020012070471289120793
:104B200006D5187C073818BF012070470020704751
:104B300001207047B4120020294A38B50346148971
:104B400050681C43402B148104D10421BDE8384037
:104B5000FFF7B8B9802B01D10521F7E703F0030473
:104B6000032C03D143F64F00FBF70CFDDD0706D500
:104B70000C68D1602478062C0FD00B2C17D09C0722
:104B800006D5096809780529117419D00B2921D097
:104B90009B0644BF0823137038BDC47B1B2CEED189
:104BA00000240025C0E91C4501244476E7E7C47BC6
:104BB000112C01BF00244476012480F85640DEE722
:104BC000C17B1729E4D1002400250121C0E91E453D
:104BD0008176DDE7C17B1029DAD10021F8E700BF3B
:104BE000B41200202DE9F04104460D465B4F002928
:104BF00075D13B891A0723D590F89E30FE2B03D13F
:104C00004BF6C100FBF7BEFCFE2380F89E30C37B51
:104C10001D2B04D184F8551006F073F8E573A37BBF
:104C2000232B06D1E37B233B072B94BF2A2324238A
:104C3000A373237C072B02BF02237B7484F89E306E
:104C40003B89DB0716D43B895E076FD4990776D57D
:104C5000387C01230D2884F89F306DD0112877D03F
:104C6000072877D0FEF7D4F90346002865D14FF422
:104C70005E60C7E7E37BF968103BD1F800800F2B3B
:104C800098F8006009D8B31EDBB2092B64D840F253
:104C9000333222FA03F3D8075ED509793046FDF79F
:104CA000EFFD20B93146204606F049F836E0012EE6
:104CB00001D9162E1ED1A07B06F031F830B1A37BAE
:104CC000232B03D0242B06D12A23A3733046FEF7CF
:104CD00095F903461BE0162E14BF022520253B78CC
:104CE0001B0704D5E37B103B0F2B98BF08252846F4
:104CF000BDE8F081112E15D005D8072E14D00D2E49
:104D0000E4D1174B05E0142EE0D1164B1B68002BA5
:104D1000C8D0FA684146204612799847002892D0B8
:104D20000546DCE7104BF4E7104BF2E7227C062A3D
:104D300004BF01227A7489E70D4B204698473B89CE
:104D4000DA06CCD5E37B092BC9D10A23E373C6E786
:104D5000084BF2E7084BF0E70825C0E7B412002043
:104D6000F9BA0000381800203BBB0000FD4D0000E0
:104D700031BA000077BA00009DBA00002DE9F04179
:104D8000A0F10E0600291446F6B208BF1F21172E07
:104D90000AD8012340F25125B3402B4207D113F426
:104DA00060051ED1082E07D00020BDE8F08100214B
:104DB000BDE8F04106F0C5BD937B242B09D1204608
:104DC000FDF788F984F834510023A37384F84E303A
:104DD000EAE72A2BE8D1D27B233A072AF4D91946ED
:104DE000EDE7054B1B68002BDED00A460146204646
:104DF000BDE8F041184700BF2C18002070B54D7871
:104E00000446A5F10E03DBB2152B0BD8012140F2AD
:104E1000512201FA03F6164206D1152B827B21D0CE
:104E2000082B07D0002070BD02462846BDE8704020
:104E300006F087BD242A01D02A2AF3D1204605F0A6
:104E400050FFE37B252BEDD094F867301A212046E4
:104E500023F0090384F86730FDF73CF9002384F858
:104E60003431DFE72C2ADDD1024B1B68002BD9D06F
:104E70009847D7E734180020054B10B504461A6848
:104E800005F0B0FA06212046BDE81040FFF71AB839
:104E90003018002073B5474B0025044600F1A806E2
:104EA00058601D811D705D74FF2380F85030B0F88C
:104EB000AA31DBB190F89E30FE2B17D190F8283143
:104EC000A3B1037C063B012B10D990F829310221B4
:104ED0000122A0F8485080F8A03006F0B4FD02216D
:104EE00084F8B2512046FDF7EFFF03E094F89E10DE
:104EF000FE29F7D1B4F8AE112046B4F8DA30013902
:104F0000B4F8B02189B2B1FBF3F31344A4F8B03183
:104F1000B4F844300B44A4F8443006F0DCFD10B182
:104F2000A36B0B44A363B4F8AA310025012B9CBFEB
:104F30000133A4F8AA3109B184F8B651E37B84F8AF
:104F4000B251093B012B0FD8E388B4F84C229B1ACD
:104F5000190409D404F24E2104F11C0005F0B4FB3D
:104F6000E573FF2384F84F30B4F8AE213146204674
:104F700005F0F1FBE37B104A2046103B0F490F2B55
:104F80008CBF0023012300930D4BFCF7D1FB237B47
:104F9000DA0703D500212046FDF79CF8237B9B0709
:104FA00003D504F24710FDF771FE0023237302B00E
:104FB00070BD00BFB4120020014B0000394B00004F
:104FC000C54F00002DE9FF47AB4F0E46804639899B
:104FD0007C688805204655BFB4F844200023013280
:104FE000A4F844304CBF84F8B631A4F8442006F04D
:104FF00072FD38B10B4604F59F7204F1A8012046FA
:10500000FEF7B6F93B8903F4C06323B1237E002B7E
:1050100046D0032B4AD0227E3B89012A03D11A05B0
:1050200044BF02222276B8F1000F40F08D805D0669
:1050300057BFB4F8D0214246013292B2A4F8D02131
:1050400003F00A020A2A0DD13A7C022A0AD123F07F
:105050000803314620463B81FFF7C4FD3043082357
:10506000C6B23B8131462046FFF7BCFD94F89E3026
:105070003043FE2BC6B238D1BEBB237C063B012B8E
:1050800033D994F82831ABB194F8293101220221A7
:10509000A4F8486084F8A030204606F0D4FC24E050
:1050A000012121762046FEF70DFFB4E702230121FE
:1050B0002376F7E7E37BA3F10F02D2B2102A40F286
:1050C00013812368D80702D532460921E4E79907FE
:1050D00040F18D8032460C21204606F0B4FC94F855
:1050E000573043F0010384F85730B4F8B03194F8E6
:1050F000B3510133A4F8B031002D00F0F581FCF775
:10510000ABFB10B10023A4F8B031217E012940F29D
:105110001D82237C072B40F0FF81B4F84430022B22
:1051200040F21482B4F846500135ADB2E3882B4406
:10513000A4F8A83194F8B431002B00F00B820123BD
:10514000E2881344A4F8AC313B895D0657BFB4F83C
:10515000BC310023B4F8AE219B1858BF9BB2A4F811
:10516000BC3194F828311BB9237C063B012B06D8AF
:10517000B4F84830B4F8AE211344A4F8483094F899
:105180004E1031B1B4F84A30B4F8AE211344A4F84B
:105190004A3094F95420002AC1BFB4F85230B4F810
:1051A000AE011B18A4F8523094F8373063B9B8F147
:1051B000000F40F058827B7C022B40F0118294F863
:1051C000A030062B18BF162394F8362022B92046AB
:1051D00084F83730FDF726FF204606F0DAFC00237E
:1051E00084F8503004B0BDE8F047FCF7C7BF5D0756
:1051F00002D5324613214FE7180706D594F89830A8
:10520000324684F8A030072146E7D90652D594F8F3
:105210002B31002B53D1E37B282B2AD0A57BA5F182
:1052200028025542554194F82A2104F1A80904F2B4
:105230004E2A02F0FF030AB32B46524604F595713D
:10524000484605F043FC002384F82A31484605F01F
:1052500050FC18B104F24710FDF718FDD4F8FC30EB
:1052600015215A89DB89A4F8A0200022A4F8A230D5
:1052700012E70125D7E700BFB412002001AA1946A2
:10528000484605F0E5FCBDF8083040F6480201A9A3
:105290004846934228BF1346ADF80830BDF80C309D
:1052A000934228BF13465246ADF80C302B4605F00A
:1052B0000DFCCBE75B0602D500222421ECE6E37B64
:1052C000252B59D0342B54D0A37B002B64D1E37B06
:1052D0000F3B102B40F2CD8194F84230002B00F0B0
:1052E000C88101221221D7E6172B15D00CD8102B1C
:1052F0000FD0152BE8D12046FDF706FF00283FF41C
:10530000F4AE00220421C7E61F2BDDD13246062170
:10531000C2E632460B21BFE694F84832022BD9B2DE
:105320001AD194F8563053B10623324684F8A0308F
:10533000204606F088FB002384F84832D5E640F288
:1053400006333246A4F89A3094F8663013F0040F0E
:105350000CBF0D211121EBE794F84832012B7FF4AB
:10536000C4AE32460521204606F06DFB84F8486243
:10537000E4E7002211218FE694F83431022B02D1A8
:105380000022172188E694F83431012B9CD194F83F
:105390003531002BF4D097E7082B7FF4A6AE94F8B4
:1053A0009930012284F8A0302DE794F83A3183B186
:1053B00094F8575015F003090BD145F0010501226F
:1053C0000C21204606F03FFB84F8575084F83A91B0
:1053D000B4E794F82A313BB394F82B3123BBE37B39
:1053E00004F5957104F24E22282B1BD0A37BA3F168
:1053F000280CDCF1000343EB0C0304F1A80005F0DA
:1054000065FB002384F82A3101221421204606F08E
:105410001AFBD4F8FC305A89DB89A4F8A020A4F840
:10542000A23062E60123E8E794F83431012B3ED143
:1054300094F83531002B3AD1E27BA2F12303072BFC
:1054400035D994F81C01012805D0022803D04EF26A
:105450003F70FBF797F894F81D11012901D002293C
:10546000F5D1022894F836310BD0012B14BF00235C
:10547000012343B9093A042A7FF637AE01221621E7
:105480000AE6022BF2E7022994F837310DD0012BFE
:1054900014BF00230123002BECD000212046FCF791
:1054A00019FE002384F834311FE6022BF0E794F84C
:1054B0003D314BB194F8353133B9E37B233B072BB6
:1054C00002D901222321E7E594F83C31012B05D1D3
:1054D000002384F83C3101222521DDE594F83C319C
:1054E000022B7FF402AEF3E7FCF7B0F908B1A4F8A1
:1054F000B051FCF7B9F900283FF407AE94F8B63183
:105500000133DBB2022B84F8B63182BF0023A4F84A
:10551000B03184F8B631F8E594F8423013B1A37B8A
:105520000E2B13D1B4F846502046B4F84430ED1A8F
:10553000033D06F0D0FA58B1E36BA26B033B9B1A14
:105540009D42A8BF1D46012D3FF7EFAD0125EDE5BA
:105550002B46F5E7012D7FF6F2ADE37B13B10A2B65
:105560007FF4EDADA37B002B7FF4E9AD237C002B12
:105570007FF4E5AD02297FF4E2AD94F8B631002B5B
:105580007FF4DDADD4F8BC00B4F8DA9003F07AFF14
:1055900000283FF4D4AD94F89E30FE2B7FF4CFADBD
:1055A000B4F8AA31012B7FF6CAADB4F8B021B4F833
:1055B000CC309A42BFF4C3AD013D9B1AADB29BB251
:1055C000B5FBF9F59D4228BF1D4605FB09F3003DDB
:1055D00003F1010318BF01259BB284F8B251AFE576
:1055E000012B08D1637C002B7FF4EEAD0021204617
:1055F000FEF768FCF3E556B1F00632D4310732D439
:10560000B20632D4B30732D149F65C6021E739B132
:10561000B4F84A10B4F84C30994201D32223D3E5B0
:10562000002A05DDB4F85220B4F84C309A42F5D285
:10563000B4F84820B4F846309A4209D2227EB4F831
:10564000443052B1B4F846209A42CFD80823BBE583
:1056500094F82831002BE1D1F0E7052BC6D93E2381
:10566000B2E51E23B0E53D23AEE52323ACE52A23B6
:10567000AAE5102A7FF639AD94F83B31002B3FF4B0
:1056800094AE01220E21204606F0DDF9002384F8B5
:105690003B3153E6D0F85432D0F8C420934210B5D1
:1056A000044605D1D0F85812D0F8CC20914216D03B
:1056B000B4F8AA2004F5B9700F49A4F87C2140F28F
:1056C000E242B3FBF2F3A4F87E31B4F85832A4F806
:1056D0008031B4F85A32A4F8823105F0C9F9B4F82F
:1056E0005A222046D4F85412FDF79EF80023E373A3
:1056F0000323237610BD00BF31AE000008B5FDF7CF
:10570000B7FB024B024A1A6008BD00BF38180020E0
:10571000CFB90000074B93F900301844142804DC7B
:1057200010F17F0F03DB40B27047142070476FF019
:105730007E007047C81200207F2307B50DF10700D7
:105740008DF8073000F0CAFD03469DF9070053B1FC
:10575000094B5B785B425BB21844142806DC10F1FD
:105760007F0F05DB40B203B05DF804FB1420FAE7BD
:105770006FF07E00F7E700BFC8120020024B002246
:105780001A705A70704700BFC8120020064BD3F839
:10579000000138B1D3F8040120B1D3F80801B0FA00
:1057A00080F04009704700BF00600450034B0022A6
:1057B0001A705A7010229A70704700BFCC120020E5
:1057C000F8B50646022014460D4600F0CBF8114B02
:1057D000114A01275C60191D9A6002F1807203343E
:1057E0002D011F70DC601D83C3E9042600222433D1
:1057F00003F80A2C0D2203F8092C084AC2F83015C8
:10580000074903C983E80300C2F80875C2F83835B0
:10581000F8BD00BFCC1200200300000B0060045054
:10582000246C030008B5022000F09CF80D4B012207
:105830001A7000220C4BC3F80021C3F80421C3F8EE
:1058400008210A4AC3F8802003F57433C3F88C207A
:10585000A3F58023C3F88C21A3F580530822C3F855
:10586000042508BDCC120020006004500300008015
:10587000154A08B51378FBB100231449C1F88030EC
:1058800001F57431C1F88C30A1F58021C1F88C315B
:1058900008210F4BC3F80815FFF778FF88B10123E3
:1058A0005370938EFF2B03D94DF21810FAF76AFE4E
:1058B000DBB29370002313700020BDE8084000F0B5
:1058C00051B810235070F4E7CC120020006004504F
:1058D00000200450094B1A7862B1094BD3F800211B
:1058E00052B1D3F8040140B1D3F80801B0FA80F006
:1058F000400970475878704702207047CC1200204A
:1059000000600450064A08B513782BB1FFF73EFF3C
:1059100020B192F8340008BD9078FCE71020FAE737
:10592000CC12002038B5084C0025D4F80035032BE4
:1059300004BF01236360C4F80055C4F8005500F0AB
:105940009DFFC4F8805038BD00600450044B4022D5
:10595000C3F88820BFF34F8FBFF36F8FFFF7E2BF0D
:1059600000E100E010B50446FFF7DCFF012C06D093
:10597000022C09D03CB142F21B70FAF703FE074B30
:105980000222C3F8002510BD044B0322C3F80025F2
:1059900002F10042C3F88020F5E700BF0060045028
:1059A000024BD3F8A00300F00100704700C0FF00D5
:1059B000084BD3F8A423D3F8A833511C9BB203D1CE
:1059C0004FF6FF718B4203D0026083800120704745
:1059D0000020704700C0FF000B4B30B5D3F8905348
:1059E000D3F89443D3F89813D3F89C2305EA04031F
:1059F0000B401340013317BF0560002044608160F5
:105A00001CBFC260012030BD00C0FF000B4B30B591
:105A1000D3F88053D3F88443D3F88813D3F88C2376
:105A200005EA04030B401340013317BF0560002053
:105A3000446081601CBFC260012030BD00C0FF0017
:105A4000074B0022C3F80022C3F81822C3F8202213
:105A5000C3F80C22C3F81422C3F81C22704700BFFD
:105A600000A008500B4B93F8290088B193F8283018
:105A70007BB1094BD3F8002442F00102C3F80024A3
:105A8000D3F8200500F0F600023818BF0120704757
:105A9000012070470813002000A0085008B5012815
:105AA000074B9870074B05D0022807D049F68E7037
:105AB000FAF768FD0322C3F8002508BD0422FAE7BF
:105AC0000813002000A0085008B5134B93F83C3091
:105AD00003B368B9114B28311846D960104900F05A
:105AE0006BFF0130012815D942F6DE30FAF74AFD86
:105AF00001280CD1094B29311846D960084900F01A
:105B000061FF0130012805D946F2ED70EEE741F65C
:105B1000D950EBE708BD00BF081300208800002023
:105B20002C6C030008B50D4B93F83C20AAB11B78F0
:105B3000012B08D100F04CFF013001280DD940F2B3
:105B40003F60FAF71FFD022B07D100F047FF01303D
:105B5000012802D94CF67950F3E708BD081300205C
:105B60000A4B40F409000A4A1B8940F04000B3F593
:105B7000166F36BFA3F63813A3F5166343F480738C
:105B8000C2F80837C2F84005704700BF081300206C
:105B900000A0085073B50D46284C0646FFF77EFF5F
:105BA0002846FFF7DDFF2379BBB1A07900F01CFF89
:105BB00018B14BF23F20FAF7E5FC214694F90500B5
:105BC00000F06EFC1E4B40F20312C3F8442E40F26C
:105BD0005B62C3F8482E02B070BD94F83C00A0B1DF
:105BE00001AB94F903202946304600F081FE9DF870
:105BF000050000F0F9FE10B140F6CA10DBE79DF990
:105C000004000E498DF80300DAE7012E05D0022EBC
:105C100002D048F25050CEE7012029460DF103038F
:105C200094F9032000F036FF014610B148F65D50AC
:105C3000C1E79DF9030000F063FFE2E708130020CD
:105C400000A008502DE9F04106460C46174606F024
:105C500077F80028FBD02E4D4EBB01232B7095F812
:105C600028301BB9E9793846FFF794FF294B4FF4E8
:105C70007A7253F8273003F5FA73B3FBF2F3264A2E
:105C8000E41A264BC3F8002129690127224B21443D
:105C900085F82870224DC5F84015C5F8C031FFF7CA
:105CA000E1FE044658BB00242046BDE8F081012EE9
