:10000000B0B8002091270100EFD102007527010050
:10001000752701007527010075270100752701006C
:10002000000000000000000000000000792801002E
:1000300075270100000000003D2A0100752701001E
:10004000D92A0100D92A0100D92A0100D92A0100A0
:10005000D92A0100D92A0100D92A0100D92A010090
:10006000D92A0100D92A0100D92A0100D92A010080
:10007000D92A0100D92A0100D92A0100D92A010070
:10025000D92A010027C40200D92A0100D92A0100A5
:10026000D92A0100D92A010011C40200D92A0100AB
:10027000D92A0100D92A0100D92A0100D92A01006E
:10028000D92A0100D92A0100D92A0100D92A01005E
:10029000D92A0100D92A0100D92A0100D92A01004E
:1002A000D92A0100D92A0100D92A0100D92A01003E
:1002B000D92A0100D92A0100D92A0100D92A01002E
:1002C000D92A0100D92A0100D92A0100D92A01001E
:1002D000D92A0100D92A0100D92A0100D92A01000E
:1002E000D92A0100D92A0100D92A0100D92A0100FE
:1002F000D92A0100D92A0100D92A0100D92A0100EE
:10030000D92A0100D92A0100D92A0100D92A0100DD
:10031000D92A0100D92A0100D92A0100D92A0100CD
:10032000D92A0100D92A0100D92A0100D92A0100BD
:10033000D92A0100D92A0100D92A0100D92A0100AD
:10034000D92A0100D92A0100D92A0100D92A01009D
:10035000D92A0100D92A0100D92A0100D92A01008D
:10036000D92A0100D92A0100D92A0100D92A01007D
:10037000D92A0100D92A0100D92A0100D92A01006D
:10038000D92A0100D92A0100D92A0100D92A01005D
:10039000D92A0100D92A0100D92A0100D92A01004D
:1003A000D92A0100D92A0100D92A0100D92A01003D
:1003B000D92A0100D92A0100D92A0100D92A01002D
:1003C000D92A0100D92A0100D92A0100D92A01001D
:1003D000D92A01003DC40200D92A0100D92A01000E
:1003E000D92A0100D92A0100D92A0100D92A0100FD
:1003F000D92A0100D92A0100D92A0100D92A0100ED
:10040000D92A0100D92A0100D92A0100D92A0100DC
:10041000D92A0100D92A0100D92A0100D92A0100CC
:10042000D92A0100D92A0100D92A0100D92A0100BC
:10043000D92A0100D92A0100D92A0100D92A0100AC
:10044000D92A0100D92A0100D92A0100D92A01009C
:10045000D92A0100D92A0100D92A0100D92A01008C
:10046000D92A0100D92A0100D92A0100D92A01007C
:0C047000D92A0100D92A0100D92A010074
:10048000064A074B02604FF41E729B788280082256
:10049000C371002382710372704700BF65B400000E
:1004A000C80B0020064A074B02604FF49C721B7B6E
:1004B00082800822C371FF2382710372704700BFDC
:1004C000C3AF0000C80B0020F8B5C41D00280546C6
:1004D00024F007040CBF0020204600F037FA071E66
:1004E00002DA6FF00B00F8BD254EF188B0880331B9
:1004F000737A0330327A89B280B208F0E3FE0028C2
:10050000EFDB3C44B3787178002D04F10304194407
:1005100024F0030400FB01F10CBF0020204600F092
:1005200097FB23180DB9002BDBDB317B184679B123
:100530000333002D728923F003040CBF00202046F2
:1005400000F0F8FB0028CCDB20440DB90028C8DB04
:10055000317891B1337B83B1C41D002D24F00704A1
:100560000CBF0020204602F003FE0028B9DB0DB1CD
:100570000020B8E72018B6D5B3E7002DF8D1B2E7D0
:10058000C80B0020014608B572B6094B1B690BB1B8
:1005900008489847BFF34F8F0749084BCA6802F4D1
:1005A000E0621343CB60BFF34F8F00BFFDE700BF96
:1005B000C80B00205B59030000ED00E00400FA05C1
:1005C0000A4B07B51A896846ADF80020DA889B887F
:1005D000ADF80420ADF8023001F026FC18B148F661
:1005E0005300FFF7CFFF03B05DF804FBC80B0020FA
:1005F00010B5044620B308F0D1F810B94FF0FF3021
:1006000010BD06F001FDB0F5FA7FF7D80E4B1B21A7
:10061000002299801A750822D98040F203211A809D
:10062000012219811F211C615A8059819A81EFF39F
:10063000108472B600F0DAFB04B962B60020DFE77E
:100640006FF01500DCE700BFC80B002010B50028D4
:100650003FD1234C237D032B38D059B1002A3BD006
:100660000239052935D8DFE801F003122634292C98
:100670001378A3700020FFF727FF0028B7BF0123DE
:1006800002236FF00B002375A8BF237510BD1379EB
:1006900013B3537903B31188FB291DD853881B3B2F
:1006A0009BB2E02B18D81A2916D913689288636078
:1006B0000C4B9A80DEE713782373DBE713886381A2
:1006C000D8E71388FF2B07D82370D3E74FF0FF300C
:1006D000DCE76FF02C00D9E76FF01500D6E700BF1C
:1006E000C80B0020CC0B0020F8B50D46064620B301
:1006F00019B311F0070420D1114F3B7D012B02D11A
:100700006FF00B00F8BD032B02D14FF0FF30F9E77B
:1007100000F0A2FB0028F8D02846FFF7D5FE0028FD
:10072000EEDB0AF0F5FE3046214601F0F3FBFFF761
:1007300047FF032320463B75E4E76FF01500E1E730
:10074000C80B002010B5064C237D032B03D101F00C
:10075000F7FB01F0B1FF08F0B6FE0020207510BDD8
:10076000C80B002008B501F0A1FB03490120BDE83A
:10077000084000F0E3B800BFA504000008B501F090
:10078000A9FB03490020BDE8084000F0D7B800BF2E
:1007900081040000074B4FF0FF3141F6FF72C3E9BF
:1007A000001205490022C1E900221F21C3E90212FB
:1007B000704700BF60000020E00B00203F280CD8ED
:1007C00001380B4BC0F3421200F01F0053F82230E7
:1007D00023FA00F000F001007047FF2806D04038EF
:1007E000044BC0F3421200F01F00EFE701207047F6
:1007F00060000020E00B0020074B014600684968BC
:100800001A4603C240F48C2200201A6041F0107294
:1008100042F4FF625A607047600000200246034BBA
:100820000068516803C30020704700BFE00B002040
:100830000246034B0068516803C30020704700BFA5
:10084000680000203F280DD80138074BC0F3421242
:1008500000F01F0003EB82039B6823FA00F000F016
:100860000100704700207047600000200A8870B5C2
:1008700095B2C67BC2F30E020488023602F1100361
:100880003444C35AA4B233442344013BB3FBF4F3CE
:1008900003FB0422438892B29342044B8BBF2B404C
:1008A000AB4313439BB20B8070BD00BF0080FFFFC2
:1008B0004A1E062A08B50346084603D84CF2A6503D
:1008C000FFF760FE094A914202D947F24660F7E716
:1008D00011B903B1196008BD2BB11B680022C3E92F
:1008E00001211A1D1A600430F5E700BFFAFFFF7FEF
:1008F00010B5114B00EB41041A786389B3FBF2F396
:1009000003FB0223013A1A44B2F5706F0279807832
:1009100028BF00231A440B18B2FBF0F100FB112191
:100920005B1AB3FBF0F100FB113313446FEA43434E
:100930006FEA5343638110BDE80B0020024B03EBC9
:1009400080035960704700BFE80B00202DE9F04F8D
:1009500010F0070A85B0054603D04EF6A700FFF752
:1009600011FE534F044607F10C06B146B04657F846
:10097000043B8DF80BA043B101A898479DF80A30BD
:10098000082B02D94CF63910E9E79DF80B1041BB52
:1009900005B131604F4506F10406E8D1002D6FD056
:1009A0000022DFF810910227964689F8002058F8B7
:1009B00027A0013FBAF1000F55D09AF804609AF8C9
:1009C00002C0FF2E60D039460023481C38D19C4419
:1009D000BCF1FF0F3FD90AB189F800E044F6E620E8
:1009E000BDE79DF80AC04B1D60465A0004EB430367
:1009F000022838BF0220441E40422344BDF808406C
:100A00006444CCF1000C0340013C04EA0C04B4F54E
:100A1000803F02D34EF61650A1E775B19A1A012015
:100A2000326091701480D0709DF80C0010710198A4
:100A30004FEA104C1081A2F806C004FB0134A9E76C
:100A400058F8210028B190F804B0B34504BF80786D
:100A50001B180139B9E7DBB2E6458AF804303CBF20
:100A60005FFA8CFE01227B1CA1D10AB189F800E05B
:100A7000022640F6FF6A58F82670B7B9013EFAD24E
:100A8000601B05B0BDE8F08F0023E5E707EB4103ED
:100A900009F101093846A3F80AA0FFF729FF5FFA18
:100AA00089F1BB788B42F1D8E8E74FF00009F6E70F
:100AB000EC0B0020E80B002038B54FF6FF73024620
:100AC0000380174B03EB81031869A8B1847803797D
:100AD000B3FBF4F104FB1133DBB2194600EB410523
:100AE000B5F90A50002D0EDB0131B1FBF4F504FB22
:100AF0001511C9B28B42F1D1002038BD6381BDE828
:100B0000384008F0BCBB00EB41046389C3F30E031B
:100B10001380C278002AF1D14FF6EF10FFF732FDB3
:100B2000E80B00201C4B03EB810370B51C690546E4
:100B30003CB3030403D546F63870FFF723FD0146A6
:100B4000204608F07FFBFF28014604D02046BDE880
:100B5000704008F094BBA078B5FBF0F300FB135392
:100B6000DBB219460A1D04EB4206B6F90260002EFC
:100B700009DB0131B1FBF0F200FB1211C9B28B426B
:100B8000F0D1002070BD8B4201D00023E37004EB54
:100B900042025580DAE700BFE80B0020094B03EB67
:100BA0008103014610B51C69204608F04BFBFF2865
:100BB000014604D02046BDE8104008F060BB00208C
:100BC00010BD00BFE80B0020F8B5104B074603EB43
:100BD000810301461C69204608F034FBFF280546C6
:100BE00011D0E288238953EA024606D00146204606
:100BF00008F045FB01463846B04720462946FFF736
:100C000077FE0020F8BD0520FCE700BFE80B0020C0
:100C100038B50E4B0446827903EB8203186908B994
:100C2000052038BD8278E1799142F9D24B1CE371FD
:100C300000EB41035D89B3F90A30002BF3DBA5809B
:100C400008F01DFB20600020EBE700BFE80B002050
:100C500070B5044610F003000E4603D04BF6BD00FD
:100C6000FFF790FCFFF724FE054624B10348314608
:100C70000460FFF71DFE284670BD00BF040C002075
:100C80002DE9F14FDFF870B01E4607460D46DBF840
:100C9000003090469DF828A09DF82C901BB945F691
:100CA0001E00FFF76FFC52460921404608F094F9F8
:100CB0004A4684B20921304608F08EF981B2DBF849
:100CC0000000214408F093FA386018B9286001B098
:100CD000BDE8F08F04445346414609222C60386831
:100CE00008F040F94B4609223146286801B0BDE8BA
:100CF000F04F08F037B900BF040C002070B50E4665
:100D0000044608F07CF90546304608F078F9044BB3
:100D10002A1821461868BDE8704008F08CBA00BF58
:100D2000040C0020024B186808B108F054BA704750
:100D3000040C00201F2AF8B5044624D89200134D55
:100D4000033250B1830703D04FF6FC00FFF71AFCC3
:100D500022F00303297068602B8122F0030228230C
:100D60000127120403FB01F06B680025120CEEB2A0
:100D7000B14200D8F8BD14B126181F705E6010444F
:100D800001352833F3E74FF0FF30F3E7080C00207C
:100D9000154A002170B553681578C8B2854203D84A
:100DA00049F28140FFF7EEFB1C461846013114F86A
:100DB000286B0EB92346F0E70021997001241289AF
:100DC000996103F126055C709208D96103F11E0454
:100DD000596824F8022FAC4243F8041F1144F8D19B
:100DE00000234361037070BD080C0020114B0122E9
:100DF0004FF0FF3000215A60C3F80803C3F8001514
:100E0000C3F804255A6040F6FE72C3F80803402078
:100E1000C3F8001503F570330749C3F80825C1F876
:100E20008800BFF34F8FBFF36F8FC1F88801C3F8FD
:100E3000082570470060045000E100E002680020CF
:100E4000014B1A60704700BF140C0020014B1B6857
:100E5000184700BF140C0020024B1868003818BF58
:100E600001207047140C00200A4606488F2302F820
:100E7000033BC368C1F8033003695360436993605F
:100E8000704700BF180C0020024B5A8C02435A8452
:100E90005B6A1847180C0020014B00215B6A184759
:100EA000180C002010B5154C05F05CF805F01EFB81
:100EB000208DFFF7F1FF237E63B12246104904F134
:100EC000190052F80C3BE36063685360A3689360B9
:100ED00009F0E6FA218DE06A02F07EF9E36AB3F8E0
:100EE000AA0002F0FBF8636B94F8301094F831001C
:100EF0009847002384F8383010BD00BF180C00203C
:100F0000690E0000034B93F838300BB1FFF7CABFEE
:100F1000704700BF180C002070B5184C0546E36CF4
:100F2000E66AE3634FF4817394F85000A4F840300C
:100F3000B37E96F81D1100EB83002DB9FF2803D175
:100F400096F81C318B4201D004F066FDB37E7BB174
:100F5000606D04F07BFF616DE06B05F059FA1DB91F
:100F60009621284604F0C0FF022384F8383070BD73
:100F7000E06B04F06BFF05F0B9FAF0E7180C002005
:100F800008B5084B93F83820022A03D049F6FB50E5
:100F9000FFF7F8FADA7A42F00102DA72BDE80840A7
:100FA000FFF780BF180C002070B50F4DC9009200EC
:100FB00000F00300AE6D01F0080102F004021B0115
:100FC000347803F0100304F0F3040C43144304F0EA
:100FD000EC041C4304433470B5F86430737002238E
:100FE000A5F85C3070BD00BF180C00207FB5002252
:100FF000012300F180010392CDE90423074A92F80E
:101000005020029200F19002CDE90032D0E91E2377
:10101000022005F03BF907B05DF804FB180C002036
:101020002DE9F0412F4C06460F4694F83830012B3D
:101030005FFA83F803D049F2C870FFF7A3FAE56AB4
:101040002B7933B1002104202971FFF71DFF85F8AA
:1010500005802B7A052B0AD123490220FFF714FFC4
:10106000236E1B78991E4B424B4184F868301EB1A9
:10107000BDE8F041FFF716BF002FF9D0E36E304610
:1010800098470028F4D094F83030002BF0D1E66A6D
:1010900004F09EFC73699842EAD8B37C002BE7D138
:1010A000638C9A0714D594F86830002BE0D0AB7E9F
:1010B000E46A13B12846FFF799FF94F81D21012037
:1010C000962104F0D9FD0020BDE8F041FFF724BFD0
:1010D000002BCDD194F87030002BE8D194F871300A
:1010E000E3E700BF180C0020780C0020F7B5174C80
:1010F0000646656F0DB1636C1BB942F6D410FFF75D
:1011000041FAB4F8483001F003012F466B702B7898
:1011100023F003030B4307F8033B3846B4F8482099
:10112000616C07F0A7FC0DF1020201A9A06FE56355
:10113000676408F046F8019808F031F8B4F84810F0
:101140003060A06F08F011F803B0F0BD180C00205B
:101150002DE9F04FAE4D91B0EC6A079004F1A80371
:1011600009910A930023CDE90D3395F83830022B0D
:101170005FFA83FA03D045F22F60FFF703FAEB6BB7
:1011800003221E785978134406F00308A5F840207E
:101190006B64079BA5F84810002B00F0258119B15E
:1011A000A86F07F0CBFF0146627A2B8D0132696789
:1011B00043F40073D2B22B8582EA960717F0010739
:1011C00046D1237A23B3032B62720AD8012B1FD096
:1011D0000DA9D5F8800007F05BFF90B94DF299504A
:1011E000CBE7053B012B02D940F66E70C5E700F056
:1011F00047FF10B948F2D640BFE739460820FFF74D
:1012000043FED4E91C32013342F10002C4E91C322E
:101210000021637921721BB110206171FFF734FE48
:101220002B8D43F400632B8500230893C6F3C0077E
:10123000A37ECBB1B5F84830B3B105F071F90328FE
:10124000FBD0022806D1FFF72DFE11B0BDE8F08FCC
:10125000079BEAE740B9A37A03F001039F4203D159
:10126000012385F83130EEE7A27A02F001039F42B4
:101270006ED04FF000096B6F002B40F0C780B5F8BF
:101280004830B3FA83F35B0903EA161385F871302B
:10129000099B002B40F0C0806A8C95F885301107BF
:1012A00004D595F86820002A40F0B680012B00F2A2
:1012B000B380EB6E01209847002800F0AD8095F8D0
:1012C0003060002E40F0A880637E83B10123039636
:1012D00004F180010420CDE90463FB23029304F1AF
:1012E0009003CDE90063D4E91C2304F0CFFF94F808
:1012F0001C219621002004F0BFFCEB6AB5F8487071
:101300009A7E93F81C11069395F8503003EB8203F4
:10131000FF2B04D1069B93F81D318B4202D0FF2096
:1013200004F07AFB3A480022D0F82CB08DF8312036
:101330009BF80850ADF83220062D00F2AD81DFE8B1
:1013400015F0C2008A018D018D01AB019E019E0145
:10135000B5F84830EBB108F1FF31012919D8298DD2
:1013600041F48051298594F80A118B4206D995F8E9
:10137000303043F0100385F830307AE7696F002988
:101380003FF477AF95F8841019B12020FFF784FD62
:101390006FE70132B8F1030FA2721BD008F1FF32E0
:1013A000012A0CD8002B3FF464AFDDF81C90D4E97F
:1013B0001E32013342F10002C4E91E325BE7002B0A
:1013C0003FF457AFD4E91E32013342F10002C4E9C1
:1013D0001E324EE72B8D01200E4943F480532071BD
:1013E0002B85FFF751FDEDE7A37E0BB105F0B2F8B9
:1013F00095F885304FF000090133CDF8209085F83D
:1014000085302B8D43F480632B8534E701233BE744
:10141000180C00205C0C002004F0A4FDB9F1000FB2
:101420004CD101230993AB4D2B8D5A0606D4402095
:10143000FFF732FD2B8D43F040032B85089B63B1F2
:10144000B5F80720B5F805301343E28813431EBFF3
:10145000B5F809300133A5F80930079B002B00F0DF
:101460003281B5F805300133A5F80530002385F841
:101470008530E86A01F022FE0D9830B107F08FFE4A
:10148000002202720A9901F021FA0E9B33B1002268
:101490001A720C220A990E9801F0E6F9099B002BAA
:1014A0007FF4D1AE2B8D1B063FF5CFAE8020FFF72A
:1014B000F3FC2B8D43F080032B85C6E641460EA836
:1014C000FFF714FEADE79BF80E20233A072A04D954
:1014D0009BF80F20233A072A6BD87E4A92F8862081
:1014E000ABF810210DF132010FA8ADF8322000F059
:1014F000B9FDBDF83220002800F081800F98002847
:101500007DD005218BF80810724DA865A5F86420E0
:1015100002B1C21C2A669BF808709BF80A30022FA1
:101520009BF809A00B9307D0053F012F00F2B7806D
:1015300013780327022B0DD0D5F8800007F0DDFDCE
:10154000002840F0AE80032F04D000F0A5FD80F00D
:101550000106F6B206F0010385F87030069B5B7E4B
:10156000002B00F0A080B5F86430002B00F09B80C9
:101570000B9A514633463846FFF716FD686D04F066
:1015800065FC0022D5E9151004F08EFD18B9D5E9E7
:10159000150104F0E3FE012385F8873085F8383023
:1015A000B9F1000F3FF43FAF41460EA8FFF79EFD93
:1015B00039E79BF81C31FFB20B9304F003FA454A5C
:1015C0000B9BD16A91F80A21B1F80811BA4284BF85
:1015D000D21BD5B2012814BF04220822012B02FB22
:1015E00005F514BF04220822B5FBF2F5394A92F83A
:1015F00086202A44914234BFCAB2D2B270E722B3E5
:101600003448C26A92F85520FAB90DF131020DF151
:101610003201D0F8800007F019FDB0B19DF83120FB
:101620003AB90280827003228BF80820BDF832207C
:101630006AE70178BDF8322001F00301012908BFF3
:101640004FF0030A8BF808A05EE70022ADF83220C5
:1016500001228BF808202048002255E7BBF8102112
:101660000DF13201D0F88000ADF832200DF13102D9
:1016700007F0ECFC0028D9D14DF647007DE50DF1CF
:1016800032010FA800F0EEFC08B10F9810B945F236
:101690004E4072E50622C7E74DF63B606DE5012737
:1016A0004AE7012656E7514633460B9A3846FFF77C
:1016B0007BFCA86D04F0CAFB04F018FF0021A86DA4
:1016C00009F04EFF67E7B5F807300133A5F807309A
:1016D000CFE600BF180C0020940C0020064B10B57C
:1016E00093F8382002F0FF0422B91C7601F06CFD5B
:1016F000204610BD0C24FBE7180C0020094B0A4AB9
:1017000010B51A60FFF7EAFF18B148F67620FEF729
:1017100039FF064C00F024FCE06400F025FC606515
:1017200010BD00BFD414002074180000180C002055
:1017300070B5444C054694F8386006F0FF0016B9C1
:1017400009B102B11BB940F60430FEF71BFF636319
:101750009DF81030616284F88430E26684F83000CD
:1017600084F8850084F8310084F88700608420853F
:1017700084F8700084F8710084F86800A065206621
:10178000A4F86400E0636064A4F84800E56204F033
:101790006FF904F0ABFE95F9240104F0C9F9D5F80E
:1017A000D060D5F8C80004F0CBF9304604F040FB17
:1017B00095F82A0004F0CEF909F0C8F995F81D2132
:1017C00000F15501012004F043FA1F4B186804F0A2
:1017D00035FBD5F8BC30C4F88030D5F8C030A367ED
:1017E000AB7B233B072B2AD9EB7B233B072B26D94B
:1017F00095F8E63084F88630B5F80A3184F8503030
:10180000AB7E13B12846FFF7F1FB0120FFF784FB05
:10181000E36AD3F8B80104F035FB0023236063606A
:10182000A360EB886380B5F8AA30238095F82A304E
:101830002371D5F820310BB101221A6070BD1B2332
:10184000D8E700BF180C0020D4140020014B93F8F7
:1018500087007047180C0020024B93F82900C0F352
:10186000C0007047180C0020014B93F885007047AA
:10187000180C0020810F0000511100002110000001
:10188000050F000010B501210020FFF787F904467D
:1018900068B90121FFF746F9044618B946F6BC10AD
:1018A000FEF770FE034B93F9161009F05CFB20461F
:1018B00010BD00BFA00C0020014B5888704700BF2E
:1018C000A00C002008B508F0FFFA00F027FD00F09A
:1018D0006BFB08F0BEFD01F05DFC03F087FD00220C
:1018E000074B4FF01B1107481A60074BC3E9000173
:1018F0004FF4A4719A829A819960DA7308BD00BF8F
:10190000D814002003021B00A00C0020034B41F65A
:101910004C521A611B229A73FFF7D4BFA00C00200F
:1019200073B5254D04462B69AE7BC0F8DC30234BE4
:10193000C0F8C43001F044F8002818BF002600F0B9
:1019400023FB830684F8E46053BF1B236B88AA88BB
:101950001A46A4F8F8301A4BA4F8FA201B6823B1F1
:1019600094F92411B4F8AA009847164904F1A80084
:1019700008F05DF801236A8804F1BC006978A4F8D6
:10198000DA300332AB88019192B2297803330091A7
:101990009BB204F1C001FFF773F9D4F8BC301BB956
:1019A00042F20B20FEF7EEFDD4F8C03013B94FF62B
:1019B0005420F7E702B070BDA00C002000093D00E4
:1019C000DC140020AA0C0020024B1B6803B118474E
:1019D0000C207047D8140020034B5A8802801B78D3
:1019E00083700020704700BFA00C002038B58378BA
:1019F00005461A2B08D8042B04D9124A22FA03F3FD
:101A0000DB0705D4122417E0292B01D03B2BF9D199
:101A10002888B0F5706FF5D208F0E5FA70B190F84B
:101A2000282102F0FF045AB9AA7880F82921FF2260
:101A300080F8282107F08DFD204638BD0224FBE701
:101A40000C24F9E72000380438B50278447802F015
:101A5000010302F0020254EA030101D1112038BD52
:101A6000D2B98578002DF9D0002B18BF002400E0F2
:101A70001D46204607F04BFD0028EFD0284607F012
:101A800046FD0028EAD0074B00201A7B9C7222F00A
:101A90000302DD721A73E2E7002BE9D00024254629
:101AA000E7E700BFA00C002010B5008808F0ABFAF3
:101AB000D0B190F83A2112B13A24204610BD90F8E6
:101AC000602002F0FF04002AF6D190F85720920718
:101AD00005D1FF2280F83A2107F03BFDEDE70349ED
:101AE000583008F0DDFCE8E70224E6E7A3AA00008E
:101AF000F7B5077805460C46EF2F0FD890F901206F
:101B00004378002A0ADB8278900707D113F010008F
:101B10001DD1990603F0030202D51AB1122442E046
:101B2000032AFBD01E07F9D42979EA78EE7942EA34
:101B30000122697942EA0142A97941EA06212E7A15
:101B400041EA06418A42E9D81F2A0FD8E6E713F096
:101B5000600FE3D103F00702052A05D003F00F015F
:101B60000D22CA40D107D9D51A07DDD56A7A013AC4
:101B7000062AD3D8AA7A032AD0D813F0040102D1B6
:101B8000023A012A03D8EA7A012AC7D811B9AA7CF5
:101B9000032AC3D82A7D48B1012ABFD12A7E012A4F
:101BA000BCD830B91124204603B0F0BD022AF5D1CB
:101BB000B4E7DB0712D46B782A7D03F01803082BF7
:101BC00011D1022AEED101213846FEF7E7FF064681
:101BD00078B109F07DF9B8B10C24E4E700F094F98C
:101BE0000028E8D1DEE7022AEDD02B7F002BEAD0D7
:101BF000D8E701213846FEF795FF064640B3154B5E
:101C000093F9161009F0AFF9304609F09BFA29460E
:101C10002070E874304609F0ECF9EB7E0446002BA6
:101C2000C1D00028BFD10246B16A684607F061FB07
:101C30002246B06A012107F0A7FBB16A6846042278
:101C400007F057FB22462146B06A07F09DFBAAE742
:101C50000724A8E7A00C002030B502798BB003461A
:101C6000042A4FD84088B0F5804F4BD8264900242D
:101C70008D5C1144ADF800404A798DF8084042F07F
:101C800010028DF8244042EA45028D7AC97B42EA6F
:101C9000850242EAC102694602F01F028DF8002067
:101CA000BDF80020ADF809201A888DF80E00000A52
:101CB0008DF80B20120A8DF80D408DF80C208DF850
:101CC0000F008DF810405A7BD3F807008DF81120D3
:101CD0005A79059002A88DF812209A798DF8132070
:101CE000B3F80B209B7BADF818208DF81A307F23BA
:101CF0008DF81B304FF00113CDE90734FFF7F8FEE4
:101D00000BB030BD1220FBE7900A030073B5064606
:101D1000FFF7B8FD044609F020FA33780546012B99
:101D20005ED1204609F052F9002879D0204609F00A
:101D300014FA18B115B9122002B070BD204609F08E
:101D4000C7F808B10C20F7E7204609F0FDF8064671
:101D50000028F7D1204602F09DFB0028EBD0ED01D2
:101D600042F2107331462046ADB25D4309F0E1F90D
:101D7000204609F0EAF9014650B92A46204601F00A
:101D800021FE08B90020D7E74FF68800FEF7FAFBDE
:101D900031460DF10600FEF78FFE064608B90D200C
:101DA000CAE7BDF8061008F045F93146204609F0AB
:101DB000D8F93046FFF7B4FD2A463146204601F0F7
:101DC00001FE024610B141F2D770DFE7154B9B6967
:101DD000002BD7D006F5957106F1A8009847D1E7FA
:101DE000002BA8D1204609F0F1F8C8B1204609F02F
:101DF0006FF80028C6D0204608F051FF054620465F
:101E000008F050FF014600289CD1002DBAD0B5F84B
:101E1000AA00FEF7D9FE0028B4D04FF2E370B5E770
:101E2000422089E7A00C00200278034672B1427874
:101E300062B142881A2A09D982881A2A06D900680A
:101E4000034A106000209B889380704712207047DF
:101E5000A00C002002680020014B1A61704700BFEF
:101E6000A00C00200378A3F10A02112A9BBF024AAA
:101E70000020122093737047A00C002008B50122A7
:101E8000094B1A7002F0F6FA09F005FB08F01AF88F
:101E9000FFF734FC002007F0FAF900F01DFCBDE864
:101EA000084001F0DFBE00BFBC0C002010B5064C9E
:101EB0000649201D07F06DFD04F108000449BDE846
:101EC000104007F066BD00BFBC0C0020A800002039
:101ED000B000002010B5084C0849201D07F059FD3E
:101EE00004F10800064907F054FD04F10C0005490F
:101EF000BDE8104007F04DBDBC0C0020C000002024
:101F0000C8000020B8000020014B1878704700BFBF
:101F1000BC0C002010B5064C00F0BCFB606807F05C
:101F200030FDFFF7F3FC00F081FD0123237410BDA9
:101F3000BC0C0020014B187C704700BFBC0C00207B
:101F400010B5064CA06807F01CFDE06807F019FD0D
:101F5000FFF7B8FC0023237410BD00BFBC0C0020A9
:101F600000487047CD0C002000487047CF0D00207E
:101F7000C208044900F0070001238340885C034342
:101F80008B54704770000020014BD3E9000170476B
:101F900070000020034B1868C0F30020400040F0A0
:101FA000010070477000002008B505F02DF80023EF
:101FB000074A32F82310814205D302EB830293785B
:101FC000044A137008BD01330C2BF2D10023F7E74C
:101FD000A40A0300D10E002008B5B0F8AA3080F89A
:101FE0005911A0F85A3190F81C31012B05D0022B61
:101FF00003D04EF23F70FEF7C5FA80F85C3190F8DE
:102000001D31012B01D0022BF3D180F85D3100F599
:10201000A8700249BDE8084008F042BA199A0000C9
:10202000024B002283F822209A847047D20E0020AF
:10203000044B93F82220012A1ABF036001200020DC
:10204000704700BFD20E0020054B024693F82210C5
:1020500001291BBF01209A84002083F822007047C9
:10206000D20E0020054B024693F8220020B11360E7
:1020700009B19B8C0B800120704700BFD20E00205D
:10208000044B002293F822009A8410B1012083F8B7
:1020900022207047D20E0020034B93F82200B0FAA2
:1020A00080F04009704700BFD20E002050B90A4AA4
:1020B0000120134603F8010B0868C2F801008A8862
:1020C0009A807047012805D1034B0A68D8719A603D
:1020D0008A889A81704700BFF80E002050B90B4BD8
:1020E000187888B1D3F80120B3F805300A600120D0
:1020F0008B807047012806D1044BD87920B19A68AB
:102100009B890A60F3E70020704700BFF80E0020AB
:1021100010B9044B18787047012806BF014BD879D5
:1021200000207047F80E0020F7B58A8800238DF84C
:102130000600ADF8042008680B4A8DF80730014608
:10214000147802F5A872019DD8B2844201D8082003
:1021500007E052F8087F01335668AE4208BF8F424D
:10216000F2D103B0F0BD00BF080F0020084B0146BC
:10217000002230B55C7803F20113D0B2844201D85A
:10218000082004E013F8015F01328D42F5D130BD23
:10219000080F0020F0B5254D89B095F8984105F25B
:1021A00099116846224606F065FC2146684607F00C
:1021B000AAFE0446B8B300EB400102A8C9B2FEF77C
:1021C00045FE631E95F8A1610124DBB295F89811D4
:1021D00005E0721CB2FBF1F001FB1022D6B206F151
:1021E00020020DEB020010F8202C002AF1D103EBA5
:1021F000430100F8204C06EB460220312A44694492
:1022000011F8187C82F8A27111F8177C11F8161CCD
:1022100082F8A37182F8A411013BAA19DBB282F8FB
:102220009941FF2BD2D109B0F0BD00BF080F0020AB
:1022300070B5064688B00C46002A4ED0294A92F85E
:10224000A131D01890F8991119B941F64F20FEF735
:1022500099F903EB43010133114491F8A251E57060
:1022600091F8A35191F8A41125716171002180F8B2
:10227000991192F89811B3FBF1F001FB103382F839
:10228000A13192F8C23123B9174902F5DD7008F087
:1022900004F965790D220021684605F03F0545F0F7
:1022A0004005657109F0C2FDE37804AA69468DF81E
:1022B0000F30304623798DF80D508DF80E30042301
:1022C00009F01EFD9DF81F3023709DF81E306370CD
:1022D0009DF81D30A37008B070BD03216018FEF793
:1022E000B5FDD6E7080F002095210000044B5A7871
:1022F000824286BF1B1893F84A010020704700BF36
:10230000080F0020044B5A78824286BF1B1893F8AE
:1023100042010020704700BF080F0020064B00223A
:102320004FF461711A8083F8C32183F8C421A3F8A4
:10233000C61183F8C2217047080F0020014BB3F883
:10234000C6017047080F00200A4B30B55C78844204
:102350000ED9184490F802012B3003EBC004A57984
:102360000D7053F8300010600120A388938030BDB9
:102370000020FCE7080F00200246074810B590F83F
:10238000C34124B1417821B1023003F051F8204615
:1023900010BD0C46FBE700BF080F00202DE9F74FEA
:1023A0002F4C9A46804689466378834256D9231833
:1023B00093F8425185F00105F9B193F84A31E3B938
:1023C00045F002070135BAF1000F18D1FA070AD516
:1023D000062104EB0810524601FB0841823001F54A
:1023E0008571FFF725FFBB0734D504EB0810524673
:1023F00049460230FFF71CFF2CE02F46E3E794F834
:10240000A1614FF0010B002DE0D0A31993F89911B1
:10241000019399B90092DAB100F0D8FA019B06EB6A
:102420004601009A4FEA102C83F899B1214481F8B3
:10243000A201000C81F8A3C181F8A401013694F82F
:102440009831013DB6FBF3F103FB1166F6B2DAE712
:1024500047F00407384603B0BDE8F08F0027F9E7DE
:10246000080F0020074B5A78824209D91A1892F8AF
:1024700042212AB9062202FB003000F58570704720
:1024800000207047080F0020064B5A78824281BF17
:102490001B1893F83A01B0FA80F0400998BF002069
:1024A000704700BF080F0020034B80F87C101B68AA
:1024B0000BB1408818477047E01400200B2808B57E
:1024C00003D94FF28250FEF75DF8024B33F810004B
:1024D00008BD00BFD40A030030B50024D0F8C430D2
:1024E00042F21075A0F84440B0F848405C43B4FB99
:1024F000F1F4A0F848404C1E05FB0242B2FBF1F299
:10250000A0F84620094AB2FBF1F20132A0F84C20B3
:10251000B0F8402005FB0244826B5343B4FBF1F456
:10252000B3FBF1F3C463836330BD00BF005A6202A2
:102530000346084671B13F2B0BD8074AD35C03F022
:102540007F02914205D08CBF0120002000EAD31009
:1025500070470120704700BFEC0A0300FF230B7097
:1025600002234B7083238B70014B1B78CB70704719
:10257000D41000202DE9F84FD0F804800C46D8F88C
:102580001860304606F0F9FD054618B94DF2DF3007
:10259000FDF7F8FF0146304606F0FDFDB5F800B046
:1025A00082461FFA8BF717B94FF64970F0E7224BB6
:1025B00000F103091B68D3B998F8023098F803209A
:1025C0002370637802F00F02A4F802B023F00F0327
:1025D000134323F0C00363709AF8003003F0030341
:1025E000012B0FD0022B0DD04BF2EC00D0E73A4676
:1025F0004946B8F80200984705460028DCD128462D
:10260000BDE8F88F6278304663F30512627006F019
:10261000C8FD054610B94EF65B00B9E7FB2F02D99D
:1026200042F2D120B4E73A464946201D06F022FA8C
:10263000304606F051FDE2E7E814002038B5134CAF
:1026400010220021201D09F0F1FB0125257404F161
:1026500008031022002104F11400C4E9013309F039
:10266000E5FB84F8205004F11803094AC4E9053356
:1026700000236362A36284F82C30C4F82D30C4F8C0
:10268000313084F835301360A36338BDD410002096
:10269000E814002010B5074C2378FF2B03D040F23C
:1026A000B250FDF76FFF06F04FF92070BDE8104003
:1026B000FFF7C4BF7D00002010B5034C207806F062
:1026C0005DF9FF23237010BD7D000020014B1878B9
:1026D00006F064B97D000020014B024A1A60704781
:1026E000E4140020752500002DE9F341DFF86C812A
:1026F000054608F11407D8F80830D8F81840227AAF
:10270000012A23D1D8F8382052B1137A1BB94BF2E1
:10271000A730FDF737FFD8F83840CCB9002085E066
:102720001A7A012AFAD01C464D4AEFF3108172B68C
:1027300050680068506001B962B6A34208BFC8F88B
:102740003840237A23B947F61930E2E73A46ECE7F6
:10275000267AF6B205232372731E0B2B6FD8DFE89F
:1027600003F06B062235686E3E6E6E6E6E5C6368BB
:1027700013B94FF20E00CCE72046294698470420B3
:10278000EFF3108272B6237A052BD9B24FF0000313
:102790005AD12372D8F83810A14201D1C8F8383084
:1027A000BABB62B635E0636813B947F2B840B0E728
:1027B0002946204698470346ADF80400C0B2C3F34B
:1027C0000723012B30D0022BDAD11BE0636813B949
:1027D0004BF29B609DE7204698470020D0E7636856
:1027E00013B94CF2CB6094E786222A7001225988F3
:1027F000AA706A7100225869A5F80310AA7106F040
:102800006BFC0420D8F83830A34202D10023C8F86A
:10281000383000283FF46FAF08E0124B29462046BD
:102820001B689847034668B9267298B102B0BDE8A4
:10283000F08143F26B206CE74DF6672069E747F6BD
:102840006B0066E70220DDE711B944F6380060E767
:102850001846A5E7002B7FF44EAF5FE7D4100020A9
:10286000D8100020E4140020134610B5027A1AB1E3
:1028700044F28140FDF786FE0A4601460248BDE863
:10288000104007F0E8BD00BFD8100020044890F8C1
:102890002C301BB90349243007F0F9BD704700BF45
:1028A000D410002047A400000346064890F83C20BE
:1028B0003AB190F8352022B9034900F82D3B07F0D2
:1028C000E6BD7047D41000205D2500000A4610B513
:1028D000037A1BB143F29510FDF754FE014607231E
:1028E0000248BDE8104007F0B6BD00BFE810002068
:1028F0001346027A0AB1037270470A46014601483C
:1029000007F0A9BDD810002000F10C034FF01B12F6
:1029100003621B23C262038383820386426283862F
:102920004381C26039B94FF4A473034A4383C3821D
:10293000026143868262704748014801014907F0FD
:10294000AFBD00BFA7A400002DE9F84380469E1D3F
:102950000D46008E9DF82410164407F0BDFDB8F812
:1029600032709DF820908742494628BF0746B8F844
:102970002400BFB2BB19AB4234BFED1A002507F0EB
:10298000ABFDB8F828400D4B84421B7828BF0446A5
:10299000A4B283B998F80800494607F09DFDA84203
:1029A0000A9B38BF2846844288BF84B2E0191C8045
:1029B0003044BDE8F8830020EEE700BF111100208D
:1029C000014B1878704700BF11110020094AD2E965
:1029D0000003434083EAB01181EA43214FEAF34305
:1029E00011605360044B58434FEAF06000EB8000E5
:1029F000704700BF14110020BB79379E094AD2E905
:102A00000003434083EAB01181EA43214FEAF343D4
:102A100011605360044B58434FEAF06000EB8000B4
:102A2000704700BF80000020BB79379E10B50A4C6C
:102A300008210948FEF70AFAD4E900321343F7D017
:102A4000064CFFF7DBFF2060FFF7D8FF23686060CC
:102A50001843F6D010BD00BF8000002014110020E4
:102A6000174B184A9A60184A5A60184A1A60184A4E
:102A70009A62184ADA62184ADA60184A9A61184A61
:102A80001A63184A1A62184ADA64184A9A64184A89
:102A90005A62184B184A9A60184A5A62184ADA62FF
:102AA000184A1A61184A5A61184A9A61184A1A63F0
:102AB000184A9A64184ADA64184A9A63704700BF41
:102AC000F0140020EDA700000FA8000071A800007E
:102AD00027A9000069A90000D12D000079A90000F4
:102AE00031300000C92E00002DAA000043AA0000CA
:102AF000152F0000F015002001A8000003AA000017
:102B000093A900004DA90000AFA90000512E0000BC
:102B1000C5AA00006FAA000063AA0000EFA9000088
:102B2000054B064A9A65064A1A66064B064A9A6596
:102B3000064ADA65704700BFF01400200B9C0000C5
:102B4000C39C0000F01500205F9B0000339E000036
:102B500037B5044601A80D46FFF76AFA18B947F2DF
:102B6000B370FDF70FFD00212222019809F05EF9F4
:102B7000019B194601F8035F023D232D79D8DFE858
:102B800005F02378127B7B237828787B2E3A3D78DA
:102B900078417B7B49495757787878787878787886
:102BA0007878785D6871D4F8C6210D205A60D4F821
:102BB000CA219A60D4F89420DA60FFF745FA002819
:102BC0005CD14DF6FD50CCE794F8A02002201A719C
:102BD000F3E7204600F0F2F90028EED131E01122AF
:102BE00006201A7159225A7100229A714522DA710F
:102BF00030221A72E1E794F89A20E7E7084600F0DD
:102C0000CBF9E9E794F89B201A7194F89A200320F5
:102C10005A71D2E7D4F8FC20092091899980B4F840
:102C2000A210D98012891A81B4F8A0205A81C4E771
:102C300094F836211A7194F83721E8E7104B1B6895
:102C400013B94EF6D2008CE7232022469847042081
:102C5000B3E70B4B1B68002BF3D022462420984788
:102C60000520AAE7064B1B68002BEAD02246252048
:102C7000F5E740F28B5074E701209EE703B030BDCA
:102C8000EC1400203F289ABF024B53F8200000208C
:102C9000704700BFF01400203F289ABF024B53F842
:102CA00020000020704700BFF015002073B50446D7
:102CB000D0F8BC504FF6FF760DF102010DF1010284
:102CC0002846ADF8026006F0C1F901A9284606F0D1
:102CD000DFF948B1019806F062FA0022027204F1AD
:102CE000A801FFF7F3FDE7E7034904F12E0002B066
:102CF000BDE8704007F0CEBB7FA70000F0B50446EA
:102D000085B00D46FF2600F88D6C10F88E3CF3B1AF
:102D1000174F3B781BB142F60970FDF733FC0C21CD
:102D2000381DFEF793F83E70002304F88D3C8A238B
:102D30002A4602F8033BD4F80930C5F80330D4F82A
:102D40000D305360D4F81130936005B0F0BD01A888
:102D50000C21FEF77BF8A4F5E473039A1A6001AB2B
:102D600003CB44F8960C44F8921C04F88E6CDBE715
:102D70001C11002010B5054C23782BB90C21201D07
:102D8000FEF764F8FF23237010BD00BF1C11002064
:102D9000024690F8CE31BBB990F8CF3103F0FF0175
:102DA0000BB100207047094B18780028F9D0197032
:102DB000D9680433C2F8941003CBC2F8C601C2F834
:102DC000CA11FF2382F8CE31012070471C11002068
:102DD00038B5C37B04460D463BB1122B05D0103BE2
:102DE0000F2B8CBF0120082038BD94F8563013B942
:102DF000204607F08DFCD5F80B30C4F8BE31D5F86D
:102E00000F30C4F8C231D5F81330C4F89030B4F89C
:102E1000AA30A4F86532D5F80130C4F86732D5F885
:102E20000530C4F86B32B5F809300025A4F86F32CC
:102E300084F8935184F8CE51044904F5177007F0D3
:102E400026FB15232846E373CEE700BFFD2C0000C8
:102E500010B5C37B04461F2B03D04EF21400FDF7C0
:102E600091FB002290F85630B0F8AA1080F8552057
:102E7000BBB180F8562090F8930194F89431A4F8EF
:102E80009F1184F8A20104F295100D4984F89E2147
:102E900084F8A12184F8A33107F002FB0023E37337
:102EA00010BD0122A0F88E1180F88D3100F5C2709E
:102EB0000273437383730374024907F0E8FAEDE782
:102EC0000FA90000F7A8000038B50368044613F006
:102ED000010519D1D1F801200C4BD1F80510134090
:102EE0000B4AC0F86630C3F307630A4043F0080397
:102EF000C0F86A2080F8693007F00AFC2368284689
:102F000043F00103236038BD0120FCE72FC904F71B
:102F1000EFDB008010B5837B042B28D1D1F8013082
:102F20004A1CD1F80540C0F86630C3F30763C0F807
:102F30006A4043F0080380F86930002380F84E307F
:102F4000837390F8663103F0FF040BB1002010BDCD
:102F5000B0F8AA3000F5AF7044724381D1F8013067
:102F60000449C3605368036107F091FAEEE701205A
:102F7000EDE700BFC5A9000090F866314BB9B0F885
:102F8000AA3000F5AF70034943811A23437207F05A
:102F90007EBA7047C5A9000010B50446FEF7F4FFDD
:102FA000044A054B024009200B40C4F80120C4F834
:102FB000053010BD2FC904F7EFDB008037B50C4694
:102FC0000546FEF7E1FF0A4B0A4A03400A4095F81E
:102FD000661000930B4001928DF800306B4603CBD6
:102FE000C4F801000920C4F8051003B030BD00BFCB
:102FF0002FC904F7EFDB008038B5DB04154604D594
:10300000837E13B10023836338BD846B01348463F2
:1030100007F037FDC36B9C42F6D30023034983635B
:103020002846BDE8384007F03BBA00BF21AA00009F
:1030300010B5837B0446012B02D00368980738D46F
:1030400094F857309A0713D44A78D80784F8612047
:103050004A88A4F862208A88A4F8642043F0020217
:1030600084F857200FD5144904F1580007F018FAD6
:1030700094F85730D90711D423689A0708D54CF62D
:10308000C610FDF77FFA94F83A31002BEBD1EFE749
:1030900043F002032046236007F03AFBA37B012B99
:1030A0004FF0000301D0002010BDA37384F84E3010
:1030B000F9E70120F8E700BFA3AA000010B5044615
:1030C00002F072F9044B0146E0721B681BB1204606
:1030D000BDE81040184710BDF4160020024B1B68D5
:1030E00003B11847704700BFF0160020F0B51F4D20
:1030F00000242B7814709BB1013B6D68DBB21E1B62
:10310000012E0FDC05EBC40655F8347076688E424C
:1031100008BF874227D0B84271EB060612D214705E
:103120000020F0BD1E197710C6F3470655F837C0CA
:1031300005EBC70E8445DEF804708F412CBF334683
:103140003446DCE705EBC30455F8335064688C4221
:1031500008BF854206D0A84271EB040428BF0133A2
:103160001370DDE71C4601201470DAE73C110020E3
:1031700010F0070208B503D042F24F40FDF702FA03
:1031800018B1034B197258601A70C80008BD00BF0F
:103190003C110020014B00221A7070473C110020A6
:1031A000FF23084A0B700D234B7082238B7013682A
:1031B000C1F803305368C1F807309368C1F80B3089
:1031C000704700BF5211002016220021014808F06C
:1031D0002DBE00BF521100200B4B5A7D92B14A0602
:1031E00010D5B0F8AA2009491A80D0F830225A60C8
:1031F000D0F834229A60C28803F10C005A8002226F
:10320000FFF776BB704700BF52110020A1310000CC
:10321000094B53F8203003F5224370B5B1331646FD
:103220004FF47A720C46B3FBF2F5344402F02CFFF3
:103230002C44204470BD00BFF40B03002DE9F04F77
:1032400091B00446894690F81DA198460592002B3E
:1032500040F08480437BB3F1000B18BF4FF0010BAB
:1032600006F0D8FB064694F82701FFF727F9064435
:1032700007F06CFCE37BB6B200F12C070493059BCE
:10328000002B4BD1637B032B48D1049B0C2B32D1F9
:10329000B4F84C324B452ED1D4F8E8312046B4F87E
:1032A000BC21C4F8D831D4F8C430C4F8DC31B4F847
:1032B00042321344C4F8E03102F030F8D4F854221A
:1032C00041F64B5194F82531C4F8C4208A428CBF92
:1032D000002303F00103D4F85012D4F85822C4F8A4
:1032E000D41084F826310223B4F84E12C4F8CC204E
:1032F000A4F8D8106373E37BA17B282B01D0282985
:103300000CD1B4F84C32A9EB03031A0406D4A1F192
:10331000280320465942594101F0F2FBB4F84052CB
:10332000B4F806C0A9EB050594F81D31A9EB0C0C07
:103330002DB202930FFA8CFC002D12DA6546D4E907
:103340008A23C4E98E230122637B032B00F2698167
:10335000DFE813F009000D015E0031014FF0000BB2
:103360007EE74246F0E70121002006F027FE824674
:10337000D4F8D4003146504403F0FCFD3146C4F883
:10338000E401D4F8C40003F0F5FD09A9C4F8E8018C
:103390000AA802F0F7FD099B0093DDE90A23D4E9AE
:1033A0008E0108F052F9029004F1A80007F0E6FB44
:1033B000D4F84422D4F8D46094F81D01164402F0E5
:1033C0006BFED4F8E41100F52240A6F12005029B23
:1033D000B1303A466D1A3031ED1B5544ED1A4FF4B9
:1033E0007A73B0FBF3F0B4F8D8302D1A94F81D01BD
:1033F00003EB4101FFF70CFFD4F844320646C4F852
:10340000EC01EB1AB92B5FD848F6DC00FDF7BAF8EF
:10341000D4F8D4303146D4F8DC01184403F0AAFDC6
:103420003146C4F8E401D4F8C40003F0A3FDC4F8A5
:10343000E80104F1A80007F0A1FBD4F8D430D4F8D7
:10344000DC511D44B4F8BC31002B40F08C80B8F145
:10345000000F00F0888094F81D0102F01DFED4F8E2
:10346000E41100F522406D1AB130203DD4E98A23E1
:10347000CDE90223D4F8303294F81D211D44029B7B
:10348000ED1A8E4B53F822204FF47A7302F2E73292
:10349000B2FBF3F2B0FBF3F01544ED1B2D1AD4F898
:1034A000E021D4F8D83194F81D0102FB0313B4F8DD
:1034B000D8103A46303301EB4301FFF7A9FE012350
:1034C0000646C4F8EC016373102200210CA808F032
:1034D000ADFC7B4BD4F8E82104F1DC000D93012313
:1034E0008DF83D30D4F8C430653B9B1ADB1B9E42FF
:1034F00028BF1E46D4E98E32C4F8B8615B1942F188
:103500000002CDE90A3206F0F7FF3044A4F84092F9
:103510000C90DDE90A23C4E98E23B4F8A831A3EBAB
:1035200009031BB2002BD4BF002301235B008DF8DD
:103530003C30049B0C2B77D0BBF1000F00F0AD802A
:10354000D4F8C4100AA8D4F8E831C91A06F0FCFC73
:1035500080B2002800F0AE801A9B03B118800120D1
:1035600011B0BDE8F08FD4F8E4116D1A97E7D4F8E4
:10357000E821D4F8C430D4F8E0619B1AD4F8D8011B
:10358000B4F8D8105D43B4F8BC319C44D4F8E431AD
:10359000ACEB060C30330CF1FF3C00FB063302FBB6
:1035A0000C333A4601EB43010298FFF731FE064621
:1035B000C4F8EC0188E7D4F8E8E1D4F8C430B4F8F2
:1035C000BC11A3EB0E035D4322B319BBD4E98C609D
:1035D000D4E98A23B24273EB000002D340F65120B3
:1035E00014E7364B203E53F82A004FF47A7AD4E998
:1035F0008A23CDE9062300F2E73300F52240069A3C
:10360000B130B61AB3FBFAF3B0FBFAF01E44361A27
:10361000F61B354461443A460EFB01F13031490056
:10362000C2E74EF69670F1E6B8F1000F1CD0B4F880
:10363000D01129B3B4F8D22194F8D431501CA4F895
:10364000D22102FB033399420EDD9DF83C305BB181
:103650000023A4F8D2018DF83C30FFF7B7F900F051
:103660000700013084F8D401BBF1000F18D00AA97B
:1036700004F5007007F0EFFF20B94DF2F530C5E614
:103680000A46D9E7DDE90A23C4E98823059B83F0CC
:10369000010384F8F831002062E7B8F1000FC6D1C9
:1036A0000AA904F5007003F097FD0028EAD14FF253
:1036B0008660ABE6B8F1000FB9D1D8E7F40B030090
:1036C000C53600007FB50546A0F50074052900F257
:1036D000BB80DFE801F003B32DB9B9AE10F8083CA8
:1036E000E288E3B1B4F8F631934208BFB4F8AC31E4
:1036F0009A1AA4F8AE21E3802046D4E98823C4E9CD
:103700008A2301F00BFAA5F5D8752B78002B00F071
:103710008E804F4804B0BDE8704004F0F5BAB4F8AC
:10372000F4319B1AA4F8AE31B4F8F4319BB2E2E75D
:1037300007F083FFD4E98A23801A61EB0301012893
:1037400071F1000303DA44F66B60FCF71BFF6FF0C6
:10375000010383424FF000038B4102DA41F63750F8
:10376000F3E7D4F8C4300BB1B0FBF3F3E17BB4F86A
:10377000F6210C2932D10132A4F8F621B4F84232F4
:103780000DF10E06E5880133A4F84232B4F8463054
:103790001D44B4F84430013DED1AADB2B4F8F61151
:1037A0006B1A180434D40023204600961A46FFF7FB
:1037B00045FD01283BD1B4F8F621B4F8A811BDF8B5
:1037C0000E301344521A12049BB204D5EA1A12F4B2
:1037D000004F18BF0B46A4F8F631DFE7E1880B4431
:1037E0009BB2D11A0E044BBF013301329BB293B28C
:1037F000A4F8F63115F8073C002BBFD1B4F8AC3172
:10380000B4F8F621934204BF0133A4F8F631B5E7CA
:10381000237E2046002B14BF08233E2384F8373034
:10382000FFF744FA204607F03DFE0023637304B01F
:1038300070BD04B0BDE8704005F047BE637B042B4B
:10384000F3D041F2940080E740F682407DE700BF6C
:103850009D5F00002DE9F8430E46044618B94FF667
:103860002360FCF78FFE052900F2A780DFE801F056
:103870000376413DA52E07F08AFFC4E946012046A4
:1038800000F028FFD4F80C01A43807F0D8FE204639
:1038900007F063FC054600BB0146204607F09BFB92
:1038A00000F1AE06D4F80C01B04209D2301A03215F
:1038B000192838BF192007F03DFF60B107F0C1FE9D
:1038C000C4F80C61204607F05AFC45B12046BDE81B
:1038D000F84307F055BC0125F2E70025F2E7D4E9EB
:1038E0004623C4E94023BDE8F883BDE8F84302F06D
:1038F00055BB07F07BFB04238146884684F81131D1
:1039000007F09BFE07220F46A9FB023102FB0811BC
:10391000D4E940525B1941EB0205D4F8E8203AB1F2
:1039200059EA080204D0984277EB050228BF012625
:1039300084F81061D4E94826121A66EB070694F859
:10394000301139B9012A76F100010BDA204600F076
:10395000C9FE03E0012A76F10006F7DB002384F8B4
:103960002831C0E7984277EB05010FD259EA0808E1
:103970000CD01B1A65EB07019A4276EB010005DBC0
:10398000012B71F10000A4BF1A460E460C49012319
:1039900004F1C000914284F829314FF0000384F80B
:1039A0000831B341B8BF0A4604F5847104F0F2FA55
:1039B000002898D143F65A2053E742F6625050E768
:1039C0000040420F2DE9F84304460E46154690F894
:1039D000283103F0FF07002B40F0938000F1C0086E
:1039E00039467822404608F021FA224646494046A8
:1039F00007F03DFFC4F8E860FF2384F8283166B182
:103A0000FEF7FCFF00F0070020223946013086F85F
:103A1000D40106F5007008F009FA40F202434FF0B5
:103A20000009A4F8103184F8089103F0F7FA00F1C6
:103A30004906204607F091FB0146B6B2B8B305F03F
:103A4000E9FF00F12801284689B203F093FA2844DF
:103A5000AE3DC4F80C0107F0F0FD3018A4F81E903C
:103A600041F10001C4E94601012084F8EC0007F0AF
:103A70001EFC2D1AC4F8F0504FF0FF356FF00041D6
:103A80004046D4E94623C4E94851002504F5847131
:103A9000C4E93E23C4E9402384F8295142F210725C
:103AA00004F078FA30BB42F21860FCF76BFD204658
:103AB000DFF8589007F08FFAAE30C4F80C01B9F86F
:103AC000000048B1E08B38B1FEF798FFB9F800303C
:103AD000B0FBF3F202FB1300064407F0AEFD36180C
:103AE00041F10001C4E94661002DC5D0AD1941F195
:103AF0000001C5E72946204607F044FB3846BDE8EB
:103B0000F8830C27FAE700BF553800006811002041
:103B1000034B00229A7042F210721A8007F0DDB84F
:103B200068110020014B9870704700BF6811002099
:103B3000054B1B6810B51BB946F6CC70FCF722FD8F
:103B4000BDE81040184700BFF816002073B50446C2
:103B500006297CD8DFE801F004241326282D7500FF
:103B6000837C03F0FF0253B900920123B0F8AC113B
:103B7000FFF764FB28B145F21F70FCF703FD042337
:103B800063730023E288A4F84232A4F8F62184F893
:103B9000F93102F0F3F802B0BDE8704003F044BB25
:103BA0000323437302B070BD07F0D0FCC4E98C015D
:103BB000F8E790F81D0106F0D1FF6430D4F8E83141
:103BC0009528D4F8C4508CBF0020C0F19600C218CC
:103BD000954288BFED1A1F4B98BF00259B7888BF80
:103BE0002D1A23B9D4F8DC309D4228BF1D46D4F8E5
:103BF000B86104F1DC0006F07FFC0644022007F007
:103C000070FD0221AD1B25EAE575854228BF0546FA
:103C1000284607F08FFD10B12E4407F012FD012356
:103C2000BC22314604F1A80006F0D3FCD4F8B83128
:103C30006061D4F8C400184402B0BDE8704007F0D9
:103C4000FEBCA83002B0BDE8704006F097BF4AF64F
:103C5000766092E768110020014B1880704700BF22
:103C600068110020014B024A1A607047F8160020C4
:103C700097AB00000346074A1068D3F84920C0F804
:103C80000320B3F84D20A0F8072093F8481006F061
:103C9000D7BA00BF6C11002070B504460E4613461B
:103CA000807D6588324615F0040118BF04F1570184
:103CB000FEF774FB4107054621D4C2070BD501234B
:103CC000A07D84F84830FEF7CDFB0368C4F8493086
:103CD0008388A4F84D30AB0701D4012070BD094B97
:103CE00001211868D4F8573084F85610C0F809300C
:103CF000B4F85B30A0F80D3006F0ABFAEDE7002029
:103D0000ECE700BF6C11002038B5C38C04460F4DA2
:103D10000133C3F30E03C3842B7C2BB102F008F9EB
:103D200001F0DEFB00232B7400232B7194F8693023
:103D30002BB101212046BDE8384007F048B8637C2C
:103D400013B1E28C9A42F4D20021F3E76C11002007
:103D500010B5074C2379012B05D1237C1BB102F050
:103D6000E7F801F0BDFBA069BDE81040FFF7CCBF4C
:103D70006C11002070B5254C2379012B03D046F639
:103D80001C40FCF7FFFB98B90125237C1BB102F016
:103D9000CFF801F0A5FB002D36D0A06906F0CAFFD0
:103DA00068B301F097FFE369BDE870409B6818476E
:103DB0002168A26911F8095B02F1490392F84820D1
:103DC000E80906F082F80028DED00021206806F01D
:103DD00065FA0028D8D02379A069012B02D044F2DB
:103DE0000110CEE7237905F00F01E26903F180436A
:103DF0005269013B52F8233098470546C5E7A06950
:103E0000BDE87040FFF780BF70BD00BF6C1100209F
:103E10000346074A906903B909B9FFF775BF1379DB
:103E2000D26903F180431269023B52F823301847EC
:103E30006C11002003292DE9F043054685B0174693
:103E400007D14388980722D40024204605B0BDE856
:103E5000F083428890F86830D107DBB2F4D5002BAC
:103E6000F2D14FF00108DFF8D49099F81060BEB19C
:103E700006F060F80828387015D002AA0DF1070185
:103E8000FEF762FA30B941F64200FCF77BFB4FF0D7
:103E90000208E8E702A99DF8070006F03FFE064683
:103EA0003B78082B08D1D9F8001011F8030BC0F3A8
:103EB000801006F033FE0646D9F8001005F15003D5
:103EC00095F84F2011F8030BC0F3801005F0FDFFAB
:103ED000D9F80010044611F8030BC0F3801006F067
:103EE0001FF88146FEF7D0FA40B1B9F1080F1BD098
:103EF0004846FEF7FBF980F00103D8B23A78082A69
:103F000014D01CB9AC7DA21A544254416A8853079C
:103F10009BD4002898D176B9EC7C444518BF002C7E
:103F20000CBF0124002490E70020E7E780F00102A5
:103F30002240D4B2EAE7344687E700BF6C11002084
:103F40002DE9F04F85B00823052104460DF1070245
:103F50008DF80730FFF76EFF064620B90026304681
:103F600005B0BDE8F08F794F396807F112037A7C0C
:103F700011F8030BC0F3801005F0A7FF804600285E
:103F8000ECD13B6840F2E249A16918460D7F10F878
:103F9000032BC2F340122A401D460A77D3F80320B0
:103FA000C1F8AD208288A1F8B12015F81F1BA269C5
:103FB000C1F3801182F8AC1002A9D3F81F0002905F
:103FC00028790871D3F80F00C2F8C800587D1D7D0C
:103FD000000440EA0520DD7C2843C2F8D000B3F895
:103FE000190082F8268109FB00F0C2F8C4009D7D0B
:103FF000C5EB451005EB800505EB85056D00A2F8C6
:10400000D850B3F8170009FB00F0C2F8D400B3F899
:104010001B00A2F8CC00B3F81D00A2F8CE0093F864
:10402000243003F01F005B0982F8280082F8273152
:10403000A56994F912A005F11C0006F05DF80123B2
:1040400085F81C3185F81D314FF0FF0B85F81EB146
:10405000414605F1DC00FEF757FC514605F1A8008A
:10406000FEF722FAA36984F8738004F17E01B3F8A5
:10407000AA2084F891B0A4F874204FF6FF729DF83E
:104080000700A4F89220D3F8C420B2FBF9F2A4F8F8
:104090008A20B3F8CC20A4F88C20B3F8CE20A4F862
:1040A0008E2093F8272184F89020627D5AB394F8EB
:1040B0004820012A27D194F84E2002F0C002402A5D
:1040C00021D1D4F84920C4F87E20B4F84D208A804C
:1040D000082893F8AC2003F1AD0504F1840184F8BD
:1040E000772004F17802D3F8AD3026D0C4F88430BC
:1040F000AB888B8004F17701FEF726F938B949F2D5
:104100004C00FCF73FFA0022C4F87E20DFE794F869
:10411000773043F0020384F8773004F16A000C49E9
:1041200006F0B5F90B4B0022A0691B683A71002B11
:104130003FF415AF2146984711E7A367AB889380FA
:104140000023C4F884308B80E7E700BF6C110020A7
:10415000F5AE00000017002037B5044640880D4634
:1041600010F0040003D12279962101F085FD032D82
:1041700004D0052D58D0012003B030BD08230DF127
:104180000702294620468DF80730FFF753FE002826
:10419000F1D0237C294DFBB19DF8070094F8B6308F
:1041A000D3B92378082804F1B90284F8B7302CD0A9
:1041B00004F1B801FEF7C8F818B947F61C00FCF77F
:1041C000E1F994F8B83043F0020384F8B8301C49A0
:1041D00004F1AE0006F05BF92B68042220461A7049
:1041E00006225A70FFF746FD616B94F83820286864
:1041F00006F045F8032328682B7101F027FE002103
:10420000286807F0ADF90020B6E72868034613F8E0
:10421000031BC1F3801184F8B810D0F80310C4F860
:10422000B9109B889380D2E7064B1B68002BEAD01D
:104230002046984780F00100C0B29DE76C11002035
:10424000DDAE0000FC160020F8B504460F4619B399
:1042500000F12005284607F007F8A0B963881A077F
:104260002ED5284607F015F80646284606F0FCFF2E
:10427000301AC0B207F01BF83D4A93680344284641
:10428000936006F0D0FF284606F0D2FF01F062FCF2
:104290002179252001F0C0FB354E002394F85620EB
:1042A0003068037043706388103B0D2B5CD8DFE8E7
:1042B00003F0575B530C5B385B5B5B5B5B5B5B38B2
:1042C0002046BDE8F840FFF71FBD062343702023BA
:1042D00003702046FFF7CEFC638823F008039BB2EF
:1042E000152B05D094F83020E16A306805F0B8FF4E
:1042F000306801F0ABFD0021306807F031F902238E
:1043000021790020337101F033FC054607B9F060D4
:1043100063881B0704D506F0C7FF0544C4F8F450B2
:10432000F8BD0C2321214370034603F8091B52B149
:10433000D4F857200121C0F80920B4F85B209A80F6
:1043400005F087FFC5E7226DC0F80920B4F85420B6
:104350009A8094F84F10F3E7062303704370B8E790
:10436000022303700623F9E744F29510FCF70AF9DB
:104370006C1100204288102A10B504D10121BDE83B
:104380001040FFF761BF0B4C96210279012001F02C
:1043900073FC237C23B101F07DF8402001F0BCFDCB
:1043A000206801F053FD9621002001F09DFD0123BE
:1043B000237110BD6C110020024B01219869FFF799
:1043C00043BF00BF6C11002010B5114C237C1BB102
:1043D00001F0AEFD01F084F8A06906F0ABFC30B14D
:1043E0002379012B08D048F28720FCF7CBF8A0698D
:1043F000BDE81040FFF788BC2379E26903F18043F0
:10440000A069D268013BBDE8104052F8233018473C
:104410006C110020074810B5037903F0FF0433B98D
:1044200014222146043007F001FD204610BD0C2463
:10443000FBE700BF6C11002010B50023084C23716E
:10444000FDF78EFD2060FFF7E5FF18B14BF69E30BB
:10445000FCF798F8E36913B948F6CD70F8E710BD9A
:104460006C110020014B024ADA6170476C11002088
:104470002C470000034B044A1A60044B044A1A609C
:10448000704700BFFC160020413F000000170020CD
:1044900083AD0000F8B5057D0446AF1EFFB2CDB375
:1044A000012F2CD800F1500190F84F0005F038FD95
:1044B0000828064623D0FDF725FF08BB023D18BF9C
:1044C0000125012F84F84850A6758CBF00270127CD
:1044D0006775FDF733FF054607F0AFF80022144B70
:1044E00084F85620E5FB0301C4E91001114620467B
:1044F000FFF7D2FB68B945F25020FCF743F80826D5
:10450000022D09D104F149010020FDF7E7FD60B952
:104510000020F8BD0826F5E704F149010120FDF768
:10452000DDFD0028F4D00125CBE70025C9E700BF59
:1045300040420F00F0B5434E85B00446327902F098
:10454000FF0312B90278FF2A03D14CF69F60FCF7F3
:1045500019F8B36080F869303B4B684604F12005D8
:1045600000933A4B01933A4B0293F3695B680393D0
:1045700001F064FC01F07CFA01F0DAFC00F0B0FF1D
:10458000344801F0DDFA344801F052FC284606F0C8
:104590004AFE284606F04CFE01F0DCFA217925207F
:1045A00001F03AFA94F9120001F0C2FA04F12C0178
:1045B000A06A04F006FF074604F13401A06A04F083
:1045C00027FF0546DFB1237FCBB1B4F92650ED4379
:1045D000ED0F637D13B963885B0709D56FF0004366
:1045E000D4E910129A4208BFB1F1FF3F0DD19DB935
:1045F00030680330FDF7C0FE307405B0F0BD002D0B
:10460000E7D0657F002DE0D1E3E707F016F8D4E9A5
:10461000102390429941EAD3012229462046FFF710
:104620003BFB50B1FDF78AFE054607F006F80B4B41
:10463000E5FB0301C4E91001DAE7002DD8D040F210
:10464000231084E76C110020C9430000753D000071
:10465000113E0000D6BE898E5555550040420F00D0
:1046600073B50446FFF766FF00212046FFF7ECFD17
:10467000236E0BB101221A606388DB0724D5002367
:10468000124EA569CDE90033FF2373746846FCF729
:10469000BFFAC8B9009CA542F8D005F1B40395F85B
:1046A000B32004F1B40194F8B30005F00EFC002827
:1046B000ECD094F8AC30B4F8B1207374D4F8AD30C9
:1046C000C6F81230024B9A8002B070BD6C11002007
:1046D0007E110020024B9861DB691B68184700BF00
:1046E0006C11002043881B0710B504460FD5836961
:1046F0003C2209496A304272B3F8AA304381FF2351
:1047000080F827304FF6FF73038505F0C0FEFF23C6
:1047100084F8693010BD00BFF5AE000059410000BB
:104720007543000045AF00003FAF00006146000048
:10473000513D0000B9430000284700002047000019
:104740001C4700000138022808B503D946F29A50E8
:10475000FBF718FF13290B4B06D811290DD8102988
:1047600008D046F61770F3E71529FAD103EB40039A
:10477000D88801E033F8100008BD03EB40039889A6
:10478000FAE700BF700B03000C4A137893B9536823
:1047900040B9B3F81001B3F8003198428CBF002043
:1047A000012070471289120706D5187C073818BFF8
:1047B0000120704700207047012070478C110020B5
:1047C000294A38B50346148950681C43402B14818C
:1047D00004D10421BDE83840FFF7B8B9802B01D1DE
:1047E0000521F7E703F00304032C03D143F64F0040
:1047F000FBF7C8FEDD0706D50C68D1602478062CCF
:104800000FD00B2C17D09C0706D50968097805290D
:10481000117419D00B2921D09B0644BF08231370B3
:1048200038BDC47B1B2CEED100240025C0E91C45FB
:1048300001244476E7E7C47B112C01BF00244476B1
:10484000012480F85640DEE7C17B1729E4D100241B
:1048500000250121C0E91E458176DDE7C17B1029D5
:10486000DAD10021F8E700BF8C1100202DE9F041DA
:1048700004460D465B4F002975D13B891A0723D5A5
:1048800090F89E30FE2B03D14BF6C100FBF77AFE69
:10489000FE2380F89E30C37B1D2B04D184F8551075
:1048A00005F03FFFE573A37B232B06D1E37B233B7E
:1048B000072B94BF2A232423A373237C072B02BF37
:1048C00002237B7484F89E303B89DB0716D43B8936
:1048D0005E076FD4990776D5387C01230D2884F8BC
:1048E0009F306DD0112877D0072877D0FEF7D4F904
:1048F0000346002865D14FF45E60C7E7E37BF968A3
:10490000103BD1F800800F2B98F8006009D8B31E37
:10491000DBB2092B64D840F2333222FA03F3D80712
:104920005ED509793046FDF703FE20B931462046B1
:1049300005F015FF36E0012E01D9162E1ED1A07B01
:1049400005F0FDFE30B1A37B232B03D0242B06D131
:104950002A23A3733046FEF795F903461BE0162E73
:1049600014BF022520253B781B0704D5E37B103BB1
:104970000F2B98BF08252846BDE8F081112E15D0D1
:1049800005D8072E14D00D2EE4D1174B05E0142EB8
:10499000E0D1164B1B68002BC8D0FA684146204670
:1049A00012799847002892D00546DCE7104BF4E7CF
:1049B000104BF2E7227C062A04BF01227A7489E7B1
:1049C0000D4B204698473B89DA06CCD5E37B092B73
:1049D000C9D10A23E373C6E7084BF2E7084BF0E7B7
:1049E0000825C0E78C1100200BB400001017002030
:1049F0004DB40000854A000043B3000089B30000B5
:104A0000AFB300002DE9F041A0F10E0600291446D5
:104A1000F6B208BF1F21172E0AD8012340F25125F4
:104A2000B3402B4207D113F460051ED1082E07D0E6
:104A30000020BDE8F0810021BDE8F04106F03BBC5C
:104A4000937B242B09D12046FDF7C6FA84F8345114
:104A50000023A37384F84E30EAE72A2BE8D1D27BF7
:104A6000233A072AF4D91946EDE7054B1B68002BBA
:104A7000DED00A4601462046BDE8F041184700BF97
:104A80000417002070B54D780446A5F10E03DBB283
:104A9000152B0BD8012140F2512201FA03F61642E0
:104AA00006D1152B827B21D0082B07D0002070BDAA
:104AB00002462846BDE8704006F0FDBB242A01D01E
:104AC0002A2AF3D1204605F01CFEE37B252BEDD0EE
:104AD00094F867301A21204623F0090384F86730E0
:104AE000FDF77AFA002384F83431DFE72C2ADDD190
:104AF000024B1B68002BD9D09847D7E70C17002032
:104B0000054B10B504461A6805F09FF906212046AA
:104B1000BDE81040FFF71AB80817002073B5474BDF
:104B20000025044600F1A80658601D811D705D74C3
:104B3000FF2380F85030B0F8AA31DBB190F89E30F6
:104B4000FE2B17D190F82831A3B1037C063B012B33
:104B500010D990F8293102210122A0F8485080F89C
:104B6000A03006F0F9FB022184F8B2512046FDF78F
:104B7000EFFF03E094F89E10FE29F7D1B4F8AE11D0
:104B80002046B4F8DA300139B4F8B02189B2B1FB6B
:104B9000F3F31344A4F8B031B4F844300B44A4F850
:104BA000443006F021FC10B1A36B0B44A363B4F8AE
:104BB000AA310025012B9CBF0133A4F8AA3109B109
:104BC00084F8B651E37B84F8B251093B012B0FD82E
:104BD000E388B4F84C229B1A190409D404F24E213C
:104BE00004F11C0005F088FAE573FF2384F84F30C8
:104BF000B4F8AE213146204605F0C5FAE37B104AF1
:104C00002046103B0F490F2B8CBF0023012300933C
:104C10000D4BFCF78DFD237BDA0703D500212046E1
:104C2000FDF7DAF9237B9B0703D504F24710FDF764
:104C300085FE0023237302B070BD00BF8C110020DD
:104C400089470000C14700004D4C00002DE9FF4797
:104C5000AB4F0E46804639897C688805204655BF93
:104C6000B4F8442000230132A4F844304CBF84F847
:104C7000B631A4F8442006F0B7FB38B10B4604F572
:104C80009F7204F1A8012046FEF7B6F93B8903F4B0
:104C9000C06323B1237E002B46D0032B4AD0227E53
:104CA0003B89012A03D11A0544BF02222276B8F1BA
:104CB000000F40F08D805D0657BFB4F8D02142460A
:104CC000013292B2A4F8D02103F00A020A2A0DD1CF
:104CD0003A7C022A0AD123F00803314620463B8160
:104CE000FFF7C4FD30430823C6B23B81314620465E
:104CF000FFF7BCFD94F89E303043FE2BC6B238D18E
:104D0000BEBB237C063B012B33D994F82831ABB1D1
:104D100094F8293101220221A4F8486084F8A030D7
:104D2000204606F019FB24E0012121762046FEF7FB
:104D30000DFFB4E7022301212376F7E7E37BA3F11C
:104D40000F02D2B2102A40F213812368D80702D58D
:104D500032460921E4E7990740F18D8032460C2163
:104D6000204606F0F9FA94F8573043F0010384F82E
:104D70005730B4F8B03194F8B3510133A4F8B031DE
:104D8000002D00F0F581FCF767FD10B10023A4F8B9
:104D9000B031217E012940F21D82237C072B40F097
:104DA000FF81B4F84430022B40F21482B4F846502C
:104DB0000135ADB2E3882B44A4F8A83194F8B4319E
:104DC000002B00F00B820123E2881344A4F8AC31DD
:104DD0003B895D0657BFB4F8BC310023B4F8AE215F
:104DE0009B1858BF9BB2A4F8BC3194F828311BB96A
:104DF000237C063B012B06D8B4F84830B4F8AE212A
:104E00001344A4F8483094F84E1031B1B4F84A3045
:104E1000B4F8AE211344A4F84A3094F95420002A7F
:104E2000C1BFB4F85230B4F8AE011B18A4F8523028
:104E300094F8373063B9B8F1000F40F058827B7CAA
:104E4000022B40F0118294F8A030062B18BF1623D5
:104E500094F8362022B9204684F83730FDF726FF33
:104E6000204606F01FFB002384F8503004B0BDE854
:104E7000F047FDF705B95D0702D5324613214FE72C
:104E8000180706D594F89830324684F8A0300721E8
:104E900046E7D90652D594F82B31002B53D1E37B4A
:104EA000282B2AD0A57BA5F128025542554194F81C
:104EB0002A2104F1A80904F24E2A02F0FF030AB3E2
:104EC0002B46524604F59571484605F017FB002322
:104ED00084F82A31484605F01CFB18B104F247104B
:104EE000FDF72CFDD4F8FC3015215A89DB89A4F894
:104EF000A0200022A4F8A23012E70125D7E700BFC6
:104F00008C11002001AA1946484605F0B1FBBDF8F6
:104F1000083040F6480201A94846934228BF13468C
:104F2000ADF80830BDF80C30934228BF1346524606
:104F3000ADF80C302B4605F0E1FACBE75B0602D565
:104F400000222421ECE6E37B252B59D0342B54D0CE
:104F5000A37B002B64D1E37B0F3B102B40F2CD8170
:104F600094F84230002B00F0C88101221221D7E6CC
:104F7000172B15D00CD8102B0FD0152BE8D12046AD
:104F8000FDF706FF00283FF4F4AE00220421C7E637
:104F90001F2BDDD132460621C2E632460B21BFE689
:104FA00094F84832022BD9B21AD194F8563053B142
:104FB0000623324684F8A030204606F0CDF90023BF
:104FC00084F84832D5E640F206333246A4F89A30E7
:104FD00094F8663013F0040F0CBF0D211121EBE79C
:104FE00094F84832012B7FF4C4AE324605212046A6
:104FF00006F0B2F984F84862E4E7002211218FE656
:1050000094F83431022B02D10022172188E694F85B
:105010003431012B9CD194F83531002BF4D097E733
:10502000082B7FF4A6AE94F89930012284F8A030C2
:105030002DE794F83A3183B194F8575015F00309ED
:105040000BD145F0010501220C21204606F084F920
:1050500084F8575084F83A91B4E794F82A313BB376
:1050600094F82B3123BBE37B04F5957104F24E22B7
:10507000282B1BD0A37BA3F1280CDCF1000343EB0E
:105080000C0304F1A80005F039FA002384F82A3152
:1050900001221421204606F05FF9D4F8FC305A8929
:1050A000DB89A4F8A020A4F8A23062E60123E8E797
:1050B00094F83431012B3ED194F83531002B3AD19C
:1050C000E27BA2F12303072B35D994F81C010128B8
:1050D00005D0022803D04EF23F70FBF753FA94F844
:1050E0001D11012901D00229F5D1022894F8363189
:1050F0000BD0012B14BF0023012343B9093A042A22
:105100007FF637AE012216210AE6022BF2E70229CA
:1051100094F837310DD0012B14BF00230123002B4D
:10512000ECD000212046FCF757FF002384F83431EF
:105130001FE6022BF0E794F83D314BB194F835317E
:1051400033B9E37B233B072B02D901222321E7E577
:1051500094F83C31012B05D1002384F83C31012225
:105160002521DDE594F83C31022B7FF402AEF3E714
:10517000FCF76CFB08B1A4F8B051FCF775FB0028F4
:105180003FF407AE94F8B6310133DBB2022B84F85A
:10519000B63182BF0023A4F8B03184F8B631F8E507
:1051A00094F8423013B1A37B0E2B13D1B4F84650C0
:1051B0002046B4F84430ED1A033D06F015F958B115
:1051C000E36BA26B033B9B1A9D42A8BF1D46012DBA
:1051D0003FF7EFAD0125EDE52B46F5E7012D7FF615
:1051E000F2ADE37B13B10A2B7FF4EDADA37B002B73
:1051F0007FF4E9AD237C002B7FF4E5AD02297FF439
:10520000E2AD94F8B631002B7FF4DDADD4F8BC00EC
:10521000B4F8DA9003F06AFF00283FF4D4AD94F8B4
:105220009E30FE2B7FF4CFADB4F8AA31012B7FF670
:10523000CAADB4F8B021B4F8CC309A42BFF4C3ADD3
:10524000013D9B1AADB29BB2B5FBF9F59D4228BF5B
:105250001D4605FB09F3003D03F1010318BF0125BD
:105260009BB284F8B251AFE5012B08D1637C002BCF
:105270007FF4EEAD00212046FEF768FCF3E556B161
:10528000F00632D4310732D4B20632D4B30732D169
:1052900049F65C6021E739B1B4F84A10B4F84C30F3
:1052A000994201D32223D3E5002A05DDB4F8522028
:1052B000B4F84C309A42F5D2B4F84820B4F84630ED
:1052C0009A4209D2227EB4F8443052B1B4F8462052
:1052D0009A42CFD80823BBE594F82831002BE1D1BE
:1052E000F0E7052BC6D93E23B2E51E23B0E53D23EA
:1052F000AEE52323ACE52A23AAE5102A7FF639ADD3
:1053000094F83B31002B3FF494AE01220E2120464D
:1053100006F022F8002384F83B3153E6D0F85432EB
:10532000D0F8C420934210B5044605D1D0F85812E5
:10533000D0F8CC20914216D0B4F8AA2004F5B97068
:105340000F49A4F87C2140F2E242B3FBF2F3A4F847
:105350007E31B4F85832A4F88031B4F85A32A4F847
:10536000823105F09DF8B4F85A222046D4F8541240
:10537000FDF7B2F80023E3730323237610BD00BFCB
:1053800051A80000074B93F900301844142804DC9E
:1053900010F17F0F03DB40B27047142070476FF0AD
:1053A0007E007047A01100207F2307B50DF1070094
:1053B0008DF8073000F0CAFD03469DF9070053B190
:1053C000094B5B785B425BB21844142806DC10F191
:1053D0007F0F05DB40B203B05DF804FB1420FAE751
:1053E0006FF07E00F7E700BFA0110020024B002203
:1053F0001A705A70704700BFA0110020064BD3F8F6
:10540000000138B1D3F8040120B1D3F80801B0FA93
:1054100080F04009704700BF00600450034B002239
:105420001A705A7010229A70704700BFA4110020A1
:10543000F8B50646022014460D4600F0CBF8114B95
:10544000114A01275C60191D9A6002F180720334D1
:105450002D011F70DC601D83C3E904260022243364
:1054600003F80A2C0D2203F8092C084AC2F830155B
:10547000074903C983E80300C2F80875C2F8383544
:10548000F8BD00BFA41100200300000B0060045011
:10549000840B030008B5022000F09CF80D4B01229C
:1054A0001A7000220C4BC3F80021C3F80421C3F882
:1054B00008210A4AC3F8802003F57433C3F88C200E
:1054C000A3F58023C3F88C21A3F580530822C3F8E9
:1054D000042508BDA41100200060045003000080D2
:1054E000154A08B51378FBB100231449C1F8803080
:1054F00001F57431C1F88C30A1F58021C1F88C31EF
:1055000008210F4BC3F80815FFF778FF88B1012376
:105510005370938EFF2B03D94DF21810FBF732F81E
:10552000DBB29370002313700020BDE8084000F048
:1055300051B810235070F4E7A4110020006004500B
:1055400000200450094B1A7862B1094BD3F80021AE
:1055500052B1D3F8040140B1D3F80801B0FA80F099
:10556000400970475878704702207047A411002006
:1055700000600450064A08B513782BB1FFF73EFFD0
:1055800020B192F8340008BD9078FCE71020FAE7CB
:10559000A411002038B5084C0025D4F80035032BA1
:1055A00004BF01236360C4F80055C4F8005500F03F
:1055B0009DFFC4F8805038BD00600450044B402269
:1055C000C3F88820BFF34F8FBFF36F8FFFF7E2BFA1
:1055D00000E100E010B50446FFF7DCFF012C06D027
:1055E000022C09D03CB142F21B70FAF7CBFF074BFB
:1055F0000222C3F8002510BD044B0322C3F8002586
:1056000002F10042C3F88020F5E700BF00600450BB
:10561000024BD3F8A00300F00100704700C0FF0068
:10562000084BD3F8A423D3F8A833511C9BB203D161
:105630004FF6FF718B4203D00260838001207047D8
:105640000020704700C0FF000B4B30B5D3F89053DB
:10565000D3F89443D3F89813D3F89C2305EA0403B2
:105660000B401340013317BF056000204460816088
:105670001CBFC260012030BD00C0FF000B4B30B525
:10568000D3F88053D3F88443D3F88813D3F88C230A
:1056900005EA04030B401340013317BF05600020E7
:1056A000446081601CBFC260012030BD00C0FF00AB
:1056B000074B0022C3F80022C3F81822C3F82022A7
:1056C000C3F80C22C3F81422C3F81C22704700BF91
:1056D00000A008500B4B93F8290088B193F82830AC
:1056E0007BB1094BD3F8002442F00102C3F8002437
:1056F000D3F8200500F0F600023818BF01207047EB
:1057000001207047E011002000A0085008B50128D2
:10571000074B9870074B05D0022807D049F68E70CA
:10572000FAF730FF0322C3F8002508BD0422FAE788
:10573000E011002000A0085008B5134B93F83C304E
:1057400003B368B9114B28311846D960104900F0ED
:105750006BFF0130012815D942F6DE30FAF712FF4F
:1057600001280CD1094B29311846D960084900F0AD
:1057700061FF0130012805D946F2ED70EEE741F6F0
:10578000D950EBE708BD00BFE011002088000020E1
:105790008C0B030008B50D4B93F83C20AAB11B7885
:1057A000012B08D100F04CFF013001280DD940F247
:1057B0003F60FAF7E7FE022B07D100F047FF013008
:1057C000012802D94CF67950F3E708BDE01100201A
:1057D0000A4B40F409000A4A1B8940F04000B3F527
:1057E000166F36BFA3F63813A3F5166343F4807320
:1057F000C2F80837C2F84005704700BFE01100202A
:1058000000A0085073B50D46284C0646FFF77EFFF2
:105810002846FFF7DDFF2379BBB1A07900F01CFF1C
:1058200018B14BF23F20FAF7ADFE214694F905007E
:1058300000F06EFC1E4B40F20312C3F8442E40F2FF
:105840005B62C3F8482E02B070BD94F83C00A0B172
:1058500001AB94F903202946304600F081FE9DF803
:10586000050000F0F9FE10B140F6CA10DBE79DF923
:1058700004000E498DF80300DAE7012E05D0022E50
:1058800002D048F25050CEE7012029460DF1030323
:1058900094F9032000F036FF014610B148F65D5040
:1058A000C1E79DF9030000F063FFE2E7E01100208B
:1058B00000A008502DE9F04106460C46174605F0B9
:1058C000C8FE0028FBD02E4D4EBB01232B7095F84F
:1058D00028301BB9E9793846FFF794FF294B4FF47C
:1058E0007A7253F8273003F5FA73B3FBF2F3264AC2
:1058F000E41A264BC3F8002129690127224B2144D1
:1059000085F82870224DC5F84015C5F8C031FFF75D
:10591000E1FE044658BB00242046BDE8F081012E7C
:1059200021D102232B7095F82830B3B995F8078060
:105930003846FFF7EBFE4046FFF74AFF134BD3F81C
:10594000002442F01002C3F8002440F20312C3F80E
:10595000442E40F25B62C3F8482E0C4B293C0A4AA5
:10596000C3F80421C8E748F68820FAF70BFEEF6475
:10597000D5F84C358B42CEDA3046FFF7DDFECBE76B
:10598000E0110020000C03000B00008000A0085074
:1059900000500850024B00221A801A85704700BF41
:1059A000E011002040220021014806F03FBA00BF6C
:1059B000E0110020024B0344187D00F5166070478B
:1059C0008C0B0300014B187F704700BFE0110020D3
:1059D000024B98691B69C01A704700BFE011002094
:1059E0000A4B1A7FD3E90430C01A094B03EB820338
:1059F000DB6BC01A074B53F822304FF47A7203F274
:105A0000F313B3FBF2F3C01A704700BFE01100209C
:105A10008C0B0300F40B0300FF2808B503D947F2F1
:105A2000A140FAF7AFFD012904D0022919D049F2AB
:105A3000FA20F6E7002343F4801340F000700B4A8D
:105A400043F4847340F44030C2F8203EC2F8280E7C
:105A5000D2F8203503F0F703032B05D140F27F6025
:105A6000DFE74FF08073E6E708BD00BF00A00850F5
:105A7000F8B5264E4FF48067C6F89070BFF34F8F8D
:105A8000BFF36F8F05F0DFFD0546214C05F07FFE6B
:105A90000121401B1F4D2061C5F8A410FFF708FE2F
:105AA0004FF40023C5F8401EC5F8003402F0B8FFDB
:105AB000194B1A4AC5F83833194BC3F8C820013AB4
:105AC000C3F8C42040F6FE72164BC5F81433164BCB
:105AD000C3F804250023A3832385A3614FF48073B7
:105AE000C6F89071C5F88834236C376103B19847C4
:105AF00005F01EF884F83C0038B10C4B187C00F01F
:105B0000BDFDBDE8F84000F083BDF8BD00E100E058
:105B1000E011002000A00850030000800600008073
:105B2000005008500100008000200850880000202C
:105B3000024B0022D8701A71704700BFE01100209C
:105B4000020E034B0002C3F8342EC3F82C0E70472C
:105B500000A00850044B054A0344D0711B7D03F597
:105B600016631381704700BF8C0B0300E011002007
:105B7000F8B5334C06460F4694F829301BB944F269
:105B8000B730FAF7FFFC01232E4A84F82830D2F808
:105B9000003443F00103C2F8003405F05AFD002838
:105BA000FBD02EBB0123E17938462370FFF72AFE94
:105BB0002378012B02D04CF6AF70E2E7224AD3647F
:105BC00002F5A0421360204B3046D3F84C552946CD
:105BD000FFF7B2FD2369ED1A76BB1C4B4FF47A72C6
:105BE00053F8273003F5FA73B3FBF2F35819F8BDF5
:105BF000012EE8D10223E57938462370FFF786FDB0
:105C00002846FFF7E5FD0F4BD3F8002442F01002C1
:105C1000C3F8002440F20312C3F8442E40F25B6242
:105C2000C3F8482E2278022A02D040F69F70A8E7D7
:105C3000054AD6645E60C6E705F12900D7E700BFD4
:105C4000E011002000A0085000500850000C030094
:105C500008B5FFF72FFE58B9064B0122C3F84005DF
:105C600003F5A04302201A61BDE80840FCF71CBE02
:105C700008BD00BF00500850F8B5154D0646174640
:105C800008466B7F1BB94DF22930FAF77BFC8EB9C1
:105C9000012BAC69297F0AD100F0AEFA20442B69B0
:105CA0003A46C11A3046BDE8F840FFF7D1BF05F0CB
