:020000040002F8
:103000003DB8F3960030020000080000F0500400C4
:1030100000010000000000000000000000000000AF
:1030200000000000000000000000000000000000A0
:103030000000000000000000000000000000000090
:103040000000000000000000000000000000000080
:103050000000000000000000000000000000000070
:10380000D0A700202D7C0300715B0500197C03000C
:10381000197C0300197C0300197C0300197C030048
:10382000000000000000000000000000FD7C03001C
:10383000197C030000000000E57E0300197C0300F2
:10384000617F0300617F0300617F0300617F0300EC
:10385000617F0300617F0300617F0300617F0300DC
:10386000617F0300617F0300617F0300617F0300CC
:10387000617F0300617F0300617F0300617F0300BC
:103A5000617F03003BAD0500617F0300617F0300D0
:103A6000617F0300617F030025AD0500617F0300D6
:103A7000617F0300617F0300617F0300617F0300BA
:103A8000617F0300617F0300617F0300617F0300AA
:103A9000617F0300617F0300617F0300617F03009A
:103AA000617F0300617F0300617F0300617F03008A
:103AB000617F0300617F0300617F0300617F03007A
:103AC000617F0300617F0300617F0300617F03006A
:103AD000617F0300617F0300617F0300617F03005A
:103AE000617F0300617F0300617F0300617F03004A
:103AF000617F0300617F0300617F0300617F03003A
:103B0000617F0300617F0300617F0300617F030029
:103B1000617F0300617F0300617F0300617F030019
:103B2000617F0300617F0300617F0300617F030009
:103B3000617F0300617F0300617F0300617F0300F9
:103B4000617F0300617F0300617F0300617F0300E9
:103B5000617F0300617F0300617F0300617F0300D9
:103B6000617F0300617F0300617F0300617F0300C9
:103B7000617F0300617F0300617F0300617F0300B9
:103B8000617F0300617F0300617F0300617F0300A9
:103B9000617F0300617F0300617F0300617F030099
:103BA000617F0300617F0300617F0300617F030089
:103BB000617F0300617F0300617F0300617F030079
:103BC000617F0300617F0300617F0300617F030069
:103BD000617F030051AD0500617F0300617F030039
:103BE000617F0300617F0300617F0300617F030049
:103BF000617F0300617F0300617F0300617F030039
:103C0000617F0300617F0300617F0300617F030028
:103C1000617F0300617F0300617F0300617F030018
:103C2000617F0300617F0300617F0300617F030008
:103C3000617F0300617F0300617F0300617F0300F8
:103C4000617F0300617F0300617F0300617F0300E8
:103C5000617F0300617F0300617F0300617F0300D8
:103C6000617F0300617F0300617F0300617F0300C8
:103C7000617F0300617F0300617F0300617F0300B8
:103C8000617F0300617F0300617F0300617F0300A8
:103C9000617F0300617F0300617F0300617F030098
:103CA000617F0300617F0300617F0300617F030088
:103CB000617F0300617F0300617F0300617F030078
:103CC000617F0300617F0300054B00221B78826047
:103CD00001330260034A4260C371FF2303727047DD
:103CE0002014002020010800064A074B02604FF410
:103CF00016729B7882800822C3710023827103723E
:103D0000704700BF5102030020140020F8B5C71D02
:103D10000028054627F007070CBF0020384600F0B2
:103D20006FFA041E02DA6FF00B00F8BD2F4EF18817
:103D3000B0880331737A0330327A89B280B209F0E5
:103D400064FE0028EFDB2744B178F378002D07F1FB
:103D50000307194427F0030700FB01F10CBF002003
:103D6000384600F0D1FB07440DB9002FDBDB012002
:103D70003C4600F03BFAA0B1F17A91B10737002D33
:103D80004FF025034FF0280227F007040CBF002056
:103D9000204604F087FB0028C5DB04440DB9002C45
:103DA000C1DBB37AABB1012000F020FA88B1F37A1D
:103DB0007BB10734002DB17A24F007040CBF00203A
:103DC000204603F08FF90028ADDB04440DB9002C28
:103DD000A9DBF3683BB115B1F4600020A5E72834F6
:103DE000A1D42046A1E7002DF7D1FAE72014002046
:103DF0001FB572B6194B1C69ECB9BFF34F8F184948
:103E0000184BCA6802F4E0621343CB60BFF34F8FD4
:103E100000BFFDE7B2FBF6F22B465D1C002AF9D18C
:103E2000DBB203F110056D4405F80C2C0A2233B9FE
:103E300001A8A047E1E7024600230A26EDE7013B7F
:103E4000DBB203F110050DEB0506B0FBF2F502FB4A
:103E50001500303006F80C0C2846E8E72014002046
:103E600000ED00E00400FA050A4B07B51A89684620
:103E7000ADF80020DA889B88ADF80420ADF8023058
:103E800001F0A4FE18B1FA219C20FFF7B1FF03B0A6
:103E90005DF804FB2014002010B5044620B309F09F
:103EA0004DF810B94FF0FF3010BD07F0C9FBB0F569
:103EB000FA7FF7D80E4B00221A751A70DA600122C9
:103EC0001C615A801B229A80DA8040F203221A81F8
:103ED0004FF442725A81EFF3108472B600F086FB01
:103EE00004B962B60020DFE76FF01500DCE700BF21
:103EF0002014002038B51446002847D1254D2B7DCD
:103F0000032B40D071B112B96FF0150038BD0139E3
:103F100006293BD8DFE801F0043A133A293A320087
:103F20001378AB700020FFF7F1FE0028B7BF012324
:103F300002236FF00B002B75A8BF2B75E6E71379F2
:103F4000002BE1D05379002BDED01288FB2ADBD87E
:103F500063881B3B9BB2E02BD6D81A2AD4D923689E
:103F6000A2886B600C4B9A80DCE7012000F03EF9E0
:103F7000237808B1012BC7D9EB72D3E71388FF2B45
:103F8000C2D8AB72CEE74FF0FF30BFE76FF02C0026
:103F9000BCE700BF2014002024140020F8B50D4613
:103FA000064620B319B311F0070420D1114F3B7D11
:103FB000012B02D16FF00B00F8BD032B02D14FF0A3
:103FC000FF30F9E700F04AFB0028F8D02846FFF759
:103FD0009DFE0028EEDB0CF089F93046F96801F00F
:103FE00071FEFFF741FF032320463B75E4E76FF0C6
:103FF0001500E1E72014002010B5064C237D032BAB
:1040000003D101F077FE02F097FB09F053FD002089
:10401000207510BD2014002008B501F035FE0549BB
:10402000012000F0DBF804490020BDE8084000F062
:10403000D5B800BFC93C0200E93C0200074B4FF075
:10404000FF3141F6FF72C3E9001205490022C1E9C0
:1040500000221F21C3E90212704700BF6000002048
:10406000381400203F280CD801380B4BC0F3421203
:1040700000F01F0053F8223023FA00F000F0010096
:104080007047FF2806D04038044BC0F3421200F0BE
:104090001F00EFE701207047600000203814002067
:1040A000074B0146006849681A4603C240F48C2257
:1040B00000201A6041F0107242F4FF625A607047AB
:1040C000600000200246034B0068516803C30020D3
:1040D000704700BF381400200246034B0068516847
:1040E00003C30020704700BF680000200138064B62
:1040F000C0F3421200F01F0003EB82039B6823FA17
:1041000000F000F001007047600000200A8870B5E0
:1041100095B2C67CC2F30E020488023602F118037F
:104120003444C35AA4B233442344013BB3FBF4F3F5
:1041300003FB0422438892B29342044B8BBF2B4073
:10414000AB4313439BB20B8070BD00BF0080FFFFE9
:104150004A1E062A08B50346084604D84FF4D17112
:104160001520FFF745FE094A914202D940F2A311FA
:10417000F6E711B903B1196008BD2BB11B68002225
:10418000C3E901211A1D1A600430F5E7FAFFFF7F29
:1041900010B5114B00EB41041A786389B3FBF2F3BD
:1041A00003FB0223013A1A44B2F5706F027980785A
:1041B00028BF00231A440B18B2FBF0F100FB1121B9
:1041C0005B1AB3FBF0F100FB113313446FEA434376
:1041D0006FEA5343638110BD40140020024B03EB90
:1041E00080035960704700BF40140020034B03EB6D
:1041F00080035868003818BF012070474014002021
:104200002DE9F04F10F0070A85B0054604D040F2C2
:104210006F111720FFF7ECFD524F044607F10C0613
:10422000B146B04657F8043B8DF80BA03BB101A84E
:1042300098479DF80A30082B01D9F521E9E79DF848
:104240000B1041BB05B131604F4506F10406E9D1C1
:10425000002D6FD00022DFF810910227964689F8D2
:10426000002058F827A0013FBAF1000F55D09AF866
:1042700004609AF802C0FF2E60D039460023481C23
:1042800038D19C44BCF1FF0F3FD90AB189F800E056
:104290004FF49A71BDE79DF80AC04B1D60465A0065
:1042A00004EB4303022838BF0220441E404223444B
:1042B000BDF808406444CCF1000C0340013C04EA22
:1042C0000C04B4F5803F02D340F20511A1E775B1AB
:1042D0009A1A0120326091701480D0709DF80C0001
:1042E000107101984FEA104C1081A2F806C004FB2F
:1042F0000134A9E758F8210028B190F804B0B3457B
:1043000004BF80781B180139B9E7DBB2E6458AF8AB
:1043100004303CBF5FFA8CFE01227B1CA1D10AB1A4
:1043200089F800E0022640F6FF6A58F82670B7B90F
:10433000013EFAD2601B05B0BDE8F08F0023E5E72F
:1043400007EB410309F101093846A3F80AA0FFF77A
:104350001FFF5FFA89F1BB788B42F1D8E8E74FF095
:104360000009F6E7441400204014002038B54FF649
:10437000FF7302460380184B03EB81031869A8B151
:1043800084780379B3FBF4F104FB1133DBB21946F3
:1043900000EB4105B5F90A50002D0EDB0131B1FBF0
:1043A000F4F504FB1511C9B28B42F1D1002038BDE0
:1043B0006381BDE8384009F004BB00EB4104638928
:1043C000C3F30E031380C278002AF1D14FF4E571D4
:1043D0001720FFF70DFD00BF401400201C4B03EB1E
:1043E000810370B51C69054644B3030404D54FF43A
:1043F000EC711720FFF7FCFC0146204609F0C4FAD7
:10440000FF28014604D02046BDE8704009F0D9BA23
:10441000A078B5FBF0F300FB1353DBB219460A1D7D
:1044200004EB4206B6F90260002E09DB0131B1FB54
:10443000F0F200FB1211C9B28B42F0D1002070BD26
:104440008B4201D00023E37004EB42025580DAE78F
:1044500040140020094B03EB8103014610B51C6991
:10446000204609F091FAFF28014604D02046BDE815
:10447000104009F0A6BA002010BD00BF4014002073
:10448000F8B5104B074603EB810301461C69204633
:1044900009F07AFAFF28054611D0E288238953EA09
:1044A000024606D00146204609F08BFA01463846FE
:1044B000B04720462946FFF76BFE0020F8BD0520D7
:1044C000FCE700BF4014002038B50E4B044682794B
:1044D00003EB8203186908B9052038BD8278E179B9
:1044E0009142F9D24B1CE37100EB41035D89B3F9B2
:1044F0000A30002BF3DBA58009F063FA206000206E
:10450000EBE700BF4014002070B5044610F0030034
:104510000E4603D04E211820FFF76AFCFFF718FE65
:10452000054624B1034831460460FFF711FE2846D2
:1045300070BD00BF5C1400202DE9F14FDFF870B0B2
:104540001E4607460D46DBF8003090469DF828A031
:104550009DF82C901BB960211820FFF749FC5246AA
:104560000921404609F098F84A4684B209213046AC
:1045700009F092F881B2DBF80000214409F0D8F983
:10458000386018B9286001B0BDE8F08F0444534684
:10459000414609222C60386809F041F84B4609224F
:1045A0003146286801B0BDE8F04F09F038B800BFC7
:1045B0005C14002070B50E46044609F080F80546EC
:1045C000304609F07CF8044B2A1821461868BDE8EB
:1045D000704009F0D2B900BF5C140020024B18688B
:1045E00008B109F099B970475C140020124B012200
:1045F0004FF0FF3000215A60C3F80803C3F80015DC
:10460000C3F804255A6040F6FE72C3F808034FF45D
:104610008060C3F8001503F560330849C3F8082526
:10462000C1F88800BFF34F8FBFF36F8FC1F88801C7
:10463000C3F80825704700BF00A0045000E100E067
:1046400002680020014B1A60704700BF6014002010
:10465000014B1B68184700BF60140020024B18680C
:10466000003818BF01207047601400200A46064831
:104670008F2302F8033BC368C1F80330036953601A
:1046800043699360704700BF64140020024B5A8C4A
:1046900002435A845B6A184764140020014B0021CE
:1046A0005B6A18476414002010B5154C05F024FF10
:1046B00006F0FAF9208DFFF7F1FF237E63B1224661
:1046C000104904F1190052F80C3BE3606368536031
:1046D000A36893600AF059FB218DE06A02F058FE4E
:1046E000E36AB3F8AA0002F0B3FC636B94F83010ED
:1046F00094F831009847002384F8383010BD00BF8B
:10470000641400206D460200034B93F838300BB15F
:10471000FFF7CABF704700BF6414002008B5094BFB
:1047200093F83820022A04D040F257312720FFF7AF
:104730005FFBDA7A42F00102DA72BDE80840FFF767
:10474000B3BF00BF6414002070B50F4DC9009200C4
:1047500000F00300EE6B01F0080102F004021B01FF
:10476000347803F0100304F0F3040C43144304F012
:10477000EC041C4304433470B5F8483073700223D2
:10478000A5F8403070BD00BF64140020F7B5184C88
:104790000646E56C0DB1A36D23B940F6C401272090
:1047A000FFF726FBB4F85C3001F003012F466B7075
:1047B0002B7823F003030B4307F8033B3846B4F888
:1047C0005C20A16D08F024FD0DF1020201A9206E0C
:1047D0002565A76509F096F8019809F081F801228E
:1047E000B4F85C103060206E09F029F803B0F0BD19
:1047F000641400202DE9F3416E4CE56A95F814111C
:1048000050B92A7D94F8673003EB8203FF2B03D164
:1048100095F815318B4202D0FF2005F0B9FB00233B
:10482000E66A8DF80130ADF80230337A062B00F2DB
:10483000A980DFE803F004848787A79A9A0094F898
:1048400068300DF1020101A8A6F80431ADF802307C
:1048500001F0ECFA30B1019820B105233372BDF8B4
:10486000023013E0E36A93F85130002B62D10DF16E
:1048700001020DF10201E06E08F048FF002859D056
:10488000BDF80230002B46D101223272E063A4F859
:10489000483003B1C31C6364777A96F80A80367A8D
:1048A000022E06D0053E012E6FD81B780326022B60
:1048B0006DD0E06E08F082FF0346002869D1032E18
:1048C00004D001F0CDFA80F00103DBB203F0010265
:1048D00084F87020EA7C002A5DD0B4F84820002AD1
:1048E00059D0424639463046FFF72EFF606F05F03B
:1048F00055FD0022616FE06B05F0A2FE18B9E16B77
:10490000606F05F0F5FF012384F8783084F83830C3
:1049100002B0BDE8F0819DF801201AB9032302809E
:1049200082709BE7027802F00302012A0CBF032287
:104930000222AAE70023ADF80230012333721E4899
:104940000023A3E7B6F804310DF101020DF10201D5
:10495000E06EADF8023008F0D9FE00287FF47FAF9A
:1049600040F2C3512720FFF743FA0DF1020101A8DD
:1049700001F05CFA08B1019810B940F2D251F1E7A8
:1049800006236BE740F2DC51ECE7012691E70023B8
:104990009CE701239AE7394642463046FFF7D4FEAA
:1049A000E06B05F0FBFC06F07FF80021E06B0BF0FC
:1049B000C7FCA8E764140020C81400202DE9F04FBC
:1049C000002285B0A04C05460F46D4F82CB0CDE9A6
:1049D000022294F838200BF1A803022A019304D094
:1049E00040F6AD112720FFF703FA226D032092F85D
:1049F00000A0517802440AF00308A4F85400A4F877
:104A00005C10A265002D00F00A8119B1206E08F03B
:104A1000F6FE0146E1649BF80910228D013142F453
:104A20000072C9B2228581EA9A0616F0010641D1C8
:104A30009BF8082022B3032A8BF8091009D8012A11
:104A40001ED002A9E06E08F083FE90B940F2D47146
:104A5000C8E7053A012A02D940F2B371C2E701F072
:104A6000F3F910B940F2DE71BCE731460820FFF7D8
:104A70000DFEDBE91C21013241F10001CBE91C21D3
:104A8000228D002642F400628BF8086022859BF894
:104A90001420CAF3C009D2B1B4F85C20BAB106F050
:104AA00021F80328FBD0022806D1FFF7FDFD05B051
:104AB000BDE8F08F2E46EAE748B99BF80A2002F0DD
:104AC00001024A4503D1012384F83130EDE79BF818
:104AD0000A0000F00102914555D04FF00009E26C48
:104AE000002A40F0AE80B4F85C20B2FA82F252099B
:104AF00002EA1A1284F87C20002F00F0AB8005F047
:104B0000FBFCB9F1000F40F0DA800127238D5A0633
:104B100006D44020FFF7C2FD238D43F040032385D8
:104B200026B1B4F809300133A4F80930002D00F0A3
:104B3000CB80B4F805300133A4F80530002384F8A5
:104B40007B30424802F072FA029830B108F0C8FE99
:104B500000220272019901F0F7FE039B33B100229B
:104B60001A720C220199039801F0BCFE002F9CD10F
:104B7000238D1B069BD48020FFF790FD238D43F0EF
:104B80008003238593E7B4F85C20E2B108F1FF319C
:104B9000012918D8218D41F48051218594F879108C
:104BA000914206D294F8302042F0100284F830206E
:104BB00093E7E16C002990D094F87A1019B1202085
:104BC000FFF76CFD89E70130B8F1030F8BF80A009D
:104BD0001AD008F1FF3101290BD8002A3FF47DAF2C
:104BE000A946DBE91E21013241F10001CBE91E217A
:104BF00075E7002A3FF471AFDBE91E21013241F174
:104C00000001CBE91E2168E7228D0120104942F402
:104C100080528BF804002285FFF738FDECE79BF803
:104C200014200AB105F078FF94F87B204FF00009BA
:104C300001324E4684F87B20228D42F48062228528
:104C40004DE7012254E700BF6414002090140020B7
:104C5000BC14002094F87B20012A3FF650AFD4F812
:104C600080200120904700283FF449AF94F830207D
:104C7000002A7FF444AF628C002A7FF440AF94F89E
:104C8000702022B994F87C20002A3FF438AF9BF8BA
:104C9000132012B1584608F00FFF00209BF8142192
:104CA00096210BF041FB0020FFF7A4FDB9F1000FA6
:104CB0003FF42CAF414603A8FFF768FD26E74146C5
:104CC00003A8FFF763FD20E7B4F807300133A4F829
:104CD000073036E7F0B53C4C87B006460F4694F8EF
:104CE0003830012B04D040F60C112720FFF780F854
:104CF000E56A2B7923B1002104202971FFF7C6FC56
:104D00002B7A052B03D131490220FFF7BFFC002E7F
:104D10004ED1002F4CD0D4F8803030469847002830
:104D200046D094F83030002B42D12B7DE76A8BB10E
:104D30000123039605F180010220CDE9046394F874
:104D40006730029305F19003CDE90063D5E91E2396
:104D500005F06AFD9621012097F815210BF0E4FA81
:104D6000D4F88430E56A23654FF4817394F86700C2
:104D7000A4F854302B7D95F8151100EB8300FF2823
:104D800003D195F814318B4201D005F001F92B7D48
:104D90009BB1606F05F002FB616F206D05F00AFEAC
:104DA000002005F05FFB022384F8383007B0F0BD27
:104DB00007B0BDE8F040FFF777BC206D05F0EEFAD4
:104DC00005F072FEECE700BF64140020A814002078
:104DD000064B10B593F8382002F0FF0422B91C7678
:104DE00002F0CEFA204610BD0C24FBE7641400202C
:104DF0000A4B0B4A10B51A60FFF7EAFF20B14FF4D7
:104E0000B1712720FEF7F4FF064C00F083FFC4F8D1
:104E1000840000F083FF606710BD00BF9C1D002070
:104E20009C4F020064140020F8B5594C054694F8D4
:104E3000380000F0FF0610B909B102B123B94FF4F0
:104E400020712720FEF7D4FF63639DF8183061625C
:104E5000C4F8802084F87A30E56284F8306084F801
:104E60007B6084F8316084F878606684268584F8F5
:104E7000706084F87C60E6636664A4F84860266528
:104E8000A665A4F85C6005F0AFF805F00DFE95F995
:104E90001C0105F003F9D5F8D070D5F8C80005F06D
:104EA00003F9384605F06CFA95F8240005F006F988
:104EB0000AF0BDFB95F81421364B4FF47A7153F884
:104EC000223003F5FA73B3FBF1F35233191830466D
:104ED00005F072F9304B186805F058FAD5F8BC3077
:104EE000E366D5F8C0302366AB7B233B072B4DD957
:104EF000EB7B233B072B49D9B5F8E630B5F8EC003E
:104F000095F81411984228BF184609F02CFD95F821
:104F1000E830834228BF034698B295F8E4309842BF
:104F200000D3C3B295F8151105F1DC0084F86830A0
:104F300009F0A2FF2F7D95F81511B5F8F06009F082
:104F400012FD0FB9043080B2864228BF0646F3B284
:104F500084F8793084F86730EB7C13B1284608F088
:104F6000ABFD0120FFF746FC002323606360A360D4
:104F7000EB886380B5F8AA30238095F8243023713C
:104F8000D5F818310BB101221A60F8BD1B23C9E70F
:104F90006414002060E705009C1D00201D470200EE
:104FA000BD490200D54C02000947020010B5044675
:104FB00008F09AFD08B9002010BDE04308F094FD08
:104FC0000028F8D0E31683EAA4635A1E1A42F2D0EE
:104FD00020460AF046F81828EDD8A3B2B3EB144FD8
:104FE00004D184EA142313F0FF1FE4D0034B634081
:104FF000581E1840003818BF0120DDE7D6BE898E44
:10500000F0B5070C164BA7F5AA4203EA9023543AD1
:10501000012A20D927F4004042F6AA22801A18BF9C
:105020000120002216211F24164687EA060562EA9F
:105030000505013511D0DD0301394FEA5303ADB247
:1050400045EA56064FEAC4354FEA5404ADB245EA84
:105050005202EAD1F0BD0020E3E70020FAE700BFEA
:10506000E0FF3F0010B5044608480AF026FD084955
:1050700020460AF08EFE20460AF087FC20B120462A
:1050800003F042F8002010BD1220FCE70C150020B0
:1050900014150020304BF0B55A8985B0B0F8607017
:1050A0000C46B0F85E6097429D8928BF174696422D
:1050B00028BF16461B2E2ED0B5F5A47F2DD040F666
:1050C000480301A99D4228BF1D4608F09AFDBDF87E
:1050D0000A30BB4228BF3B46E380BDF80C30AB42F0
:1050E00028BF2B462381BDF80630B34228BF334684
:1050F0006380BDF80830AB4228BF2B46A380FF2356
:105100002370E3881B3B9BB2E02B08D940F2095186
:105110003920FEF76DFE1B2FCED105B0F0BD6388A0
:105120001B3B9BB2E02B02D940F20B51F0E72389E5
:10513000A3F5A4739BB2B3F5E06F02D940F20D5111
:10514000E6E7A388A3F5A4739BB2B3F5E06FE4D9B7
:1051500040F20F51DCE700BFEC140020014BD8886F
:10516000704700BFEC140020044BD87CC0F3400013
:1051700080F0010000F00100704700BFEC14002037
:1051800008B509F026FB00F0FFFF00F0E7FD09F08D
:10519000D4FD01F0B9FF01F0F7F904F011FC002291
:1051A0000E4B4FF01B110E481A600E4BC3E9010164
:1051B0001A804FF4A4711A82283303F8152C0A4A76
:1051C00043F81C1C1068083212F8041C43F8080C41
:1051D00003F8041C07CA83E8070008BDA01D0020CF
:1051E00003021B00EC14002000E60500044B41F60E
:1051F0004C52C3E906221B229A74FFF7C1BF00BFBD
:10520000EC140020024B1B6803B118470C207047B8
:10521000A01D0020014B93F934007047EC140020CE
:10522000034BDA8802801B7983700020704700BF2F
:10523000EC14002013B5837804461A2B08D8042BED
:1052400004D9124A22FA03F3DB0705D4122017E02F
:10525000292B01D03B2BF9D12088B0F5706FF5D206
:1052600001A909F08FFB68B9019B93F8202102F096
:10527000FF004AB9A27883F82121FF2283F8202178
:1052800002B010BD0220FBE70C20F9E72000380433
:105290000188A1F11B039BB2E02B0CD8428844F299
:1052A0004810A2F5A4739BB2834204D8034B00209C
:1052B00059819A8170471220704700BFEC1400207A
:1052C00038B50278447802F0010302F0020254EA91
:1052D000030101D1112038BDBAB98578002DF9D06C
:1052E000002B18BF002400E01D46204608F056FCA5
:1052F0000028EFD0284608F051FC0028EAD0054BE2
:1053000000209C73DD731882E5E7002BECD00024AD
:105310002546EAE7EC14002013B5008801A909F03E
:105320004AFB044620B9019890F832311BB13A2467
:10533000204602B010BD90F85C3003F0FF04002B53
:10534000F5D190F853309B0703D1FF2380F8323119
:10535000EEE70249543009F018FDE9E759F502007B
:10536000F8B503780546032B02D912242046F8BD70
:105370004378032BF9D8467E0EB11124F6E78378E3
:10538000012BF2D100F0E0FCC307F6D5AB7813F0A7
:10539000010414D0EA78012A3AD82A693E49A2F2D7
:1053A0005370884236D8AC686FF41C7CA4F6C410E5
:1053B000614488422ED8944234BF122400249807B6
:1053C00011D5EA78012A27D82A6934498A4225D892
:1053D000A9683348A1F6C41C84451FD8914238BF40
:1053E00012262643F4B259071DD5EB78012B0CD8B1
:1053F0002B692B49A3F6C4128A4211D8AA68A2F6D7
:10540000C41088420CD89A420DD244F01204ADE781
:105410001224D4E73024D2E71226E2E73026E0E770
:1054200044F03004A2E7002CA0D12B7E013B062BD8
:105430009BD801212046FFF70DF8064620B940F61B
:1054400042413920FEF7D4FC90300AF09CFC18B1A0
:1054500096F854309A071DD1EA78A978012AA868ED
:10546000B5F800C014BFB2FA82F202222E7E18BF35
:105470005209CB070B4B48BF2F6983F8201083F8E4
:105480002120A3F822C083F8246083F82810C3E900
:105490000B076BE70C2469E73CF670028FFD700286
:1054A000CBF37002EC14002000B589B0437940F2D0
:1054B00071218DF8043083798DF8053001238DF842
:1054C000063003788DF80730B0F801304B43039372
:1054D000B0F803204A430D4991F824100592A2F632
:1054E000C4128DF81C1000218DF81D1008498A4245
:1054F00009D8A3F6C4138B4205D801A8FFF730FFE3
:1055000009B05DF804FB3020FAE700BFEC1400207E
:105510003C369C002DE9FF4106780746012E04D158
:105520004378012B0DD9122469E0002EFBD1012113
:105530003046FEF78FFF054600287CD140F69A5191
:1055400007E031460020FEF785FF054620B940F60A
:105550003F513920FEF74CFCBB88002B65D10AF087
:10556000CDF9002863D195F8F430002B61D128469D
:10557000FFF778FD04460028D5D1DFF808813146D1
:105580003046FEF767FF98F8143006461BB110B995
:1055900040F65B51DDE7D8F830200392002B41D074
:1055A00096F8F430002B3DD07B88DBBB98F8203098
:1055B0003046009303ABD8F82C2098F822100AF05C
:1055C0005BFA78B330460AF009FC06F1400307465F
:1055D00005F14002643653F8041BB34242F8041B41
:1055E000F9D12846FFF73EFD024610B140F6825140
:1055F000AFE70C2F07D10146284603F07FF920467C
:1056000004B0BDE8F08117B140F68B51A1E798F8DE
:1056100021302846296D43F0040385F8543003F007
:1056200047F9ECE7BA887988E6E71124E7E73A24F6
:10563000E5E70C24E3E70AF05FFB04460028DED12F
:1056400095F8543095F8892022B195F88A201343B3
:1056500085F88900053B012BD1D82B6D13B940F695
:10566000AA5176E701210846FEF7F4FE29464FF4D9
:105670009072064607F0CCFD0423316D304686F863
:105680005430CCE7EC1400202DE9F04F457A89B076
:105690000446A90755D545F001054572072D52D896
:1056A00000F052FB35EA000040F0A68194F8487003
:1056B000002F40F0A181012D45D1A369BA4AA3F280
:1056C0005371914200F29681E26893423BD8A28FD7
:1056D000B4F842309A4236D8E38E228E618DA08C87
:1056E00008F069FA002800F0858123789A1E022AC2
:1056F00040F28281012B26D813B9A378012B22D83E
:105700006378032B1FD894F84930013B062B1AD835
:10571000DFF8988201210020FEF79CFE98F81430F3
:105720000646ABB901210846FEF794FE002818BFD3
:10573000064606F190000AF026FB814610B30C27BE
:1057400002E06A07AAD11227384609B0BDE8F08FF7
:1057500090300AF018FB0028E4D06FF00043D6E93F
:1057600024129A4208BFB1F1FF3FDBD1637A304681
:10577000009304F11803E26861780AF07DF981462C
:105780000028CFD030460AF0BFF808B13A27DBE74F
:1057900030460AF0B3F801460028F7D10DF11200A7
:1057A000FEF7E4FD0546002800F02281BDF8123026
:1057B0000DF1140A02937E4B18681B7905908AF844
:1057C000043098F8353013B1504600F0BDFE029910
:1057D000284609F0FFF8D8F8183040F2E24BC5F837
:1057E000DC3094F84A305A4604EB4303988C598DC8
:1057F00000230BFB00F00BFB01F185F81E3101F0DB
:1058000053FDA5F8C4B105F1A80BC5F8C400C5F84F
:10581000C00158460AF028FC039000F08FFA039B61
:1058200010F0200F98F812C0A5F8E63008BF1B2230
:10583000604B1ABFB8F80620B8F8081011461B686C
:10584000A5F80621A5F8081185F8E4C01BB195F963
:105850001C11029898470123B8F8062098F8051003
:1058600005F1BC00A5F8DA300332B8F80830019130
:1058700092B298F80410033300919BB205F1C00175
:10588000FEF75AFED5F8BC3023B940F6F471392042
:10589000FEF7AEFAD5F8C03013B940F6F571F6E769
:1058A00008F032F9C5F8C80001F09CF820F07F40FC
:1058B000D8F81C10C5F8D000284694F84A3004EBFC
:1058C00043031A8EDB8EA5F8CC20A5F8CE300AF063
:1058D000C8FB514605F1160009F0EAF898F8353092
:1058E00013B9FF2385F80D32D8F8383023B10122DF
:1058F00005F59171584698472F49584608F0ADFD77
:1059000001F070F80C23B0FBF3F202FB1300C0B2FD
:10591000431DDBB2082B9CBF0D30C3B2284685F86F
:10592000223009F084F828460AF0B3FBB9F1000FE1
:1059300003D1617830460AF05AF804F1030BA278DB
:10594000217830465B4609F0FFFF002856D1122728
:105950000021B5F8AA00FEF793FD00283FF4F4AE4D
:1059600041F2882193E7DDF8148045456AD0029B17
:10597000594698F8AC2003F0FD0008F1AD0300385B
:1059800018BF012008F026FF00285BD008F1B403FF
:1059900098F8B32005F1B40195F8B30008F01AFFA8
:1059A00000284FD00B27D3E73CF67002EC14002000
:1059B00040710600A41D0020FA140020E36851463F
:1059C00030468DF814900693637ADB0741BFA369D4
:1059D000079301238DF814300AF0DBF994F849108D
:1059E000304609F0AEFF2946304602F061FFABE6D3
:1059F0000D27A9E63027A7E61127A5E6B9F1000F84
:105A000002D1304602F080FB5B46A2782178304616
:105A100009F0FAFFB9F1000F02D1042386F85430DF
:105A200035655A46A178304601F0FD01003918BFAE
:105A300001210AF004F823784BB9A2780593029269
:105A4000CAF804305046FEF73FFD00288BD0B9F16C
:105A5000000FB3D00421304609F0A0FF00287FF4E6
:105A600073AE0C2774E700BF10B5437994B0032BD5
:105A700057D823F00203027940F271218DF80630E5
:105A8000D0F806308DF80420CDF807304389027B2A
:105A9000ADF80B3001238DF805208DF80D3003880B
:105AA0004B43049342884A430792A2F6C412847B74
:105AB000417B41EA0421ADF82810047CC17B41EA16
:105AC0000421ADF82E10847C417C41EA0421ADF81C
:105AD0003410047DC17C41EA0421ADF83A10417DC7
:105AE000847D41EA0421ADF84010C17D007E41EA89
:105AF00000210E48ADF8461000218DF84C108DF8AD
:105B00004E100B4990F824008A428DF84D000AD8B7
:105B1000A3F6C4138B4206D801A8FFF7B5FD14B055
:105B200010BD1220FBE73020F9E700BFEC14002085
:105B30003C369C0038B501210020FEF78BFC054661
:105B400020B941F2BB213920FEF752F990300AF01A
:105B50001AF91D4B1B7D4BB3E0B195F85430053B52
:105B6000012B17D828460AF039F9044610B141F242
:105B7000C621E8E7284602F059FA95F85430224643
:105B8000214623F00403284685F8543002F0B6FE7F
:105B9000204638BD01210846FEF75CFC054610B9D9
:105BA00041F2D221CFE790300AF0EDF808B90C2489
:105BB000EEE728460AF012F904460028E8D1284604
:105BC00002F034FAE4E700BFEC1400200278034648
:105BD00072B1427862B142881A2A09D982881A2A97
:105BE00006D90068034A506000209B8813817047E3
:105BF00012207047EC14002002680020014B9A61CB
:105C0000704700BFEC14002002680020014BDA61ED
:105C1000704700BFEC1400200378A3F10A02112A98
:105C20009BBF024A0020122093747047EC1400209E
:105C30000378FF2B15D14378FF2B12D18378FF2BEC
:105C40000FD1C378FF2B0CD1037923F0E0021F2A78
:105C500007D11F2B05D05B09034A002082F82430AE
:105C600070471220704700BFEC14002008B50520D3
:105C700000F058F80AF010FB014B024A9A6308BD85
:105C8000EC1400209550020010B50A4C072000F0DB
:105C900049F80949201D08F082FB04F10800074972
:105CA00008F07DFB04F10C000549BDE8104008F048
:105CB00076BB00BF28150020AC000020B4000020F7
:105CC000BC00002038B5074C0D4600F021FD60688F
:105CD000256008F05CFBFFF789FA00F09BFE0123CA
:105CE000237438BD28150020014B187C704700BF75
:105CF0002815002010B5064CA06808F048FBE068A5
:105D000008F045FBFFF73CFA0023237410BD00BFE9
:105D100028150020004870473915002000487047BA
:105D20003B160020C208044900F00700012383400D
:105D3000885C03438B54704770000020014BD3E90B
:105D40000001704770000020034B1868C0F300206A
:105D5000400040F0010070477000002008B505F0D9
:105D60006FFC0023074A32F82310814205D302EB6F
:105D700083029378044A137008BD01330C2BF2D1CF
:105D80000023F7E714E605003D170020024B1878C2
:105D9000072828BF072070473D170020006808B576
:105DA000B0F8AA3080F86411A0F8653190F8143189
:105DB000012B06D0022B04D04FF43F710620FEF7D2
:105DC00017F880F8673190F81531012B01D0022BBC
:105DD000F2D180F8683100F25B100249BDE808405A
:105DE00008F0D3BF45E40200024B002283F82220D2
:105DF0009A8470473E170020044B93F82220012A12
:105E00001ABF036001200020704700BF3E1700202A
:105E1000054B024693F8221001291BBF01209A84EA
:105E2000002083F8220070473E170020054B0246F1
:105E300093F8220020B1136009B19B8C0B800120E4
:105E4000704700BF3E170020044B002293F8220049
:105E50009A8410B1012083F8222070473E17002059
:105E6000034B93F82200B0FA80F04009704700BF5E
:105E70003E17002050B90A4A0120134603F8010BCF
:105E80000868C2F801008A889A807047012805D105
:105E9000034B0A68D8719A608A889A81704700BF5C
:105EA0006417002050B90B4B187888B1D3F8012043
:105EB000B3F805300A6001208B807047012806D1B5
:105EC000044BD87920B19A689B890A60F3E70020D7
:105ED000704700BF6417002010B9044B1878704752
:105EE000012806BF014BD8790020704764170020B5
:105EF000F7B58A8800238DF80600ADF804200868FD
:105F00000B4A8DF807300146147802F5A872019DFE
:105F1000D8B2844201D8082007E052F8087F013344
:105F20005668AE4208BF8F42F2D103B0F0BD00BF49
:105F300078170020084B0146002230B55C7803F248
:105F40000113D0B2844201D8082004E013F8015FA5
:105F500001328D42F5D130BD78170020F8B52D4CB7
:105F600063782218013B92F80251DBB283426370DE
:105F700030D01A010101961C8F1C2644274406F1DB
:105F8000100C56F804EB664547F804EBF9D1823261
:105F900082312244214402F1100652F8047BB242BD
:105FA00041F8047BF9D1E118221891F8026182F8D6
:105FB000026106267343704303F5857300F585700F
:105FC000E618E35827182350B388BB8091F83A317C
:105FD00082F83A312846FFF7ADFF082818D1237818
:105FE000013BDBB29D42237012D02B3305F12B0213
:105FF00004EBC30304EBC20293E8030082E803004E
:106000002078FFF797FF08281CBF241884F8025156
:10601000F8BD00BF78170020F0B5254D89B095F880
:10602000984105F299116846224607F0F1F8214699
:10603000684608F0EDFB0446B8B300EB400102A847
:10604000C9B2FEF705FB631E95F8A1610124DBB21E
:1060500095F8981105E0721CB2FBF1F001FB1022DB
:10606000D6B206F120020DEB020010F8202C002A17
:10607000F1D103EB430100F8204C06EB460220313E
:106080002A44694411F8187C82F8A27111F8177C2F
:1060900011F8161C82F8A37182F8A411013BAA1909
:1060A000DBB282F89941FF2BD2D109B0F0BD00BF1D
:1060B0007817002070B5064688B00C46002A4ED0EE
:1060C000294A92F8A131D01890F8991119B9FF21F5
:1060D0002820FDF78DFE03EB43010133114491F8B5
:1060E000A251E57091F8A35191F8A4112571617145
:1060F000002180F8991192F89811B3FBF1F001FB9F
:10610000103382F8A13192F8C23123B9174902F550
:10611000DD7008F037FE65790D220021684605F034
:106120003F0545F0400565710AF05DFDE37804AA7E
:1061300069468DF80F30304623798DF80D508DF873
:106140000E3004230AF0E6FC9DF81F3023709DF802
:106150001E3063709DF81D30A37008B070BD032120
:106160006018FEF775FAD6E778170020196002006C
:10617000044B5A78824286BF1B1893F842010020D4
:10618000704700BF78170020064B00224FF4617162
:106190001A8083F8C32183F8C421A3F8C61183F8B9
:1061A000C22170477817002010B51446FFF7A0FEF3
:1061B000082813D0FFF7BEFE094B5A7882420DD94A
:1061C00004B12070184490F83A3190F84A01012B3C
:1061D00008BF40F0010000F0010010BD0120FAE707
:1061E000781700202DE9F0478246894617469846E1
:1061F000FFF77EFE08280546064603D0FFF79AFE05
:10620000082860D1324C6378072B5ED8082D15D151
:106210002678731C072E237003D96C212820FDF7E4
:10622000E7FD06F12B02D9F8000004EBC20344F8A5
:106230003200B9F8042083F806A09A80657807F147
:1062400010026B1C290163704B1C234412F8010DD2
:10625000BA4203F8010FF9D1813108F1100321444A
:1062600013F8012D984501F8012FF9D1254410218B
:10627000404608F013FB102185F84201384608F02B
:106280000DFB85F802616678002385F84A013146E6
:10629000104885F83A3108F0BBFA0128054607D8BE
:1062A00031460D4808F0B4FA002818BF0135EDB2A8
:1062B00084F898510025284684F8A151FFF7ACFED8
:1062C0002846BDE8F0871220FBE70720F9E700BF6A
:1062D00078170020BA180020C2180020064B10B50D
:1062E0005878013840B2002800DA10BDC4B2204608
:1062F000FFF734FE601EF5E778170020014B83F8A6
:10630000C301704778170020014B93F8C301704711
:1063100078170020431E4AF2B7129BB293429DBFEA
:10632000024BA3F8C6010120002070477817002017
:10633000014BB3F8C6017047781700200A4B30B5FF
:106340005C7884420ED9184490F802012B3003EB9C
:10635000C004A5790D7053F8300010600120A388A7
:10636000938030BD0020FCE77817002002460748E4
:1063700010B590F8C34124B1417821B1023003F047
:1063800041FB204610BD0C46FBE700BF78170020FC
:10639000F8B50646174C48B3617804F5A17008F0CB
:1063A00037FA94F89851074604F29910294608F0F4
:1063B0002FFA2D1AEDB2AF421AD800256278EBB24F
:1063C0009A4201D80120F8BDE21892F842215AB948
:1063D0000621324601FB034104EB031301F58571ED
:1063E00003F18200FFF766FE0135E7E70546E5E7C2
:1063F0000020E8E778170020F0B51B4E89B007466B
:106400000D46737883422CD9331893F8424144BB2C
:106410000D22214668460AF0E6FBEB7806EB0710F2
:1064200004AA8DF80F3069462B7982308DF80E3032
:106430006B798DF80D3004230AF06CFB2A789DF8F7
:106440001F309A420AD16A789DF81E309A4205D1CF
:10645000AC789DF81D30E31A5C425C41204609B0DF
:10646000F0BD0020FBE700BF78170020074B5A78EB
:10647000824209D91A1892F842212AB9062202FB4F
:10648000003000F5857070470020704778170020B5
:10649000F8B50E46074606211546304608F0FEF9C7
:1064A000044670B10C4B0022587803F23913D1B274
:1064B000884202D801242046F8BD013203F8015F6A
:1064C000F5E73146384608F0BFF90828F3D0024B0B
:1064D000034483F83A51EDE778170020034B80F826
:1064E00074101B680BB1408818477047A81D002026
:1064F000036830B50024D3F8C40042F21075A3F845
:106500004040B3F844404443B4FBF1F4A3F84440A2
:106510004C1E05FB0242B2FBF1F2A3F84220094AED
:10652000B2FBF1F20132A3F848209A8F05FB024436
:106530005A6B5043B4FBF1F4B0FBF1F09C63586329
:1065400030BD00BF005A6202054B1B7833B9054BC2
:106550001A681B79026003710120704700207047A0
:106560004019002078000020054BFF221A70054AD0
:10657000016811600179117100221A70704700BF23
:10658000401900207800002007B5064A10681279EB
:10659000009068468DF80420FFF7E6FF03B05DF831
:1065A00004FB00BF407106000346084671B13F2B53
:1065B0000BD8074AD35C03F07F02914205D08CBF11
:1065C0000120002000EAD31070470120704700BF6F
:1065D0005CE60500FF230B7002234B7083238B7056
:1065E000014B1B78CB707047441900202DE9F84F00
:1065F000D0F804800C46D8F81860304607F05EF9F1
:10660000054620B94FF4AA711020FDF7F1FB0146B1
:10661000304607F061F9B5F800B082461FFA8BF7F3
:1066200017B94FF4AC71EFE7224B00F103091B6877
:10663000D3B998F8023098F803202370637802F0F9
:106640000F02A4F802B023F00F03134323F0C0039A
:1066500063709AF8003003F00303012B0FD0022B74
:106660000DD04FF4BB71CFE73A464946B8F8020067
:10667000984705460028DCD12846BDE8F88F6278A7
:10668000304663F30512627007F02CF9054610B925
:106690004FF4C071B8E7FB2F02D940F28F11B3E776
:1066A0003A464946201D06F0B3FD304607F075F81E
:1066B000E2E700BFAC1D002038B5134C10220021CA
:1066C000201D0AF090FA0125257404F10803102218
:1066D000002104F11400C4E901330AF084FA84F8BB
:1066E000205004F11803094AC4E90533002363620A
:1066F000A36284F82C30C4F82D30C4F8313084F80B
:1067000035301360A36338BD44190020AC1D002050
:1067100010B5084C2378FF2B04D040F299111020BB
:10672000FDF766FB06F0E0FC2070BDE81040FFF7C7
:10673000C3BF00BF7D00002010B5034C207806F0D9
:10674000EDFCFF23237010BD7D000020014B187865
:1067500006F0F4BC7D000020014B024A1A6070472D
:10676000B01D0020ED6502002DE9F341DFF86881DE
:10677000054608F11407D8F80830D8F81840227AEE
:10678000012A22D1D8F8382052B1137A1BB9BF217F
:106790001020FDF72DFBD8F83840C4B9002083E065
:1067A0001A7A012AFAD01C464C4AEFF3108172B6CD
:1067B00050680068506001B962B6A34208BFC8F8CB
:1067C0003840237A1BB9EE21E2E73A46EDE7267A14
:1067D000F6B205232372731E0B2B6ED8DFE803F08D
:1067E0006A062235676D3E6D6D6D6D5B636813B92A
:1067F0004FF40371CCE72046294698470420EFF375
:10680000108272B6237A052BD9B24FF0000359D10A
:106810002372D8F83810A14201D1C8F83830B2BB81
:1068200062B634E0636813B940F21521B0E7294637
:10683000204698470346ADF80400C0B2C3F30723CF
:10684000012B2FD0022BDAD11AE0636813B940F282
:106850001D219DE7204698470020D0E763680BB9CB
:10686000FE2195E786222A7001225988AA706A7152
:1068700000225869A5F80310AA7106F08EFF0420C3
:10688000D8F83830A34202D10023C8F838300028A5
:106890003FF471AF08E0124B294620461B68984729
:1068A000034668B9267298B102B0BDE8F0814FF492
:1068B00015716DE740F257216AE740F25A2167E708
:1068C0000220DDE711B940F27B2161E71846A6E717
:1068D000002B7FF450AF61E74419002048190020D5
:1068E000B01D0020134610B5027A22B140F20231E9
:1068F0001020FDF77DFA0A4601460248BDE8104027
:1069000008F01DBA48190020044890F82C301BB933
:106910000349243008F030BA704700BF4419002002
:106920002FED02000346064890F83C203AB190F85B
:10693000352022B9034900F82D3B08F01DBA7047F5
:1069400044190020D56502000A4610B5037A23B128
:1069500040F20A311020FDF74BFA014607230248A6
:10696000BDE8104008F0EBB9581900201346027A30
:106970000AB1037270470A460146014808F0DFB9C0
:10698000481900201B234FF01B128384038482616B
:106990008382C260038539B94FF4A473034AC38468
:1069A0004384C261C3820261704700BF480148014D
:1069B000014908F0EAB900BF91ED02000B8BA2F883
:1069C00009001046A2F80B304B8BA2F80D308B8BD0
:1069D000A2F80F30CB8B0249A2F8113008F0CFB9E2
:1069E000E1ED0200094AD2E90003434083EAB01115
:1069F00081EA43214FEAF34311605360044B58434B
:106A00004FEAF06000EB8000704700BF800000207C
:106A1000BB79379E10B50A4C08210948FDF718FECE
:106A2000D4E900321343F7D0064CFFF7DBFF2060B8
:106A3000FFF7D8FF236860601843F6D010BD00BF91
:106A4000800000208419002038B5A0F10A03144604
:106A50000D46DBB22046432B96BF0A4AFE21D15C8D
:106A600008F014FB68B965B12978272907D03F29B8
:106A700008BF3E212046BDE8384008F007BB26216C
:106A8000F8E738BD9CE60500174B184A9A60184A8B
:106A9000DA62184A1A61184A5A61184A9A61184A01
:106AA0001A63184A5A62184ADA64184A9A64184AE9
:106AB0009A63184B184A9A60184A1A62184A5A6020
:106AC000184A1A60184A9A62184ADA62184ADA6052
:106AD000184A9A61184A1A63184A9A64184ADA647A
:106AE000184A5A62704700BFB41D0020C3F102006B
:106AF000FDF30200CFF3020099F30200ED6D0200F6
:106B0000A56F0200A56E0200EFF4020007F5020077
:106B1000616E0200B41E0020D9F10200BFF4020031
:106B2000E9F10200E5F202004DF4020013F4020064
:106B30006BF4020033F402007BF5020023F502003F
:106B40001FF50200D5F40200054B064A1A65064AF5
:106B50005A65064B064A1A65064A5A65704700BFD1
:106B6000B41D0020C1F6020055F60200B41E00203C
:106B70003FF6020053F70200054B064A9A65064AA3
:106B8000DA65064B064A9A65064A1A66704700BFE0
:106B9000B41D002031E6020015E70200B41E0020FB
:106BA00029E5020067E7020073B5054601A80E4615
:106BB000FFF722F920B94FF4AA615120FDF718F927
:106BC0002222002101980AF00EF8019C204600F8CC
:106BD000036F252E00F2C280DFE806F01318383E5E
:106BE000C0C0C3565A5DC3C362C0C0C0C06EC3C379
:106BF000808097C09EC0C0C0C0C0C0C0C0C0C0A27E
:106C0000AEB8294608F079FBC0B98CE02E68D6F8FA
:106C10000832636096F80C322372286890F89F302F
:106C200033B908F093FA2B68DB881844A6F80E02F3
:106C3000B6F80E32082063721B0AA372FFF7E8F859
:106C4000002840F0908040F25751B6E72B6893F847
:106C5000213102202371F1E72B681720D3F84C2251
:106C60006260D3F85022A260B3F85422A281D3F814
:106C70002C22C4F80E20D3F83022C4F81220D3F806
:106C80009030C4F81630D9E72B6893F8A030E0E7CD
:106C900000F03CF9B8E70146284600F049F9B3E7AF
:106CA000112306202371592363710023A371392313
:106CB000E37130232372C1E72B6893F8A0203AB127
:106CC00093F89D20227193F89C3003206371B5E7FF
:106CD00093F89B20227193F89A30F6E72B680920ED
:106CE000B3F800212271120A6271B3F8A220A271D6
:106CF000120AE271B3F8FC202272120A6272B3F82F
:106D0000A030A3721B0AE37298E72B6893F82E2138
:106D1000227193F82F31D8E7294607F05EFC73E71C
:106D2000124B1B6813B940F2495146E701462A4607
:106D300023209847042081E70C4B1B68002BF2D0DE
:106D400001462A4624209847052077E7074B1B6811
:106D5000002BE8D001462A462520F4E740F24451B2
:106D60002BE701206AE702B070BD00BFB41F00200E
:106D70003F289ABF024B53F820000020704700BF05
:106D8000B41D00203F289ABF024B53F8200000207A
:106D9000704700BFB41E0020F7B5056804464FF6E3
:106DA000FF77D5F8BC600DF102010DF1010230460C
:106DB000ADF8027006F0AAFC01A9304606F0C8FC46
:106DC00048B1019806F08CFD2168A83100220272BA
:106DD000FFF7BAFDE7E7044905F1280003B0BDE875
:106DE000F04007F0CCBF00BF57F10200036810B5B8
:106DF0009A7B04461E2A2CD1002283F8512083F866
:106E00004A2083F85622036893F85210B3F8AA0078
:106E100081B1C3F8A9211049A3F8AA0103F5D070E4
:106E200083F85220A3F8AD2107F0A6FF23680020C5
:106E3000987310BD0122A3F8990183F8981103F209
:106E40008F1083F89F11A3F89C1183F89B210349AD
:106E5000EAE70220EDE700BF81F3020069F30200D8
:106E600038B50468E57BBDB9D1F801200B4BD1F8EA
:106E7000051013400A4AC4F86230C3F307630A409E
:106E800043F00803C4F8662084F8653008F026F95A
:106E90000423E373284638BD0125FBE72FC904F717
:106EA0006FDB0080006810B5837B042B2AD1D1F8FA
:106EB00001304A1CD1F80540C0F86230C3F30763C3
:106EC000C0F8664043F0080380F86530002380F87E
:106ED0004A30837380F8333190F8713103F0FF0446
:106EE0000BB1002010BDB0F8AA3000F26910447256
:106EF0004381D1F801300449C3605368036107F04E
:106F00003BFFEEE70120EDE795F4020010B50446E3
:106F1000FEF714FF044A054B024009200B40C4F859
:106F20000120C4F8053010BD2FC904F76FDB0080C5
:106F300037B50C460568FEF701FF0A4B0A4A0340C5
:106F40000A4095F8621000930B4001928DF80030D2
:106F50006B4603CBC4F801000920C4F8051003B048
:106F600030BD00BF2FC904F76FDB008038B5DB04EC
:106F7000154604D5037D13B10023436338BD446B2C
:106F80000134446308F0D8FA836B9C42F6D30023A3
:106F9000034943632846BDE8384007F0F6BE00BF0A
:106FA000E3F4020038B504680546A37B012B01D049
:106FB000E37BB3BB94F85330980713D44A7884F832
:106FC0005D204A88A4F85E208A88A4F8602043F0F7
:106FD000020284F85320DA070ED5134904F1540055
:106FE00007F0D3FE94F85330DB070FD4E37B43B1B3
:106FF00053214020FCF7FCFE94F83231002BECD1F9
:10700000F0E701232846E37308F068F8A37B012B1F
:107010004FF0000301D0002038BDA37384F84A303C
:10702000F9E70120F8E700BF59F5020070B50568DF
:10703000044602F0A3FC054B0146E8721B681BB135
:107040002046BDE87040184770BD00BFBC1F00203F
:10705000024B1B6803B11847704700BFB81F0020E0
:10706000F0B51F4D00242B7814709BB1013B6D6867
:10707000DBB21E1B012E0FDC05EBC40655F8347085
:1070800076688E4208BF874227D0B84271EB060669
:1070900012D214700020F0BD1E197710C6F34706F7
:1070A00055F837C005EBC70E8445DEF804708F41F4
:1070B0002CBF33463446DCE705EBC30455F83350A8
:1070C00064688C4208BF854206D0A84271EB040474
:1070D00028BF01331370DDE71C4601201470DAE786
:1070E0009C19002010F0070208B503D06321482046
:1070F000FCF77EFE18B1034B197258601A70C80075
:1071000008BD00BF9C190020014B00221A70704777
:107110009C190020014B00221A607047AC19002016
:1071200008B5044B186810B9FFF7F4FF08BD0C2030
:10713000FCE700BFAC190020024B1879003818BFDB
:1071400001207047AC19002013B5CDE90012054BA2
:10715000FF225A7100F11003DDE9000183E803000A
:1071600002B010BDAC190020C3693BB983692BB9CB
:10717000034B1B681B1A5842584170470120704747
:10718000AC19002030B50D4AFF231371D0E9065326
:1071900073B1D0E902149D610C44D9682144D960CF
:1071A000816939B1CB610023C0E90633137130BD69
:1071B0001560F5E7002BF6D0D960F4E7AC19002094
:1071C00010B5124AFF231371C16189B91368836135
:1071D00003B1D86110600023C169C36099B1CB6865
:1071E0007BB18468A3420AD230213720FCF700FE2D
:1071F0008B6988618361002BEDD0D861EBE71B1BA5
:10720000C3600023CB600023137110BDAC190020B4
:10721000014B1868704700BFAC190020034B0020D9
:107220001B6803B9704718469B69FAE7AC19002040
:107230000B4B002230B51B6804464FF0FF3510465B
:1072400023B911B9002808BF104630BDDA68A24240
:1072500003D3AA423CBF154618461A469B69EFE77E
:10726000AC19002070B50F4CFF232371036A1BB1CA
:1072700081689D68A94203D2E5213720FCF7B8FD5B
:10728000C2698669DA619E6152B193619A691AB1E5
:10729000D361C26811444A1BDA600023237170BDB8
:1072A0002360F3E7AC190020F8B54FF0000C04465A
:1072B000284E084686F805C0002135680B4685B97A
:1072C0007579002DF6D15BB1984225D3013CB0FB16
:1072D000F3F11C4403FB01F5B4FBF3F48C420ED92B
:1072E000F8BD2F690BB19F4207D23B4627B94FF437
:1072F000A3713720FCF77CFDA98AAD69DFE7B5FBF8
:10730000F3F603FB165626B9B5FBF2F602FB16564A
:10731000DEB10139ED1AE1E7451E1D44B3FBF4F47B
:10732000B5FBF0F5AC42DBD3B3FBF5F605FB163746
:107330004FB9B6FBF2F702FB176727B9B6FBF1F7B7
:1073400001FB17671FB10135ECE72846C8E7304657
:10735000C6E700BFAC190020FF23084A0B700D23BD
:107360004B7082238B701368C1F803305368C1F8E7
:1073700007309368C1F80B30704700BFB219002086
:1073800016220021014809F02EBC00BFB2190020CE
:10739000F8B5154D04466B7D23B3D0E96C7608F043
:1073A00046F994F81421114B5230114953F8223008
:1073B0004FF47A7203F2E733B3FBF2F3DB19B4F85C
:1073C000AA2046F100061B182A8005F10C0046F1A0
:1073D00000066B60E3880222AE606B80BDE8F84077
:1073E000FFF7C4BAF8BD00BFB219002060E705007E
:1073F00059730200024B00221B6883F8702070470B
:10740000C819002008B502F0B9FA014B187008BD80
:1074100088000020024B18686C3001F089B800BF6A
:10742000C819002038B50F4CFFF7F4FF656801F06C
:1074300055F863682860186820B940F2F541322099
:10744000FCF7D6FC08F052FB10B940F2F741F6E722
:1074500002F0A4FF002003F005F8636804221A710B
:1074600038BD00BFC819002070B52B4C06466368B4
:10747000186808F03BFB054620B941F2C4313220C0
:10748000FCF7B6FC236893F8543013B941F2CA31C3
:10749000F5E776B107F0C9FB30B163681A79022AC3
:1074A0000ED841F24A31EAE7284607F0D6FB002819
:1074B000F3D163681A79022A17D841F2AA31DEE7BC
:1074C0001A79082A02D941F24B31D8E71B792846AC
:1074D000A26803F180431269033B52F823309847B6
:1074E0000C2812D941F2DD31C9E71A79082A02D9EC
:1074F00041F2AB31C3E71B79A26803F180435269C3
:10750000033B52F823309847EAE7A368DB68BDE8FD
:10751000704053F820301847C819002008B5074BB1
:1075200093F900207F2A04D140F29B313220FCF7EE
:107530005FFC02707F221A7008BD00BF8800002027
:1075400010B504788EB004F00F0404A9224608F0A8
:10755000EEFAFFF757FF042C33D11B4C059A236832
:10756000107893F8741088422BD1507893F87510E6
:10757000884226D1907893F87610884221D1D0782D
:1075800093F8771088421CD1107993F878108842CC
:1075900017D1517993F87920914212D19DF8212089
:1075A00093F87A309A420CD10DF10F00FFF7B6FF35
:1075B0009DF90F3004A90093237C227B606808F0BA
:1075C000A7FA03200EB010BDC81900200D4A536859
:1075D00010B51979022904D841F2BC413220FCF7D8
:1075E00007FC1979082902D941F2BD41F6E71B7958
:1075F000926803F180439268033BBDE8104052F863
:1076000023301847C819002010B5054C637B2BB1F7
:1076100002F04EFF02F04EFA0023637310BD00BF6C
:10762000C819002010B5064CFFF7EEFF0122636871
:107630001A71FFF7EFFE2068BDE8104008F0DDBCCE
:10764000C819002010B500B919B9BDE81040FFF7FE
:10765000E9BF0D4A53681979082904D841F28C41D1
:107660003220FCF7C5FB19790C2902D941F28D4172
:10767000F6E71B79926803F180435268093BBDE845
:10768000104052F823301847C819002038B52F4C45
:10769000FFF7C0FE656800F021FF63682860186886
:1076A00020B940F252413220FCF7A2FB08F01EFA4A
:1076B000054610B940F25441F5E7236893F8893044
:1076C0006BB123681A6D93F88A10C3F8F02093F811
:1076D00054200A4383F85420002283F889206368E9
:1076E0001A795AB11B79012B08D00021206808F0C3
:1076F0007CFB18B9BDE83840FFF794BF2368144AF3
:1077000093F88830D05C02F0D9FC0121252002F0EA
:107710003FFC284602F042FE0121084602F0DCFC54
:10772000E81CFEF723FE607320B102F09DF94020B3
:1077300002F0B2FE002362680821E373A37323748E
:10774000D380032321735171137138BDC8190020F0
:10775000E0E6050070B5384C054663681B79012BDF
:1077600004D940F6FC013220FCF742FB02F03CFC5D
:1077700002F09EFE02F09EF9304802F007FE30480B
:1077800002F0FEFD2F4802F08FFC6B7A23B12368D4
:107790001B6E0BB101221A602B7A032B02D140F62B
:1077A0002E11E0E7206893B9032190F8882090F823
:1077B00049500E460132B2FBF6F303EB4303D31AF2
:1077C000DAB245FA03F3DB072BD580F8882090F96D
:1077D000580002F063FCFFF759FF256895F8483020
:1077E000F3B16FF00043D5E920129A4208BFB1F11E
:1077F000FF3F15D008F01CFED5E9202390429941A7
:107800000ED3236893F8483083B92568FEF790FDBE
:10781000044608F00DFE0C4BE4FB0301C5E9200112
:1078200070BD013911F0FF01C4D1CEE70120FEF790
:10783000AFFD0028F4D0E8E7C81900207C810200E1
:1078400055555500D6BE898E40420F002DE9F843AC
:10785000624F0023064689467869D7F80080037096
:10786000437002F0B7FD054630B900250320FFF74D
:1078700059F82846BDE8F8837C69032E237833D174
:1078800023F00F0343F0030323700C236370D8F835
:1078900074307869C0F80930B8F87830A0F80D3045
:1078A00098F87A1007F0B7F90021786908F048FDD8
:1078B0003B6893F8482003F1420993F84180002A7D
:1078C00068D14C46236841467869C0F80330A388E4
:1078D000A0F8073007F096F9414BD3F80C32002B93
:1078E0006CD002F07DFCC0E723F02F033968222220
:1078F00043EA4913627043F0050323700B6DD3F81C
:10790000C830C4F80F300B6DD3F8D020E274100AE1
:10791000120C207540F2E2406275B3F8D820B2FB39
:10792000F0F2A275D3F8D420B2FBF0F2E275C2F304
:1079300007222276D3F8C420B2FBF0F26276C2F3BB
:107940000722A276B3F8CC20E276120A2277B3F8A7
:10795000CE206277120AA277D3F81720C4F81F202E
:10796000DB7E94F8242084F823300B6D22F01F0274
:1079700093F8223003F01F03134384F82430FEF7FA
:1079800005FA94F8243003F01F0343EA401384F807
:1079900024307CE793F8542052070CD593F84B2001
:1079A0004AB193F84C00FEF761FD0446002888D0E8
:1079B0004FF0010886E77B685879F4E7052E7FF4DD
:1079C00058AF3B6821681A6DC2F8B410A188A2F8BC
:1079D000B8101B6D83F8B3804BE700BFC8190020B7
:1079E00000A0085010B500210320FFF72FFF18B9A1
:1079F000BDE81040FFF716BE074C0321206808F0D1
:107A0000F4F90028F4D00121084602F06BFD636808
:107A100009221A7110BD00BFC819002070B5164C9C
:107A20006368186808F062F8064620B940F26151B0
:107A30003220FCF7DDF963680A22002120681A7100
:107A400000F06CFF236805201B6D9D7D3378C3F328
:107A500040131D402946FFF7F9FE18B9BDE87040F4
:107A6000FFF7E0BD0421206808F0BFF90028F5D039
:107A700023681B6D9D7570BDC81900202DE9F04F5E
:107A8000734C95B00546FFF7BDFC236893F854305E
:107A900013F0060F04D001229621002008F044FCC8
:107AA0002E7828460AA906F00F06324608F03FF85D
:107AB0000B9D55B39DF83930012B50D16B7903F0F4
:107AC000C003A3F140056B426B41627B4AB143B1F5
:107AD000656806F0C3FE636868715B7923730123F0
:107AE000A3736368587908283BD10B999DF8390036
:107AF00007F06AFD626805460B9905329DF839006A
:107B0000FEF752FB636800283DD0226892F854309B
:107B100013F0030106D0062E97BF92F84A100021F9
:107B20002943C9B2606801F0010113F004038171B7
:107B300006D0062E97BF92F84B3000231D43EBB2C0
:107B400003F00103C3710B9BF3B19DF8391082F868
:107B50007A10196851679B88A2F8783014E00023E6
:107B6000B3E708AA0DF11F01FEF7E8FB20B940F6C4
:107B7000A5313220FCF73CF908A99DF81F0007F059
:107B800023FD0546C1E7D880062E00F2C680DFE857
:107B900016F06100E4000700C400C400C400240023
:107BA00002F01EFB266896F85430980713D06568DB
:107BB000AB7983B108A8FFF7B1FC9DF92030022210
:107BC0000AA902932846237B0193FF23009306F121
:107BD000420307F08DFF03251DE06568AB79002B9C
:107BE00000F09B80266896F85420910719D508A8C4
:107BF000FFF794FC9DF920302846062202930AA93B
:107C0000237B09250193FF23009306F1420307F02C
:107C10006FFF00232374FFF7F7FC284615B0BDE87B
:107C2000F08FD30779D5570701D502F0D9FA08A804
:107C3000FFF774FC9DF9202023680292227B4233D7
:107C40000192FF22009206220AA96068C1E700BFE4
:107C5000C8190020236893F85420560738D5616866
:107C6000CA79002A34D00B9A93F85A0015788542C5
:107C700056D1557893F85B00854251D1957893F8A9
:107C80005C0085424CD1D57893F85D00854247D1A0
:107C9000157993F85E00854242D1507993F85F20C0
:107CA00090423DD19DF8392093F85900151A6A4247
:107CB0006A4193F8560001284DD0002A4BD193F821
:107CC0004C30082B02D04A799A4244D002F088FA0C
:107CD0006568AB79002B3CD0266896F85420900755
:107CE00020D508A8FFF71AFC9DF92030284600226D
:107CF00002930AA9237B09250193FF23009306F130
:107D0000420307F0F5FE012323746368DA79002A41
:107D100081D19B79002B7FF47EAF02F061FA5AE7A4
:107D20000022C6E7D10714D5530701D502F058FA4F
:107D300008A8FFF7F3FB9DF9202023680AA9029207
:107D4000227B42330192FF2200920022606807F0FA
:107D5000CFFE0325D9E70A25D7E7616822688B792A
:107D60009DF83A000593012892F8483091F807B041
:107D700083F0010A40F0A8800C98477907F0C0070B
:107D8000A7F1400CDCF1000747EB0C0792F8540018
:107D9000460740F19B8092F84B00002800F0968047
:107DA00092F84C50082D00F093802846FEF7E0F939
:107DB0004AEA00005FFA80FA002F00F08B800C99ED
:107DC0002846FEF719FB0646216891F8542091F8E1
:107DD000418055074ED50B9A91F85A001578854287
:107DE0007AD1557891F85B00854275D1957891F8F4
:107DF0005C00854270D1D57891F85D0085426BD1E9
:107E0000157991F85E00854266D1507991F85F202E
:107E1000904261D19DF8395091F85920A81A4542F5
:107E2000454162685279082A58D091F84C90A9EBE4
:107E30000202D2F1000949EB0209002E51D1BAF138
:107E4000000F50D00C9B42319DF83A20404606F07E
:107E5000C1FCBBF1000F0BD0236893F85630012B07
:107E600056D02BB9002D53D110B1B9F1000F51D11B
:107E700002F0B6F9236893F854309B073FF4ABAE99
:107E800002F0AEF9059B002B3FF4A5AE20680C9BD9
:107E900000F142019DF83A2090F8410006F09AFC6A
:107EA000256800B90EB308A848EA4608FFF736FB74
:107EB0009DF920300293237B01935FFA88F30093AE
:107EC000012205F14203BFE600275FE74D7969E72C
:107ED000002679E73E4677E70025A2E74FF0000944
:107EE000ABE70120B5E73046B3E795F85530023BE4
:107EF000012B3FF670AE002F3FF46DAE08A8FFF7E0
:107F00000DFB9DF920300293237B0193FE23D6E7DE
:107F10000028ADD00A257EE673B5414CFFF774FB0F
:107F2000002240F2E24023685A721A6DB2F8AA1099
:107F30005981D2F8C410B1FBF0F11984B2F8CC1019
:107F4000B2F8CE20598469469A844FF47F42606922
:107F5000DA844FF6FF721A8506F04DFE236893F817
:107F6000482003F11405EAB162691278520619D566
:107F70009DF8052002F0C002402A13D10098BDF8F8
:107F800004205861AA8003F10E02207B082838D013
:107F900003F10D01FEF7D2F938B941F21341322055
:107FA000FBF726FF00225A61ECE723685A7B42F078
:107FB00002025A735A6FC3F81A20B3F87820DA8392
:107FC000186D93F95810A830FEF788FA2068154903
:107FD00006F0D2FE20681449036D2A30B3F8AA20B7
:107FE000A0F809209B7DC37206F0CFFE0221206815
:107FF00000F094FCFFF70EFA02B0BDE87040FFF706
:10800000F9B993F87A105973596FC3F80E10B3F891
:10801000781091800021C3F81A10D983D0E700BFEF
:10802000C8190020B5F7020071F70200036D10B502
:10803000044623B940F261313220FBF7D9FE022217
:1080400007494272B3F8AA304381FF2380F82730F2
:108050004FF6FF73038506F08FFE0023236510BDE6
:10806000B5F70200F8B5194F0646FDF753FE01219A
:1080700078610020FCF7B2F9054620B940F6850189
:108080003220FBF7B5FE4FF49072002108F0ABFDF3
:1080900001210846FCF7A2F9044620B14FF4907282
:1080A000002108F0A0FDBB6813B940F68F01E7E797
:1080B000304607F02EFC284607F063FE24B1204628
:1080C000BDE8F84007F05DBEF8BD00BFC81900204C
:1080D000014B024A9A607047C8190020E0810200F3
:1080E000036810B523B940F677113220FBF780FE04
:1080F000044A13606C3353609368BDE810401B68FA
:10810000184700BFC819002038B5044690F8400051
:1081100000F0FD0004F14201003818BF012084F88E
:108120004100FDF7BFFE94F84030023BDBB2012B6B
:1081300094BF0123002384F8483015D8FEF7F8F8DF
:10814000054608F075F9094BE5FB030194F8483042
:10815000C4E9200143B10020FEF71AF920B940F626
:1081600021213220FBF744FE38BD00BF40420F0002
:108170000149363006F003BE93F70200CD750200C8
:108180006974020045760200D9F8020025740200E5
:10819000197F0200C3F80200B1F80200F573020073
:1081A0002576020087F702008D76020087F702002D
:1081B00087F7020087F7020087F7020087F70200BF
:1081C000E57902001D7A020087F7020087F70200B6
:1081D0007D7A020041750200EBF80200DDF8020032
:1081E000557702008C810200948102009C8102007C
:1081F000D0810200D881020008B505F052FC054A82
:10820000D2E84F3F0133DBB2C2E8413F0029F7D14A
:1082100008BD00BFE01900202DE9F84F1E46474B6E
:108220000D46934600211A7804689DF828709DF841
:108230002C809DF930909DF834A0016032B9A4F1F2
:1082400008015868BDE8F84FFFF7D6BF1A2204F1BD
:10825000090008F0C8FC0123A372BBF1060F3DD84A
:10826000DFE80BF00421273C313C2B00E37A23F0BC
:10827000130343F01303E3720123B8F1080F04F171
:108280000E0284F8189023754FF0FF03A3754FF08A
:108290007F03E37545D004F10D014046FEF74EF82B
:1082A00008BBC3211CE0E37A23F0150343F0150358
:1082B000E1E7E37A43F01003DDE7E37A23F012030A
:1082C00043F01203D7E7E27A4AF01A0A22F01B02BF
:1082D0000AF01B0A42EA0A02E272CDE740F2464186
:1082E0003320FBF785FD637B43F002036373E37A7E
:1082F0005B071FD5BA1E04F11C03012A8BBFAA68B5
:1083000032681168E2618ABFE161B28892889A801E
:10831000E776002323720A492046BDE8F84F06F0AD
:108320002EBD6B7C63736B681968C4F80E109B8854
:108330009380DCE7FF23E376EBE700BFE019002042
:10834000458302002DE9F04305468DB00C46002020
:108350000121FCF77FF8064620B94FF4F171332074
:10836000FBF746FD9030A5F108084D4F07F00BFDD7
:1083700018B196F85430042B17D1304607F0BEFAE6
:1083800098B941467868FFF737FF4FF40073ADF8AE
:10839000043000209DF8043063F307009DF8053099
:1083A00063F30F200DB0BDE8F08302A905F12300AF
:1083B00007F0EEFBEE7A04F10D0916F0100606D078
:1083C0009DF8186048460599324604F021FFEB7A83
:1083D000D90601D45B21C2E713F0040FAA7A95F8FD
:1083E0000DC04FF03E0304F1060105F10E002AD046
:1083F00095F81BE0BEF1FE0F25D123700B23E27030
:10840000A370130184F805C0023363700123237144
:10841000D5F80E30C4F8063083888B8084F80CE0E1
:10842000EB69C4F80D302B8CA9F804302B7EE37473
:1084300041467868FFF7E0FE237923F0600323715B
:108440004FF40173A3E723700223E270A37006F1D7
:108450000A0384F805C0534302336370D5F80E3025
:10846000C4F8063083888B80267326442B7E737372
:10847000EA7A12F0080102D004232371D8E702F04F
:108480000303032B01D12171D2E7520701D5012348
:10849000F3E7022BF1D00BB90323EEE7A4215EE74B
:1084A000E0190020233270B5054692B20C461E46F4
:1084B00005F0BFFA25B1034A556014725672147064
:1084C00070BD00BFE019002010B5034C606805F0D6
:1084D000D2FA237A237010BDE019002038B5134D6D
:1084E000686805F0CEFA044620B940F257113320EF
:1084F000FBF77EFCD5E84F3F013BDBB2C5E8413FCF
:108500000029F7D104F108052322284608F06BFB67
:108510007F2301222846E377FF23A377637584F83E
:108520002330E37C62F34613E37438BDE019002086
:10853000016810B5044631B1034B08395868FFF79C
:108540005BFE0023236010BDE01900202DE9F04FF1
:108550008FB0044698468A46BDF860309146059330
:1085600007F066FFD4F8B430074620460391049321
:1085700007F035FB0546B8F1000F00F06D81B9F149
:10858000000F00F0E280804617F5FA630693039B24
:1085900043F10006FEF742FE834604F1C800594647
:1085A0000790FEF70DFED4F8F01011B1079807F010
:1085B00057FCCDB1D4F8D050BBF1000F17D0DBF889
:1085C00008002A46DBE90031C018069B41F1000192
:1085D000CDE9003607F002F88542034608D240F2A2
:1085E0004D312120FBF704FCD4F8B050E4E75B46A2
:1085F000D4F8B010069A9D1801F2CF72134446F1D8
:108600000006B3FBF1F34B43EB1A66F10002C4E939
:108610003232059B002B40F08D804FF0FF326FF01F
:108620000043C4E92423204607F0C6FAD4F890306A
:10863000D4F8941083465A1B059361EB0600012A77
:1086400070F100034FF00003C0F2F680DDF810C0B7
:108650009445834100DB0492049BD4F8B400834228
:1086600028BF03460493C4F8BC30B9F1000F05D00D
:10867000D4E93223C4E92656C4E92A230423C4F8E2
:10868000B8B02A4620460691C4E928568AF809302F
:10869000334607F0ADFACAF804B08AF80800B8F11A
:1086A000000F00F0D4800123039A06998AF8003065
:1086B000059BDB1B61EB0202012B72F100004FF006
:1086C0000000C0F2BB80794D9D42904100DB1D4609
:1086D000D4F8F030D4F8B060002B40F0B48007221A
:1086E0002046A6FB022807F07AFA002800F0A880AE
:1086F000D4E92630D21848EB00039742039971EB76
:1087000003000DD2D21B6FF0010063EB0103904216
:108710004FF00000984102D3954228BF15462E46DF
:10872000CAF81060049B5B4534BF002001200FB0E5
:10873000BDE8F08FBDF8142042F210732846314690
:10874000E2FB0301C4E924016DE790B36FF000433D
:10875000D4E924129A4208BFB1F1FF3F24D0204649
:1087600007F02AFA17F19802039B0546099008A81A
:1087700043F100038DF82090CDE90C2340F2024331
:10878000ADF8283007F077FF10B940F2964128E79E
:10879000D4E924320C995B1A0D9962EB01025B1B40
:1087A00062F10002002A40DB3D46039E4FF00108C3
:1087B00039E7D4E93226D4F8B050BB1A5219B3FBCA
:1087C000F5F305FB03F346F100069B18A3EB070244
:1087D00046F10006972A04D8ED1846F10006C8466F
:1087E00021E7204607F0E8F90423D4F8A0208DF80B
:1087F0002930D4F8B050099020468DF82090D4E963
:108800003213521AB2FBF5F26A43521843F10003D5
:10881000CDE90C2307F0ECF929468DF8280008A8CB
:1088200006F048F8DDE90C56D9E73D46039E4FF0C7
:108830000108CDF81090F6E604930DE7054647E7EA
:10884000D4E92A3056E74FF0FF32134655E78AF84D
:108850000080CAE9045665E7B9F1000F7FF494AED1
:10886000D4F8B0802046D4E932B1A7EB0B0518EB61
:108870000B03059141F10006B5FBF8F508FB05F582
:10888000ED18D4E9262346F1000607F086F908FB27
:1088900000F005992A46334610EB0B0041F1000128
:1088A000C4E93201204607F078F998E70040420F0A
:1088B00038B504460D4690F8F43023B14FF42371D7
:1088C0002120FBF795FA11B940F28D21F8E7024615
:1088D0000949F83007F0C9FEC4F8F0506B7B03F08B
:1088E000FF0113B140F29321EAE784F8F610204625
:1088F000BDE8384007F04EBBC1FE020038B5044663
:108900000D4602460449F83007F0AFFE29462046DE
:10891000BDE8384007F03EBBC1FE020001292DE949
:10892000F341044604D9022962D04FF4046135E0D2
:10893000D0E9266501F024FB40F2DA634FF47A7245
:108940000746F6183C4B5B6845F1000503F51F53DD
:108950001733B3FBF2F3F61A65F1000506F067FE74
:10896000BF1900F15200D4F8F08045F100053F1A1C
:10897000D8F8C46065F10005FEF74AFC04F1C803AD
:1089800083420ED03246CDE90075D8E96C0106F07D
:1089900025FE8642034605D240F261312120FBF7D5
:1089A00027FA0023254AD4F8F01012689A4291BFA2
:1089B00040F2E240D1F8C42018469B189EBFB3FB9A
:1089C000F0F24243981AC1F8D42041F66A02A1F8A5
:1089D000D82041F66902904202D94FF4FA61DDE7EE
:1089E000DB1945F10005C1E96C3502B0BDE8F08145
:1089F000D0F8F03013B940F2DB71CFE7002540F238
:108A000001125D73A3F81421FF2683F81661D0F8D4
:108A1000F0002946DC30FDF7B5FFD4F8F00007F090
:108A20004DFBC4F8F05084F8F66001F02DFC02B064
:108A3000BDE8F04103F08ABD60E70500EC190020B5
:108A400008B50B4B30B101280DD040F65301212061
:108A5000FBF7CEF918601A6841F669039A4206D905
:108A600040F65C01F3E740F6C4121A60F3E708BD74
:108A7000EC19002038B5094B53F82040084601F0A6
:108A8000D7FD054604F5856406F0D1FD4FF47A73F1
:108A9000B4302C44B4FBF3F4204438BD60E7050047
:108AA0002DE9F84F0C46417D16464C4A21F007014E
:108AB0000546C260002241F001011F460261417576
:108AC00094F80E801BB10121204600F0FBFE637B71
:108AD000032B68D8DFE803F002635A6326B940F23B
:108AE00017213520FBF784F94FF0000A012304F128
:108AF000A800D146637307F0A3FA2046D4E96C328C
:108B000019EB030342F10002C4E96C32C5E90032FB
:108B1000A37B0A3BDBB21E2B97BF314E0026DE4003
:108B200006F0010607F0BCFB28B1002E3ED1607BA9
:108B3000012818BF022004F1DC0B2875584606F006
:108B400099F9A860002F47D0A8F10C08B8F1010FDF
:108B500042D95146284605F0DBFE1FFA80F8204630
:108B600007F09EFB074656BB804528D309FB00F162
:108B70002E75D4E96C325B1842F10002C5E900326F
:108B8000B9F1000F14D140F29D21AAE7D4F81832B0
:108B9000D4F800A20AEB030903236373ADE7D4F80A
:108BA000C490CA46A9E74FF414719AE70020C2E7BF
:108BB0005146284605F0ACFE07441FFA87F801220B
:108BC0004146204600F07EFE584606F053F9A86064
:108BD000D5E90023C4E96C23BDE8F88F2D8C020091
:108BE00005000040F7B501230F4E33700023CDE997
:108BF00000336846FBF768FC044618B10023337065
:108C000003B0F0BD009D6B7B002BF2D005F5EC7737
:108C1000384607F030FC384607F039FC05F5D870C7
:108C20006C73FEF7AFFAE4E7F0190020F0B50546E3
:108C300087B0A0F5EC7405296BD8DFE801F0036478
:108C40004C6A6A5F637B1BB9EA213520FBF7D0F8D9
:108C5000204600F0B1FD00284ED015F8C31CA5F544
:108C6000987615F8C40CFFF705FF16302A4F9528A3
:108C7000F4697B7894BFC0F196000020241A1BB9D8
:108C8000736B9C4228BF1C46A5F1FC0006F0F2F86D
:108C900000F116050220641B07F01CFC022124EAE7
:108CA000E474844228BF0446204607F03DFC10B11E
:108CB000254407F0C1FB002379222946304606F0FF
:108CC00084F97860F06907F0B5FB144807B0BDE897
:108CD000F04003F07DBB2146684601230022FFF7E8
:108CE000DFFE6946284607F0AFFB10B94FF4347138
:108CF000ABE7E3880133E38007B0F0BD07B0BDE820
:108D0000F04004F0EFBE637B042BF5D04FF4837189
:108D10009BE74FF4857198E7F019002019A5020030
:108D2000024B0022C3E90022FFF75CBFF0190020CC
:108D3000014B5870704700BFF019002008B501F0D2
:108D40001FF9044B5A6882422ABF1878002080F02D
:108D5000010008BDF019002010B5044686B00429B2
:108D600060D8DFE801F00325222959002F4B1A783B
:108D700002F0FF03CAB9014601226846FFF790FEE0
:108D8000694604F5EC7002F05DFD20B94FF43571D1
:108D90003520FBF72DF8E3880133E38001F074FA06
:108DA00006B0BDE8104002F075BD04236373F5E71B
:108DB0000323637306B010BDD0F8C43041F64B51A5
:108DC000D0F81C2200F5D870036510F8933C40F8E9
:108DD000EC2C8A428CBF002303F0010340F2E241F5
:108DE000ADF80410816E00F8923C40F8DC1C30F8BD
:108DF000D63CB0F866105343019A20F8D81C016F96
:108E0000009340F8E41C1946FEF79EF904F1A8000F
:108E100007F016F90223CCE7A83006B0BDE81040F1
:108E200007F00EB940F26531B2E700BFF01900203B
:108E30000D4A0146107890B90129536807D1B3F85B
:108E40000421B3F8E8309A420CD8FFF777BF1289B3
:108E5000520706D5187C063818BF0120704700203D
:108E600070470120704700BFF819002038B5174B34
:108E70001C895A6804431C8100F00304032C04D1AC
:108E800040F6DF213620FAF7B3FFC50748BFD960A7
:108E9000840706D5096809780629197406D00B29B4
:108EA0000ED0820644BF08221A7038BD917B1C295F
:108EB000F7D1002400250121C2E91E451175F0E714
:108EC000917B1229EDD10021F8E700BFF8190020AD
:108ED000F7B5857B04460190A5F10C03012B2CD836
:108EE000C388B0F8142201339BB29A4225D1B0F85E
:108EF000AA3040F2E24200253849A0F8873100F25A
:108F00007D10D0F89F304572B3FBF2F38381B0F847
:108F1000A330C381B0F8A530038205F036FF84F892
:108F20002452B4F8222201A8D4F81C12FDF7E0FA6A
:108F300003212046FFF710FFA573E37B283D282B74
:108F4000EDB201D0012D44D8E388B4F810220133EA
:108F50009B1A1B043DD494F8121294F8143194F81F
:108F60001322002908BF19460AB994F8152199421D
:108F700031D194F815319B1A18BF0123012D8CBFF4
:108F80001E4643F0010684F8141184F81521FF23CE
:108F900084F81631124B04F1A8071B680BB1384650
:108FA00098471EB1237B43F001032373384605F035
:108FB0007AFF18B1237B43F0020323730421204678
:108FC000FFF7CAFE0023012D84F82C3194BFA37350
:108FD000E37303B0F0BD0123D0E700BFC5F2020088
:108FE000C81F002008B54B780246232B0CD013D89D
:108FF000142B03D003F0FB0112290DD118460121D7
:10900000BDE8084007F0B5B803689B7B2C2B03D163
:10901000024B1B6803B19847002008BDC41F002005
:1090200013460A1E08BF1F22162870B51ED009D885
:10903000032821D0022803D9122817D0142815D0CC
:10904000002012E025280BD82228F9D920490C68E5
:10905000002CF5D0014618462346BDE8704018475D
:10906000A0F1FE0358425841400070BD1A4600214D
:10907000BDE8704007F07DB81C68A37B192B01D0B8
:10908000132B23D194F8523003BB84F8513084F869
:109090004A3094F8973103F0FF0523B14FF4816112
:1090A0003620FAF7A5FEB4F8AA3084F89821A4F87F
:1090B000993184F89B51C4F89C5184F85652054963
:1090C00004F28F1005F058FEA573B9E70220CCE733
:1090D000C01F002069F302002DE9F743984F804636
:1090E0000E467C68002284F84C2039898805204689
:1090F0005EBFB4F84020013292B2A4F8402007F0DD
:1091000014F838B10B4604F59B7204F1A80120460F
:10911000FDF72CFF3B8903F4C06333B1A37C23B973
:1091200001212046A174FFF717FEB8F1000F40F0AF
:10913000D980002E40F0D6803B897D68590705D53F
:109140002A7C062A02BF01222E747A749A0713D54C
:10915000387C0123072885F89F300AD011281FD0BA
:10916000FDF710FE034628B94FF4C3613620FAF725
:109170003FFE744B744898473B891B0743D57B6877
:1091800093F89E20012A0DD0032A1AD092B9D988CB
:10919000B3F81402091A0C040CD483F8242209E051
:1091A0006A4BE7E7DA88B3F80E12521A100401D4BA
:1091B00000229A7393F89E20FE2A11D140F2256175
:1091C000D4E79A7B133AD2B2092A05D840F241215A
:1091D00021FA02F2D107EDD4002283F85622DEE70D
:1091E000FE2283F89E209A7B0C2A2BD0282A2BD093
:1091F0000A2A01D10B229A731A7C072A01BF022284
:109200007A7400221A743B89DA0731D5FA687B68D0
:109210001668997B93F85200347806F097FF28B1CE
:10922000112C4ED84A4BE340DB074AD51179204632
:10923000FDF7BAF950B9FB68314643481A7905F091
:1092400076FF14E00D22D6E72922D4E70D2C32D088
:10925000112C32D0072C32D02046FDF789FD034671
:109260000028E8D0FA683146374812799847064610
:109270003B781C0707D5A97B95F8520006F066FFDE
:10928000002818BF08262846FFF722FE7C6894F8BD
:109290009E30FE2B26D1237C063B012B22D994F84D
:1092A000203103F0FF0273B10023A4F844300223FD
:1092B000A4F89E3016E0274BD4E7274BD2E7274B84
:1092C000D0E70826D4E7A37B002B49D194F83E20B1
:1092D000002A51D01222A4F84630A4F89E2001237F
:1092E00084F84A307C6894F820311BB9237C063B13
:1092F000012B04D8B4F844300133A4F8443094F876
:109300004A1021B1B4F846300133A4F8463094F93C
:10931000502022B1B4F84E300133A4F84E30B8F1E9
:10932000000F40F041827B7C022B00F03982012B40
:1093300040F0E981637C002B40F0F9810021FFE1DE
:10934000F819002015010300FC190020FD0003009E
:1093500074280200FF01030037020300E58F0200BA
:109360001C2B33D018D8112B2AD0122B22D0032B30
:109370002ED00F3B102BB5D9E37B222B34D8202BDA
:1093800000F295805A1E032A37D8023B022B79D867
:10939000DFE803F0866EE800272B1FD0342BE8D1DE
:1093A0001123A4F84620A273A4F89E30012384F868
:1093B000A03097E70B23A4F89E30A4F846208EE750
:1093C000D4F82832C4F890300323F4E70623F2E7F8
:1093D00094F8993084F8A030072369E71823A4F89B
:1093E0004620A4F89E307DE72C2B00F0BD80342B66
:1093F00000F0B180252B00F0948094F89E30FE2B75
:109400007FF470AF7D6895F89E30FE2B00F0AE8043
:10941000A37B002B7FF466AF94F80D32002B3FF452
:1094200061AFE07B05F073FE054600287FF45AAF7C
:10943000E3880A2B7FF656AF6846FDF785F80028CB
:109440003FF450AF052204F11701684607F0BBFB5B
