:1000000040610020A1F30000CF3C02008DF300000E
:100010008DF300008DF300008DF300008DF30000E0
:1000200000000000000000000000000071F400006B
:100030008DF30000000000003DF600008DF300008D
:10004000B9F60000B9F60000B9F60000B9F60000F4
:10005000B9F60000B9F60000B9F60000B9F60000E4
:10006000B9F60000B9F60000B9F60000B9F60000D4
:10007000B9F60000B9F60000B9F60000B9F60000C4
:10025000B9F600003B5E0200B9F60000B9F60000F6
:10026000B9F60000B9F60000255E0200B9F60000FC
:10027000B9F60000B9F60000B9F60000B9F60000C2
:10028000B9F60000B9F60000B9F60000B9F60000B2
:10029000B9F60000B9F60000B9F60000B9F60000A2
:1002A000B9F60000B9F60000B9F60000B9F6000092
:1002B000B9F60000B9F60000B9F60000B9F6000082
:1002C000B9F60000B9F60000B9F60000B9F6000072
:1002D000B9F60000B9F60000B9F60000B9F6000062
:1002E000B9F60000B9F60000B9F60000B9F6000052
:1002F000B9F60000B9F60000B9F60000B9F6000042
:10030000B9F60000B9F60000B9F60000B9F6000031
:10031000B9F60000B9F60000B9F60000B9F6000021
:10032000B9F60000B9F60000B9F60000B9F6000011
:10033000B9F60000B9F60000B9F60000B9F6000001
:10034000B9F60000B9F60000B9F60000B9F60000F1
:10035000B9F60000B9F60000B9F60000B9F60000E1
:10036000B9F60000B9F60000B9F60000B9F60000D1
:10037000B9F60000B9F60000B9F60000B9F60000C1
:10038000B9F60000B9F60000B9F60000B9F60000B1
:10039000B9F60000B9F60000B9F60000B9F60000A1
:1003A000B9F60000B9F60000B9F60000B9F6000091
:1003B000B9F60000B9F60000B9F60000B9F6000081
:1003C000B9F60000B9F60000B9F60000B9F6000071
:1003D000B9F60000515E0200B9F60000B9F600005F
:1003E000B9F60000B9F60000B9F60000B9F6000051
:1003F000B9F60000B9F60000B9F60000B9F6000041
:10040000B9F60000B9F60000B9F60000B9F6000030
:10041000B9F60000B9F60000B9F60000B9F6000020
:10042000B9F60000B9F60000B9F60000B9F6000010
:10043000B9F60000B9F60000B9F60000B9F6000000
:10044000B9F60000B9F60000B9F60000B9F60000F0
:10045000B9F60000B9F60000B9F60000B9F60000E0
:10046000B9F60000B9F60000B9F60000B9F60000D0
:10047000B9F60000B9F60000B9F60000B9F60000C0
:10048000B9F60000B9F60000B9F60000B9F60000B0
:10049000B9F60000B9F60000B9F60000B9F60000A0
:1004A000B9F60000B9F60000B9F60000B9F6000090
:1004B000B9F60000B9F60000B9F60000B9F6000080
:0804C000B9F60000B9F60000D6
:1004C800064A074B02604FF426725B788280082246
:1004D800C371002382710372704700BF77BE0000AA
:1004E800A0080020064A074B02604FF49C725B7A12
:1004F80082800822C371FF2382710372704700BF94
:10050800B5B90000A0080020F8B5C41D00280546AC
:1005180024F007040CBF0020204600F051FA071E03
:1005280002DA6FF00B00F8BD254EB18870880331F0
:10053800F3790330B27989B280B209F021F9002841
:10054800EFDB3C4473783178002D04F1030419443F
:1005580024F0030400FB01F10CBF0020204600F04A
:10056800B3FB23180DB9002BDBDB717A184679B180
:100578000333002D728923F003040CBF00202046AA
:1005880000F014FC0028CCDB20440DB90028C8DB9F
:10059800317A91B1737A83B1C41D002D24F0070418
:1005A8000CBF0020204602F0EDFF0028B9DB0DB19A
:1005B8000020B8E72018B6D5B3E7002DF8D1B2E788
:1005C800A00800201FB572B6194BDC68ECB9BFF360
:1005D8004F8F1849184BCA6802F4E0621343CB6086
:1005E800BFF34F8F00BFFDE7B2FBF6F22B465D1C51
:1005F800002AF9D1DBB203F110056D4405F80C2C83
:100608000A2233B901A8A047E1E7024600230A26D7
:10061800EDE7013BDBB203F110050DEB0506B0FB7E
:10062800F2F502FB1500303006F80C0C2846E8E716
:10063800A008002000ED00E00400FA050A4B07B509
:10064800DA886846ADF800209A885B88ADF80420FF
:10065800ADF8023001F0BAFC18B1FB219C20FFF77D
:10066800B1FF03B05DF804FBA008002010B50446F4
:1006780028B308F001FB10B94FF0FF3010BD06F0A9
:10068800E1FEB0F5FA7FF7D80E4B00221A744FF44A
:100698008072DC601A801B225A809A8040F2032202
:1006A800DA804FF484721A811F225A81EFF3108482
:1006B80072B600F0D7FB04B962B60020DEE76FF02F
:1006C8001500DBE7A008002010B5002840D1234C16
:1006D800237C032B39D059B1002A3CD00239052993
:1006E80036D8DFE801F0031227352A2D1378637016
:1006F8000020FFF709FF0028B7BF012302236FF08E
:100708000B002374A8BF237410BD13791BB353794E
:100718000BB31188FB291ED853881B3B9BB2E02BD7
:1007280019D81A2917D913689288C4F802300C4BC3
:100738009A80DDE713786372DAE713886381D7E775
:100748001388FF2B07D82372D2E74FF0FF30DBE77F
:100758006FF02C00D8E76FF01500D5E7A00800204F
:10076800A2080020F8B50D46064620B319B311F0CB
:10077800070420D1114F3B7C012B02D16FF00B00F5
:10078800F8BD032B02D14FF0FF30F9E700F0A2FBD0
:100798000028F8D02846FFF7B7FE0028EEDB0BF05C
:1007A800BDFB3046214601F093FCFFF747FF0323CA
:1007B80020463B74E4E76FF01500E1E7A00800204D
:1007C80010B5064C237C032B03D101F097FC02F0F3
:1007D80083F909F0D7F80020207410BDA008002084
:1007E80008B501F041FC03490120BDE8084000F0CC
:1007F800DFB800BFED04000008B501F049FC03496B
:100808000020BDE8084000F0D3B800BFC9040000CC
:10081800074B4FF0FF3141F6FF72C3E9001205495B
:100828000022C1E900221F21C3E90212704700BF5C
:1008380060000020B40800203F280CD801380B4B7A
:10084800C0F3421200F01F0053F8223023FA00F0E0
:1008580000F001007047FF2806D04038044BC0F371
:10086800421200F01F00EFE70120704760000020EF
:10087800B4080020074B0146006849681A4603C2BD
:1008880040F48C2200201A6041F0107242F4FF629A
:100898005A607047600000200246034B00685168A8
:1008A80003C30020704700BFB40800200246034B72
:1008B8000068516803C30020704700BF680000202B
:1008C8000138064BC0F3421200F01F0003EB82030D
:1008D8009B6823FA00F000F00100704760000020D8
:1008E8000A8870B595B2C67CC2F30E020488023637
:1008F80002F118033444C35AA4B233442344013BDD
:10090800B3FBF4F303FB0422438892B29342044BF3
:100918008BBF2B40AB4313439BB20B8070BD00BF12
:100928000080FFFF4A1E062A08B50346084604D879
:100938004FF4D1711520FFF745FE094A914202D9BB
:1009480040F2A311F6E711B903B1196008BD2BB144
:100958001B680022C3E901211A1D1A600430F5E75B
:10096800FAFFFF7F10B5114B00EB41041A78638939
:10097800B3FBF2F303FB0223013A1A44B2F5706F9A
:100988000279807828BF00231A440B18B2FBF0F1D3
:1009980000FB11215B1AB3FBF0F100FB1133134488
:1009A8006FEA43436FEA5343638110BDBC080020DC
:1009B800024B03EB80035960704700BFBC0800205E
:1009C8002DE9F04F10F0070A85B0054604D040F233
:1009D8006F111720FFF7F6FD524F044607F10C067A
:1009E800B146B04657F8043B8DF80BA03BB101A8BF
:1009F80098479DF80A30082B01D9F521E9E79DF8B9
:100A08000B1041BB05B131604F4506F10406E9D131
:100A1800002D6FD00022DFF810910227964689F842
:100A2800002058F827A0013FBAF1000F55D09AF8D6
:100A380004609AF802C0FF2E60D039460023481C93
:100A480038D19C44BCF1FF0F3FD90AB189F800E0C6
:100A58004FF49A71BDE79DF80AC04B1D60465A00D5
:100A680004EB4303022838BF0220441E40422344BB
:100A7800BDF808406444CCF1000C0340013C04EA92
:100A88000C04B4F5803F02D340F20511A1E775B11B
:100A98009A1A0120326091701480D0709DF80C0071
:100AA800107101984FEA104C1081A2F806C004FB9F
:100AB8000134A9E758F8210028B190F804B0B345EB
:100AC80004BF80781B180139B9E7DBB2E6458AF81C
:100AD80004303CBF5FFA8CFE01227B1CA1D10AB115
:100AE80089F800E0022640F6FF6A58F82670B7B980
:100AF800013EFAD2601B05B0BDE8F08F0023E5E7A0
:100B080007EB410309F101093846A3F80AA0FFF7EA
:100B180029FF5FFA89F1BB788B42F1D8E8E74FF0FB
:100B28000009F6E7C0080020BC08002038B54FF6D9
:100B3800FF7302460380184B03EB81031869A8B1C1
:100B480084780379B3FBF4F104FB1133DBB2194663
:100B580000EB4105B5F90A50002D0EDB0131B1FB60
:100B6800F4F504FB1511C9B28B42F1D1002038BD50
:100B78006381BDE8384008F0DFBD00EB41046389BC
:100B8800C3F30E031380C278002AF1D14FF4E57144
:100B98001720FFF717FD00BFBC0800201C4B03EB14
:100BA800810370B51C69054644B3030404D54FF4AA
:100BB800EC711720FFF706FD0146204608F09FFD5F
:100BC800FF28014604D02046BDE8704008F0B4BDB7
:100BD800A078B5FBF0F300FB1353DBB219460A1DEE
:100BE80004EB4206B6F90260002E09DB0131B1FBC5
:100BF800F0F200FB1211C9B28B42F0D1002070BD97
:100C08008B4201D00023E37004EB42025580DAE7FF
:100C1800BC080020094B03EB8103014610B51C6991
:100C2800204608F06CFDFF28014604D02046BDE8A8
:100C3800104008F081BD002010BD00BFBC08002096
:100C4800F8B5104B074603EB810301461C692046A3
:100C580008F055FDFF28054611D0E288238953EA9C
:100C6800024606D00146204608F066FD0146384691
:100C7800B04720462946FFF775FE0020F8BD05203D
:100C8800FCE700BFBC08002038B50E4B044682794B
:100C980003EB8203186908B9052038BD8278E17929
:100CA8009142F9D24B1CE37100EB41035D89B3F922
:100CB8000A30002BF3DBA58008F03EFD2060002001
:100CC800EBE700BFBC08002070B5044610F0030035
:100CD8000E4603D04E211820FFF774FCFFF722FEC2
:100CE800054624B1034831460460FFF71BFE284639
:100CF80070BD00BFD80800202DE9F14FDFF870B0B3
:100D08001E4607460D46DBF8003090469DF828A0A1
:100D18009DF82C901BB960211820FFF753FC524610
:100D28000921404608F073FB4A4684B2092130463F
:100D380008F06DFB81B2DBF80000214408F0B3FC39
:100D4800386018B9286001B0BDE8F08F04445346F4
:100D5800414609222C60386808F01CFB4B460922E2
:100D68003146286801B0BDE8F04F08F013BB00BF5A
:100D7800D808002070B50E46044608F05BFB05460F
:100D8800304608F057FB044B2A1821461868BDE87E
:100D9800704008F0ADBC00BFD8080020024B1868AE
:100DA80008B108F074BC7047D80800201F2AF8B5AD
:100DB800044624D89200134D033250B1830703D060
:100DC80068210920FFF7FEFB22F003032970686001
:100DD8002B8122F0030228230127120403FB01F0D0
:100DE8006B680025120CEEB2B14200D8F8BD14B100
:100DF80026181F705E60104401352833F3E74FF062
:100E0800FF30F3E7DC080020154A002170B553686D
:100E18001578C8B2854203D8BA210920FFF7D2FB5A
:100E28001C461846013114F8286B0EB92346F0E722
:100E38000021997001241289996103F126055C70DB
:100E48009208D96103F11E04596824F8022FAC42B4
:100E580043F8041F1144F8D100234361037070BDA7
:100E6800DC080020124B01224FF0FF3000215A60AD
:100E7800C3F80803C3F80015C3F804255A6040F600
:100E8800FE72C3F808034FF48060C3F8001503F539
:100E980060330849C3F80825C1F88800BFF34F8FAD
:100EA800BFF36F8FC1F88801C3F80825704700BFEA
:100EB80000A0045000E100E002680020014B1A6025
:100EC800704700BFE8080020014B1B68184700BFA7
:100ED800E8080020024B1868003818BF0120704746
:100EE800E80800200A4606488F2302F8033BC36837
:100EF800C1F803300369536043699360704700BFCA
:100F0800EC080020024B5A8C02435A845B6A18474B
:100F1800EC080020014B00215B6A1847EC08002010
:100F280010B5154C05F020FA05F002FD208DFFF7ED
:100F3800F1FF237E63B12246104904F1190052F8EB
:100F48000C3BE36063685360A368936009F054FE48
:100F5800218DE06A02F04AFBE36AB3F8AA0002F0C6
:100F6800C7FA636B94F8301094F83100984700235F
:100F780084F8383010BD00BFEC080020ED0E0000EA
:100F8800034B93F838300BB1FFF7CABF704700BF67
:100F9800EC08002070B5184C0546E36CE66AE3637C
:100FA8004FF4817394F85000A4F84030337D96F8DC
:100FB800151100EB83002DB9FF2803D196F81431E1
:100FC8008B4201D004F032FF337D73B1606D05F0C0
:100FD80033F9616DE06B05F031FC15B9284605F071
:100FE80079F9022384F8383070BDE06B05F024F9F4
:100FF80005F09EFCF1E700BFEC08002008B5094B9E
:1010080093F83820022A04D040F257312720FFF7FE
:10101800D9FADA7A42F00102DA72BDE80840FFF73D
:101028007FBF00BFEC08002070B50F4DC9009200CB
:1010380000F00300AE6D01F0080102F004021B018C
:10104800347803F0100304F0F3040C43144304F061
:10105800EC041C4304433470B5F864307370022305
:10106800A5F85C3070BD00BFEC0800207FB50022F9
:10107800012300F180010392CDE90423074A92F885
:101088005020029200F19002CDE90032D0E91E23EF
:10109800022005F00DFB07B05DF804FBEC0800200A
:1010A800F7B5184C0646A56E0DB1636C23B940F62A
:1010B800C6012720FFF786FAB4F8483001F003018B
:1010C8002F466B702B7823F003030B4307F8033B81
:1010D8003846B4F84820616C07F038FF0DF1020279
:1010E80001A9E06EE563676408F0C7FA019808F0A3
:1010F800B2FA0122B4F848103060E06E08F05AFAEB
:1011080003B0F0BDEC0800202DE9F0412B4C064659
:101118000F4694F83830012B5FFA83F804D040F674
:101128000E112720FFF74EFAE56A2B7933B100211B
:1011380004202971FFF7E6FE85F805802B7A052B38
:101148000AD11F490220FFF7DDFE236E1B78991E86
:101158004B424B4184F870301EB1BDE8F041FFF7B7
:10116800DFBE002FF9D0636F304698470028F4D0CF
:1011780094F83030002BF0D1638C9A0714D594F88A
:101188007030002BE9D02B7DE46A13B12846FFF7B5
:101198006DFF94F81521012096210AF0E7FE002042
:1011A800BDE8F041FFF7F6BE002BD6D194F87830B1
:1011B800002BE8D194F87930E3E700BFEC08002071
:1011C8004C0900202DE9F04FA94C91B0E56A069032
:1011D80005F1A803089109930023CDE90D3394F88C
:1011E8003830022BDFB204D040F6AF112720FFF7CA
:1011F800E9F9E36B03221E785978134406F00309D2
:10120800A4F840206364069BA4F84810002B00F063
:10121800338119B1E06E08F0ADF901466A7A238D81
:101228000132A16643F40073D2B2238582EA9603A1
:10123800D80753D42B7AD3B1032B6A7211D8012B58
:1012480018BF0223B5F84420022BA5F8462012D176
:101258000DA9D4F8800008F036F9C0B940F2D6716B
:10126800C4E7053B012B04D940F2B471BEE704235F
:10127800E8E70323E6E7032B10D100F0E1FF10B9FC
:101288004FF4FC61B2E700210820FFF73BFED5E9E7
:101298001C32013342F10002C5E91C3200216B798E
:1012A80029721BB110206971FFF72CFE238D43F4BE
:1012B8000063238500230793C6F3C0082B7DCBB1B9
:1012C800B4F84830B3B105F051FB0328FBD002282D
:1012D80006D1FFF725FE11B0BDE8F08F069BEAE7BF
:1012E80040B9AB7A03F00103434503D1012384F8E5
:1012F8003130EEE7AA7A02F0010398456BD04FF03F
:10130800000AA36E002B40F0C980B4F84830B3FA45
:1013180083F35B0903EA161384F87930089B002BE2
:1013280040F0BE80628C94F88630110704D594F89A
:101338007020002A40F0B480012B00F2B180636F66
:1013480001209847002800F0AB8094F83060002E08
:1013580040F0A680EB7C83B10123039605F1800160
:101368000420CDE90463FB23029305F19003CDE942
:101378000063D5E91C2305F09BF995F81421962103
:1013880000200AF0F3FDD4F82CB094F850309BF804
:1013980014209BF8141103EB8203FF2B03D19BF855
:1013A80015318B4202D0FF2004F040FDD4F82C8088
:1013B800002398F808208DF83130ADF83230062A2D
:1013C80000F28081DFE812F0C3005C015F015F0179
:1013D8007E0171017101B4F84830EBB109F1FF31B8
:1013E800012919D8218D41F48051218594F8841060
:1013F800994206D294F8303043F0100384F8303024
:101408007DE7A16E00293FF47AAF94F8851019B1F1
:101418002020FFF77FFD72E70132B9F1030FAA72AE
:1014280010D1238D0120134943F48053287123855B
:10143800FFF768FDD5E91E32013342F10002C5E924
:101448001E325CE709F1FF32012A0CD8002B3FF469
:1014580056AFDDF818A0D5E91E32013342F100027B
:10146800C5E91E324DE7002B3FF449AFE2E700BF64
:10147800EC080020300900202B7D0BB105F090FA14
:1014880094F886304FF0000A0133CDF81CA084F898
:101498008630238D43F48063238532E7012339E7BF
:1014A80004F062FFBAF1000F4CD101230893944E67
:1014B800338D5A0606D44020FFF72CFD338D43F0B8
:1014C80040033385079B63B1B4F80720B4F80530AF
:1014D8001343EA8813431EBFB4F809300133A4F854
:1014E8000930069B002B00F00581B6F80530013362
:1014F800A6F80530002386F88630824801F0E6FF1A
:101508000D9830B108F0A7F800220272099901F08D
:10151800EBFB0E9B33B100221A720C2209990E982C
:1015280001F0B0FB089B002B7FF4D3AE338D1B0674
:101538003FF5D1AE8020FFF7EDFC338D43F08003FB
:101548003385C8E649460EA8FFF7AAFDADE7A8F817
:1015580044300DF1320194F887300FA8A8F804310F
:10156800ADF8323000F05EFE38B10F9828B105238F
:1015780088F80830BDF8323015E0E36A93F8553042
:10158800002B77D10DF131020DF13201D4F8800032
:1015980007F077FF00286DD0BDF83230002B59D105
:1015A800012288F80820A065A4F8643003B1C31CA0
:1015B800236698F809200A9298F80A2098F8088073
:1015C8000B92B8F1020F09D0A8F10508B8F1010F84
:1015D8007BD81B784FF00308022B0DD0D4F880007D
:1015E80007F0A7FF002873D1B8F1030F04D000F06B
:1015F80033FE80F00106F6B206F00103404F87F88B
:1016080078309BF81330002B64D0B7F86430002B87
:1016180060D033464046DDE90A12FFF705FD786DD4
:1016280004F00AFE0022D7E9151004F04DFF18B99E
:10163800D7E9150105F0A0F8012387F8883087F865
:101648003830BAF1000F3FF432AF49460EA8FFF721
:1016580027FD2CE79DF831201AB9032302808270F8
:1016680086E7027802F00302012A08BF032788F8F8
:10167800087098E70023ADF83230012388F8083065
:10168800214800238FE7B8F804310DF131020DF13C
:101698003201D4F88000ADF8323007F0F2FE0028AD
:1016A8007FF468AF40F2C451A0E50DF132010FA8F4
:1016B80000F0B8FD08B10F9810B940F2D35195E584
:1016C800062355E740F2DD5190E54FF0010885E724
:1016D800012691E7DDE90A1233464046FFF7A4FCEC
:1016E800B86D04F0A9FD05F023F90021B86D0AF0E2
:1016F80049FCA1E7B6F807300133A6F80730FCE645
:10170800EC0800201809002066090020064B10B5D7
:1017180093F8382002F0FF0422B91C7601F05EFF2E
:10172800204610BD0C24FBE7EC080020094B0A4AB0
:1017380010B51A60FFF7EAFF20B14FF4B171272006
:10174800FEF740FF054C00F0E9FCE06400F0EAFC1D
:10175800606510BDBC110020FC180000EC080020DA
:10176800F8B5584C054694F8386006F0FF0016B9ED
:1017780009B102B123B94FF420712720FEF722FFE7
:1017880063639DF81830616284F88530626784F875
:10179800300084F8860084F8310084F8880060847A
:1017A800208584F8780084F8790084F87000A065B2
:1017B8002066A4F86400E0636064A4F84800E56269
:1017C80004F060FB05F0B4F895F91C0104F0B4FBD3
:1017D800D5F8D060D5F8C80004F0B4FB304604F062
:1017E8001DFD95F8240004F0B7FB09F094FD95F869
:1017F800152100F17101012004F02CFC324B18680E
:1018080004F012FDD5F8BC30C4F88030D5F8C030EB
:10181800E366AB7B233B072B52D9EB7B233B072BA0
:101828004ED9B5F8E630B5F8EC0095F814119842A1
:1018380028BF184608F04FFF95F8E830834228BFC4
:10184800034698B295F8E430984200D3C3B295F8AD
:10185800151105F1DC0084F8873009F044FA2F7D72
:1018680095F81511B5F8F06008F035FF0FB9043098
:1018780080B2864228BF0646F3B284F8843084F8E2
:1018880050302B7D13B12846FFF7F0FB0120FFF7FE
:1018980081FBE36AD3F8C00104F0EAFC002323606B
:1018A8006360A360EB886380B5F8AA30238095F85D
:1018B80024302371D5F818310BB101221A60F8BD14
:1018C8001B23C4E7EC080020BC110020014B93F84F
:1018D80088007047EC080020024B93F82900C0F3F9
:1018E800C0007047EC080020014B93F88600704751
:1018F800EC08002005100000CD11000011110000B7
:10190800890F0000304BF0B55A8985B0B0F8607087
:101918000C46B0F85E6097429D8928BF17469642EC
:1019280028BF16461B2E2ED0B5F5A47F2DD040F625
:10193800480301A99D4228BF1D4608F03FF8BDF89D
:101948000A30BB4228BF3B46E380BDF80C30AB42AF
:1019580028BF2B462381BDF80630B34228BF334643
:101968006380BDF80830AB4228BF2B46A380FF2315
:101978002370E3881B3B9BB2E02B08D940F202514D
:101988003920FEF71FFE1B2FCED105B0F0BD6388AE
:101998001B3B9BB2E02B02D940F20451F0E72389AC
:1019A800A3F5A4739BB2B3F5E06F02D940F20651D8
:1019B800E6E7A388A3F5A4739BB2B3F5E06FE4D977
:1019C8004FF4A161DCE700BF7809002010B50121C0
:1019D8000020FFF71FF9044670B90121FFF7DEF870
:1019E800044620B940F21E313920FEF7EBFD034BC7
:1019F80093F9181009F0ACFF204610BD78090020B3
:101A0800014BD888704700BF78090020044BD87C68
:101A1800C0F3400080F0010000F00100704700BFF3
:101A28007809002008B508F0CDFD00F0B3FD00F0FE
:101A380099FB09F0B9F801F0B7FD03F0F3FE0022B5
:101A4800074B4FF01B1107481A60074BC3E9010108
:101A58004FF4A4711A801A82D960DA7408BD00BFE5
:101A6800C011002003021B0078090020034B41F637
:101A78004C525A611B229A74FFF7D4BF7809002090
:101A8800F7B5274D00F1A80704466B69C0F8DC30AC
:101A9800244BC0F8C430384609F0D1FD064600F0A2
:101AA80051FB8306A97C53BF1B23EB882A891A465E
:101AB800A4F806311C4BA4F808211B6884F8E4102C
:101AC800A4F8E66023B194F91C11B4F8AA00984769
:101AD8001649384608F061FB0123EA8804F1BC0086
:101AE8006979A4F8DA3003322B89019192B2297905
:101AF800033300919BB204F1C001FFF7FDF8D4F85D
:101B0800BC3023B940F2DB413920FEF75BFDD4F845
:101B1800C03013B940F2DC41F6E703B0F0BD00BFB6
:101B28007809002000093D00C41100208609002022
:101B3800024B1B6803B118470C207047C0110020E6
:101B4800034BDA8802801B7983700020704700BF3E
:101B58007809002037B5837805461A2B08D8042B56
:101B680004D9144A22FA03F3DB0705D412241AE035
:101B7800292B01D03B2BF9D12888B0F5706FF5D20D
:101B880001A908F0CCFD88B9019B93F8202102F047
:101B9800FF046AB9AA7883F82121FF2283F820215B
:101BA80001A807F0DEFF204603B030BD0224FAE7A3
:101BB8000C24F8E7200038040188A1F11B039BB22C
:101BC800E02B0CD8428844F24810A2F5A4739BB2CB
:101BD800834204D8034B002059819A817047122010
:101BE800704700BF7809002038B50278447802F0C1
:101BF800010302F0020254EA030101D1112038BDA9
:101C0800BAB98578002DF9D0002B18BF002400E060
:101C18001D46204607F0C5FE0028EFD0284607F0ED
:101C2800C0FE0028EAD0054B00209C73DD731882A3
:101C3800E5E7002BECD000242546EAE778090020E8
:101C480013B5008801A908F083FD044620B901985E
:101C580090F832311BB13A24204602B010BD90F8FA
:101C6800603003F0FF04002BF5D190F857309B0744
:101C780006D1FF2380F8323101A807F072FFEBE7A5
:101C88000249583008F0B8FFE6E700BF75B2000017
:101C9800F7B5077805460C46EF2F0FD890F90120C5
:101CA8004378002A0ADB8278900707D113F01000E6
:101CB8001DD1990603F0030202D51AB1122442E09D
:101CC800032AFBD01E07F9D42979EA78EE7942EA8B
:101CD8000122697942EA0142A97941EA06212E7A6C
:101CE80041EA06418A42E9D81F2A0FD8E6E713F0ED
:101CF800600FE3D103F00702052A05D003F00F01B6
:101D08000D22CA40D107D9D51A07DDD56A7A013A1A
:101D1800062AD3D8AA7A032AD0D813F0040102D10C
:101D2800023A012A03D8EA7A012AC7D811B9AA7C4B
:101D3800032AC3D82A7D48B1012ABFD12A7E012AA5
:101D4800BCD830B91124204603B0F0BD022AF5D121
:101D5800B4E7DB0712D46B782A7D03F01803082B4D
:101D680011D1022AEED101213846FEF753FF06466B
:101D780078B109F0A1FDB8B10C24E4E700F0A2F9AC
:101D88000028E8D1DEE7022AEDD02B7F002BEAD02D
:101D9800D8E701213846FEF701FF064640B3154B48
:101DA80093F9181009F0D4FD304609F0C1FE294610
:101DB8002070E874304609F011FEEB7E0446002BD3
:101DC800C1D00028BFD10246B16A684607F0EFFCCF
:101DD8002246B06A012107F035FDB16A684604223F
:101DE80007F0E5FC22462146B06A07F02BFDAAE77A
:101DF8000724A8E77809002030B502798BB003469C
:101E0800042A4FD84088B0F5804F4BD82649002483
:101E18008D5C1144ADF800404A798DF8084042F0D5
:101E280010028DF8244042EA45028D7AC97B42EAC5
:101E3800850242EAC102694602F01F028DF80020BD
:101E4800BDF80020ADF809201A888DF80E00000AA8
:101E58008DF80B20120A8DF80D408DF80C208DF8A6
:101E68000F008DF810405A7BD3F807008DF8112029
:101E78005A79059002A88DF812209A798DF81320C6
:101E8800B3F80B209B7BADF818208DF81A307F2310
:101E98008DF81B304FF00113CDE90734FFF7F8FE3A
:101EA8000BB030BD1220FBE7388A020073B5064636
:101EB800FFF78CFD044609F046FE33780546012BF2
:101EC8005FD1204609F077FD00287AD0204609F036
:101ED8003AFE18B115B9122002B070BD204609F0BB
:101EE800EBFC08B10C20F7E7204609F022FD064676
:101EF8000028F7D1204602F027FC0028EBD0ED019E
:101F080042F2107331462046ADB25D4309F007FE38
:101F1800204609F010FE014658B92A46204601F02D
:101F28006DFE08B90020D7E741F69A213920FEF75F
:101F380049FB31460DF10600FEF7F8FD064608B9E3
:101F48000D20C9E7BDF8061008F011FC31462046FF
:101F580009F0FDFD3046FFF793FD2A46314620463D
:101F680001F04CFE024610B141F6B621DEE7164BF1
:101F7800DB69002BD6D006F5917106F1A8009847C9
:101F8800D0E7002BA7D1204609F015FDC8B120469F
:101F980009F092FC0028C5D0204609F020FB054630
:101FA800204609F01FFB014600289BD1002DB9D01F
:101FB800B5F8AA00FEF744FE0028B3D041F6D821B0
:101FC800B4E7422088E700BF78090020027803467A
:101FD80072B1427862B142881A2A09D982881A2ACB
:101FE80006D90068034A506000209B881381704717
:101FF800122070477809002002680020014B5A61BE
:10200800704700BF780900200378A3F10A02112A5B
:102018009BBF024A00201220937470477809002061
:1020280008B5052000F082F803F0BCFB014B024A1A
:10203800DA6108BD780900200D19000008B50122F1
:10204800084B1A7002F070FB09F02AFF08F0B8FA82
:10205800FFF76CFB002007F077FBBDE8084000F0B5
:102068004BBD00BF9809002010B5064C0649201D3D
:1020780008F042F804F108000449BDE8104008F0EF
:102088003BB800BF98090020A8000020B00000203D
:1020980010B5084C0849201D08F02EF804F1080076
:1020A800064908F029F804F10C000549BDE810407C
:1020B80008F022B898090020B8000020C0000020CD
:1020C800C8000020014B1878704700BF980900200D
:1020D80010B5064C00F0ECFC606808F005F8FFF756
:1020E800C5FC00F07FFE0123237410BD9809002071
:1020F800014B187C704700BF9809002010B5064CAA
:10210800A06807F0F1FFE06807F0EEFFFFF78AFC30
:102118000023237410BD00BF9809002000487047B1
:10212800A909002000487047AB0A0020C2080449EA
:1021380000F0070001238340885C03438B547047F9
:1021480070000020014BD3E90001704770000020A7
:10215800034B1868C0F30020400040F001007047AE
:102168007000002008B505F06DF90023074A32F821
:102178002310814205D302EB83029378044A13703B
:1021880008BD01330C2BF2D10023F7E74C8A02007B
:10219800AD0B0020006808B5B0F8AA3080F86411CB
:1021A800A0F8653190F81431012B06D0022B04D029
:1021B8004FF43F710620FEF705FA80F8673190F872
:1021C8001531012B01D0022BF2D180F8683100F2D1
:1021D8005B100249BDE8084008F00EBD8DA1000063
:1021E800024B002283F822209A847047AE0B00200D
:1021F800044B93F82220012A1ABF03600120002013
:10220800704700BFAE0B0020054B024693F8221022
:1022180001291BBF01209A84002083F822007047FF
:10222800AE0B0020054B024693F8220020B1136044
:1022380009B19B8C0B800120704700BFAE0B0020BA
:10224800044B002293F822009A8410B1012083F8ED
:1022580022207047AE0B0020034B93F82200B0FAFF
:1022680080F04009704700BFAE0B002050B90A4A01
:102278000120134603F8010B0868C2F801008A8898
:102288009A807047012805D1034B0A68D8719A6073
:102298008A889A81704700BFD40B002050B90B4B35
:1022A800187888B1D3F80120B3F805300A60012006
:1022B8008B807047012806D1044BD87920B19A68E1
:1022C8009B890A60F3E70020704700BFD40B002009
:1022D80010B9044B18787047012806BF014BD8790C
:1022E80000207047D40B0020F7B58A8800238DF8AA
:1022F8000600ADF8042008680B4A8DF8073001463F
:10230800147802F5A872019DD8B2844201D8082039
:1023180007E052F8087F01335668AE4208BF8F4283
:10232800F2D103B0F0BD00BFE80B0020084B014616
:10233800002230B51C7903F20713D0B2844201D8C9
:10234800082004E013F8015F01328D42F5D130BD59
:10235800E80B00202DE9F8432B4C0746257904EBC0
:10236800000E013D9EF80861EDB2854225712BD023
:102378004FEA05184FEA001C08F108030CF1080998
:102388000CF1880C2344A144A4440FCB89E80F0026
:1023980008F1880323440FCB8CE80F00631993F8E6
:1023A80008218EF8082106225543574305F58875FC
:1023B80007F5887760596219E119E05192888A8097
:1023C80093F840318EF840313046FFF7AFFF0828C8
:1023D80018D12378013BDBB29E42237012D02B33F5
:1023E80006F12B0204EBC30304EBC20293E80300DB
:1023F80082E803002078FFF799FF08281CBF2418FB
:1024080084F80861BDE8F883E80B0020F0B5254D95
:1024180089B095F8984105F299116846224606F068
:1024280095FD2146684608F0ECF80446B8B300EB81
:10243800400102A8C9B2FEF747FD631E95F8A161E5
:102448000124DBB295F8981105E0721CB2FBF1F09B
:1024580001FB1022D6B206F120020DEB020010F8A3
:10246800202C002AF1D103EB430100F8204C06EBA5
:10247800460220312A44694411F8187C82F8A27176
:1024880011F8177C11F8161C82F8A37182F8A411B0
:10249800013BAA19DBB282F89941FF2BD2D109B0CE
:1024A800F0BD00BFE80B002070B5064688B00C46AA
:1024B800002A4ED0294A92F8A131D01890F89911E3
:1024C80019B9FF212820FEF77DF803EB43010133FA
:1024D800114491F8A251E57091F8A35191F8A41113
:1024E80025716171002180F8991192F89811B3FB58
:1024F800F1F001FB103382F8A13192F8C23123B90F
:10250800174902F5DD7008F074FB65790D2200218A
:10251800684605F03F0545F0400565710AF0BAF9CF
:10252800E37804AA69468DF80F30304623798DF890
:102538000D508DF80E3004230AF016F99DF81F305F
:1025480023709DF81E3063709DF81D30A37008B08D
:1025580070BD03216018FEF7B7FCD6E7E80B002032
:1025680015240000044B1A79824286BF1B1893F881
:1025780050010020704700BFE80B0020044B1A7977
:10258800824286BF1B1893F848010020704700BF9D
:10259800E80B0020074B00224FF461711A701A7182
:1025A80083F8C32183F8C421A3F8C61183F8C22194
:1025B800704700BFE80B00202DE9F04782468946A6
:1025C80017469846FFF790FE08280546064603D0AA
:1025D800FFF7ACFE082860D1324C2379072B5ED870
:1025E800082D15D12678731C072E237003D96C216A
:1025F8002820FDF7E7FF06F12B02D9F8000004EBCD
:10260800C20344F83200B9F8042083F806A09A807F
:10261800257907F110026B1C29012371CB1D234476
:1026280012F8010DBA4203F8010FF9D1873108F108
:102638001003214413F8012D984501F8012FF9D111
:1026480025441021404608F00CF8102185F848016F
:10265800384608F006F885F808612679002385F8D9
:1026680050013146104885F8403107F0CAFF01286B
:10267800054607D831460D4807F0C3FF002818BFA4
:102688000135EDB284F898510025284684F8A15107
:10269800FFF7BCFE2846BDE8F0871220FBE70720BD
:1026A800F9E700BFE80B0020300D0020380D0020AE
:1026B800064B10B51879013840B2002800DA10BD71
:1026C800C4B22046FFF746FE601EF5E7E80B00207F
:1026D800014B83F8C3017047E80B0020014B93F8C6
:1026E800C3017047E80B0020431E4AF2B7129BB2A1
:1026F80093429DBF024BA3F8C601012000207047FA
:10270800E80B0020014BB3F8C6017047E80B002026
:102718000A4B30B51C7984420ED9184490F8080148
:102728002B3003EBC004A5790D7053F8300010600E
:102738000120A388938030BD0020FCE7E80B00202F
:102748000246074810B590F8C34124B1017921B178
:10275800083003F089F8204610BD0C46FBE700BF9F
:10276800E80B00202DE9F74F2F4C9A468046894602
:102778002379834256D9231893F8485185F00105E7
:10278800F9B193F85031E3B945F002070135BAF1D0
:10279800000F18D1FA070AD5062104EB0810524693
:1027A80001FB0841883001F58871FFF77DFEBB0702
:1027B80034D504EB0810524649460830FFF774FE3A
:1027C8002CE02F46E3E794F8A1614FF0010B002DB0
:1027D800E0D0A31993F89911019399B90092DAB14D
:1027E80000F0D0FA019B06EB4601009A4FEA102C44
:1027F80083F899B1214481F8A201000C81F8A3C1A2
:1028080081F8A401013694F89831013DB6FBF3F143
:1028180003FB1166F6B2DAE747F00407384603B05F
:10282800BDE8F08F0027F9E7E80B0020074B1A797D
:10283800824209D91A1892F848212AB9062202FBBD
:10284800003000F58870704700207047E80B0020C2
:10285800064B1A79824281BF1B1893F84001B0FADF
:1028680080F0400998BF0020704700BFE80B0020A7
:10287800F8B50E46074606211546304607F0F1FE24
:10288800044670B10C4B0022187903F23F13D1B201
:10289800884202D801242046F8BD013203F8015FBE
:1028A800F5E73146384607F0C8FE0828F3D0024B52
:1028B800034483F84051EDE7E80B0020034B80F810
:1028C80074101B680BB1408818477047C811002066
:1028D8000B2808B504D940F229112920FDF772FE0A
:1028E800014B33F8100008BD7C8A0200036830B53C
:1028F8000024D3F8C40042F21075A3F84040A3F8AE
:102908004640B3F848404443B4FBF1F4A3F84840C8
:102918004C1E05FB0242B2FBF1F2A3F84220094A21
:10292800B2FBF1F20132A3F84C209A8F05FB024466
:102938005A6B5043B4FBF1F4B0FBF1F09C6358635D
:1029480030BD00BF005A62020346084671B13F2BF2
:102958000BD8074AD35C03F07F02914205D08CBFA5
:102968000120002000EAD31070470120704700BF03
:10297800948A0200FF230B7002234B7083238B7011
:10298800014B1B78CB707047B40D00202DE9F84F30
:10299800D0F804800C46D8F81860304606F049FE96
:1029A800054620B94FF4AA711020FDF70BFE014629
:1029B800304606F04CFEB5F800B082461FFA8BF799
:1029C80017B94FF4AC71EFE7224B00F103091B680C
:1029D800D3B998F8023098F803202370637802F08E
:1029E8000F02A4F802B023F00F03134323F0C0032F
:1029F80063709AF8003003F00303012B0FD0022B09
:102A08000DD04FF4BB71CFE73A464946B8F80200FB
:102A1800984705460028DCD12846BDE8F88F62783B
:102A2800304663F30512627006F017FE054610B9CA
:102A38004FF4C071B8E7FB2F02D940F28F11B3E70A
:102A48003A464946201D06F081FA304606F060FDF8
:102A5800E2E700BFCC11002038B5134C102200214A
:102A6800201D09F017FF0125257404F10803102221
:102A7800002104F11400C4E9013309F00BFF84F8C4
:102A8800205004F11803094AC4E90533002363629E
:102A9800A36284F82C30C4F82D30C4F8313084F89F
:102AA80035301360A36338BDB40D0020CC1100206D
:102AB80010B5084C2378FF2B04D040F29911102050
:102AC800FDF780FD06F0AEF92070BDE81040FFF775
:102AD800C3BF00BF7D00002010B5034C207806F06E
:102AE800BBF9FF23237010BD7D000020014B18782F
:102AF80006F0C2B97D000020014B024A1A607047F7
:102B0800D0110020952900002DE9F341DFF86881F4
:102B1800054608F11407D8F80830D8F81840227A82
:102B2800012A22D1D8F8382052B1137A1BB9BF2113
:102B38001020FDF747FDD8F83840C4B9002083E0DD
:102B48001A7A012AFAD01C464C4AEFF3108172B661
:102B580050680068506001B962B6A34208BFC8F85F
:102B68003840237A1BB9EE21E2E73A46EDE7267AA8
:102B7800F6B205232372731E0B2B6ED8DFE803F021
:102B88006A062235676D3E6D6D6D6D5B636813B9BE
:102B98004FF40371CCE72046294698470420EFF309
:102BA800108272B6237A052BD9B24FF0000359D19F
:102BB8002372D8F83810A14201D1C8F83830B2BB16
:102BC80062B634E0636813B940F21521B0E72946CC
:102BD800204698470346ADF80400C0B2C3F3072364
:102BE800012B2FD0022BDAD11AE0636813B940F217
:102BF8001D219DE7204698470020D0E763680BB960
:102C0800FE2195E786222A7001225988AA706A71E6
:102C180000225869A5F80310AA7106F079FC04206F
:102C2800D8F83830A34202D10023C8F83830002839
:102C38003FF471AF08E0124B294620461B689847BD
:102C4800034668B9267298B102B0BDE8F0814FF426
:102C580015716DE740F257216AE740F25A2167E79C
:102C68000220DDE711B940F27B2161E71846A6E7AB
:102C7800002B7FF450AF61E7B40D0020B80D0020A1
:102C8800D0110020134610B5027A22B140F2023169
:102C98001020FDF797FC0A4601460248BDE810409F
:102CA80007F084BFB80D0020044890F82C301BB9F9
:102CB8000349243007F097BF704700BFB40D0020C8
:102CC800A5AB00000346064890F83C203AB190F8BE
:102CD800352022B9034900F82D3B07F084BF70471F
:102CE800B40D00207D2900000A4610B5037A23B1EF
:102CF80040F20A311020FDF765FC0146072302481F
:102D0800BDE8104007F052BFC80D00201346027AF4
:102D18000AB1037270470A460146014807F046BFE8
:102D2800B80D00201B234FF01B128384038482619B
:102D38008382C260038539B94FF4A473034AC384FC
:102D48004384C261C3820261704700BF48014801E1
:102D5800014907F051BF00BF07AC00000B8BA2F878
:102D680009001046A2F80B304B8BA2F80D308B8B64
:102D7800A2F80F30CB8B0249A2F8113007F036BF0A
:102D880057AC0000094AD2E90003434083EAB01176
:102D980081EA43214FEAF34311605360044B5843DF
:102DA8004FEAF06000EB8000704700BFF40D002090
:102DB800BB79379E094AD2E90003434083EAB01140
:102DC80081EA43214FEAF34311605360044B5843AF
:102DD8004FEAF06000EB8000704700BF80000020E1
:102DE800BB79379E10B50A4C08210948FEF76CF8E4
:102DF800D4E900321343F7D0064CFFF7DBFF20601D
:102E0800FFF7D8FF236860601843F6D010BD00BFF5
:102E180080000020F40D0020174B184A9A60184AC9
:102E28005A60184A1A60184A9A62184ADA62184AA6
:102E3800DA60184A9A61184A1A63184A1A62184AD4
:102E4800DA64184A9A64184A5A62184B184A9A60FF
:102E5800184A5A62184ADA62184A1A61184A5A61B4
:102E6800184A9A61184A1A63184A9A64184ADA641E
:102E7800184A9A63704700BFD411002091AF000030
:102E8800B7AF00001DB00000D9B0000023B10000AA
:102E9800E131000035B1000049340000DD320000A6
:102EA800F9B1000011B2000029330000D41200204B
:102EB800A7AF0000CDB1000053B1000003B100007E
:102EC80073B100006D32000097B200003FB20000FD
:102ED80031B20000B7B10000044B054A5A65054BF2
:102EE800054A1A65054A5A65704700BFD411002083
:102EF80045B30000D41200202FB30000B1B3000086
:102F0800054B064A9A65064A1A66064B064A9A65AA
:102F1800064ADA65704700BFD411002079A3000083
:102F28002DA40000D4120020C9A20000ADA5000005
:102F380037B5044601A80D46FFF75AF920B94FF4F2
:102F4800AA615120FDF73EFB00212222019809F0D9
:102F5800A1FC019B194601F8035F023D232D00F2F5
:102F68008980DFE805F02587128A8A25872B878ADA
:102F7800313D418787458A8A4E4E656587878787B1
:102F8800878787878787876C778021680D20D1F8A6
:102F9800CE215A60D1F8D2219A602268D2F89420C2
:102FA800DA60FFF731F9002869D140F25751C8E7D4
:102FB800226892F8A02002201A71F2E7204600F059
:102FC80005FA0028EDD13DE0112206201A71592298
:102FD8005A7100229A718022DA7130221A72E0E75F
:102FE800226892F89A20E6E7084600F0DDF9E8E75B
:102FF800226892F89B10197192F89A2003205A714E
:10300800CFE722680920B2F800111971090A59712D
:10301800B2F8A2109971090AD971B2F8FC101972A4
:10302800090A5972B2F8A0209A72120ADA72B8E73D
:10303800226892F82E11197192F82F21DEE7114BB0
:103048001B6813B940F249517BE723202246984771
:103058000420A6E70B4B1B68002BF3D02246242044
:10306800984705209DE7074B1B68002BEAD02246AE
:103078002520F5E740F2445163E7012091E703B0CA
:1030880030BD00BFD41300203F289ABF024B53F82D
:1030980020000020704700BFD41100203F289ABFAD
:1030A800024B53F820000020704700BFD4120020C4
:1030B800F7B5056804464FF6FF77D5F8BC600DF103
:1030C80002010DF101023046ADF8027006F0D9F99F
:1030D80001A9304606F0F7F948B1019806F0BBFAA5
:1030E8002168A83100220272FFF7FEFDE7E70449D4
:1030F80005F1280003B0BDE8F04007F077BD00BF38
:1031080025AF0000F0B5044685B00D46FF2600F84F
:10311800A56C10F8A63CF3B1174F3B781BB16221A0
:103128001F20FDF74FFA0C21381DFDF7CDFE3E702C
:10313800002304F8A53C8A232A4602F8033BD4F866
:103148000930C5F80330D4F80D305360D4F8113085
:10315800936005B0F0BD01A80C21FDF7B5FEA4F5FC
:10316800F473039A1A6001AB03CB44F8AE0C44F82D
:10317800AA1C04F8A66CDBE7FC0D002010B5054C72
:1031880023782BB90C21201DFDF79EFEFF23237009
:1031980010BD00BFFC0D0020024690F8D631BBB927
:1031A80090F8D73103F0FF010BB100207047094BAD
:1031B80018780028F9D01970D9680433C2F8941027
:1031C80003CBC2F8CE01C2F8D211FF2382F8D63160
:1031D80001207047FC0D0020026838B5D37B0446F7
:1031E8000D463BB1122B05D0103B0F2B8CBF012095
:1031F800082038BD92F8563013B9204607F054FE1F
:10320800D5F80B302268C2F8C631D5F80F30C2F8AD
:10321800CA312368D5F81320C3F89020B3F8AA2040
:10322800A3F88522D5F80120C3F88722D5F8052010
:10323800C3F88B222368B5F809200025A3F88F224C
:10324800236883F89E5183F8D6512068044900F515
:103258001F7007F0C8FC236815222846DA73C8E7F0
:103268000D310000036810B5DA7B04461F2A04D02C
:1032780040F29D211F20FDF7A5F9002193F8562063
:10328800B3F8AA0083F8551082B1C3F8A91183F8DE
:103298005610A3F8AD11A3F8AA0103F5D0700B4995
:1032A80007F0A1FC23680022DA7310BD0121A3F8FE
:1032B800990183F8982103F28F1083F89B1183F802
:1032C8009F210349A3F89C21EAE700BFC1B0000091
:1032D800A9B0000038B505682B6813F0010419D1AE
:1032E800D1F801200C4BD1F8051013400B4AC5F852
:1032F8006630C3F307630A4043F00803C5F86A2041
:1033080085F8693007F0D0FD2B68204643F00103AB
:103318002B6038BD0120FCE72FC904F76FDB008064
:10332800006810B5837B042B28D1D1F801304A1CE2
:10333800D1F80540C0F86630C3F30763C0F86A40A7
:1033480043F0080380F86930002380F84E30837317
:1033580090F8713103F0FF040BB1002010BDB0F8F4
:10336800AA3000F2691044724381D1F8013004494F
:10337800C3605368036107F036FCEEE70120EDE710
:103388008DB10000006890F871314BB9B0F8AA30DF
:1033980000F26910034943811A23437207F023BCE2
:1033A800704700BF8DB1000010B50446FEF7CAFE95
:1033B800044A054B024009200B40C4F80120C4F818
:1033C800053010BD2FC904F76FDB008037B50C46F8
:1033D8000568FEF7B7FE0A4B0A4A03400A4095F80B
:1033E800661000930B4001928DF800306B4603CBBA
:1033F800C4F801000920C4F8051003B030BD00BFAF
:103408002FC904F76FDB008038B5DB04154604D5F7
:10341800037D13B10023436338BD446B0134446317
:1034280007F014FF836B9C42F6D3002303494363E0
:103438002846BDE8384007F0DFBB00BFEDB100000B
:1034480038B504680546A37B012B02D0236898078A
:1034580038D494F857309A0713D44A78D80784F8A0
:1034680061204A88A4F862208A88A4F8642043F07E
:10347800020284F857200FD5134904F1580007F0C9
:10348800BBFB94F85730D90711D423689A0708D59D
:1034980058214020FDF796F894F83231002BEBD1F3
:1034A800EFE743F002032846236007F0FDFCA37B07
:1034B800012B4FF0000301D0002038BDA37384F81E
:1034C8004E30F9E70120F8E775B2000070B50568DD
:1034D800044602F085F9054B0146E8721B681BB1EA
:1034E8002046BDE87040184770BD00BFDC130020BF
:1034F800024B1B6803B11847704700BFD813002060
:10350800F0B51F4D00242B7814709BB1013B6D68FA
:10351800DBB21E1B012E0FDC05EBC40655F8347018
:1035280076688E4208BF874227D0B84271EB0606FC
:1035380012D214700020F0BD1E197710C6F347068A
:1035480055F837C005EBC70E8445DEF804708F4187
:103558002CBF33463446DCE705EBC30455F833503B
:1035680064688C4208BF854206D0A84271EB040407
:1035780028BF01331370DDE71C4601201470DAE719
:103588001C0E002010F0070208B503D06321482064
:10359800FDF718F818B1034B197258601A70C80073
:1035A80008BD00BF1C0E0020014B00221A70704796
:1035B8001C0E0020FF23084A0B700D234B7082233A
:1035C8008B701368C1F803305368C1F807309368EB
:1035D800C1F80B30704700BF320E002016220021C0
:1035E800014809F057B900BF320E00200B4B5A7D35
:1035F80092B14A0610D5B0F8AA2009491A80D0F825
:1036080050225A60D0F854229A60C28803F10C0004
:103618005A800222FFF77ABB704700BF320E0020A3
:10362800BD350000094B53F8203003F5224370B52F
:10363800B13316464FF47A720C46B3FBF2F53444B4
:1036480002F032FF2C44204470BD00BF9C8B020066
:103658002DE9F04F8BB0044698460F46039290F838
:10366800159106F08DFD824694F81F01FFF730F999
:10367800824407F050FEE37B00F148061FFA8AFAFD
:103688000293039B002B4AD1637B032B47D1029BF8
:103698000C2B32D1B4F86C32BB422ED1D4F8F031B5
:1036A8002046B4F8C421C4F8E031D4F8C430C4F8D2
:1036B800E431B4F862321344C4F8E83102F03CF85B
:1036C800D4F8742241F64B5194F81D31C4F8C42043
:1036D8008A428CBF002303F00103D4F87012D4F897
:1036E8007822C4F8D41084F81E310223B4F86E127C
:1036F800C4F8CC20A4F8D8106373E37BA17B282BF3
:1037080001D028290BD1B4F86C32FB1A1A0406D45C
:10371800A1F1280320465942594101F0B9FBB4F8F8
:10372800605204F50C73B4F806E07D1B94F815B1EB
:10373800A7EB0E0E04932DB20FFA8EFE002D0FDAB2
:103748007546D4E99223C4E996230122637B032BAF
:1037580000F26481DFE813F0060006015A0029012F
:103768004246F3E70121002006F0C4FF8146D4F861
:10377800D4005146484403F019FE5146C4F8EC0100
:10378800D4F8C40003F012FE07A9C4F8F00108A891
:1037980002F0FAFD079B0093DDE90823D4E99601BE
:1037A80008F065FC834604F1A80007F026FED4F86B
:1037B800D420D4F8643294F81501D51802F07CFEB0
:1037C800D4F8EC1100F52240203D4FF47A73B13063
:1037D80032466D1A3031AD1BB0FBF3F04D44B4F8EE
:1037E800D830A5EB0B0503EB41012D1A94F8150110
:1037F800FFF718FFD4F86432C4F8F401EB1AB92BB8
:103808005DD840F2C6413020FCF7DCFED4F8D43055
:103818005146D4F8E401184403F0C8FD5146C4F8F1
:10382800EC01D4F8C40003F0C1FDC4F8F00104F1C0
:10383800A80007F0E2FDD4F8D430D4F8E4511D44D0
:10384800B4F8C431002B40F08980B8F1000F00F0C3
:10385800858094F8150102F02FFED4F8EC11D4F805
:10386800503200F522406D1A94F81521B130203DF0
:103878001D44854B53F822204FF47A7302F2E73245
:10388800D4E9929AB2FBF3F2A5EB0905B0FBF3F089
:103898001544AD1B2D1AD4F8E821D4F8E03194F87A
:1038A800150102FB0313B4F8D8103246303301EB8C
:1038B8004301FFF7B7FE0123C4F8F4016373D4F89A
:1038C800C430D4F8F021723B9B1A9E1B0023864219
:1038D80084F83032D4E9963228BF064604F1DC0079
:1038E8005B19C4F8C06142F10002C4E9903207F0E4
:1038F800F8F904233044A4F8607284F83932C4F823
:103908003402D4E99023C4E99623B4F8B031DB1B20
:103918001BB2002BD4BF00220122520084F83822A7
:10392800029A0C2A7DD0B8F1000F7DD1637B002B61
:1039380000F09680D4F8C41004F50C70D4F8F03177
:10394800C91A06F09AFE80B2002800F08980149BFC
:1039580003B1188001200BB0BDE8F08FD4F8EC114A
:103968006D1A98E7D4F8F001D4F8C430B4F8C4C19B
:103978001B1AD4F8E811F444D4F8E0215D43D4F8D4
:10398800EC31ACEB010C30330CF1FF3C02FB0133A2
:10399800B4F8D810324600FB0C3301EB430158460B
:1039A800FFF740FEC4F8F40189E7D4F8F0A1D4F891
:1039B800C430B4F8C4C1A3EB0A035D4332B3BCF10D
:1039C800000F23D1D4E99423D4E99201904271EBFA
:1039D800030302D340F20D5115E72B4B203A53F85D
:1039E80029304FF47A79D4E99201CDE9040103F240
:1039F800E73103F522430498B133121AB1FBF9F108
:103A0800B3FBF9F30A44D21A921B15440CEB0E01CE
:103A180032460AFB01F130314900C0E740F2255136
:103A2800F1E6B8F1000F1BD0B4F8D80110B3B4F820
:103A3800DA1194F8DC214D1CA4F8DA1101FB0222FA
:103A480090420DDD002B0BDD0023A4F8DA5184F839
:103A58003832FFF797F900F00700013084F8DC01ED
:103A680004F50C7104F5027004F048FC20B940F22A
:103A78007551C8E60146DCE7039B83F0010384F82F
:103A88000032002067E700BF9C8B02002DE9F84355
:103A98000E46044618B9D3213020FCF793FD0529BA
:103AA80000F2A780DFE801F00376413DA52E08F07B
:103AB80082FBC4E94601204600F06AFFD4F80C01F5
:103AC800A43808F0CEFA204608F03DF8054600BBB9
:103AD8000146204607F074FF00F1AE06D4F80C0149
:103AE800B04209D2301A0321192838BF192008F02A
:103AF80034FB60B108F0B7FAC4F80C61204608F04E
:103B080034F845B12046BDE8F84308F02FB8012540
:103B1800F2E70025F2E7D4E94623C4E94023BDE8EB
:103B2800F883BDE8F84302F03BBC07F054FF0423D8
:103B38008146884684F8113108F091FA07220F4629
:103B4800A9FB023102FB0811D4E940525B1941EB91
:103B58000205D4F8E8203AB159EA080204D098429C
:103B680077EB050228BF012684F81061D4E94826BE
:103B7800121A66EB070694F8301139B9012A76F162
:103B880000010BDA204600F00BFF03E0012A76F172
:103B98000006F7DB002384F82831C0E7984277EB6A
:103BA80005010FD259EA08080CD01B1A65EB07016A
:103BB8009A4276EB010005DB012B71F10000A4BFEE
:103BC8001A460E460C49012304F1C000914284F8BC
:103BD80029314FF0000384F80831B341B8BF0A46D1
:103BE80004F5847104F002FC002898D140F2B16118
:103BF80052E7EF2150E700BF0040420F2DE9F8439C
:103C080004460E46154690F8283103F0FF07002BAE
:103C180040F0918000F1C00839467822404608F00B
:103C280039FE22464549404608F037FBC4F8E860AB
:103C3800FF2384F8283166B1FFF7BCF800F00700CD
:103C480032463F49013086F8DC0106F5027008F07B
:103C580024FB40F20243A4F81031002384F8083111
:103C680003F0FAFB00F14906204607F06CFF014615
:103C7800B6B2B0B306F084FA00F12801284689B23A
:103C880003F094FB2844AE3DC4F80C0108F0E7F9B2
:103C9800301841F10001C4E94601012084F8EC0024
:103CA80007F0FBFF2D1AC4F8F0504FF0FF356FF006
:103CB80000414046D4E94623C4E94851002504F5AB
:103CC8008471C4E93E23C4E9402384F8295142F2AF
:103CD800107204F08BFB38BB4FF4DC713020FCF71A
:103CE80071FC2046DFF85C9007F06AFEAE30C4F83D
:103CF8000C01B9F8000048B1E08B38B1FFF75AF869
:103D0800B9F80030B0FBF3F202FB1300064408F0E8
:103D1800A6F9361841F10001C4E94661002DC4D066
:103D2800AD1941F10001C4E72946204607F020FFFC
:103D38003846BDE8F8830C27FAE700BF953A00003B
:103D48001DB40000480E0020F0B5002385B0CDE971
:103D5800003301238DF806306846FCF795FF70B1F3
:103D68000123104EB3700023CDE9023302A8FCF7FB
:103D78008BFF044638B10023B37005B0F0BD00983E
:103D880007F030FCE8E7029D6B7B002BEED005F5D1
:103D98000277384608F088F9384608F091F96C73CC
:103DA800E4E700BF480E0020044B0022DA709A7046
:103DB80042F210721A80FFF7C7BF00BF480E0020FA
:103DC800014BD870704700BF480E002008B502F0BC
:103DD80009F8044B5A6882422ABF9878002080F07C
:103DE800010008BD480E0020F7B5044606297BD817
:103DF800DFE801F004251523282D74003C4B9B783F
:103E080003F0FF025BB900920123B0F8B411FFF789
:103E18001FFC30B140F2CD613020FCF7D3FB042306
:103E2800637302F07FF904F055FA0023E288A4F8DE
:103E38006232A4F8FE2184F8013203B0F0BD0323F6
:103E48004373FAE708F088F8C4E99401F5E790F8B5
:103E5800150107F0C2FA6430D4F8F0319528D4F887
:103E6800C450234F8CBF0020C0F19600C218954261
:103E780088BFED1AFB7894BF00252D1A23B9D4F812
:103E8800DC309D4228BF1D46D4F8C06104F1DC0037
:103E980006F027FF0644022008F035F90221AD1B81
:103EA80025EAE575854228BF0546284608F055F9F4
:103EB80010B12E4408F0D7F80123C922314604F185
:103EC800A80006F0B9FFD4F8C0317860D4F8C4006F
:103ED800184403B0BDE8F04008F0C3B8A83003B0F8
:103EE800BDE8F04007F089BA40F29B7194E700BF43
:103EF800480E0020014B1880704700BF480E002074
:103F08000346074A1068D3F84920C0F80320B3F8DD
:103F18004D20A0F8072093F8481006F03BBD00BFDD
:103F2800500E002070B504460E461346807D658805
:103F3800324615F0040118BF04F15701FEF712FCD0
:103F48004107054621D4C2070BD50123A07D84F87B
:103F58004830FEF76BFC0368C4F849308388A4F83E
:103F68004D30AB0701D4012070BD094B0121186801
:103F7800D4F8573084F85610C0F80930B4F85B30DC
:103F8800A0F80D3006F00FFDEDE70020ECE700BFCC
:103F9800500E002038B5C38C04460F4D0133C3F3CF
:103FA8000E03C3842B7C2BB102F0BAF901F0B4FCE8
:103FB80000232B7400232B7194F869302BB1012155
:103FC8002046BDE8384007F0D8BB637C13B1E28CCB
:103FD8009A42F4D20021F3E7500E002010B5074CA6
:103FE8002379012B05D1237C1BB102F099F901F04B
:103FF80093FCA069BDE81040FFF7CCBF500E00202D
:1040080070B5254C2379012B04D040F682412D2030
:10401800FCF7D8FA98B90125237C1BB102F080F986
:1040280001F07AFC002D36D0A06907F0F6FA68B3E3
:1040380002F024F8E369BDE870409B6818472168DE
:10404800A26911F8095B02F1490392F84820E809CE
:1040580006F0B9FA0028DED00021206806F0C8FC76
:104068000028D8D02379A069012B02D040F65C4102
:10407800CDE7237905F00F01E26903F18043526926
:10408800013B52F8233098470546C5E7A069BDE8CB
:104098007040FFF77FBF70BD500E00200346074AEF
:1040A800906903B909B9FFF775BF1379D26903F1AC
:1040B80080431269023B52F823301847500E002003
:1040C80003292DE9F043054685B0174607D14388F3
:1040D800980723D40024204605B0BDE8F083428821
:1040E80090F86830D107DBB2F4D5002BF2D14FF04D
:1040F8000108DFF8D49099F81060C6B106F0A7FA65
:104108000828387016D002AA0DF10701FEF700FB47
:1041180038B940F6F7612D20FCF754FA4FF0020841
:10412800E7E702A99DF8070007F0DDF806463B78A7
:10413800082B08D1D9F8001011F8030BC0F3801030
:1041480007F0D1F80646D9F8001005F1500395F8A4
:104158004F2011F8030BC0F3801006F034FAD9F899
:104168000010044611F8030BC0F3801006F065FA3E
:104178008146FEF76DFB40B1B9F1080F1BD04846E8
:10418800FEF7F0F980F00103D8B23A78082A14D083
:104198001CB9AC7DA21A544254416A8853079AD478
:1041A800002897D176B9EC7C444518BF002C0CBF89
:1041B800012400248FE70020E7E780F00102224075
:1041C800D4B2EAE7344686E7500E00202DE9F04FD6
:1041D80085B00823052104460DF107028DF8073044
:1041E800FFF76EFF064620B90026304605B0BDE849
:1041F800F08F794F396807F112037A7C11F8030BB5
:10420800C0F3801006F0DFF980460028ECD13B6847
:1042180040F2E249A16918468D7D10F8032BC2F3DC
:1042280040122A401D468A75D3F80320C1F8AD20F4
:104238008288A1F8B12015F81F1BA269C1F380116B
:1042480082F8AC1002A9D3F81F00029028790871EF
:10425800D3F80F00C2F8C800587D1D7D000440EA5D
:104268000520DD7C2843C2F8D000B3F8190082F895
:104278001E8109FB00F0C2F8C4009D7DC5EB451006
:1042880005EB800505EB85056D00A2F8D850B3F85D
:10429800170009FB00F0C2F8D400B3F81B00A2F81D
:1042A800CC00B3F81D00A2F8CE0093F8243003F038
:1042B8001F005B0982F8220082F81F31A56994F972
:1042C80012A005F1160006F0C2FA40F20113A5F893
:1042D80014314FF0FF0B85F816B1414605F1DC00AB
:1042E800FEF720FD514605F1A800FEF7E7FAA3699D
:1042F80084F8738004F17E01B3F8AA2084F891B0A1
:10430800A4F874204FF6FF729DF80700A4F89220D5
:10431800D3F8C420B2FBF9F2A4F88A20B3F8CC2071
:10432800A4F88C20B3F8CE20A4F88E2093F81F218F
:1043380084F89020627D62B394F84820012A28D13D
:1043480094F84E2002F0C002402A22D1D4F8492025
:10435800C4F87E20B4F84D208A80082893F8AC2051
:1043680003F1AD0504F1840184F8772004F17802A3
:10437800D3F8AD3027D0C4F88430AB888B8004F1F3
:104388007701FEF7C5F940B940F6E2312D20FCF778
:1043980019F90022C4F87E20DEE794F8773043F05C
:1043A800020384F8773004F16A000C4906F01BFC1C
:1043B8000B4B0022A0691B683A71002B3FF415AF24
:1043C8002146984711E7A367AB8893800023C4F878
:1043D80084308B80E7E700BF500E0020E5B800006E
:1043E800E4130020032937B5044604D0052957D023
:1043F800012003B030BD08230DF107028DF8073006
:10440800FFF75EFE0028F3D0237C2A4D03B39DF806
:10441800070094F8B630DBB92378082804F1B9020C
:1044280084F8B7302DD004F1B801FEF771F920B93E
:104438004FF477612D20FCF7C5F894F8B83043F0B5
:10444800020384F8B8301C4904F1AE0006F0CBFB37
:104458002B68042220461A7006225A70FFF750FD76
:10446800616B94F83820286806F0B3FA03232868AB
:104478002B7101F0E1FE0021286807F083FD002080
:10448800B7E72868034613F8031BC1F3801184F8C3
:10449800B810D0F80310C4F8B9109B889380D2E7FD
:1044A800064B1B68002BEAD0984780F00100C0B289
:1044B8009FE700BF500E0020CDB80000E013002099
:1044C800F8B504460F4619B300F12005284607F051
:1044D800C1FBA0B963881A072ED5284607F0CFFB81
:1044E8000646284607F0B6FB301AC0B207F0D5FBDF
:1044F800494A936803442846936007F08AFB284694
:1045080007F08CFB01F028FD2179252001F08EFCB5
:10451800414E002394F85620306803704370638836
:10452800103B0D2B68D8DFE803F063675F0C674426
:1045380067676767676767442046BDE8F840FFF725
:1045480029BD06234370202303702046FFF7D8FCBB
:10455800638823F008039BB2152B05D094F830200C
:10456800E16A306806F026FA306801F065FE00213D
:10457800306807F007FD022321790020337101F02C
:10458800F9FC054607B9F06063881B0704D507F0F6
:1045980081FB0544C4F8F4506388103B0D2B36D8D2
:1045A800DFE803F038352F2F352F353535353535DC
:1045B800352F0C2321214370034603F8091B52B100
:1045C800D4F857200121C0F80920B4F85B209A805C
:1045D80006F0E9F9B9E7226DC0F80920B4F85420CB
:1045E8009A8094F84F10F3E7062303704370ACE702
:1045F800022303700623F9E740F259612D20FBF7E7
:10460800E1FF21790120BDE8F84001F0A3BE40F6A2
:10461800F541F3E7F8BD00BF500E002038B54388D8
:104628000446102B04D10121BDE83840FFF748BFEC
:104638000B4D2B7C23B101F049F9402001F064FEB9
:10464800286801F0F9FD608810F0040002D1217992
:1046580001F080FE002001F03DFE01232B7138BDE2
:10466800500E0020024B01219869FFF729BF00BFB7
:10467800500E002010B5124C237C1BB101F050FEE7
:1046880001F04AF9A06906F0C8FF38B12379012B77
:1046980009D040F686312D20FBF794FFA069BDE8CC
:1046A8001040FFF777BC2379E26903F18043A069E2
:1046B800D268013BBDE8104052F82330184700BFCC
:1046C800500E0020074810B5037903F0FF0433B9F2
:1046D80014222146043008F0DDF8204610BD0C24D1
:1046E800FBE700BF500E002010B50023094C2371D2
:1046F800FDF714FD2060FFF7E5FF20B14FF442718C
:104708002D20FBF75FFFE36913B940F20B31F7E7A0
:1047180010BD00BF500E0020014B024ADA617047FD
:10472800500E0020F0490000034B044A1A60044B65
:10473800044A1A60704700BFE0130020D54100000A
:10474800E413002035B70000F8B5057D0446AF1E18
:10475800FFB2002D3AD0012F2DD800F1500190F86A
:104768004F0005F06AFF0828064624D0FDF706FF2B
:1047780010BB023D18BF0125012F84F84850A675CB
:104788008CBF002701276775FDF7BCFF054607F0BA
:1047980066FC0022144B84F85620E5FB0301C4E9AB
:1047A800100111462046FFF7BDFB70B940F2A34146
:1047B8002D20FBF707FF0826022D09D104F1490136
:1047C8000020FDF76BFD60B90020F8BD0826F5E76D
:1047D80004F149010120FDF761FD0028F4D001250D
:1047E800CAE70025C8E700BF40420F00F0B5444EB5
:1047F80085B00446327902F0FF0312B90278FF2A25
:1048080004D140F6DD112D20FBF7DCFEB36080F803
:1048180069303C4B684604F1200500933A4B0193FC
:104828003A4B0293F3695B68039301F0FDFC01F0D6
:1048380029FB01F075FD01F06FF8354801F082FBA6
:10484800344801F0EBFC284607F0E3F9284607F066
:10485800E5F901F081FB2179252001F0E7FA94F9C7
:10486800120001F069FB04F12C01A06A05F008F8B8
:10487800074604F13401A06A05F029F80546DFB1BE
:10488800237FCBB1B4F92650ED43ED0F637D13B907
:1048980063885B0709D56FF00043D4E910129A4288
:1048A80008BFB1F1FF3F0DD19DB930680330FDF766
:1048B80047FF307405B0F0BD002DE7D0657F002DAF
:1048C800E0D1E3E707F0CBFBD4E91023904299410C
:1048D800EAD3012229462046FFF724FB50B1FDF711
:1048E80011FF054607F0BBFB0B4BE5FB0301C4E9D1
:1048F8001001DAE7002DD8D040F61C2183E700BF6D
:10490800500E00207D46000009400000A540000030
:10491800D6BE898E5555550040420F0073B50446E2
:10492800FFF764FF00212046FFF7CAFD236E0BB195
:1049380001221A606388DB0724D50023124EA5697B
:10494800CDE90033FF2373746846FCF79DF9C8B9B5
:10495800009CA542F8D005F1B40395F8B32004F102
:10496800B40194F8B30005F02EFE0028ECD094F8BA
:10497800AC30B4F8B1207374D4F8AD30C6F8123046
:10498800024B9A8002B070BD500E0020620E0020CB
:10499800024B9861DB691B68184700BF500E002066
:1049A80043881B0710B504460FD583693C22094983
:1049B8006A304272B3F8AA304381FF2380F8273067
:1049C8004FF6FF73038506F00EF9FF2384F869306C
:1049D80010BD00BFE5B8000031B900002546000051
:1049E80037B90000ED43000025490000E53F00000D
:1049F8006D460000E0490000E4490000EC49000071
:104A08000138022808B503D9C4212F20FBF7DAFDA5
:104A180013290A4B05D811290CD8102907D0D221FF
:104A2800F3E71529FBD103EB4003D88801E033F8FD
:104A3800100008BD03EB40039889FAE7188B0200C1
:104A4800294A38B50346948810681C43402B948043
:104A580004D10421BDE83840FFF7C6B9802B01D145
:104A68000521F7E703F00304032C04D140F6B23123
:104A78003120FBF7A7FDDD0706D50C689160247887
:104A8800062C0FD00B2C17D09C0706D5096809787F
:104A98000529117319D00B2921D09B0644BF08237F
:104AA800537338BDC47B1B2CEED100240025C0E90C
:104AB8001C450124C474E7E7C47B112C01BF002402
:104AC800C474012480F85640DEE7C17B1729E4D17D
:104AD800002400250121C0E91E450175DDE7C17BE1
:104AE8001029DAD10021F8E7700E00200C4A03469D
:104AF800517B89B910683BB9B0F80411B0F8E820C7
:104B0800914209D8FFF762B993881B0706D5007C44
:104B1800073818BF012070470020704701207047F0
:104B2800700E002073B5044600680D46036813F044
:104B3800300F49D1B1F805101A2904D9B5F8073052
:104B4800B3F5A47F06D22978204602B0BDE87040AC
:104B580006F0D3B9B5F801201A2AF4D9B5F80360DC
:104B6800B6F5A47FEFD3DC30009606F0CCF8174BEF
:104B78009A8892070DD51B7B142B0AD122681368DB
:104B880043F010031360204606F08EF9002002B0AF
:104B980070BD23689A7B202AF0D093F82331002B2C
:104BA800ECD1236893F82231002BE7D123681A68E7
:104BB80003F1DC01B3F8AA0042F020021A6003F501
:104BC800A472FEF7CBF8DEE70120E0E7700E0020C4
:104BD8002DE9F843614C0646256800287ED1A38854
:104BE8001A0725D595F89E30FE2B04D140F2FB51CB
:104BF8003120FBF7E7FCFE2385F89E30EB7B1D2B6D
:104C080005D185F85500204606F058F9EE73AB7BC0
:104C1800232B06D1EB7B233B072B94BF2A2324238A
:104C2800AB732B7C072B02BF0223A37385F89E303E
:104C3800A388DB0717D4A3885F0776D499077DD5A7
:104C4800207B012223680D2883F89F2073D0112828
:104C58007ED007287ED0FEF721FA034600286BD1C4
:104C680040F2EE51C4E7D4F80080A16898F80F30FC
:104C7800D1F80090103B99F800700F2B09D8BB1E93
:104C8800DBB2092B68D840F2333222FA03F3D80793
:104C980062D509793846FDF757FE20B939462F48BD
:104CA80006F02BF939E0012F01D9162F21D198F8F8
:104CB8000E0006F012F940B198F80E30232B04D0FC
:104CC800242B07D12A2388F80E303846FEF7DCF962
:104CD80003461BE0162F14BF02262026637B1B0702
:104CE80004D5EB7B103B0F2B98BF08263046BDE858
:104CF800F883112F15D005D8072F14D00D2FE4D124
:104D0800174B05E0142FE0D1164B1B68002BC5D0BC
:104D1800A268494611481279984700288BD0064660
:104D2800DCE7114BF4E7114BF2E72A7C062A04BFB3
:104D38000122A27382E70E4B08489847A388DA0637
:104D4800CCD52368DA7B092AC8D10A22DA73C5E7E9
:104D5800084BF1E7084BEFE70826BFE7700E002085
:104D680019BE0000E81300205DBE0000094E0000D7
:104D780043BD00008FBD0000B9BD00002DE9F04122
:104D8800A0F10E040B1E1646E4B208BF1F23172C11
:104D98000AD8012540F25121A5400D4207D115F44A
:104DA80060051FD1082C07D00020BDE8F081002144
:104DB800BDE8F04106F075BF1468A17B242906D12F
:104DC80019463046FDF7E6F984F82C5105E02A2902
:104DD800EAD1E37B233B072BF3D80023A37384F8A2
:104DE8004E30E1E7054A1468002CDDD01A4601462A
:104DF80023463046BDE8F041184700BFEC130020B9
:104E080070B54D780446A5F10E03DBB2152B0CD80E
:104E1800012140F2512201FA03F6164207D1026835
:104E2800152B927B2AD0082B07D0002070BD024694
:104E38002846BDE8704006F034BF242A01D02A2A4B
:104E4800F3D1204606F028F82368DA7B252AECD02F
:104E580093F867201A21204622F0010283F8672080
:104E6800226892F8673023F0080382F86730FDF76C
:104E780091F92368002283F82C21D6E72C2AD4D173
:104E8800024B1B68002BD0D09847CEE7F0130020C8
:104E98002DE9F04190F86E7204460D4690F86F6265
:104EA8007FBB90F8141176BB94F8153184F814116F
:104EB80084F81531FF2384F81631154B04F1A8083E
:104EC8001B680BB14046984794F82C31012B01D050
:104ED8003E4303D0237B43F001032373404605F090
:104EE80019FF18B1237B43F00203237306212046E0
:104EF800FEF77AFF002384F82C3135B1A373BDE89F
:104F0800F0813946CFE73346D0E7E573F7E700BFCE
:104F1800F413002073B5504D002604462860AE8077
:104F28006E73AE73FF2380F85030B0F8B231002BA7
:104F380000F08B8090F89E30FE2B40F0868090F831
:104F48002031002B00F08180037C063B012B7CD9AB
:104F580090F821310221A0F84860012280F8A030A1
:104F680006F0F8FE0221284684F8BA61FDF7E0FF52
:104F7800B4F8B6112046B4F8DA300139B4F8B821DB
:104F880089B2B1FBF3F31344A4F8B831B4F8403054
:104F98000B44A4F84030B4F8463001330B44A4F86D
:104FA8004630B4F8443001330B44A4F8443006F0DA
:104FB8001EFF10B1636B0B446363B4F8B231002673
:104FC800012B9CBF0133A4F8B23109B184F8BE614A
:104FD800E37B84F8BA61093B012B0FD8E388B4F866
:104FE8006C229B1A190409D404F26E2104F11600EC
:104FF80005F02DFCE673FF2384F84F30B4F8B62192
:1050080004F1A801204605F069FCE37B134A103B34
:1050180013490F2B8CBF002301230093114B2868E1
:10502800FCF79EFB2C68237BDA0703D500210A488E
:10503800FDF7B0F8237B9B0703D504F23F10FDF77B
:1050480087FE0023237302B070BD94F89E10FE29DA
:105058008ED001488AE700BF700E0020F54A000094
:10506800494A0000715000002DE9F047B24F0E4642
:105078008046B9883C688D05204655BFB4F8402065
:1050880000230132A4F840304CBF84F8BE31A4F8A4
:10509800402006F0ACFE38B10B4604F59B7204F1D3
:1050A800A8012046FEF7B0F9BB8803F4C06323B11A
:1050B800A37C002B45D0032B49D0A27CBB88012AB6
:1050C80003D1180544BF0222A274B8F1000F40F0C2
:1050D8008F80590657BFB4F8D8214246013292B2A0
:1050E800A4F8D82103F00A020A2A0CD13A7B022A32
:1050F80009D123F008033046BB80FFF769FD304330
:105108000823C6B2BB803046FFF762FD3D683043D6
:1051180095F89E30C6B2FE2B3BD1D6BB2B7C063B06
:10512800012B36D995F82031ABB195F82131012200
:105138000221A5F8486085F8A030284606F00AFE46
:1051480027E00121A1742046FEF74EFEB5E70223B1
:105158000121A374F7E795F80FA0AAF10F0A5FFAE7
:105168008AFABAF1100F40F2E9802B68DA0702D503
:1051780032460921E1E7980740F18D8032460C213B
:10518800284606F0E7FD95F8573043F0010385F807
:105198005730B4F8B83194F8BB510133A4F8B8319A
:1051A800002D00F0FB81FCF797FB10B10023A4F859
:1051B800B831A17C012940F22982237C072B40F0D9
:1051C8000582B4F84030022B40F22082B4F84250F5
:1051D8000135ADB2E3882B44A4F8B03194F8BC3162
:1051E800002B00F017820123E2881344A4F8B4319D
:1051F800BB883D685B0657BFB5F8C4310023B5F8D6
:10520800B6219B1858BF9BB2A5F8C43195F8203138
:105218001BB92B7C063B012B06D8B5F84830B5F8EE
:10522800B6211344A5F8483095F84E1031B1B5F8B9
:105238004A30B5F8B6211344A5F84A3095F95420F8
:10524800002AC1BFB5F85230B5F8B6011B18A5F849
:10525800523095F8313063B9B8F1000F40F06482EC
:10526800BB7B022B40F01C8295F8A030062B18BFA0
:10527800162395F8302022B92F4885F83130FDF7EC
:1052880017FF284606F013FE002384F85030BDE8C7
:10529800F047FCF7D5BF590702D5324613214CE732
:1052A8001A0706D595F89830324685F8A0300721B8
:1052B80043E713F0300F3AD095F82331002B5BD138
:1052C80095F82231D3B1EB7B05F1A80005F5917172
:1052D80005F26E22282B28D0AB7BA3F1280CDCF139
:1052E800000343EB0C0305F000FD2B6823F02003BB
:1052F80043F010032B60002385F822312B68DA066F
:105308003AD505F1A80005F005FD18B105F23F10E2
:10531800FDF71EFDB5F8FE3000221521A5F8A030D6
:10532800B5F80231A5F8A23007E70123DBE75B06F1
:1053380022D50022242100E7700E0020D7F8009023
:1053480099F80F30172B2DD011D8102B1DD0152BF5
:105358001FD0AB7B002B63D1EB7B0F3B102B67D9A6
:1053680095F83E30002B63D001221221E5E61F2B71
:10537800EFD1324606210AE03868C37B252B3FD09F
:10538800342BE6D100221121D8E632460B214846BB
:10539800D4E64846FDF700FF00283FF4FAAE0022A5
:1053A8000421F4E799F86832012B07D13246052128
:1053B800484606F0CFFC89F86862EAE699F8683250
:1053C800022BD9B27FF4E5AE99F8563053B10623D3
:1053D800324689F8A030484606F0BCFC002389F81C
:1053E8006832EAE73B6840F20632A3F89A20324670
:1053F80099F8663013F0040F0CBF0D211121EAE76C
:1054080090F82C31022B02D10022172196E690F851
:105418002C31012B9DD190F82D31002BF4D098E739
:10542800082B05D195F89930012285F8A0303EE780
:10543800BAF1100F7FF6ADAE3D6895F80E90B9F150
:10544800000F7FF4A6AE95F833313BB101220E214F
:10545800284606F07FFC85F83391AEE795F832319F
:1054680083B195F8579019F0030A0BD149F0010957
:1054780001220C21284606F06DFC85F8579085F826
:1054880032A19AE795F822313BB395F8233123BB33
:10549800EB7B05F1A80005F5917105F26E22282B2A
:1054A80019D0AB7BA3F1280CDCF1000343EB0C0310
:1054B80005F01BFC002385F822310122142128461F
:1054C80006F048FCB5F8FE30A5F8A030B5F8023172
:1054D800A5F8A2305DE60123EAE795F82C31012B07
:1054E8003FD195F82D31002B3BD1EA7BA2F1230364
:1054F800072B36D995F81401012806D0022804D0C4
:105508004FF43F710620FBF75DF895F81511012956
:1055180001D00229F4D1022895F82E310BD0012BA5
:1055280014BF0023012343B9093A042A7FF631AE98
:105538000122162101E6022BF2E7022995F82F3104
:105548000DD0012B14BF00230123002BECD0002128
:105558007848FCF71FFE002385F82C3119E6022B4A
:10556800F0E795F835314BB195F82D3133B9EB7B30
:10557800233B072B02D901222321DEE595F834319C
:10558800012B05D1002385F8343101222521D4E5EA
:1055980095F83431022B7FF4FCADF3E7FCF796F96C
:1055A80008B1A4F8B851FCF79FF900283FF401AE00
:1055B80094F8BE310133DBB2022B84F8BE3182BFCE
:1055C8000023A4F8B83184F8BE31F2E594F83E30EF
:1055D80013B1A37B0E2B19D1B4F840202046B4F8A0
:1055E8004630B4F842509A42A5F103052CBFAD1AD3
:1055F800ED1A06F0FCFB58B1A36B626B033B9B1AD8
:105608009D42A8BF1D46012D3FF7E3AD0125E1E509
:105618002B46F5E7012D7FF6E6ADE37B13B10A2BA8
:105628007FF4E1ADA37B002B7FF4DDAD237C002B61
:105638007FF4D9AD02297FF4D6AD94F8BE31002BA2
:105648007FF4D1ADD4F8BC00B4F8DA9003F06AFF67
:1056580000283FF4C8AD94F89E30FE2B7FF4C3AD0C
:10566800B4F8B231012B7FF6BEADB4F8B821B4F866
:10567800CC309A42BFF4B7AD013D9B1AADB29BB294
:10568800B5FBF9F59D4228BF1D4605FB09F3003D12
:1056980003F1010318BF01259BB284F8BA51A3E5B1
:1056A800012B08D16B7C002B7FF4E3AD0021284649
:1056B800FEF79AFBE8E55EB1F00633D4310733D440
:1056C800B20633D4B30733D140F61E3131201AE77E
:1056D80039B1B5F84A10B5F84C30994201D32223B4
:1056E800C7E5002A05DDB5F85220B5F84C309A42D6
:1056F800F5D2B5F84820B5F842309A4209D2AA7CCA
:10570800B5F8403052B1B5F842209A42CED80823B5
:10571800AFE595F82031002BE1D1F0E7052BC5D98D
:105728003E23A6E51E23A4E53D23A2E52323A0E509
:105738002A239EE5700E0020D0F87432D0F8C420D9
:10574800934213B50446019005D1D0F87812D0F8E9
:10575800CC20914216D0B4F8AA2004F27D1010494A
:10576800A4F8872140F2E242B3FBF2F3A4F88931AE
:10577800B4F87832A4F88B31B4F87A32A4F88D31C1
:1057880005F03AFAB4F87A2201A8D4F87412FDF7B1
:10579800ADF80023E3730323A37402B010BD00BF68
:1057A800FDAF000008B5FDF797FB024B024A1A60EF
:1057B80008BD00BFE81300202D4B0000074B93F9EC
:1057C80000301844142804DC10F17F0F03DB40B2CA
:1057D8007047142070476FF07E007047810E0020DC
:1057E8007F2307B50DF107008DF8073000F0A6FDFF
:1057F80003469DF9070053B1094B5B785B425BB2E6
:105808001844142806DC10F17F0F05DB40B203B002
:105818005DF804FB1420FAE76FF07E00F7E700BF9D
:10582800810E0020024B00221A705A70704700BF88
:10583800810E0020064BD3F8000138B1D3F80401DB
:1058480020B1D3F80801B0FA80F04009704700BFD2
:1058580000A00450034B00221A705A7010229A704C
:10586800704700BF840E0020F8B506460220144693
:105878000D4600F0CDF8114B114A01275C60191D47
:105888009A6002F1807203342D011F70DC601D8361
:10589800C3E904260022243303F80A2C0D2203F856
:1058A800092C084AC2F83015074903C983E80300E0
:1058B800C2F80875C2F83835F8BD00BF840E00205C
:1058C8000300000B00A004502C8B020008B5022036
:1058D80000F09EF80D4B01221A7000220C4BC3F801
:1058E8000021C3F80421C3F808210A4AC3F880201C
:1058F80003F56433C3F88C20A3F57C33C3F88C21FB
:10590800A3F500530822C3F8042508BD840E00201F
:1059180000A0045003000080154A08B51378FBB1B5
:1059280000231449C1F8803001F56431C1F88C3086
:10593800A1F57C31C1F88C3108210F4BC3F808154B
:10594800FFF778FF88B101235370938EFF2B03D99B
:10595800BC213B20FAF736FEDBB2937000231370AC
:105968000020BDE8084000F053B810235070F4E759
:10597800840E002000A0045000200450094B1A781F
:1059880062B1094BD3F8002152B1D3F8040140B1F8
:10599800D3F80801B0FA80F040097047587870478A
:1059A80002207047840E002000A00450064A08B563
:1059B80013782BB1FFF73EFF20B192F8340008BDF1
:1059C8009078FCE71020FAE7840E002038B5084CE0
:1059D8000025D4F80035032B04BF01236360C4F805
:1059E8000055C4F8005500F0A3FFC4F8805038BD36
:1059F80000A00450054B4FF48062C3F88820BFF321
:105A08004F8FBFF36F8FFFF7E1BF00BF00E100E0EA
:105A180010B50446FFF7DAFF012C06D0022C09D096
:105A28003CB18C213D20FAF7CDFD074B0222C3F88B
:105A3800002510BD044B0322C3F8002502F10042E3
:105A4800C3F88020F5E700BF00A00450024BD3F84C
:105A5800A00300F00100704700C0FF00084BD3F816
:105A6800A423D3F8A833511C9BB203D14FF6FF717E
:105A78008B4203D00260838001207047002070476A
:105A880000C0FF000B4B30B5D3F89053D3F89443C4
:105A9800D3F89813D3F89C2305EA04030B4013406A
:105AA800013317BF05600020446081601CBFC260DD
:105AB800012030BD00C0FF000B4B30B5D3F8805338
:105AC800D3F88443D3F88813D3F88C2305EA040366
:105AD8000B401340013317BF05600020446081600C
:105AE8001CBFC260012030BD00C0FF00064B002271
:105AF800C3F80022C3F81822C3F82022C3F80C22E6
:105B0800C3F81422704700BF00A0085070B5134DA9
:105B1800034608466E7F26B940F6C1013E20FAF7D3
:105B280051FD63B9012EAC69297F05D100F074FDE0
:105B380020442B69C01A70BD06F02AFAF8E7012B39
:105B480009D1012EAC69297F02D100F055FDEFE79C
:105B580006F029FAECE70020EBE700BFC00E0020B2
:105B68000B4B93F8290088B193F828307BB1094B87
:105B7800D3F8002442F00102C3F80024D3F820052A
:105B880000F0F600023818BF012070470120704766
:105B9800C00E002000A0085008B50128084B187155
:105BA800084B06D0022808D040F645513E20FAF7A7
:105BB80009FD0322C3F8002508BD0422FAE700BF47
:105BC800C00E002000A0085008B570B9104B28314D
:105BD8001846D9600F4900F04DFF0130012816D949
:105BE80040F2C2613E20FAF7EDFC01280CD1084BC7
:105BF80029311846D960074900F042FF01300128D1
:105C080005D940F2CC61EDE74FF4DA61EAE708BD67
:105C180088000020348B020008B50C4B5B78012B00
:105C280009D100F033FF013001280ED940F61111D7
:105C38003E20FAF7C7FC022B07D100F02DFF0130F8
:105C4800012802D940F61711F2E708BDC00E00205E
:105C58000A4B40F409000A4A1B8940F04000B3F59A
:105C6800166F36BFA3F63813A3F5166343F4807393
:105C7800C2F80837C2F84005704700BFC00E0020C0
:105C880000A0085073B50C460546134EFFF784FF75
:105C980020462146FFF7DCFF01AB96F90520284690
