:10000000481A0020790F00001F570000650F0000FC
:10001000650F0000650F0000650F0000650F000010
:10002000000000000000000000000000DD100000E3
:10003000650F00000000000075100000650F000053
:1000400071120000711200007112000071120000A4
:100050007112000071120000711200007112000094
:100060007112000071120000711200007112000084
:100070007112000071120000711200007112000074
:1004C000711200007112000053B94AB9002908BF27
:1004D00000281CBF4FF0FF314FF0FF3000F00CB888
:1004E000ADF1080C6DE904CE00F008F8DDF804E089
:1004F000DDE9022304B07047704700BF2DE9F047E3
:1005000086468C460846089E154674461946002BBA
:1005100040F0C1808542B2FA82F245D94AB1C2F1B7
:10052000200300FA02FC954094402EFA03F343EABC
:100530000C0C4FEA154EA8B2230CBCFBFEF80EFBC8
:1005400018CC08FB00F943EA0C43994528D9EB186D
:1005500008F1FF3704D2994502D9A8F102072B44CC
:10056000A3EB0903A4B2B3FBFEFC0EFB1C330CFB94
:1005700000F044EA0344A04214D92C190CF1FF33D3
:1005800004D2A04202D9ACF102032C44241A43EA5B
:1005900007401EB1D440002334607360BDE8F0878B
:1005A0004746DDE76346F1E792BB431B01214FEA73
:1005B000154EAFB2200CB3FBFEFC0EFB1C330CFB44
:1005C00007F840EA0343984561D9EB180CF1FF3076
:1005D00004D2984502D9ACF102002B44A3EB0803E6
:1005E000A4B2B3FBFEFC0EFB1C330CFB07F744EA82
:1005F0000344A7424DD92C190CF1FF3304D2A74272
:1006000002D9ACF102032C44E41B43EA0040C0E7EA
:10061000C2F120039540944020FA03F12EFA03F32F
:100620004FEA154E9040AFB20343B1FBFEFC0EFB08
:100630001C10190C0CFB07F841EA0041884522D92F
:1006400069180CF1FF3004D2884502D9ACF10200E0
:100650002944A1EB08019BB2B1FBFEFC0EFB1C116F
:100660000CFB07F743EA01439F420ED9EB180CF14C
:10067000FF3104D29F4202D9ACF102012B44DB1BB3
:1006800041EA004193E76046E3E76146F7E76046E9
:10069000A4E76346B8E7834206D916B900210846A5
:1006A0007CE7C6E900E0F9E7B3FA83F78FB9834244
:1006B00001D3724508D8BEEB020460EB03030120AE
:1006C0009C461EB9002169E73846FAE7C6E9004CA6
:1006D000F8E7C7F1200CBB400EFA07F522FA0CF43C
:1006E0002EFA0CF1BA401C4320FA0CF3B8404FEA42
:1006F000144901431FFA84FEB3FBF9F809FB1830D3
:100700000B0C08FB0EFA43EA00439A4540D9E31864
:1007100008F1FF3004D29A4502D9A8F1020023441F
:10072000A3EB0A0389B2B3FBF9F809FB183308FB02
:100730000EFE41EA03418E452CD9611808F1FF33C2
:1007400004D28E4502D9A8F10203214443EA0040B5
:10075000A1EB0E01A0FB02984145CE46434602D3D1
:1007600006D14D4504D20138B9EB020E68EB040303
:10077000002EA7D0B5EB0E0261EB030101FA0CFCD1
:1007800022FA07F3F9404CEA0303C6E9003199E77E
:100790004046C5E74346D9E708B50349034804F096
:1007A00081FB002008BD00BF8C740000AA7400000B
:1007B000014B1B68184700BFF0000020014B186078
:1007C000704700BFF000002030B585B004460D46EC
:1007D00010220021684605F0E5FF02238DF8023063
:1007E000044B2A4621466846019304F06DFB05B090
:1007F00030BD00BFB107000080B505460E46174664
:10080000984603F0F3F8034606F036F80446DFF89E
:100810001890424649F8003039463046A84754F807
:10082000090000F011FC00BF080000002DE9F047AE
:10083000058B04462807904611D4022905F00705C8
:1008400040F0CC80204604F08AFE78B10138218B3C
:10085000042811D8DFE800F0C2106D859500012949
:100860000CBF45F0100545F02005258388F311885D
:10087000BFF36F8FBDE8F08701F0070AAA4500F0CB
:10088000A5800027B9463E46A368002B00F0BC8037
:1008900041F00801218388F31188BFF36F8FA168AD
:1008A000002900F0BA800D68002900F0B6803346B8
:1008B00052462046D1F80480C047002D76D02B68E0
:1008C00029461D46F0E701F007035A1F012A1BD8ED
:1008D000002221F00701062B276889B2C4E9002213
:1008E00009D13B4603E0628B013262831B68002B17
:1008F000F9D141F002012046218304F030FE0028A6
:100900007AD041F0200176E0042B0AD121F00701D2
:1009100089B22046218304F022FE10B141F020016B
:100920002183218B01F0070AAA454FD00027B94641
:10093000AAE7236921F0070141F00601062DD3F84B
:10094000009021832DD1B9F1000F3FD041F0080173
:10095000218388F31188BFF36F8F20463949C84738
:1009600029E021F00701236941F0040189B2042D37
:10097000D3F804902183E6D000274FF0040A3E46C6
:1009800082E721F00701236941F0050189B2052DB5
:10099000D3F808902183D6D000274FF0050A3E46B1
:1009A00072E700274FF0060A3E466DE72B4687E7C1
:1009B000B9F1000FD1D1EFF31188202383F312880E
:1009C000BFF36F8F238B23F008032383258BEA0665
:1009D0002ED525F01003238305F007056669218BCA
:1009E000002EBFF670AF00232768C4E9003321F062
:1009F000070141F001012183218B4FF0000901F033
:100A0000070AAA457FF440AF002F9CD041F00801AF
:100A1000218388F31188BFF36F8F002FC8D03D6802
:100A2000394633465246204604F0C5FD2F46F4E7CA
:100A3000AB067FF51BAF25F02003238305F00705E8
:100A400000E700BFE3550000014B03600020704742
:100A50001873000008B5044804F074FD034804F05E
:100A600071FD002008BD00BFBB740000F9740000D8
:100A700008B50348034A0021121A04F048FE08BDD5
:100A800058030020080D0020074808B5074A084908
:100A9000121A04F03EFEBDE808400648064A07491F
:100AA000121A04F036BE00BF600000205803002078
:100AB000DC7900006000002060000020DC7900008C
:100AC00038B505460C4699B1D1E901230F480968AC
:100AD00004F038FDD4E90423E1680D4804F032FD48
:100AE000E1690C4804F02EFDA1690B4804F02AFDD1
:100AF000012D05D1EFF305810848103904F022FDDE
:100B000021462846BDE8384002F05EBA277500004D
:100B1000577500008775000097750000C6750000C6
:100B200030BFFFF7FDBF00BF2DE9F04105460B4E7A
:100B3000DFF82C80324606EB0807CC1B204609491B
:100B400005F023FEA01942460021083C05F02AFECC
:100B5000C5F8804007F10800BDE8F0810000000002
:100B600004000000D4720000054B5A699B689A4249
:100B70001FBF044A536843F080535360704700BF5F
:100B80009806002000ED00E010B5204C204804F04D
:100B9000D9FCA36A990137D51E4804F0D3FC1E2066
:100BA000A36ADA0103D51C4804F0CCFC1F20174CC3
:100BB000A36ADB0203D5194804F0C4FC0220A36A2F
:100BC0001C0303D5164804F0BDFC21200F4CA36A7A
:100BD000590303D5134804F0B5FC2220A36A9A03F5
:100BE00003D5114804F0AEFC2320084CA36ADB03B4
:100BF00003D50E4804F0A6FC2420A36A6FEA034341
:100C00006FEA1343A36210BD1D20C9E700ED00E0A9
:100C1000DA750000F3750000077600002276000008
:100C20004D7600006C76000092760000AD760000F4
:100C300070B5244C064624480D4604F083FCA36A94
:100C4000D90435D5214804F07DFC1720A36A1A0584
:100C500003D51F4804F076FC18201A4CA36A9B05A4
:100C60000FD51C4804F06EFCA16BA36A180407D5CD
:100C7000194804F067FC1EB1A36A23F40043A36281
:100C80001920104CA36A590503D5144804F05AFCE6
:100C90001A20A36ADA050DD5114804F053FC1B2075
:100CA000084A936A43F47F43936200232B7070BD1C
:100CB0001620CBE7A36A9B04F2D50A4804F042FC55
:100CC0001C20EDE700ED00E0D9760000F076000092
:100CD00002770000167700003077000046770000AA
:100CE000627700007B77000070B5264C06462648E8
:100CF0000D4604F027FCA36AD80640D5234804F02B
:100D000021FC1120A36A190703D5214804F01AFC1D
:100D100012201C4CA36A9A070FD51E4804F012FC3F
:100D2000616BA36A1B0607D51B4804F00BFC1EB1C0
:100D3000A36A23F08003A3621320124CA36ADE0788
:100D400003D5164804F0FEFB1420A36A9C0603D5C5
:100D5000134804F0F7FB15200A4B9A6AD10658BFD6
:100D60009A6A9A6A920642BF5A6A22F400525A62FA
:100D70009A6A42F0FF029A6200232B7070BD102025
:100D8000C0E700BF00ED00E0AB770000C2770000D5
:100D900002770000F67700000F7800002678000048
:100DA0007B7700002DE9F0415B4B04465F6800252E
:100DB0008AB0C7F3080685F31188BFF36F8F02F07E
:100DC0007F43B3F17F4F06D102F00C03082B13D100
:100DD000524804F0B7FB00252C464FF00008F31EE4
:100DE0008DF80780092B00F28580DFE803F00A798F
:100DF0007D7583838383838110074CBF0C46012557
:100E0000EBE74748444E04F09DFB8DF80780F36AFA
:100E10009A0704D5434804F095FB00232FE0F36ABA
:100E2000002B01DA4048F6E7F36A5B00F5D53F484E
:100E300004F088FB7369A26943F480737361BFF3A4
:100E40004F8FBFF36F8F736932F8022C23F48073D6
:100E50007361BFF34F8FBFF36F8F4DF602739A42EA
:100E600008D0B36ADBB24BB301200DF10701FFF7E5
:100E70003BFF33E021682E4804F064FB23689DF8B3
:100E80000720C2B902AE04F120073246206861682B
:100E9000083403C2BC421646F7D1099AB5B3C2F36F
:100EA000080121B96FEA52226FEA422209921846DC
:100EB00002A9FFF705FE0AB0BDE8F081B36A13F49A
:100EC0007F4F05D001200DF10701FFF7B1FE05E0CE
:100ED000B36AB3F5803FA0D3FFF756FE0346CEE7D3
:100EE00000200DF10701C2E700200DF10701ECE73A
:100EF000104890E7104B17F4F87F1049104818BFBE
:100F00001946A6F1100204F01DFB86E722F4FF72D9
:100F100022F00102CAE700BF00ED00E07478000093
:100F2000A0780000B8780000DA780000E9780000C6
:100F300009790000267900005B78000046780000FF
:100F40004B790000064B5A6942F010025A615A6907
:100F500042F480625A615A6922F008025A6170476D
:100F600000ED00E0EFF30880EFF3098101B5724670
:100F7000FFF718FF01BD00BF002080F31488BFF306
:100F80006F8F002080F30A8880F30B880F4880F36E
:100F9000088801F07BF900200D490860BFF34F8FEE
:100FA00000F02CF8202080F311880A484FF40061EB
:100FB000401880F30988EFF314800221084380F37E
:100FC0001488BFF36F8F00F0EFF80000481A00207C
:100FD00094ED00E0080D0020002318460649D1F8E2
:100FE0009020C2F30722934200DB7047C1F898308B
:100FF000C1F8A0000133F6E700ED00E010B572B6CD
:10100000002484F31388FFF7E7FF23464FF0FF30F7
:101010000C4A03F120010133102B42F82100F8D1D2
:1010200000234FF0FF30074A03F160010133102B1A
:1010300042F82100F8D162B6BFF34F8FBFF36F8F34
:1010400010BD00BF00E100E0084B9B6883420BD15C
:10105000EFF3058343B1064B5A6842F080525A6061
:101060005A6A22F400425A6202F0C6BC9806002076
:1010700000ED00E016498A684FF030001044EFF3AD
:10108000098C80E8F01F202080F31288BFF36F8F57
:10109000104F4FF000664A698A603E60D2F88000C7
:1010A0000D4C2060D2F884000023C2F8843080F315
:1010B000118802F1300090E8F01F8CF3098802F1EA
:1010C000000004B504F036FBBDE8044070470000A2
:1010D0009806002004ED00E0900500201EF0040FAB
:1010E0000CBFEFF30880EFF30980816911F8021C4F
:1010F0000229FFD001B5724604F00DFB01BD00BF0F
:1011000000B2002807DB01234109034A00F01F0059
:10111000834042F82130704700E100E000B200282F
:101120000CDB01220649430900F01F0082402033F6
:1011300041F82320BFF34F8FBFF36F8F704700BF7D
:1011400000E100E0054B420953F82220012300F0A2
:101150001F0003FA00F01040704700BF00E100E0FC
:1011600000B2002801F10101ACBF00F16040064B64
:101170004FEA4111C9B2ABBF00F5614000F00F006A
:1011800080F800131954704714ED00E0044B054A31
:1011900023F07F039360BFF34F8FBFF36F8F7047D0
:1011A0000000000000ED00E008B5FFF7EFFF074A80
:1011B000D2F8883023F47003C2F88830FFF758FC67
:1011C000FFF762FC00F046F801F0C2FF00ED00E01E
:1011D00042F8203C009B0B4942F81C3C019B21F04B
:1011E000010142F8183C029B42F8081C42F8143CEA
:1011F0004FF0807342F8043C0023203A0265C0F8A7
:1012000084307047F907000000B50D4B1546986013
:10121000D0F880200B4B0E461A60036F83F30B88C7
:101220002C4686F309880020034B9847204600216E
:1012300000220023014C204743570000F90700001B
:1012400098060020900500201022014B1A6170477B
:1012500000ED00E0002320210448C2180133B3F55B
:10126000917F82F80013F8D1704700BF00E100E0E1
:1012700008B5EFF30583064A103B02EBC30152F8B1
:10128000330049688847BDE80840FFF76DBC00BFE0
:10129000786900001FB5094C094A23460121094815
:1012A00000F0FAF800230393074B0121E41A01A888
:1012B0000193029400F0FAF804B010BD00FC07207E
:1012C00000000020187300005803002010B50C7AAD
:1012D0000B6804F01F0223F01F031A43CB68640954
:1012E00023F01F03054943EA440343F00103C1F817
:1012F0009800C1F89C20C1F8A03010BD00ED00E0BE
:1013000010B5074BD3F89030C3F30723013B984245
:1013100002D8FFF7DBFF10BD6FF01500FBE700BF41
:1013200000ED00E02DE9F04F0F46144606464FF061
:1013300000084D4D85B0B84580F29280D6F80490F3
:10134000B9F1000F36D0B9F11F0F40F2878019F0C4
:101350001F0F40F08380D6F800A01AF01F0F7DD138
:10136000504604F011FA834609EB0A00013804F0F4
:101370000BFA834572D11BF1160F6FD05C456DDD02
:10138000C5F898B0D5F89C10C5F898B0D5F8A0303D
:1013900021F01F0143F01F0AD6E900321A44994296
:1013A00002F1FF391ED1CA4508D131465FFA8BF0F0
:1013B00004F0F3F908F101080C36BCE73146C5F832
:1013C00098B0D5F89C3022F01F0203F01F0313439E
:1013D000C5F89C30E0B204F0E0F910F1160F3DD0F2
:1013E000441CE7E7C5F898B0D5F8A020013B23F0EE
:1013F0001F0302F01F021343CA453146E0B2C5F88D
:10140000A030E8D004F0C9F910F1160F26D0C5F8C5
:1014100098B0D5F89C209DF808300AF1FF3A62F3A5
:1014200004038DF80830D5F8A0309DF808205B083B
:1014300063F347128DF80820D6E900321344009375
:1014400023F01F035344A3EB0903013023F01F03D0
:101450006946C0B20393FFF753FFBEE76FF0150470
:10146000204605B0BDE8F08F00ED00E00522044BFA
:10147000C3F89420BFF34F8FBFF36F8F704700BF47
:1014800000ED00E0BFF35F8F0022024BC3F8942011
:10149000704700BF00ED00E010B5034C2278FFF765
:1014A00041FF207010BD00BF000D00202DE9F74F57
:1014B000294D8A4606464FF00008AB46274FD045D7
:1014C0001BDAD6F80490B9F1000F3FD03168084616
:1014D000019104F059F90199044609EB0100013822
:1014E00004F052F984424FF014021D4B08D002FB65
:1014F00008F36FF015024BF8032003B0BDE8F08F3E
:1015000014F1160F2C60F8D01978A142F5DD02FB1A
:1015100008B0C7F89840C7F89840D7F89C4000F149
:101520000801007B64F304000871D7F8A0000C796F
:10153000400860F347140C71D7F89C1021F01F018C
:101540006960D7F8A01021F01F01296108F1010896
:1015500014350C36B3E700BF9405002000ED00E021
:10156000000D0020F0B55249524CD1F8903025685A
:10157000C3F307239D4287B000F296800020FFF757
:1015800081FF4D4BC1F8C030854216D14B4C01A8AC
:101590002570FFF759FA00250646494FAE4213D190
:1015A000002023784249D1F89020C2F307229342C9
:1015B00074DBFFF75BFF002043E0616801EB001183
:1015C000FFF784FE0130DFE70199280101EB0513E5
:1015D000DA683A40B2F5800F42D007D8B2F5801FE2
:1015E00015D0B2F5001F2ED00135D7E7B2F1006F4C
:1015F00043D0B2F1805FF7D15A689B680958013B2C
:1016000022F01F00034423F01F03012032E05A6838
:101610009B680958013B22F01F00034401208446C7
:1016200023F01F0340EA4C10CDE902218DF8100091
:1016300002A920780593FFF763FE00282ADA6FF0ED
:10164000150007B0F0BD5A689B680958013B22F0AD
:101650001F0003444FF0020C012023F01F03E1E7B9
:101660005A689B680958013B22F01F00034406207A
:1016700023F01F034FF0000CD4E75A689B68095809
:10168000013B22F01F0003444FF0030C012023F024
:101690001F03C7E7237801332370A5E7C1F898300B
:1016A000C1F8A00001337EE74FF0FF30C9E700BF6B
:1016B00000ED00E024730000AAFF4400000D0020AC
:1016C0000000F0FF08B5024B1B689847002008BDDA
:1016D000A8050020034B044A1860937843F00203E6
:1016E00093707047A8050020F400002008B5054954
:1016F000054A21F007010548521A03F0C9FE0020EF
:1017000008BD00BF4F1A002000FC0720AC050020D8
:1017100008B5234A234B1A6000F05EF84FF47A6153
:101720002148D0F82436C3F30802C3F309434B43DE
:1017300082F480721D49883201FB02334FF4FA2192
:101740005B00B3FBF1F201FB12331949B3F57A3FA9
:1017500028BF0132C1F80429D0F820364FF47A604E
:10176000C3F30802C3F30943434342F21C5082F41B
:10177000807202F2172200FB02334FF47A701B0AC8
:10178000B3FBF0F200FB1233B3F5FA7F4FF0010325
:1017900028BF0132C1F81C27C1F80036002008BD5F
:1017A0000020A1077802002000C0FF00F82A008076
:1017B0000000125048B1054B054A1B68B3FBF2F319
:1017C0005843044B43F00103184770477802002048
:1017D00040420F00007300000122024BC3F80424B2
:1017E000704700BF002008E0084B70B5C31A0D46D3
:1017F00007499B10044659434022064803F0F4FF72
:101800002B4601462046BDE870401847CC05002015
:10181000B76DDBB6EC680000402373B50B4C00934A
:10182000041B0B460D460A49A41061430646094AAB
:10183000094804F005F8011E05DA30462B4602B0CF
:10184000BDE87040184702B070BD00BFCC05002055
:10185000B76DDBB6AB580000EC6800002DE9F0472F
:101860000022012107464FF48770FFF779FC1248E8
:1018700000F084FD0446D0B900F0AAFD25464FF0E3
:101880001C0A4FF00C08DFF834903E6949460AFB09
:10189000056003F0B3FE031E0CDB012308FB0566A5
:1018A0001D44032DF365F0D12046BDE8F0876FF0AD
:1018B0000404F9E71C46F7E7ED1900005073000037
:1018C0001FB500220123CDE902236B46084ACDF85B
:1018D00000D0CDF804D003F0E1FF002805DB43F68B
:1018E00009520023684601F095FD05B05DF804FB40
:1018F000C958000010B5EFF31184202383F3128838
:10190000BFF36F8F074A136823F00201DB071160F2
:1019100002D4012004F01FF984F31188BFF36F8F04
:1019200010BD00BF440600200C22104B014602FBF4
:101930000033002030B4D3E915525865EFF311801D
:10194000202484F31288BFF36F8FDC6D04F0C00491
:1019500044F00204DC6580F31188BFF36F8F1DB182
:101960002B4630BC0248184730BC7047CC050020DD
:10197000EC68000010B4EFF31182202383F3128887
:10198000BFF36F8F1648016841F002040460C80776
:1019900007D482F31188BFF36F8F012010BC04F0CD
:1019A000CEB81049D1F80C14C903F2D5EFF3118069
:1019B00083F31288BFF36F8F0B49CB6D03F0C00325
:1019C00043F00203CB6580F31188BFF36F8F82F37E
:1019D0001188BFF36F8F002010BCFFF7A5BF00BFB9
:1019E0004406002000E01050CC050020042805D05B
:1019F00007280AD002280AD1012004E0044BD86D40
:101A000010F0070003D1FFF78FBF0220FBE77047FC
:101A1000CC0500202DE9F041012207463449D1E8E8
:101A2000EF3FC1E8E02F0028F9D133B931493248FE
:101A30004B60CB608A6003F0F4FD7B1E012B28D83D
:101A4000012F06D12D4BD3F8503403F00303012BA3
:101A50001FD004F019FB0546E8B9294B1B78D3B118
:101A600004220646254BC3F80823244CDFF8948053
:101A7000D4F84C24D4F84C34D20315D503F0030326
:101A8000012B01D0012F0FD16DB386F31188BFF365
:101A90006F8FBDE8F081EFF31186202383F3128866
:101AA000BFF36F8F0125E0E7C5B1304603F05DFE5F
:101AB000D4F8403413F0FF03DAD1D4F80821002A17
:101AC000D6D0C4F80831D4F808314FF4804201234D
:101AD000C4F84034C8F8A0212361C9E700212020C0
:101AE00004F048FBE4E70422044BC3F80423D0E7E6
:101AF000C8050020B8050020E805002000E01050CF
:101B0000030D002000E100E008B5074804F093FA57
:101B100038B10648FFF7DEFD0448FEF74FFE00200F
:101B200008BD6FF01200FBE75C690000311B00008C
:101B30000A2838B50446074D04D1AB680D21284664
:101B40005B689847AB6803485B68E1B298472046FA
:101B500038BD00BF5C6900002DE9F04340F2063556
:101B60004768D00648BF4FF0030C3B7C02EA0505EE
:101B700058BFC2F3401C87B001F01F06B5F5837F44
:101B8000144646EA43168DF803C046D00DD8062DFC
:101B900045D005D8A5B1022D12D06FF0150039E05F
:101BA000B5F5807FF9D101250AE040F20222954285
:101BB00037D0B5F5407F36D0B5F5007FEDD104259F
:101BC0000123220303FA01F12FD57B685960B8681D
:101BD00080BB7F2E06F01F034FEA561173D83C4A94
:101BE00052F8212084F4803102EB8302D2F8803055
:101BF000C1F30041C4F3404423F4706344EA410458
:101C000023F00F031C4344EA8C0444EA0524C2F881
:101C10008040002007B0BDE8F0830925D0E7082503
:101C2000CEE70625CCE70525CAE7630344BF7B68FA
:101C30009960CCE731460DF1020204F06EF914F41C
:101C4000403F80460CD13146B86804F07FF9B8F1C6
:101C5000000FDED19DF80210B86800F0AFFED8E7A3
:101C60004FF0000901ABCDE90199CDE90439CDF878
:101C70000C903146B86803AA04F093F84845C8DBD5
:101C800014F4003314D09DF8033084F48034C4F38A
:101C900000448DF80E308DF80C508DF80D404B46F9
:101CA0003146B86803AA00F0D7FD0028CFDAB0E7C4
:101CB000CDE904330DF1030303933146B86803AA59
:101CC00004F06FF8F1E7203350F82330FFDE00BF57
:101CD000747300004209022A034670B503D0012A3A
:101CE00018D0CAB170BD0E4E326951680029F9D0C2
:101CF000012503F01F030C689D400029F2D08A687B
:101D00002A4002D030464B6898473CB123682146B0
:101D10001C46F2E7034EE7E7034EE5E72346F6E706
:101D200040690000246900000869000038B5456872
:101D3000A868C0B104F004F90146A0B9A86800F091
:101D400005FE044688B902460949A86804F0E2F88D
:101D500022460121DB20FFF703FA2246012140F24F
:101D60000D10FFF7FDF9002038BD6FF00400FBE710
:101D7000D51C0000F0B545681646A8682A7C01F01D
:101D80001F0487B044EA4214002868D0B6F5001F4B
:101D900004D1214604F02EF9002051E00020B6F5D0
:101DA000800F01AA0190506039D1B3F1007F14BFB8
:101DB000052304238DF804300023CDE90423039385
:101DC000EB680DF1030723FA01F111F0010139D19C
:101DD000B6F1A07F36D104F01F037F2C4FEA5410D8
:101DE00003F120033ED8214A52F8202052F8233034
:101DF000DB0727D43A462146A86804F08EF816304F
:101E000018D002972146A86803AA03F0CAFF002849
:101E100016DB01222146A86804F09AF8BCE7B3F16A
:101E2000C06F05D0B3F1007F14BF01230223C1E7C7
:101E30000323BFE73946A86800F0CAFD0028E0DAAE
:101E400007B0F0BD3A462146A86804F066F80028BD
:101E5000D8D19DF80310A86800F0B0FDD2E76FF06C
:101E60008500EDE751F82330FFDE00BF74730000FA
:101E7000036803F01F027F2B02604FEA53129ABFE0
:101E8000024B53F822000020704700BFC0730000CF
:101E90002DE9F04F1546074640F2FF19DFF868A11B
:101EA000DFF868B185B000EB8101B94203D10020B1
:101EB00005B0BDE8F08F3A68C2F3C323082BC2F324
:101EC000080400F29E804C4508BF4FF0FF34B2F189
:101ED000D05F1AF803804FEA126310D2192B12D880
:101EE000DFE803F014226461292F6111111111112F
:101EF0001111111111111111111167717477382B12
:101F00006AD04E2B52D06FF08500D1E7C5F8044659
:101F1000601C14D0012603A80394FFF7A9FF039BBC
:101F200006FA03F3436004E0C5F80C46621C06D0D1
:101F30000026324613E0631CC5F800465FD1043723
:101F4000B3E7661CC5F80446F9D0012603A803943C
:101F5000FFF78EFF0122039B02FA03F383603B68C5
:101F6000039403F40040002818BF002203A818BF00
:101F7000012601930092FFF77BFF039C019B00EB7E
:101F80008400D0F88040C3F3412C009A4FEA082324
:101F900043EA8C03134304EA0B04234343EA460356
:101FA000C0F88030CBE7C5F80846BFE7C5F8104653
:101FB000AEE7C5F86045621C3B68C0D0C3F3004380
:101FC000002BC2D0A6E7C5F86445F4E7C5F868451C
:101FD000F1E7C5F86C45EEE703A80394FFF748FF67
:101FE000039B00EB8300D0F8803023F0E04343F004
:101FF0008043C0F88030631CA1D0012699E70026F9
:10200000A4E76FF0150053E79D790000F0F0FCFFA6
:102010002DE9F04104460D46476804F035F888B1D3
:102020002021EFF311831A4681F31288BFF36F8FDB
:1020300060680068D0F83001D0B983F31188BFF32D
:102040006F8FEEE71E4B1B78002BE9D04FF0200876
:10205000642663681B68D3F83031FBB9012003F0B4
:1020600037FD013EF5D10021202004F083F8EFE791
:102070007B6A00201D706368796A1B68C3F83C178F
:102080000121C3F84017C3F83001D3F830011965B6
:1020900082F31188BFF36F8FBDE8F081EFF31183F6
:1020A0001A4688F31288BFF36F8F61680968D1F808
:1020B00030110029DCD183F31188BFF36F8FD2E791
:1020C000030D002070B40D4CD4E90065901B63EB48
:1020D0000501400940EAC1604101891945EBD0651D
:1020E000C4E90015002400250549C1E90023054B7A
:1020F000C3E9004570BC01F05FBE00BF780300205B
:10210000600300207003002008B500220121E420B4
:10211000FFF726F8164A0020D2F8183723F4403388
:10212000C2F8183700F0B6FD002820DB0120114965
:1021300000F03CFE00281ADB00F084FD0E4B20F07E
:102140001F00C3E900010D4B0022C3E900014FF05D
:10215000FF304FF0FF310A4BC3E90001094B0A4938
:10216000187A00F081FD67220020084B1A6008BD34
:1021700000200E5074020020780300205803002035
:10218000600300206C020020C520000074060020BF
:1021900008B500F057FD064AD2E90032C01A054BD7
:1021A00061EB0201C3E90001400940EAC16008BDDA
:1021B0007803002070030020F7B5224B0146224F20
:1021C000187A224BD7E90056D3E900239E4208BF74
:1021D000954211D1B1F1806F0ED24901012938BF6A
:1021E000012101224D1946F10006C7E9005603B04E
:1021F000BDE8F04000F064BE154BDFF858C0D3E9ED
:102200000043DCE9002CA41843EB0C0C4FF0200E2B
:1022100022466346C1FB0E23954276EB0301C7E9D4
:1022200000230DD2291B66EB0C04C82974F10004AD
:10223000B4BF01210021009100F00AFE03B0F0BDFF
:102240000021F8E76C0200206803002060030020F2
:10225000780300207003002003689A070CD50368F8
:10226000DB070DD50922074BC3F80C250F22C3F855
:10227000042501221A60FEE7034B0360EF3B036075
:10228000704700BF00801050F000FA5008B50123DD
:102290002D4AC2F80038A2F55722D2F800242B4A62
:1022A000D2F84023292A01D0332A02D1284AC2F881
:1022B0000C342848FFF7D0FF0830FFF7CDFF083077
:1022C000FFF7CAFF0830FFF7C7FF00F5F470FFF70C
:1022D000C3FF214AD2F88C3043F44063C2F88C30FB
:1022E0000022D30003F57F0303F54043D3F8001425
:1022F00001310AD0D3F8001439B1D3F800140132F7
:10230000D3F80434402A0B60EBD1144BD3F80026E9
:10231000D20713D40021124A0F48C2F81815D0F87A
:102320008C3043F44063C0F88C30C2F8A015A2F59D
:10233000A042D2F80034012BFBD008BD6FF001029F
:10234000C3F80026E6E700BF0000125000C0FF00FF
:102350000030055000F50E5000ED00E000E0105098
:1023600000E00450014B1B68184700BF78060020AE
:10237000014B07201B6818477806002010B5104C49
:102380002379D3B9012323710E4B0028206018BF95
:10239000184600F0FFF890B923680B48002B08BFDF
:1023A000184600F041F850B923680848002B08BFD0
:1023B0001846BDE8104000F085B96FF0770010BDF9
:1023C00078060020652300003B5B000071230000BD
:1023D00008B5074B1B6853B14FF48770FEF7B2FE88
:1023E00028B9BDE808404FF48770FEF789BE08BDE4
:1023F0007806002038B504230A4C42F21075C4F860
:102400000833012363610023C4F80831D4F808318C
:10241000D4F84C34DB0304D5012003F059FB013D13
:10242000F6D138BD00E01050064A13793BB90121BE
:1024300010601171044A1846C2F8403470476FF0BA
:10244000770070478006002000E0105010B51D4B4B
:102450001D4CD3F84C14D3F84C2411F4803F18D001
:1024600002F00302012A03D00AB1FFF7C3FF0022E2
:10247000144BC3F840240022C3F80821D3F80821E4
:1024800001221A61226872B9D3F80821002AFBD010
:1024900011E0D3F84824D107E9D5D3F850249207A6
:1024A000E3D422681AB10422C3F8042310BDD3F880
:1024B0000821002AFBD00022C3F80821D3F80831F4
:1024C000F4E700BF00E0105080060020F8B50125B9
:1024D000184C194ED4F80C3303F00C0303B9F8BDB3
:1024E000B3FA83F30027C3F11F039A0002F5807249
:1024F00092B202F1A04202F58712176005FA03F1C9
:10250000022B1268D8B2C4F8081310D1D4F84C3496
:10251000D4F84C349B070AD10423C4F84054C4F8BF
:1025200004332561D4F80C3303F00C03D6E7336889
:102530009847F7E700E0105080060020712238B578
:10254000114B0021C3F8082301225A60C3F800117F
:10255000D3F800110D49D1F84013292901D03329AE
:1025600000D1DA6042F21074074DD5F80C3413F440
:10257000803305D0012003F0ABFA013CF5D138BD22
:10258000034A5371FBE700BF00E0105000C0FF009A
:1025900088060020054B0246187918B91A600122F6
:1025A0001A7170476FF07700704700BF88060020EF
:1025B0000022174BC3F81021D3F81011C3F81821CB
:1025C000D3F81811C3F81421D3F81421114AD2F802
:1025D0004023292A01D0332A01D101229A60002206
:1025E000C3F80021D3F8002101221A600A4A1268B8
:1025F00052B9074BD3F80021002AFBD00022C3F8C0
:102600000021D3F8003170477122C3F804237047CA
:1026100000E0105000C0FF0088060020F8B5012639
:10262000194C1A4DD4F80C3303F0710303B9F8BDFB
:10263000B3FA83F30021C3F11F039A0002F58072FD
:1026400092B202F1A04202F58712116006FA03F776
:10265000042B1268D8B2C4F8087308D0062B10D027
:102660002B689847D4F80C3303F07103DEE702239C
:102670006B71C4F81411D4F814312023C4F8043356
:10268000EEE76971ECE700BF00E01050880600201B
:1026900038B580230A4C42F21075C4F80833012380
:1026A000A3620023C4F81C31D4F81C31D4F86C3474
:1026B000DB0304D5012003F00BFA013DF6D138BD50
:1026C00000E01050054B0246187918B91A60012233
:1026D0001A7170476FF07700704700BF90060020B6
:1026E00000220C4BC3F81C21D3F81C2101225A6292
:1026F000094A12681AB18022C3F804237047D3F83C
:102700001C21002AFBD00022C3F81C21D3F81C3165
:10271000704700BF00E0105090060020094BD3F82E
:10272000042312060DD5D3F81C2152B10022C3F8A0
:102730001C21D3F81C218022C3F80823024B1B68FC
:102740001847704700E0105090060020036803F01F
:102750001F027F2B02604FEA53129ABF024B53F8BD
:1027600022000020704700BF20740000034A430984
:10277000D35C00F01F001844C0B27047B17900006C
:10278000F0B58446002587B0DFF848E0124F01918C
:1027900002AE1EF8013B06AA02EBD30212F8144C5B
:1027A00003F00703DC4014F0010406D10135042DC9
:1027B000EFD10024204607B0F0BD97E80F0086E86F
:1027C0000F0056F82520136A4CF825301362002BB1
:1027D000ECD0EFE7C1790000E0720000F7B50446E5
:1027E0000846FFF7C3FF06B204EB4606B38A0D4660
:1027F000DB072BD5204603F0B1FA2946204603F02B
:102800001DFA58B1204603F02FFA0022276800B2C3
:1028100007EB8003C3F81025C3F81025294620468E
:1028200003F04BFA002101A8B1820195FFF78EFF5A
:10283000019B00EB8300D0F88020064B134043F04F
:102840000203C0F88030084603B0F0BD6FF01500F9
:10285000FAE700BFF0F0FCFF2DE9F043044685B035
:10286000084616461D46FFF781FF0F46804636B3E1
:10287000204603F0EEF918B9204603F0DFF928BB33
:102880000FFA88F904EB4909B9F8143013F01C0F5A
:1028900002D07378012B19D001238DF80F3000235B
:1028A0003846CDE90063721CB31C0DF10F0103F033
:1028B0006DF9B9F8143043F00303A9F81430002D72
:1028C00040D03946204603F0C4F920B96FF0150016
:1028D00005B0BDE8F0830022297823684FEA810C17
:1028E00003EB8103C3F81025C3F810250FFA88F213
:1028F00004EB4202938A23F4604323F02003938283
:102900006E78FEB12468A8786444D4F810550E4B54
:1029100036042B40C4F8103541F6F07306F4403607
:1029200003EA07130005D4F81055334300F4801070
:1029300003432B43C4F81035938A43EA413343F0F1
:10294000200393820020C3E70FE0ECFF70B590F8FE
:10295000B040054690F8B1604CBB8422214614304B
:1029600003F020FF2146134A2B6852F836608E424E
:1029700013D1002440F20D10C3F84441D3F8442190
:102980000D4A934208BFDB20FEF7BAFB0123204625
:1029900085F8B030C5F89C3070BDCAB2920002F51F
:1029A0008070442A04BF1C501A580131DFE76FF0D1
:1029B0007700F1E73074000000A00D5090F8B100EE
:1029C000024B03EB800003F09FB800BF7C020020A5
:1029D00010B5064B90F8B1000C4603EB800003F0F5
:1029E00079F80028A4BF2070002010BD7C020020D0
:1029F0002DE9F04F814659F8043B8DB0D3F81413FC
:102A000090F8B14000936C4BC9B241F4003180465C
:102A100053F83420009803F07AF9810305463BD53A
:102A20001022002108A803F0BDFE634B08A803EBA9
:102A3000C4035B6819460193FFF7A2FE042303EB6E
:102A4000C40303934FF0000B5C4B0DF1200A02937B
:102A5000029A594912F8013B0292039A02EBD302FF
:102A60008A5C03F0070322FA03F3DA071AD40BF1A6
:102A7000010BBBF1040F0AF1040AE9D14FF4003154
:102A80000022009803F043F9019908A8FFF778FEA7
:102A90000028D7D125F400350124002D75D10DB0C3
:102AA000BDE8F08F464B5B440493DAF80010002930
:102AB000DDD091FAA1F1B1FA81F1049B1C7841EAD1
:102AC00044142046FFF752FE08EB4000878AC808EE
:102AD000BB08059301231AF8002001F0070103FA4F
:102AE00001F122EA01020AF8002007A80794FFF783
:102AF0002DFE079A059B203250F82220C7F382064C
:102B00005B073746C2F3014223D54846D6B2214679
:102B10003A4603F0B3F807A80794FFF717FE079BA0
:102B2000203350F82330C3F301439E4207D10021E4
:102B3000204603F074F83146204603F070F807A8E9
:102B40000794FFF703FE0122079B02FA03F30362D7
:102B5000ABE7022A0DD10321204603F060F806F00E
:102B60000503012BEBD13A462146484603F086F88F
:102B7000E5E702212046059203F051F8032EF2D03A
:102B8000059A032ADBD1022EECE795FAA5F3B3FAF6
:102B900083F3009904FA03F225EA020503F5A27211
:102BA00051F8222008EB43034846B3F8A010C2F3C3
:102BB000014203F063F870E730740000C17900004F
:102BC000C17900000123034A03FA00F0936803432C
:102BD000936070476000002073B504460191EFF3E5
:102BE0001186202383F31288BFF36F8F0B4D019B57
:102BF0006A6801A81340019302F06CFF002807DB0C
:102C000001226B68824023EA02036B60207000207F
:102C100086F31188BFF36F8F02B070BD6000002093
:102C2000074B027AD3F8101521F001010A43C3F8CB
:102C300010250268C3F8A4264268C3F8AC26704782
:102C400000200E504FF0FF306FF0404130B5054C82
:102C5000D4E90023904271EB0305F9D31046C3F386
:102C6000130130BD40270E5030B50C25074B1C1802
:102C700094F8544005FB0433C3E90312187501238B
:102C8000034A8340C2F8243330BD00BF60000020F7
:102C900000200E50F0B53D4D85B02C78002C6FD142
:102CA0003B4A01AB07CA83E807003A491846D1F806
:102CB000102522F00202C1F81025FFF7B1FF07230B
:102CC000672202F001012144013BCCB24FEA5202DB
:102CD000F7D1052C57D119464FF0010C2B4E00248B
:102CE0006720CFB204E00CFA02F220EA02000134BD
:102CF00090FAA0F25FFA84FEBE45B2FA82F2F2D3F5
:102D00000131327505292A4482F8547006F10C0607
:102D1000E5D10121002420489A0801FA02F212F0BC
:102D2000670F18BF1C500433302BF5D1E420FEF799
:102D3000E7F9184B1949D3F8102503F5C07322F0B1
:102D40000202C3F8902340F6FF72C3F8A8210022C4
:102D50001A60A3F5807004338B420260F8D101241D
:102D60000C4B0F4A1C660F4B5D201B68B3FBF2F344
:102D700058430D4B2343984700202C7005B0F0BDFD
:102D80006FF07700FAE76FF08B00F7E76000002044
:102D9000F072000000200E5000210E50B0210E50A5
:102DA00040420F00780200201073000038B5254B18
:102DB0000C46D3F8102595073DD4D3F8102542F0E2
:102DC0000202C3F81025C0B1D3F8482712F001025F
:102DD00002BFD3F8481741F00101C3F84817194B57
:102DE000D3F84017D3F844174900F9D42AB9D3F8D7
:102DF000482722F00102C3F84827134B134A1B68E7
:102E00001049B3FBF2F303EB4313BBB1D1F84027F6
:102E1000D1F8445715F080450BD14FF0FF312046D3
:102E2000FFF7DAFE002803DB2078FFF7CBFE284609
:102E300038BD013BE9E76FF07700F9E76FF0730009
:102E4000F6E700BF00200E507802002040420F003D
:102E500070B51D461446184A9DF81060131893F873
:102E6000543000B20C3302EBC30142F833404D60E2
:102E7000C5F31301AEB10201104E02F1A04202F5FA
:102E800062228000C2F820450644C2F82415336847
:102E900033B1FFF7D7FEA042A94101D2002333602E
:102EA00070BD030103F1A04303F56223C3F820457D
:102EB000C3F82415F4E700BF6000002000210E5085
:102EC000F0B50E4D2B1893F8543000010C3355F823
:102ED000334005EBC3077E68641800F1A04021F081
:102EE000004146F1000641EAC27100F5622045F852
:102EF00033407E60C0F82815F0BD00BF60000020A0
:102F0000F7B5284B284CD3F82C6304F188070EB989
:102F100003B0F0BD96FAA6F00123B0FA80F083402A
:102F2000DA43224926EA0306231893F85450830013
:102F300019440C2303FB0543DB6873B3D7E8EF3F69
:102F400003EA020CC7E8EECFBEF1000FF6D1C34092
:102F5000DB0719D5020102F1A04202F56222D2F884
:102F60002435D2F82025D1F800C0BCF1000FCED016
:102F70004FF0000CC1F800C00C2101FB0545296988
:102F80000091E9688847C2E705F10C0304EBC30C24
:102F900054F83320DCF80430E5E70A68002AB6D09C
:102FA0000B60B4E700200E506000002000210E509E
:102FB000044B40EA0120C3F80005D3F80024D207EF
:102FC000FBD5704700E0045038B5EFF3118520239E
:102FD00083F31288BFF36F8F064B9C6803F03EF8B3
:102FE00085F31188BFF36F8F2046BDE83840FEF7A8
:102FF0002BB800BF9806002038B50A4B53F8204084
:10300000013053F82050A54200D838BD606830B177
:10301000037EDB0701D402F0F6FF0834F3E72368F0
:103020009847FAE740740000012270B5294B03204D
:1030300086B01A70FFF7E0FF03F02FF90420FFF7C6
:10304000DBFF254C254D2646AE4204F1300410D35B
:1030500000F0D8FB204C224EAC4226D300F0E6FB19
:10306000FDF79AFB1F4A137B23F00103137306B08D
:1030700070BD54F80C3C059354F8103C049354F87C
:10308000143C039354F8183C029354F81C3C0193ED
:1030900054F8203C009354E90A2354E90C0100F051
:1030A000DFF954F8303C5E65CDE7D4E90A23B3F18B
:1030B000FF3F08BFB2F1FF3F05D052EA030120688D
:1030C00003D100F06FFC3034C6E73146183000F011
:1030D000E3FDF8E7030D002088720000887200000D
:1030E0006D61000010040020902370B5134E012282
:1030F00003FB0066002386B0CDE904230F22019371
:10310000CDE9023214234FF4A0720D4D0D4903FB9B
:103110000055044602FB00110B4B3046009500F0B1
:103120009FF9737B2C7423F004037373074B0134F2
:1031300003EBC423EE606B6006B070BD800300201B
:10314000980600200815002063600000080D00208C
:10315000BFB50020FFF750FF284B03F5006282F354
:10316000088883F30A880024E023254D254F85F83D
:103170002230EC772C766C76AC7685F820406B6A42
:1031800043F4E0236B6285F82340FDF7DBFEFEF796
:103190005BF84FF0FF33AB62EB62FEF7E3F9FEF74B
:1031A00079F8194800F09CF90120FFF725FF02206B
:1031B000164DFFF721FF00F06DFB154B15495D61C2
:1031C000154B4FF48062059301232846CDE9034354
:1031D000CDE901443B46009400F042F906466A7B83
:1031E000284622F004026A7302F08EFF2046FFF7A1
:1031F0007BFF3A4631462846FEF706F8080D0020C8
:1032000000ED00E029300000A004002010040020A0
:103210009806002048160020C57900002DE9F341EA
:10322000044617461E46EFF31188202383F31288C5
:10323000BFF36F8FC368334A7BB18068916888425F
:1032400019D057EA060318D188F31188BFF36F8F9E
:103250006FF00F0002B0BDE8F081916891F90E1097
:103260000133E36093682161A36088F31188BFF3A1
:103270006F8F0020EEE72169F2E791F90E1090F9C7
:103280000E306FF07E029942A8BF19469142B8BF36
:1032900011468B422DDD02F0EFFE054622464146E7
:1032A000CDE90076184800F0F3F90028E1D0EFF3FB
:1032B0001186202383F31288BFF36F8FA068D0B1EB
:1032C000236821699C420AD04BB193F90E30994290
:1032D000A8BF19466FF07E039942B8BF194602F0A5
:1032E000CBFE40B13146084800F066FA6FF00A00A4
:1032F000B0E70025D2E7002DF4D186F31188BFF3A3
:103300006F8FF3E798060020040D0020F8B583685E
:103310000546002B40D0234A926893423FD1C368B0
:10332000012B03D9013BC3600020F8BDEFF31187E7
:10333000202383F31288BFF36F8F0169806802F046
:103340009BFE2C68A54207D10023C5E9023387F311
:103350001188BFF36F8FE7E7002CF5D0D4E9003276
:10336000002613605A60637BC4E9006623F0020301
:103370006373A66004F1180002F063FFAC6094F977
:103380000E3020462B61C4F8886002F0BDFE39463D
:10339000054800F011FAC7E76FF01500C5E74FF0D8
:1033A000FF30C2E798060020040D002070B5EFF34F
:1033B0001186202383F31288BFF36F8F0468A04225
:1033C0001BD0D4B1D4E90032002513605A60637B6E
:1033D000C4E9005523F002036373A56004F11800EB
:1033E00002F02FFF2046C4F8885002F08DFE3146CF
:1033F000BDE87040064800F0DFB9D0E902329A42D9
:1034000018BF0133836086F31188BFF36F8F70BDDF
:10341000040D002013B5EFF31181202484F31288EA
:10342000BFF36F8F846844B1013C846081F31188DD
:10343000BFF36F8F002002B010BD52EA030406D123
:1034400081F31188BFF36F8F6FF00F00F3E7CDE9C1
:1034500000230246014800F01BF9ECE7040D0020B0
:103460002DE9F043984685B000F15803C0E91633C2
:10347000109B002503730423073222F007064373D1
:103480000F9B01EB06090F4683734946C0E90655B9
:103490008560C5730446FDF747FB0E9B073020F09F
:1034A0000700A067C4E91C7602930D9BA9EB0009F5
:1034B00001930C9B4A460093394643462046FDF74C
:1034C00087FE064B65659B6884F86C5003B1DB6F23
:1034D0004846E36705B0BDE8F08300BF98060020CA
:1034E00040F2011383810023C0E91C33C367014B01
:1034F00098607047980600206FF00A01094A9368A7
:10350000C3F888100849C3F884004B6843F080531F
:103510004B60002383F31188BFF36F8F9368D3F858
:10352000880070479806002000ED00E070B590F923
:103530000D20437B002A36DBD90634D11B4C63F0C7
:103540007F032246437352F8183FE169934207D143
:10355000C0E900210860E06111E09942F8D01B68E1
:10356000002BF5D090F90E5093F90E60B542F4D0CF
:10357000AE42F2DD5968C0E9003108605860A569C3
:10358000954200D005B9E568A3685A7BD20604D1FC
:10359000DA897F2A01D9AA6932B1AB4202D0284622
:1035A00000F0FAFA656170BD6361FCE798060020DF
:1035B00038B590F90D200146002A437B04DA03F068
:1035C0007F03437302F066FD0D4D2A4652F8184FF3
:1035D000AB68944200D004B9EC688B4207D05A7BA8
:1035E000D20604D1DA897F2A01D9A2692AB1A3427D
:1035F00002D0204600F0D0FA23466B6138BD00BFF0
:1036000098060020B3F1FF3F08BFB2F1FF3F03D09F
:103610000249183000F040BB704700BF6D610000E8
:1036200038B5194CA168E0690B68814214BF1A468D
:10363000002249680B605960A368E1692AB9134AFE
:10364000C3E900210B60E3610CE093F90E0092F9ED
:103650000E50A84214D0854212DD5168C3E9002102
:103660000B605360A569094B9D4200D005B9E56820
:10367000A3689D4202D0284600F08EFA656138BDED
:103680009142DCD01268D9E798060020B0060020ED
:10369000F8B5DDE906670D4B0C46986811460C4AF3
:1036A0001060EFF31182202282F31288BFF36F8F34
:1036B0009D68284602F000FD284632463B46FFF74B
:1036C000A1FF2046BDE8F840FFF716BF980600208E
:1036D000B8060020F8B50446EFF31187202383F3E2
:1036E0001288BFF36F8F437B49B203F01F02002A99
:1036F0000CBF0126002639D103F07F032D4D437303
:1037000002F0C8FC2A46437B817363F07F03437356
:1037100052F8183F934227D1E869C4E900200460B9
:10372000EC610FE09842F8D01B68002BF5D093F9BC
:103730000EC06145F6D08C45F4DD5968C4E900310E
:103740000C605C60AC69944200D004B9EC68AB6872
:103750009C4202D0204600F01FFA6C6187F311886A
:10376000BFF36F8F3046F8BDE869DEE79B071ED5D3
:10377000856802F08FFC81732B689D4209D16B68CC
:10378000C4E900531C606C60E8E76A689342F6D0B5
:103790001B68002BF3D093F90E209142F5D08A429A
:1037A000F3DD5A68C4E9003214605C60D6E78173C7
:1037B000D4E700BF9806002049B9EFF3058030B97F
:1037C000054B5A699B689A4201D0FFF795BE81F379
:1037D0001188BFF36F8F704798060020034648B9E1
:1037E000EFF3058232B9064A51699268914201D0DD
:1037F000FFF782BE83F31188BFF36F8F704700BF5E
:1038000098060020EFF31181202383F31288BFF381
:103810006F8F054B9A68D37B013BD37381F311887B
:10382000BFF36F8F704700BF9806002070B5EFF3AD
:103830001186202383F31288BFF36F8F144DAB687A
:10384000DA7B0132DA732A4652F8184F944200D0DC
:1038500004B9EC685A7BD20604D1DA897F2A01D9EF
:10386000A2692AB1A34202D0204600F095F923466E
:103870006B6186F31188BFF36F8FEFF31180202304
:1038800083F31288BFF36F8FBDE87040FFF7A6BFC8
:1038900098060020024B03F11802C3E90622704784
:1038A0009806002070B5EFF31186202383F3128869
:1038B000BFF36F8F1B4CA168E0690B68814214BF96
:1038C0001A46002249680B605960A368E1692AB969
:1038D000154AC3E900210B60E3610CE093F90E0087
:1038E00092F90E50A84218D0854216DD5168C3E9FE
:1038F00000210B605360A5690B4B9D4200D005B9B8
:10390000E568A3689D4202D0284600F045F965614C
:103910003046BDE87040FFF7EFBD8A42D8D012684C
:10392000D5E700BF98060020B0060020F8B550EAA1
:10393000010306460C4603D1FFF7B4FF0020F8BD93
:10394000EFF31187202383F31288BFF36F8F124D9B
:10395000124BA8681860FFF72BFEA8682346324672
:103960000F49183000F098F9AA680446537B38468E
:1039700043F004035373FFF7BFFDAB68D3E90A2399
:10398000B3F1004F08BF002AD8D102F082FC201A00
:1039900020EAE070D3E700BF98060020B8060020B8
:1039A0006D61000038B50446EFF31185202383F3E1
:1039B0001288BFF36F8F437B5B070FD5183002F07F
:1039C00040FC637B204623F004036373FFF7AEFDE6
:1039D0002946BDE838400448FFF7EEBE85F311885C
:1039E000BFF36F8F38BD00BF040D0020014B9868F6
:1039F000704700BF980600202DE9F8430446077B76
:103A0000EFF31185202383F31288BFF36F8F437B7D
:103A1000190705D585F31188BFF36F8FBDE8F883CB
:103A2000D90943F008025DD14273A36813B120465F
:103A300002F038FB04F1180002F003FCA66D04F15B
:103A40005808B04511D04FF0000976B1304602F069
:103A500029FB06F1180002F0F4FB3046C6F8889006
:103A6000FFF764FDA66DB045EFD1DFF8C080D8F850
:103A700008309C423ED1EFF30589B9F1000918BF27
:103A80004FF00109D8F81860294A964200D00EB9C3
:103A9000D8F80C60B34202D0304600F07DF82046E2
:103AA000C8F8146001F04AFEB9F1000F02D02148B5
:103AB000FFF716FDD8F808309C4231D1EFF30583AB
:103AC00073BB227BD20718D42846FFF715FDFB07EE
:103AD000A4D5002383F31188BFF36F8F0423184606
:103AE00002DF9BE703F07F0343F00803437302F018
:103AF000D1FA9AE74FF00009C4E785F31188BFF3C4
:103B00006F8F83F31188BFF36F8F0423184602DF92
:103B1000EFF31180202383F31288BFF36F8FD4E774
:103B200085F31188BFF36F8FD1E700BF980600209F
:103B3000B0060020A0040020427B034612F01F02C2
:103B400010D10A4988420DD00949086868B1D9895D
:103B50007F2909D893F90E20064B1B689A42B8BFFB
:103B600000207047002070471046704780030020F7
:103B700084020020BC0600200122044BC01A044B22
:103B8000C0105843034B1A54704700BF3005002043
:103B9000ABAAAAAA040D002070B50D4B0D4D1E7CDA
:103BA000FFF7CAFF06EB460305EBC30504462846AC
:103BB00002F047FB0022084B9A553CB1621E284692
:103BC000BDE870400549D31700F066B870BD00BF6E
:103BD0009806002030050020040D0020793B0000ED
:103BE00038B5EFF31185202383F31288BFF36F8F6D
:103BF0000F4B104A9C681068A04206D1FFF7CCFF1B
:103C000085F31188BFF36F8F38BD00211B7C1160D5
:103C1000094AD35C002BF3D02046FFF78DFF002824
:103C2000EED0637BDB0601D1FFF7FAFC2046E5E727
:103C300098060020B8060020040D0020024B1868EA
:103C4000984208BF0020704788020020034B1B6881
:103C50000BB9FEF79DBA0020704700BFC0060020D8
:103C600030B570B10B4B5B6898420AD0036843B122
:103C7000D3E90421D0E90445121941EB0501C3E958
:103C80000421D0E9003213605A600023C0E90033F8
:103C900030BD00BF88020020B3F1FF3F08BFB2F182
:103CA000FF3F2DE9F84F0446994615461F467AD046
:103CB0008160EFF31188202383F31288BFF36F8FA5
:103CC000B9F1000FDFF8E4A020DBFFF7BFFFDAE96E
:103CD0000027013549F100092D1849EBE07306462C
:103CE0004FF00109C4E90453AD1843EB0707FFF790
:103CF000A5FF0346DFF8B8E0DEF804A0EBB9C4E99D
:103D000000EACAF80040CEF8044028E06FF0010352
:103D1000DAE900125B1A4FF0FF3161EB02025B1B24
:103D200062EB0902012B72F10001BCBF01230022EA
:103D30004FF00009C0E90432D9E7D3E9041CD4E903
:103D400004208A4270EB0C0B24DA891A5A686CEB57
:103D50000000C3E90410C4E9003214605C60FFF79E
:103D60006DFF84420ED1134B1B685BB9B9F1000F94
:103D700002D1FFF76BFF0646304602F04BFA0021F6
:103D8000FEF71AFA88F31188BFF36F8F2846394679
:103D9000BDE8F88F521A60EB0C009A45C4E9042084
:103DA000ADD01B68AAE700252F46EFE748050020A5
:103DB00088020020C00600202DE9F047EFF31185AE
:103DC000202383F31288BFF36F8FDFF8A0900026C3
:103DD000C9F800000027FFF731FFDFF89480D9F819
:103DE0000030D8E900ECD91750B1D0E90442A34221
:103DF00071EB020A1BDAE41A62EB0102C0E9044229
:103E0000002413EB0E034CEB01012046C8E90031FE
:103E1000C9F8004002F0FEF92146FEF7CDF985F31E
:103E20001188BFF36F8FBDE8F047FFF7D9BE14EBE1
:103E30000E024CEBE473C0E90467C8E90023FFF706
:103E40000FFF85F31188BFF36F8F83689847EFF3F7
:103E50001185202383F31288BFF36F8FD9F80030C8
:103E60001B1BC9F80030FFF7E9FEB8E7C0060020C9
:103E70004805002010B5EFF31184202383F3128846
:103E8000BFF36F8FFFF7E2FE0346054AD2E9000158
:103E9000181841EBE37184F31188BFF36F8F10BDE5
:103EA00048050020F8B50D4E0D4C0E4D33680E48F8
:103EB000984767782B680C48984733680B489847B1
:103EC000022F08D12478E31F5C425C412B6807482D
:103ED00098472046F8BD0024F8E700BFB80200204C
:103EE000C4060020B40200202C0300201803002088
:103EF00070B51D4E1D4C33681D48984723785907EF
:103F000044BF23F00403237023789A0705D500F0FB
:103F1000C1F8237823F002032370164D14482B6850
:103F20009847336814489847637813B1134802F0F0
:103F3000E2F9002304211148637000F0CBF82B68EC
:103F40000D48984733680A4898472378DB0705D51A
:103F500002F0CEF9237823F0010323702B68044884
:103F6000BDE87040184700BFB8020020C40600201A
:103F700018030020B40200202C030020C8060020F3
:103F80002DE9F041FFF78EFF18B100242046BDE86F
:103F9000F081364F36483B689847044620B16FF0B1
:103FA0008F04FFF7A5FFF1E7324D2B78D80706D431
:103FB00002F09CF904462B7843F001032B702E4E3F
:103FC0002B483368984710B1002CE8D0E9E7002C63
:103FD000E7D13B682648984704460028DFD12B7874
:103FE000990706D400F04EF804462B7843F00203FC
:103FF0002B7033681E4898470028E5D1002CD0D19B
:104000003B681B4898470028C9D13368184895F881
:10401000008098470028C2D13B681848984704465A
:104020000028BCD16B7843B918F0010F05D01448B3
:1040300002F05FF9022304466B7033680F4898471B
:104040000028C1D1002CACD13B6809489847002812
:10405000A5D12B7806485A075CBF43F004032B70A8
:1040600033689847002890D099E700BFB802002035
:1040700018030020C4060020B40200202C030020F6
:10408000C80600200122024B002083F880257047DB
:10409000CC0600202DE9F0410A4C002526464FF0C1
:1040A000010803272046C4F820802777013502F055
:1040B00000F9202D04F12C04F4D1002386F880357A
:1040C000BDE8F081CC060020014B1B68184700BFFB
:1040D0009002002010B50A46044619B1024B002197
:1040E0001B68984710BD00BF9402002010B50D4C0E
:1040F000206802F0BCFA0C4A1368591C11605BB9C5
:104100000A4A5920D2F8003443F00703C2F80034B9
:10411000FCF7F6FF00F03AFC2068BDE8104002F022
:10412000ACBA00BF9C020020500C0020009005504B
:1041300038B5164D286802F09AFA154B1C68013CF8
:104140001C60ECB95920FCF7E9FF0722114BC3F8BA
:104150000823D3F8002422F00702C3F80024C3F890
:104160000041D3F80021C3F80441D3F804214FF0F3
:104170000072C3F80841D3F80831074BC3F888210F
:104180002868BDE8384002F078BA00BF9C020020E1
:10419000500C00200090055000E100E070B5104D7B
:1041A000104E2B68B3420DD0FFF7A0FF00F046FD84
:1041B00000F0D0FD40B102F0ABF80446FFF7B8FFC5
:1041C00044B92E60002405E000F0E0FA044618B17E
:1041D000FFF7AEFF204670BD02F0AAF9EDE700BF81
:1041E00098020020117365000022074BC3F81021CC
:1041F000C3F80C21C3F80021C3F80421C3F8082137
:10420000C3F81821704700BF0090045008B5FFF7AD
:10421000EBFF01230360104B0A6832B9D3F80C217D
:104220001AB9D3F80821002AF6D00B687BB90B4BDA
:1042300099420ED0A3F58473D3F80831002B0CBF3C
:104240004FF0FF306FF00200FFF7CEFF08BD0020F7
:10425000FAE74FF0FF30F7E7009004500891045060
:1042600038B505460C4691B10021012001F0C4FE8D
:1042700008480949C0F80055C0F80445FFF7C6FFD3
:1042800000210446084601F0B7FE204638BD6FF015
:104290000104FAE70090045000910450034B0449D4
:1042A000C3F800050348FFF7B1BF00BF00900450FA
:1042B000049104500490045010B5044600210120DC
:1042C00001F09AFE064B0749C3F800450648FFF780
:1042D0009DFF00210446084601F08EFE204610BDD9
:1042E00000900450089104500890045038B50C46D2
:1042F00059B1074D0749C5F800050748FFF786FF84
:1043000010B9D5F80835236038BD6FF00100FBE720
:1043100000900450109104500C9004504FF480739E
:104320002DE9F04796B0804603A80393002402F0DD
:1043300085F84FF010091E4E0DF12F0525F01F05D1
:1043400006F1200A012210211A4802F04CF82B191C
:1043500000935246102320211548CDF8049000F018
:1043600053FA0746F8B9D6E90C321034013342F15A
:104370000002302CC6E90C32E4D1B8F1000F04D0B1
:1043800022464146284602F021F82E46084C0FCE20
:104390000FC496E80F00203584E80F0095E80F0061
:1043A000103484E80F00384616B0BDE8F08700BF2F
:1043B0005005002070050020F0B5194D194FAB6B6A
:1043C0008DB0BB4229D0184E306802F050F940231E
:1043D00000221946284602F010F83021684602F003
:1043E0003AF8044678B96846FFF798FF044690B952
:1043F000302302461946684601F0FFFF01220023E0
:10440000C5E90C23AF63306802F037F9204601F0AC
:104410007FFF0DB0F0BD0E24F5E70020F9E700BFE7
:1044200050050020B4A5B4A5A00200202DE9F04F4E
:1044300099B00DF1570802F10F0982460E46144655
:1044400028F01F084FEA191922B100296FD0B2F5E0
:10445000005F6CD8374F384D386802F008F9D5E95D
:104460000C3213430BD15046FFF7A6FF834630B101
:10447000386802F002F9584619B0BDE8F08FD5E966
:104480000C2319EB020943F10003B9F5803F73F1E6
:10449000000314D3302102A801F0DDFFE8B902A81F
:1044A000FFF73CFF83460028E2D13023024619463D
:1044B00002A801F0A2FF00220023C5E90C234FF45B
:1044C000807302A8029301F0B9FFDFF870A03CB935
:1044D0002046FFF723FF8346CAE76FF0920BC7E73A
:1044E000102C4FF001024FF010015046A14628BF9A
:1044F0004FF0100901F077FF102352462021CDE93B
:1045000000830D4800F080F983460028B0D14A4668
:104510003046414602F039F9D5E90C32013342F117
:104520000002C5E90C32A4EB09044E44CFE76FF05A
:10453000860BA0E7A0020020500500207005002097
:104540002DE9F04F89B007460C4615461E4601F08E
:10455000CCFF78B97B690090C3F3013262F3051098
:104560008DF8000010F0300007D1B96889070FD02E
:104570006FF0860009B0BDE8F08F102808D1BDF8B3
:10458000023023F4F87343F4A873ADF8023053E01B
:10459000DBB2F82B02D06FF08500EBE700234FF081
:1045A000010B984619469C46D7F808E0DFF8CC91F5
:1045B00059F804AB1EEA0A0F08D00BFA0CF343EAD1
:1045C000080303F07F08012341EA0A010CF1010C02
:1045D000BCF1070FECD12BB19DF8033068F3470312
:1045E0008DF803303EEA0101D5D17B88FF2B35D011
:1045F00005D8802B34D0C02BCDD1022306E0B3F5F3
:10460000807F2FD0B3F5C07FC5D106239DF802105F
:1046100063F306118DF8021010B91EF0030FA7D135
:104620003B79022B2BD01FD8012BA1D1BDF8021052
:1046300063F3C811ADF80210012A39D0032A23D040
:10464000002A95D13B88B3F5105FA4D1182E03D072
:10465000202E01D0102E8BD1494F2DE00323D5E71A
:104660000123D3E70423D1E7032B02D0FF2B7FF4F0
:104670007FAF0221BDF8023061F3C81385E7BDF8B2
:10468000023043F4C07380E7412E0ED0202E05D0B7
:1046900006D8102E02D0182E7FF46AAF394F0BE0E7
:1046A000302EFBD0612E7FF463AF0135013EF5E77C
:1046B000302E7FF45DAF344F4FF000080F364FEAD5
:1046C0001619C14515D11F2E1CD81C22002101A886
:1046D00002F068F84FF0000A4FF0FF39D04518D1CA
:1046E0001F2E04D9BA20FFF7E7FD002835D100209E
:1046F00040E704EB080001F097FE00283AD008F1EB
:104700000108DEE74146204601F0D7FE0028DCD054
:1047100030E707EB0A124FEA0A130692BAF1000FCC
:104720001ED1009A0792BDF802202B44C2F3C11299
:1047300005920DF1040C03F1100E624618685968D9
:10474000083303C273459446F7D101A904EB0A006C
:10475000FFF786FD38B101F0C8FE6FF0920009E75F
:10476000CDF81C90DFE71C2101A801F051FE0AF1F1
:10477000010AB3E76FF08A00FCE600BF587400003E
:1047800000FF0720000000201094055010B590B0E5
:104790001C22002101A802F005F8F82001F044FED7
:1047A00008B3202200200DEB0201FFF73FFE044674
:1047B000F8B901A84FF4807101F075FE0E4B0F4956
:1047C00004930F4BCDE901130E4BF82106932023E0
:1047D0000DEB0302FFF7B4FE202104460DEB0100B0
:1047E00001F016FE05E0F92001F01EFE0028D8D1E8
:1047F0000446204610B010BD0010C0040024000183
:10480000014B4E80F800FF7F2DE9F3411D464FF428
:104810008073284C8046002017460E46019300F016
:1048200097F901AB23601123234A0121C4E9022334
:1048300004F11003636040F61103E36104F1200307
:1048400063612123089AE3621C4B46F000561A600C
:10485000099A45F0005542F00052C3E901122022A6
:10486000C4F81080A6612762A5626162DA60BFF3B6
:104870005F8F134A1460BFF35F8FBFF35F8F1361C5
:10488000BFF35F8FBFF35F8F03235363BFF35F8F6C
:10489000BFF35F8F9363BFF35F8F00F039F8431C62
:1048A0000446FAD0002000F07DF9204602B0BDE8B1
:1048B000F08100BF640C002004000020540C002094
:1048C0000000015038B5BFF35F8F104CE569BFF3AE
:1048D0005F8FBFF35F8F10236363BFF35F8F012090
:1048E00001F0E0FEBFF35F8F00236363BFF35F8FD0
:1048F000BFF35F8FE36BBFF35F8F5B06F8D425B127
:10490000BFF35F8FE561BFF35F8F38BD00000150DB
:1049100008B500F0A7F9104A20B9BFF35F8F906A7D
:10492000BFF35F8FBFF35F8FD36BBFF35F8F10F069
:10493000240F03F0230304D0FFF7C4FF6FF01F0020
:1049400008BD4FF0FF30002BFAD1BFF35F8F10632B
:10495000BFF35F8F1846F3E700000150BFF35F8F8E
:10496000094A1368BFF35F8F43F48071BFF35F8F11
:104970001160BFF35F8F23F48073BFF35F8F136009
:10498000BFF35F8F704700BF00100150BFF35F8F10
:104990001522064B5A62BFF35F8FBFF35F8F40F261
:1049A00037129A62BFF35F8F704700BF001001504B
:1049B00008B5FFF7D3FFBFF35F8F064A1368BFF355
:1049C0005F8F43F00103BFF35F8F1360BFF35F8F0F
:1049D00008BD00BF0010015070B50026C0E9006698
:1049E00005460C46FFF782FB01232B70FFF7B6FF4D
:1049F000BFF35F8F204BDB68BFF35F8F9B08013BEA
:104A0000ACB3226842B19A4205D9FFF791FB6FF02F
:104A10003F002E7070BD1346D4E90115E0680029EF
:104A200008BF4FF40071002808BFF1202469BFF3CC
:104A30005F8F114A9360BFF35F8FBFF35F8F156481
:104A4000BFF35F8FBFF35F8F5064BFF35F8FBFF320
:104A50005F8F5163BFF35F8F44F4802444F00104FF
:104A6000BFF35F8F1460BFF35F8F0020D2E74FF476
:104A70000071F1202546DAE70010015070B5037887
:104A80000D461446002B53D0BFF35F8F2D4A136B96
:104A9000BFF35F8F5908C3F34203052B4BD011F0CE
:104AA000060F02D14FF0FF3070BD4368D3B9BFF39A
:104AB0005F8F5368BFF35F8F032BF3D9224B2349DA
:104AC000BFF35F8FD2F88060BFF35F8FBFF35F8F5C
:104AD00043F8046BBFF35F8F8B42F1D1FFF768FFA0
:104AE00001234360BFF35F8F164B9A68BFF35F8F5C
:104AF0000132B4EB021F21D8BFF35F8F5A68BFF3B6
:104B00005F8FB4EB820FCDD884B1BFF35F8FD3F842
:104B10008020BFF35F8F291D05F8012B8D424FEADE
:104B2000122204F1FF34EFD0002CF5D10020BBE7B6
:104B30006FF02000B8E76FF05100B5E76FF03F006D
:104B4000B2E700BF001001501010015020100150BA
:104B500010B50446FFF7CAFA104B186801F087FD3C
:104B60000CB101232370BFF35F8F00220C4BDA617D
:104B7000BFF35F8FBFF35F8F4FF0FF321A63BFF356
:104B80005F8FBFF35F8F3422DA61BFF35F8F012243
:104B900003F59223C3F8042310BD00BFA402002034
:104BA0000000015010B5044638B9FFF7C1FABDE85E
:104BB0001040074B186801F060BD03783BB1FFF768
:104BC000B7FA034B186801F058FD0023237010BD9D
:104BD000A402002038B5154CD4F80051BDB1BFF384
:104BE0005F8F134B996ABFF35F8FBFF35F8F4FF0F7
:104BF000FF321A63BFF35F8F0023C4F80031D4F88B
:104C000000310C4B1868BDE8384001F049BDD4F8BC
:104C1000083153B100F072F801F0BAFCC4F8085141
:104C2000D4F808310121044BECE738BD0090055061
:104C300000000150AC020020A802002008B5074B7C
:104C4000186801F01CFD064B186801F018FDBDE85E
:104C50000840002259201146FCF782BAAC0200201D
:104C6000A802002038B5094B1C7864B1084B4FF0FE
:104C7000FF311D68284601F004FD4FF0FF31044666
:104C8000284601F00BFD204638BD00BF030D002073
:104C9000AC02002010B5064CE36C3BB9214651F83C
:104CA0004C3B986901F0B5FC0123E364014810BD59
:104CB000940C0020E00C002010B504460D4B186841
:104CC00001F0D5FC0C4B1A68236122605A686260BF
:104CD0009A68A26000229A66A264FFF707FA20464B
:104CE00001F047FC0028FAD1204601F047FC0028DB
:104CF000F5D110BDB0020020940C00200048704790
:104D0000940C002010B50446054A036912689A669F
:104D100001F072FC2046BDE8104001F041BC00BF2C
:104D2000747400000422094B10B50446C3F808232C
:104D3000FFF7E8FFFFF7FCF900232269936663643D
:104D4000034BBDE81040186801F097BC0090055077
:104D5000B002002010B5104B104C236003F5C04387
:104D600063602461FFF796FF98B1236D2046B3F589
:104D7000007FCCBF4FF480634FF40073A360FFF754
:104D80009BFF2046FFF7BEFF2046FFF7CBFF00202A
:104D900010BD0E20FCE700BF00200150940C002045
:104DA000244B0340B3F5806F2FD017DC402B2ED05F
:104DB00008DC102B2DD0202B2DD0181E18BF012061
:104DC00040007047B3F5807F27D0B3F5007F26D031
:104DD000802B08BF0B2018BF02207047B3F5804F0F
:104DE0001FD00ADCB3F5805F1DD0B3F5005F1CD087
:104DF000B3F5006F08BF0620EDE7B3F5004F16D0FE
:104E0000B3F5803F08BF0320E5E7112070470A2073
:104E100070470C2070470920704708207047072012
:104E200070471420704705207047042070470F20FA
:104E3000704700BFF0FF01002DE9F0434FF000097B
:104E400085B00546CDF8049000F10C07EFF311880A
:104E5000202383F31288BFF36F8F8368594003EADE
:104E600002060A4053400E4901AACDE9023901F079
:104E7000AFF9019C3CB12046C4F888900021246E13
:104E800001F051F9F6E7DDE9023223EA0203384680
:104E90004146AB60FEF790FC304605B0BDE8F083BC
:104EA0002F6700000FB407B504AA064B52F8041B85
:104EB0001868019200F008F803B05DF804EB04B044
:104EC000704700BF4C7300002DE9F04F43688DB070
:104ED00015468046029383789A0740F10D8100249D
:104EE0000E78002E00F00A81252E0BD04B1C039368
:104EF000013441463046029B98470028C0F2F680B4
:104F00000399EDE74E788B1C252E0393F0D00027F4
:104F1000B946BB46BBF11F0F38D8A6F12003102BB2
:104F20000AD8DFE803F02A0909300909092109092B
:104F30000928092D09091F00A6F13003092B33D9CF
:104F40002A2E37D11BF0400F55F8043B40F08280E9
:104F5000002BA7BF4BF0200B9946C3F100094BF083
:104F6000280B01E04BF0010B039B13F8016B03933B
:104F7000002ECFD130E04BF0020B4BF0040BF3E7E7
:104F80004BF0080BF0E74BF0100BEDE7BBF17F0F98
:104F900019D8A6F13003092BD2D81BF0400F03D04B
:104FA0000A2101FB0737DFE70A214BF0200B01FB49
:104FB0000939D9E72E2E06D11BF0400F40F09E8014
:104FC0004BF0400BD0E76C2E31D02BD8682E36D06A
:104FD0006A2E3CD04C2E3AD0002F46F02003B8BFAA
:104FE0002BF04002A3F16501BCBF00271FFA82FB32
:104FF000022901D9612B2FD107350727DFF8ACA291
:1050000025F0070508351BF0080F66D00AEB070BE3
:1050100056465E4563D1A4EB0A0AA9EB070906EBE5
:105020000A026FE1742E9FD07A2E9DD0D4E71BF038
:10503000800F18BF4BF4007B4BF0800B94E71BF400
:10504000807F18BF4BF4007B4BF4807B8CE74BF4E4
:10505000207B89E71F4687E7A6F16301122900F24A
:10506000F080DFE811F013004F00EE00EE00EE00DC
:10507000EE004F00EE00EE00EE00EE00EE00FE004F
:10508000E900EE00EE001B00EE00AF0055F8043B17
:1050900001270DF1180A8DF81830B4E755F804AB64
:1050A000834BBAF1000F08BF9A461BF0400F5046E1
:1050B00014BF39464FF0FF3101F07CFB0746A2E7F1
:1050C00041462020029B984700280FDB013EB74253
:1050D000F6D34C44B146A41B98E74E46F7E7414649
:1050E00016F8010B029B9847002892DA98F80230D4
:1050F00043F0040388F802304FF0FF3420460DB02F
:10510000BDE8F08F1BF0800F34D01BF4007F2CD053
:10511000073525F00705AA4669685AF8080B2BF0F1
:1051200010050029ADB237DA404245F4806561EBE5
:1051300041010DF1180B0A235A4601F047FBA0EB81
:105140000B0301936B0662D5019B25F001019F4281
:1051500089B240F3A180002E00F0998015F0100272
:1051600040F09C80BB460D4623E0AA465AF8040B4B
:10517000C117D4E7AA461BF4807F5AF8041B01D15B
:105180000846F5E71BF4007F19BF48B241F3C01190
:1051900008B241F3C031C2E750EA0103C9D11BF0A4
:1051A000400FC6D0002FC4D12BF01102BB4601978F
:1051B00095B240F2064115EA01021CBF0BF1010B4A
:1051C00000222CE02BF010020A231FFA82FB1BF0B6
:1051D000800C49D01BF4007115BF0735AA4625F095
:1051E00007055AF8040B1EBFAA4669685AF8080B4F
:1051F00050EA010545D12BF016051BF0400FADB26A
:1052000042D0002F40D12BF01702019795B215F034
:10521000100248D0019B002E42D103F1010B290757
:105220005AD4EB0706D5D9456FDDA9EB0B030199DD
:10523000CB465F185B4649E04BF0100B10237826F5
:10524000C5E7782B04D1C6F1780343F01003BEE71D
:1052500041462520029B98470028FFF647AF0234BD
:1052600047E608230026B2E7AA461BF480715AF8E5
:10527000040BBDD01BF400711ABFC0B2614680B2EE
:10528000B6E72BF0060295B20DF1180B54E725F0A6
:105290001105BB46ADB28CE70D46B8E73B460D465F
:1052A00003F1020BBBE7DDF804B082E7D17900001F
:1052B000CA790000CDE9043241462020029B98477C
:1052C0000028FFF613AF049B059A01339945F1DCE2
:1052D000A4EB0B019B46CC180AB341463020029B3D
:1052E00098470028FFF602AF8EB901342744391BD6
:1052F000019B994224DC1D4655BB019AA9EB0B0981
:10530000554622441446914433E0019F92E702340B
:1053100041463046029B98470028E7DAE6E640F22D
:1053200006410D42E2D015F0020F04F1010441469E
:1053300014BF2B20202015F4806F18BF2D20E9E723
:1053400041463020029B013498470028CFDACDE651
:1053500006AB013D4146585D029B98470028CBDAD9
:10536000C4E641462020029B013498470028FFF6FE
:10537000BDAEA9EB0403002BF3DCC1E570478368E5
:1053800000EBC101B3F5004F2CBF51F8220031F8FA
:105390001200704700EBC1018068B0F5004F2CBFD0
:1053A00041F8223021F812307047012208B5FFF78A
:1053B000E6FFD04008BD836800EBC101B3F5004FA4
:1053C00008D34B681AB143F001034B60704723F0D8
:1053D0000103FAE74B881AB143F001034B80704791
:1053E00023F00103FAE753000122FFF7D3BF8368DC
:1053F000481CB3F5004F34BF042308230833A0EB47
:10540000D300B0FA80F0C0F11F0070472DE9F041E1
:105410000D4686680446FFF7C8FFB6F5004F014603
:1054200001D3012832D02046FFF7E1FF04EB8001D1
:105430000E6996B90122E36882401343E3600222B9
:105440000D612B4629462046FFF7A4FF032229467B
:105450002046BDE8F041FFF79DBF022231462046BD
:10546000FFF78DFF0746034629462046FFF792FFC8
:105470000322334629462046FFF78CFF39462B4648
:105480002046FFF787FF02223146E1E7BDE8F081C1
:10549000B2F5802F2CBF082304232DE9F04100260C
:1054A000D21A8C18CD1D25F0070524F00704641BC3
:1054B000E408056021462846AC60EE60FFF797FFE0
:1054C000421D9200013002F107074FEAD70731462B
:1054D000A2F1100205F11000B8BF324601F062F9E6
:1054E0003A4631462846FFF77EFF3346324631467C
:1054F0002846FFF74FFFA4EB070828463146012254
:10550000FFF759FF42463946FFF76DFF3B463246EB
:1055100039462846FFF73EFF21462846FFF763FF3E
:105520004346324621462846FFF734FF21462846A7
:105530000122FFF740FF3946BDE8F041FFF766BFA3
:10554000002070470FB407B504A951F8040B01916E
:10555000FBF73AF903B05DF804EB04B07047038B36
:1055600013F0070305D10368002B0CBF00200320B4
:105570007047022B05D1408BB0FA80F040098000C3
:105580007047012B05D10368002B0CBF00200520BC
:1055900070470020704710B50C4600B111B96FF08C
:1055A000150010BD081D00F093F80028F9D1A3687C
:1055B000032BF6D9F3E72DE9F0410D4607461946CE
:1055C000281D90461E4600F094F8044638B1334634
:1055D000424629463846A446BDE8F0416047BDE84A
:1055E000F08110B4EFF31182202484F31288BFF30A
:1055F0006F8F416110BC0121FBF718B938B50C461B
:10560000054658B151B10B6843B14B6833B11C2208
:10561000002101F0C7F800202C6138BD6FF01500A3
:10562000FBE770B505460E46FFF7B5FF041E14DB19
:10563000EFF31182202383F31288BFF36F8F4FF6AD
:10564000FF716B8B2C8B8B4204F0070407D182F324
:105650001188BFF36F8F6FF00A04204670BD022CD3
:105660000CD101336B8382F31188BFF36F8F00235A
:10567000224631462846FFF79EFFEEE7062C14D857
:10568000DFE804F004131313041A0400002333604A
:105690006B683BB9C5E90066ACB902212846FBF747
:1056A000C5F8DAE71E606E60F6E782F31188BFF393
:1056B0006F8F6FF00404D0E782F31188BFF36F8F10
:1056C0006FF08504C9E782F31188BFF36F8FC4E7D9
:1056D000034658B1426802F00302012A03D0032AAC
:1056E00004D1026812B10020986070476FF0150075
:1056F00070474268034602F00302032A4FF000029B
:10570000816014BF104600685A607047704701F00E
:1057100049B801F03AB801460068FBF7D1B908B5BD
:10572000FBF7FEF9BDE80840FBF71EBA0021012097
:10573000FBF7C6B9036F83F30B8870476FF08500E2
:10574000704761B662B680F31188BFF36F8F704700
:1057500072B6002383F31188BFF36F8FBFF34F8FAF
:1057600030BF62B6BFF36F8F704772B6002383F30A
:105770001188BFF36F8FBFF34F8F20BF80F3118865
:10578000BFF36F8F62B6704740E800F313F4803FB9
:10579000D8B208BF6FF01500704730B50C684B6881
:1057A00085B00A894D890094013B24F01F042344ED
:1057B00002F01F0242EA451223F01F0369468DF8EA
:1057C00008200393FBF79CFD05B030BD08B5FBF73F
:1057D00079FF002008BD0C220369C9B201FB023326
:1057E000D86D00F00700704770B5C9B20369EFF3D8
:1057F0001185202484F31288BFF36F8F0C2606FBDB
:105800000134E46D14F0C00408D0A24206D085F340
:105810001188BFF36F8F4FF0FF3070BD012206FB80
:105820000133DA6585F31188BFF36F8F436803EBAB
:10583000C1035B6898470020EFE78022FFF7D4BFE1
:10584000F8B5069F0469C9B2EFF31186202585F3E8
:105850001288BFF36F8F0C2505FB0144E56D05F041
:10586000070CBCF1010F0CD1E76586F31188BFF37B
:105870006F8FC4E91523436853F8313098470020EF
:10588000F8BD05F0C005AF4286F31188BFF36F8FF6
:105890000CBF6FF077004FF0FF30F1E713B58024B5
:1058A0000094FFF7CDFF02B010BD10B41C240069B6
:1058B000CBB203FB0400002110BC1047022000F013
:1058C0003EB9022000F047B91046FDF76FBD00F069
:1058D00057B9FCF7BBBD436800205B68DB680B6011
:1058E0007047436802EA01005B6821EA02015860E0
:1058F000002099607047436800205B6859607047DA
:10590000436800205B689960704743685A68136871
:1059100021EA03000B40506000209360704710B5EF
:1059200003695868F8B1884219D19C680868A14297
:10593000586000D19860002008602AB15A680A6057
:105940009A68596002B99960002010E0814206D13E
:105950000868206098688142EDD19C60EBE70446BE
:1059600000680028F2D1002AE8D16FF0150010BDC0
:10597000FDF73EB830B543681360057A446804EB20
:10598000C504A34202D36FF0010030BD5C798C42A4
:1059900001D00833F0E70020F7E743681B68D3F82D
:1059A0003031704743681B68D3F88004C3F8800423
:1059B000704742681368D3F84C0150B10020926AD6
:1059C00012780A70C3F84C01D3F84C2101229A6274
:1059D00070474FF0FF30704713B501AA0446FFF738
:1059E000C9FF002805DB019B226819791868FCF7BC
:1059F0004FFA02B010BD38B5054600220121C6207D
:105A0000FBF7AEFBC620FBF77BFB6C680121E0686F
:105A1000FFF7E2FF6B6819686369C1F82435E28B10
:105A2000A38BA07E1343228C1343628C1343627EAC
:105A30009BB20243207E02431343C1F86C35696870
:105A40000B68D3F8002242F48022C3F80022082217
:105A5000C3F800254A6A0121C3F83C270022C3F895
:105A600040271965D3F830110029FBD0C3F8002571
:105A70006D680021E8682C68FFF7AEFF0823C4F8C2
:105A800000352A7A52B9AB6AC4F804370123C4F846
:105A90000837C4F84C21D4F84C21A362002038BD4B
:105AA00008B50220FBF7B6FF002008BD08B5FEF7D9
:105AB00067FA48B1002383F31188BFF36F8F042383
:105AC000184602DF6FF0040008BD034600201847A7
:105AD00000F095BA024610B5116891B1B1FA81F3A0
:105AE000C3F11F000123834021EA0303D2E8EF4FF3
:105AF0008C4204D1C2E8EC3FBCF1000FF6D1EBD1EF
:105B000010BD6FF00B00FBE710B50368CB40DB075F
:105B100010D401238B40026843EA0201D0E8EF4F22
:105B2000944204D1C0E8EC1FBCF1000FF6D1F2D1D1
:105B3000002010BD6FF01500FBE7FCF713BC012837
:105B400004D0022804D028B9FCF780BCFCF730BD93
:105B5000FCF7C6BD7047012804D0022804D028B93C
:105B600000F00EB800F00EB800F00EB8704708B59F
:105B7000FCF754FDFCF7AAFCBDE80840FCF7CEBDDD
:105B8000FCF738BCFCF7DABCFCF782BDF7B516466B
:105B9000DDE90847019001A81D46FCF7D7FD019BF0
:105BA000B6F1000C18BF4FF0010C00EB83000B1E88
:105BB00018BF0123002D43EA4C0314BF4FF00C0C17
:105BC0004FF0000C002C43EA0C0314BF4FF4706C30
:105BD0004FF0000C002F43EA0C0314BF4FF4403C7D
:105BE0004FF0000CD0F8802043EA0C0322EA0303B4
:105BF00001B109780EB13678760019430DB12D78D0
:105C0000AD0031430CB12478240229430FB13F7811
:105C10003F040C433C43C0F8804003B0F0BD1FB5C7
:105C20000DF10F03019300238DF80F101A4619464A
:105C30000093FFF7ABFF05B05DF804FB10B5044619
:105C40000846FCF793FD04EB4004A08AC0F3401023
:105C500010BD10B504460846FCF788FD04EB40046F
:105C6000A08AC0F3400010BD10B504460846FCF7FA
:105C70007DFD04EB4004A08A400B10BD70B50446C6
:105C800008461646FCF772FD083034F810300D4611
:105C9000DA0509D5C3F3432304EBC3023146284692
:105CA00054F8333052689847A3682BB131462846E0
:105CB000E268BDE87040184770BD10B5044608465C
:105CC000FCF754FD00B204EB4000838ADA051DD5D1
:105CD000C3F3432123F4F853838204F1120204F145
:105CE000960032F8023F13F4807F03D0C3F34323BE
:105CF00099420BD08242F4D1002204EBC1035A60D6
:105D000004F19C00BDE81040FFF7FEBE10BDF0B5E9
:105D10000446002001270546844695420AD1D4F85E
:105D2000443133B10023C4F84431D4F8443140F451
:105D30000030F0BDEBB29B0003F580769B0807FABC
:105D400003F3194208D054F806E0BEF1000F03D067
:105D500044F806C0A65918430135DEE738B50446B5
:105D60000D46FFF76BFFB0B12046FFF772FF90B909
:105D70002046FFF779FF012322688340C2F81833D9
:105D8000236800B203EB8003D3F8102522F003024E
:105D9000C3F8102538BD2846BDE838400021FFF77C
:105DA0003EBF2DE9F0431746044685B00846FCF790
:105DB000DDFCD7F800800E460546B8F1000F1FD075
:105DC0002046FFF746FF18B12046FFF737FF30BBEC
:105DD00000230DF10F02CDE900338DF80E308DF860
:105DE0000F30304643460DF10E01FFF7CFFE2AB2C9
:105DF00004EB4202938A23F0020343F001039382EF
:105E00007B68002B34D03146204693F80080D3F8CD
:105E10000490FFF71EFF28B1B9F1000F1FD06FF0FB
:105E2000150028E028B204EB4000838A23F4604385
:105E300023F020038382B9F1000F10D0B8F1030FD3
:105E4000EDD87B6821685B6893F800C001EB8C019A
:105E5000B8F1000F12D1C1F81085C1F810852AB22F
:105E600004EB4202938A23F01C0343EA88039382E3
:105E7000BB6853BB002005B0BDE8F083D1F8102506
:105E800022F00302C1F81025226802EB8C03D3F83C
:105E9000102522F4473222F47C72C3F8102541F613
:105EA000F072D3F8101502EA061242EA08420A43D9
:105EB000C3F8102504EB4C03A3F8A060838A43EADF
:105EC0004C3343F020038382C9E73146D3E900789D
:105ED0002046FFF7F2FE002FCCD063689F4206D029
:105EE00004F19C00FFF7F6FD002804DAC3E7A3687D
:105EF0009845F5D1002004EBC003C3E901782DB229
:105F000004EB4505AB8AC0B243EA402343F48073F7
:105F1000AB82AFE7C0E90312704770B5044615467F
