:10000000C0790020D51201004D8C0200C112010000
:10001000C1120100C1120100C1120100C112010090
:10002000000000000000000000000000A513010017
:10003000C1120100000000008D150100C112010075
:100040000916010009160100091601000916010030
:100050000916010009160100091601000916010020
:100060000916010009160100091601000916010010
:100070000916010009160100091601000916010000
:1002500009160100ABB302000916010009160100DE
:10026000091601000916010095B3020009160100E4
:1002700009160100091601000916010009160100FE
:1002800009160100091601000916010009160100EE
:1002900009160100091601000916010009160100DE
:1002A00009160100091601000916010009160100CE
:1002B00009160100091601000916010009160100BE
:1002C00009160100091601000916010009160100AE
:1002D000091601000916010009160100091601009E
:1002E000091601000916010009160100091601008E
:1002F000091601000916010009160100091601007E
:10030000091601000916010009160100091601006D
:10031000091601000916010009160100091601005D
:10032000091601000916010009160100091601004D
:10033000091601000916010009160100091601003D
:10034000091601000916010009160100091601002D
:10035000091601000916010009160100091601001D
:10036000091601000916010009160100091601000D
:1003700009160100091601000916010009160100FD
:1003800009160100091601000916010009160100ED
:1003900009160100091601000916010009160100DD
:1003A00009160100091601000916010009160100CD
:1003B00009160100091601000916010009160100BD
:1003C00009160100091601000916010009160100AD
:1003D00009160100C1B30200091601000916010047
:1003E000091601000916010009160100091601008D
:1003F000091601000916010009160100091601007D
:10040000091601000916010009160100091601006C
:10041000091601000916010009160100091601005C
:10042000091601000916010009160100091601004C
:10043000091601000916010009160100091601003C
:10044000091601000916010009160100091601002C
:10045000091601000916010009160100091601001C
:10046000091601000916010009160100091601000C
:1004700009160100091601000916010009160100FC
:1004800009160100091601000916010009160100EC
:1004900009160100091601000916010009160100DC
:1004A00009160100091601000916010009160100CC
:1004B00009160100091601000916010009160100BC
:0804C0000916010009160100F4
:1004C800064A074B02604FF428725B788280082244
:1004D800C371002382710372704700BFA5BD00007D
:1004E800180E0020064A074B02604FF49C725B7A94
:1004F80082800822C371FF2382710372704700BF94
:10050800E3B80000180E0020F8B5C41D0028054601
:1005180024F007040CBF0020204600F053FA071E01
:1005280002DA6FF00B00F8BD254EB18870880331F0
:10053800F3790330B27989B280B209F069F80028FA
:10054800EFDB3C4473783178002D04F1030419443F
:1005580024F0030400FB01F10CBF0020204600F04A
:10056800B5FB23180DB9002BDBDB717A184679B17E
:100578000333002D728923F003040CBF00202046AA
:1005880000F016FC0028CCDB20440DB90028C8DB9D
:10059800317A91B1737A83B1C41D002D24F0070418
:1005A8000CBF0020204602F0CDFF0028B9DB0DB1BA
:1005B8000020B8E72018B6D5B3E7002DF8D1B2E788
:1005C800180E00201FB572B6194BDC68ECB9BFF3E2
:1005D8004F8F1849184BCA6802F4E0621343CB6086
:1005E800BFF34F8F00BFFDE7B2FBF6F22B465D1C51
:1005F800002AF9D1DBB203F110056D4405F80C2C83
:100608000A2233B901A8A047E1E7024600230A26D7
:10061800EDE7013BDBB203F110050DEB0506B0FB7E
:10062800F2F502FB1500303006F80C0C2846E8E716
:10063800180E002000ED00E00400FA050B4B07B58A
:10064800DA886846ADF800209A885B88ADF80420FF
:10065800ADF8023001F096FC20B14FF480719C2077
:10066800FFF7B0FF03B05DF804FB00BF180E0020D1
:1006780010B5044628B308F08BFA10B94FF0FF30D4
:1006880010BD06F069FEB0F5FA7FF7D80E4B0022D0
:100698001A744FF48072DC601A801B225A809A8088
:1006A80040F20322DA804FF484721A811F225A81A1
:1006B800EFF3108472B600F0D7FB04B962B60020DD
:1006C800DEE76FF01500DBE7180E002010B50028F4
:1006D80040D1234C237C032B39D059B1002A3CD07C
:1006E8000239052936D8DFE801F0031227352A2D0B
:1006F800137863700020FFF707FF0028B7BF0123B6
:1007080002236FF00B002374A8BF237410BD137964
:100718001BB353790BB31188FB291ED853881B3B95
:100728009BB2E02B19D81A2917D913689288C4F8F4
:1007380002300C4B9A80DDE713786372DAE713888E
:100748006381D7E71388FF2B07D82372D2E74FF0CE
:10075800FF30DBE76FF02C00D8E76FF01500D5E726
:10076800180E00201A0E0020F8B50D46064620B3D4
:1007780019B311F0070420D1114F3B7C012B02D192
:100788006FF00B00F8BD032B02D14FF0FF30F9E7F3
:1007980000F0A2FB0028F8D02846FFF7B5FE002895
:1007A800EEDB0BF052FB3046214601F06DFCFFF703
:1007B80045FF032320463B74E4E76FF01500E1E7AB
:1007C800180E002010B5064C237C032B03D101F032
:1007D80071FC02F05BF909F01DF80020207410BDCF
:1007E800180E002008B501F01BFC03490120BDE8E4
:1007F800084000F0DFB800BFED04000008B501F0C4
:1008080023FC03490020BDE8084000F0D3B800BF2E
:10081800C9040000074B4FF0FF3141F6FF72C3E9EE
:10082800001205490022C1E900221F21C3E9021272
:10083800704700BF200500202C0E00203F280CD850
:1008480001380B4BC0F3421200F01F0053F822305E
:1008580023FA00F000F001007047FF2806D0403866
:10086800044BC0F3421200F01F00EFE7012070476D
:10087800200500202C0E0020074B0146006849681F
:100888001A4603C240F48C2200201A6041F010720C
:1008980042F4FF625A607047200500200246034B6D
:1008A8000068516803C30020704700BF2C0E002069
:1008B8000246034B0068516803C30020704700BF1D
:1008C800280500200138064BC0F3421200F01F0033
:1008D80003EB82039B6823FA00F000F001007047E5
:1008E800200500200A8870B595B2C67BC2F30E02B7
:1008F8000488023602F110033444C35AA4B23344C4
:100908002344013BB3FBF4F303FB0422438892B274
:100918009342044B8BBF2B40AB4313439BB20B80DA
:1009280070BD00BF0080FFFF4A1E062A08B50346B7
:10093800084604D84FF4D1711520FFF743FE094A41
:10094800914202D940F2A311F6E711B903B1196037
:1009580008BD2BB11B680022C3E901211A1D1A60CA
:100968000430F5E7FAFFFF7F10B5114B00EB4104A7
:100978001A786389B3FBF2F303FB0223013A1A44A2
:10098800B2F5706F0279807828BF00231A440B18DB
:10099800B2FBF0F100FB11215B1AB3FBF0F100FB95
:1009A800113313446FEA43436FEA5343638110BD25
:1009B800340E0020024B03EB80035960704700BFE0
:1009C800340E00202DE9F04F10F0070A85B00546D7
:1009D80004D040F26F111720FFF7F4FD524F044680
:1009E80007F10C06B146B04657F8043B8DF80BA04A
:1009F8003BB101A898479DF80A30082B01D9F52189
:100A0800E9E79DF80B1041BB05B131604F4506F190
:100A18000406E9D1002D6FD00022DFF810910227DB
:100A2800964689F8002058F827A0013FBAF1000F30
:100A380055D09AF804609AF802C0FF2E60D0394663
:100A48000023481C38D19C44BCF1FF0F3FD90AB1A0
:100A580089F800E04FF49A71BDE79DF80AC04B1D74
:100A680060465A0004EB4303022838BF0220441EA4
:100A780040422344BDF808406444CCF1000C0340D4
:100A8800013C04EA0C04B4F5803F02D340F205119E
:100A9800A1E775B19A1A0120326091701480D07064
:100AA8009DF80C00107101984FEA104C1081A2F8C3
:100AB80006C004FB0134A9E758F8210028B190F8D2
:100AC80004B0B34504BF80781B180139B9E7DBB21D
:100AD800E6458AF804303CBF5FFA8CFE01227B1C95
:100AE800A1D10AB189F800E0022640F6FF6A58F859
:100AF8002670B7B9013EFAD2601B05B0BDE8F08F89
:100B08000023E5E707EB410309F101093846A3F89B
:100B18000AA0FFF729FF5FFA89F1BB788B42F1D869
:100B2800E8E74FF00009F6E7380E0020340E002001
:100B380038B54FF6FF7302460380184B03EB810369
:100B48001869A8B184780379B3FBF4F104FB113375
:100B5800DBB2194600EB4105B5F90A50002D0EDB52
:100B68000131B1FBF4F504FB1511C9B28B42F1D187
:100B7800002038BD6381BDE8384008F025BD00EB92
:100B880041046389C3F30E031380C278002AF1D1AC
:100B98004FF4E5711720FFF715FD00BF340E002054
:100BA8001C4B03EB810370B51C69054644B3030471
:100BB80004D54FF4EC711720FFF704FD01462046D9
:100BC80008F0E5FCFF28014604D02046BDE8704047
:100BD80008F0FABCA078B5FBF0F300FB1353DBB2C6
:100BE80019460A1D04EB4206B6F90260002E09DB1D
:100BF8000131B1FBF0F200FB1211C9B28B42F0D106
:100C0800002070BD8B4201D00023E37004EB420248
:100C18005580DAE7340E0020094B03EB81030146C7
:100C280010B51C69204608F0B2FCFF28014604D024
:100C38002046BDE8104008F0C7BC002010BD00BF2A
:100C4800340E0020F8B5104B074603EB810301462C
:100C58001C69204608F09BFCFF28054611D0E28855
:100C6800238953EA024606D00146204608F0ACFC28
:100C780001463846B04720462946FFF775FE002052
:100C8800F8BD0520FCE700BF340E002038B50E4B38
:100C98000446827903EB8203186908B9052038BD38
:100CA8008278E1799142F9D24B1CE37100EB410360
:100CB8005D89B3F90A30002BF3DBA58008F084FCCA
:100CC80020600020EBE700BF340E002070B504461A
:100CD80010F003000E4603D04E211820FFF772FCD7
:100CE800FFF722FE054624B1034831460460FFF7AA
:100CF8001BFE284670BD00BF500E00202DE9F14FA5
:100D0800DFF870B01E4607460D46DBF80030904607
:100D18009DF828A09DF82C901BB960211820FFF79A
:100D280051FC52460921404608F0F9FA4A4684B275
:100D38000921304608F0F3FA81B2DBF800002144BB
:100D480008F0F9FB386018B9286001B0BDE8F08FE9
:100D580004445346414609222C60386808F0A6FA34
:100D68004B4609223146286801B0BDE8F04F08F02B
:100D78009DBA00BF500E002070B50E46044608F01C
:100D8800E1FA0546304608F0DDFA044B2A182146F8
:100D98001868BDE8704008F0F3BB00BF500E002093
:100DA800024B186808B108F0BABB7047500E002013
:100DB8001F2AF8B5044624D89200134D033250B1C7
:100DC800830703D068210920FFF7FCFB22F0030307
:100DD800297068602B8122F003022823012712045E
:100DE80003FB01F06B680025120CEEB2B14200D88B
:100DF800F8BD14B126181F705E6010440135283301
:100E0800F3E74FF0FF30F3E7540E0020154A0021B6
:100E180070B553681578C8B2854203D8BA2109203D
:100E2800FFF7D0FB1C461846013114F8286B0EB9A1
:100E38002346F0E70021997001241289996103F192
:100E480026055C709208D96103F11E04596824F8DC
:100E5800022FAC4243F8041F1144F8D10023436128
:100E6800037070BD540E0020124B01224FF0FF306A
:100E780000215A60C3F80803C3F80015C3F8042515
:100E88005A6040F6FE72C3F808034FF48060C3F856
:100E9800001503F560330849C3F80825C1F8880030
:100EA800BFF34F8FBFF36F8FC1F88801C3F80825D0
:100EB800704700BF00A0045000E100E00268002075
:100EC800014B1A60704700BF600E0020014B1B6881
:100ED800184700BF600E0020024B1868003818BF82
:100EE80001207047600E00200A4606488F2302F84A
:100EF800033BC368C1F803300369536043699360D7
:100F0800704700BF640E0020024B5A8C02435A847B
:100F18005B6A1847640E0020014B00215B6A184782
:100F2800640E002010B5154C05F0A2F905F084FCFC
:100F3800208DFFF7F1FF237E63B12246104904F1AB
:100F4800190052F80C3BE36063685360A368936030
:100F580009F0F0FD218DE06A02F028FBE36AB3F89E
:100F6800AA0002F0A5FA636B94F8301094F83100E7
:100F78009847002384F8383010BD00BF640E002065
:100F8800F10E0000034B93F838300BB1FFF7CABFDE
:100F9800704700BF640E002070B5184C0546E36C1E
:100FA800E66AE3634FF4817394F85000A4F8403084
:100FB800337D96F8191100EB83002DB9FF2803D172
:100FC80096F818318B4201D004F0BEFE337D73B120
:100FD800606D05F0BFF8616DE06B05F0B3FB15B906
:100FE800284605F005F9022384F8383070BDE06B17
:100FF80005F0B0F805F020FCF1E700BF640E002012
:1010080008B5094B93F83820022A04D040F237314A
:101018002720FFF7D7FADA7A42F00102DA72BDE840
:101028000840FFF77FBF00BF640E002070B50F4D6A
:10103800C900920000F00300AE6D01F0080102F053
:1010480004021B01347803F0100304F0F3040C438A
:10105800144304F0EC041C4304433470B5F86430C2
:1010680073700223A5F85C3070BD00BF640E0020C9
:101078007FB50022012300F180010392CDE904230A
:10108800074A92F85020029200F19002CDE900320E
:10109800D0E91E23022005F08FFA07B05DF804FBA3
:1010A800640E0020F7B5184C0646A56E0DB1636CAA
:1010B80023B940F68C012720FFF784FAB4F84830AA
:1010C80001F003012F466B702B7823F003030B43C9
:1010D80007F8033B3846B4F84820616C07F0C2FEB5
:1010E8000DF1020201A9E06EE563676408F00DFAEC
:1010F800019808F0F8F9B4F848103060E06E08F08C
:10110800D8F903B0F0BD00BF640E00202DE9F0410E
:101118002B4C06460F4694F83830012B5FFA83F8BB
:1011280004D040F6D5012720FFF74CFAE56A2B7961
:1011380033B1002104202971FFF7E6FE85F8058008
:101148002B7A052B0AD11F490220FFF7DDFE236EFB
:101158001B78991E4B424B4184F870301EB1BDE894
:10116800F041FFF7DFBE002FF9D0636F3046984794
:101178000028F4D094F83030002BF0D1638C9A0713
:1011880014D594F87030002BE9D02B7DE46A13B1A4
:101198002846FFF76DFF94F81921012096210AF0DF
:1011A8007CFE0020BDE8F041FFF7F6BE002BD6D14B
:1011B80094F87830002BE8D194F87930E3E700BF51
:1011C800640E0020C40E00202DE9F04FAD4C91B004
:1011D800E56A069005F1A803089109930023CDE973
:1011E8000D3394F83830022BDFB204D040F6761174
:1011F8002720FFF7E7F9E36B03221E785978134499
:1012080006F00309A4F840206364069BA4F848107C
:10121800002B00F0228119B1E06E08F033F9014685
:101228006A7A238D0132A16643F40073D2B2238512
:1012380082EA960818F0010846D12B7A23B3032BCB
:101248006A720AD8012B1FD00DA9D4F8800008F0C3
:10125800C2F890B940F29571CAE7053B012B02D953
:1012680040F27471C4E700F0C7FF10B940F29F71F3
:10127800BEE741460820FFF747FED5E91C32013397
:1012880042F10002C5E91C3200216B7929721BB1B9
:1012980010206971FFF738FE238D43F4006323851E
:1012A80000230793C6F3C0082B7DCBB1B4F84830B0
:1012B800B3B105F0DFFA0328FBD0022806D1FFF707
:1012C80031FE11B0BDE8F08F069BEAE740B9AB7A72
:1012D80003F00103984503D1012384F83130EEE788
:1012E800AA7A02F0010398456BD04FF0000AA36E6A
:1012F800002B40F0C480B4F84830B3FA83F35B099C
:1013080003EA161384F87930089B002B40F0BE805E
:10131800628C94F88530110704D594F87020002A5F
:1013280040F0B480012B00F2B180636F0120984730
:10133800002800F0AB8094F83060002E40F0A680C2
:10134800EB7C83B10123039605F180010420CDE9EC
:101358000463FB23029305F19003CDE90063D5E90B
:101368001C2305F029F995F81821962100200AF088
:1013780094FDD4F82CB094F850309BF814209BF8C6
:10138800181103EB8203FF2B03D19BF819318B4211
:1013980002D0FF2004F0D8FC0023D4F82C808DF86C
:1013A8003130ADF8323098F80830062B00F27E81E3
:1013B800DFE813F0C3005A015D015D017C016F0194
:1013C8006F01B4F84830EBB109F1FF31012919D8A0
:1013D800218D41F48051218595F806118B4206D95B
:1013E80094F8303043F0100384F830307DE7A16E74
:1013F80000293FF47AAF94F8841019B12020FFF740
:101408008BFD72E70132B9F1030FAA721BD009F103
:10141800FF32012A0CD8002B3FF467AFDDF818A083
:10142800D5E91E32013342F10002C5E91E325EE7FA
:10143800002B3FF45AAFD5E91E32013342F10002C6
:10144800C5E91E3251E7238D01200F4943F480532B
:1014580028712385FFF758FDEDE72B7D0BB105F0CB
:1014680023FA94F885304FF0000A0133CDF81CA018
:1014780084F88530238D43F48063238537E701237F
:101488003EE700BF640E0020A80E002004F0F0FE26
:10149800BAF1000F4CD101230893934E338D5A06AD
:1014A80006D44020FFF738FD338D43F040033385E1
:1014B800079B63B1B4F80720B4F805301343EA88F2
:1014C80013431EBFB4F809300133A4F80930069B52
:1014D800002B00F00381B6F805300133A6F805307B
:1014E800002386F88530814801F0D0FF0D9830B18F
:1014F80007F0F9FF00220272099901F0CFFB0E9B59
:1015080033B100221A720C2209990E9801F094FB4B
:10151800089B002B7FF4D3AE338D1B063FF5D1AE6D
:101528008020FFF7F9FC338D43F080033385C8E64C
:1015380049460EA8FFF7B6FDADE794F886300DF1E1
:1015480032010FA8A8F80C31ADF8323000F046FE91
:1015580038B10F9828B1052388F80830BDF8323023
:1015680015E0E36A93F85130002B77D10DF1310281
:101578000DF13201D4F8800007F00BFF00286DD080
:10158800BDF83230002B59D1012288F80820A06517
:10159800A4F8643003B1C31C236698F809200A92A2
:1015A80098F80A2098F808800B92B8F1020F09D031
:1015B800A8F10508B8F1010F7BD81B784FF0030894
:1015C800022B0DD0D4F8800007F03BFF002873D120
:1015D800B8F1030F04D000F01BFE80F00106F6B24C
:1015E80006F00103404F87F878309BF81330002B42
:1015F80064D0B7F86430002B60D033464046DDE94C
:101608000A12FFF713FD786D04F0A4FD0022D7E954
:10161800151004F0DDFE18B9D7E9150105F030F80A
:10162800012387F8873087F83830BAF1000F3FF484
:1016380034AF49460EA8FFF735FD2EE79DF8312057
:101648001AB903230280827086E7027802F0030247
:10165800012A08BF032788F8087098E70023ADF827
:101668003230012388F80830214800238FE7B8F882
:101678000C310DF131020DF13201D4F88000ADF8D2
:10168800323007F086FE00287FF468AF40F2A3519D
:10169800AEE50DF132010FA800F0A0FD08B10F98DA
:1016A80010B940F2B251A3E5062355E740F2BC5108
:1016B8009EE54FF0010885E7012691E7DDE90A126A
:1016C80033464046FFF7B2FCB86D04F043FD05F021
:1016D800B3F80021B86D0AF0ECFBA1E7B6F80730C3
:1016E8000133A6F80730FEE6640E0020900E0020B5
:1016F800DE0E0020064B10B593F8382002F0FF04E8
:1017080022B91C7601F04AFF204610BD0C24FBE7E5
:10171800640E0020094B0A4A10B51A60FFF7EAFF69
:1017280020B140F257112720FEF74CFF054C00F07E
:10173800D1FCE06400F0D2FC606510BD2C170020DD
:10174800B4180000640E002070B54C4C054694F89F
:10175800386006F0FF0016B909B102B123B940F2AA
:1017680063212720FEF72EFF63639DF81030616226
:1017780084F88430626784F8300084F8850084F83F
:10178800310084F887006084208584F8780084F824
:10179800790084F87000A0652066A4F86400E0630E
:1017A8006064A4F84800E56204F0FAFA05F044F829
:1017B80095F9200104F04EFBD5F8D060D5F8C800A3
:1017C80004F04EFB304604F0B7FC95F8240004F012
:1017D80051FB09F054FD95F8192100F17101012020
:1017E80004F0C6FB264B186804F0ACFCD5F8BC30F6
:1017F800C4F88030D5F8C030E366AB7B233B072BB9
:1018080039D9EB7B233B072B35D995F81811B5F857
:10181800E60008F0FEFE95F80431834228BF03462F
:1018280098B295F8E430984200D3C3B284F8863071
:10183800B5F8063184F850302B7D13B12846FFF7F0
:1018480017FC0120FFF7A8FBE36AD3F8C80104F0EE
:101858009DFC002323606360A360EB886380B5F878
:10186800AA30238095F824302371D5F81C310BB1A8
:1018780001221A6070BD1B23D8E700BF640E002048
:101888002C170020014B93F887007047640E002046
:10189800024B93F82900C0F3C0007047640E002083
:1018A800014B93F885007047640E00200910000072
:1018B800D1110000151100008D0F0000304BF0B55C
:1018C8005A8985B0B0F852700C46B0F8506097420B
:1018D8009D8928BF1746964228BF16461B2E2ED034
:1018E800B5F5A47F2DD040F6480301A99D4228BF35
:1018F8001D4607F0C0FFBDF80A30BB4228BF3B4673
:10190800E380BDF80C30AB4228BF2B462381BDF8DD
:101918000630B34228BF33466380BDF80830AB4277
:1019280028BF2B46A380FF232370E3881B3B9BB271
:10193800E02B08D940F209513920FEF743FE1B2F4E
:10194800CED105B0F0BD63881B3B9BB2E02B02D91A
:1019580040F20B51F0E72389A3F5A4739BB2B3F5CA
:10196800E06F02D940F20D51E6E7A388A3F5A4730E
:101978009BB2B3F5E06FE4D940F20F51DCE700BF4A
:10198800EC0E002010B501210020FFF745F90446B0
:1019980070B90121FFF704F9044620B940F2253156
:1019A8003920FEF70FFE034B93F9181009F067FF73
:1019B800204610BDEC0E0020014BD888704700BFB0
:1019C800EC0E0020044BD87CC0F3400080F00100EE
:1019D80000F00100704700BFEC0E002008B508F0C9
:1019E8008FFD00F0B5FD00F099FB09F07BF801F0E0
:1019F800BBFD03F0A5FE0022074B4FF01B11074863
:101A08001A60074BC3E901014FF4A4711A801A82C6
:101A1800D960DA7408BD00BF3017002003021B002C
:101A2800EC0E0020034B41F64C525A611B229A746B
:101A3800FFF7D4BFEC0E0020F7B5274D00F1A8073B
:101A480004466B69C0F8DC30244BC0F8C430384613
:101A580009F0A9FD064600F051FB8306A97C53BF97
:101A68001B23EB882A891A46A4F8F8301C4BA4F8E3
:101A7800FA201B6884F8E410A4F8E66023B194F90E
:101A88002011B4F8AA0098471649384608F0E6FA33
:101A98000123EA8804F1BC006979A4F8DA3003323A
:101AA8002B89019192B22979033300919BB204F1F9
:101AB800C001FFF723F9D4F8BC3023B940F2E24162
:101AC8003920FEF77FFDD4F8C03013B940F2E34166
:101AD800F6E703B0F0BD00BFEC0E002000093D00A2
:101AE80034170020FA0E0020024B1B6803B1184778
:101AF8000C20704730170020034BDA8802801B79CE
:101B080083700020704700BFEC0E002037B5837843
:101B180005461A2B08D8042B04D9144A22FA03F3D1
:101B2800DB0705D412241AE0292B01D03B2BF9D16D
:101B38002888B0F5706FF5D201A908F08EFD88B934
:101B4800019B93F8242102F0FF046AB9AA7883F86C
:101B58002521FF2283F8242101A807F05FFF2046F2
:101B680003B030BD0224FAE70C24F8E7200038045B
:101B78000188A1F11B039BB2E02B0CD8428844F2E8
:101B88004810A2F5A4739BB2834204D8034B0020EB
:101B980059819A8170471220704700BFEC0E0020CF
:101BA80038B50278447802F0010302F0020254EAE0
:101BB800030101D1112038BDBAB98578002DF9D0BB
:101BC800002B18BF002400E01D46204607F046FE03
:101BD8000028EFD0284607F041FE0028EAD0054B40
:101BE80000209C73DD731882E5E7002BECD00024FD
:101BF8002546EAE7EC0E002013B5008801A908F095
:101C080045FD044620B9019890F836311BB13A24B5
:101C1800204602B010BD90F85C3003F0FF04002BA2
:101C2800F5D190F853309B0706D1FF2380F8363161
:101C380001A807F0F3FEEBE70249543008F07AFFF9
:101C4800E6E700BFDDB10000F7B5077805460C46AA
:101C5800EF2F0FD890F901204378002A0ADB827809
:101C6800900707D113F010001DD1990603F0030265
:101C780002D51AB1122442E0032AFBD01E07F9D478
:101C88002979EA78EE7942EA0122697942EA014241
:101C9800A97941EA06212E7A41EA06418A42E9D821
:101CA8001F2A0FD8E6E713F0600FE3D103F007020D
:101CB800052A05D003F00F010D22CA40D107D9D556
:101CC8001A07DDD56A7A013A062AD3D8AA7A032AEE
:101CD800D0D813F0040102D1023A012A03D8EA7AD3
:101CE800012AC7D811B9AA7C032AC3D82A7D48B1CA
:101CF800012ABFD12A7E012ABCD830B91124204636
:101D080003B0F0BD022AF5D1B4E7DB0712D46B7833
:101D18002A7D03F01803082B11D1022AEED10121E4
:101D28003846FEF779FF064678B109F05CFDB8B190
:101D38000C24E4E700F0A2F90028E8D1DEE7022A43
:101D4800EDD02B7F002BEAD0D8E701213846FEF7EB
:101D580027FF064640B3154B93F9181009F08FFD7D
:101D6800304609F07CFE29462070E874304609F0B8
:101D7800CCFDEB7E0446002BC1D00028BFD1024623
:101D8800B16A684607F05BFC2246B06A012107F099
:101D9800A1FCB16A6846042207F051FC224621469C
:101DA800B06A07F097FCAAE70724A8E7EC0E002022
:101DB80030B502798BB00346042A4FD84088B0F575
:101DC800804F4BD8264900248D5C1144ADF8004063
:101DD8004A798DF8084042F010028DF8244042EA12
:101DE80045028D7AC97B42EA850242EAC102694608
:101DF80002F01F028DF80020BDF80020ADF8092080
:101E08001A888DF80E00000A8DF80B20120A8DF83A
:101E18000D408DF80C208DF80F008DF810405A7B7E
:101E2800D3F807008DF811205A79059002A88DF88B
:101E380012209A798DF81320B3F80B209B7BADF80C
:101E480018208DF81A307F238DF81B304FF00113BE
:101E5800CDE90734FFF7F8FE0BB030BD1220FBE7E1
:101E680088E0020073B50646FFF78CFD044609F0CA
:101E780001FE33780546012B5FD1204609F032FD7B
:101E880000287AD0204609F0F5FD18B115B91220BE
:101E980002B070BD204609F0A6FC08B10C20F7E797
:101EA800204609F0DDFC06460028F7D1204602F05E
:101EB80021FC0028EBD0ED0142F210733146204698
:101EC800ADB25D4309F0C2FD204609F0CBFD0146E5
:101ED80058B92A46204601F071FE08B90020D7E714
:101EE80041F69C213920FEF76DFB31460DF10600C5
:101EF800FEF71EFE064608B90D20C9E7BDF8061014
:101F080008F0D3FB3146204609F0B8FD3046FFF70C
:101F180093FD2A463146204601F050FE024610B194
:101F280041F6B821DEE7164BDB69002BD6D006F563
:101F3800937106F1A8009847D0E7002BA7D1204657
:101F480009F0D0FCC8B1204609F04DFC0028C5D0E6
:101F5800204609F0F8FA0546204609F0F7FA014646
:101F680000289BD1002DB9D0B5F8AA00FEF76AFE6B
:101F78000028B3D041F6DA21B4E7422088E700BF51
:101F8800EC0E00200278034672B1427862B14288B2
:101F98001A2A09D982881A2A06D90068034A506081
:101FA80000209B881381704712207047EC0E002098
:101FB80002680020014B5A61704700BFEC0E0020F8
:101FC8000378A3F10A02112A9BBF024A00201220BB
:101FD80093747047EC0E002008B5052000F082F8D5
:101FE80003F06EFB014B024ADA6108BDEC0E0020DB
:101FF800C518000008B50122084B1A7002F06AFBE8
:1020080009F0E5FE08F07AFAFFF784FB002007F0F4
:10201800E3FABDE8084000F049BD00BF0C0F0020FE
:1020280010B5064C0649201D07F0C7FF04F108004B
:102038000449BDE8104007F0C0BF00BF0C0F0020E6
:10204800680500207005002010B5084C0849201DBF
:1020580007F0B3FF04F10800064907F0AEFF04F1EA
:102068000C000549BDE8104007F0A7BF0C0F002081
:10207800780500208005002088050020014B18788D
:10208800704700BF0C0F002010B5064C00F0EAFCAA
:10209800606807F08AFFFFF7C5FC00F07DFE0123AA
:1020A800237410BD0C0F0020014B187C704700BF33
:1020B8000C0F002010B5064CA06807F076FFE0680A
:1020C80007F073FFFFF78AFC0023237410BD00BFDD
:1020D8000C0F0020004870471D0F00200048704773
:1020E8001F100020C208044900F0070001238340A4
:1020F800885C03438B54704730050020014BD3E9BB
:102108000001704730050020034B1868C0F3002019
:10211800400040F0010070473005002008B505F088
:102128001BF90023074A32F82310814205D302EB3A
:1021380083029378044A137008BD01330C2BF2D143
:102148000023F7E79CE0020021110020006808B591
:10215800B0F8AA3080F86811A0F8693190F8183101
:10216800012B06D0022B04D04FF43F710620FEF756
:1021780029FA80F86B3190F81931012B01D0022B24
:10218800F2D180F86C3100F25F100249BDE80840D6
:1021980008F0D0BC4FA00000024B002283F8222098
:1021A8009A84704722110020044B93F82220012AB8
:1021B8001ABF036001200020704700BF22110020D1
:1021C800054B024693F8221001291BBF01209A846F
:1021D800002083F82200704722110020054B024698
:1021E80093F8220020B1136009B19B8C0B80012069
:1021F800704700BF22110020044B002293F82200F0
:102208009A8410B1012083F82220704722110020FF
:10221800034B93F82200B0FA80F04009704700BFE2
:102228002211002050B90A4A0120134603F8010B75
:102238000868C2F801008A889A807047012805D189
:10224800034B0A68D8719A608A889A81704700BFE0
:102258004811002050B90B4B187888B1D3F80120E9
:10226800B3F805300A6001208B807047012806D139
:10227800044BD87920B19A689B890A60F3E700205B
:10228800704700BF4811002010B9044B18787047F8
:10229800012806BF014BD87900207047481100205B
:1022A800F7B58A8800238DF80600ADF80420086881
:1022B8000B4A8DF807300146147802F5A872019D83
:1022C800D8B2844201D8082007E052F8087F0133C9
:1022D8005668AE4208BF8F42F2D103B0F0BD00BFCE
:1022E80058110020084B0146002230B55C7803F2F3
:1022F8000113D0B2844201D8082004E013F8015F2A
:1023080001328D42F5D130BD58110020F8B52D4C61
:1023180063782218013B92F80251DBB28342637062
:1023280030D01A010101961C8F1C2644274406F15F
:10233800100C56F804EB664547F804EBF9D18232E5
:1023480082312244214402F1100652F8047BB24241
:1023580041F8047BF9D1E118221891F8026182F85A
:10236800026106267343704303F5857300F5857093
:10237800E618E35827182350B388BB8091F83A3100
:1023880082F83A312846FFF7ADFF082818D123789C
:10239800013BDBB29D42237012D02B3305F12B0297
:1023A80004EBC30304EBC20293E8030082E80300D2
:1023B8002078FFF797FF08281CBF241884F80251DB
:1023C800F8BD00BF58110020F0B5254D89B095F82B
:1023D800984105F299116846224606F043FD2146C8
:1023E800684608F0ACF80446B8B300EB400102A810
:1023F800C9B2FEF76BFD631E95F8A1610124DBB23B
:1024080095F8981105E0721CB2FBF1F001FB10225F
:10241800D6B206F120020DEB020010F8202C002A9B
:10242800F1D103EB430100F8204C06EB46022031C2
:102438002A44694411F8187C82F8A27111F8177CB3
:1024480011F8161C82F8A37182F8A411013BAA198D
:10245800DBB282F89941FF2BD2D109B0F0BD00BFA1
:102468005811002070B5064688B00C46002A4ED098
:10247800294A92F8A131D01890F8991119B9FF2179
:102488002820FEF79FF803EB43010133114491F82C
:10249800A251E57091F8A35191F8A41125716171C9
:1024A800002180F8991192F89811B3FBF1F001FB23
:1024B800103382F8A13192F8C23123B9174902F5D5
:1024C800DD7008F034FB65790D220021684605F0BF
:1024D8003F0545F0400565710AF075F9E37804AAEF
:1024E80069468DF80F30304623798DF80D508DF8F8
:1024F8000E3004230AF0D1F89DF81F3023709DF8A0
:102508001E3063709DF81D30A37008B070BD0321A4
:102518006018FEF7DBFCD6E758110020D123000035
:10252800044B5A78824286BF1B1893F84A01002050
:10253800704700BF58110020044B5A78824286BF6A
:102548001B1893F842010020704700BF5811002063
:10255800064B00224FF461711A8083F8C32183F877
:10256800C421A3F8C61183F8C2217047581100206E
:102578002DE9F0478246894617469846FFF790FEB0
:1025880008280546064603D0FFF7ACFE082860D1A8
:10259800324C6378072B5ED8082D15D12678731C2A
:1025A800072E237003D96C212820FEF70BF806F1BB
:1025B8002B02D9F8000004EBC20344F83200B9F842
:1025C800042083F806A09A80657807F110026B1C36
:1025D800290163704B1C234412F8010DBA4203F819
:1025E800010FF9D1813108F11003214413F8012DAD
:1025F800984501F8012FF9D125441021404607F0EC
:10260800CEFF102185F84201384607F0C8FF85F84B
:1026180002616678002385F84A013146104885F83A
:102628003A3107F08CFF0128054607D831460D4896
:1026380007F085FF002818BF0135EDB284F89851DE
:102648000025284684F8A151FFF7BEFE2846BDE8BC
:10265800F0871220FBE70720F9E700BF5811002098
:102668009A120020A2120020064B10B558780138A3
:1026780040B2002800DA10BDC4B22046FFF746FE7B
:10268800601EF5E758110020014B83F8C30170471D
:1026980058110020014B93F8C301704758110020CE
:1026A800431E4AF2B7129BB293429DBF024BA3F856
:1026B800C60101200020704758110020014BB3F8D3
:1026C800C6017047581100200A4B30B55C78844227
:1026D8000ED9184490F802012B3003EBC004A579F9
:1026E8000D7053F8300010600120A388938030BD2E
:1026F8000020FCE7581100200246074810B590F862
:10270800C34124B1417821B1023003F03BF820469F
:1027180010BD0C46FBE700BF581100202DE9F74F0C
:102728002F4C9A46804689466378834256D92318A7
:1027380093F8425185F00105F9B193F84A31E3B9AC
:1027480045F002070135BAF1000F18D1FA070AD58A
:10275800062104EB0810524601FB0841823001F5BE
:102768008571FFF77FFEBB0734D504EB081052468E
:1027780049460230FFF776FE2CE02F46E3E794F84F
:10278800A1614FF0010B002DE0D0A31993F8991126
:10279800019399B90092DAB100F0CEFA019B06EBE9
:1027A8004601009A4FEA102C83F899B1214481F828
:1027B800A201000C81F8A3C181F8A401013694F8A4
:1027C8009831013DB6FBF3F103FB1166F6B2DAE787
:1027D80047F00407384603B0BDE8F08F0027F9E753
:1027E80058110020074B5A78824209D91A1892F8D2
:1027F80042212AB9062202FB003000F58570704795
:102808000020704758110020064B5A78824281BF39
:102818001B1893F83A01B0FA80F0400998BF0020DD
:10282800704700BF58110020F8B50E46074606212C
:102838001546304607F0B3FE044670B10C4B002233
:10284800587803F23913D1B2884202D801242046BD
:10285800F8BD013203F8015FF5E73146384607F065
:102868008AFE0828F3D0024B034483F83A51EDE777
:1028780058110020034B80F878101B680BB1408872
:1028880018477047381700200B2808B504D940F2BC
:1028980029112920FDF796FE014B33F8100008BDD9
:1028A800CCE00200036830B50024D3F8C40042F23B
:1028B8001075A3F84040B3F844404443B4FBF1F426
:1028C800A3F844404C1E05FB0242B2FBF1F2A3F808
:1028D8004220094AB2FBF1F20132A3F848209A8F4C
:1028E80005FB02445A6B5043B4FBF1F4B0FBF1F022
:1028F8009C63586330BD00BF005A62020346084615
:1029080071B13F2B0BD8074AD35C03F07F02914289
:1029180005D08CBF0120002000EAD31070470120A9
:10292800704700BFE4E00200FF230B7002234B70E6
:1029380083238B70014B1B78CB70704724130020C6
:102948002DE9F84FD0F804800C46D8F818603046C6
:1029580006F0B7FD054620B94FF4AA711020FDF71F
:1029680031FE0146304606F0BAFDB5F800B08246A1
:102978001FFA8BF717B94FF4AC71EFE7224B00F150
:1029880003091B68D3B998F8023098F8032023701C
:10299800637802F00F02A4F802B023F00F03134388
:1029A80023F0C00363709AF8003003F00303012B8F
:1029B8000FD0022B0DD04FF4BB71CFE73A464946F2
:1029C800B8F80200984705460028DCD12846BDE83B
:1029D800F88F6278304663F30512627006F085FD61
:1029E800054610B94FF4C071B8E7FB2F02D940F281
:1029F8008F11B3E73A464946201D06F033FA3046B0
:102A080006F00EFDE2E700BF3C17002038B5134C76
:102A180010220021201D09F0D6FE0125257404F19D
:102A280008031022002104F11400C4E9013309F05D
:102A3800CAFE84F8205004F11803094AC4E9053392
:102A480000236362A36284F82C30C4F82D30C4F8E4
:102A5800313084F835301360A36338BD2413002067
:102A68003C17002010B5084C2378FF2B04D040F207
:102A780099111020FDF7A6FD06F060F92070BDE859
:102A88001040FFF7C3BF00BF3D05002010B5034C41
:102A9800207806F06DF9FF23237010BD3D05002056
:102AA800014B187806F074B93D050020014B024A25
:102AB8001A60704740170020492900002DE9F341AA
:102AC800DFF86881054608F11407D8F80830D8F807
:102AD8001840227A012A22D1D8F8382052B1137A24
:102AE8001BB9BF211020FDF76DFDD8F83840C4B9D7
:102AF800002083E01A7A012AFAD01C464C4AEFF3E8
:102B0800108172B650680068506001B962B6A3427D
:102B180008BFC8F83840237A1BB9EE21E2E73A46E5
:102B2800EDE7267AF6B205232372731E0B2B6ED8B7
:102B3800DFE803F06A062235676D3E6D6D6D6D5BEB
:102B4800636813B94FF40371CCE7204629469847C8
:102B58000420EFF3108272B6237A052BD9B24FF016
:102B6800000359D12372D8F83810A14201D1C8F80E
:102B78003830B2BB62B634E0636813B940F215214D
:102B8800B0E72946204698470346ADF80400C0B28E
:102B9800C3F30723012B2FD0022BDAD11AE0636885
:102BA80013B940F21D219DE7204698470020D0E741
:102BB80063680BB9FE2195E786222A70012259889D
:102BC800AA706A7100225869A5F80310AA7106F064
:102BD80027FC0420D8F83830A34202D10023C8F8D3
:102BE800383000283FF471AF08E0124B29462046E0
:102BF8001B689847034668B9267298B102B0BDE8C9
:102C0800F0814FF415716DE740F257216AE740F201
:102C18005A2167E70220DDE711B940F27B2161E71D
:102C28001846A6E7002B7FF450AF61E72413002075
:102C38002813002040170020134610B5027A22B14D
:102C480040F202311020FDF7BDFC0A460146024859
:102C5800BDE8104007F048BF28130020044890F84A
:102C68002C301BB90349243007F05BBF704700BF05
:102C780024130020E1AA00000346064890F83C20EF
:102C88003AB190F8352022B9034900F82D3B07F0F6
:102C980048BF704724130020312900000A4610B5A8
:102CA800037A23B140F20A311020FDF78BFC01466C
:102CB80007230248BDE8104007F016BF381300206C
:102CC8001346027A0AB1037270470A460146014860
:102CD80007F00ABF281300201B234FF01B120383A1
:102CE8008382C260826283850262038639B94FF4A7
:102CF800A473034A4383C3820261C3854262704757
:102D080048014801014907F015BF00BF43AB000067
:102D18008B89A2F809001046A2F80B30CB89A2F8DB
:102D28000D300B8AA2F80F304B8A0249A2F81130F5
:102D380007F0FABE93AB0000094AD2E9000343400A
:102D480083EAB01181EA43214FEAF34311605360EB
:102D5800044B58434FEAF06000EB8000704700BF17
:102D680064130020BB79379E094AD2E90003434027
:102D780083EAB01181EA43214FEAF34311605360BB
:102D8800044B58434FEAF06000EB8000704700BFE7
:102D980040050020BB79379E10B50A4C0821094828
:102DA800FEF794F8D4E900321343F7D0064CFFF746
:102DB800DBFF2060FFF7D8FF236860601843F6D078
:102DC80010BD00BF4005002064130020174B184AAF
:102DD8009A60184A5A60184A1A60184A9A62184A39
:102DE800DA62184ADA60184A9A61184A1A63184A65
:102DF8001A62184ADA64184A9A64184A5A62184BCE
:102E0800184A9A60184A5A62184ADA62184A1A61C5
:102E1800184A5A61184A9A61184A1A63184A9A64F1
:102E2800184ADA64184A9A63704700BF44170020AA
:102E3800F9AE00001FAF000085AF000041B00000F0
:102E48008BB00000953100009DB0000009340000EF
:102E58009D32000061B1000079B10000E932000044
:102E6800441800200FAF000035B10000BBB00000CF
:102E78006BB00000DBB0000021320000FFB10000A1
:102E8800A7B1000099B100001FB10000044B054A2A
:102E98005A65054B054A1A65054A5A65704700BFC9
:102EA80044170020ADB200004418002097B200007B
:102EB80019B30000054B064A9A65064A1A66064B7E
:102EC800064A9A65064ADA65704700BF441700202B
:102ED8003BA20000EFA20000441800208BA10000D4
:102EE8006FA4000037B5044601A80D46FFF75CF94A
:102EF80020B940F262515120FDF764FB00212222E3
:102F0800019809F060FC019B194601F8035F023D36
:102F1800232D00F28980DFE805F02587128A8A25AB
:102F2800872B878A313D418787458A8A4E4E65655A
:102F380087878787878787878787876C77802168D0
:102F48000D20D1F8D6215A60D1F8DA219A6022688A
:102F5800D2F89420DA60FFF733F9002869D140F2FB
:102F68006951C8E7226892F8A02002201A71F2E796
:102F7800204600F00BFA0028EDD13DE01122062092
:102F88001A7159225A7100229A711E22DA7130225E
:102F98001A72E0E7226892F89A20E6E7084600F0FD
:102FA800E3F9E8E7226892F89B10197192F89A20E1
:102FB80003205A71CFE722680920B2F8F41019717A
:102FC800090A5971B2F8A2109971090AD971B2F8AF
:102FD800F0101972090A5972B2F8A0209A72120AEE
:102FE800DA72B8E7226892F83211197192F833212F
:102FF800DEE7114B1B6813B940F25B517BE72320D6
:10300800224698470420A6E70B4B1B68002BF3D0F9
:1030180022462420984705209DE7074B1B68002B74
:10302800EAD022462520F5E740F2565163E7012011
:1030380091E703B030BD00BF441900203F289ABF74
:10304800024B53F820000020704700BF44170020AF
:103058003F289ABF024B53F820000020704700BF5A
:1030680044180020F7B5056804464FF6FF77D5F8F1
:10307800BC600DF102010DF101023046ADF802709D
:1030880006F087F901A9304606F0A5F948B101987C
:1030980006F029FA2168A83100220272FFF7FEFD26
:1030A800E7E7044905F1280003B0BDE8F04007F060
:1030B8003BBD00BF8DAE0000F0B5044685B00D469F
:1030C800FF2600F8A56C10F8A63CF3B1174F3B7823
:1030D8001BB162211F20FDF775FA0C21381DFDF781
:1030E800F5FE3E70002304F8A53C8A232A4602F820
:1030F800033BD4F80930C5F80330D4F80D305360D9
:10310800D4F81130936005B0F0BD01A80C21FDF78B
:10311800DDFEA4F5F873039A1A6001AB03CB44F8FB
:10312800AE0C44F8AA1C04F8A66CDBE76C1300206C
:1031380010B5054C23782BB90C21201DFDF7C6FED0
:10314800FF23237010BD00BF6C130020024690F8C7
:10315800DE31BBB990F8DF3103F0FF010BB100207D
:103168007047094B18780028F9D01970D9680433CA
:10317800C2F8941003CBC2F8D601C2F8DA11FF23C3
:1031880082F8DE31012070476C130020026838B5E0
:10319800D37B04460D463BB1122B05D0103B0F2BB9
:1031A8008CBF0120082038BD92F8523013B9204650
:1031B80007F02EFED5F80B302268C2F8CE31D5F8CC
:1031C8000F30C2F8D2312368D5F81320C3F8902005
:1031D800B3F8AA20A3F88D22D5F80120C3F88F22CE
:1031E800D5F80520C3F893222368B5F809200025EF
:1031F800A3F89722236883F8A25183F8DE51206848
:10320800044900F5217007F08CFC23681522284634
:10321800DA73C8E7C1300000036810B5DA7B0446EA
:103228001F2A04D040F2AF211F20FDF7CBF900215F
:1032380093F8522083F8511092B1B3F8AA2003F5FD
:10324800D270C3F8AD1183F85210A3F8B111A3F8E6
:10325800AE210E4907F06EFC23680022DA7310BD18
:10326800B3F8AA1003F2931083F89C21A3F89D11D8
:10327800012183F8A02183F89F1183F8A121044933
:1032880083F8A32107F04DFCE6E700BF29B0000052
:1032980011B0000038B505682B6813F0010419D186
:1032A800D1F801200C4BD1F8051013400B4AC5F892
:1032B8006230C3F307630A4043F00803C5F8662089
:1032C80085F8653007F0A4FD2B68204643F001031C
:1032D8002B6038BD0120FCE72FC904F76FDB0080A5
:1032E800006810B5837B042B28D1D1F801304A1C23
:1032F800D1F80540C0F86230C3F30763C0F86640F0
:1033080043F0080380F86530002380F84A3083735F
:1033180090F8753103F0FF040BB1002010BDB0F830
:10332800AA3000F26D1044724381D1F8013004498B
:10333800C3605368036107F0F4FBEEE70120EDE793
:10334800F5B00000006890F875314BB9B0F8AA30B4
:1033580000F26D10034943811A23437207F0E1BB61
:10336800704700BFF5B0000010B50446FEF7C6FE72
:10337800044A054B024009200B40C4F80120C4F858
:10338800053010BD2FC904F76FDB008037B50C4638
:103398000568FEF7B3FE0A4B0A4A03400A4095F84F
:1033A800621000930B4001928DF800306B4603CBFE
:1033B800C4F801000920C4F8051003B030BD00BFEF
:1033C8002FC904F76FDB008038B5DB04154604D538
:1033D800037D13B10023436338BD446B0134446358
:1033E80007F0E8FE836B9C42F6D30023034943634E
:1033F8002846BDE8384007F09DBB00BF55B1000026
:1034080038B504680546A37B012B02D023689807CA
:1034180038D494F853309A0713D44A78D80784F8E4
:103428005D204A88A4F85E208A88A4F8602043F0CA
:10343800020284F853200FD5134904F1540007F011
:1034480079FB94F85330D90711D423689A0708D523
:1034580058214020FDF7B6F894F83631002BEBD10F
:10346800EFE743F002032846236007F0D1FCA37B73
:10347800012B4FF0000301D0002038BDA37384F85E
:103488004A30F9E70120F8E7DDB1000070B50568BA
:10349800044602F033F9054B0146E8721B681BB17C
:1034A8002046BDE87040184770BD00BF4C19002089
:1034B800024B1B6803B11847704700BF481900202A
:1034C800F0B51F4D00242B7814709BB1013B6D683B
:1034D800DBB21E1B012E0FDC05EBC40655F8347059
:1034E80076688E4208BF874227D0B84271EB06063D
:1034F80012D214700020F0BD1E197710C6F34706CB
:1035080055F837C005EBC70E8445DEF804708F41C7
:103518002CBF33463446DCE705EBC30455F833507B
:1035280064688C4208BF854206D0A84271EB040447
:1035380028BF01331370DDE71C4601201470DAE759
:103548008C13002010F0070208B503D0632148202F
:10355800FDF738F818B1034B197258601A70C80093
:1035680008BD00BF8C130020014B00221A70704761
:103578008C130020FF23084A0B700D234B70822305
:103588008B701368C1F803305368C1F8073093682B
:10359800C1F80B30704700BFA2130020162200218B
:1035A800014809F010B900BFA21300200B4B5A7D47
:1035B80092B14A0610D5B0F8AA2009491A80D0F865
:1035C80058225A60D0F85C229A60C28803F10C0035
:1035D8005A800222FFF774BB704700BFA213002075
:1035E8007D350000094B53F8203003F5224370B5B0
:1035F800B13316464FF47A720C46B3FBF2F53444F5
:1036080002F0D6FE2C44204470BD00BFECE102005D
:103618002DE9F04F8BB0044698460F46039290F878
:10362800199106F00EFD824694F82301FFF72CF954
:10363800824407F024FEE37B00F148061FFA8AFA69
:103648000293039B002B4AD1637B032B47D1029B38
:103658000C2B32D1B4F87432BB422ED1D4F8F831E5
:103668002046B4F8CC21C4F8E831D4F8C430C4F802
:10367800EC31B4F86A321344C4F8F03101F0EAFFCF
:10368800D4F87C2241F64B5194F82131C4F8C42077
:103698008A428CBF002303F00103D4F87812D4F8CF
:1036A8008022C4F8D41084F822310223B4F87612A8
:1036B800C4F8CC20A4F8D8106373E37BA17B282B33
:1036C80001D028290BD1B4F87432FB1A1A0406D495
:1036D800A1F1280320465942594101F0AFFBB4F843
:1036E800685204F50E73B4F806E07D1B94F819B11E
:1036F800A7EB0E0E04932DB20FFA8EFE002D0FDAF3
:103708007546D4E99423C4E998230122637B032BEB
:1037180000F26481DFE813F0060006015A0029016F
:103728004246F3E70121002006F082FF8146D4F8E3
:10373800D4005146484403F0C3FD5146C4F8F4018F
:10374800D4F8C40003F0BCFD07A9C4F8F80108A820
:1037580002F09EFD079B0093DDE90823D4E9980158
:1037680008F01CFC834604F1A80007F0FAFDD4F821
:10377800D420D4F86C3294F81901D51802F020FE40
:10378800D4F8F41100F52240203D4FF47A73B1309B
:1037980032466D1A3031AD1BB0FBF3F04D44B4F82E
:1037A800D830A5EB0B0503EB41012D1A94F819014C
:1037B800FFF718FFD4F86C32C4F8FC01EB1AB92BE8
:1037C8005DD840F2CA413020FCF7FCFED4F8D43072
:1037D8005146D4F8EC01184403F072FD5146C4F880
:1037E800F401D4F8C40003F06BFDC4F8F80104F147
:1037F800A80007F0B6FDD4F8D430D4F8EC511D4435
:10380800B4F8CC31002B40F08980B8F1000F00F0FB
:10381800858094F8190102F0D3FDD4F8F411D4F896
:10382800583200F522406D1A94F81921B130203D24
:103838001D44854B53F822204FF47A7302F2E73285
:10384800D4E9949AB2FBF3F2A5EB0905B0FBF3F0C7
:103858001544AD1B2D1AD4F8F021D4F8E83194F8AA
:10386800190102FB0313B4F8D8103246303301EBC8
:103878004301FFF7B7FE0123C4F8FC016373D4F8D2
:10388800C430D4F8F821723B9B1A9E1B0023864251
:1038980084F83832D4E9983228BF064604F1DC00AF
:1038A8005B19C4F8C86142F10002C4E9923207F01A
:1038B800B6F904233044A4F8687284F84132C4F895
:1038C8003C02D4E99223C4E99823B4F8B831DB1B4D
:1038D8001BB2002BD4BF00220122520084F84022E0
:1038E800029A0C2A7DD0B8F1000F7DD1637B002BA2
:1038F80000F09680D4F8C41004F50E70D4F8F831AE
:10390800C91A06F058FE80B2002800F08980149B7E
:1039180003B1188001200BB0BDE8F08FD4F8F41182
:103928006D1A98E7D4F8F801D4F8C430B4F8CCC1CB
:103938001B1AD4F8F011F444D4F8E8215D43D4F804
:10394800F431ACEB010C30330CF1FF3C02FB0133DA
:10395800B4F8D810324600FB0C3301EB430158464B
:10396800FFF740FEC4F8FC0189E7D4F8F8A1D4F8C1
:10397800C430B4F8CCC1A3EB0A035D4332B3BCF145
:10398800000F23D1D4E99623D4E99401904271EB36
:10399800030302D340F2115115E72B4B203A53F899
:1039A80029304FF47A79D4E99401CDE9040103F27E
:1039B800E73103F522430498B133121AB1FBF9F148
:1039C800B3FBF9F30A44D21A921B15440CEB0E010F
:1039D80032460AFB01F130314900C0E740F2295173
:1039E800F1E6B8F1000F1BD0B4F8E00110B3B4F859
:1039F800E21194F8E4214D1CA4F8E21101FB022223
:103A080090420DDD002B0BDD0023A4F8E25184F871
:103A18004032FFF791F900F00700013084F8E40123
:103A280004F50E7104F5047004F0F4FB20B940F2BB
:103A38007351C8E60146DCE7039B83F0010384F871
:103A48000832002067E700BFECE102002DE9F843E7
:103A58000E46044618B9D8213020FCF7B3FD0529D5
:103A680000F2A780DFE801F00376413DA52E08F0BB
:103A780039FBC4E94601204600F060FFD4F80C0188
:103A8800A43808F085FA204607F0F4FF054600BB85
:103A98000146204607F02BFF00F1AE06D4F80C01D2
:103AA800B04209D2301A0321192838BF192008F06A
:103AB800EBFA60B108F06EFAC4F80C61204607F022
:103AC800EBFF45B12046BDE8F84307F0E6BF012506
:103AD800F2E70025F2E7D4E94623C4E94023BDE82C
:103AE800F883BDE8F84302F0DFBB07F00BFF0423BF
:103AF8008146884684F8113108F048FA07220F46B3
:103B0800A9FB023102FB0811D4E940525B1941EBD1
:103B18000205D4F8E8203AB159EA080204D09842DC
:103B280077EB050228BF012684F81061D4E94826FE
:103B3800121A66EB070694F8301139B9012A76F1A2
:103B480000010BDA204600F001FF03E0012A76F1BC
:103B58000006F7DB002384F82831C0E7984277EBAA
:103B680005010FD259EA08080CD01B1A65EB0701AA
:103B78009A4276EB010005DB012B71F10000A4BF2E
:103B88001A460E460C49012304F1C000914284F8FC
:103B980029314FF0000384F80831B341B8BF0A4611
:103BA80004F5847104F0AEFB002898D140F2C3619B
:103BB80052E7F42150E700BF0040420F2DE9F843D7
:103BC80004460E46154690F8283103F0FF07002BEF
:103BD80040F0948000F1C00839467822404608F049
:103BE800F2FD22464649404608F0EEFAC4F8E8607D
:103BF800FF2384F8283166B1FFF7B6F800F0070014
:103C080032464049013086F8E40106F5047008F0B0
:103C1800DBFA40F202434FF00009A4F8103184F8AF
:103C2800089103F0A3FB00F14906204607F022FFA4
:103C38000146B6B2C0B306F004FA00F128012846DE
:103C480089B203F03DFB2844AE3DC4F80C0108F0EE
:103C58009DF93018A4F81E9041F10001C4E946010D
:103C6800012084F8EC0007F0AFFF2D1AC4F8F050DB
:103C78004FF0FF356FF000414046D4E94623C4E9D0
:103C88004851002504F58471C4E93E23C4E9402362
:103C980084F8295142F2107204F034FB38BB4FF417
:103CA800DF713020FCF78EFC2046DFF85C9007F0CF
:103CB8001EFEAE30C4F80C01B9F8000048B1E08B24
:103CC80038B1FFF751F8B9F80030B0FBF3F202FB56
:103CD8001300064408F05AF9361841F10001C4E906
:103CE8004661002DC4D0AD1941F10001C4E7294651
:103CF800204607F0D4FE3846BDE8F8830C27FAE7DB
:103D0800553A000085B30000B8130020F0B5002331
:103D180085B0CDE9003301238DF806306846FCF7FD
:103D2800B5FF70B10123104EB3700023CDE9023303
:103D380002A8FCF7ABFF044638B10023B37005B006
:103D4800F0BD009807F002FCE8E7029D6B7B002BB2
:103D5800EED005F50477384608F03DF9384608F006
:103D680046F96C73E4E700BFB8130020044B002247
:103D7800DA709A7042F210721A80FFF7C7BF00BF5C
:103D8800B8130020014BD870704700BFB81300204B
:103D980008B501F0B5FF044B5A6882422ABF9878EB
:103DA800002080F0010008BDB8130020F7B50446D4
:103DB80006297BD8DFE801F004251523282D740097
:103DC8003C4B9B7803F0FF025BB900920123B0F8EB
:103DD800BC11FFF71DFC30B140F2DF613020FCF769
:103DE800F1FB0423637302F02BF904F0FFF90023BD
:103DF800E288A4F86A32A4F8062284F8093203B0EB
:103E0800F0BD03234373FAE708F03DF8C4E99601CF
:103E1800F5E790F8190107F094FA6430D4F8F8310E
:103E28009528D4F8C450234F8CBF0020C0F19600C9
:103E3800C218954288BFED1AFB7894BF00252D1A49
:103E480023B9D4F8DC309D4228BF1D46D4F8C86198
:103E580004F1DC0006F0E3FE0644022008F0EAF86C
:103E68000221AD1B25EAE575854228BF054628468F
:103E780008F00AF910B12E4408F08CF80123C92281
:103E8800314604F1A80006F08BFFD4F8C8317860F9
:103E9800D4F8C400184403B0BDE8F04008F078B87E
:103EA800A83003B0BDE8F04007F05BBA40F2AD714E
:103EB80094E700BFB8130020014B1880704700BF7B
:103EC800B81300200346074A1068D3F84920C0F801
:103ED8000320B3F84D20A0F8072093F8481006F007
:103EE800F7BC00BFC013002070B504460E46134649
:103EF800807D6588324615F0040118BF04F157012A
:103F0800FEF70CFC4107054621D4C2070BD5012357
:103F1800A07D84F84830FEF765FC0368C4F8493092
:103F28008388A4F84D30AB0701D4012070BD094B3C
:103F380001211868D4F8573084F85610C0F80930B1
:103F4800B4F85B30A0F80D3006F0CBFCEDE70020AC
:103F5800ECE700BFC013002038B5C38C04460F4DF2
:103F68000133C3F30E03C3842B7C2BB102F066F933
:103F780001F060FC00232B7400232B7194F8693046
:103F88002BB101212046BDE8384007F0AABB637C6D
:103F980013B1E28C9A42F4D20021F3E7C013002057
:103FA80010B5074C2379012B05D1237C1BB102F0F6
:103FB80045F901F03FFCA069BDE81040FFF7CCBF10
:103FC800C013002070B5254C2379012B04D040F68E
:103FD8007A412D20FCF7F6FA98B90125237C1BB10C
:103FE80002F02CF901F026FC002D36D0A06907F06C
:103FF800C8FA68B301F0D0FFE369BDE870409B6878
:1040080018472168A26911F8095B02F1490392F87F
:104018004820E80906F075FA0028DED0002120685B
:1040280006F084FC0028D8D02379A069012B02D09F
:1040380040F65441CDE7237905F00F01E26903F119
:1040480080435269013B52F8233098470546C5E73B
:10405800A069BDE87040FFF77FBF70BDC0130020A6
:104068000346074A906903B909B9FFF775BF137981
:10407800D26903F180431269023B52F82330184792
:10408800C013002003292DE9F043054685B01746E3
:1040980007D14388980723D40024204605B0BDE8FB
:1040A800F083428890F86830D107DBB2F4D5002B52
:1040B800F2D14FF00108DFF8D49099F81060C6B13A
:1040C80006F063FA0828387016D002AA0DF1070125
:1040D800FEF7FAFA38B940F6D9612D20FCF772FAE2
:1040E8004FF00208E7E702A99DF8070007F0AFF8CC
:1040F80006463B78082B08D1D9F8001011F8030BB5
:10410800C0F3801007F0A3F80646D9F8001005F1AF
:10411800500395F84F2011F8030BC0F3801006F0F8
:10412800F0F9D9F80010044611F8030BC0F3801019
:1041380006F021FA8146FEF767FB40B1B9F1080F96
:104148001BD04846FEF7ECF980F00103D8B23A7864
:10415800082A14D01CB9AC7DA21A544254416A886A
:1041680053079AD4002897D176B9EC7C444518BFF8
:10417800002C0CBF012400248FE70020E7E780F023
:1041880001022240D4B2EAE7344686E7C013002091
:104198002DE9F04F85B00823052104460DF10702EB
:1041A8008DF80730FFF76EFF064620B90026304627
:1041B80005B0BDE8F08F794F396807F112037A7CB2
:1041C80011F8030BC0F3801006F09BF98046002815
:1041D800ECD13B6840F2E249A16918468D7D10F8A0
:1041E800032BC2F340122A401D468A75D3F80320D8
:1041F800C1F8AD208288A1F8B12015F81F1BA2696B
:10420800C1F3801182F8AC1002A9D3F81F00029004
:1042180028790871D3F80F00C2F8C800587D1D7DB1
:10422800000440EA0520DD7C2843C2F8D000B3F83A
:10423800190082F8228109FB00F0C2F8C4009D7DB4
:10424800C5EB451005EB800505EB85056D00A2F86B
:10425800D850B3F8170009FB00F0C2F8D400B3F83F
:104268001B00A2F8CC00B3F81D00A2F8CE0093F80A
:10427800243003F01F005B0982F8220082F8233102
:10428800A56994F912A005F1160006F07EFA40F22D
:104298000113A5F818314FF0FF0B85F81AB1414604
:1042A80005F1DC00FEF718FD514605F1A800FEF700
:1042B800E1FAA36984F8738004F17E01B3F8AA20B7
:1042C80084F891B0A4F874204FF6FF729DF80700A7
:1042D800A4F89220D3F8C420B2FBF9F2A4F88A20FB
:1042E800B3F8CC20A4F88C20B3F8CE20A4F88E2004
:1042F80093F8232184F89020627D62B394F84820D3
:10430800012A28D194F84E2002F0C002402A22D176
:10431800D4F84920C4F87E20B4F84D208A800828B3
:1043280093F8AC2003F1AD0504F1840184F87720FB
:1043380004F17802D3F8AD3027D0C4F88430AB88C4
:104348008B8004F17701FEF7BFF940B940F6D3310D
:104358002D20FCF737F90022C4F87E20DEE794F818
:10436800773043F0020384F8773004F16A000C498F
:1043780006F0D7FB0B4B0022A0691B683A71002B93
:104388003FF415AF2146984711E7A367AB889380A0
:104398000023C4F884308B80E7E700BFC0130020F7
:1043A80013B800005419002037B5044640880D465C
:1043B80010F0040003D12279962107F06EFD032D39
:1043C80004D0052D59D0012003B030BD08230DF1CC
:1043D8000702294620468DF80730FFF753FE0028CC
:1043E800F1D0237C2A4D03B39DF8070094F8B6302A
:1043F800DBB92378082804F1B90284F8B7302DD046
:1044080004F1B801FEF760F920B940F652712D2089
:10441800FCF7D8F894F8B83043F0020384F8B830C1
:104428001C4904F1AE0006F07CFB2B6804222046F0
:104438001A7006225A70FFF745FD616B94F8382010
:10444800286806F064FA032328682B7101F082FEBD
:104458000021286807F02DFD0020B5E728680346ED
:1044680013F8031BC1F3801184F8B810D0F80310B7
:10447800C4F8B9109B889380D2E7074B1B68002BC0
:10448800EAD02046984780F00100C0B29CE700BF00
:10449800C0130020FBB7000050190020F8B50446EF
:1044A8000F4619B300F12005284607F06AFBA0B9AA
:1044B80063881A072ED5284607F078FB0646284653
:1044C80007F05FFB301AC0B207F07EFB3E4A9368E4
:1044D80003442846936007F033FB284607F035FB72
:1044E80001F0C8FC2179252001F02EFC364E00236E
:1044F80094F856203068037043706388103B0D2B86
:104508005CD8DFE803F0575B530C5B385B5B5B5BA5
:104518005B5B5B382046BDE8F840FFF71DBD06230E
:104528004370202303702046FFF7CCFC638823F0F8
:1045380008039BB2152B05D094F83020E16A306847
:1045480006F0D6F9306801F005FE0021306807F062
:10455800B0FC022321790020337101F099FC054653
:1045680007B9F06063881B0704D507F02AFB0544E8
:10457800C4F8F450F8BD0C2321214370034603F816
:10458800091B52B1D4F857200121C0F80920B4F80A
:104598005B209A8006F0A5F9C5E7226DC0F80920CE
:1045A800B4F854209A8094F84F10F3E70623037068
:1045B8004370B8E7022303700623F9E740F2596114
:1045C8002D20FBF7FFFF00BFC01300204288102AF0
:1045D80010B504D10121BDE81040FFF75FBF0B4CB7
:1045E80096210279012007F058FC237C23B101F0C1
:1045F800FBF8402001F016FE206801F0ABFD00201A
:1046080001F0F6FD0123237110BD00BFC013002087
:10461800024B01219869FFF741BF00BFC01300207A
:1046280010B5124C237C1BB101F008FE01F002F911
:10463800A06906F0A6FF38B12379012B09D040F60E
:1046480077312D20FBF7BEFFA069BDE81040FFF7CA
:1046580083BC2379E26903F18043A069D268013BF6
:10466800BDE8104052F82330184700BFC01300209F
:10467800074810B5037903F0FF0433B91422214623
:10468800043008F0A0F8204610BD0C24FBE700BF5A
:10469800C013002010B50023094C2371FDF71AFD43
:1046A8002060FFF7E5FF20B14FF442712D20FBF7A2
:1046B80089FFE36913B940F20B31F7E710BD00BF7A
:1046C800C0130020014B024ADA617047C013002072
:1046D8009C490000034B044A1A60044B044A1A60C0
:1046E800704700BF5019002099410000541900205C
:1046F8009DB60000F8B5057D0446AF1EFFB2002D3B
:104708003AD0012F2DD800F1500190F84F0005F054
:1047180032FF0828064624D0FDF70EFF10BB023DE5
:1047280018BF0125012F84F84850A6758CBF0027B3
:1047380001276775FDF7C2FF054607F027FC002231
:10474800144B84F85620E5FB0301C4E91001114617
:104758002046FFF7C9FB70B940F2A3412D20FBF7B3
:1047680031FF0826022D09D104F149010020FDF787
:1047780071FD60B90020F8BD0826F5E704F149018C
:104788000120FDF767FD0028F4D00125CAE70025C0
:10479800C8E700BF40420F00F0B5444E85B004465C
:1047A800327902F0FF0312B90278FF2A04D140F6E9
:1047B800DD112D20FBF706FFB36080F869303C4B14
:1047C800684604F1200500933A4B01933A4B029353
:1047D800F3695B68039301F0B5FC01F0E1FA01F0BD
:1047E8002DFD01F027F8354801F03AFB344801F077
:1047F800A3FC284607F0A4F9284607F0A6F901F01B
:1048080039FB2179252001F09FFA94F9120001F073
:1048180021FB04F12C01A06A04F07AFF074604F199
:104828003401A06A04F09BFF0546DFB1237FCBB1BA
:10483800B4F92650ED43ED0F637D13B963885B0728
:1048480009D56FF00043D4E910129A4208BFB1F1BC
:10485800FF3F0DD19DB930680330FDF74DFF30742F
:1048680005B0F0BD002DE7D0657F002DE0D1E3E76E
:1048780007F08CFBD4E9102390429941EAD3012236
:1048880029462046FFF730FB50B1FDF717FF0546D4
:1048980007F07CFB0B4BE5FB0301C4E91001DAE7E9
:1048A800002DD8D040F61C2183E700BFC01300209C
:1048B80029460000CD3F000069400000D6BE898E21
:1048C8005555550040420F0073B50446FFF764FF85
:1048D80000212046FFF7E2FD236E0BB101221A608A
:1048E8006388DB0724D50023124EA569CDE9003380
:1048F800FF2373746846FCF7C9F9C8B9009CA54240
:10490800F8D005F1B40395F8B32004F1B40194F894
:10491800B30005F0F6FD0028ECD094F8AC30B4F8FC
:10492800B1207374D4F8AD30C6F81230024B9A80B7
:1049380002B070BDC0130020D2130020024B986152
:10494800DB691B68184700BFC013002043881B079A
:1049580010B504460FD583693C2209496A30427272
:10496800B3F8AA304381FF2380F827304FF6FF734E
:10497800038506F0D6F8FF2384F8693010BD00BF20
:1049880013B800005FB80000D545000065B8000006
:10499800B1430000D1480000A93F000019460000BB
:1049A8008C4900009049000098490000013802280D
:1049B80008B503D9C4212F20FBF704FE13290A4B9D
:1049C80005D811290CD8102907D0D221F3E71529C9
:1049D800FBD103EB4003D88801E033F8100008BD91
:1049E80003EB40039889FAE768E10200294A38B5E1
:1049F8000346948810681C43402B948004D10421FA
:104A0800BDE83840FFF7D2B9802B01D10521F7E77F
:104A180003F00304032C04D140F65F313120FBF787
:104A2800D1FDDD0706D50C6891602478062C0FD0DF
:104A38000B2C17D09C0706D509680978052911732E
:104A480019D00B2921D09B0644BF0823537338BDC6
:104A5800C47B1B2CEED100240025C0E91C45012491
:104A6800C474E7E7C47B112C01BF0024C47401247B
:104A780080F85240DEE7C17B1729E4D100240025E5
:104A88000121C0E91E450175DDE7C17B1029DAD196
:104A98000021F8E7E01300200C4A0346517B89B94E
:104AA80010683BB9B0F80C11B0F8FC20914209D855
:104AB800FFF76EB993881B0706D5007C073818BF27
:104AC800012070470020704701207047E013002044
:104AD80073B5044600680D46036813F0300F49D1DA
:104AE800B1F805101A2904D9B5F80730B3F5A47F31
:104AF80006D22978204602B0BDE8704006F0B1B968
:104B0800B5F801201A2AF4D9B5F80360B6F5A47FE0
:104B1800EFD3DC30009606F092F8174B9A8892078C
:104B28000DD51B7B142B0AD12268136843F01003A0
:104B38001360204606F06CF9002002B070BD2368AF
:104B48009A7B202AF0D093F82731002BECD12368E8
:104B580093F82631002BE7D123681A6803F1DC01AA
:104B6800B3F8AA0042F020021A6003F5A672FEF715
:104B7800CFF8DEE70120E0E7E01300202DE9F84355
:104B8800614D06462C6800287ED1AB881A0725D5CA
:104B980094F89E30FE2B04D140F2BE513120FBF731
:104BA80011FDFE2384F89E30E37B1D2B05D184F88C
:104BB8005100284606F036F9E673A37B232B06D16D
:104BC800E37B233B072B94BF2A232423A373237C53
:104BD800072B02BF0223AB7384F89E30AB88DB0738
:104BE80017D4AB885F0776D499077DD5287B012237
:104BF8002B680D2883F89F2073D011287DD00728B3
:104C08007DD0FEF725FA034600286BD140F2B1515A
:104C1800C4E7D5F80080A96898F80F30D1F800905B
:104C2800103B99F800700F2B09D8BB1EDBB2092B7B
:104C380067D840F2333222FA03F3D80761D50979ED
:104C48003846FDF75BFE20B939462F4806F009F9CA
:104C580039E0012F01D9162F21D198F80E0006F05E
:104C6800F0F840B198F80E30232B04D0242B07D14C
:104C78002A2388F80E303846FEF7E0F903461BE091
:104C8800162F14BF022620266B7B1B0704D5E37B57
:104C9800103B0F2B98BF08263046BDE8F883112F2C
:104CA80015D005D8072F14D00D2FE4D1174B05E0E8
:104CB800142FE0D1164B1B68002BC5D0AA684946B3
:104CC80011481279984700288BD00646DCE7114B2B
:104CD800F4E7114BF2E7227C062A04BF0122AA73EB
:104CE80082E70E4B08489847AB88DA06CCD5E37BB9
:104CF800092BC9D10A23E373C6E7094BF2E7094B2D
:104D0800F0E70826C0E700BFE013002047BD000019
:104D1800581900208BBD0000B54D000071BC000083
:104D2800BDBC0000E7BC00002DE9F041A0F10E0475
:104D38000B1E1646E4B208BF1F23172C0AD80125FC
:104D480040F25121A5400D4207D115F460051FD14D
:104D5800082C07D00020BDE8F0810021BDE8F04113
:104D680006F036BF1468A17B242906D119463046BF
:104D7800FDF7ECF984F8305105E02A29EAD1E37B04
:104D8800233B072BF3D80023A37384F84A30E1E7C9
:104D9800054A1468002CDDD01A46014623463046E1
:104DA800BDE8F041184700BF5C19002070B54D7888
:104DB8000446A5F10E03DBB2152B0CD8012140F2F5
:104DC800512201FA03F6164207D10268152B927B8D
:104DD8002AD0082B07D0002070BD02462846BDE81F
:104DE800704006F0F5BE242A01D02A2AF3D12046C5
:104DF80006F006F82368DA7B252AECD093F86320BE
:104E08001A21204622F0010283F86320226892F8D2
:104E1800633023F0080382F86330FDF797F92368BD
:104E2800002283F83021D6E72C2AD4D1024B1B6804
:104E3800002BD0D09847CEE760190020064B13B559
:104E480004461A68019001A805F01BFB06212046BC
:104E5800FEF7ACFF02B010BD6419002073B5484DD1
:104E6800002604462860AE806E73AE73FF2380F878
:104E78004C30B0F8BA31002B7CD090F89E30FE2B25
:104E880078D190F82431002B74D0037C063B012B99
:104E980070D990F825310221A0F84460012280F8E9
:104EA800A03006F0EEFE0221284684F8C261FEF723
:104EB80019F8B4F8BE112046B4F8DA300139B4F85C
:104EC800C02189B2B1FBF3F31344A4F8C031B4F89C
:104ED80040300B44A4F8403006F020FF10B1636B5B
:104EE8000B446363B4F8BA310026012B9CBF01332D
:104EF800A4F8BA3109B184F8C661E37B84F8C261C9
:104F0800093B012B0FD8E388B4F874229B1A1904C3
:104F180009D404F2762104F1160005F036FCE67394
:104F2800FF2384F84B30B4F8BE2104F1A8012046D1
:104F380005F072FCE37B134A103B13490F2B8CBF1F
:104F4800002301230093114B2868FCF7FDFB2C6814
:104F5800237BDA0703D500210948FDF7F7F8237BFF
:104F68009B0703D504F24310FDF7CCFE00232373FF
:104F780002B070BD94F89E10FE299AD0004896E7BA
:104F8800E0130020A14A0000F5490000994F0000F5
:104F98002DE9F047B24F0E468046B9883C688D052A
:104FA800204655BFB4F8402000230132A4F8403011
:104FB8004CBF84F8C631A4F8402006F0AFFE38B1E3
:104FC8000B4604F59D7204F1A8012046FEF7FCF992
:104FD800BB8803F4C06323B1A37C002B45D0032B0B
:104FE80049D0A27CBB88012A03D1180544BF0222FC
:104FF800A274B8F1000F40F08F80590657BFB4F87B
:10500800E0214246013292B2A4F8E02103F00A02FC
:105018000A2A0CD13A7B022A09D123F00803304628
:10502800BB80FFF7ABFD30430823C6B2BB803046D8
:10503800FFF7A4FD3D68304395F89E30C6B2FE2BBD
:105048003BD1D6BB2B7C063B012B36D995F82431B6
:10505800ABB195F8253101220221A5F8446085F805
:10506800A030284606F00DFE27E00121A174204655
:10507800FEF79CFEB5E702230121A374F7E795F834
:105088000FA0AAF10F0A5FFA8AFABAF1100F40F2DC
:10509800E9802B68DA0702D532460921E1E798074B
:1050A80040F18D8032460C21284606F0EAFD95F83D
:1050B800533043F0010385F85330B4F8C03194F805
:1050C800C3510133A4F8C031002D00F0FB81FCF777
:1050D800DFFB10B10023A4F8C031A17C012940F204
:1050E8002382237C072B40F00582B4F84030022B42
:1050F80040F21A82B4F842500135ADB2E3882B442D
:10510800A4F8B83194F8C431002B00F011820123BF
:10511800E2881344A4F8BC31BB883D685B0657BFDE
:10512800B5F8CC310023B5F8BE219B1858BF9BB207
:10513800A5F8CC3195F824311BB92B7C063B012B03
:1051480006D8B5F84430B5F8BE211344A5F8443064
:1051580095F84A1031B1B5F84630B5F8BE21134478
:10516800A5F8463095F95020002AC1BFB5F84E3051
:10517800B5F8BE011B18A5F84E3095F8313063B963
:10518800B8F1000F40F05E82BB7B022B40F0168224
:1051980095F8A030062B18BF162395F8302022B9B1
:1051A8002F4885F83130FDF75DFF284606F016FEDA
:1051B800002384F84C30BDE8F047FDF71DB85907C7
:1051C80002D5324613214CE71A0706D595F89830D0
:1051D800324685F8A030072143E713F0300F3AD064
:1051E80095F82731002B5BD195F82631D3B1EB7BAD
:1051F80005F1A80005F5937105F27622282B28D031
:10520800AB7BA3F1280CDCF1000343EB0C0305F0A6
:1052180008FD2B6823F0200343F010032B600023C4
:1052280085F826312B68DA063AD505F1A80005F08D
:105238000DFD18B105F24310FDF764FDB5F8F23025
:1052480000221521A5F8A030B5F8F630A5F8A2304F
:1052580007E70123DBE75B0622D50022242100E7CC
:10526800E0130020D7F8009099F80F30172B2DD0B5
:1052780011D8102B1DD0152B1FD0AB7B002B63D161
:10528800EB7B0F3B102B67D995F83E30002B63D092
:1052980001221221E5E61F2BEFD1324606210AE052
:1052A8003868C37B252B3FD0342BE6D1002211214F
:1052B800D8E632460B214846D4E64846FDF746FF75
:1052C80000283FF4FAAE00220421F4E799F870327E
:1052D800012B07D132460521484606F0D2FC89F851
:1052E8007062EAE699F87032022BD9B27FF4E5AE23
:1052F80099F8523053B10623324689F8A03048460F
:1053080006F0BFFC002389F87032EAE73B6840F2F8
:105318000632A3F89A20324699F8623013F0040F47
:105328000CBF0D211121EAE790F83031022B02D190
:105338000022172196E690F83031012B9DD190F884
:105348003131002BF4D098E7082B05D195F8993026
:10535800012285F8A0303EE7BAF1100F7FF6ADAE16
:105368003D6895F80E90B9F1000F7FF4A6AE95F858
:1053780037313BB101220E21284606F082FC85F820
:105388003791AEE795F8363183B195F8539019F017
:10539800030A0BD149F0010901220C21284606F025
:1053A80070FC85F8539085F836A19AE795F8263170
:1053B8003BB395F8273123BBEB7B05F1A80005F536
:1053C800937105F27622282B19D0AB7BA3F1280C18
:1053D800DCF1000343EB0C0305F023FC002385F804
:1053E800263101221421284606F04BFCB5F8F2308C
:1053F800A5F8A030B5F8F630A5F8A2305DE601238F
:10540800EAE795F83031012B3FD195F83131002B7F
:105418003BD1EA7BA2F12303072B36D995F8180173
:10542800012806D0022804D04FF43F710620FBF76C
:10543800C9F895F81911012901D00229F4D10228D7
:1054480095F832310BD0012B14BF0023012343B947
:10545800093A042A7FF631AE0122162101E6022B11
:10546800F2E7022995F833310DD0012B14BF002340
:105478000123002BECD000217548FCF767FE0023C0
:1054880085F8303119E6022BF0E795F839314BB140
:1054980095F8313133B9EB7B233B072B02D9012235
:1054A8002321DEE595F83831012B05D1002385F855
:1054B800383101222521D4E595F83831022B7FF4C3
:1054C800FCADF3E7FCF7DEF908B1A4F8C051FCF72E
:1054D800E7F900283FF401AE94F8C6310133DBB296
:1054E800022B84F8C63182BF0023A4F8C03184F8A7
:1054F800C631F2E594F83E3013B1A37B0E2B13D1DD
:10550800B4F842502046B4F84030ED1A033D06F096
:1055180005FC58B1A36B626B033B9B1A9D42A8BF65
:105528001D46012D3FF7E9AD0125E7E52B46F5E7D7
:10553800012D7FF6ECADE37B13B10A2B7FF4E7ADC9
:10554800A37B002B7FF4E3AD237C002B7FF4DFAD3E
:1055580002297FF4DCAD94F8C631002B7FF4D7AD77
:10556800D4F8BC00B4F8DA9003F064FF00283FF4E4
:10557800CEAD94F89E30FE2B7FF4C9ADB4F8BA31A5
:10558800012B7FF6C4ADB4F8C021B4F8CC309A42F0
:10559800BFF4BDAD013D9B1AADB29BB2B5FBF9F5A9
:1055A8009D4228BF1D4605FB09F3003D03F1010399
:1055B80018BF01259BB284F8C251A9E5012B08D177
:1055C8006B7C002B7FF4E9AD00212846FEF7EEFB4B
:1055D800EEE55EB1F00633D4310733D4B20633D4E6
:1055E800B30733D140F6CB21312020E739B1B5F8E4
:1055F8004610B5F84830994201D32223CDE5002A58
:1056080005DDB5F84E20B5F848309A42F5D2B5F820
:105618004420B5F842309A4209D2AA7CB5F8403005
:1056280052B1B5F842209A42CED80823B5E595F88C
:105638002431002BE1D1F0E7052BC5D93E23ACE599
:105648001E23AAE53D23A8E52323A6E52A23A4E5EE
:10565800E0130020D0F87C32D0F8C420934213B570
:105668000446019005D1D0F88012D0F8CC209142A0
:1056780016D0B4F8AA2004F281101049A4F88B219E
:1056880040F2E242B3FBF2F3A4F88D31B4F8803271
:10569800A4F88F31B4F88232A4F8913105F04AFAAF
:1056A800B4F8822201A8D4F87C12FDF7FBF8002395
:1056B800E3730323A37402B010BD00BF65AF0000FD
:1056C80008B5FDF7E3FB024B024A1A6008BD00BFAC
:1056D80058190020D94A0000074B93F900301844A4
:1056E800142804DC10F17F0F03DB40B2704714204C
:1056F80070476FF07E007047F11300207F2307B5D5
:105708000DF107008DF8073000F0A6FD03469DF95E
:10571800070053B1094B5B785B425BB2184414280D
:1057280006DC10F17F0F05DB40B203B05DF804FB27
:105738001420FAE76FF07E00F7E700BFF1130020AE
:10574800024B00221A705A70704700BFF1130020F4
:10575800064BD3F8000138B1D3F8040120B1D3F8CF
:105768000801B0FA80F04009704700BF00A004505B
:10577800034B00221A705A7010229A70704700BFAB
:10578800F4130020F8B50646022014460D4600F032
:10579800CDF8114B114A01275C60191D9A6002F17E
:1057A800807203342D011F70DC601D83C3E9042659
:1057B8000022243303F80A2C0D2203F8092C084A86
:1057C800C2F83015074903C983E80300C2F8087511
:1057D800C2F83835F8BD00BFF41300200300000BF1
:1057E80000A004507CE1020008B5022000F09EF8F9
:1057F8000D4B01221A7000220C4BC3F80021C3F88C
:105808000421C3F808210A4AC3F8802003F5643349
:10581800C3F88C20A3F57C33C3F88C21A3F500537F
:105828000822C3F8042508BDF413002000A0045082
:1058380003000080154A08B51378FBB1002314490A
:10584800C1F8803001F56431C1F88C30A1F57C31A4
:10585800C1F88C3108210F4BC3F80815FFF778FF02
:1058680088B101235370938EFF2B03D9BC213B20B1
:10587800FAF7A8FEDBB29370002313700020BDE88E
:10588800084000F053B810235070F4E7F4130020D8
:1058980000A0045000200450094B1A7862B1094B4B
:1058A800D3F8002152B1D3F8040140B1D3F808016C
:1058B800B0FA80F040097047587870470220704766
:1058C800F413002000A00450064A08B513782BB141
:1058D800FFF73EFF20B192F8340008BD9078FCE74E
:1058E8001020FAE7F413002038B5084C0025D4F846
:1058F8000035032B04BF01236360C4F80055C4F8C6
:10590800005500F099FFC4F8805038BD00A004503D
:10591800054B4FF48062C3F88820BFF34F8FBFF365
:105928006F8FFFF7E1BF00BF00E100E010B504464C
:10593800FFF7DAFF012C06D0022C09D03CB18C21EC
:105948003D20FAF73FFE074B0222C3F8002510BDA1
:10595800044B0322C3F8002502F10042C3F880205B
:10596800F5E700BF00A00450024BD3F8A00300F0F5
:105978000100704700C0FF00084BD3F8A423D3F8F8
:10598800A833511C9BB203D14FF6FF718B4203D051
:1059980002608380012070470020704700C0FF002C
:1059A8000B4B30B5D3F89053D3F89443D3F89813EE
:1059B800D3F89C2305EA04030B401340013317BFB7
:1059C80005600020446081601CBFC260012030BDBA
:1059D80000C0FF000B4B30B5D3F88053D3F8844395
:1059E800D3F88813D3F88C2305EA04030B4013403B
:1059F800013317BF05600020446081601CBFC2608E
:105A0800012030BD00C0FF00064B0022C3F8002271
:105A1800C3F81822C3F82022C3F80C22C3F81422B2
:105A2800704700BF00A0085070B5134D03460846E4
:105A38006E7F26B940F6CF013E20FAF7C3FD63B961
:105A4800012EAC69297F05D100F06AFD20442B693D
:105A5800C01A70BD06F033FAF8E7012B09D1012E00
:105A6800AC69297F02D100F04BFDEFE706F032FA6E
:105A7800ECE70020EBE700BF301400200B4B93F855
:105A8800290088B193F828307BB1094BD3F800245A
:105A980042F00102C3F80024D3F8200500F0F60014
:105AA800023818BF012070470120704730140020C9
:105AB80000A0085008B50128084B1871084B06D0FB
:105AC800022808D040F659513E20FAF77BFD032200
:105AD800C3F8002508BD0422FAE700BF30140020EF
:105AE80000A0085008B570B9104B28311846D96085
:105AF8000F4900F043FF0130012816D940F2CA616E
:105B08003E20FAF75FFD01280CD1084B29311846D1
:105B1800D960074900F038FF0130012805D940F263
:105B2800D461EDE74FF4DB61EAE708BD48050020E2
:105B380084E1020008B50C4B5B78012B09D100F019
:105B480029FF013001280ED940F61F113E20FAF72F
:105B580039FD022B07D100F023FF0130012802D9BB
:105B680040F62511F2E708BD301400200A4B40F436
:105B780009000A4A1B8940F04000B3F5166F36BF8A
:105B8800A3F63813A3F5166343F48073C2F80837F5
:105B9800C2F84005704700BF3014002000A008502C
:105BA80073B50C460546134EFFF784FF2046214681
:105BB800FFF7DCFF01AB96F90520284600F07AFED6
:105BC8009DF8050000F0F2FE20B140F2EB513E20B6
:105BD800FAF7F8FC31469DF9040000F02DFC064B5D
:105BE80040F20312C3F8442E40F25B62C3F8482E19
:105BF80002B070BD3014002000A008502DE9F0411B
:105C080006460C46174606F0CDF90028FBD02F4D66
:105C18004EBB01236B7095F828301BB9A97938461B
:105C2800FFF7BEFF2A4B4FF47A7253F8273003F57B
:105C3800FA73B3FBF2F3274AE41A274BC3F800219F
:105C480029690127234B214485F82870234DC5F87D
:105C58004015C5F8C031FFF711FF044660BB0024AA
:105C68002046BDE8F081012E21D102236B7095F802
:105C78002830B3B995F806803846FFF71BFF404631
:105C8800FFF774FF144BD3F8002442F01002C3F856
:105C9800002440F20312C3F8442E40F25B62C3F8BA
