:10000000387F0020111A010089930200FD190100B8
:10001000FD190100FD190100FD190100FD19010084
:10002000000000000000000000000000751B01003F
:10003000FD190100000000000D1B0100FD19010069
:100040002D1D01002D1D01002D1D01002D1D010084
:100050002D1D01002D1D01002D1D01002D1D010074
:100060002D1D01002D1D01002D1D01002D1D010064
:100070002D1D01002D1D01002D1D01002D1D010054
:100250002D1D0100D3BA02002D1D01002D1D01002E
:100260002D1D01002D1D0100BDBA02002D1D010034
:100270002D1D01002D1D01002D1D01002D1D010052
:100280002D1D01002D1D01002D1D01002D1D010042
:100290002D1D01002D1D01002D1D01002D1D010032
:1002A0002D1D01002D1D01002D1D01002D1D010022
:1002B0002D1D01002D1D01002D1D01002D1D010012
:1002C0002D1D01002D1D01002D1D01002D1D010002
:1002D0002D1D01002D1D01002D1D01002D1D0100F2
:1002E0002D1D01002D1D01002D1D01002D1D0100E2
:1002F0002D1D01002D1D01002D1D01002D1D0100D2
:100300002D1D01002D1D01002D1D01002D1D0100C1
:100310002D1D01002D1D01002D1D01002D1D0100B1
:100320002D1D01002D1D01002D1D01002D1D0100A1
:100330002D1D01002D1D01002D1D01002D1D010091
:100340002D1D01002D1D01002D1D01002D1D010081
:100350002D1D01002D1D01002D1D01002D1D010071
:100360002D1D01002D1D01002D1D01002D1D010061
:100370002D1D01002D1D01002D1D01002D1D010051
:100380002D1D01002D1D01002D1D01002D1D010041
:100390002D1D01002D1D01002D1D01002D1D010031
:1003A0002D1D01002D1D01002D1D01002D1D010021
:1003B0002D1D01002D1D01002D1D01002D1D010011
:1003C0002D1D01002D1D01002D1D01002D1D010001
:1003D0002D1D0100A7BA02002D1D01002D1D0100D9
:1003E0002D1D01002D1D01002D1D01002D1D0100E1
:1003F0002D1D01002D1D01002D1D01002D1D0100D1
:100400002D1D01002D1D01002D1D01002D1D0100C0
:100410002D1D01002D1D01002D1D01002D1D0100B0
:100420002D1D01002D1D01002D1D01002D1D0100A0
:100430002D1D01002D1D01002D1D01002D1D010090
:100440002D1D01002D1D01002D1D01002D1D010080
:100450002D1D01002D1D01002D1D01002D1D010070
:100460002D1D01002D1D01002D1D01002D1D010060
:100470002D1D01002D1D01002D1D01002D1D010050
:100480002D1D01002D1D01002D1D01002D1D010040
:100490002D1D01002D1D01002D1D01002D1D010030
:1004A0002D1D01002D1D01002D1D01002D1D010020
:1004B0002D1D01002D1D01002D1D01002D1D010010
:0804C0002D1D01002D1D01009E
:1004C800064A074B02604FF422725B78828008224A
:1004D800C371002382710372704700BF6BC60000AE
:1004E800F0110020064A074B02604FF49C725B7AB9
:1004F80082800822C371FF2382710372704700BF94
:100508008FC10000F0110020F8B5C41D0028054671
:1005180024F007040CBF0020204600F0CDFA071E87
:1005280002DA6FF00B00F8BD254EB18870880331F0
:10053800F3790330B27989B280B209F007FD002857
:10054800EFDB3C4473783178002D04F1030419443F
:1005580024F0030400FB01F10CBF0020204600F04A
:100568002FFC23180DB9002BDBDB717A184679B103
:100578000333002D728923F003040CBF00202046AA
:1005880000F090FC0028CCDB20440DB90028C8DB23
:10059800317A91B1737A83B1C41D002D24F0070418
:1005A8000CBF0020204603F053F90028B9DB0DB139
:1005B8000020B8E72018B6D5B3E7002DF8D1B2E788
:1005C800F01100201FB572B6194BDC68ECB9BFF307
:1005D8004F8F1849184BCA6802F4E0621343CB6086
:1005E800BFF34F8F00BFFDE7B2FBF6F22B465D1C51
:1005F800002AF9D1DBB203F110056D4405F80C2C83
:100608000A2233B901A8A047E1E7024600230A26D7
:10061800EDE7013BDBB203F110050DEB0506B0FB7E
:10062800F2F502FB1500303006F80C0C2846E8E716
:10063800F011002000ED00E00400FA050A4B07B5B0
:10064800DA886846ADF800209A885B88ADF80420FF
:10065800ADF8023001F09AFD18B1FC219C20FFF79B
:10066800B1FF03B05DF804FBF011002010B504469B
:1006780028B308F015FE10B94FF0FF3010BD07F091
:100688003FF9B0F5FA7FF7D80E4B00221A744FF4F1
:100698008072DC601A801B225A809A8040F2032202
:1006A800DA804FF484721A811F225A81EFF3108482
:1006B80072B600F053FC04B962B60020DEE76FF0B2
:1006C8001500DBE7F011002010B5002840D1234CBD
:1006D800237C032B39D059B1002A3CD00239052993
:1006E80036D8DFE801F0031227352A2D1378637016
:1006F8000020FFF709FF0028B7BF012302236FF08E
:100708000B002374A8BF237410BD13791BB353794E
:100718000BB31188FB291ED853881B3B9BB2E02BD7
:1007280019D81A2917D913689288C4F802300C4BC3
:100738009A80DDE713786372DAE713886381D7E775
:100748001388FF2B07D82372D2E74FF0FF30DBE77F
:100758006FF02C00D8E76FF01500D5E7F0110020F6
:10076800F2110020F8B50D46064620B319B311F072
:10077800070420D1114F3B7C012B02D16FF00B00F5
:10078800F8BD032B02D14FF0FF30F9E700F060F815
:100798000028F8D02846FFF7B7FE0028EEDB0BF05C
:1007A800BAFF3046214601F073FDFFF747FF0323E8
:1007B80020463B74E4E76FF01500E1E7F0110020F4
:1007C80010B5064C237C032B03D101F077FD02F012
:1007D800ABFA09F0BDFC0020207410BDF011002018
:1007E80050B1074B03F1140253F8041B934240F82D
:1007F800041BF9D1002070476FF01500704700BF47
:100808001662030008B501F00FFD03490120BDE899
:10081800084000F049B900BFED04000008B501F038
:1008280017FD03490020BDE8084000F03DB900BFAE
:10083800C904000002680020014B1A60704700BF1D
:1008480004120020014B1B68184700BF0412002047
:10085800024B1868003818BF0120704704120020A6
:100868002DE9F7430446264E071D2548376002F058
:1008780073FA0228054607D12149204608F039FFB6
:10088800284603B0BDE8F0830428F9D13378072B54
:1008980018D13E2000F04AF878B9F37801A93279E6
:1008A800684643EA0223ADF8003009F031F9002820
:1008B800DBD053210820FFF785FE052000F078F8EB
:1008C8000028EAD03146204608F04BFFB0F5817F7A
:1008D80001D37221EEE70028C7D094F8008094F87D
:1008E8000290404600F022F80028BED0B8F13E0F32
:1008F800C6D1484600F05CF80028C1D1B5E700BF72
:1009080008120020074B4FF0FF3141F6FF72C3E990
:10091800001205490022C1E900221F21C3E9021281
:10092800704700BF200500204C1200203F280CD83B
:1009380001380B4BC0F3421200F01F0053F822306D
:1009480023FA00F000F001007047FF2806D0403875
:10095800044BC0F3421200F01F00EFE7012070477C
:10096800200500204C120020074B0146006849680A
:100978001A4603C240F48C2200201A6041F010721B
:1009880042F4FF625A607047200500200246034B7C
:100998000068516803C30020704700BF4C12002054
:1009A8000246024B0068516803C3704728050020BF
:1009B800431E3828DBB21FBF064A590903F01F033C
:1009C80002EB81021DBF9068D84000F001000020B2
:1009D800704700BF200500200A8870B595B2C67C14
:1009E800C2F30E020488023602F118033444C35AD3
:1009F800A4B233442344013BB3FBF4F303FB0422C6
:100A0800438892B29342044B8BBF2B40AB431343B2
:100A18009BB20B8070BD00BF0080FFFF4A1E062AF4
:100A280008B50346084604D84FF4D1711520FFF7DE
:100A3800C9FD094A914202D940F2A311F6E711B95A
:100A480003B1196008BD2BB11B680022C3E901215D
:100A58001A1D1A600430F5E7FAFFFF7F10B5114B35
:100A680000EB41041A786389B3FBF2F303FB02231A
:100A7800013A1A44B2F5706F0279807828BF0023D2
:100A88001A440B18B2FBF0F100FB11215B1AB3FBFF
:100A9800F0F100FB113313446FEA43436FEA534309
:100AA800638110BD54120020024B03EB8003596090
:100AB800704700BF541200202DE9F04F10F0070ACC
:100AC80085B0054604D040F261111720FFF77AFD82
:100AD800524F044607F10C06B146B04657F8043B9E
:100AE8008DF80BA03BB101A898479DF80A30082B58
:100AF80001D9E821E9E79DF80B1041BB05B1316048
:100B08004F4506F10406E9D1002D6ED00022DFF82A
:100B180010910227964689F8002058F827A0013F2F
:100B2800BAF1000F54D09AF804609AF802C0FF2E68
:100B38005FD039460023481C37D19C44BCF1FF0FD5
:100B48003ED90AB189F800E040F22711BDE79DF8C7
:100B58000AC04B1D60465A0004EB4303022838BF05
:100B68000220441E40422344BDF808406444CCF1AE
:100B7800000C0340013C04EA0C04B4F5803F01D3A7
:100B8800F821A2E775B19A1A012032609170148099
:100B9800D0709DF80C00107101984FEA104C10812C
:100BA800A2F806C004FB0134AAE758F8210028B1CE
:100BB80090F804B0B34504BF80781B180139BAE730
:100BC800DBB2E6458AF804303CBF5FFA8CFE0122AE
:100BD8007B1CA2D10AB189F800E0022640F6FF6A20
:100BE80058F82670B7B9013EFAD2601B05B0BDE8C7
:100BF800F08F0023E5E707EB410309F101093846C7
:100C0800A3F80AA0FFF72AFF5FFA89F1BB788B42A5
:100C1800F1D8E8E74FF00009F6E700BF58120020C6
:100C28005412002038B54FF6FF7302460380184B64
:100C380003EB81031869A8B184780379B3FBF4F155
:100C480004FB1133DBB2194600EB4105B5F90A5034
:100C5800002D0EDB0131B1FBF4F504FB1511C9B20F
:100C68008B42F1D1002038BD6381BDE8384009F0DE
:100C780049B900EB41046389C3F30E031380C278BA
:100C8800002AF1D14FF4D5711720FFF79BFC00BF64
:100C9800541200201C4B03EB810370B51C690546F8
:100CA80044B3030404D54FF4DC711720FFF78AFC22
:100CB8000146204609F009F9FF28014604D02046DC
:100CC800BDE8704009F01EB9A078B5FBF0F300FB51
:100CD8001353DBB219460A1D04EB4206B6F902604B
:100CE800002E09DB0131B1FBF0F200FB1211C9B291
:100CF8008B42F0D1002070BD8B4201D00023E370FD
:100D080004EB42025580DAE754120020094B03EB4A
:100D18008103014610B51C69204609F0D6F8FF2862
:100D2800014604D02046BDE8104009F0EBB8002089
:100D380010BD00BF54120020F8B5104B074603EB56
:100D4800810301461C69204609F0BFF8FF280546C3
:100D580011D0E288238953EA024606D0014620468C
:100D680009F0D0F801463846B04720462946FFF733
:100D780075FE0020F8BD0520FCE700BF54120020D6
:100D880038B50E4B0446827903EB8203186908B91B
:100D9800052038BD8278E1799142F9D24B1CE37184
:100DA80000EB41035D89B3F90A30002BF3DBA58022
:100DB80009F0A8F820600020EBE700BF54120020DB
:100DC80070B5044610F003000E4603D04E211820DB
:100DD800FFF7F8FBFFF722FE054624B1034831462A
:100DE8000460FFF71BFE284670BD00BF701200208C
:100DF8002DE9F14FDFF870B01E4607460D46DBF8C7
:100E0800003090469DF828A09DF82C901BB96021D1
:100E18001820FFF7D7FB52460921404608F0D9FEB3
:100E28004A4684B20921304608F0D3FE81B2DBF885
:100E38000000214409F01DF8386018B9286001B095
:100E4800BDE8F08F04445346414609222C603868B7
:100E580008F082FE4B4609223146286801B0BDE8F9
:100E6800F04F08F079BE00BF7012002070B50E4632
:100E7800044608F0C1FE0546304608F0BDFE044BA6
:100E88002A1821461868BDE8704009F017B800BF55
:100E980070120020024B186808B108F0DEBF7047D6
:100EA800701200201F2AF8B5044624D89200134D6A
:100EB800033250B1830703D068210920FFF782FB72
:100EC80022F00303297068602B8122F00302282393
:100ED8000127120403FB01F06B680025120CEEB227
:100EE800B14200D8F8BD14B126181F705E601044D6
:100EF80001352833F3E74FF0FF30F3E77412002091
:100F0800154A002170B553681578C8B2854203D8D0
:100F1800BA210920FFF756FB1C461846013114F880
:100F2800286B0EB92346F0E7002199700124128935
:100F3800996103F126055C709208D96103F11E04DA
:100F4800596824F8022FAC4243F8041F1144F8D121
:100F580000234361037070BD74120020124B0122FC
:100F68004FF0FF3000215A60C3F80803C3F800159A
:100F7800C3F804255A6040F6FE72C3F808034FF41C
:100F88008060C3F8001503F560330849C3F80825E5
:100F9800C1F88800BFF34F8FBFF36F8FC1F8880186
:100FA800C3F80825704700BF00A0045000E100E026
:100FB8000A460648192302F8033BC368C1F8033000
:100FC8000369536043699360704700BF8012002033
:100FD800024B5A8C02435A845B6A184780120020DD
:100FE800014B00215B6A18478012002010B5154C90
:100FF80005F048FA05F0E4FE208DFFF7F1FF237EA7
:1010080063B12246104904F1190052F80C3BE36021
:1010180063685360A36893600AF022FA0B4B228D31
:1010280093E8030002F044FC236B188802F0C6FB27
:10103800A36B94F8341094F835009847002384F88B
:101048003C3010BD80120020B90F0000AC12002007
:10105800034B93F83C300BB1FFF7C8BF704700BF94
:101068008012002070B51F4C0646236D256B236443
:101078004FF4817395F88A20A4F8443094F85430DA
:1010880095F8691003EB82002EB9FF2803D195F873
:1010980068308B4201D005F0A5F895F88A30D3B1B5
:1010A800A06D05F0A7FA0123A16D84F88030206CAB
:1010B800D5E93A23C4E91C2305F008FE16B93046E1
:1010C80005F0E6FA95F86810002005F029FB0223E0
:1010D80084F83C3070BD206C05F08CFA05F070FE89
:1010E800ECE700BF8012002008B5094B93F83C20BC
:1010F800022A04D040F2A3212720FFF763FADA7A04
:1011080042F00102DA72BDE80840FFF76FBF00BF86
:10111800801200202DE9F341354C06460F4694F81D
:101128003C30012B5FFA83F804D040F22E7127205F
:10113800FFF748FA256B95F87C303BB10021042075
:1011480085F87C10FFF744FF85F87D8095F880309E
:10115800042B0BD127490220FFF73AFFD4F890302F
:101168001B78991E4B424B4184F8983095F88A3089
:10117800ABB10123216B94F8548084F8803091F846
:101188006900D5E93A23C4E91C2308F0E3FF0022EB
:101198000346194900920220424605F0D5FC26B1C3
:1011A80002B0BDE8F041FFF721BF002FF8D0D4F816
:1011B8009C30304698470028F2D094F83430002B01
:1011C800EED1638C9A0709D594F89830002BE7D0B4
:1011D800002002B0BDE8F041FFF744BF002BDFD18B
:1011E80094F8A030002BF3D194F8A130EEE700BFBB
:1011F8008012002010130020E0120020064B10B5CA
:1012080093F83C2002F0FF0422B91C7602F048FB58
:10121800204610BD0C24FBE780120020094B0A4A27
:1012280010B51A60FFF7EAFF20B14FF49F7127202D
:10123800FFF7C8F9054C01F051F8206501F052F8A4
:10124800A06510BD68050020901A000080120020DB
:10125800F0B585B07E4C02AE0A9F86E8030094F88C
:101268003C1001F0FF0511B90AB103B127B940F2EA
:10127800D3112720FFF7A6F996E8030004F12C0CF8
:10128800C4F89C3084F834509DF82C3084F8A3506E
:1012980084F8355084F8A45084F8A55065842585D1
:1012A80084F8A05084F8A15084F89850C4F8885065
:1012B800C4F89050A4F894502564A564A4F84C5040
:1012C80084F8A2306262A7638CE80300256B04F0FF
:1012D800B5FF05F075FD95F9700005F5807705F007
:1012E8000DF86E6AE86905F00FF8304605F074F9F4
:1012F80095F89A0005F012F804F160060AF05BFC14
:1013080095F8692000F17101012005F0A7F8514B0B
:10131800186805F067F92B69C4F8A8306B69C4F838
:10132800AC3005F1F0031868083353F8041C324652
:10133800BB4203C21646F6D15968474A236BD5F813
:10134800000193F8686003C293F88420A2F1250194
:10135800012903D993F8851025295FD193F85E32C6
:101368002BB1012E03D0012B0CBF0126022605F15B
:101378003007314638460AF003F9314609F06CFE69
:10138800AB8F95F86910834228BF0346384684F826
:10139800B0300AF0DEF895F88A7095F86910B5F85B
:1013A800446009F059FE0FB9043080B2864295F8BE
:1013B8008A3028BF0646F6B284F8B16084F85460D3
:1013C80093B10123D5E93A0184F88030C4E91C01BE
:1013D80095F8690008F0BEFE002203461F490092F6
:1013E8000220324605F0B0FB0120FFF73BFE236BDD
:1013F800D3F8B00105F01AF9002323606360A360F5
:10140800B5F87E3063802B88238095F89A30237155
:10141800EB6E0BB101221A6005B0F0BD203A012A2B
:101428000DD823290DD093F8263113F0010202D1EB
:101438009B079CD50222012E18BF164697E7232941
:1014480095D193F8262193F861301340EDE700BF5A
:101458008012002068050020F8120020E012002009
:10146800014B93F8A400704780120020024B93F8B8
:101478002900C0F3C000704780120020014B93F888
:10148800A30070478012002073B5174C0646D4F8A5
:10149800B4500DB1A36C23B940F21B712720FFF79C
:1014A80091F8B4F844202846216C08F051F8EB1C58
:1014B800B4F84C201846A16C08F04AF80DF1020265
:1014C80001A9A064D4F8AC00256408F0BCFC01981C
:1014D80008F0A3FC0122B4F84C103060D4F8AC003A
:1014E80008F04AFC02B070BD801200202DE9F04FD0
:1014F80000238BB0AF4C80460491256BCDE90733B0
:1015080094F83C30022B5FFA83FB04D04FF4F96166
:101518002720FFF757F8236C5A781E78A4F84C2038
:1015280003221344A4F84420A36495F88A300028C1
:1015380000F02C81C6F3C007C3B105F05FFC831E21
:10154800DBB2012B04D8FFF751FD0BB0BDE8F08FDB
:1015580060B9B4F84C304BB195F8823003F0010310
:10156800BB4203D1012384F83530ECE7B4F84C10C2
:1015780021B1D4F8AC0008F0DFFB0146238D95F8C3
:10158800812043F40073C4F8B410238582EA9603DB
:10159800D8076DD4CDF80C8095F8821001F00103BE
:1015A800BB4200F0A6804FF0000995F889308BB156
:1015B800002795F86800D5E9382384F88070C4E9D5
:1015C8001C2308F0C7FDFB2203467B490420009733
:1015D80005F0BAFAD4F8B430002B40F0E880B4F83B
:1015E8004C30B3FA83F35B0903EA161384F8A1308D
:1015F800049B002B40F0E680628C94F8A33011071E
:1016080004D594F89820002A40F0DC80012B00F2E1
:10161800D980D4F89C3001209847002800F0D28067
:1016280094F83470002F40F0CD80266B94F8543035
:1016380096F88A2096F8681003EB82038DF81970E3
:10164800ADF81A70FF2B03D196F869308B4202D09F
:10165800FF2004F0C7FD96F88030052B00F2F581D5
:10166800DFE813F00601CD01D101D101E301E30167
:1016780095F880305BB3013B0132DBB285F88120FD
:10168800042B0ED84D4AD35C002B83D0022B0BD1F0
:1016980007A9D4F8A80008F0F8FA88B940F22B6135
:1016A80036E740F2136133E7032B10D100F0BCFE9C
:1016B80010B940F235612BE700210820FFF788FCBC
:1016C800D5E93832013342F10002C5E93832002148
:1016D80095F87D3085F8801023B1102085F87D10AD
:1016E800FFF776FC238D43F40063238500230393DF
:1016F80052E7B4F84C2006F00303EAB1581E01285B
:101708001AD8208D40F48050208594F8B10090427A
:1017180006D294F8343043F0100384F8343042E7AA
:10172800D4F8B40000283FF43EAF94F8A20018B1F2
:101738002020FFF755FC36E70131032B85F882108E
:1017480019D0013B012B0BD8002A3FF42CAFC1461E
:10175800D5E93A32013342F10002C5E93A3224E7C9
:10176800002A3FF420AFD5E93A32013342F10002B2
:10177800C5E93A3217E7238D0120114943F4805314
:1017880085F87C002385FFF723FCECE70BB105F017
:101798004FFB94F8A3304FF000090133CDF80C90BB
:1017A80084F8A330238D43F480632385FDE6012369
:1017B8001AE700BF80120020E012002004EB0200AC
:1017C800C812002004F0B8FFB9F1000F4CD1012372
:1017D8000493238D5A0606D44020FFF701FC238D7D
:1017E80043F040032385039B6BB1B4F80720B4F89A
:1017F80005301343B5F87E2013431EBFB4F80930F3
:101808000133A4F80930B8F1000F00F03281B4F8C0
:1018180005300133A4F80530002384F8A330984834
:1018280001F0BAFF079830B108F0F7FA216B0022EF
:10183800027201F081FB089B33B1216B00221A72FE
:101848000C22089801F046FB049B002B7FF47BAE2A
:10185800238D1B063FF579AE8020FFF7C1FB238D52
:1018680043F08003238570E608A8FFF70DFEAEE776
:1018780094F8B0300DF11A0109A8A6F85830ADF85F
:101888001A3000F0C3FD40B1099830B1012384F843
:10189800A530042386F8803022E096F8C330002B68
:1018A80040F0A4800DF119020DF11A01D4F8A80036
:1018B80008F0C9F9002800F09980BDF81A30002B0B
:1018C80000F091809DF81930002B40F0858003804E
:1018D80083704FF0030B86F880B0012384F8A5309D
:1018E800BDF81A3096F880A0A4F89430C31CBAF159
:1018F800020F96F881B0C4F8903096F88230C4F898
:101908008800059309D0AAF10402012A00F2A080F8
:10191800C3784FF0030A022B0ED0D4F8A80008F0C1
:10192800EAF9002840F09780BAF1030F04D000F0DC
:1019380087FD80F00107FFB2D4F888104FEACB0B7F
:10194800059A0B780BF0080B900003F0F30300F0F6
:10195800040043EA0B03034323F0100343EA07138D
:1019680007F0010723F0030384F8A0704AEA030292
:101978000A700222B4F894304B70A4F88C2096F8C0
:101988008920002A69D0002B67D0A06D04F032FEB0
:101998000022D6E9380184F88020C4E91C01A16D31
:1019A800D4F8880004F0F8FF20B9D4F88810A06DA6
:1019B80005F02AF996F86910012004F0B1FE012318
:1019C80084F8A43084F83C30B9F1000F3FF401AF3B
:1019D80008A8FFF759FDFCE6037803F00303012B81
:1019E8007FF479AF75E74FF0010B74E70023ADF88A
:1019F8001A30012386F880302248002372E700233A
:101A0800ADF81A30F8E7B6F858300DF119020DF1B3
:101A18001A01D4F8A800ADF81A3008F014F9002813
:101A28007FF45BAF40F2AA4172E50DF11A0109A8F3
:101A380000F0ECFC08B1099810B940F2B74167E52D
:101A4800012384F8A530052324E740F2BF415FE570
:101A58004FF0010A61E701276EE7D4F8880004F027
:101A6800C9FD05F0ADF90021D4F888000AF07AFE26
:101A7800A0E7B4F807300133A4F80730CFE600BF79
:101A8800AC12002038130020F1100000F5140000FB
:101A98001D11000059100000304BF0B55A8885B070
:101AA800B0F85C700C46B0F85A6097429D8828BF21
:101AB8001746964228BF16461B2E2ED0B5F5A47F92
:101AC8002DD040F6480301A99D4228BF1D4608F0C5
:101AD8007EFBBDF80A30BB4228BF3B46E380BDF819
:101AE8000C30AB4228BF2B462381BDF80630B342E9
:101AF80028BF33466380BDF80830AB4228BF2B4669
:101B0800A380FF232370E3881B3B9BB2E02B08D9FB
:101B180040F22D713920FEF755FD1B2FCED105B0AF
:101B2800F0BD63881B3B9BB2E02B02D940F22F71BA
:101B3800F0E72389A3F5A4739BB2B3F5E06F02D94C
:101B480040F23171E6E7A388A3F5A4739BB2B3F51D
:101B5800E06FE4D940F23371DCE700BF3C130020AA
:101B680010B501210020FFF7D1F8044670B9012112
:101B7800FFF790F8044620B940F29B313920FEF770
:101B880021FD034B93F906100AF0CFFA204610BD49
:101B98003C130020024B987DC04300F001007047C1
:101BA80064170020044B987DC0F3400080F00100CA
:101BB80000F00100704700BF6417002008B509F065
:101BC8006AF900F0DDFD00F0ADFB09F021FC01F041
:101BD80051FE03F09DFF0022084B1B214FF4A47017
:101BE8001A60074B98801A8059800648064B18607F
:101BF80099805A745A829A829A7508BD6C05002099
:101C08003C13002003021B0064170020044B41F61C
:101C18004C52C3E902221B221A74FFF7CFBF00BF40
:101C28006417002073B5234D0446AB680363224B49
:101C380083610AF00BF9064600F064FB8306297CF1
:101C480053BF1B236B88AA881A46A4F85A301B4B2B
:101C5800A4F85C201B6884F8381066871BB194F9D7
:101C6800701020889847164E2046314609F003FA2E
:101C780001236A8804F110006978E3850332AB8890
:101C8800019192B216F8121C033300919BB204F131
:101C98001401FFF7ADF8236923B940F20471392024
:101CA800FEF790FC636913B940F20571F7E700206D
:101CB80002B070BD6417002000093D0070050020C7
:101CC80076170020024B1B6803B118470C20704799
:101CD8006C050020034B5A8802801B788370002013
:101CE800704700BF6417002037B5837805461A2B64
:101CF80008D8042B04D9144A22FA03F3DB0705D4C5
:101D080012241AE0292B01D03B2BF9D12888B0F5F1
:101D1800706FF5D2694609F00DF988B9019B93F8FF
:101D2800182102F0FF046AB9AA7883F81921FF2262
:101D380083F81821684608F083FB204603B030BDBD
:101D48000224FAE70C24F8E7200038040188A1F1FE
:101D58001B039BB2E02B0CD8428844F24810A2F532
:101D6800A4739BB2834204D8034B002059809A8005
:101D780070471220704700BF3C130020034B5A885D
:101D88009B88028043800020704700BF3C130020DE
:101D980038B50278447802F0010302F0020254EAEE
:101DA800030101D1112038BDBAB98578002DF9D0C9
:101DB800002B18BF002400E01D46204608F0DAF981
:101DC8000028EFD0284608F0D5F90028EAD0054BBE
:101DD80000209C74DD749882E5E7002BECD0002489
:101DE8002546EAE76417002013B50088694609F01C
:101DF800A1F818B10224204602B010BD019A92F849
:101E0800DC31DBB292F8A620002AF3D113F0FB0FE5
:101E1800F0D0019890F82A310BB13A24EBE790F80A
:101E2800CE3003F0FF04002BF7D190F8C5309B07A4
:101E380006D1FF2380F82A31684608F001FBDAE76B
:101E48000249C63009F00CFBD5E700BF31BB0000E2
:101E5800F7B5077805460C46EF2F0FD890F9012003
:101E68004378002A0ADB8278900707D113F0100024
:101E78001DD1990603F0030202D51AB1122442E0DB
:101E8800032AFBD01E07F9D42979EA78EE7942EAC9
:101E98000122697942EA0142A97941EA06212E7AAA
:101EA80041EA06418A42E9D81F2A0FD8E6E713F02B
:101EB800600FE3D103F00702052A05D003F00F01F4
:101EC8000D22CA40D107D9D51A07DDD56A7A013A59
:101ED800062AD3D8AA7A032AD0D813F0040102D14B
:101EE800023A012A03D8EA7A012AC7D811B9AA7C8A
:101EF800032AC3D82A7D48B1012ABFD12A7E012AE4
:101F0800BCD830B91124204603B0F0BD022AF5D15F
:101F1800B4E7DB0712D46B782A7D03F01803082B8B
:101F280011D1022AEED101213846FEF7EFFE06460E
:101F380078B10AF0AEF8B8B10C24E4E700F0A2F9E1
:101F48000028E8D1DEE7022AEDD02B7F002BEAD06B
:101F5800D8E701213846FEF79DFE064640B3154BEB
:101F680093F906100AF0E1F830460AF0CEF929464E
:101F78002070E87430460AF01EF9EB7E0446002B08
:101F8800C1D00028BFD10246B16A684607F0F5FF04
:101F98002246B06A012108F03BF8B16A684604227B
:101FA80007F0EBFF22462146B06A08F031F8AAE7AD
:101FB8000724A8E73C13002030B502798BB003460C
:101FC800042A4FD84088B0F5804F4BD826490024C2
:101FD8008D5C1144ADF800404A798DF8084042F014
:101FE80010028DF8244042EA45028D7AC97B42EA04
:101FF800850242EAC102694602F01F028DF80020FC
:10200800BDF80020ADF809201A888DF80E00000AE6
:102018008DF80B20120A8DF80D408DF80C208DF8E4
:102028000F008DF810405A7BD3F807008DF8112067
:102038005A79059002A88DF812209A798DF8132004
:10204800B3F80B209B7BADF818208DF81A307F234E
:102058008DF81B304FF00113CDE90734FFF7F8FE78
:102068000BB030BD1220FBE709EB0200F7B50646BE
:10207800FFF776FD04460AF053F933780546012B3D
:1020880061D120460AF084F800287BD020460AF067
:1020980047F918B115B9122003B0F0BD204609F070
:1020A800F8FF08B10C20F7E720460AF02FF807469A
:1020B8000028F7D1204602F0A1FC0028EBD0ED0162
:1020C80042F2107339462046ADB25D430AF014F966
:1020D80020460AF01DF9014658B92A46204601F063
:1020E800F1FE08B90020D7E741F6AE413920FEF7E6
:1020F80069FA39460DF10600FEF794FD064608B95F
:102108000D20C9E7394608F022FFBDF806303146F0
:10211800204633800AF008F901213046FFF782FD96
:102128002A463146204601F0CDFE024610B141F65E
:10213800D141DBE7144B9B68002BD3D006F58D719A
:1021480030469847CEE7002BA5D120460AF020F864
:10215800C0B1204609F09DFF0028C3D0204609F0F1
:1021680045FE0546204609F044FE0146002899D15F
:10217800002DB7D02888FEF7DFFD0028B2D041F641
:10218800F341B3E7422087E73C1300200278034677
:1021980072B1427862B142881A2A09D982881A2A09
:1021A80006D90068034A106000209B889380704716
:1021B800122070476417002002680020014B9A60C3
:1021C800704700BF641700200378A3F10A02112AA0
:1021D8009BBF024A00201220137470476417002026
:1021E80008B5052000F082F803F052FC014B024AC2
:1021F8009A6008BD3C130020A11A000008B501220E
:10220800084B1A7002F0EAFB0AF045FA08F041FEA2
:10221800FFF704F8002007F07DFEBDE8084000F055
:1022280093BD00BF4813002010B5064C0649201D79
:1022380008F00FFC04F108000449BDE8104008F05C
:1022480008BC00BF48130020740500207C0500204E
:1022580010B5084C0849201D08F0FBFB04F10800E4
:10226800064908F0F6FB04F10C000549BDE81040EA
:1022780008F0EFBB48130020840500208C050020DF
:1022880094050020014B1878704700BF48130020C0
:1022980010B5064C00F034FD606808F0D2FBFFF77B
:1022A800B5FC00F00FFF0123237410BD4813002074
:1022B800014B187C704700BF4813002010B5064C2E
:1022C800A06808F0BEFBE06808F0BBFBFFF776FCEF
:1022D8000023237410BD00BF481300200048704736
:1022E80059130020004870475B140020C2080449B5
:1022F80000F0070001238340885C03438B54704738
:1023080030050020014BD3E900017047300500205B
:10231800034B1868C0F30020400040F001007047EC
:102328003005002008B505F0EBFA0023074A32F81B
:102338002310814205D302EB83029378044A137079
:1023480008BD01330C2BF2D10023F7E71EEB020086
:102358005D15002010B54468238884F86711A4F837
:10236800683194F86830012B06D0022B04D040F273
:1023780087310620FEF726F984F86A3194F8693027
:10238800012B01D0022BF2D184F86B3104F5AF7028
:10239800034909F065F8002384F8243110BD00BF13
:1023A800E7AA000040680749038800F25110A0F826
:1023B800093010F8F13CC37210F8F03C037309F0CF
:1023C80049B800BFFDAA0000024B002283F8222072
:1023D8009A8470475E150020044B93F82220012A46
:1023E8001ABF036001200020704700BF5E1500205F
:1023F800054B024693F8221001291BBF01209A843D
:10240800002083F8220070475E150020054B024625
:1024180093F8220020B1136009B19B8C0B80012036
:10242800704700BF5E150020044B002293F822007D
:102438009A8410B1012083F8222070475E1500208D
:10244800034B93F82200B0FA80F04009704700BFB0
:102458005E15002050B90A4A0120134603F8010B03
:102468000868C2F801008A889A807047012805D157
:10247800034B0A68D8719A608A889A81704700BFAE
:102488008415002050B90B4B187888B1D3F8012077
:10249800B3F805300A6001208B807047012806D107
:1024A800044BD87920B19A689B890A60F3E7002029
:1024B800704700BF8415002010B9044B1878704786
:1024C800012806BF014BD8790020704784150020E9
:1024D800F7B58A8800238DF80600ADF8042008684F
:1024E8000B4A8DF807300146147802F5A872019D51
:1024F800D8B2844201D8082007E052F8087F013397
:102508005668AE4208BF8F42F2D103B0F0BD00BF9B
:1025180098150020084B0146002230B55C7803F27C
:102528000113D0B2844201D8082004E013F8015FF7
:1025380001328D42F5D130BD98150020F8B52D4CEB
:1025480063782218013B92F80251DBB28342637030
:1025580030D01A010101961C8F1C2644274406F12D
:10256800100C56F804EB664547F804EBF9D18232B3
:1025780082312244214402F1100652F8047BB2420F
:1025880041F8047BF9D1E118221891F8026182F828
:10259800026106267343704303F5857300F5857061
:1025A800E618E35827182350B388BB8091F83A31CE
:1025B80082F83A312846FFF7ADFF082818D123786A
:1025C800013BDBB29D42237012D02B3305F12B0265
:1025D80004EBC30304EBC20293E8030082E80300A0
:1025E8002078FFF797FF08281CBF241884F80251A9
:1025F800F8BD00BF98150020F0B5254D89B095F8B5
:10260800984105F299116846224606F0A1FF214635
:10261800684608F05FFC0446B8B300EB400102A826
:10262800C9B2FEF70FF9631E95F8A1610124DBB268
:1026380095F8981105E0721CB2FBF1F001FB10222D
:10264800D6B206F120020DEB020010F8202C002A69
:10265800F1D103EB430100F8204C06EB4602203190
:102668002A44694411F8187C82F8A27111F8177C81
:1026780011F8161C82F8A37182F8A411013BAA195B
:10268800DBB282F89941FF2BD2D109B0F0BD00BF6F
:102698009815002070B5064688B00C46002A4ED022
:1026A800294A92F8A131D01890F8991119B9FF2147
:1026B8002820FDF787FF03EB43010133114491F80C
:1026C800A251E57091F8A35191F8A4112571617197
:1026D800002180F8991192F89811B3FBF1F001FBF1
:1026E800103382F8A13192F8C23123B9174902F5A3
:1026F800DD7008F0B2FE65790D220021684605F00C
:102708003F0545F0400565710AF0F6FCE37804AA38
:1027180069468DF80F30304623798DF80D508DF8C5
:102728000E3004230AF052FC9DF81F3023709DF8E8
:102738001E3063709DF81D30A37008B070BD032172
:102748006018FEF77FF8D6E79815002001260000EC
:10275800044B5A78824286BF1B1893F84A0100201E
:10276800704700BF98150020044B5A78824286BFF4
:102778001B1893F842010020704700BF98150020ED
:10278800064B00224FF461711A8083F8C32183F845
:10279800C421A3F8C61183F8C221704798150020F8
:1027A8002DE9F0478246894617469846FFF790FE7E
:1027B80008280546064603D0FFF7ACFE082860D176
:1027C800324C6378072B5ED8082D15D12678731CF8
:1027D800072E237003D96C212820FDF7F3FE06F19C
:1027E8002B02D9F8000004EBC20344F83200B9F810
:1027F800042083F806A09A80657807F110026B1C04
:10280800290163704B1C234412F8010DBA4203F8E6
:10281800010FF9D1813108F11003214413F8012D7A
:10282800984501F8012FF9D125441021404608F0B8
:10283800D7FB102185F84201384608F0D1FB85F80E
:1028480002616678002385F84A013146104885F808
:102858003A3108F03FFB0128054607D831460D48B4
:1028680008F038FB002818BF0135EDB284F89851FC
:102878000025284684F8A151FFF7BEFE2846BDE88A
:10288800F0871220FBE70720F9E700BF9815002022
:10289800DA160020E2160020064B10B558780138E9
:1028A80040B2002800DA10BDC4B22046FFF746FE49
:1028B800601EF5E798150020014B83F8C3017047A7
:1028C80098150020014B93F8C30170479815002014
:1028D800431E4AF2B7129BB293429DBF024BA3F824
:1028E800C60101200020704798150020014BB3F85D
:1028F800C6017047981500200A4B30B55C788442B1
:102908000ED9184490F802012B3003EBC004A579C6
:102918000D7053F8300010600120A388938030BDFB
:102928000020FCE7981500200246074810B590F8EB
:10293800C34124B1417821B1023003F00BF920469C
:1029480010BD0C46FBE700BF981500202DE9F74F96
:102958002F4C9A46804689466378834256D9231875
:1029680093F8425185F00105F9B193F84A31E3B97A
:1029780045F002070135BAF1000F18D1FA070AD558
:10298800062104EB0810524601FB0841823001F58C
:102998008571FFF77FFEBB0734D504EB081052465C
:1029A80049460230FFF776FE2CE02F46E3E794F81D
:1029B800A1614FF0010B002DE0D0A31993F89911F4
:1029C800019399B90092DAB100F04CFB019B06EB38
:1029D8004601009A4FEA102C83F899B1214481F8F6
:1029E800A201000C81F8A3C181F8A401013694F872
:1029F8009831013DB6FBF3F103FB1166F6B2DAE755
:102A080047F00407384603B0BDE8F08F0027F9E720
:102A180098150020074B5A78824209D91A1892F85B
:102A280042212AB9062202FB003000F58570704762
:102A38000020704798150020064B5A78824281BFC3
:102A48001B1893F83A01B0FA80F0400998BF0020AB
:102A5800704700BF98150020F8B50E4607460621B6
:102A68001546304608F0BCFA044670B10C4B0022FB
:102A7800587803F23913D1B2884202D8012420468B
:102A8800F8BD013203F8015FF5E73146384608F032
:102A98003DFA0828F3D0024B034483F83A51EDE796
:102AA8009815002030B5002442F210758487B0F8DC
:102AB80040404C43B4FBF2F4A0F84040541E05FBE0
:102AC8000343B3FBF2F3C387084BB3FBF2F30133C1
:102AD800A0F84430038F05FB0344036B5943B4FB50
:102AE800F2F4B1FBF2F14463016330BD005A6202B3
:102AF800034B80F870101B680BB1008818477047AB
:102B08009C0500200B2808B504D940F2C7112920DC
:102B1800FDF758FD014B33F8100008BD4EEB0200DD
:102B28000346084671B13F2B0BD8074AD35C03F024
:102B38007F02914205D08CBF0120002000EAD3100B
:102B480070470120704700BF66EB02002DE9F7438C
:102B58000E4669461546994608F0ECF9044620B930
:102B6800019F35B9012387F88B30012003B0BDE8F8
:102B7800F083D7F810802946404607F00EF8014642
:102B88000028F3D0134B5B88AB4221D3404607F0B3
:102B980040F997F88B304946A0F80140002B2A46A7
:102BA80018BF022600F8036B06F0D2FC29464046FF
:102BB80007F02EF818B98C212B20FDF703FD684685
:102BC80007F03EFC019BA3F8A24187F88B40CCE7B5
:102BD8002046CBE76417002083230B70014B1B783A
:102BE800CB7070477C1700202DE9F84FD0F804808F
:102BF8000D46D8F81460304607F0FDF8044620B9B1
:102C080040F245111020FDF7DDFC0146304607F083
:102C180000F9B4F800B082461FFA8BF9B9F1000F39
:102C280002D140F24911EDE71E4BC71C1B688BB956
:102C3800B8F80030A5F806B0AB8000236B729AF89C
:102C4800003003F00303012B0FD0022B0DD040F20C
:102C58006311D7E74A463946B8F800009847044652
:102C68000028E5D12046BDE8F88F30462B7207F0E2
:102C7800D6F8044610B94FF4B671C3E7B9F1FB0FA3
:102C880002D940F27B11BDE7286810B94FF4BE7134
:102C9800B8E74A46394606F05BFC304607F01AF8B2
:102CA800E0E700BFA005002038B5134C1022002132
:102CB800201D0AF021FA0125257404F108031022C9
:102CC800002104F11400C4E901330AF015FA84F86C
:102CD800205004F11803094AC4E90533002363624C
:102CE800A36284F82C30C4F82D30C4F8313084F84D
:102CF80035301360A36338BD7C170020A005002081
:102D080010B5084C2378FF2B04D04FF4C371102062
:102D1800FDF758FC06F088FB2070BDE81040FFF76F
:102D2800C3BF00BF3D05002010B5034C207806F056
:102D380095FBFF23237010BD3D050020014B18783B
:102D480006F09CBB3D050020014B024A1A60704703
:102D5800A4050020F12B00002DE9F341DFF868817C
:102D6800054608F11407D8F80830D8F81840227A30
:102D7800012A22D1D8F8382052B1137A1BB9B921C7
:102D88001020FDF71FFCD8F83840C4B9002083E0B4
:102D98001A7A012AFAD01C464C4AEFF3108172B60F
:102DA80050680068506001B962B6A34208BFC8F80D
:102DB8003840237A1BB9E821E2E73A46EDE7267A5C
:102DC800F6B205232372731E0B2B6ED8DFE803F0CF
:102DD8006A062235676D3E6D6D6D6D5B636813B96C
:102DE80040F2F711CCE72046294698470420EFF334
:102DF800108272B6237A052BD9B24FF0000359D14D
:102E08002372D8F83810A14201D1C8F83830B2BBC3
:102E180062B634E0636813B94FF40071B0E729462D
:102E2800204698470346ADF80400C0B2C3F3072311
:102E3800012B2FD0022BDAD11AE0636813B94FF4B3
:102E480002719DE7204698470020D0E763680BB9D8
:102E5800FA2195E70B222A7001221988AA706A7153
:102E680000221869A5F80310AA7106F033FF0420A0
:102E7800D8F83830A34202D10023C8F838300028E7
:102E88003FF471AF08E0124B294620461B6898476B
:102E9800034668B9267298B102B0BDE8F08140F2E5
:102EA8003F216DE740F242216AE740F2452167E79A
:102EB8000220DDE711B940F2662161E71846A6E76E
:102EC800002B7FF450AF61E77C17002080170020AB
:102ED800A4050020134610B5027A22B140F2ED2174
:102EE8001020FDF76FFB0A4601460248BDE8104076
:102EF80008F090BA80170020044890F82C301BB9CD
:102F08000349243008F0A3BA704700BF7C1700209B
:102F18000FB400000346064890F83C203AB190F8F8
:102F2800352022B9034900F82D3B08F090BA7047C4
:102F38007C170020E12B00000A4610B5037A23B164
:102F480040F2F5211020FDF73DFB0146072302481A
:102F5800BDE8104008F05EBA901700201346027AC8
:102F68000AB1037270470A460146014808F052BA8E
:102F7800801700201B234FF01B1283840384826177
:102F88008382C260038539B94FF4A473034AC384AA
:102F98004384C261C3820261704700BF480148018F
:102FA80003460846F0B4B3F85420B3F84840B3F8E1
:102FB80056109442B3F84460DF8F28BF1446B3F824
:102FC8004C20B3F842508A42DC8728BF0A46B3F83F
:102FD80046109142A3F8422038BF1146A64238BF96
:102FE8002646A742A3F84610A3F844601FD1AA1AA0
:102FF80018BF0122B3F84A50B3F85040B3F85270E2
:10300800A5429E8FB3F8401028BF2546B3F84E401E
:10301800BC429D8728BF3C46AE42A3F8404002D13F
:10302800A14200D12AB10449F0BC08F019BA012222
:10303800E0E7F0BC704700BF6FB400000B8BA2F84C
:1030480009001046A2F80B304B8BA2F80D308B8B81
:10305800A2F80F30CB8B0249A2F8113008F0FAB968
:10306800BFB40000094AD2E90003434083EAB01123
:1030780081EA43214FEAF34311605360044B5843FC
:103088004FEAF06000EB8000704700BFBC170020DB
:10309800BB79379E094AD2E90003434083EAB0115D
:1030A80081EA43214FEAF34311605360044B5843CC
:1030B8004FEAF06000EB8000704700BF4005002039
:1030C800BB79379E10B50A4C08210948FDF7BAFBB1
:1030D800D4E900321343F7D0064CFFF7DBFF20603A
:1030E800FFF7D8FF236860601843F6D010BD00BF13
:1030F80040050020BC170020174B184A9A60184A50
:103108005A60184A1A60184A9A62184ADA62184AC3
:10311800DA60184A9A61184A1A63184A1A62184AF1
:10312800DA64184A9A64184A5A62184B184A9A601C
:10313800184A5A62184ADA62184A1A61184A5A61D1
:10314800184A9A61184A1A63184A9A64184ADA643B
:10315800184A9A63704700BFA805002075B7000099
:10316800A5B7000011B8000075B90000C9B9000082
:10317800B5340000DFB900000D370000A1350000AC
:10318800ADBA0000C9BA0000ED350000A80600205D
:1031980091B700007FBA000001BA0000A5B900008D
:1031A80025BA0000413500004FBB0000F7BA000007
:1031B800E9BA000065BA0000044B054A5A65054B98
:1031C800054A1A65054A5A65704700BFA8050020D8
:1031D800BBB80000A8060020A1B8000021B9000073
:1031E800054B064A9A65064A1A66064B064A9A65C8
:1031F800064ADA65704700BFA805002019AC000030
:10320800BBAC0000A806002065AB00007BAE000048
:10321800023A08B5232A00F29A80DFE802F01298F1
:103228001E9B9B2E9830989B3541459898499B9BAF
:103238005D5D747498989898989898989898987BE1
:10324800889102784368012A02D193F8103101E08D
:1032580093F8193102204B700EE04268D2F8BE3163
:10326800C1F80130D2F8C231C1F8053043680D20E9
:10327800D3F80431C1F8093008BD4368E5E700F028
:1032880007FA0028F8D148E0102306204B7059238C
:103298008B700023CB7073230B7130234B71EBE7DA
:1032A800436893F80A31D5E7084600F0DFF9E8E704
:1032B8000278436852B993F810213AB193F80D2176
:1032C8004A7093F80C3103208B70D5E793F80B21E3
:1032D8004A7093F80A31F6E743680920B3F8542096
:1032E8004A70120A8A70B3F81221CA70120A0A7157
:1032F800B3F850204A71120A8A71B3F81031CB71B1
:103308001B0A0B72B8E7436893F826214A7093F8B2
:103318002731D8E7104B1B6823B940F21B515120C5
:10332800FDF750F90246232098470420A4E70A4BEA
:103338001B68002BF1D002462420984705209BE704
:10334800054B1B68002BE8D002462520F5E740F224
:103358001651E4E701208FE7A80700203F289ABF0D
:10336800024B53F820000020704700BFA80500203A
:103378003F289ABF024B53F820000020704700BF37
:10338800A8060020F7B5456804464FF6FF772E6972
:103398000DF102010DF101023046ADF8027006F0A0
:1033A80052FC01A9304606F070FC40B1019806F0C5
:1033B80034FD616800220272FFF7BEFDE8E70449A8
:1033C80005F19E0003B0BDE8F04008F043B800BF27
:1033D80009B70000F0B5044685B00D46FF2600F891
:1033E800A56C10F8A63CF3B1184F3B781BB14821E7
:1033F8001F20FDF7E7F80C21381DFDF723FA3E7072
:10340800002304F8A53C07232A4602F8033BD4F816
:103418000930C5F80330D4F80D305360D4F81130B2
:10342800936005B0F0BD01A80C21FDF70BFAA4F5D7
:103438001B73039AC3F8042101AB03CB44F8AE0C09
:1034480044F8AA1C04F8A66CDAE700BFC4170020E9
:1034580010B5054C23782BB90C21201DFDF7F2F986
:10346800FF23237010BD00BFC4170020024690F848
:10347800C631BBB990F8C73103F0FF010BB100208A
:103488007047094B18780028F9D01970D9680433A7
:10349800C2F8041103CBC2F8BE01C2F8C211FF235F
:1034A80082F8C63101207047C4170020426838B539
:1034B80092F8853004460D463BB1132B05D0113BDD
:1034C8000B2B8CBF0120082038BD92F8C43013B9EB
:1034D800204608F0D2F86268D5F80B30C2F8B63149
:1034E800D5F80F30C2F8BA316368D5F81320C3F89D
:1034F80000211A88A3F87522D5F80120C3F877228D
:10350800D5F80520C3F87B226368B5F80920A3F82D
:103518007F226368002583F8C6516068054900F575
:103528001B7007F094FF63681522284683F88520EE
:10353800CAE700BFDD33000038B54368044693F896
:1035480085201C2A04D040F2D9111F20FDF73AF833
:10355800002293F8C4101D8803F5C97083F8C320AE
:1035680069B10B4983F8C420A3F89C5183F89B21C7
:1035780007F06DFF6368002283F8852038BD0122BB
:1035880083F89B11A3F89C51024983F89E21EFE729
:1035980061B9000053B9000038B54568AB6F13F046
:1035A800010419D1D1F801200C4BD1F805101340B2
:1035B8000B4AC5F8D430C3F307630A4043F0080345
:1035C800C5F8D82085F8D73008F057F8AB6F2046F3
:1035D80043F00103AB6738BD0120FCE72FC904F7AE
:1035E8006FDB0080406810B590F88430042B28D138
:1035F800D1F801304A1CD1F80540C0F8D430C3F3E3
:103608000763C0F8D84043F0080380F8D730002398
:1036180080F8BE3080F8843090F8743103F0FF04ED
:103628000BB1002010BD038800F5B67044724381C9
:10363800D1F801300449C3605368036107F007FFFC
:10364800EFE70120EEE700BF43BA0000406890F8BA
:10365800743143B9038800F5B670034943811A23CE
:10366800437207F0F4BE704743BA000010B5044631
:10367800FEF748FE044A054B024009200B40C4F8F7
:103688000120C4F8053010BD2FC904F76FDB008096
:1036980037B50C464568FEF735FE0A4B0A4A034023
:1036A8000A4095F8D41000930B4001928DF8003031
:1036B8006B4603CBC4F801000920C4F8051003B019
:1036C80030BD00BF2FC904F76FDB008038B5DB04BD
:1036D800154604D5837C13B10023036338BD046BFE
:1036E8000134046308F010FA436B9C42F6D30023BC
:1036F800034903632846BDE8384007F0B1BE00BF60
:103708009FBA000038B54468054694F88430012B08
:1037180002D0A36F98073AD494F8C5309A0713D407
:103728004A78D80784F8CF204A88A4F8D0208A8815
:10373800A4F8D22043F0020284F8C5200FD5154919
:1037480004F1C60007F08CFE94F8C530D90711D4EF
:10375800A36F9A0708D557214020FCF733FF94F848
:103768002A31002BEBD1EFE743F002032846A36789
:1037780007F083FF94F88430012B4FF0000301D049
:10378800002038BD84F8843084F8BE30F8E7012082
:10379800F7E700BF31BB000070B54568044602F08A
:1037A80095F9054B014685F883001B681BB1204637
:1037B800BDE87040184770BDB0070020024B1B6879
:1037C80003B11847704700BFAC070020F0B51F4D84
:1037D80000242B7814709BB1013B6D68DBB21E1B73
:1037E800012E0FDC05EBC40655F8347076688E425E
:1037F80008BF874227D0B84271EB060612D2147070
:103808000020F0BD1E197710C6F3470655F837C0DB
:1038180005EBC70E8445DEF804708F412CBF334694
:103828003446DCE705EBC30455F8335064688C4232
:1038380008BF854206D0A84271EB040428BF0133B3
:103848001370DDE71C4601201470DAE7E417002046
:1038580010F0070208B503D063214820FCF7B2FE38
:1038680018B1034B197258601A70C80008BD00BF20
:10387800E4170020014B00221A707047E41700205B
:103888000A460648822302F8033B0368C1F803305E
:103898004368536083689360704700BFED1700204A
:1038A80016220021014809F027BC00BFED170020AF
:1038B80082B002AB03E903000D48437DB3B1530660
:1038C80014D50A880C30B1F87E3020F80C2CD1F8C9
:1038D800402220F80A3C40F8082CD1F84422054937
:1038E80040F8042C022202B0FFF738BB02B0704740
:1038F800ED17002089380000094B53F8203003F5F4
:10390800224370B5B13316464FF47A720C46B3FBB6
:10391800F2F5344403F030F82C44204470BD00BF65
:1039280068EC02002DE9F04F8BB0044698460F462C
:10393800039290F8699007F0D0F8824694F87300E3
:10394800FFF7E0F8824408F036F994F8853000F182
:1039580048061FFA8AFA0293039B002B44D194F875
:10396800DC31032B40D1029B0D2B29D1B4F85C32FA
:10397800BB4225D1D4F8E4312046B4F8B421C4F8C8
:10398800D031A369C4F8D431B4F852321344C4F81E
:10399800D83102F04DF8D4E99823A262B4F85E2237
:1039A800A361A285D4F86822226241F64B52934261
:1039B8008CBF0023012384F87230022384F8DC31A1
:1039C80094F8853094F88410252B01D025290BD143
:1039D800B4F85C32FB1A1A0406D4A1F12503204678
:1039E8005942594101F0EAFBB4F8505204F5087302
:1039F800B4F87EE07D1B94F869B0A7EB0E0E049333
:103A08002DB20FFA8EFE002D10DA7546D4E98E23FA
:103A1800C4E99223012294F8DC31032B00F2578188
:103A2800DFE813F00600FC0055001D014246F2E7EE
:103A38000121002007F034FB8146A06A5146484422
:103A480003F012FF5146C4F8E001A06903F00CFF2F
:103A580007A9C4F8E40108A802F07EFE079B0093BA
:103A6800DDE90823D4E9920108F0F1FE83462046F7
:103A780008F0B9F8A26AD4F8543294F86900D51855
:103A880002F082FFD4F8E01100F52240203D4FF407
:103A98007A73B13032466D1A3031AD1BB0FBF3F09A
:103AA8004D44A38DA5EB0B0503EB41012D1A94F8AA
:103AB8006900FFF721FFD4F85432C4F8E801EB1A83
:103AC800CC2B59D840F2E4413020FCF77BFDA36AA7
:103AD8005146D4F8D401184403F0C6FE5146C4F840
:103AE800E001A06903F0C0FEC4F8E401204608F034
:103AF8007AF8A36AD4F8D4511D44B4F8B431002B31
:103B080040F08880B8F1000F00F0848094F86900D4
:103B180002F03AFFD4F8E011D4F8403200F5224020
:103B28006D1A94F86920B130203D1D44824B53F83A
:103B380022204FF47A7302F2E732D4E98E9AB2FB6C
:103B4800F3F2A5EB0905B0FBF3F01544AD1B2D1AF4
:103B5800D4F8D821D4F8D03194F8690002FB0313C3
:103B6800A18D3246303301EB4301FFF7C5FE012337
:103B7800C4F8E80184F8DC31A369D4F8E421A93B4E
:103B88009B1A9E1B0023864284F82032D4E9923285
:103B980028BF064604F130005B19C4F8B06142F151
:103BA8000002C4E98C3207F0D2FC04233044A4F8A4
:103BB800507284F82932C4F82402D4E98C23C4E969
:103BC8009223B4F8A031DB1B1BB2002BD4BF002218
:103BD8000122520084F82822029A0D2A7AD0B8F1DC
:103BE800000F7AD194F8DC31002B00F09280A169A3
:103BF80004F50870D4F8E431C91A07F0FDF980B269
:103C0800002800F08680149B03B1188001200BB0B7
:103C1800BDE8F08FD4F8E0116D1A99E7D4F8E40103
:103C2800A369B4F8B4C11B1AD4F8D811F444D4F871
:103C3800D0215D43D4F8E031ACEB010C30330CF10A
:103C4800FF3C02FB0133A18D324600FB0C3301EB34
:103C580043015846FFF750FEC4F8E8018CE7D4F852
:103C6800E4A1A369B4F8B4C1A3EB0A035D4332B37A
:103C7800BCF1000F23D1D4E99023D4E98E019042FE
:103C880071EB030302D340F22B511DE72A4B203A74
:103C980053F829304FF47A79D4E98E01CDE904013B
:103CA80003F2E73103F522430498B133121AB1FB4A
:103CB800F9F1B3FBF9F30A44D21A921B15440CEB41
:103CC8000E0132460AFB01F130314900C1E740F2EA
:103CD8004351F9E6B8F1000F1BD0B4F8C80110B38E
:103CE800B4F8CA1194F8CC214D1CA4F8CA1101FBF0
:103CF800022290420DDD002B0BDD0023A4F8CA51EF
:103D080084F82832FFF7AEF900F00700013084F894
:103D1800CC0104F5087104F5FC7004F0E3FD20B94A
:103D280040F28D51D0E60146DCE7039B83F00103A6
:103D380084F8F43100206AE768EC0200F7B504461D
:103D480018B9DD213020FCF73DFC072900F2B580C9
:103D5800DFE801F0048244443FB32FB108F02CFEA1
:103D6800C4E94601204600F06BFFD4F80C01A438E2
:103D780008F067FD204608F0D3FA054608BB01465F
:103D8800204608F00AFA00F1AE06D4F80C01B04259
:103D980009D2301A0321192838BF192008F0DEFD8E
:103DA80068B108F050FDC4F80C61204608F0C8FA64
:103DB8004DB1204603B0BDE8F04008F0C2BA012575
:103DC800F1E70025F1E7D4E94623C4E9402303B02D
:103DD800F0BD03B0BDE8F04002F0CABC08F0E8F955
:103DE800042307460E4684F8113108F028FD0722FF
:103DF800A7FB023502FB0655D4F804210192D4F83A
:103E080000219B18019A45EB0205D4F8E82032B14D
:103E180057EA060203D0984271EB050216D2022235
:103E280084F81021D4F82021D4F824C1121A6CEB9C
:103E3800010C94F830E1BEF1000F09D1012A7CF1A0
:103E4800000E0DDA204600F003FF05E00122E7E747
:103E5800012A7CF1000CF5DB002384F82831B6E751
:103E6800984271EB050E0ED23E430CD01B1A65EB3F
:103E780001019A427CEB010005DB012B71F1000086
:103E8800A4BF1A468C460E49012304F1C000914292
:103E980084F829314FF0000384F8083173EB0C03E0
:103EA800B8BF0A4604F5847104F0ACFD00288ED131
:103EB80040F2CA6146E7FB2144E7FF2142E700BF21
:103EC8000040420F2DE9F84304460E46154690F887
:103ED800283103F0FF07002B40F0948000F1C00860
:103EE80039467822404609F007F9224646494046B5
:103EF80008F0D4FDC4F8E860FF2384F8283166B1DF
:103F0800FFF7C8F800F0070032464049013086F84C
:103F1800CC0106F5FC7008F0C1FD40F202434FF0F9
:103F28000009A4F8103184F8089103F0F3FC00F1BB
:103F38004906204608F0F4F90146B6B2C0B306F0C7
:103F4800CCFD00F5CD61284689B203F08DFC2844EC
:103F5800AE3DC4F80C0108F072FC3018A4F81E90AD
:103F680041F10001C4E94601012084F8EC0008F0A1
:103F780082FA2D1AC4F8F0504FF0FF356FF0004167
:103F88004046D4E94623C4E94851002504F5847124
:103F9800C4E93E23C4E9402384F8295142F210724F
:103FA80004F030FD38BB40F2C9113020FCF70AFBA1
:103FB8002046DFF85C9008F0F0F8AE30C4F80C0149
:103FC800B9F8000048B1E08B38B1FFF763F8B9F8E9
:103FD8000030B0FBF3F202FB1300064408F02FFC9C
:103FE800361841F10001C4E94661002DC4D0AD196D
:103FF80041F10001C4E72946204608F0A4F93846F3
:10400800BDE8F8830C27FAE7453D000009BC00002D
:1040180010180020F0B5002385B0CDE90033012346
:104028008DF806306846FCF7ABFE70B10123114EDF
:10403800B3700023CDE9023302A8FCF7A1FE0446C1
:1040480038B10023B37005B0F0BD009807F0D1FE79
:10405800E8E7029D95F8DC31002BEDD005F5FC77FB
:10406800384604F09FFC384608F03EFD85F8DC41F0
:10407800E2E700BF10180020044B0022DA709A70A3
:1040880042F210721A80FFF7C5BF00BF1018002057
:10409800014BD870704700BF1018002008B502F017
:1040A80059F8044B5A6882422ABF9878002080F059
:1040B800010008BD10180020F7B5044606297AD873
:1040C800DFE801F0042715252B3074003B4B9B7863
:1040D80003F0FF025BB900920123B0F8A411FFF7C7
:1040E80021FC38B140F2E6613020FCF76BFA04237A
:1040F80084F8DC3102F01CFA04F0E0FB0023B4F889
:104108007E20A4F85232A4F8F22184F8F53103B0E5
:10411800F0BD032380F8DC31F9E708F019FBC4E9A6
:104128009001F4E790F8690007F04DFD7730D4F876
:10413800E4319528A569214F8CBF0020C0F1960075
:10414800C218954288BFED1AFB7894BF00252D1A36
:104158001BB9236B9D4228BF1D46D4F8B06104F1FA
:10416800300007F0F4F90644022008F0CDFB0221E4
:10417800AD1B25EAE575854228BF0546284608F0A7
:10418800EDFB10B12E4408F05EFB01234FF4807262
:104198003146204607F038FAD4F8B0317860A06983
:1041A800184403B0BDE8F04008F04BBB03B0BDE8CD
:1041B800F04007F018BD40F2B47195E710180020E0
:1041C800014B1880704700BF101800200346074AAB
:1041D8001068D3F84920C0F80320B3F84D20A0F8A0
:1041E800072093F8481007F055B800BF18180020AA
:1041F80070B504460E461346807D6588324615F034
:10420800040118BF04F15701FEF7A0FB410705465A
:1042180021D4C2070BD50123A07D84F84830FEF7CE
:10422800F9FB0368C4F849308388A4F84D30AB071C
:1042380001D4012070BD094B01211868D4F857300A
:1042480084F85610C0F80930B4F85B30A0F80D3087
:1042580007F029F8EDE70020ECE700BF1818002068
:1042680038B5C38C04460F4D0133C3F30E03C38422
:104278002B7C2BB102F03AFA01F0C4FC00232B741A
:1042880000232B7194F869302BB101212046BDE839
:10429800384007F07CBE637C13B1E28C9A42F4D2BA
:1042A8000021F3E71818002010B5074C2379012BDB
:1042B80005D1237C1BB102F019FA01F0A3FCA06917
:1042C800BDE81040FFF7CCBF1818002070B5254C8A
:1042D8002379012B04D040F671412D20FCF772F9A7
:1042E80098B90125237C1BB102F000FA01F08AFC81
:1042F800002D36D0A06907F097FD68B302F0C2F828
:10430800E369BDE870409B6818472168A26911F805
:10431800095B02F1490392F84820E80906F0BCFD60
:104328000028DED00021206806F0E2FF0028D8D05F
:104338002379A069012B02D040F64B41CDE72379C0
:1043480005F00F01E26903F180435269013B52F81D
:10435800233098470546C5E7A069BDE87040FFF7D8
:104368007FBF70BD181800200346074A906903B93B
:1043780009B9FFF775BF1379D26903F18043126950
:10438800023B52F8233018471818002003292DE95A
:10439800F043054685B0174607D14388980723D4CC
:1043A8000024204605B0BDE8F083428890F86830C4
:1043B800D107DBB2F4D5002BF2D14FF00108DFF8BA
:1043C800D49099F81060C6B106F0AAFD0828387094
:1043D80016D002AA0DF10701FEF78EFA38B940F699
:1043E800E6612D20FCF7EEF84FF00208E7E702A996
:1043F8009DF8070007F0D5FB06463B78082B08D147
:10440800D9F8001011F8030BC0F3801007F0C9FBAE
:104418000646D9F8001005F1500395F84F2011F819
:10442800030BC0F3801006F037FDD9F800100446DE
:1044380011F8030BC0F3801006F068FD8146FEF703
:10444800FBFA40B1B9F1080F1BD04846FEF780F9D6
:1044580080F00103D8B23A78082A14D01CB9AC7D90
:10446800A21A544254416A8853079AD4002897D113
:1044780076B9EC7C444518BF002C0CBF01240024FD
:104488008FE70020E7E780F001022240D4B2EAE794
:10449800344686E7181800202DE9F04F85B0082328
:1044A800052104460DF107028DF80730FFF76EFF6E
:1044B800064620B90026304605B0BDE8F08F734F98
:1044C800396807F112037A7C11F8030BC0F38010E6
:1044D80006F0E2FC80460028ECD13B6840F2E24955
:1044E800A169184691F88C2010F8035B02EA55126E
:1044F8001D4602F0010281F88C20D3F80320C1F890
:1045080003208288A1F8072015F81F1BA269C1F3B0
:104518008011917002A9D3F81F00029028790871C0
:10452800D3F80F00D061587D1D7D000440EA0520B6
:10453800DD7C28435062B3F8190082F8728009FBC9
:1045480000F090619D7DC5EB451005EB800505EBFE
:1045580085056D009585B3F8170009FB00F090629A
:10456800B3F81B001084B3F81D00508493F824306E
:1045780003F01F005B0982F8980082F87330A56980
:1045880094F912A005F18C0006F0E0FD40F2011349
:10459800A5F868304FF0FF0B85F86AB0414605F181
:1045A8003000FEF7E7FC51462846FEF7A1FAA3695A
:1045B80084F8738004F17E011A8884F891B0A4F815
:1045C80074204FF6FF729DF80700A4F892209A69AC
:1045D800B2FBF9F2A4F88A201A8CA4F88C205A8C21
:1045E800A4F88E2093F8732084F89020627D5AB343
:1045F80094F84820012A27D194F84E2002F0C002EE
:10460800402A21D1D4F84920C4F87E20B4F84D209E
:104618008A8008289A7803F1030504F1840184F854
:10462800772004F17802D3F8033027D0C4F8843017
:10463800AB888B8004F17701FEF75EF940B940F64C
:10464800D1312D20FBF7BEFF0022C4F87E20DFE722
:1046580094F8773043F0020384F8773004F16A0065
:104668000B4906F0F4FE0B4B0022A0691B683A7157
:10467800002B3FF420AF214698471CE7A367AB887F
:1046880093800023C4F884308B80E7E71818002053
:10469800BFC00000B8070020032937B5044604D07E
:1046A800052957D0012003B030BD08230DF10702BA
:1046B8008DF80730FFF76AFE0028F3D0237C2A4DD7
:1046C80003B39DF8070094F8B630DBB923780828BF
:1046D80004F1B90284F8B7302DD004F1B801FEF71F
:1046E8000BF920B940F65C712D20FBF76BFF94F8AD
:1046F800B83043F0020384F8B8301C4904F1AE0026
:1047080006F0A5FE2B68042220461A7006225A706D
:10471800FFF75CFD616B94F83820286806F0D9FD36
:10472800032328682B7101F065FF0021286808F031
:1047380019F80020B7E72868034613F8031BC1F3EC
:10474800801184F8B810D0F80310C4F8B9109B8809
:104758009380D2E7064B1B68002BEAD0984780F07D
:104768000100C0B29FE700BF18180020A7C00000D2
:10477800B4070020F8B504460F4619B300F1200528
:10478800284607F055FEA0B963881A072ED5284693
:1047980007F063FE0646284607F04AFE301AC0B204
:1047A80007F069FE494A936803442846936007F076
:1047B8001EFE284607F020FE01F0B0FD21792520D5
:1047C80001F010FD414E002394F856203068037024
:1047D80043706388103B0D2B68D8DFE803F06367EC
:1047E8005F0C674467676767676767442046BDE88B
:1047F800F840FFF735BD0623437020230370204699
:10480800FFF7E4FC638823F008039BB2152B05D05F
:1048180094F83020E16A306806F04CFD306801F009
:10482800E9FE0021306807F09DFF0223217900206E
:10483800337101F09FFD054607B9F06063881B07D7
:1048480004D507F015FE0544C4F8F4506388103BFE
:104858000D2B36D8DFE803F038352F2F352F3535B7
:1048680035353535352F0C2321214370034603F8A0
:10487800091B52B1D4F857200121C0F80920B4F817
:104888005B209A8006F00FFDB9E7226DC0F8092079
:10489800B4F854209A8094F84F10F3E70623037075
:1048A8004370ACE7022303700623F9E740F24D6139
:1048B8002D20FBF787FE21790120BDE8F84001F0A3
:1048C8002FBF40F6E441F3E7F8BD00BF18180020F9
:1048D80038B543880446102B04D10121BDE838407F
:1048E800FFF748BF0B4D2B7C23B101F065F9402041
:1048F80001F0F0FE286801F07DFE608810F00400E9
:1049080002D1217901F00CFF002001F0C1FE012342
:104918002B7138BD18180020024B01219869FFF748
:1049280029BF00BF1818002010B5124C237C1BB1FA
:1049380001F0DCFE01F066F9A06907F075FA38B1FC
:104948002379012B09D040F675312D20FBF73AFE6B
:10495800A069BDE81040FFF783BC2379E26903F141
:104968008043A069D268013BBDE8104052F823306B
:10497800184700BF18180020074810B5037903F03E
:10498800FF0433B914222146043008F0B5FB204651
:1049980010BD0C24FBE700BF1818002010B5002339
:1049A800094C2371FDF79AFC2060FFF7E5FF20B161
:1049B8004FF43F712D20FBF705FEE36913B940F270
:1049C800FF21F7E710BD00BF18180020014B024A6D
:1049D800DA617047181800209C4C0000034B044A09
:1049E8001A60044B044A1A60704700BFB4070020DD
:1049F800A1440000B807002047BF0000F8B5057DB6
:104A08000446AF1EFFB2002D3AD0012F2DD800F179
:104A1800500190F84F0006F079FA0828064624D08D
:104A2800FDF7A2FE10BB023D18BF0125012F84F837
:104A38004850A6758CBF002701276775FDF756FFFC
:104A4800054607F0FCFE0022144B84F85620E5FBCF
:104A58000301C4E9100111462046FFF7C9FB70B9EC
:104A680040F297412D20FBF7ADFD0826022D09D114
:104A780004F149010020FDF705FD60B90020F8BDEB
:104A88000826F5E704F149010120FDF7FBFC0028A1
:104A9800F4D00125CAE70025C8E700BF40420F004F
:104AA800F0B5444E85B00446327902F0FF0312B9DE
:104AB8000278FF2A04D140F6CF112D20FBF782FDA2
:104AC800B36080F869303C4B684604F120050093D8
:104AD8003A4B01933A4B0293F3695B68039301F0F5
:104AE80081FD01F0ABFB01F001FE01F08BF83548C8
:104AF80001F00AFC344801F06FFD284607F077FC06
:104B0800284607F079FC01F009FC2179252001F0FD
:104B180069FB94F9120001F0F1FB04F12C01A06A81
:104B280005F094FA074604F13401A06A05F0B5FAD5
:104B38000546DFB1237FCBB1B4F92650ED43ED0F25
:104B4800637D13B963885B0709D56FF00043D4E927
:104B580010129A4208BFB1F1FF3F0DD19DB93068DC
:104B68000330FDF7E1FE307405B0F0BD002DE7D04D
:104B7800657F002DE0D1E3E707F061FED4E910235B
:104B880090429941EAD3012229462046FFF730FB9B
:104B980050B1FDF7ABFE054607F051FE0B4BE5FBA8
:104BA8000301C4E91001DAE7002DD8D040F60D2141
:104BB80083E700BF1818002031490000D5420000E3
:104BC80071430000D6BE898E5555550040420F00EE
:104BD80073B50446FFF764FF00212046FFF7CAFDBE
:104BE800236E0BB101221A606388DB0721D50023ED
:104BF800114EA569CDE90033FF2373746846FCF7AD
:104C0800BFF8B0B9009CA542F8D005F10A036A7A4A
:104C180004F10A01607A06F03FF90028EED0A37883
:104C28007374D4F80330C6F81230044BB4F8072074
:104C38009A8002B070BD00BF181800202A18002002
:104C4800024B9861DB691B68184700BF18180020E1
:104C580043881B0710B504460ED583693C220849D2
:104C68006A3042721B884381FF2380F827304FF651
:104C7800FF73038506F0EBFBFF2384F8693010BD52
:104C8800BFC000000BC10000D948000011C10000DE
:104C9800A1460000D94B0000B142000021490000A4
:104CA8008C4C0000904C0000984C00000138022801
:104CB80008B503D9C4212F20FBF784FC13290A4B1C
:104CC80005D811290CD8102907D0D221F3E71529C6
:104CD800FBD103EB4003D88801E033F8100008BD8E
:104CE80003EB40039889FAE7E6EB02002D4A38B552
:104CF8000346148950681C43402B148104D10421B5
:104D0800BDE83840FFF7D8B9802B01D10521F7E776
:104D180003F00304032C04D140F6AC213120FBF747
:104D280051FCDD0706D50C68D1602478062C0FD01D
:104D38000B2C19D09C0706D5096809780529117428
:104D48001DD00B2927D09B0644BF0823537438BDB8
:104D580090F88540182CEDD100240025C0E938458D
:104D6800012480F88940E5E790F88540122C01BFBE
:104D7800002480F88940012480F8C440DAE790F8DC
:104D880085101629DFD1002400250121C0E93A4504
:104D980080F88A10D7E790F885101129D3D100211F
:104DA800F6E700BF381800200C4A0346517C89B941
:104DB800506833B9B0F85810828F91420AD8FFF77B
:104DC8006DB913891B0707D590F88600073818BFF7
:104DD80001207047002070470120704738180020D4
:104DE80073B5044640680D46836F13F0300F4AD1FF
:104DF800B1F805101A2904D9B5F80730B3F5A47F1E
:104E080006D22978204602B0BDE8704006F067BC9B
:104E1800B5F801201A2AF4D9B5F80360B6F5A47FCD
:104E2800EFD33030009606F0A4FB184B1A8992078E
:104E38000DD51B7C142B0AD16268936F43F01003C5
:104E48009367204606F019FC002002B070BD636825
:104E580093F884201D2AEFD093F81B31002BEBD157
:104E6800636893F81A31002BE6D16268936F114694
:104E780002F59F7243F0200331F8300B42F8C63C2C
:104E8800FEF7DCF8DDE70120DFE700BF3818002077
:104E980013B5044601A8FDF79FFA20B940F6B10101
:104EA8003120FBF78FFB22220021019808F024F91A
:104EB80001992246064801F8034FFEF7A9F9FDF7C4
:104EC80097FA10B940F6B801EAE702B010BD00BF82
:104ED800381800202DE9F8436A4D06466C6800280A
:104EE80040F08C802B891A072DD594F80E31FE2BB3
:104EF80004D140F2D1513120FBF764FBFE2384F842
:104F08000E3194F885301A2B06D184F8C300284650
:104F180006F0BDFB84F8856094F88430202B0AD114
:104F280094F88530A3F12002062A2AD92E2B28D0FE
:104F3800212384F8843094F88630072B02BF02239B
:104F4800AB7484F80E312B89DB071CD42B895F07DF
:104F58007CD4990740F18480287C01226B680D2855
:104F680083F80F2179D0112800F08580072800F0F8
:104F78008480FEF7FDF9034600286FD140F2C45142
:104F8800B9E72E23D5E7D5F80480E96898F8853085
:104F9800D1F80090113B99F800700B2B09D8BB1E73
:104FA800DBB2092B6BD840F2333222FA03F3D8076D
:104FB80065D509793846FDF7B3FD20B9394631483A
:104FC80006F08DFB3AE0012F01D9162F22D198F86F
:104FD800840006F071FB40B198F88430202B04D08F
:104FE800212B07D12E2388F884303846FEF7B6F9EE
:104FF80003461CE0162F14BF022620266B7C1B07D5
:1050080005D594F88530113B0B2B98BF0826304600
:10501800BDE8F883112F15D005D8072F14D00D2F10
:10502800E3D1194B05E0142FDFD1184B1B68002B77
:10503800C4D0EA684946134812799847002885D0B1
:105048000646DBE7124BF4E7124BF2E794F88620AA
:10505800062A04BF0122AA747BE70F4B0948984728
:105068002B89DA06CAD594F885300A2BC6D10B23CA
:1050780084F88530C2E7094BF0E7094BEEE70826CC
:10508800BCE700BF3818002009C60000BC07002094
:1050980051C60000AD50000025C5000075C50000D0
:1050A800A5C5000070B54D780446A5F10E03DBB226
:1050B800152B0DD8012140F2512201FA03F61642B0
:1050C80008D14268152B92F8842027D0082B07D0E6
:1050D800002070BD02462846BDE8704007F0CFB9F1
:1050E800212A01D02E2AF3D1204606F0BDFA6368A2
:1050F80093F88520222AEBD093F8D5201A21204650
:1051080022F0010283F8D520626892F8D53023F0A6
:10511800080382F8D530FDF71DF9D9E7282AD7D139
:10512800024B1B68002BD3D09847D1E7C407002057
:105138002DE9F041A0F10E0400291346E4B208BF9E
:105148001F21172C0AD8012640F25127A6403E42BB
:1051580007D116F4600F23D1082C07D00020BDE832
:10516800F0810021BDE8F04107F089B9546894F84E
:105178008420212A08D11846FDF7ECF8002384F88A
:10518800843084F8BE30E9E72E2AE7D194F88520E8
:10519800A2F120010629F1D92E2AEFD02A21EAE727
:1051A800054A1468002CD9D00A46014618462346F9
:1051B800BDE8F041184700BFC0070020F7B501233C
:1051C80090F85E6204460D4690F85F7201908DF883
:1051D80000304EBB90F8681047BB94F8693084F8EB
:1051E800681084F86930FF2384F86A30134B1B6811
:1051F8000BB12046984794F82431012B01D03E4347
:1052080003D000216846FDF7A5F804F235112046C1
:10521800FDF7C6FE06212046FEF74EFF45B10023E6
:1052280084F8843003B0F0BD3146D5E73B46D6E775
:1052380084F8855084F82451F4E700BFC80700209B
:10524800F7B5464D00260122044668602A702E8173
:105258006E74AE74FF2180F8AB11B0F8A211D1B111
:1052680090F80E31FE2B16D190F818319BB190F8BA
:105278008630063B93420ED990F819310221A0F8E6
:10528800B86080F8103107F058F9022084F8AA6154
:10529800FFF7FEFD03E094F80E01FE28F8D1B4F8FC
:1052A800A61104F17807E38D0139B4F8A82138462E
:1052B80089B2B1FBF3F31344A4F8A831B4F8B430BD
:1052C8000B44A4F8B43007F08AF920B1D4F8A83018
:1052D8000B44C4F8A830B4F8A2310026012B9CBFB7
:1052E8000133A4F8A23109B184F8AF6194F885308C
:1052F80084F8AA610A3B012B11D8B4F87E30B4F8BF
:105308005C229B1A1B040AD404F25E2104F18C006F
:1053180005F01CFF84F88560FF2384F8BF30B4F8DB
:10532800A6212146384605F058FF20B140F6B811AD
:105338003120FBF747F994F88530094A113B0B2BCC
:105348008CBF002301230193064B0093064B95E87D
:105358000300FBF77DFF03B0F0BD00BF3818002045
:10536800F54C000075530000B14D00002DE9F84FD1
:10537800B54F0E46804639897C688D0504F1780959
:1053880054BFB4F8B4200023484653BF0132A4F8F0
:10539800B43084F8AF31A4F8B42007F020F930B164
:1053A8000B4604F5967221464846FEF78FF93B896D
:1053B80003F4C0632BB194F88830002B46D0032B3C
:1053C8004BD094F888203B89012A04D1180544BFA2
:1053D800022284F88820B8F1000F40F09480590622
:1053E80057BFB4F8C8214246013292B2A4F8C82186
:1053F80003F00A020A2A0CD13A7C022A09D123F0C6
:10540800080330463B81FFF765FD30430823C6B2E9
:105418003B813046FFF75EFD7D68304395F80E31DD
:10542800C6B2FE2B3CD1DEBB95F88630063B012B7D
:1054380036D995F81831ABB195F819310122022106
:10544800A5F8B86085F81031284628E1012184F8CC
:1054580088102046FEF730FEB3E70223012184F8C6
:105468008830F6E795F885A0AAF1100A5FFA8AFA5B
:10547800BAF10C0F40F2EA80AB6FDA0702D5324678
:105488000921E1E7980740F1928032460C2128462D
:1054980007F053F895F8C53043F0010385F8C53097
:1054A800B4F8A83194F8AC510133A4F8A831002D10
:1054B80000F0ED81FBF7DAFF10B10023A4F8A83162
:1054C80094F88810012940F2178294F88630072B47
:1054D80040F0F581B4F8B430022B40F20D82B4F8F4
:1054E800B6500135ADB2B4F87E302B44A4F8A031E3
:1054F80094F8AD31002B00F003820123B4F87E202C
:105508001344A4F8A4313B897D685B0657BFB5F8FE
:10551800B4310023B5F8A6219B1858BF9BB2A5F853
:10552800B43195F8183123B995F88630063B012B2C
:1055380006D8B5F8B830B5F8A6211344A5F8B830A0
:1055480095F8BE1031B1B5F8BA30B5F8A6211344B4
:10555800A5F8BA3095F9C220002AC1BFB5F8C03005
:10556800B5F8A6011B18A5F8C03095F8A73063B99F
:10557800B8F1000F40F05582BB7C022B40F0078247
:1055880095F81031062B18BF162395F8A62022B9D6
:105598002D4885F8A730FDF7F5FE284607F082F874
:1055A800002384F8AB31BDE8F84FFCF73DBF59073D
:1055B80002D53246132147E71A0706D595F8083170
:1055C800324685F8103107213EE713F0300F35D009
:1055D80095F81B31002B48D195F81A31CBB195F8C5
:1055E800853005F58D7105F25E22252B24D095F8BE
:1055F8008430A3F1250043424341284605F0ABFF20
:10560800AB6F23F0200343F01003AB67002385F84A
:105618001A31AB6FDA0628D505F235112846FDF7A1
:10562800BFFCB5F8523000221521A5F81031B5F8A5
:105638005630A5F8123107E70123DEE75B0614D5DB
:105648000022242100E700BF38180020D7F804B052
:105658009BF88530113B0B2B0ED8DFE803F01D0DAE
:105668000D0D232C0D0D0D0D0D55786890F8853016
:10567800222B4FD0312B4AD095F88430002B59D1AA
:1056880095F88530103B0C2B5CD995F8B230002B7F
:1056980058D001221221D7E600220B21584606F0E5
:1056A8004CFFFDE65846FDF7E1FE00283FF4F8AE52
:1056B80000220421F2E79BF85832012B08D100227E
:1056C8000521584606F039FF00238BF85832E7E6E3
:1056D8009BF85832022BD9B27FF4E2AE9BF8C45043
:1056E80025B1062300228BF81031EAE703210622B0
:1056F800B34805F0DBFF9BF8D4302A4613F0040FBB
:105708000CBF0D211121DCE700220621C6E700228B
:105718001121C4E790F82431022B02D1002217216D
:10572800BDE790F82431012BA6D190F82531002B44
:10573800F4D0A1E7092B05D195F80931012285F8A4
:10574800103140E7BAF10C0F7FF6AAAE7D6895F8E4
:1057580084A0BAF1000F7FF4A3AE95F82B313BB1CA
:1057680001220E21284606F0E8FE85F82BA1AEE7B7
:1057780095F82A3183B195F8C5A01AF0030B0BD11F
:105788004AF0010A01220C21284606F0D6FE85F8C7
:10579800C5A085F82AB19AE795F81A3133B395F878
:1057A8001B311BBB95F8853005F58D7105F25E221E
:1057B800252B19D095F88430A3F1250043424341A5
:1057C800284605F0C8FE002385F81A310122142165
:1057D800284606F0B2FEB5F85230A5F81031B5F8F3
:1057E8005630A5F812315BE60123E9E795F8243134
:1057F800012B3FD195F82531002B3BD195F8853009
:10580800A3F12002062A35D92E2B33D095F868004B
:10581800012806D0022804D040F287310620FAF782
:10582800D1FE95F86910012901D00229F4D1022886
:1058380095F826210BD0012A14BF0022012242B973
:105848000A3B042B7FF62CAE01221621FCE5022A26
:10585800F2E7022995F827210AD0012A14BF00226D
:105868000122002AECD000215548FCF773FD17E609
:10587800022AF3E7534B1B68002B3FF411AE504844
:105888009847FE2801463FF40BAE0122DCE5FBF702
:10589800E7FD08B1A4F8A851FBF7F0FD00283FF494
:1058A8000FAE94F8AF310133DBB2022B84F8AF317D
:1058B80082BF0023A4F8A83184F8AF3100E694F839
:1058C800B2301BB194F884300F2B15D1B4F8B65010
:1058D8004846B4F8B430ED1A033D06F080FE68B1CE
:1058E800D4F8AC30D4F8A820033B9B1A9D42A8BF3B
:1058F8001D46012D3FF7F6AD0125F4E52B46F5E7EA
:10590800012D7FF6FAAD94F8853013B10B2B7FF497
:10591800F4AD94F88430002B7FF4EFAD94F8863022
:10592800002B7FF4EAAD02297FF4E7AD94F8AF319C
:10593800002B7FF4E2AD2069B4F82E9004F0D4F97E
:1059480000283FF4DAAD94F80E31FE2B7FF4D5AD84
:10595800B4F8A231012B7FF6D0ADB4F8A821238C7E
:105968009A42BFF4CAAD013D9B1AADB29BB2B5FBDA
:10597800F9F59D4228BF1D4605FB09F3003D03F1DB
:10598800010318BF01259BB284F8AA51B6E5012B83
:1059980009D195F88730002B7FF4F7AD0021284610
:1059A800FEF78AFBFCE57EB1F00638D4310738D41F
:1059B800B20638D4B30738D140F62D2131202EE76E
:1059C80038180020CC07002039B1B5F8BA10B5F85E
:1059D800BC30994201D32223D7E5002A05DDB5F86A
:1059E800C020B5F8BC309A42F5D2B5F8B820B5F861
:1059F800B6309A420AD295F88820B5F8B43052B138
:105A0800B5F8B6209A42C9D80823BEE595F81831EA
:105A1800002BE0D1EFE7052BC0D93E23B5E51E23C7
:105A2800B3E53D23B1E52323AFE52A23ADE500BF68
:105A3800D0F864328269934210B5044604D1D0F894
:105A48006812026A914215D0228804F5C0700F4985
:105A5800A4F88A2140F2E242B3FBF2F3A4F88C31B5
:105A6800B4F86832A4F88E31B4F86A32A4F89031E8
:105A780005F0F6FC0221204605F069FA002384F8B7
:105A88008530032384F8883010BD00BFF1B70000CB
:105A980008B5FDF791FB024B024A1A6008BD00BF2A
:105AA800BC070020E94D0000074B93F9003018446B
:105AB800142804DC10F17F0F03DB40B27047142078
:105AC80070476FF07E0070474D1800207F2307B5A0
:105AD8000DF107008DF8073000F016FE03469DF91A
:105AE800070053B1094B5B785B425BB2184414283A
:105AF80006DC10F17F0F05DB40B203B05DF804FB54
:105B08001420FAE76FF07E00F7E700BF4D18002079
:105B1800024B00221A705A70704700BF4D180020BF
:105B2800064BD3F8000138B1D3F8040120B1D3F8FB
:105B38000801B0FA80F04009704700BF00A0045087
:105B4800034B00221A705A7010229A70704700BFD7
:105B580050180020F8B50646022014460D4600F0FD
:105B6800CDF8114B114A01275C60191D9A6002F1AA
:105B7800807203342D011F70DC601D83C3E9042685
:105B88000022243303F80A2C0D2203F8092C084AB2
:105B9800C2F83015074903C983E80300C2F808753D
:105BA800C2F83835F8BD00BF501800200300000BBC
:105BB80000A00450F8EB020008B5022000F09EF89F
:105BC8000D4B01221A7000220C4BC3F80021C3F8B8
:105BD8000421C3F808210A4AC3F8802003F5643376
:105BE800C3F88C20A3F57C33C3F88C21A3F50053AC
:105BF8000822C3F8042508BD5018002000A004504E
:105C080003000080154A08B51378FBB10023144936
:105C1800C1F8803001F56431C1F88C30A1F57C31D0
:105C2800C1F88C3108210F4BC3F80815FFF778FF2E
:105C380088B101235370938EFF2B03D9BA213B20DF
:105C4800FAF7C0FCDBB29370002313700020BDE8A4
:105C5800084000F053B810235070F4E750180020A3
:105C680000A0045000200450094B1A7862B1094B77
:105C7800D3F8002152B1D3F8040140B1D3F8080198
:105C8800B0FA80F040097047587870470220704792
:105C98005018002000A00450064A08B513782BB10C
