:10000000E85D002021030100DD2F02000D03010047
:100010000D0301000D0301000D03010000000000AD
:10002000000000000000000000000000510401007A
:100030000D03010000000000F10301000D030100A9
:10004000A1050100A1050100A1050100A105010014
:10005000A1050100A1050100A1050100A105010004
:10006000A1050100A1050100A1050100A1050100F4
:10007000A1050100A1050100A1050100A1050100E4
:10025000A1050100A1510200A1050100A1050100B5
:10026000A1050100A10501008B510200A1050100BB
:10027000A1050100A1050100A1050100A1050100E2
:10028000A1050100A1050100A1050100A1050100D2
:10029000A1050100A1050100A1050100A1050100C2
:1002A000A1050100A1050100A1050100A1050100B2
:1002B000A1050100A1050100A1050100A1050100A2
:1002C000A1050100A1050100A1050100A105010092
:1002D000A1050100A1050100A1050100A105010082
:1002E000A1050100A1050100A1050100A105010072
:1002F000A1050100A1050100A1050100A105010062
:10030000A1050100A1050100A1050100A105010051
:10031000A1050100A1050100A1050100A105010041
:10032000A1050100A1050100A1050100A105010031
:10033000A1050100A1050100A1050100A105010021
:10034000A1050100A1050100A1050100A105010011
:10035000A1050100A1050100A1050100A105010001
:10036000A1050100A1050100A1050100A1050100F1
:10037000A1050100A1050100A1050100A1050100E1
:10038000A1050100A1050100A1050100A1050100D1
:10039000A1050100A1050100A1050100A1050100C1
:1003A000A1050100A1050100A1050100A1050100B1
:1003B000A1050100A1050100A1050100A1050100A1
:1003C000A1050100A1050100A1050100A105010091
:1003D000A105010075510200A1050100A105010060
:1003E000A1050100A1050100A1050100A105010071
:1003F000A1050100A1050100A1050100A105010061
:10040000A1050100A1050100A1050100A105010050
:10041000A1050100A1050100A1050100A105010040
:10042000A1050100A1050100A1050100A105010030
:10043000A1050100A1050100A1050100A105010020
:10044000A1050100A1050100A1050100A105010010
:10045000A1050100A1050100A1050100A105010000
:10046000A1050100A1050100A1050100A1050100F0
:10047000A1050100A1050100A1050100A1050100E0
:10048000A1050100A1050100A1050100A1050100D0
:10049000A1050100A1050100A1050100A1050100C0
:1004A000A1050100A1050100A1050100A1050100B0
:1004B000A1050100A1050100A1050100A1050100A0
:0404C000A105010091
:1004C80080EA101404F0F01480EA0410604081EA15
:1004D800111404F0F01481EA0411614082EA121444
:1004E80004F0F01482EA0412624083EA131404F060
:1004F800F01483EA0413634080EA102404F47F4470
:1005080080EA0420604081EA112404F47F4481EAEF
:100518000421614082EA122404F47F4482EA04221E
:10052800624083EA132404F47F4483EA042363408B
:1005380081EA500404F0553480EA4400614083EABB
:10054800520404F0553482EA4402634082EA90047B
:1005580004F0333480EA8400624083EA910404F0B2
:10056800333481EA84016340704700BF82EA900413
:1005780004F0333480EA8400624083EA910404F092
:10058800333481EA8401634081EA500404F055342D
:1005980080EA4400614083EA520404F0553482EA58
:1005A8004402634080EA102404F47F4480EA042073
:1005B800604081EA112404F47F4481EA0421614007
:1005C80082EA122404F47F4482EA0422624083EA25
:1005D800132404F47F4483EA0423634080EA10145C
:1005E80004F0F01480EA0410604081EA111404F069
:1005F800F01481EA0411614082EA121404F0F01444
:1006080082EA0412624083EA131404F0F01483EAC5
:1006180004136340704700BF2DE9F14F94464FEA39
:10062800930B8A68CB6808684968FFF749FF0BF1A4
:10063800060E33E083EA134480EA134582EA13473F
:1006480046BA96EA3444604000F00F1684EA06344D
:1006580020F00F1684EA161054BA94EA0106724084
:1006680002F00F1486EA043622F00F1486EA1412F8
:100678004CBA6540694001F00F1485EA043521F051
:100688000F1485EA14115CBA67407B4003F00F141D
:1006980087EA043723F00F1487EA1413BCE8F00044
:1006A8006040694072407B4000F0E03400F0103553
:1006B80000F00F3040EA540040EAC50080EA900498
:1006C80004F0332480EA8400604001F0E03401F053
:1006D800103501F00F3141EA540141EAC50181EAC0
:1006E800910404F0332481EA8401614002F0E0348B
:1006F80002F0103502F00F3242EA540242EAC50213
:1007080082EA920404F0332482EA8402624003F00D
:10071800E03403F0103503F00F3343EA540343EA9F
:10072800C50383EA930404F0332483EA8403634013
:1007380081EA324787EA134581EA354690EA06049A
:1007480084EA034B82EA1B4280EA044484EA0544B3
:1007580083EA144A85EA14448BEA044B84EA374452
:1007680081EA0B4181EA164104EA0A00454082EA1F
:1007780004082BEA080041408AEA0B0602EA060050
:1007880084EA34438AEA3A4603EA06077840454051
:10079800414088EA38478BEA3B4007EA000985EA86
:1007A800090583EA0709464006EA0906714085EA11
:1007B800010005EA3546464006EA314181EA304102
:1007C80081EA364606EA304686EA3546344008EA83
:1007D800010886EA01052A4086EA364003405A4065
:1007E80081EA31431F407C4080EA030709EA070990
:1007F80088EA0908544088EA020806EA0A0601EA73
:100808000B018AEA0B0215408AEA3A421040454039
:100818008BEA3B4003405E404240174079404D40E0
:100828004E40E443F64386EA18435D4085EA0540B6
:1008380083EA134386EA034183EA384284EA114390
:1008480083EA04435FEA3343BEF1010E3FF6F2AE9A
:100858001ED4BCE8F0006040694072407B4020BC78
:10086800FFF784FE28606960AA60EB60BDE8F08F3E
:100878002DE9E0414FF2F00280EA1031114080EAA0
:100888000130484041088208C3084FF0000E4FE786
:1008980000F0113001F0113102F0113203F0113380
:1008A80040EA410040EA820040EAC3004FF2F00209
:1008B80080EA1031114080EA01304840BDE8E0810B
:1008C8002DE9F04F02F11C050646074600EB8508A6
:1008D80051F8040B043A46F8040BF9D14FF0010C17
:1008E800FFF7C6FF5FEA302080EA0C001ECF4140C8
:1008F8004A4053405C401EC62000464517D04FEA88
:100908004C0C1CF4807F18BFACF1E50C2C2DE7D003
:100918003C2D06D1FFF7ACFF06CF41404A4006C642
:10092800100006CF41404A4006C61000D8E736E915
:100938000F00FFF7C5FD043D86E80F00F7D1BDE8BD
:10094800F08F00BF2DE9F14F03F11C0402EB840C7A
:100958004FEA930B8A68CB6808684968FFF7B0FDCF
:100968003CE9F0006040694072407B400BF1060EA4
:100978004EE083EA134480EA134582EA134746BAF5
:1009880096EA3444604000F00F1684EA063420F0FA
:100998000F1684EA161054BA94EA0106724002F05F
:1009A8000F1486EA043622F00F1486EA14124CBAA1
:1009B8006540694001F00F1485EA043521F00F14F1
:1009C80085EA14115CBA67407B4003F00F1487EA8C
:1009D800043723F00F1487EA141344BA44404DBA7D
:1009E8004D4056BA56405FBA5F4087EA174886EAD4
:1009F800174B84EA17464FEA38488BEA1B4485EAC6
:100A08001B4788EA1B4580EA3440694072407B40B6
:100A180000F0703400F0803500F00F3040EA4400F8
:100A280040EAD50080EA900404F0332480EA840088
:100A3800604001F0703401F0803501F00F3141EA77
:100A4800440141EAD50181EA910404F0332481EAA2
:100A58008401614002F0703402F0803502F00F32F8
:100A680042EA440242EAD50282EA920404F03324BC
:100A780082EA8402624003F0703403F0803503F0A8
:100A88000F3343EA440343EAD50383EA930404F0AB
:100A9800332483EA84036340C943DB4381EA0004C7
:100AA80083EA044686EA020183EA014382EA33457F
:100AB80083EA14435C4084EA00077FEA040A8AEA6E
:100AC800024A8AEA010B87EA11488AEA374A80EA29
:100AD800060181EA1A418AEA030A04EA0A00454043
:100AE80088EA040707EA0B0041408AEA0B0608EA8D
:100AF800060084EA34428AEA3A4602EA0603584083
:100B08004540414087EA37438BEA3B4003EA000906
:100B180085EA090582EA0309464006EA09067140A2
:100B280085EA010005EA3546464006EA314181EA90
:100B3800304181EA364606EA304686EA3546344090
:100B48000F4086EA010508EA050886EA36400240B1
:100B580088EA020881EA314213405C4080EA0203D5
:100B680009EA030987EA0907674088EA040806EAE8
:100B78000A0601EA0B018AEA0B0425408AEA3A448C
:100B8800204045408BEA3B4B02EA0B02564084EA80
:100B98000B04234059406E40694087EA364080EA9A
:100BA800384080EA060380EA104481EA134585EA62
:100BB800344585EA17427D4082EA354180EA05409E
:100BC8003CE9F0006040694072407B40BEF1010E94
:100BD8003FF6CFAE20BCFFF7C9FC28606960AA6069
:100BE800EB60BDE8F08F00BFFFF76ABE2DE9F007A4
:100BF80091E8F807B2E802105B1854EB0C04B2E86D
:100C080002104D4156EB0C06B2E802104F4158EB6A
:100C18000C08B2E8021059EB01095AEB0C0A80E8FB
:100C2800F80780410130BDE8F00770472DE9F0076B
:100C380091E8F807B2E802105B1A74EB0C04B2E80A
:100C480002108D4176EB0C06B2E802108F4178EB6A
:100C58000C08B2E8021079EB01097AEB0C0A80E87B
:100C6800F80780414042BDE8F00770472DE9F007DA
:100C7800524290E87800B1E880071740DB1918EA7B
:100C8800020854EB080419EA020955EB09051AEAA7
:100C9800020A56EB0A0678C090E87800B1E88007A7
:100CA80017407B4118EA020854EB080419EA0209C4
:100CB80055EB09051AEA020A56EB0A0678C0804184
:100CC8000130BDE8F00770472DE9F007524290E87F
:100CD8007800B1E880071740DB1B18EA020874EBBC
:100CE800080419EA020975EB09051AEA020A76EB03
:100CF8000A0678C090E87800B1E880071740BB4141
:100D080018EA020874EB080419EA020975EB0905E8
:100D18001AEA020A76EB0A0678C080414042BDE82A
:100D2800F00770472DE9F00152424FF0040890E8AF
:100D3800300091E8C000A31B1340E41AF618EB1B1F
:100D48001340ED1AFF1830C0C0C1B8F10108EED148
:100D5800BDE8F001704700BF00B592E8DC072DE957
:100D6800DC07B1E8805702B4A7FB02510A95A8FB3B
:100D7800020B09180020E7FB03105BEB000B0020B7
:100D88004041E9FB02B00B91A8FB03514018002138
:100D98004941EAFB02011BEB050B0025E7FB04B503
:100DA80068410025E7FB0605694100256D41E8FB20
:100DB8000615CDF830B0A9FB03B689190026EAFB61
:100DC8000316754100267641ECFB035610EB0B0029
:100DD8005FF0000BE8FB040B51EB0B015FF0000B1D
:100DE800E9FB041B55EB0B055FF0000BEAFB045B0A
:100DF80056EB0B065FF0000B5BEB0B0BECFB046B8D
:100E08000D90ACFB0230059C2D180020EEFB025023
:100E180046410020E9FB04605BEB000B00204041E9
:100E2800EAFB04B05B180021E7FB04314D410021C7
:100E3800E8FB0451069C4E410021E8FB04615BEB92
:100E4800010B0021E9FB04B1484100214941EAFBBB
:100E580004010E93A7FB0432079CB6180022E7FB97
:100E680004625BEB020B0022E8FB04B25041002253
:100E7800E9FB0402514100225241EAFB0412049C9E
:100E8800ED180023E9FB04535E410023EAFB0463E9
:100E9800089C5BEB030B0023E7FB04B358410023DA
:100EA800E8FB040359410023E9FB04135A410023DA
:100EB8005B41EAFB04230F955DF8049B99E8000663
:100EC800DDF80080A9FB08541BEB040B0024EAFBA7
:100ED80008B4DDF8108060410024ECFB080461418F
:100EE8000024EEFB081462410024E9FB0824634156
:100EF80000246441EAFB0834DDF8048076190025F3
:100F0800EEFB08655BEB050B0025E9FB08B56841BE
:100F18000025EAFB0805DDF8148069410025ECFB93
:100F280008156A410025EEFB08256B410025E9FB01
:100F380008356C4100256D41EAFB08450F96DDF840
:100F48000880AEFB087680190026E9FB0806714187
:100F58000026EAFB0816DDF8188072410026ECFB33
:100F6800082673410026EEFB083674410026E9FB8B
:100F78000846754100267641EAFB0856DDF80C80E4
:100F88001BEB070B0027ECFB08B778410027EEFBAB
:100F9800080779410027E9FB08177A410027EAFB8F
:100FA8000827DDF81C807B410027ECFB08377C41D3
:100FB8000027EEFB08477D410027E9FB08577E41E3
:100FC80000277F41EAFB086708B000BD2DE9F14F13
:100FD80087B0FFF7C1FEDDF81C8008F1200888E81B
:100FE800FF00FFBC87E87F08BDE8F08F00B591E8F7
:100FF8004C57A2FB02410194A2FB0345241900208F
:10100800E2FB06506D417F41641802940021E2FB27
:101018000801A3FB034B654103950024E3FB060489
:1010280040417F41091900246441E2FB0914FF078C
:1010380050EB0B0004900025E2FB0A455FF0000B23
:10104800E3FB081B49415FEA370714EB0B045FF029
:10105800000BE3FB094B55EB0B055FF0000B5BEB5B
:101068000B0BE2FB0C5BFF0F0020E2FB0EB0002233
:101078005141E6FB061205910021E6FB0841644157
:101088007F416D180021E3FB0A515BEB010B002146
:10109800E3FB0CB1484100214941E3FB0E01002369
:1010A800E6FB09531BEB030B0023E6FB0AB358418D
:1010B8000023E6FB0C03594100235B41E6FB0E13BA
:1010C800FF07544106946D417F41A8FB082655410E
:1010D80007950022E8FB09B25BEB0B0B7F418018F8
:1010E8000022E8FB0A0251410022E8FB0C125A4197
:1010F80000235B41E8FB0E230024E9FB0E340025A6
:10110800E9FB0A1552190025E9FB0C256B4100255E
:10111800EAFB0C356C4100256D41EAFB0E45FF07E3
:101128005BEB060B0026ECFB0E5640414941524151
:101138005B4164416D417641AEFB0EE848F1000821
:101148007F00A9FB0979784151EB0901AAFB0A7ACA
:101158007A4153EB0A03ACFB0C7C7C4155EB0C0544
:1011680056EB0E0648F1000700BD00BF2DE9F14F10
:1011780087B0FFF73BFFDDF81C8008F1200888E8FE
:10118800FF00FFBC87E87F08BDE8F08F30B44FF060
:10119800000310F8014B11F8015B013A84EA0504D9
:1011A80043EA0403F5D1A3F101034FEAD37030BC3D
:1011B800704700BF4FF0000310F8012B013943EAD4
:1011C8000203F9D1A3F101034FEAD370704700BFBE
:1011D80030B411F8014B12F8015B6C4000F8014B78
:1011E800013BF6D130BC70472DE9F00791E8F807CC
:1011F800B2E802105B1854EB0C04B2E802104D413F
:1012080056EB0C06B2E802104F4158EB0C08B2E856
:10121800021059EB01095AEB0C0A8941B3F1FF336B
:1012280074F1FF3475F1FF3576F1000677F10007A8
:1012380078F1000879F101097AF1FF3A51F10001DA
:101248005B184C414D4156F1000657F1000758F123
:10125800000859EBD1795AEB010A80E8F807BDE894
:10126800F00770472DE9F00791E8F807B2E8021097
:101278005B1A74EB0C04B2E802108D4176EB0C0695
:10128800B2E802108F4178EB0C08B2E8021079EB53
:1012980001097AEB0C0A89415B184C414D4156F122
:1012A800000657F1000758F1000859EBD1795AEBBD
:1012B800010A80E8F807BDE8F007704718EB040852
:1012C80059EB05095AEB060A5BEB070B5FF0000CBC
:1012D8004CF1000C18EB050859EB06095AEB070A04
:1012E8005BEB070B50EB0C005FF0000C51EB0C01B3
:1012F80052EB0C0263414CF1000CB8EB070879F192
:1013080000097AF1000A7BEB040BA841B141A24124
:10131800B3416CF1000CBBEB050BB041B941AA41DC
:10132800BB416CF1000C4CF001068CF0020718EB85
:10133800060859EB6C095AEB6C0A7BEB6C0B70EBEB
:101348006C0471EB6C0572EB670653EB6C076CEB86
:101358006C0C18EB0C0059EB0C015AEB0C025BF10E
:10136800000354F1000455F1000556EBDC7657EB09
:101378000C0770472DE9F14F87B0FFF7EDFCDDF85A
:101388001080DDF81490DDF818A0FFF797FFBDE88E
:10139800000FFFF793FF03B05DF8048B88E8FF00A8
:1013A800BDE8F08F2DE9F14F87B0FFF71FFEDDF89C
:1013B8001080DDF81490DDF818A0FFF77FFFBDE876
:1013C800000FFFF77BFF03B05DF8048B88E8FF0090
:1013D800BDE8F08F064A074B02604FF420725B7835
:1013E80082800822C371002382710372704700BF94
:1013F800B3D0000060080020064A074B02604FF493
:101408009C725B7A82800822C371FF238271037207
:10141800704700BFD7CB000060080020F8B5C41D96
:101428000028054624F007040CBF0020204600F0E1
:101438007DFA071E02DA6FF00B00F8BD254EB18861
:1014480070880331F3790330B27989B280B209F038
:10145800B6FA0028EFDB3C4473783178002D04F1AC
:101468000304194424F0030400FB01F10CBF00201D
:10147800204600F0DFFB23180DB9002BDBDB717A67
:10148800184679B10333002D728923F003040CBF89
:101498000020204600F040FC0028CCDB20440DB999
:1014A8000028C8DB317A91B1737A83B1C41D002D4D
:1014B80024F007040CBF0020204603F0BBF80028E6
:1014C800B9DB0DB10020B8E72018B6D5B3E7002D79
:1014D800F8D1B2E7600800201FB572B6194BDC6876
:1014E800ECB9BFF34F8F1849184BCA6802F4E06291
:1014F8001343CB60BFF34F8F00BFFDE7B2FBF6F29B
:101508002B465D1C002AF9D1DBB203F110056D44AE
:1015180005F80C2C0A2233B901A8A047E1E70246D6
:1015280000230A26EDE7013BDBB203F110050DEBC2
:101538000506B0FBF2F502FB1500303006F80C0C7E
:101548002846E8E76008002000ED00E00400FA05FE
:101558000A4B07B5DA886846ADF800209A885B8898
:10156800ADF80420ADF8023001F00CFD18B1F821F7
:101578009C20FFF7B1FF03B05DF804FB6008002072
:1015880010B5044628B308F089FC10B94FF0FF30B5
:1015980010BD07F023F8B0F5FA7FF7D80E4B0022FC
:1015A8001A744FF48072DC601A801B225A809A8069
:1015B80040F20322DA804FF484721A811F225A8182
:1015C800EFF3108472B600F003FC04B962B6002091
:1015D800DEE76FF01500DBE76008002010B5002893
:1015E80040D1234C237C032B39D059B1002A3CD05D
:1015F8000239052936D8DFE801F0031227352A2DEC
:10160800137863700020FFF709FF0028B7BF012394
:1016180002236FF00B002374A8BF237410BD137945
:101628001BB353790BB31188FB291ED853881B3B76
:101638009BB2E02B19D81A2917D913689288C4F8D5
:1016480002300C4B9A80DDE713786372DAE713886F
:101658006381D7E71388FF2B07D82372D2E74FF0AF
:10166800FF30DBE76FF02C00D8E76FF01500D5E707
:101678006008002062080020F8B50D46064620B331
:1016880019B311F0070420D1114F3B7C012B02D173
:101698006FF00B00F8BD032B02D14FF0FF30F9E7D4
:1016A80000F060F80028F8D02846FFF7B7FE0028B9
:1016B800EEDB0BF057FD3046214601F0E5FCFFF765
:1016C80047FF032320463B74E4E76FF01500E1E78A
:1016D8006008002010B5064C237C032B03D101F0D1
:1016E800E9FC02F015FA09F06CFA0020207410BD2C
:1016F8006008002050B1074B03F1140253F8041B93
:10170800934240F8041BF9D1002070476FF0150090
:10171800704700BF4475020008B501F081FC034919
:101728000120BDE8084000F0F9B800BF011400002E
:1017380008B501F089FC03490020BDE8084000F025
:10174800EDB800BFDD13000002680020014B1A60ED
:10175800704700BF74080020014B1B68184700BF82
:1017680074080020024B1868003818BF0120704721
:1017780074080020074B4FF0FF3141F6FF72C3E9B0
:10178800001205490022C1E900221F21C3E9021203
:10179800704700BF00000020780800203F280CD8C0
:1017A80001380B4BC0F3421200F01F0053F82230EF
:1017B80023FA00F000F001007047FF2806D04038F7
:1017C800044BC0F3421200F01F00EFE701207047FE
:1017D8000000002078080020074B0146006849688F
:1017E8001A4603C240F48C2200201A6041F010729D
:1017F80042F4FF625A607047000000200246034B23
:101808000068516803C30020704700BF78080020B3
:101818000246034B0068516803C30020704700BFAD
:1018280008000020431E3828DBB21FBF064A5909AA
:1018380003F01F0302EB81021DBF9068D84000F03F
:1018480001000020704700BF000000200A8870B522
:1018580095B2C67CC2F30E020488023602F1180360
:101868003444C35AA4B233442344013BB3FBF4F3D6
:1018780003FB0422438892B29342044B8BBF2B4054
:10188800AB4313439BB20B8070BD00BF0080FFFFCA
:101898004A1E062A08B50346084604D84FF4D171F3
:1018A8001520FFF719FE094A914202D940F2A31107
:1018B800F6E711B903B1196008BD2BB11B68002206
:1018C800C3E901211A1D1A600430F5E7FAFFFF7F0A
:1018D80010B5114B00EB41041A786389B3FBF2F39E
:1018E80003FB0223013A1A44B2F5706F027980783B
:1018F80028BF00231A440B18B2FBF0F100FB11219A
:101908005B1AB3FBF0F100FB113313446FEA434356
:101918006FEA5343638110BD80080020024B03EB3C
:1019280080035960704700BF800800202DE9F04F00
:1019380010F0070A85B0054604D040F26F11172051
:10194800FFF7CAFD524F044607F10C06B146B046F0
:1019580057F8043B8DF80BA03BB101A898479DF8B8
:101968000A30082B01D9F521E9E79DF80B1041BB96
:1019780005B131604F4506F10406E9D1002D6FD05D
:101988000022DFF810910227964689F8002058F8BF
:1019980027A0013FBAF1000F55D09AF804609AF8D1
:1019A80002C0FF2E60D039460023481C38D19C4421
:1019B800BCF1FF0F3FD90AB189F800E04FF49A71E2
:1019C800BDE79DF80AC04B1D60465A0004EB43036F
:1019D800022838BF0220441E40422344BDF8084074
:1019E8006444CCF1000C0340013C04EA0C04B4F557
:1019F800803F02D340F20511A1E775B19A1A012080
:101A0800326091701480D0709DF80C0010710198AC
:101A18004FEA104C1081A2F806C004FB0134A9E774
:101A280058F8210028B190F804B0B34504BF807875
:101A38001B180139B9E7DBB2E6458AF804303CBF28
:101A48005FFA8CFE01227B1CA1D10AB189F800E063
:101A5800022640F6FF6A58F82670B7B9013EFAD256
:101A6800601B05B0BDE8F08F0023E5E707EB4103F5
:101A780009F101093846A3F80AA0FFF729FF5FFA20
:101A880089F1BB788B42F1D8E8E74FF00009F6E717
:101A9800840800208008002038B54FF6FF730246FE
:101AA8000380184B03EB81031869A8B18478037984
:101AB800B3FBF4F104FB1133DBB2194600EB41052B
:101AC800B5F90A50002D0EDB0131B1FBF4F504FB2A
:101AD8001511C9B28B42F1D1002038BD6381BDE830
:101AE800384008F048BF00EB41046389C3F30E0394
:101AF8001380C278002AF1D14FF4E5711720FFF75F
:101B0800EBFC00BF800800201C4B03EB810370B581
:101B18001C69054644B3030404D54FF4EC7117203F
:101B2800FFF7DAFC0146204608F008FFFF280146C7
:101B380004D02046BDE8704008F01DBFA078B5FB72
:101B4800F0F300FB1353DBB219460A1D04EB4206FF
:101B5800B6F90260002E09DB0131B1FBF0F200FB9F
:101B68001211C9B28B42F0D1002070BD8B4201D056
:101B78000023E37004EB42025580DAE78008002076
:101B8800094B03EB8103014610B51C69204608F098
:101B9800D5FEFF28014604D02046BDE8104008F0D5
:101BA800EABE002010BD00BF80080020F8B5104B29
:101BB800074603EB810301461C69204608F0BEFE78
:101BC800FF28054611D0E288238953EA024606D049
:101BD8000146204608F0CFFE01463846B047204669
:101BE8002946FFF775FE0020F8BD0520FCE700BF79
:101BF8008008002038B50E4B0446827903EB820337
:101C0800186908B9052038BD8278E1799142F9D27E
:101C18004B1CE37100EB41035D89B3F90A30002BDB
:101C2800F3DBA58008F0A7FE20600020EBE700BFEB
:101C38008008002070B5044610F003000E4603D05B
:101C48004E211820FFF748FCFFF722FE054624B175
:101C5800034831460460FFF71BFE284670BD00BFED
:101C68009C0800202DE9F14FDFF870B01E460746AA
:101C78000D46DBF8003090469DF828A09DF82C9082
:101C88001BB960211820FFF727FC5246092140465E
:101C980008F0DCFC4A4684B20921304608F0D6FC3C
:101CA80081B2DBF80000214408F01CFE386018B946
:101CB800286001B0BDE8F08F04445346414609222C
:101CC8002C60386808F085FC4B46092231462868A4
:101CD80001B0BDE8F04F08F07CBC00BF9C080020B4
:101CE80070B50E46044608F0C4FC0546304608F0B8
:101CF800C0FC044B2A1821461868BDE8704008F05B
:101D080016BE00BF9C080020024B186808B108F0F6
:101D1800DDBD70479C0800201F2AF8B5044624D86A
:101D28009200134D033250B1830703D06821092074
:101D3800FFF7D2FB22F00303297068602B8122F0A1
:101D4800030228230127120403FB01F06B68002516
:101D5800120CEEB2B14200D8F8BD14B126181F70AB
:101D68005E60104401352833F3E74FF0FF30F3E7A6
:101D7800A0080020154A002170B553681578C8B22C
:101D8800854203D8BA210920FFF7A6FB1C4618464E
:101D9800013114F8286B0EB92346F0E70021997039
:101DA80001241289996103F126055C709208D961B2
:101DB80003F11E04596824F8022FAC4243F8041FAB
:101DC8001144F8D100234361037070BDA0080020BE
:101DD800124B01224FF0FF3000215A60C3F808036C
:101DE800C3F80015C3F804255A6040F6FE72C3F81C
:101DF80008034FF48060C3F8001503F56033084901
:101E0800C3F80825C1F88800BFF34F8FBFF36F8F61
:101E1800C1F88801C3F80825704700BF00A0044036
:101E280000E100E00A460648182302F8033BC368AD
:101E3800C1F803300369536043699360704700BF7A
:101E4800AC080020024B5A8C02435A845B6A18473C
:101E5800AC080020014B00215B6A1847AC08002041
:101E680010B5154C05F0BAF905F030FE208DFFF7D6
:101E7800F1FF237E63B12246104904F1190052F89C
:101E88000C3BE36063685360A36893600AF000F852
:101E98000B4B228D93E8030002F000FC236B18889B
:101EA80002F07EFBA36B94F8341094F83500984741
:101EB800002384F83C3010BDAC0800202D1E000023
:101EC800D8080020034B93F83C300BB1FFF7C8BF8C
:101ED800704700BFAC08002070B51B4C0646236D48
:101EE800256B23644FF4817394F85400A4F84430AC
:101EF80095F88B3095F8691000EB83002EB9FF2810
:101F080003D195F868308B4201D005F03BF895F87D
:101F18008B309BB1A06D05F01BFAA16D206C05F00C
:101F28005BFD16B9304605F061FA95F86810002097
:101F380005F0A4FA022384F83C3070BD206C05F04B
:101F480007FA05F0C3FDECE7AC080020F0B590F8FF
:101F580069000B46124A87B0012801F1780103F1A4
:101F6800880392F8542051E9026706D0022814D059
:101F780040F21E410620FFF7AFFA03240120002596
:101F8800CDE90003CDE90450CDE902243B463246B1
:101F9800022005F057FC07B0F0BD0424EEE700BFAF
:101FA800AC08002008B5094B93F83C20022A04D05D
:101FB80040F2EA212720FFF78FFADA7A42F001028D
:101FC800DA72BDE80840FFF74BBF00BFAC0800203D
:101FD800F7B5184C0646E56D0DB1A36C23B940F270
:101FE800F4712720FFF778FAB4F84C3001F00301B8
:101FF8002F466B702B7823F003030B4307F8033B42
:102008003846B4F84C20A16C08F0A0F80DF1020293
:1020180001A9206E2564A76408F04EFC019808F019
:1020280039FC0122B4F84C103060206E08F0E1FB56
:1020380003B0F0BDAC0800202DE9F0412A4C06465B
:102048000F4694F83C30012B5FFA83F804D040F631
:102058003C012720FFF740FA256B95F87C303BB10F
:102068000021042085F87C10FFF7ECFE85F87D80C0
:1020780095F88030042B0AD11C490220FFF7E2FEB4
:10208800E36E1B78991E4B424B4184F8743095F8E7
:102098008B3023B105F17801206BFFF757FF1EB194
:1020A800BDE8F041FFF7DCBE002FF9D0A36F304642
:1020B80098470028F4D094F83430002BF0D1638C82
:1020C8009A0708D594F87430002BE9D00020BDE8B1
:1020D800F041FFF701BF002BE2D194F87C30002BD0
:1020E800F4D194F87D30EFE7AC08002018090020FF
:1020F8002DE9F04F00238FB0B34C07460791256BAD
:10210800CDE90B3394F83C30022B04D040F6D701CC
:102118002720FFF7E1F9236C5A781E78A4F84C20A1
:10212800032206F003081344A4F84420A36495F896
:102138008B30002800F0DD80C6F3C009C3B105F07C
:10214800E3FC831EDBB2012B04D8FFF789FE0FB036
:10215800BDE8F08F60B9B4F84C304BB195F88230D7
:1021680003F001034B4503D1012384F83530ECE734
:10217800B4F84C1019B1206E08F01BFB014695F815
:102188008120238D0132E16543F40073D2B22385A7
:1021980082EA960A1AF0010A1FD0069795F882205B
:1021A80002F00103994558D04FF0000995F88A309C
:1021B800002B00F0C08095F8683005F1F00C05F5AB
:1021C800807E012BD5E9380100F0A480022B00F0B5
:1021D800018140F21E4106209BE795F8803053B3F9
:1021E800013B85F88120DBB2042B0ED8774AD35CFB
:1021F800002BD2D0022B0BD10BA9D4F8840008F005
:1022080081FA88B940F2047182E740F2E3617FE71E
:10221800032B10D100F0F2FF10B940F20E7177E7EE
:1022280051460820FFF70EFED5E93832013342F156
:102238000002C5E93832002195F87D3085F8801014
:1022480023B1102085F87D10FFF7FCFD238D43F4A2
:102258000063238500230693A0E7B4F84C30E3B16C
:1022680008F1FF31012918D8218D41F480512185C9
:1022780094F88810994206D294F8343043F0100349
:1022880084F8343090E7E16D00298DD094F88910F6
:1022980019B12020FFF7DEFD86E70132B8F1030F00
:1022A80085F882201AD008F1FF32012A0BD8002BBA
:1022B8003FF47AAFB946D5E93A32013342F1000228
:1022C800C5E93A3272E7002B3FF46EAFD5E93A32EE
:1022D800013342F10002C5E93A3265E7238D012056
:1022E8003B4943F4805385F87C002385FFF7AAFD1A
:1022F800ECE70BB105F022FC94F88A304FF00009A6
:102308000133CDF8189084F88A30238D43F4806324
:1023180023854BE7032200234FF0010A0392FB2297
:102328000093CDE9043ACDE901E20B460246614645
:10233800042005F087FAE36D002B4DD1B4F84C303A
:10234800B3FA83F35B0903EA161384F87D30079B1D
:10235800002B43D1628C94F88A30110703D594F886
:102368007420002A3AD1012B38D8A36F012098474E
:10237800A0B394F834608EBBD4F830A094F85430ED
:102388009AF88B209AF8681003EB8203FF2B03D18D
:102398009AF869308B4202D0FF2004F0F3FD002246
:1023A800D4F830B08DF82920ADF82A209BF8802089
:1023B800052A00F24081DFE812F068001C011F01C5
:1023C8001F013101310100BFAC080020587502001F
:1023D800F408002004229EE70123B4E705F058F82A
:1023E800B9F1000F4CD101230793A04C238D5A0655
:1023F80006D44020FFF72EFD238D43F040032385AC
:10240800069B6BB1B4F80720B4F805301343B5F850
:102418007E2013431EBFB4F809300133A4F80930F5
:10242800002F00F01C81B4F805300133A4F8053002
:10243800002384F88A308E4802F0A0F80B9830B157
:1024480008F028FA00220272294601F069FC0C9B68
:1024580033B100221A720C2229460C9801F02EFC86
:10246800079B002B7FF471AE238D1B063FF56FAEE3
:102478008020FFF7EFFC238D43F08003238566E679
:1024880041460CA8FFF7A4FDADE794F88B200DF1A9
:102498002A010DA8ABF85820ADF82A2000F0A0FEBC
:1024A80038B10D9828B104228BF88020BDF82A2075
:1024B80016E09BF8C320002A40F095800DF1290210
:1024C8000DF12A01D4F8840008F0FAF8002800F089
:1024D8008A80BDF82A20002A76D101218BF8801045
:1024E8006066A4F87020002A00F0A88003309BF8EA
:1024F8008130E06608939BF882309BF880B009939E
:10250800BBF1020F09D0ABF10402012A00F2988056
:1025180003784FF0030B022B0ED0D4F8840008F098
:1025280027F9002840F08F80BBF1030F04D000F09A
:1025380071FE80F00106F6B2616E089A0B78D00041
:10254800099A03F0F30300F008000343900000F039
:102558000400034323F0100343EA061306F00106C0
:1025680023F0030384F87C60404E4BEA03020A70B0
:102578000222B4F870304B70A4F868209AF88A20C8
:10258800002A62D0002B60D0A06D04F0E1FE00228A
:10259800A16D606E05F07AF818B9616EA06D05F04E
:1025A800B9F99AF86910012004F068FF012386F848
:1025B8008C3086F83C30B9F1000F3FF416AF414635
:1025C8000CA8FFF705FD10E79DF8291019B903229B
:1025D8000180817068E7017801F0030101290CBFCF
:1025E800032102217AE70022ADF82A2001228BF884
:1025F80080202048002273E7BBF858200DF12A01FB
:10260800D4F88400ADF82A200DF1290208F058F812
:1026180000287FF44BAF40F2115179E50DF12A0102
:102628000DA800F0DDFD08B10D9810B94FF4A461B4
:102638006EE5052238E740F22A5169E5104656E76B
:102648004FF0010B69E7012676E7706E04F080FE13
:1026580005F03CFA0021706E0AF0ACFDA1E7B4F871
:1026680007300133A4F80730E5E600BFAC080020C6
:10267800D80800202A090020064B10B593F83C2002
:1026880002F0FF0422B91C7602F000F8204610BDC3
:102698000C24FBE7AC080020094B0A4A10B51A6065
:1026A800FFF7EAFF20B14FF4A6712720FEF714FFC9
:1026B800054C00F00FFD206500F010FDA06510BD71
:1026C80094110020B0280000AC080020F7B56A4C2F
:1026D800089FCDE9000194F83C1001F0FF0511B9FD
:1026E8000AB103B127B94FF409712720FEF7F4FEA8
:1026F80004F12C0CA36784F834509DF8243084F836
:102708008A5084F8355084F88C506584258584F87F
:102718007C5084F87D5084F874506566E566A4F8AA
:1027280070502564A564A4F84C5084F8893062621E
:10273800A763DDE900018CE80300256B04F04EFC7B
:1027480005F0C4F995F9700004F0A6FC6E6AE86912
:1027580004F0A8FC304604F0EDFD95F89B0004F069
:10276800ABFC09F04FFF95F8692000F165010120E5
:1027780004F020FD414B186804F0E2FD2B69C4F811
:1027880084306B692366236B93F8852093F868601F
:10279800A2F12901012903D993F88610292951D1D9
:1027A80093F856322BB1012E03D0012B0CBF012612
:1027B800022605F130073146384609F0F9FB314663
:1027C80009F0F4F8AB8F95F86910834228BF0346E7
:1027D800384684F88B3009F0D4FB95F88B7095F85F
:1027E8006910B5F8446009F0E1F80FB9043080B217
:1027F800864228BF0646F3B284F8883084F85430FD
:1028080095F88B3023B105F178012846FFF79EFB38
:102818000120FFF761FB236BD3F8A80104F0B4FD96
:10282800002323606360A360B5F87E3063802B8843
:10283800238095F89B302371EB6E0BB101221A604F
:1028480003B0F0BD243A012A0DD827290DD093F8FA
:10285800263113F0010202D19B07AAD50222012ECC
:1028680018BF1646A5E72729A3D193F8262193F880
:1028780061301340EDE700BFAC0800209411002040
:10288800014B93F88C007047AC080020024B93F87A
:102898002900C0F3C0007047AC080020014B93F832
:1028A8008A007047AC080020AD1F0000F920000026
:1028B80041200000CD1E0000304BF0B55A8885B08D
:1028C800B0F85C700C46B0F85A6097429D8828BFF3
:1028D8001746964228BF16461B2E2ED0B5F5A47F64
:1028E8002DD040F6480301A99D4228BF1D4608F097
:1028F80099F9BDF80A30BB4228BF3B46E380BDF8D2
:102908000C30AB4228BF2B462381BDF80630B342BA
:1029180028BF33466380BDF80830AB4228BF2B463A
:10292800A380FF232370E3881B3B9BB2E02B08D9CD
:1029380040F2E7613920FEF7CFFD1B2FCED105B05D
:10294800F0BD63881B3B9BB2E02B02D940F2E961E2
:10295800F0E72389A3F5A4739BB2B3F5E06F02D91E
:1029680040F2EB61E6E7A388A3F5A4739BB2B3F545
:10297800E06FE4D940F2ED61DCE700BF3C090020DC
:1029880010B501210020FFF7FBF8044670B90121BA
:10299800FFF7BAF8044620B94FF459713920FEF709
:1029A8009BFD034B93F906100AF0E3F8204610BD8F
:1029B8003C090020044B987DC0F3400080F00100E2
:1029C80000F00100704700BF640D002008B508F052
:1029D80064FF00F0BFFD00F0A1FB09F031FA01F03F
:1029E8003BFE03F0C9FF0022084B1B214FF4A470E3
:1029F8001A60074B98801A8059800648064B186061
:102A080099805A745A829A829A7508BD9811002042
:102A18003C09002003021B00640D0020044B41F612
:102A28004C52C3E902221B221A74FFF7CFBF00BF22
:102A3800640D002073B5234D0446AB680363224B35
:102A4800836109F027FF064600F058FB8306297CBE
:102A580053BF1B236B88AA881A46A4F85A301B4B0D
:102A6800A4F85C201B6884F8381066871BB194F9B9
:102A7800701020889847164E2046314608F0A5FF6A
:102A880001236A8804F110006978E3850332AB8872
:102A9800019192B216F8121C033300919BB204F113
:102AA8001401FFF7DFF8236923B940F2BE6139202A
:102AB800FEF712FD636913B940F2BF61F7E7002022
:102AC80002B070BD640D002000093D009C1100207B
:102AD800760D0020024B1B6803B118470C20704785
:102AE80098110020034B5A8802801B7883700020BD
:102AF800704700BF640D002037B5837805461A2B50
:102B080008D8042B04D9144A22FA03F3DB0705D4A6
:102B180012241AE0292B01D03B2BF9D12888B0F5D3
:102B2800706FF5D2694608F07AFF88B9019B93F86F
:102B3800182102F0FF046AB9AA7883F81921FF2244
:102B480083F81821684608F094F9204603B030BD90
:102B58000224FAE70C24F8E7200038040188A1F1E0
:102B68001B039BB2E02B0CD8428844F24810A2F514
:102B7800A4739BB2834204D8034B002059809A80E7
:102B880070471220704700BF3C090020034B5A8849
:102B98009B88028043800020704700BF3C090020CA
:102BA80038B50278447802F0010302F0020254EAD0
:102BB800030101D1112038BDBAB98578002DF9D0AB
:102BC800002B18BF002400E01D46204607F0FDFF3B
:102BD8000028EFD0284607F0F8FF0028EAD0054B78
:102BE80000209C74DD749882E5E7002BECD000246B
:102BF8002546EAE7640D002013B50088694608F009
:102C08002AFF044620B9019890F82A311BB13A24CA
:102C1800204602B010BD90F8CE3003F0FF04002B20
:102C2800F5D190F8C5309B0706D1FF2380F82A31EB
:102C3800684608F01EF9EBE70249C63009F028F9A2
:102C4800E6E700BF63C50000F7B5077805460C4600
:102C5800EF2F0FD890F901204378002A0ADB8278F9
:102C6800900707D113F010001DD1990603F0030255
:102C780002D51AB1122442E0032AFBD01E07F9D468
:102C88002979EA78EE7942EA0122697942EA014231
:102C9800A97941EA06212E7A41EA06418A42E9D811
:102CA8001F2A0FD8E6E713F0600FE3D103F00702FD
:102CB800052A05D003F00F010D22CA40D107D9D546
:102CC8001A07DDD56A7A013A062AD3D8AA7A032ADE
:102CD800D0D813F0040102D1023A012A03D8EA7AC3
:102CE800012AC7D811B9AA7C032AC3D82A7D48B1BA
:102CF800012ABFD12A7E012ABCD830B91124204626
:102D080003B0F0BD022AF5D1B4E7DB0712D46B7823
:102D18002A7D03F01803082B11D1022AEED10121D4
:102D28003846FEF72DFF064678B109F0D6FEB8B151
:102D38000C24E4E700F0A2F90028E8D1DEE7022A33
:102D4800EDD02B7F002BEAD0D8E701213846FEF7DB
:102D5800DBFE064640B3154B93F9061009F009FF50
:102D6800304609F0F6FF29462070E874304609F02D
:102D780046FFEB7E0446002BC1D00028BFD1024697
:102D8800B16A684607F032FE2246B06A012107F0B0
:102D980078FEB16A6846042207F028FE22462146DA
:102DA800B06A07F06EFEAAE70724A8E73C090020EE
:102DB80030B502798BB00346042A4FD84088B0F565
:102DC800804F4BD8264900248D5C1144ADF8004053
:102DD8004A798DF8084042F010028DF8244042EA02
:102DE80045028D7AC97B42EA850242EAC1026946F8
:102DF80002F01F028DF80020BDF80020ADF8092070
:102E08001A888DF80E00000A8DF80B20120A8DF82A
:102E18000D408DF80C208DF80F008DF810405A7B6E
:102E2800D3F807008DF811205A79059002A88DF87B
:102E380012209A798DF81320B3F80B209B7BADF8FC
:102E480018208DF81A307F238DF81B304FF00113AE
:102E5800CDE90734FFF7F8FE0BB030BD1220FBE7D1
:102E68005D750200F7B50646FFF78AFD044609F0CE
:102E78007BFF33780546012B61D1204609F0ACFE73
:102E880000287BD0204609F06FFF18B115B9122031
:102E980003B0F0BD204609F020FE08B10C20F7E78A
:102EA800204609F057FE07460028F7D1204602F0D1
:102EB80095FC0028EBD0ED0142F21073394620460C
:102EC800ADB25D4309F03CFF204609F045FF0146DD
:102ED80058B92A46204601F0E5FE08B90020D7E790
:102EE80041F67D413920FEF7F7FA39460DF1060023
:102EF800FEF7D2FD064608B90D20C9E7394608F0A5
:102F0800B9FDBDF8063031462046338009F030FF60
:102F180001213046FFF78EFD2A463146204601F052
:102F2800C1FE024610B14FF4E551DBE7144B9B6834
:102F3800002BD3D006F58D7130469847CEE7002B8D
:102F4800A5D1204609F048FEC0B1204609F0C5FDCC
:102F58000028C3D0204609F06DFC0546204609F03C
:102F68006CFC0146002899D1002DB7D02888FEF7BF
:102F78001DFE0028B2D041F6C241B3E7422087E7E0
:102F88003C0900200278034672B1427862B1428857
:102F98001A2A09D982881A2A06D90068034A1060B1
:102FA80000209B889380704712207047640D002092
:102FB80002680020014B9A60704700BF640D002032
:102FC8000378A3F10A02112A9BBF024A00201220AB
:102FD80013747047640D002008B5052000F082F8CE
:102FE80003F08AFC014B024A9A6008BD3C090020A4
:102FF800C128000008B50122084B1A7002F0DEFB58
:103008000AF06DF808F047FCFFF746FB002007F0D0
:10301800BAFCBDE8084000F08BBD00BF480900209D
:1030280010B5064C0649201D08F01BFA04F10800EB
:103038000449BDE8104008F014BA00BF4809002050
:10304800480000205000002010B5084C0849201DF9
:1030580008F007FA04F10800064908F002FA04F13A
:103068000C000549BDE8104008F0FBB948090020EC
:10307800580000206000002068000020014B1878EC
:10308800704700BF4809002010B5064C00F02CFD21
:10309800606808F0DEF9FFF7C1FC00F007FF0123C4
:1030A800237410BD48090020014B187C704700BFED
:1030B8004809002010B5064CA06808F0CAF9E06875
:1030C80008F0C7F9FFF782FC0023237410BD00BF86
:1030D80048090020004870475909002000487047F7
:1030E8005B0A0020C208044900F00700012383405E
:1030F800885C03438B54704710000020014BD3E9D0
:103108000001704710000020034B1868C0F300202E
:10311800400040F0010070471000002008B505F09D
:103128005DFA0023074A32F82310814205D302EBE7
:1031380083029378044A137008BD01330C2BF2D133
:103148000023F7E7727502005D0B002010B5446894
:10315800238884F85A11A4F85B3194F86830012B5D
:1031680006D0022B04D040F203310620FEF7B4F952
:1031780084F85D3194F86930012B01D0022BF2D12B
:1031880084F85E3104F25110034908F081FE0023EF
:1031980084F8243110BD00BFF7B40000024B0022B0
:1031A80083F822209A8470475E0B0020044B93F822
:1031B8002220012A1ABF036001200020704700BFA7
:1031C8005E0B0020054B024693F8221001291BBF15
:1031D80001209A84002083F8220070475E0B0020AB
:1031E800054B024693F8220020B1136009B19B8C6D
:1031F8000B800120704700BF5E0B0020044B0022AB
:1032080093F822009A8410B1012083F82220704795
:103218005E0B0020034B93F82200B0FA80F04009BF
:10322800704700BF5E0B002050B90A4A01201346C0
:1032380003F8010B0868C2F801008A889A80704771
:10324800012805D1034B0A68D8719A608A889A8147
:10325800704700BF840B002050B90B4B187888B119
:10326800D3F80120B3F805300A6001208B8070473D
:10327800012806D1044BD87920B19A689B890A6045
:10328800F3E70020704700BF840B002010B9044BFF
:1032980018787047012806BF014BD879002070477D
:1032A800840B0020F7B58A8800238DF80600ADF856
:1032B800042008680B4A8DF807300146147802F597
:1032C800A872019DD8B2844201D8082007E052F8BC
:1032D800087F01335668AE4208BF8F42F2D103B06F
:1032E800F0BD00BF980B0020084B0146002230B506
:1032F8005C7803F20113D0B2844201D8082004E0BC
:1033080013F8015F01328D42F5D130BD980B0020D2
:10331800F8B52D4C63782218013B92F80251DBB2C4
:103328008342637030D01A010101961C8F1C264419
:10333800274406F1100C56F804EB664547F804EBF1
:10334800F9D1823282312244214402F1100652F826
:10335800047BB24241F8047BF9D1E118221891F8B4
:10336800026182F8026106267343704303F5857390
:1033780000F58570E618E35827182350B388BB80FA
:1033880091F83A3182F83A312846FFF7ADFF08281C
:1033980018D12378013BDBB29D42237012D02B3326
:1033A80005F12B0204EBC30304EBC20293E803000C
:1033B80082E803002078FFF797FF08281CBF24182D
:1033C80084F80251F8BD00BF980B0020F0B5254DD8
:1033D80089B095F8984105F299116846224606F099
:1033E800B5FE2146684608F077FA0446B8B300EB04
:1033F800400102A8C9B2FEF7AFF9631E95F8A161B2
:103408000124DBB295F8981105E0721CB2FBF1F0CB
:1034180001FB1022D6B206F120020DEB020010F8D3
:10342800202C002AF1D103EB430100F8204C06EBD5
:10343800460220312A44694411F8187C82F8A271A6
:1034480011F8177C11F8161C82F8A37182F8A411E0
:10345800013BAA19DBB282F89941FF2BD2D109B0FE
:10346800F0BD00BF980B002070B5064688B00C462A
:10347800002A4ED0294A92F8A131D01890F8991113
:1034880019B9FF212820FEF727F803EB4301013380
:10349800114491F8A251E57091F8A35191F8A41143
:1034A80025716171002180F8991192F89811B3FB88
:1034B800F1F001FB103382F8A13192F8C23123B93F
:1034C800174902F5DD7008F0E0FC65790D2200214E
:1034D800684605F03F0545F0400565710AF020FB98
:1034E800E37804AA69468DF80F30304623798DF8C1
:1034F8000D508DF80E3004230AF07CFA9DF81F3029
:1035080023709DF81E3063709DF81D30A37008B0BD
:1035180070BD03216018FEF71FF9D6E7980B00204D
:10352800D5330000044B5A78824286BF1B1893F8A3
:103538004A010020704700BF980B0020044B5A78BE
:10354800824286BF1B1893F842010020704700BFD3
:10355800980B0020064B00224FF461711A8083F803
:10356800C32183F8C421A3F8C61183F8C221704788
:10357800980B00202DE9F047824689461746984661
:10358800FFF790FE08280546064603D0FFF7ACFE75
:10359800082860D1324C6378072B5ED8082D15D1E6
:1035A8002678731C072E237003D96C212820FDF779
:1035B80093FF06F12B02D9F8000004EBC20344F88C
:1035C8003200B9F8042083F806A09A80657807F1DC
:1035D80010026B1C290163704B1C234412F8010D67
:1035E800BA4203F8010FF9D1813108F110032144DF
:1035F80013F8012D984501F8012FF9D12544102120
:10360800404608F099F9102185F84201384608F03B
:1036180093F985F802616678002385F84A013146F6
:10362800104885F83A3108F057F90128054607D8B7
:1036380031460D4808F050F9002818BF0135EDB2A1
:1036480084F898510025284684F8A151FFF7BEFE5A
:103658002846BDE8F0871220FBE70720F9E700BFFE
:10366800980B0020DA0C0020E20C0020064B10B565
:103678005878013840B2002800DA10BDC4B220469C
:10368800FFF746FE601EF5E7980B0020014B83F814
:10369800C3017047980B0020014B93F8C301704792
:1036A800980B0020431E4AF2B7129BB293429DBF6B
:1036B800024BA3F8C601012000207047980B002098
:1036C800014BB3F8C6017047980B00200A4B30B580
:1036D8005C7884420ED9184490F802012B3003EB31
:1036E800C004A5790D7053F8300010600120A3883C
:1036F800938030BD0020FCE7980B00200246074865
:1037080010B590F8C34124B1417821B1023003F0DB
:1037180055F9204610BD0C46FBE700BF980B00206A
:103728002DE9F74F2F4C9A468046894663788342A5
:1037380056D9231893F8425185F00105F9B193F849
:103748004A31E3B945F002070135BAF1000F18D143
:10375800FA070AD5062104EB0810524601FB084176
:10376800823001F58571FFF77FFEBB0734D504EB86
:103778000810524649460230FFF776FE2CE02F46E5
:10378800E3E794F8A1614FF0010B002DE0D0A319F5
:1037980093F89911019399B90092DAB100F056FBA8
:1037A800019B06EB4601009A4FEA102C83F899B169
:1037B800214481F8A201000C81F8A3C181F8A40179
:1037C800013694F89831013DB6FBF3F103FB11661D
:1037D800F6B2DAE747F00407384603B0BDE8F08FE1
:1037E8000027F9E7980B0020074B5A78824209D93D
:1037F8001A1892F842212AB9062202FB003000F575
:103808008570704700207047980B0020064B5A7847
:10381800824281BF1B1893F83A01B0FA80F0400940
:1038280098BF0020704700BF980B0020F8B50E46DF
:10383800074606211546304608F07EF8044670B162
:103848000C4B0022587803F23913D1B2884202D8BF
:1038580001242046F8BD013203F8015FF5E731463F
:10386800384608F055F80828F3D0024B034483F88B
:103878003A51EDE7980B0020034B80F870101B6855
:103888000BB1008818477047A01100200B2808B515
:1038980004D94FF48D712920FDF71EFE014B33F832
:1038A800100008BDA275020030B5002442F2107560
:1038B8008487B0F840404C43B4FBF2F4A0F8404091
:1038C800541E05FB0343B3FBF2F3C387084BB3FB5A
:1038D800F2F30133A0F84430038F05FB0344036B74
:1038E8005943B4FBF2F4B1FBF2F14463016330BD18
:1038F800005A62020346084671B13F2B0BD8074AAB
:10390800D35C03F07F02914205D08CBF01200020D8
:1039180000EAD31070470120704700BFBA75020053
:103928002DE9F7430E4669461546994608F077F89B
:10393800044620B9019F35B9012387F88C3001204E
:1039480003B0BDE8F083D7F810802946404606F05A
:1039580061FE01460028F3D0134B5B88AB4221D3AC
:10396800404606F093FF97F88C304946A0F801408E
:10397800002B2A4618BF022600F8036B06F0E6FB68
:103988002946404606F081FE18B98B212B20FDF709
:10399800A3FD684607F06DFA019BA3F89A4187F8E2
:1039A8008C40CCE72046CBE7640D0020FF230B704A
:1039B80002234B7083238B70014B1B78CB707047AD
:1039C8007C0D00202DE9F84FD0F804800C46D8F87B
:1039D8001460304606F04CFF054620B940F25311FA
:1039E8001020FDF779FD0146304606F04FFFB5F887
:1039F80000B082461FFA8BF717B940F25711EFE76C
:103A0800224B00F103091B68D3B998F8003098F8E5
:103A180001202370637802F00F02A4F802B023F0AB
:103A28000F03134323F0C00363709AF8003003F0C8
:103A38000303012B0FD0022B0DD040F27511CFE7F5
:103A48003A464946B8F80000984705460028DCD1B0
:103A58002846BDE8F88F6278304663F30512627035
:103A680006F01AFF054610B940F27F11B8E7FB2FA0
:103A780002D94FF4C771B3E73A464946201D06F00C
:103A880065FB304606F063FEE2E700BFA4110020A4
:103A980038B5134C10220021201D0AF041F80125E9
:103AA800257404F108031022002104F11400C4E96C
:103AB80001330AF035F884F8205004F11803094A54
:103AC800C4E9053300236362A36284F82C30C4F888
:103AD8002D30C4F8313084F835301360A36338BD15
:103AE8007C0D0020A411002010B5084C2378FF2B72
:103AF80004D04FF4CC711020FDF7EEFC06F092FADA
:103B08002070BDE81040FFF7C3BF00BF1D000020B4
:103B180010B5034C207806F09FFAFF23237010BDE0
:103B28001D000020014B187806F0A6BA1D000020E1
:103B3800014B024A1A607047A8110020CD390000D5
:103B48002DE9F341DFF86881054608F11407D8F834
:103B58000830D8F81840227A012A22D1D8F838201B
:103B680052B1137A1BB9BF211020FDF7B5FCD8F864
:103B78003840C4B9002083E01A7A012AFAD01C46DA
:103B88004C4AEFF3108172B650680068506001B972
:103B980062B6A34208BFC8F83840237A1BB9EE21A1
:103BA800E2E73A46EDE7267AF6B205232372731E5A
:103BB8000B2B6ED8DFE803F06A062235676D3E6D81
:103BC8006D6D6D5B636813B940F20B21CCE720463D
:103BD800294698470420EFF3108272B6237A052B02
:103BE800D9B24FF0000359D12372D8F83810A14246
:103BF80001D1C8F83830B2BB62B634E0636813B993
:103C08004FF40571B0E72946204698470346ADF8BA
:103C18000400C0B2C3F30723012B2FD0022BDAD143
:103C28001AE0636813B94FF407719DE72046984777
:103C38000020D0E763680BB9FE2195E70B222A70B4
:103C480001221988AA706A7100221869A5F8031060
:103C5800AA7106F07CFD0420D8F83830A34202D1BE
:103C68000023C8F8383000283FF471AF08E0124B41
:103C7800294620461B689847034668B9267298B1BA
:103C880002B0BDE8F08140F253216DE740F25621C1
:103C98006AE740F2592167E70220DDE711B940F2EF
:103CA8007A2161E71846A6E7002B7FF450AF61E759
:103CB8007C0D0020800D0020A8110020134610B5AF
:103CC800027A22B140F201311020FDF705FC0A46C4
:103CD80001460248BDE8104008F0B4B8800D002045
:103CE800044890F82C301BB90349243008F0C7B8B1
:103CF800704700BF7C0D00203FBE00000346064809
:103D080090F83C203AB190F8352022B9034900F8E0
:103D18002D3B08F0B4B870477C0D0020B539000081
:103D28000A4610B5037A23B140F209311020FDF795
:103D3800D3FB014607230248BDE8104008F082B8CB
:103D4800900D00201346027A0AB1037270470A46A2
:103D58000146014808F076B8800D00201B234FF07B
:103D68001B128384038482618382C260038539B90C
:103D78004FF4A473034AC3844384C261C3820261BB
:103D8800704700BF4801480103460846F0B4B3F83D
:103D98005420B3F84840B3F856109442B3F844603E
:103DA800DF8F28BF1446B3F84C20B3F842508A423C
:103DB800DC8728BF0A46B3F846109142A3F8422090
:103DC80038BF1146A64238BF2646A742A3F8461078
:103DD800A3F844601FD1AA1A18BF0122B3F84A50A9
:103DE800B3F85040B3F85270A5429E8FB3F8401014
:103DF80028BF2546B3F84E40BC429D8728BF3C46A5
:103E0800AE42A3F8404002D1A14200D12AB10449F0
:103E1800F0BC08F03DB80122E0E7F0BC704700BFF5
:103E28009FBE00000B8BA2F809001046A2F80B30C9
:103E38004B8BA2F80D308B8BA2F80F30CB8B02493D
:103E4800A2F8113008F01EB8EFBE0000094AD2E906
:103E58000003434083EAB01181EA43214FEAF34368
:103E680011605360044B58434FEAF06000EB800048
:103E7800704700BFBC0D0020BB79379E094AD2E9C4
:103E88000003434083EAB01181EA43214FEAF34338
:103E980011605360044B58434FEAF06000EB800018
:103EA800704700BF20000020BB79379E10B50A4C30
:103EB80008210948FDF750FCD4E900321343F7D034
:103EC800064CFFF7DBFF2060FFF7D8FF2368606030
:103ED8001843F6D010BD00BF20000020BC0D002004
:103EE800174B184A9A60184A5A60184A1A60184AB2
:103EF8009A62184ADA62184ADA60184A9A61184AC5
:103F08001A63184A1A62184ADA64184A9A64184AEC
:103F18005A62184B184A9A60184A5A62184ADA6262
:103F2800184A1A61184A5A61184A9A61184A1A6353
:103F3800184A9A64184ADA64184A9A63704700BFA4
:103F4800AC110020A5C10000D5C1000041C200008D
:103F5800A7C30000FBC300009942000011C4000081
:103F6800F144000085430000DFC40000FBC40000EA
:103F7800D1430000AC120020C1C10000B1C4000050
:103F880033C40000D7C3000057C400002543000015
:103F980081C5000029C500001BC5000097C40000AA
:103FA800044B054A5A65054B054A1A65054A5A6580
:103FB800704700BFAC110020EDC20000AC12002019
:103FC800D3C2000053C30000054B064A9A65064A4F
:103FD8001A66064B064A9A65064ADA65704700BFB4
:103FE800AC1100205BB60000FDB60000AC1200204A
:103FF800A7B500007FB80000023A08B5232A00F2EE
:104008009A80DFE802F012981E9B9B2E9830989BAE
:104018003541459898499B9B5D5D7474989898982C
:10402800989898989898987B889102784368012A7C
:1040380002D193F8103101E093F8193102204B7046
:104048000EE04268D2F8B631C1F80130D2F8BA3180
:10405800C1F8053043680D20D3F80431C1F80930A0
:1040680008BD4368E5E700F005FA0028F8D148E004
:10407800102306204B7059238B700023CB70A1238B
:104088000B7130234B71EBE7436893F80A31D5E79E
:10409800084600F0DDF9E8E70278436852B993F87A
:1040A80010213AB193F80D214A7093F80C3103208E
:1040B8008B70D5E793F80B214A7093F80A31F6E72D
:1040C80043680920B3F854204A70120A8A70B3F87A
:1040D8001221CA70120A0A71B3F850204A71120AE2
:1040E8008A71B3F81031CB711B0A0B72B8E74368B9
:1040F80093F826214A7093F82731D8E7104B1B68AC
:1041080023B94FF4A4615120FDF7E6F902462320B4
:1041180098470420A4E70A4B1B68002BF1D00246FD
:104128002420984705209BE7054B1B68002BE8D007
:1041380002462520F5E740F21B51E4E701208FE70E
:10414800AC1300203F289ABF024B53F820000020F0
:10415800704700BFAC1100203F289ABF024B53F8AC
:1041680020000020704700BFAC120020F7B545685A
:1041780004464FF6FF772E690DF102010DF1010299
:104188003046ADF8027006F09BFA01A9304606F0F9
:10419800B9FA40B1019806F07DFB6168002202720D
:1041A800FFF7BEFDE8E7044905F19E0003B0BDE84E
:1041B800F04007F067BE00BF39C10000F0B5044603
:1041C80085B00D46FF2600F8A56C10F8A63CF3B1A3
:1041D800174F3B781BB15F211F20FDF77DF90C219C
:1041E800381DFDF7B9FA3E70002304F8A53C0723F3
:1041F8002A4602F8033BD4F80930C5F80330D4F84E
:104208000D305360D4F81130936005B0F0BD01A8AB
:104218000C21FDF7A1FAA4F5B073039A1A6001AB5B
:1042280003CB44F8AE0C44F8AA1C04F8A66CDBE7F0
:10423800C40D002010B5054C23782BB90C21201D86
:10424800FDF78AFAFF23237010BD00BFC40D0020BC
:10425800024690F8BE31BBB990F8BF3103F0FF01B8
:104268000BB100207047094B18780028F9D0197055
:10427800D9680433C2F8041103CBC2F8B601C2F8F6
:10428800BA11FF2382F8BE3101207047C40D002007
:10429800426838B592F8863004460D463BB1132B78
:1042A80005D0113B0F2B8CBF0120082038BD92F898
:1042B800C43013B9204607F0F8FE6268D5F80B3011
:1042C800C2F8AE31D5F80F30C2F8B2316368D5F80C
:1042D8001320C3F800211A88A3F86D22D5F801200D
:1042E800C3F86F22D5F80520C3F873226368B5F8C0
:1042F8000920A3F877226368002583F8BE51606817
:10430800054900F5197007F0BAFD636816222846BA
:1043180083F88620CAE700BFC541000038B5436866
:10432800044693F88620202A04D04FF410711F20E9
:10433800FDF7D2F8002293F8C4101D8803F2851007
:1043480083F8C32069B10B4983F8C420A3F88F51BF
:1043580083F88E2107F093FD6368002283F8862096
:1043680038BD012283F88E11A3F88F51024983F8D2
:104378009121EFE793C3000085C3000038B5456875
:10438800AB6F13F0010419D1D1F801200C4BD1F80F
:10439800051013400B4AC5F8D430C3F307630A402D
:1043A80043F00803C5F8D82085F8D73007F07DFE1C
:1043B800AB6F204643F00103AB6738BD0120FCE733
:1043C8002FC904F76FDB0080406810B590F885307E
:1043D800042B28D1D1F801304A1CD1F80540C0F887
:1043E800D430C3F30763C0F8D84043F0080380F81B
:1043F800D730002380F8BE3080F8853090F86731D8
:1044080003F0FF040BB1002010BD038800F25F1019
:1044180044724381D1F801300449C3605368036191
:1044280007F02DFDEFE70120EEE700BF75C400009F
:10443800406890F8673143B9038800F25F10034978
:1044480043811A23437207F01ABD704775C40000F0
:1044580010B50446FEF752FE044A054B02400920F7
:104468000B40C4F80120C4F8053010BD2FC904F76B
:104478006FDB008037B50C464568FEF73FFE0A4BF8
:104488000A4A03400A4095F8D41000930B40019261
:104498008DF800306B4603CBC4F801000920C4F83E
:1044A800051003B030BD00BF2FC904F76FDB0080D3
:1044B80038B5DB04154604D5C37C13B10023036368
:1044C80038BD046B0134046308F037F8436B9C4231
:1044D800F6D30023034903632846BDE8384007F0B4
:1044E800D7BC00BFD1C4000038B54468054694F86D
:1044F8008530012B02D0A36F98073AD494F8C530C1
:104508009A0713D44A78D80784F8CF204A88A4F8A1
:10451800D0208A88A4F8D22043F0020284F8C5206B
:104528000FD5154904F1C60007F0B2FC94F8C53060
:10453800D90711D4A36F9A0708D558214020FCF752
:10454800CBFF94F82A31002BEBD1EFE743F00203BD
:104558002846A36707F0A9FD94F88530012B4FF092
:10456800000301D0002038BD84F8853084F8BE30BF
:10457800F8E70120F7E700BF63C5000070B545689C
:10458800044602F0D7F9054B014685F883001B68FD
:104598001BB12046BDE87040184770BDB413002019
:1045A800024B1B6803B11847704700BFB0130020C7
:1045B800F0B51F4D00242B7814709BB1013B6D683A
:1045C800DBB21E1B012E0FDC05EBC40655F8347058
:1045D80076688E4208BF874227D0B84271EB06063C
:1045E80012D214700020F0BD1E197710C6F34706CA
:1045F80055F837C005EBC70E8445DEF804708F41C7
:104608002CBF33463446DCE705EBC30455F833507A
:1046180064688C4208BF854206D0A84271EB040446
:1046280028BF01331370DDE71C4601201470DAE758
:10463800E40D002010F0070208B503D063214820DC
:10464800FCF74AFF18B1034B197258601A70C8007A
:1046580008BD00BFE40D0020014B00221A7070470E
:10466800E40D0020FF23084A0B700D234B708223B2
:104678008B701368C1F803305368C1F8073093682A
:10468800C1F80B30704700BFFA0D00201622002138
:10469800014809F045BA00BFFA0D002082B002AB0C
:1046A80003E903000D48437DB3B1530614D50A88C6
:1046B8000C30B1F87E3020F80C2CD1F8382220F8D4
:1046C8000A3C40F8082CD1F83C22054940F8042C53
:1046D800022202B0FFF736BB02B07047FA0D002085
:1046E8006D460000094B53F8203003F5224370B59E
:1046F800B13316464FF47A720C46B3FBF2F53444E4
:1047080002F0B4FF2C44204470BD00BFC076020004
:104718002DE9F04F8BB0044698460F46039290F867
:10472800699006F0E2FE824694F87300FFF7AEF84F
:10473800824407F067FF94F8863000F13C061FFAC0
:104748008AFA0293039BABBB94F88430032B31D1D4
:10475800029B0D2B2ED1B4F85432BB422AD1D4F887
:10476800D8312046B4F8AC21C4F8C831A369C4F8DC
:10477800CC31B4F84A321344C4F8D03102F08CF882
:10478800D4F85C2241F64B5194F87130A2618A4208
:104798008CBF002303F00103D4F85812D4F8602228
:1047A800A16284F872300223B4F856122262A185FD
:1047B80084F88430B4F8485204F50673B4F87EE0FF
:1047C8007D1B0493A7EB0E0E2DB20FFA8EFE002D63
:1047D80010DA7546D4E98C23C4E99023012294F8B1
:1047E8008430032B00F26F81DFE813F00600FE002F
:1047F800550020014246F2E70121002007F0FAF8AF
:104808008146A06A5146484403F09CFE5146C4F8CC
:10481800D401A06903F096FE07A9C4F8D80108A836
:1048280002F046FE079B0093DDE90823D4E99001D6
:1048380008F035FD8346204607F0FCFEA26AD4F84E
:104848004C3294F86900D51802F018FFD4F8D41146
:1048580000F52240203D4FF47A73B13032466D1A8C
:104868003031AD1BB0FBF3F04D44A38DA5EB0B0528
:1048780003EB41012D1A94F86900FFF733FFD4F8D0
:104888004C32C4F8DC01EB1ACC2B59D84FF499619F
:104898003020FCF721FEA36A5146D4F8CC01184415
:1048A80003F050FE5146C4F8D401A06903F04AFE53
:1048B800C4F8D801204607F0BDFEA36AD4F8CC514D
:1048C8001D44B4F8AC31002B40F08A80B8F1000FD9
:1048D80000F0868094F8690002F0D0FED4F8D41174
:1048E800D4F8383200F522406D1A94F86920B130B6
:1048F800203D1D448E4B53F822204FF47A7302F268
:10490800E732D4E98C9AB2FBF3F2A5EB0905B0FBC8
:10491800F3F01544AD1B2D1AD4F8D021D4F8C831C2
:1049280094F8690002FB0313A18D3246303301EB82
:104938004301FFF7D7FE0123C4F8DC0184F8843073
:10494800A369D4F8D821A93B9B1A9E1B0023864251
:1049580084F81832D4E9903228BF064604F13000B2
:104968005B19C4F8A86142F10002C4E98A3207F071
:1049780006FB04233044A4F8487284F82132C4F8B2
:104988001C02D4E98A23C4E99023B4F89831DB1BCC
:104998001BB2002BD4BF00220122520084F820222F
:1049A800029A0D2A00F09280B8F1000F40F0918031
:1049B80094F88430002B00F0A880A16904F50670F3
:1049C800D4F8D831C91A06F0C3FF80B2002800F025
:1049D8009C80149B03B1188001200BB0BDE8F08FB8
:1049E800D4F8D4116D1A97E7D4F8D821A369B4F88C
:1049F800ACC19B1AD4F8D011F444D4F8C8015D4373
:104A0800D4F8D431ACEB010C30330CF1FF3C00FB93
:104A18000133A18D94F8690002FB0C33324601EB97
:104A28004301FFF75FFEC4F8DC0189E7D4F8D8A199
:104A3800A369A3EB0A035D4394F88530292B03D0BF
:104A480094F88630292B09D1B4F85432FB1A1B0488
:104A580004D494F85732002B18BF9946B4F8ACC167
:104A680042B3BCF1000F25D1D4E98E23D4E98C01DF
:104A7800904271EB030302D340F21C5108E794F80B
:104A880069104FF47A7B2A4B203A53F82130D4E945
:104A98008C01CDE9040103F2E73103F522430498C0
:104AA800B133121AB1FBFBF1B3FBFBF30A44D21A80
:104AB800921B15440CEB0E01324648460AFB01F1E5
:104AC80030314900ADE740F23451E1E6B8F1000F6A
:104AD8001BD0B4F8C00110B3B4F8C21194F8C421C3
:104AE8004D1CA4F8C21101FB022290420DDD002BDF
:104AF8000BDD0023A4F8C25184F82032FFF7A6F991
:104B080000F00700013084F8C40104F5067104F5CB
:104B1800F87004F0F1FC20B940F28551B8E601467E
:104B2800DCE7039B83F0010384F8E831002054E7B5
:104B3800C07602002DE9F8430E46044618B9D6217E
:104B48003020FCF7C9FC052900F2A780DFE801F056
:104B58000376413DA52E08F057FCC4E946012046DE
:104B680000F05EFFD4F80C01A43808F092FB204650
:104B780008F0FAF8054600BB0146204608F031F86F
:104B880000F1AE06D4F80C01B04209D2301A032164
:104B9800192838BF192008F009FC60B108F07BFB20
:104BA800C4F80C61204608F0EFF845B12046BDE88E
:104BB800F84308F0EAB80125F2E70025F2E7D4E95E
:104BC8004623C4E94023BDE8F883BDE8F84302F072
:104BD8007BBC08F011F804238146884684F811311B
:104BE80008F055FB07220F46A9FB023102FB08110A
:104BF800D4E940525B1941EB0205D4F8E8203AB1F8
:104C080059EA080204D0984277EB050228BF01262A
:104C180084F81061D4E94826121A66EB070694F85E
:104C2800301139B9012A76F100010BDA204600F07B
:104C3800FFFE03E0012A76F10006F7DB002384F883
:104C48002831C0E7984277EB05010FD259EA0808E6
:104C58000CD01B1A65EB07019A4276EB010005DBC5
:104C6800012B71F10000A4BF1A460E460C4901231E
:104C780004F1C000914284F829314FF0000384F810
:104C88000831B341B8BF0A4604F5847104F0C4FC86
:104C9800002898D140F2C26152E7F22150E700BFE4
:104CA8000040420F2DE9F84304460E46154690F899
:104CB800283103F0FF07002B40F0948000F1C00872
:104CC80039467822404608F02BFF2246464940469E
:104CD80008F017FCC4F8E860FF2384F8283166B1AF
:104CE800FFF7CCF800F0070032464049013086F85B
:104CF800C40106F5F87008F004FC40F202434FF0D6
:104D08000009A4F8103184F8089103F071FC00F14F
:104D18004906204608F028F80146B6B2C0B306F0A6
:104D2800E4FB00F5CD61284689B203F00BFC28446A
:104D3800AE3DC4F80C0108F0AAFA3018A4F81E9089
:104D480041F10001C4E94601012084F8EC0008F0B3
:104D5800B6F82D1AC4F8F0504FF0FF356FF0004147
:104D68004046D4E94623C4E94851002504F5847136
:104D7800C4E93E23C4E9402384F8295142F2107261
:104D880004F04AFC38BB4FF4DE713020FCF7A4FB7A
:104D98002046DFF85C9007F024FFAE30C4F80C0121
:104DA800B9F8000048B1E08B38B1FFF767F8B9F8F7
:104DB8000030B0FBF3F202FB1300064408F067FA78
:104DC800361841F10001C4E94661002DC4D0AD197F
:104DD80041F10001C4E72946204607F0D8FF3846CC
:104DE800BDE8F8830C27FAE73D4B000057C60000E2
:104DF800100E0020F0B5002385B0CDE90033012363
:104E08008DF806306846FCF7F5FE70B10123114EA7
:104E1800B3700023CDE9023302A8FCF7EBFE044689
:104E280038B10023B37005B0F0BD009807F005FD58
:104E3800E8E7029D95F88430002BEDD005F5F8776A
:104E4800384604F0B9FB384608F081FB85F8844001
:104E5800E2E700BF100E0020044B0022DA709A70BF
:104E680042F210721A80FFF7C5BF00BF100E002073
:104E7800014BD870704700BF100E002008B502F033
:104E88005DF8044B5A6882422ABF9878002080F067
:104E9800010008BD100E0020F7B5044606297AD88F
:104EA800DFE801F0042715252B3074003B4B9B7875
:104EB80003F0FF025BB900920123B0F89C11FFF7E1
:104EC80027FC38B140F2DE613020FCF705FB0423F3
:104ED80084F8843002F0D6F904F0FAFA0023B4F822
:104EE8007E20A4F84A32A4F8E62184F8E93103B018
:104EF800F0BD032380F88430F9E708F051F9C4E9DC
:104F08008E01F4E790F8690007F084FB7730D4F855
:104F1800D8319528A569214F8CBF0020C0F1960093
:104F2800C218954288BFED1AFB7894BF00252D1A48
:104F38001BB9236B9D4228BF1D46D4F8A86104F114
:104F4800300007F01CF80644022008F005FA022198
:104F5800AD1B25EAE575854228BF0546284608F0B9
:104F680025FA10B12E4408F096F901234FF4807207
:104F78003146204607F060F8D4F8A8317860A06977
:104F8800184403B0BDE8F04008F083B903B0BDE8A9
:104F9800F04007F04FBB40F2AC7195E7100E0020CF
:104FA800014B1880704700BF100E00200346074AC7
:104FB8001068D3F84920C0F80320B3F84D20A0F8B2
:104FC800072093F8481006F073BE00BF180E0020A3
:104FD80070B504460E461346807D6588324615F046
:104FE800040118BF04F15701FEF79AFB4107054673
:104FF80021D4C2070BD50123A07D84F84830FEF7E1
:10500800F3FB0368C4F849308388A4F84D30AB0734
:1050180001D4012070BD094B01211868D4F857301C
:1050280084F85610C0F80930B4F85B30A0F80D3099
:1050380006F047FEEDE70020ECE700BF180E002061
:1050480038B5C38C04460F4D0133C3F30E03C38434
:105058002B7C2BB102F0F8F901F008FD00232B742A
:1050680000232B7194F869302BB101212046BDE84B
:10507800384007F0B0BC637C13B1E28C9A42F4D29A
:105088000021F3E7180E002010B5074C2379012BF7
:1050980005D1237C1BB102F0D7F901F0E7FCA06928
:1050A800BDE81040FFF7CCBF180E002070B5254CA6
:1050B8002379012B04D040F681412D20FCF70CFA0E
:1050C80098B90125237C1BB102F0BEF901F0CEFC92
:1050D800002D36D0A06907F0CBFB68B302F07EF84C
:1050E800E369BDE870409B6818472168A26911F818
:1050F800095B02F1490392F84820E80906F0CEFB63
:105108000028DED00021206806F000FE0028D8D054
:105118002379A069012B02D040F65B41CDE72379C2
:1051280005F00F01E26903F180435269013B52F82F
:10513800233098470546C5E7A069BDE87040FFF7EA
:105148007FBF70BD180E00200346074A906903B957
:1051580009B9FFF775BF1379D26903F18043126962
:10516800023B52F823301847180E002003292DE976
:10517800F043054685B0174607D14388980723D4DE
:105188000024204605B0BDE8F083428890F86830D6
:10519800D107DBB2F4D5002BF2D14FF00108DFF8CC
:1051A800D49099F81060C6B106F0BCFB0828387096
:1051B80016D002AA0DF10701FEF788FA38B940F6B1
:1051C800F6612D20FCF788F94FF00208E7E702A9FD
:1051D8009DF8070007F0FEF906463B78082B08D132
:1051E800D9F8001011F8030BC0F3801007F0F2F99A
:1051F8000646D9F8001005F1500395F84F2011F82C
:10520800030BC0F3801006F049FBD9F800100446E0
:1052180011F8030BC0F3801006F07AFB8146FEF705
:10522800F5FA40B1B9F1080F1BD04846FEF77AF9F4
:1052380080F00103D8B23A78082A14D01CB9AC7DA2
:10524800A21A544254416A8853079AD4002897D125
:1052580076B9EC7C444518BF002C0CBF012400240F
:105268008FE70020E7E780F001022240D4B2EAE7A6
:10527800344686E7180E00202DE9F04F85B0082344
:10528800052104460DF107028DF80730FFF76EFF80
:10529800064620B90026304605B0BDE8F08F734FAA
:1052A800396807F112037A7C11F8030BC0F38010F8
:1052B80006F0F4FA80460028ECD13B6840F2E24957
:1052C800A169184691F88D5010F8032BC2F34012CB
:1052D8002A401D4681F88D20D3F80320C1F8032009
:1052E8008288A1F8072015F81F1BA269C1F3801155
:1052F800917002A9D3F81F00029028790871D3F899
:105308000F00D061587D1D7D000440EA0520DD7C3A
:1053180028435062B3F8190082F8728009FB00F044
:1053280090619D7DC5EB451005EB800505EB850576
:105338006D009585B3F8170009FB00F09062B3F88B
:105348001B001084B3F81D00508493F8243003F038
:105358001F005B0982F8990082F87330A56994F9F7
:1053680012A005F18D0006F000FC40F20113A5F82B
:1053780068304FF0FF0B85F86AB0414605F1300000
:10538800FEF7ECFC51462846FEF776FAA36984F846
:10539800738004F17E011A8884F891B0A4F874200F
:1053A8004FF6FF729DF80700A4F892209A69B2FBA5
:1053B800F9F2A4F88A201A8CA4F88C205A8CA4F844
:1053C8008E2093F8732084F89020627D5AB394F865
:1053D8004820012A27D194F84E2002F0C002402A22
:1053E80021D1D4F84920C4F87E20B4F84D208A8011
:1053F80008289A7803F1030504F1840184F87720DA
:1054080004F17802D3F8033027D0C4F88430AB888D
:105418008B8004F17701FEF759F940B940F6E13184
:105428002D20FCF759F80022C4F87E20DFE794F815
:10543800773043F0020384F8773004F16A000C49AE
:1054480006F01DFD0B4B0022A0691B683A71002B6A
:105458003FF421AF214698471DE7A367AB889380A7
:105468000023C4F884308B80E7E700BF180E0020C3
:1054780007CB0000BC130020032937B5044604D02D
:10548800052957D0012003B030BD08230DF10702CC
:105498008DF80730FFF76AFE0028F3D0237C2A4DE9
:1054A80003B39DF8070094F8B630DBB923780828D1
:1054B80004F1B90284F8B7302DD004F1B801FEF731
:1054C80005F920B940F66F712D20FCF705F894F81E
:1054D800B83043F0020384F8B8301C4904F1AE0038
:1054E80006F0CDFC2B68042220461A7006225A705A
:1054F800FFF75CFD616B94F83820286806F0F7FB2D
:10550800032328682B7101F023FF0021286807F086
:1055180051FE0020B7E72868034613F8031BC1F3C0
:10552800801184F8B810D0F80310C4F8B9109B881B
:105538009380D2E7064B1B68002BEAD0984780F08F
:105548000100C0B29FE700BF180E0020EFCA00009C
:10555800B8130020F8B504460F4619B300F120052A
:10556800284607F089FCA0B963881A072ED5284673
:1055780007F097FC0646284607F07EFC301AC0B2B2
:1055880007F09DFC494A936803442846936007F056
:1055980052FC284607F054FC01F08EFD21792520A5
:1055A80001F0F0FC414E002394F856203068037057
:1055B80043706388103B0D2B68D8DFE803F06367FE
:1055C8005F0C674467676767676767442046BDE89D
:1055D800F840FFF735BD06234370202303702046AB
:1055E800FFF7E4FC638823F008039BB2152B05D072
:1055F80094F83020E16A306806F06AFB306801F000
:10560800A7FE0021306807F0D5FD0223217900208C
:10561800337101F05FFD054607B9F06063881B0729
:1056280004D507F049FC0544C4F8F4506388103BDE
:105638000D2B36D8DFE803F038352F2F352F3535C9
:1056480035353535352F0C2321214370034603F8B2
:10565800091B52B1D4F857200121C0F80920B4F829
:105668005B209A8006F02DFBB9E7226DC0F809206F
:10567800B4F854209A8094F84F10F3E70623037087
:105688004370ACE7022303700623F9E740F259613F
:105698002D20FBF721FF21790120BDE8F84001F01A
:1056A800EDBE40F6F441F3E7F8BD00BF180E002048
:1056B80038B543880446102B04D10121BDE8384091
:1056C800FFF748BF0B4D2B7C23B101F0A9F940200F
:1056D80001F0AEFE286801F03BFE608810F004007F
:1056E80002D1217901F0CAFE002001F07FFE0123DA
:1056F8002B7138BD180E0020024B01219869FFF765
:1057080029BF00BF180E002010B5124C237C1BB116
:1057180001F09AFE01F0AAF9A06907F0A9F838B1DA
:105728002379012B09D040F685312D20FBF7D4FED3
:10573800A069BDE81040FFF783BC2379E26903F153
:105748008043A069D268013BBDE8104052F823307D
:10575800184700BF180E0020074810B5037903F05A
:10576800FF0433B914222146043008F0D9F9204641
:1057780010BD0C24FBE700BF180E002010B5002355
:10578800094C2371FDF7A6FC2060FFF7E5FF20B167
:105798004FF442712D20FBF79FFEE36913B940F2E5
:1057A8000B31F7E710BD00BF180E0020014B024A6D
:1057B800DA617047180E00207C5A0000034B044A37
:1057C8001A60044B044A1A60704700BFB8130020DF
:1057D80081520000BC1300208FC90000F8B5057D78
:1057E8000446AF1EFFB2002D3AD0012F2DD800F18C
:1057F800500190F84F0006F08BF80828064624D090
:10580800FDF79CFE10BB023D18BF0125012F84F84F
:105818004850A6758CBF002701276775FDF750FF14
:10582800054607F034FD0022144B84F85620E5FBAA
:105838000301C4E9100111462046FFF7C9FB70B9FE
:1058480040F2A3412D20FBF747FE0826022D09D17F
:1058580004F149010020FDF7FFFC60B90020F8BD04
:105868000826F5E704F149010120FDF7F5FC0028B9
:10587800F4D00125CAE70025C8E700BF40420F0061
:10588800F0B5444E85B00446327902F0FF0312B9F0
:105898000278FF2A04D140F6DD112D20FBF71CFE0B
:1058A800B36080F869303C4B684604F120050093EA
:1058B8003A4B01933A4B0293F3695B68039301F007
:1058C8003FFD01F08BFB01F0BFFD01F0CFF835483B
:1058D80001F0E8FB344801F02DFD284607F0ABFA4B
:1058E800284607F0ADFA01F0E7FB2179252001F001
:1058F80049FB94F9120001F0CFFB04F12C01A06AD6
:1059080005F0DDF8074604F13401A06A05F0FEF859
:105918000546DFB1237FCBB1B4F92650ED43ED0F37
:10592800637D13B963885B0709D56FF00043D4E939
:1059380010129A4208BFB1F1FF3F0DD19DB93068EE
:105948000330FDF7DBFE307405B0F0BD002DE7D065
:10595800657F002DE0D1E3E707F099FCD4E9102337
:1059680090429941EAD3012229462046FFF730FBAD
:1059780050B1FDF7A5FE054607F089FC0B4BE5FB8A
:105988000301C4E91001DAE7002DD8D040F61B2145
:1059980083E700BF180E002011570000B550000023
:1059A80051510000D6BE898E5555550040420F0012
:1059B80073B50446FFF764FF00212046FFF7CAFDD0
:1059C800236E0BB101221A606388DB0721D50023FF
:1059D800114EA569CDE90033FF2373746846FCF7BF
:1059E80009F9B0B9009CA542F8D005F10A036A7A12
:1059F80004F10A01607A05F051FF0028EED0A3787F
:105A08007374D4F80330C6F81230044BB4F8072086
:105A18009A8002B070BD00BF180E00202A0E002028
:105A2800024B9861DB691B68184700BF180E0020FD
:105A380043881B0710B504460ED583693C220849E4
:105A48006A3042721B884381FF2380F827304FF663
:105A5800FF73038506F013FAFF2384F8693010BD3D
:105A680007CB000053CB0000B956000059CB00000B
:105A780081540000B95900009150000001570000FE
:105A88006C5A0000705A0000785A00000138022849
:105A980008B503D9C4212F20FBF71EFD13290A4B93
:105AA80005D811290CD8102907D0D221F3E71529D8
:105AB800FBD103EB4003D88801E033F8100008BDA0
:105AC80003EB40039889FAE73E7602000C4A034646
:105AD800117889B9906833B9B0F85810828F91421B
:105AE8000AD8FFF7CBB993891B0707D590F8870029
:105AF800073818BF01207047002070470120704701
:105B0800380E00202D4A38B50346948990681C4306
:105B1800402B948104D10421BDE83840FFF7BCB97B
:105B2800802B01D10521F7E703F00304032C04D1EE
:105B380040F63B313120FBF7CFFCDD0706D50C687A
:105B480011612478062C0FD00B2C19D09C0706D590
:105B580009680978052911751DD00B2927D09B06DE
:105B680044BF0823137038BD90F886401C2CEDD133
:105B780000240025C0E93845012480F88A40E5E77B
:105B880090F88640122C01BF002480F88A40012436
:105B980080F8C440DAE790F886101829DFD100248D
:105BA80000250121C0E93A4580F88B10D7E790F825
:105BB80086101129D3D10021F6E700BF380E002046
:105BC80073B5044640680D46836F13F0300F4AD111
:105BD800B1F805101A2904D9B5F80730B3F5A47F30
:105BE80006D22978204602B0BDE8704006F08FBA88
:105BF800B5F801201A2AF4D9B5F80360B6F5A47FE0
:105C0800EFD33030009606F0CCF9184B9A899207FA
:105C18000DD51B7D142B0AD16268936F43F01003D6
:105C28009367204606F041FA002002B070BD636811
:105C380093F88520212AEFD093F81B31002BEBD164
:105C4800636893F81A31002BE6D16268936F1146A6
:105C580002F59F7243F0200331F8300B42F8C63C3E
:105C6800FEF7E0F8DDE70120DFE700BF380E00208F
:105C780013B5044601A8FDF799FA20B940F61711A3
:105C88003120FBF729FC22220021019807F048FF68
:105C980001992246064801F8034FFEF7ADF9FDF7D2
:105CA80091FA10B940F61E11EAE702B010BD00BF24
