:1000000038630020A5380100D7180200913801009C
:100010009138010091380100913801000000000082
:10002000000000000000000000000000DD390100B9
:10003000913801000000000075390100913801007D
:10004000113B0100113B0100113B0100113B01007C
:10005000113B0100113B0100113B0100113B01006C
:10006000113B0100113B0100113B0100113B01005C
:10007000113B0100113B0100113B0100113B01004C
:10025000113B0100B7510200113B0100113B0100AD
:10026000113B0100113B0100A1510200113B0100B3
:10027000113B0100113B0100113B0100113B01004A
:10028000113B0100113B0100113B0100113B01003A
:10029000113B0100113B0100113B0100113B01002A
:1002A000113B0100113B0100113B0100113B01001A
:1002B000113B0100113B0100113B0100113B01000A
:1002C000113B0100113B0100113B0100113B0100FA
:1002D000113B0100113B0100113B0100113B0100EA
:1002E000113B0100113B0100113B0100113B0100DA
:1002F000113B0100113B0100113B0100113B0100CA
:10030000113B0100113B0100113B0100113B0100B9
:10031000113B0100113B0100113B0100113B0100A9
:10032000113B0100113B0100113B0100113B010099
:10033000113B0100113B0100113B0100113B010089
:10034000113B0100113B0100113B0100113B010079
:10035000113B0100113B0100113B0100113B010069
:10036000113B0100113B0100113B0100113B010059
:10037000113B0100113B0100113B0100113B010049
:10038000113B0100113B0100113B0100113B010039
:10039000113B0100113B0100113B0100113B010029
:1003A000113B0100113B0100113B0100113B010019
:1003B000113B0100113B0100113B0100113B010009
:1003C000113B0100113B0100113B0100113B0100F9
:1003D000113B01008B510200113B0100113B010058
:1003E000113B0100113B0100113B0100113B0100D9
:1003F000113B0100113B0100113B0100113B0100C9
:10040000113B0100113B0100113B0100113B0100B8
:10041000113B0100113B0100113B0100113B0100A8
:10042000113B0100113B0100113B0100113B010098
:10043000113B0100113B0100113B0100113B010088
:10044000113B0100113B0100113B0100113B010078
:10045000113B0100113B0100113B0100113B010068
:10046000113B0100113B0100113B0100113B010058
:10047000113B0100113B0100113B0100113B010048
:10048000113B0100113B0100113B0100113B010038
:10049000113B0100113B0100113B0100113B010028
:1004A000113B0100113B0100113B0100113B010018
:1004B000113B0100113B0100113B0100113B010008
:0404C000113B0100EB
:1004C80080EA101404F0F01480EA0410604081EA15
:1004D800111404F0F01481EA0411614082EA121444
:1004E80004F0F01482EA0412624083EA131404F060
:1004F800F01483EA0413634080EA102404F47F4470
:1005080080EA0420604081EA112404F47F4481EAEF
:100518000421614082EA122404F47F4482EA04221E
:10052800624083EA132404F47F4483EA042363408B
:1005380081EA500404F0553480EA4400614083EABB
:10054800520404F0553482EA4402634082EA90047B
:1005580004F0333480EA8400624083EA910404F0B2
:10056800333481EA84016340704700BF82EA900413
:1005780004F0333480EA8400624083EA910404F092
:10058800333481EA8401634081EA500404F055342D
:1005980080EA4400614083EA520404F0553482EA58
:1005A8004402634080EA102404F47F4480EA042073
:1005B800604081EA112404F47F4481EA0421614007
:1005C80082EA122404F47F4482EA0422624083EA25
:1005D800132404F47F4483EA0423634080EA10145C
:1005E80004F0F01480EA0410604081EA111404F069
:1005F800F01481EA0411614082EA121404F0F01444
:1006080082EA0412624083EA131404F0F01483EAC5
:1006180004136340704700BF2DE9F14F94464FEA39
:10062800930B8A68CB6808684968FFF749FF0BF1A4
:10063800060E33E083EA134480EA134582EA13473F
:1006480046BA96EA3444604000F00F1684EA06344D
:1006580020F00F1684EA161054BA94EA0106724084
:1006680002F00F1486EA043622F00F1486EA1412F8
:100678004CBA6540694001F00F1485EA043521F051
:100688000F1485EA14115CBA67407B4003F00F141D
:1006980087EA043723F00F1487EA1413BCE8F00044
:1006A8006040694072407B4000F0E03400F0103553
:1006B80000F00F3040EA540040EAC50080EA900498
:1006C80004F0332480EA8400604001F0E03401F053
:1006D800103501F00F3141EA540141EAC50181EAC0
:1006E800910404F0332481EA8401614002F0E0348B
:1006F80002F0103502F00F3242EA540242EAC50213
:1007080082EA920404F0332482EA8402624003F00D
:10071800E03403F0103503F00F3343EA540343EA9F
:10072800C50383EA930404F0332483EA8403634013
:1007380081EA324787EA134581EA354690EA06049A
:1007480084EA034B82EA1B4280EA044484EA0544B3
:1007580083EA144A85EA14448BEA044B84EA374452
:1007680081EA0B4181EA164104EA0A00454082EA1F
:1007780004082BEA080041408AEA0B0602EA060050
:1007880084EA34438AEA3A4603EA06077840454051
:10079800414088EA38478BEA3B4007EA000985EA86
:1007A800090583EA0709464006EA0906714085EA11
:1007B800010005EA3546464006EA314181EA304102
:1007C80081EA364606EA304686EA3546344008EA83
:1007D800010886EA01052A4086EA364003405A4065
:1007E80081EA31431F407C4080EA030709EA070990
:1007F80088EA0908544088EA020806EA0A0601EA73
:100808000B018AEA0B0215408AEA3A421040454039
:100818008BEA3B4003405E404240174079404D40E0
:100828004E40E443F64386EA18435D4085EA0540B6
:1008380083EA134386EA034183EA384284EA114390
:1008480083EA04435FEA3343BEF1010E3FF6F2AE9A
:100858001ED4BCE8F0006040694072407B4020BC78
:10086800FFF784FE28606960AA60EB60BDE8F08F3E
:100878002DE9E0414FF2F00280EA1031114080EAA0
:100888000130484041088208C3084FF0000E4FE786
:1008980000F0113001F0113102F0113203F0113380
:1008A80040EA410040EA820040EAC3004FF2F00209
:1008B80080EA1031114080EA01304840BDE8E0810B
:1008C8002DE9F04F02F11C050646074600EB8508A6
:1008D80051F8040B043A46F8040BF9D14FF0010C17
:1008E800FFF7C6FF5FEA302080EA0C001ECF4140C8
:1008F8004A4053405C401EC62000464517D04FEA88
:100908004C0C1CF4807F18BFACF1E50C2C2DE7D003
:100918003C2D06D1FFF7ACFF06CF41404A4006C642
:10092800100006CF41404A4006C61000D8E736E915
:100938000F00FFF7C5FD043D86E80F00F7D1BDE8BD
:10094800F08F00BF2DE9F14F03F11C0402EB840C7A
:100958004FEA930B8A68CB6808684968FFF7B0FDCF
:100968003CE9F0006040694072407B400BF1060EA4
:100978004EE083EA134480EA134582EA134746BAF5
:1009880096EA3444604000F00F1684EA063420F0FA
:100998000F1684EA161054BA94EA0106724002F05F
:1009A8000F1486EA043622F00F1486EA14124CBAA1
:1009B8006540694001F00F1485EA043521F00F14F1
:1009C80085EA14115CBA67407B4003F00F1487EA8C
:1009D800043723F00F1487EA141344BA44404DBA7D
:1009E8004D4056BA56405FBA5F4087EA174886EAD4
:1009F800174B84EA17464FEA38488BEA1B4485EAC6
:100A08001B4788EA1B4580EA3440694072407B40B6
:100A180000F0703400F0803500F00F3040EA4400F8
:100A280040EAD50080EA900404F0332480EA840088
:100A3800604001F0703401F0803501F00F3141EA77
:100A4800440141EAD50181EA910404F0332481EAA2
:100A58008401614002F0703402F0803502F00F32F8
:100A680042EA440242EAD50282EA920404F03324BC
:100A780082EA8402624003F0703403F0803503F0A8
:100A88000F3343EA440343EAD50383EA930404F0AB
:100A9800332483EA84036340C943DB4381EA0004C7
:100AA80083EA044686EA020183EA014382EA33457F
:100AB80083EA14435C4084EA00077FEA040A8AEA6E
:100AC800024A8AEA010B87EA11488AEA374A80EA29
:100AD800060181EA1A418AEA030A04EA0A00454043
:100AE80088EA040707EA0B0041408AEA0B0608EA8D
:100AF800060084EA34428AEA3A4602EA0603584083
:100B08004540414087EA37438BEA3B4003EA000906
:100B180085EA090582EA0309464006EA09067140A2
:100B280085EA010005EA3546464006EA314181EA90
:100B3800304181EA364606EA304686EA3546344090
:100B48000F4086EA010508EA050886EA36400240B1
:100B580088EA020881EA314213405C4080EA0203D5
:100B680009EA030987EA0907674088EA040806EAE8
:100B78000A0601EA0B018AEA0B0425408AEA3A448C
:100B8800204045408BEA3B4B02EA0B02564084EA80
:100B98000B04234059406E40694087EA364080EA9A
:100BA800384080EA060380EA104481EA134585EA62
:100BB800344585EA17427D4082EA354180EA05409E
:100BC8003CE9F0006040694072407B40BEF1010E94
:100BD8003FF6CFAE20BCFFF7C9FC28606960AA6069
:100BE800EB60BDE8F08F00BFFFF76ABE2DE9F007A4
:100BF80091E8F807B2E802105B1854EB0C04B2E86D
:100C080002104D4156EB0C06B2E802104F4158EB6A
:100C18000C08B2E8021059EB01095AEB0C0A80E8FB
:100C2800F80780410130BDE8F00770472DE9F0076B
:100C380091E8F807B2E802105B1A74EB0C04B2E80A
:100C480002108D4176EB0C06B2E802108F4178EB6A
:100C58000C08B2E8021079EB01097AEB0C0A80E87B
:100C6800F80780414042BDE8F00770472DE9F007DA
:100C7800524290E87800B1E880071740DB1918EA7B
:100C8800020854EB080419EA020955EB09051AEAA7
:100C9800020A56EB0A0678C090E87800B1E88007A7
:100CA80017407B4118EA020854EB080419EA0209C4
:100CB80055EB09051AEA020A56EB0A0678C0804184
:100CC8000130BDE8F00770472DE9F007524290E87F
:100CD8007800B1E880071740DB1B18EA020874EBBC
:100CE800080419EA020975EB09051AEA020A76EB03
:100CF8000A0678C090E87800B1E880071740BB4141
:100D080018EA020874EB080419EA020975EB0905E8
:100D18001AEA020A76EB0A0678C080414042BDE82A
:100D2800F00770472DE9F00152424FF0040890E8AF
:100D3800300091E8C000A31B1340E41AF618EB1B1F
:100D48001340ED1AFF1830C0C0C1B8F10108EED148
:100D5800BDE8F001704700BF00B592E8DC072DE957
:100D6800DC07B1E8805702B4A7FB02510A95A8FB3B
:100D7800020B09180020E7FB03105BEB000B0020B7
:100D88004041E9FB02B00B91A8FB03514018002138
:100D98004941EAFB02011BEB050B0025E7FB04B503
:100DA80068410025E7FB0605694100256D41E8FB20
:100DB8000615CDF830B0A9FB03B689190026EAFB61
:100DC8000316754100267641ECFB035610EB0B0029
:100DD8005FF0000BE8FB040B51EB0B015FF0000B1D
:100DE800E9FB041B55EB0B055FF0000BEAFB045B0A
:100DF80056EB0B065FF0000B5BEB0B0BECFB046B8D
:100E08000D90ACFB0230059C2D180020EEFB025023
:100E180046410020E9FB04605BEB000B00204041E9
:100E2800EAFB04B05B180021E7FB04314D410021C7
:100E3800E8FB0451069C4E410021E8FB04615BEB92
:100E4800010B0021E9FB04B1484100214941EAFBBB
:100E580004010E93A7FB0432079CB6180022E7FB97
:100E680004625BEB020B0022E8FB04B25041002253
:100E7800E9FB0402514100225241EAFB0412049C9E
:100E8800ED180023E9FB04535E410023EAFB0463E9
:100E9800089C5BEB030B0023E7FB04B358410023DA
:100EA800E8FB040359410023E9FB04135A410023DA
:100EB8005B41EAFB04230F955DF8049B99E8000663
:100EC800DDF80080A9FB08541BEB040B0024EAFBA7
:100ED80008B4DDF8108060410024ECFB080461418F
:100EE8000024EEFB081462410024E9FB0824634156
:100EF80000246441EAFB0834DDF8048076190025F3
:100F0800EEFB08655BEB050B0025E9FB08B56841BE
:100F18000025EAFB0805DDF8148069410025ECFB93
:100F280008156A410025EEFB08256B410025E9FB01
:100F380008356C4100256D41EAFB08450F96DDF840
:100F48000880AEFB087680190026E9FB0806714187
:100F58000026EAFB0816DDF8188072410026ECFB33
:100F6800082673410026EEFB083674410026E9FB8B
:100F78000846754100267641EAFB0856DDF80C80E4
:100F88001BEB070B0027ECFB08B778410027EEFBAB
:100F9800080779410027E9FB08177A410027EAFB8F
:100FA8000827DDF81C807B410027ECFB08377C41D3
:100FB8000027EEFB08477D410027E9FB08577E41E3
:100FC80000277F41EAFB086708B000BD2DE9F14F13
:100FD80087B0FFF7C1FEDDF81C8008F1200888E81B
:100FE800FF00FFBC87E87F08BDE8F08F00B591E8F7
:100FF8004C57A2FB02410194A2FB0345241900208F
:10100800E2FB06506D417F41641802940021E2FB27
:101018000801A3FB034B654103950024E3FB060489
:1010280040417F41091900246441E2FB0914FF078C
:1010380050EB0B0004900025E2FB0A455FF0000B23
:10104800E3FB081B49415FEA370714EB0B045FF029
:10105800000BE3FB094B55EB0B055FF0000B5BEB5B
:101068000B0BE2FB0C5BFF0F0020E2FB0EB0002233
:101078005141E6FB061205910021E6FB0841644157
:101088007F416D180021E3FB0A515BEB010B002146
:10109800E3FB0CB1484100214941E3FB0E01002369
:1010A800E6FB09531BEB030B0023E6FB0AB358418D
:1010B8000023E6FB0C03594100235B41E6FB0E13BA
:1010C800FF07544106946D417F41A8FB082655410E
:1010D80007950022E8FB09B25BEB0B0B7F418018F8
:1010E8000022E8FB0A0251410022E8FB0C125A4197
:1010F80000235B41E8FB0E230024E9FB0E340025A6
:10110800E9FB0A1552190025E9FB0C256B4100255E
:10111800EAFB0C356C4100256D41EAFB0E45FF07E3
:101128005BEB060B0026ECFB0E5640414941524151
:101138005B4164416D417641AEFB0EE848F1000821
:101148007F00A9FB0979784151EB0901AAFB0A7ACA
:101158007A4153EB0A03ACFB0C7C7C4155EB0C0544
:1011680056EB0E0648F1000700BD00BF2DE9F14F10
:1011780087B0FFF73BFFDDF81C8008F1200888E8FE
:10118800FF00FFBC87E87F08BDE8F08F30B44FF060
:10119800000310F8014B11F8015B013A84EA0504D9
:1011A80043EA0403F5D1A3F101034FEAD37030BC3D
:1011B800704700BF4FF0000310F8012B013943EAD4
:1011C8000203F9D1A3F101034FEAD370704700BFBE
:1011D80030B411F8014B12F8015B6C4000F8014B78
:1011E800013BF6D130BC70472DE9F00791E8F807CC
:1011F800B2E802105B1854EB0C04B2E802104D413F
:1012080056EB0C06B2E802104F4158EB0C08B2E856
:10121800021059EB01095AEB0C0A8941B3F1FF336B
:1012280074F1FF3475F1FF3576F1000677F10007A8
:1012380078F1000879F101097AF1FF3A51F10001DA
:101248005B184C414D4156F1000657F1000758F123
:10125800000859EBD1795AEB010A80E8F807BDE894
:10126800F00770472DE9F00791E8F807B2E8021097
:101278005B1A74EB0C04B2E802108D4176EB0C0695
:10128800B2E802108F4178EB0C08B2E8021079EB53
:1012980001097AEB0C0A89415B184C414D4156F122
:1012A800000657F1000758F1000859EBD1795AEBBD
:1012B800010A80E8F807BDE8F007704718EB040852
:1012C80059EB05095AEB060A5BEB070B5FF0000CBC
:1012D8004CF1000C18EB050859EB06095AEB070A04
:1012E8005BEB070B50EB0C005FF0000C51EB0C01B3
:1012F80052EB0C0263414CF1000CB8EB070879F192
:1013080000097AF1000A7BEB040BA841B141A24124
:10131800B3416CF1000CBBEB050BB041B941AA41DC
:10132800BB416CF1000C4CF001068CF0020718EB85
:10133800060859EB6C095AEB6C0A7BEB6C0B70EBEB
:101348006C0471EB6C0572EB670653EB6C076CEB86
:101358006C0C18EB0C0059EB0C015AEB0C025BF10E
:10136800000354F1000455F1000556EBDC7657EB09
:101378000C0770472DE9F14F87B0FFF7EDFCDDF85A
:101388001080DDF81490DDF818A0FFF797FFBDE88E
:10139800000FFFF793FF03B05DF8048B88E8FF00A8
:1013A800BDE8F08F2DE9F14F87B0FFF71FFEDDF89C
:1013B8001080DDF81490DDF818A0FFF77FFFBDE876
:1013C800000FFFF77BFF03B05DF8048B88E8FF0090
:1013D800BDE8F08F064A074B02604FF43A72DB789B
:1013E80082800822C371002382710372704700BF94
:1013F800CB0F010048090020064A074B02604FF452
:10140800C072DB7A82800822C371FF238271037263
:10141800704700BFA5080100480900202DE9F341E5
:10142800C41D0028064624F007040CBF00202046EF
:1014380000F054FC071E04DA6FF00B0002B0BDE8A0
:10144800F081374DE988A88803316B7A03302A7A0E
:1014580089B280B20CF0FBF90028EDDB3C44A97896
:10146800EB78002E04F10304194424F0030400FB74
:1014780001F10CBF0020204600F0C0FD20440EB949
:101488000028D9DBEA7A0446B2B1EB7B697C1344C5
:101498001944FF29D0D80330002EAA89C9B220F0F8
:1014A80003040CBF0020204600F01AFE0028C3DB0E
:1014B80004440EB9002CBFDB012000F005FCB0B1DC
:1014C800A97BA1B195F82A3033B340234FF4817238
:1014D8000734002E24F007040CBF0020204601F03A
:1014E80099FD0028A8DB04440EB9002CA4DBAB7AD4
:1014F800FBB1EB7AB3B10734002EA97A24F00704C4
:101508000CBF0020204604F0E5F8002894DB0444D2
:101518007EB9002C0DDA8FE725232822D8E700BFF3
:1015280048090020012000F0CFFB10B1AB7B002B55
:10153800E1D1734B1B6893B1A97D81B10334002EAF
:10154800EA7D24F003040CBF0020204698470028B9
:10155800FFF672AF044416B9002CFFF66DAF694B65
:101568001B688BB1297C79B10334002E24F0030465
:101578000CBF0020204698470028FFF65DAF0444C2
:1015880016B9002CFFF658AF5F4B1F68B7B1697CDE
:10159800A1B10334002E2B7D24F0030408BF0020E2
:1015A800009318BF2046EB7CAA7CB8470028FFF6BA
:1015B80043AF044416B9002CFFF63EAF072000F0F5
:1015C80083FB98B1A97D89B10334002E2A7E24F0CB
:1015D80003040CBF0020204600F070FE0028FFF630
:1015E8002BAF044416B9002CFFF626AFB6FA86F7DF
:1015F80095F823007F09A0B103346B7FA97E24F0FE
:10160800070419443B4644F00404C9B2224600F0DA
:1016180095FE0028FFF610AF044416B9002CFFF61B
:101628000BAF95F8241000294CD004F10708002EC0
:10163800EA8C28F007080CBF002040460CF01BF984
:10164800041EFFF6F9AE4444002E3ED1002CFFF6EE
:10165800F3AEA97F002945D095F82230002B41D060
:101668002A8C0734002E02F1240224F007080CBF4C
:101678000020404692B20CF0FEF80028FFF6DCAEDF
:10168800404416B90028FFF6D7AE03302B7FA97E59
:1016980020F0070019443B4640F0040495F8220066
:1016A800C9B2224600F03CFE0028FFF6C5AE04444D
:1016B80086B9002CFFF6C0AEEB6AF3B1C6B1EC6296
:1016C8000020BBE6002EC4D08846E98C404609F0CD
:1016D800A1F8BEE72A8C4046A97F083292B209F0E9
:1016E8009FF8E9E7002EE7D0002211461046F6E7FA
:1016F80028343FF5A1AE2046A0E6002EE0D1FAE757
:10170800EC150020F0150020F41500201FB572B666
:10171800194B1C6BECB9BFF34F8F1849184BCA68AB
:1017280002F4E0621343CB60BFF34F8F00BFFDE7C5
:10173800B2FBF6F22B465D1C002AF9D1DBB203F1AD
:1017480010056D4405F80C2C0A2233B901A8A047EE
:10175800E1E7024600230A26EDE7013BDBB203F18D
:1017680010050DEB0506B0FBF2F502FB1500303055
:1017780006F80C0C2846E8E74809002000ED00E0D0
:101788000400FA0513B5124C68462389ADF80030F9
:10179800E388ADF80430A388ADF8023002F0C4F94C
:1017A80018B1F8219C20FFF7B1FF207D02F0ECF979
:1017B80008B1FB21F6E7E07C02F0E0F908B1FC2172
:1017C800F0E794F8280007F077FD02B010BD00BFDD
:1017D8004809002038B5054600283DD00BF080F9AF
:1017E80010B94FF0FF3038BD09F01AFDB0F5FA7F97
:1017F800F7D81B4C002125631B2504F10F0084F842
:1018080034102A46217084F82A10E16210F0DCF9BD
:101818000123032108200222A370E370E372A3745A
:101828002376F72321722384FB23A0721F20A17340
:101838004921E3840A23A580E5806272A081E174CE
:10184800E27584F82830EFF3108472B600F086FD54
:1018580004B962B60020C6E76FF01500C3E700BF01
:101868004809002038B51446002840F0C480634D6C
:1018780095F83430032B00F0BB80B9B112B96FF082
:10188800150038BD0139172900F2B580DFE801F0ED
:101898000C1D20366069873C6C6F814248565B8D11
:1018A800909FA2A596B3B3A81378AB700020FFF75A
:1018B800B5FD0028B7BF012302236FF00B0085F8A0
:1018C8003430A8BF85F83430DBE71378EB70EDE7E8
:1018D8001379002BD3D05379002BD0D01288FB2A50
:1018E800CDD863881B3B9BB2E02BC8D81A2AC6D92F
:1018F8002368A2886B60424B9A80D7E71378EA7B0B
:101908009342BCD3EB72D1E71378EA7A9342B6D804
:10191800EB73CBE71378EA7A9342B0D86B74C5E7D8
:101928001378002BABD05378013BDBB2F82BA6D849
:10193800138892786B82334B9A70B7E71078687582
:1019480007F066FCB2E71378002B98D02B76ADE74A
:10195800012000F0B9F9237808B1012B8FD9AB73B6
:10196800A4E71388AB81A1E71378AB759EE707203E
:1019780000F0AAF910B92378012B80D9072000F0CC
:10198800A3F918B12378002B3FF479AF2378EB75CE
:101998008CE71378082B3FF672AF2B7486E7138811
:1019A800FF2B3FF66CAFAB7280E713786B767DE761
:1019B80013780E2B3FF663AFAB7677E72368124AAE
:1019C800C5F81E3063685360238913816EE7137866
:1019D800EB766BE713786B7768E713782B7765E717
:1019E80013785A1E092A3FF64AAF85F828305DE772
:1019F8004FF0FF3045E76FF02C0042E74809002020
:101A08004C0900205A09002066090020F8B50D4647
:101A1800064630B329B311F0070422D1124F97F8C4
:101A28003430012B02D16FF00B00F8BD032B02D12B
:101A38004FF0FF30F9E700F063F80028F8D02846A7
:101A4800FFF7ECFC0028EEDB0FF0A0FB3046F96A4C
:101A580002F000F9FFF796FE0323204687F834309A
:101A6800E3E76FF01500E0E74809002010B5074CE0
:101A780094F83430032B03D102F004F902F0CCFEC1
:101A88000CF026F8002084F8340010BD4809002026
:101A980050B1074B03F1140253F8041B934240F86A
:101AA800041BF9D1002070476FF01500704700BF84
:101AB800DC7B020008B502F093F803490320BDE877
:101AC800084000F0F9B800BF0114000008B502F0A2
:101AD8009FF803490220BDE8084000F0EDB800BFB8
:101AE800DD13000002680020014B1A60704700BF38
:101AF80080090020014B1B68184700BF800900209F
:101B0800024B1868003818BF012070478009002070
:101B1800074B4FF0FF3141F6FF72C3E90012054948
:101B28000022C1E900221F21C3E90212704700BF49
:101B380000000020840900203F280CD801380B4BF6
:101B4800C0F3421200F01F0053F8223023FA00F0CD
:101B580000F001007047FF2806D04038044BC0F35E
:101B6800421200F01F00EFE701207047000000203C
:101B780084090020074B0146006849681A4603C2D9
:101B880040F48C2200201A6041F0107242F4FF6287
:101B98005A607047000000200246034B00685168F5
:101BA80003C30020704700BF840900200246034B8E
:101BB8000068516803C30020704700BF0800002078
:101BC800431E3828DBB21FBF064A590903F01F031A
:101BD80002EB81021DBF9068D84000F00100002090
:101BE800704700BF000000200A8870B595B2C67C17
:101BF800C2F30E020488023602F118033444C35AB1
:101C0800A4B233442344013BB3FBF4F303FB0422A3
:101C1800438892B29342044B8BBF2B40AB43134390
:101C28009BB20B8070BD00BF0080FFFF4A1E062AD2
:101C380008B50346084604D84FF4D1711520FFF7BC
:101C480065FD094A914202D940F2A311F6E711B99C
:101C580003B1196008BD2BB11B680022C3E901213B
:101C68001A1D1A600430F5E7FAFFFF7F10B5114B13
:101C780000EB41041A786389B3FBF2F303FB0223F8
:101C8800013A1A44B2F5706F0279807828BF0023B0
:101C98001A440B18B2FBF0F100FB11215B1AB3FBDD
:101CA800F0F100FB113313446FEA43436FEA5343E7
:101CB800638110BD8C090020024B03EB800359603F
:101CC800704700BF8C090020034B03EB8003586862
:101CD800003818BF012070478C0900202DE9F04F0B
:101CE80010F0070A85B0054604D040F26F1117209E
:101CF800FFF70CFD534F04464FF0010B07F14C065C
:101D0800B146B04657F8043B8DF80BA03BB101A88B
:101D180098479DF80A30082B01D9F521E7E79DF887
:101D28000B1041BB05B131604F4506F10406E9D1FE
:101D3800002D6FD00022DFF810911227964689F8FF
:101D4800002058F827A0013FBAF1000F55D09AF8A3
:101D580004609AF802C0FF2E60D039460023481C60
:101D680038D19C44BCF1FF0F3FD90AB189F800E093
:101D78004FF49A71BBE79DF80AC04B1D60465A00A4
:101D880004EB4303022838BF0220441E4042234488
:101D9800BDF808406444CCF1000C0340013C04EA5F
:101DA8000C04B4F5803F02D340F205119FE775B1EA
:101DB8009A1A32609170148082F803B09DF80C0072
:101DC800107101984FEA104C1081A2F806C004FB6C
:101DD8000134A9E758F8210028B190F804B0B345B8
:101DE80004BF80781B180139B9E7DBB2E6458AF8E9
:101DF80004303CBF5FFA8CFE01227B1CA1D10AB1E2
:101E080089F800E0122640F6FF6A58F82670B7B93C
:101E1800013EFAD2601B05B0BDE8F08F0023E5E76C
:101E280007EB410309F101093846A3F80AA0FFF7B7
:101E38001DFF5FFA89F1BB788B42F1D8E8E74FF0D4
:101E48000009F6E7900900208C090020034B03EBFA
:101E58008003186D00B18078704700BF8C0900209E
:101E680038B54FF6FF7302460380184B03EB810326
:101E7800186DA8B184780379B3FBF4F104FB11332E
:101E8800DBB2194600EB4105B5F90A50002D0EDB0F
:101E98000131B1FBF4F504FB1511C9B28B42F1D144
:101EA800002038BD6381BDE838400BF0ACBC00EBC6
:101EB80041046389C3F30E031380C278002AF1D169
:101EC8004FF4E5711720FFF721FC00BF8C090020B3
:101ED8001C4B03EB810370B51C6D054644B303042A
:101EE80004D54FF4EC711720FFF710FC014620468B
:101EF8000BF06CFCFF28014604D02046BDE870407A
:101F08000BF081BCA078B5FBF0F300FB1353DBB2F8
:101F180019460A1D04EB4206B6F90260002E09DBD9
:101F28000131B1FBF0F200FB1211C9B28B42F0D1C2
:101F3800002070BD8B4201D00023E37004EB420205
:101F48005580DAE78C090020094B03EB8103014631
:101F580010B51C6D20460BF039FCFF28014604D053
:101F68002046BDE810400BF04EBC002010BD00BF5D
:101F78008C090020F8B5104B074603EB8103014696
:101F88001C6D20460BF022FCFF28054611D0E28884
:101F9800238953EA024606D0014620460BF033FC5B
:101FA80001463846B04720462946FFF75FFE002025
:101FB800F8BD0520FCE700BF8C09002038B50E4BA2
:101FC8000446827903EB8203186D08B9052038BDF1
:101FD8008278E1799142F9D24B1CE37100EB41031D
:101FE8005D89B3F90A30002BF3DBA5800BF00BFCFD
:101FF80020600020EBE700BF8C09002070B5044684
:1020080010F003000E4603D04E211820FFF77EFB88
:10201800FFF70CFE054624B1034831460460FFF77C
:1020280005FE284670BD00BF280A00202DE9F14FA3
:10203800DFF870B01E4607460D46DBF800309046C4
:102048009DF828A09DF82C901BB960211820FFF757
:102058005DFB5246092140460BF03CFA4A4684B2E1
:10206800092130460BF036FA81B2DBF80000214432
:102078000BF080FB386018B9286001B0BDE8F08F1C
:1020880004445346414609222C6038680BF0E5F9B0
:102098004B4609223146286801B0BDE8F04F0BF0E5
:1020A800DCB900BF280A002070B50E4604460BF0C4
:1020B80024FA054630460BF020FA044B2A1821462C
:1020C8001868BDE870400BF07ABB00BF280A0020F2
:1020D800024B186808B10BF041BB7047280A002072
:1020E8001F2AF8B5044613460ED89200033222F090
:1020F8000303B3F5803F2DD2184DACB1A00710D023
:1021080068210920FFF702FBFF2B4FEA420204D99E
:10211800FF339A42A8BF1A46E8E77C2AB8BF7C2258
:10212800E4E729706C602B8122F003022823012741
:10213800120403FB01F06B680025120CEEB2B142E9
:1021480000D8F8BD14B126181F705E601044013520
:102158002833F3E74FF0FF30F3E700BF2C0A0020E5
:10216800154A002170B553681578C8B2854203D85E
:10217800BA210920FFF7CAFA1C461846013114F89B
:10218800286B0EB92346F0E70021997001241289C3
:10219800996103F126055C709208D96103F11E0468
:1021A800596824F8022FA54243F8041F1144F8D1B6
:1021B80000234361037070BD2C0A00200A4B1B8961
:1021C800B3F5FF7F4FEA930006D25A089B1A9BB2D9
:1021D800984238BF18467047B3F5EE6F01D8FF2212
:1021E800F4E740F27263F3E72C0A00204B782DE9FC
:1021F800F04106460C4602F0040702F0FB05E3B185
:10220800A5BBFF23A3707B0804EB57073A7D032A7D
:1022180002D1022D18BF0133E2180121117503F113
:102228000C01002204EB830324F811205B68A270E0
:1022380030463360B280BDE8F081002DE1D1012342
:1022480001F11E028D6120464B7004F1260C1A4BD9
:10225800CD611B8949689B0822F8023F944540F8E4
:10226800041F1944F8D100236361CAE7D1F8048038
:1022780014220021A01861700FF0A6FC0E4B1B89D8
:10228800B3F5FF7F0FD25A089B1A9BB208EB0301E4
:10229800C4F804802384A1606284C4F80C80A384F9
:1022A8002161E284ADE7B3F5EE6F4FF0FF02EBD9A1
:1022B80040F27263EAE700BF2C0A00202DE9F843D8
:1022C80005460C46F720052191460BF003F9061E3A
:1022D80021DB1DB906FB04F0BDE8F88315F0030700
:1022E80003D098211920FFF711FADFF83080C8F8D9
:1022F8001050A8F81460BBB29C42EBD9B8F814503F
:102308004B46D8F810000522F72107FB05000137D6
:102318000BF0A3F8EFE74FF0FF30DDE7400A0020AD
:1023280007B5CDE900230B4603490246081D0BF00B
:10233800A9FB03B05DF804FB580A002013B5064C4E
:10234800CDE900230B46024604F1080104F10C0014
:102358000BF098FB02B010BD580A0020124B012266
:102368004FF0FF3000215A60C3F80803C3F8001586
:10237800C3F804255A6040F6FE72C3F808034FF408
:102388008060C3F8001503F560330849C3F80825D1
:10239800C1F88800BFF34F8FBFF36F8FC1F8880172
:1023A800C3F80825704700BF00A0044000E100E022
:1023B8000A460648332302F8033BC368C1F80330D2
:1023C8000369536043699360704700BF680A00203F
:1023D800024B5A8C02435A845B6A1847680A0020E9
:1023E800014B00215B6A1847680A002070B5194C38
:1023F800054694F828604EB1012807D1638C1A0766
:1024080004D594F830300BB1012070BD0129FBD8F8
:10241800636B284698470028F6D094F838000028BF
:10242800F2D11EB9012D0BD03046EEE7002DECD1CC
:10243800638C9B0704D594F8300080F00100E4E732
:10244800608C0028E0D194F83930002BDDD194F865
:102458003A00F2E7680A002010B5154C07F076FC40
:1024680008F04AF9A08FFFF7BBFF237E63B122462D
:10247800104904F1190052F80C3BE360636853609B
:10248800A36893600DF0FCF90B4BA28F93E803004F
:1024980003F05CF9E36A188803F0D2F8236C94F827
:1024A800381094F83E009847002384F8443010BD53
:1024B800680A0020B9230000900A0020034B93F813
:1024C80044300BB1FFF7C8BF704700BF680A00204F
:1024D80070B51D4C0646A36DE56AA3644FF481737D
:1024E80094F85C00A4F84C3095F8933095F8711086
:1024F80000EB83002EB9FF2803D195F870308B428A
:1025080001D007F0E5FA95F89330B3B1206E07F0E3
:10251800FDFC216EA06C08F075F816B9A88E07F0BE
:1025280043FD288E07F09AFA95F87010002007F0FE
:1025380081FD022384F8443070BDA06C07F0E6FCEE
:1025480008F0DAF8E9E700BF680A0020164A0B46E7
:1025580078318833F0B592F8284087B092F85C500B
:10256800003C90F8712018BF0124012A51E9026744
:1025780006D0022A15D040F21E410620FFF7C6F801
:1025880003204FF0010C0022CDE90250CDE9042CC4
:10259800CDE9004332463B46022007F059FF07B019
:1025A800F0BD0420EDE700BF680A00202DE9F041E6
:1025B800234C06460F4694F84430012B5FFA83F803
:1025C80004D040F63C012720FFF7A0F8E56A95F80B
:1025D800843053B10021042085F88410FFF7F8FEF9
:1025E80094F828300BB185F8858095F88830042B4D
:1025F8000DD114490220FFF7EBFE94F8283033B1CF
:10260800E36E1B789A1E5342534184F8303095F894
:10261800933023B105F18001E06AFFF797FF1EB1FF
:10262800BDE8F041FFF718BF002FF9D0314630461A
:10263800FFF7DCFE0028F3D1BDE8F041FFF748BF03
:10264800680A0020D40A002008B5094B93F84420F2
:10265800022A04D040F2EA212720FFF757F8DA7A55
:1026680042F00102DA72BDE80840FFF7F5BE00BF8C
:10267800680A0020F7B5184C0646656F0DB1236D42
:1026880023B940F2F4712720FFF740F8B4F854302A
:1026980001F003012F466B702B7823F003030B43E3
:1026A80007F8033B3846B4F85420216D0AF070FB54
:1026B8000DF1020201A9A06FA56427650BF044F88B
:1026C80001980BF02FF80122B4F854103060A06F75
:1026D8000AF0D3FF03B0F0BD680A00202DE9F04FDF
:1026E800A84E85B0F76A97F8701058B997F89320F4
:1026F80096F85C3003EB8203FF2B03D197F8713017
:102708008B4202D0FF2007F0E3F90023D6F82C8093
:102718008DF80930ADF80A3098F88830052B00F2AA
:10272800C280DFE803F003C39696B0B096F87F3016
:102738000DF10A0103A8A8F86030ADF80A3001F0DD
:1027480081FB40B1039D35B1012386F88030042315
:1027580088F8883093E098F8CF40002C76D10DF1B6
:1027680009020DF10A01D6F884000AF0EDFE0546CB
:1027780000286BD09DF809A0BAF1000F1ED00146C1
:10278800D6F884000AF0CAFF0AF0CCFF0368D0F834
:1027980004B0814653EA0B0234D1002389F8003093
:1027A80089F8013089F8023089F8033089F8043053
:1027B80089F8053089F8063089F80730BDF80A30FD
:1027C8008BBB012388F88830012386F88030BDF858
:1027D8000A307566A6F8703003B1EB1C98F889903A
:1027E80098F88A5098F88880F366B8F1020F63D099
:1027F800A8F10408B8F1010F5CD8002C5FD04FF0A5
:1028080003085AE001930EF03CFE019B83427BEBE8
:102818000101C2D20023012254465B4DADF80A30B3
:1028280088F88820D5E79DF809301BB92B80AB7054
:102838000323C7E72B7803F00303012BF8D0022307
:1028480088F88830002388F89530BDE74FF0000AF3
:10285800E0E7B8F860300DF109020DF10A01D6F889
:102868008400ADF80A300AF06FFE054620B940F240
:1028780011512720FEF74AFF012386F88030BDF862
:102888000A300024A5E70DF10A0103A801F0DAFADD
:1028980008B1039D15B94FF4A461EAE7012386F84E
:1028A8008030052354E740F22A51E2E70024364DF0
:1028B80023468EE74FF0010834B1002413E01B785B
:1028C8004FF00308022B0ED0D6F884000AF094FECD
:1028D800044600284AD1B8F1030F04D001F0CCFA1D
:1028E80080F00104E4B2726E4FEAC909AD001378B2
:1028F80009F0080905F0040503F0F30343EA0903A6
:102908002B4323F0100343EA041304F0010423F0DB
:10291800030386F8394048EA030882F80080B6F8CD
:10292800703053700222A6F8682097F89220FAB106
:10293800F3B1306E07F0EAFA0022D6E9181007F072
:10294800ABFC18B9D6E9180107F0FAFD788E07F044
:1029580085F897F87110012007F06CFB012386F8C1
:10296800883086F8443005B0BDE8F08F0124BAE716
:10297800706E07F0CBFA07F0BFFE0021706E0EF004
:1029880041FCE3E7680A0020E40A0020164A0B46E7
:1029980078318833D0B592F8284086B090F8702006
:1029A800B4FA84F4012A4FEA541451E9046706D0B2
:1029B800022A16D040F21E410620FEF7A7FE032089
:1029C8004FF0010C0022039004200094CDE9042C60
:1029D800FB22CDE9013232463B4607F039FD06B00D
:1029E800D0BD0420ECE700BF680A00202DE9F74FAE
:1029F8000023B64C06468B46E56ACDE9003394F8C9
:102A08004430022B04D040F6D7012720FEF77EFE83
:102A1800A36C5A7893F80090A4F85420032209F084
:102A280003071344A4F84C20236595F89330002835
:102A380000F03881C9F3C008C3B107F07BFE831EDC
:102A4800DBB2012B04D8FFF707FD03B0BDE8F08F18
:102A580060B9B4F854304BB195F88A3003F00103EB
:102A6800434503D1012384F83E30ECE7B4F8541011
:102A780019B1A06F0AF0E1FD014695F88920A38FEE
:102A88000132616743F40073D2B2A38782EA990ADC
:102A98001AF0010A78D0B24695F88A2002F00103AC
:102AA800984500F0B5804FF0000895F8923023B1B2
:102AB80005F180012846FFF769FF636F002B40F09E
:102AC8000381B4F85430B3FA83F35B0903EA1913AA
:102AD80084F83A30BBF1000F00F0008107F0D4FA17
:102AE800B8F1000F40F00E814FF00109A38F5A068C
:102AF80006D44020FFF774FCA38F43F04003A3875C
:102B0800BAF1000F10D094F8283043B1B4F8072078
:102B1800B4F805301343B5F88620134304D0B4F84D
:102B280009300133A4F80930002E00F0F080B4F821
:102B380005300133A4F80530002384F88B3064484D
:102B480002F06CFD009830B10AF0ECFD0022027230
:102B5800294601F07BFF019B33B100221A720C2237
:102B68002946019801F040FFB9F1000F7FF46BAFDF
:102B7800A38F1B063FF569AF8020FFF731FCA38FB9
:102B880043F08003A38760E795F888305BB3013B87
:102B980085F88920DBB2042B0FD84E4AD35C002B72
:102BA8003FF479AF022B0BD16946D4F884000AF0C0
:102BB800EDFC88B940F2047127E740F2E36124E7AD
:102BC800032B10D101F04CF910B940F20E711CE73B
:102BD80051460820FFF7FCFBD5E93A32013342F1B0
:102BE8000002C5E93A32002194F8283085F88810A7
:102BF8003BB195F8853023B1102085F88510FFF793
:102C0800E7FBA38F4FF0000A43F40063A38743E771
:102C1800B4F85430E3B1791E012919D8A18F41F4D1
:102C28008051A18794F88910994206D294F83830D7
:102C380043F0100384F8383035E7616F00293FF41A
:102C480032AF94F88A1019B12020FFF7C9FB2AE7A0
:102C58000132032F85F88A2019D07A1E012A0BD851
:102C6800002B3FF420AFB046D5E93C32013342F1A6
:102C78000002C5E93C3218E7002B3FF414AFD5E950
:102C88003C32013342F10002C5E93C320BE7A38F25
:102C98000120114943F4805385F88400A387FFF786
:102CA80097FBECE70BB107F05FFD94F88B304FF022
:102CB80000080133C24684F88B30A38F43F4806345
:102CC800A38701F05DFFF0E60123FFE6680A002014
:102CD800900A0020F07B0200B80A002094F88B10BC
:102CE8000120FFF783FB814600287FF4F7AEFFF74A
:102CF800F5FCB8F1000F3FF4F9AE394601A8FFF72B
:102D0800B9FCF3E6394601A8FFF7B4FCECE6B4F8E1
:102D180007300133A4F8073011E700BF064B10B5A0
:102D280093F8442002F0FF0422B91C7602F006FD55
:102D3800204610BD0C24FBE7680A0020094B0A4A0C
:102D480010B51A60FFF7EAFF20B14FF4A6712720EB
:102D5800FEF7DCFC054C00F0ABFFA06500F0ACFF13
:102D6800206610BDF81500200C300000680A00200D
:102D78002DE9F3418F4C089FCDE9000194F84410E8
:102D880001F0FF0511B90AB103B127B94FF4097170
:102D98002720FEF7BBFCDDE9000104F1280C636382
:102DA80084F838509DF8243084F88B5084F83E50CD
:102DB80084F888506584A58784F8395084F83A5097
:102DC80084F8805084F830506566E566A4F8705041
:102DD800A5642565A4F8545084F88A306262276493
:102DE8008CE80300E56A06F0B5FE07F085FC95F966
:102DF800780005F1800706F00FFF6E6AE86906F0B3
:102E080011FF304607F066F895F8A40006F014FFA5
:102E18002B8E4E2B02D96B8E4E2B01D806F024FE3A
:102E280094F82860002E40F089800DF0B7F995F8E5
:102E38007020614B4FF47A7153F8223003F5FA731E
:102E4800B3FBF1F346331918304606F06BFF5B4BC2
:102E5800186807F045F82B69C4F884306B69A367D4
:102E6800E36A93F88D2093F87060A2F12901012993
:102E780003D993F88E1029296BD194F82820002AB9
:102E880064D193F822322BB1012E03D0012B0CBF51
:102E98000126022605F13808314640460CF082FD2D
:102EA80031460CF015F9B5F8443095F871108342A5
:102EB80028BF0346404684F87F300CF05CFD95F847
:102EC800938095F87110B5F84C600CF001F9B8F1E1
:102ED800000F01D1043080B2864228BF0646F6B200
:102EE80084F8896001F04CFE28B101F04FFE86425B
:102EF80038BF0646F6B294F8283084F85C60002B98
:102F080048D195F892301BB139462846FFF73EFD67
:102F18000120FFF7E3FB002323606360A360B5F89B
:102F2800863063802B88238095F8A43023716B6FDB
:102F38000BB101221A6002B0BDE8F0810DF02EF944
:102F480095F8712000F1650101207EE793F8B2320F
:102F580099E7243A012A11D8272911D094F8282072
:102F6800002A97D093F82E3113F0010202D19B0763
:102F780090D50222012E18BF16468BE7272989D142
:102F880094F82820002A85D093F82E2193F86930E8
:102F98001340E9E795F893301BB139462846FFF707
:102FA800D5FA0120FFF794FAE36AD3F8C80106F0CE
:102FB800C9FFB0E7680A0020807D0200F8150020EC
:102FC800014B93F888007047680A0020054A938FE0
:102FD80092F8800003F4805110B113F4C06F00D14F
:102FE800080B7047680A0020024B93F83D00C0F3B5
:102FF800C0007047680A0020014B93F88B007047A7
:10300800680A002051260000F5290000B5250000B7
:10301800C5240000343270B5054692B20C461E46EF
:103028000AF029FC25B1034A5560147456741470CB
:1030380070BD00BF0C0B0020304BF0B5B0F86470C9
:103048000C4611461A88B0F8626085B097425D88D0
:1030580028BF1746964228BF16461B2E2ED0B5F518
:10306800A47F2DD040F6480301AA9D4228BF1D46E3
:103078000AF07DFDBDF80A30BB4228BF3B46E3801D
:10308800BDF80C30AB4228BF2B462381BDF8063073
:10309800B34228BF33466380BDF80830AB4228BF2F
:1030A8002B46A380FF232370E3881B3B9BB2E02BB6
:1030B80008D940F2E7613920FEF728FB1B2FCED153
:1030C80005B0F0BD63881B3B9BB2E02B02D940F2F0
:1030D800E961F0E72389A3F5A4739BB2B3F5E06F28
:1030E80002D940F2EB61E6E7A388A3F5A4739BB28B
:1030F800B3F5E06FE4D940F2ED61DCE7B40B0020F2
:10310800F7B5002304460E461746CDE90033684656
:10311800FEF754FF08B1002016E0009DA542F6D046
:103128003046EB1C0AF010FD3946AA780BF032FF46
:103138000028ECD005F10A036A7A04F10A01607AE2
:103148000BF028FF0028E2D003B0F0BD054A516A11
:1031580002F11D03127F11F8030BC0F380100BF06E
:1031680019BF00BF0411002010B503210020FEF78D
:10317800EBFE044670B90321FEF7AAFE044620B907
:103188004FF459713920FEF7C1FA034B93F95810DF
:103198000DF048FB204610BDB40B00202DE9F04788
:1031A80086B006460F46008804A90BF0F3FF0446D4
:1031B800804600285FD1059D95F8E13095F88E90FE
:1031C80043EAD303D90702D4B9F1260F5FD1B07807
:1031D8009DF8104008B900F0C1FD8DF80B00F0789B
:1031E80008B900F0BBFD2C4B8DF80C00D3F800A0FB
:1031F800BAF1000F0CD0A9F1260220462946534205
:1032080053410DF10B02009303ABD0470446B8BB02
:103218009DF80B209AB39DF80C3083B3904695F82F
:1032280079203AB118F0020F03F0020331D083B3CA
:1032380002239846FF2285F82D2195F82C2102F0CB
:10324800FF0412BB85F82C7103A985F82E81284646
:1032580085F82F31B3788DF80C30F3788DF80D3070
:103268003379727943EA0223ADF80E300BF03FFF51
:10327800002385F82D31204606B0BDE8F0870924E3
:10328800B9F1260FF7D10023C9E73A24F0E71A2449
:10329800F1E70924EFE700BF20160020044B987FD0
:1032A800C0F3400080F0010000F00100704700BF4B
:1032B8004410002010B50BF06CFE214C00F07CFF90
:1032C80000F056FD0CF0B4FA02F016FA01F066F9B7
:1032D80005F0DEFF012000F0F3FC0021194B1A4A2B
:1032E80019601A4BA4F850101A601B2259839A804F
:1032F800F922998399771976154B22831868154A0C
:103308009B8822601022E06104F12400A176A1804C
:10331800A17523840EF058FC012342F2107204F1C7
:10332800360084F8243084F83530C4E90A220DF0D8
:10333800F9FE04F14000BDE810400DF018BF00BFD1
:10334800B40B0020FC15002003021B0044100020D1
:10335800F87B02001B004801044B41F64C521B212C
:103368005A611974C3E90222FFF7A4BF4410002070
:1033780073B5344D0446AB688363334B1B79003B0C
:1033880018BF012380F87930304B83610CF0ACFF13
:10339800064600F0D9FC8306297C53BF1B236B88A3
:1033A800AA881A46A4F86230294BA4F864201B683E
:1033B80084F84010A4F842601BB194F97810208872
:1033C8009847244B1B6813B1234920889847234901
:1033D80020460BF08CFE0123E385214B1B6813B1BB
:1033E8000021208898471F4B1B6813B100212088B3
:1033F80098471D4B1B680BB1208898471B4B1B68CF
:103408000BB120889847AB8804F110006A88697866
:103418000333033201919BB2297892B2009104F1EF
:103428001401FEF703FE236923B940F2BE61392077
:10343800FEF76CF9636913B940F2BF61F7E7002042
:1034480002B070BD44100020B40B002000093D00FC
:103458001016002004160020BC0B00205E1000206F
:103468002416002014160020181600201C16002010
:103478002DE9F34104460E460DF015FA002800F038
:10348800B08020460DF08BFB30B1B6F80130013B1F
:103498007F2B01D9122004E020460DF084FB18B9D7
:1034A8000C2002B0BDE8F08120460CF0D4FF0028C3
:1034B800F6D120460DF0A0F907460028F0D12046A5
:1034C80004F054FB0028E5D042F21073B6F80180EE
:1034D800F178204603FB08F80DF04CFB0421307806
:1034E800FEF732FD054606213078FEF72DFD2DB199
:1034F80040B141F65B413920FEF708F908B30546AB
:1035080090F8DD70384E3368DBB1403528460CF052
:103518002EFEB0B128460CF01BFE90B93FB1334BDC
:1035280028461B68984760B141F66F41E3E7304988
:103538003A46336828464969984710B141F67441BC
:10354800D9E720460DF023FB014640B94246204604
:1035580002F09AFD002842D041F67D41CBE7204693
:103568000DF01DFB40B902210DF10600FEF778FCB5
:10357800054658B90D2094E720460DF023FB002896
:10358800F1D11C4B1B79002BEDD183E700210BF007
:1035980035FEBDF80630204629462B800DF027FB66
:1035A80020460DF00FFB88B9216A20460DF014FB68
:1035B80001462846FFF7DCFE42462946204602F02F
:1035C80063FD024620B14FF4E55194E70121F0E78D
:1035D800084B5B6D1BB105F5917128469847002093
:1035E8005FE742205DE700BF0016002008160020B4
:1035F80044100020B40B0020024B1B6803B118478D
:103608000C207047FC150020B0F9002011B292B2CE
:10361800F8B502F5A0639BB2B3F5206F37D8B0F9BF
:1036280002301DB29BB203F5A06080B2B0F5206FE6
:103638002DD802F2F64040F2BE5480B2A04228D8FB
:1036480003F2F64080B2A04223D800294FF00A04C2
:10365800C4BF093211B2002DC8BF093391FBF4F47D
:10366800C8BF1DB205F01CFE0A2367B2064695FBCB
:10367800F3F1384649B205F005FE074B1B6813B154
:10368800A01B40B208B90020F8BD9847FBE73020DE
:10369800FAE71120F8E700BF0C160020034B5A8800
:1036A80002801B7883700020704700BF4410002000
:1036B8007FB5837806461A2B08D8042B04D9334AD9
:1036C80022FA03F3DB0705D412251AE0292B01D0CF
:1036D8003B2BF9D13088B0F5706FF5D269460BF005
:1036E80059FD88B9019B93F8202102F0FF05C2B962
:1036F800B27883F82121FF2283F8202168460AF056
:1037080025FC284604B070BD09213088FEF71CFC52
:103718000446002837D002A9B0F8AC010BF03AFDF6
:1037280008B10C25EDE70821B4F8AE01FEF70CFC52
:1037380020B940F61E213920FDF7E8FF03781BB9B0
:1037480094F8C831032BECD1039B93F83621002A57
:10375800E7D194F8F02102F0FF05002AE1D1B4F88E
:10376800B021A3F8382194F8B82183F83A21027DD2
:1037780083F83B21B27883F83C2184F8F021FF22BA
:1037880083F83621BDE70225BBE700BF20003804D7
:103798000188A1F11B039BB2E02B0CD8428844F2AC
:1037A8004810A2F5A4739BB2834204D8034B0020AF
:1037B80019805A8070471220704700BFB40B002050
:1037C800034B1A885B88028043800020704700BF43
:1037D800B40B002038B50278447802F0010302F0F7
:1037E800020254EA030101D1112038BDBAB9857823
:1037F800002DF9D0002B18BF002400E01D462046FC
:103808000AF0A8F90028EFD028460AF0A3F9002802
:10381800EAD0054B00209C76DD769883E5E7002BFF
:10382800ECD000242546EAE74410002013B50088B0
:1038380069460BF0D4FC044620B9019890F832315F
:103848001BB13A24204602B010BD90F8DA3003F0DC
:10385800FF04002BF5D190F8D1309B0706D1FF2348
:1038680080F8323168460AF071FBEBE70249D23042
:103878000CF006F8E6E700BFB5000100F7B50678DA
:1038880004460F46EF2E03D91226304603B0F0BD8A
:1038980090F901204378002AF6DB82789207F3D169
:1038A80013F0100048D19D0603F0030241D5002A09
:1038B800EAD119074FD503F06702012AE4D1627AE9
:1038C800013A062AE0D8A27A032ADDD813F00401C7
:1038D80002D1023A012A03D8E27A012AD4D811B9CE
:1038E800A27C032AD0D8227D002847D0012ACBD138
:1038F800237E012BC8D8002850D06378D90703D578
:1039080000F0A2F9002850D06378227D03F0180354
:10391800082B5AD1022A48D103213046FEF714FB5E
:103928000546002857D00CF096FD00285FD00C26DD
:10393800ABE7032ABDD1A7E713F0600FA4D103F0CA
:103948000702052A05D003F00F010D22CA40D2074D
:103958009AD51D07B3D42179E278E57942EA0122A4
:10396800617942EA0142A17941EA0521257A41EAD1
:1039780005418A4288D81F2AA1D885E7022A04D19E
:1039880003F06F03092B7FF47FAFA37D013B022B6C
:103998003FF67AAFE37D0F2BAAD975E700F0DEF981
:1039A800820707D4237D022B01D111266DE7A37D61
:1039B800022BFAD000F0D2F943079ED4237D032BC3
:1039C800F3D0A37D032B98D1EFE7022AA4D0237F5D
:1039D800002BA1D0E9E703213046FEF779FA054626
:1039E800002843D0224B93F958100CF01BFF0021FC
:1039F80030460DF063FB28BB28460DF0C5F821467C
:103A08003870E07428460CF0ADFFE37E0646002BC4
:103A18003FF43BAF00287FF438AF0246696C684634
:103A2800FEF7E4FB3246686C012109F079FF696C06
:103A380068460422FEF7DAFB32463146686C09F024
:103A48006FFF22E740300CF092FB0028D4D0637857
:103A580013F0330F7FF418AFA67D2846296A0DF0BE
:103A6800BBF80AF05BF88642C6D060E707260CE789
:103A7800B40B002030B502798BB00346042A4FD826
:103A88004088B0F5804F4BD8264900241144ADF842
:103A980000408DF80840CA7A8D7942F010028DF8FE
:103AA800244042EA45020D7C497D42EA850242EA09
:103AB800C102694602F01F028DF80020BDF80020FF
:103AC800ADF809201A888DF80E00000A8DF80B2031
:103AD800120A8DF80D408DF80C208DF80F008DF826
:103AE80010405A7BD3F807008DF811205A790590B9
:103AF80002A88DF812209A798DF81320B3F80B20BC
:103B08009B7BADF818208DF81A307F238DF81B3079
:103B18004FF00113CDE90734FFF7B0FE0BB030BD0D
:103B28001220FBE7F87B02000278034672B1427864
:103B380062B142881A2A09D982881A2A06D90068E5
:103B4800034A106000209B889380704712207047BA
:103B58004410002002680020014B9A60704700BFA3
:103B6800441000200378A3F10A02112A9BBF024ADD
:103B7800002012201374704744100020014B18765F
:103B880000207047B40B0020014B58760020704786
:103B9800B40B0020024B1B6803B118471120704773
:103BA8002816002008B5052000F096F805F01EFB41
:103BB800014B024A5A6508BDB40B00204130000091
:103BC80008B50122054B1A7103F0C2FE04F032FD5C
:103BD8000AF0C7FFBDE8084000F02EBE100C002018
:103BE80010B5084C0C2000F077F8074904F10800DC
:103BF8000AF06EFF04F10C000449BDE810400AF019
:103C080067BF00BF100C0020640000206C0000207B
:103C180010B5094C094904F108000AF059FF04F1EC
:103C28000C0007490AF054FF04F110000549BDE8EB
:103C380010400AF04DBF00BF100C00207400002097
:103C48007C00002084000020014B1879704700BFD9
:103C5800100C002038B5074C0D4600F0C9FDA068CF
:103C680025600AF02DFFFFF777FB00F0C5FF012361
:103C7800237538BD100C0020014B187D704700BF1C
:103C8800100C002010B5094CE0680AF019FF2069F3
:103C98000AF016FFFFF70EFB202000F031F826206F
:103CA80000F02EF80023237510BD00BF100C002073
:103CB80000487047250C002000487047270D002059
:103CC800014B83F819027047100C0020014B93F840
:103CD80019027047100C0020C208074900F00700BD
:103CE80001238340885C03438B5404490B78934237
:103CF80038BF13460B707047180000202A0E0020AA
:103D08000F4B012110B503EBD002C40800F00700E7
:103D180001FA00F0195D21EA0001195509490B78EB
:103D2800A34205D1002012F8014914B100B10B706B
:103D380010BD002BFAD0013B0120DBB2F3E700BF36
:103D4800180000202A0E0020014BD3E9000170471B
:103D5800180000200048704720000020034B186816
:103D6800C0F30020400040F0010070471800002018
:103D780008B507F055FA0023074A32F823108142A4
:103D880005D302EB83029378044A137008BD01330C
:103D98000C2BF2D10023F7E7187C02002B0E002031
:103DA800024B1878072828BF072070472B0E0020E1
:103DB80010B54468238884F87011A4F8713194F818
:103DC8007030012B06D0022B04D040F203310620BC
:103DD800FDF79CFC84F8733194F87130012B01D005
:103DE800022BF2D184F8743104F2671003490BF006
:103DF80047FD002384F82C3110BD00BF89EB00007B
:103E0800024B002283F832209A8670472E0E00203B
:103E1800044B93F83220012A1ABF036001200020C6
:103E2800704700BF2E0E0020054B024693F8321053
:103E380001291BBF01209A86002083F832007047B1
:103E48002E0E0020054B024693F8320020B1136075
:103E580009B19B8E0B800120704700BF2E0E0020F9
:103E6800044B002293F832009A8610B1012083F89F
:103E7800322070472E0E0020034B93F83200B0FA20
:103E880080F04009704700BF2E0E002050B90A4A42
:103E98000120134603F8010B0868C2F801008A885C
:103EA8009A807047012805D1034B0A68D8719A6037
:103EB8008A889A81704700BF640E002050B90B4B66
:103EC800187888B1D3F80120B3F805300A600120CA
:103ED8008B807047012806D1044BD87920B19A68A5
:103EE8009B890A60F3E70020704700BF640E00203A
:103EF80010B9044B18787047012806BF014BD879D0
:103F080000207047640E0020F7B58A8800238DF8DA
:103F18000600ADF8042008680B4A8DF80730014602
:103F2800147802F5A872019DD8B2844201D80820FD
:103F380007E052F8087F01335668AE4208BF8F4247
:103F4800F2D103B0F0BD00BF780E0020084B014647
:103F5800002230B55C7803F20113D0B2844201D854
:103F6800082004E013F8015F01328D42F5D130BD1D
:103F7800780E0020F8B52D4C63782218013B92F892
:103F88000251DBB28342637030D01A010101961CE2
:103F98008F1C2644274406F1100C56F804EB66459E
:103FA80047F804EBF9D1823282312244214402F1EC
:103FB800100652F8047BB24241F8047BF9D1E118AB
:103FC800221891F8026182F8026106267343704351
:103FD80003F5857300F58570E618E3582718235014
:103FE800B388BB8091F83A3182F83A312846FFF716
:103FF800ADFF082818D12378013BDBB29D4223701E
:1040080012D02B3305F12B0204EBC30304EBC202DD
:1040180093E8030082E803002078FFF797FF082859
:104028001CBF241884F80251F8BD00BF780E002088
:10403800F0B5254D89B095F8984105F29911684673
:10404800224608F0A5FE214668460AF0C1FF04464C
:10405800B8B300EB400102A8C9B2FDF74BFD631EDF
:1040680095F8A1610124DBB295F8981105E0721C5E
:10407800B2FBF1F001FB1022D6B206F120020DEBE3
:10408800020010F8202C002AF1D103EB430100F8BC
:10409800204C06EB460220312A44694411F8187C6A
:1040A80082F8A27111F8177C11F8161C82F8A37116
:1040B80082F8A411013BAA19DBB282F89941FF2BBF
:1040C800D2D109B0F0BD00BF780E002070B5064609
:1040D80088B00C46002A4ED0294A92F8A131D0184F
:1040E80090F8991119B9FF212820FDF70FFB03EB70
:1040F80043010133114491F8A251E57091F8A3519D
:1041080091F8A41125716171002180F8991192F834
:104118009811B3FBF1F001FB103382F8A13192F84A
:10412800C23123B9174902F5DD700BF0A6FB65799A
:104138000D220021684605F03F0545F040056571F0
:104148000DF042FDE37804AA69468DF80F30304639
:1041580023798DF80D508DF80E3004230DF087FC6F
:104168009DF81F3023709DF81E3063709DF81D3038
:10417800A37008B070BD03216018FDF7BBFCD6E73B
:10418800780E002039400000044B5A78824286BFDE
:104198001B1893F84A010020704700BF780E0020D2
:1041A800044B5A78824286BF1B1893F842010020BC
:1041B800704700BF780E0020064B00224FF4617153
:1041C8001A8083F8C32183F8C421A3F8C61183F8A1
:1041D800C2217047780E00202DE9F04782468946B3
:1041E80017469846FFF790FE08280546064603D06E
:1041F800FFF7ACFE082860D1324C6378072B5ED8F5
:10420800082D15D12678731C072E237003D96C212D
:104218002820FDF77BFA06F12B02D9F8000004EB01
:10422800C20344F83200B9F8042083F806A09A8043
:10423800657807F110026B1C290163704B1C23443D
:1042480012F8010DBA4203F8010FF9D1813108F1D2
:104258001003214413F8012D984501F8012FF9D1D5
:104268002544102140460AF0F9FE102185F8420144
:1042780038460AF0F3FE85F802616678002385F86F
:104288004A013146104885F83A310AF0A1FE012862
:10429800054607D831460D480AF09AFE002818BF8F
:1042A8000135EDB284F898510025284684F8A151CB
:1042B800FFF7BEFE2846BDE8F0871220FBE707207F
:1042C800F9E700BF780E0020BA0F0020C20F0020C7
:1042D800064B10B55878013840B2002800DA10BDF6
:1042E800C4B22046FFF746FE601EF5E7780E0020B0
:1042F800014B83F8C3017047780E0020014B93F8F7
:10430800C3017047780E0020431E4AF2B7129BB2D1
:1043180093429DBF024BA3F8C601012000207047BD
:10432800780E0020014BB3F8C6017047780E0020C4
:104338000A4B30B55C7884420ED9184490F80201D3
:104348002B3003EBC004A5790D7053F830001060D2
:104358000120A388938030BD0020FCE7780E002060
:104368000246074810B590F8C34124B1417821B1FD
:10437800023004F0C1FF204610BD0C46FBE700BF29
:10438800780E00202DE9F74F2F4C9A468046894633
:104398006378834256D9231893F8425185F0010572
:1043A800F9B193F84A31E3B945F002070135BAF19A
:1043B800000F18D1FA070AD5062104EB0810524657
:1043C80001FB0841823001F58571FFF77FFEBB07CD
:1043D80034D504EB0810524649460230FFF776FE02
:1043E8002CE02F46E3E794F8A1614FF0010B002D74
:1043F800E0D0A31993F89911019399B90092DAB111
:1044080000F0CAFB019B06EB4601009A4FEA102C0C
:1044180083F899B1214481F8A201000C81F8A3C165
:1044280081F8A401013694F89831013DB6FBF3F107
:1044380003FB1166F6B2DAE747F00407384603B023
:10444800BDE8F08F0027F9E7780E0020074B5A786F
:10445800824209D91A1892F842212AB9062202FB87
:10446800003000F58570704700207047780E0020F6
:10447800064B5A78824281BF1B1893F83A01B0FA6A
:1044880080F0400998BF0020704700BF780E0020D8
:10449800F8B50E4607460621154630460AF0DEFDF9
:1044A800044670B10C4B0022587803F23913D1B28C
:1044B800884202D801242046F8BD013203F8015F82
:1044C800F5E7314638460AF09FFD0828F3D0024B3D
:1044D800034483F83A51EDE7780E0020034B80F847
:1044E80078101B680BB10088184770472C160020FD
:1044F8000B2808B504D94FF48D712920FDF706F96A
:10450800014B33F8100008BD487C020030B5002488
:1045180042F21075A0F84040B0F844404C43B4FB58
:10452800F2F4A0F84440541E05FB0343B3FBF2F336
:10453800A0F84230084BB3FBF2F30133A0F848303F
:10454800838F05FB0344436B5943B4FBF2F4B1FB7F
:10455800F2F18463416330BD005A6202054B1B7857
:1045680033B9054B1A681B79026003710120704743
:10457800002070474010002028000020054BFF2233
:104588001A70054A016811600179117100221A70C8
:10459800704700BF401000202800002007B5064AD9
:1045A80010681279009068468DF80420FFF7E6FF3E
:1045B80003B05DF804FB00BFE6930200034608461B
:1045C80071B13F2B0BD8074AD35C03F07F029142AD
:1045D80005D08CBF0120002000EAD31070470120CD
:1045E800704700BF607C02002DE9F04F85B08B4614
:1045F8001546984602A99DF838400AF0CBFD824638
:1046080020B9039E35B9012386F89430012005B0FE
:10461800BDE8F08F37692946384608F03FFF014664
:104628000028F4D0224B5B88AB423FD30190384638
:1046380009F070F896F8943001998146002BA0F89B
:1046480001A018BF4FF0020B80F800B0084609F02F
:1046580069F88246E4B1F48ED4B10CF055FE40F20C
:1046680071235C43241841F10001CAF804102A465A
:10467800414609F10300CAF8004008F089FB2946C1
:10468800384608F046FF28B98B212B20FDF73EF865
:104698002146EAE79DF8083033B102A809F056FC34
:1046A800039B0022A3F8BA210023ADE75046AEE7EA
:1046B80044100020FF230B7002234B7083238B7060
:1046C800014B1B78CB707047641000202DE9F84F20
:1046D800D0F804800C46D8F81460304609F00CF87D
:1046E800054620B940F253111020FDF70FF8014696
:1046F800304609F00FF8B5F800B082461FFA8BF77C
:1047080017B940F25711EFE7224B00F103091B6874
:10471800D3B998F8003098F801202370637802F034
:104728000F02A4F802B023F00F03134323F0C003D1
:1047380063709AF8003003F00303012B0FD0022BAB
:104748000DD040F27511CFE73A464946B8F8000057
:10475800984705460028DCD12846BDE8F88F6278DE
:10476800304663F30512627008F0DEFF054610B9A3
:1047780040F27F11B8E7FB2F02D94FF4C771B3E7B6
:104788003A464946201D08F003FB304608F023FF4F
:10479800E2E700BF3016002038B5134C1022002184
:1047A800201D0DF011FA0125257404F108031022CB
:1047B800002104F11400C4E901330DF005FA84F86E
:1047C800205004F11803094AC4E905330023636241
:1047D800A36284F82C30C4F82D30C4F8313084F842
:1047E80035301360A36338BD6410002030160020F4
:1047F80010B5084C2378FF2B04D04FF4CC7110204F
:10480800FCF784FF08F030FA2070BDE81040FFF78D
:10481800C3BF00BF2D00002010B5034C207808F05E
:104828003DFAFF23237010BD2D000020014B18789E
:1048380008F044BA2D000020014B024A1A60704764
:1048480038160020D54600002DE9F341DFF88881AD
:10485800054608F11407D8F80830D8F81840227A25
:10486800012A22D1D8F8382052B1137A1BB9BF21B6
:104878001020FCF74BFFD8F83840C4B9002093E06B
:104888001A7A012AFAD01C46544AEFF3108172B6FC
:1048980050680068506001B962B6A34208BFC8F802
:1048A8003840237A1BB9EE21E2E73A46EDE7267A4B
:1048B800F6B205232372731E0B2B7ED8DFE803F0B4
:1048C8007A062336773F4E3F3F3F3F6B636813B905
:1048D80040F20B21CCE72046294698470420EFF305
:1048E800108272B6237A052BD9B24FF0000369D132
:1048F8002372D8F83810A14201D1C8F83830002AFC
:1049080045D162B643E0636813B94FF40571AFE768
:104918002946204698470346ADF80400C0B2C3F3C1
:104928000723012B3ED0022BD9D129E0636813B9A4
:104938004FF407719CE7204698470020CFE7284BA3
:104948001B68002BF9D03246606829469847A6F1C3
:104958000A020420534253415B00E4E763680BB941
:10496800FE2185E70D222A7001221988AA706A7132
:1049780000221869A5F80310AA7108F02CFE04207B
:10498800D8F83830A34202D10023C8F838300028BC
:104998003FF461AF08E0134B294620461B6898474F
:1049A800034668B9267298B102B0BDE8F08140F2BA
:1049B80053215DE740F256215AE740F2592157E763
:1049C8000220DDE711B940F27A2151E7184696E74F
:1049D800002B7FF440AF51E76410002068100020DE
:1049E8003416002038160020134610B5027A22B17A
:1049F80040F201311020FCF789FE0A4601460248C0
:104A0800BDE810400AF016BF68100020044890F86E
:104A18002C301BB9034924300AF029BF704700BF66
:104A2800641000202FF800000346064890F83C2048
:104A38003AB190F8352022B9034900F82D3B0AF025
:104A480016BF704764100020BD4600000A4610B526
:104A5800037A23B140F209311020FCF757FE0146D2
:104A680007230248BDE810400AF0E4BE7810002091
:104A78001346027A0AB1037270470A460146014892
:104A88000AF0D8BE681000201B234FF01B12838445
:104A9800038482618382C260038539B94FF4A473A9
:104AA800034AC3844384C261C3820261704700BF62
:104AB8004801480103460846F0B4B3F85C20B3F84F
:104AC8005040B3F85E109442B3F84C60B3F84670A7
:104AD80028BF1446B3F85420B3F84A508A42A3F8C2
:104AE800464028BF0A46B3F84E109142A3F84A2020
:104AF80038BF1146A64238BF2646A742A3F84E1033
:104B0800A3F84C6021D1AA1A18BF0122B3F8525059
:104B1800B3F85840B3F85A70A542B3F84460B3F8F4
:104B2800481028BF2546B3F85640BC42A3F8445065
:104B380028BF3C46AE42A3F8484002D1A14200D16A
:104B48002AB10449F0BC0AF09BBE0122DEE7F0BCA2
:104B5800704700BF8FF800000B8BA2F809001046C1
:104B6800A2F80B304B8BA2F80D308B8BA2F80F30CC
:104B7800CB8B0249A2F811300AF07CBEE3F80000A2
:104B8800014B1878704700BFA1100020014B18781E
:104B9800704700BF2E000020094AD2E900034340B5
:104BA80083EAB01181EA43214FEAF343116053606D
:104BB800044B58434FEAF06000EB8000704700BF99
:104BC800A4100020BB79379E094AD2E9000343406C
:104BD80083EAB01181EA43214FEAF343116053603D
:104BE800044B58434FEAF06000EB8000704700BF69
:104BF80030000020BB79379E10B50A4C08210948BF
:104C0800FCF778FFD4E900321343F7D0064CFFF7DE
:104C1800DBFF2060FFF7D8FF236860601843F6D0F9
:104C280010BD00BF30000020A4100020174B184A08
:104C38009A60184A5A60184A1A60184A9A62184ABA
:104C4800DA62184ADA60184A9A61184A1A63184AE6
:104C58001A62184ADA64184A9A64184A5A62184B4F
:104C6800184A9A60184A5A62184ADA62184A1A6147
:104C7800184A5A61184A9A61184A1A63184A9A6473
:104C8800184ADA64184A9A63704700BF3C16002035
:104C980075FB0000A5FB0000DBFC000095FE000092
:104CA80007FF0000B95200001DFF00007155000009
:104CB800C5530000FDFF0000250001002954000035
:104CC8003C17002091FB0000BDFF00003FFF0000E3
:104CD800E3FE000063FF000065530000D3000100FD
:104CE800730001005D000100A3FF0000044B054AAA
:104CF8005A65054B054A1A65054A5A65704700BF4B
:104D08003C1600200FFE00003C170020F5FD0000B7
:104D18003DFE0000054B064A9A65064A1A66064B90
:104D2800064A9A65064ADA65704700BF3C160020B5
:104D380053ED0000F5ED00003C17002039EC0000B1
:104D480077EF00003F2AF8B505460C4643D83F2ABE
:104D580044D8DFE812F046008D00A800B400CF0068
:104D68009B019B01DF00E100E7009B019B01EA003A
:104D7800F600E10043004300FA009B019B010E018D
:104D88000E01250125012C01430043004300310198
:104D98003D01410145014E015001520154015D019F
:104DA80066017B017D01430043006D01850183019C
:104DB80043004300430043004300430043004300D3
:104DC8004300430043004300430043008701890137
:104DD80043007F018101FF2A00F04C8140F21B5102
:104DE80004E1466896F87910D6F82C020AF0BEF964
:104DF8006FF45062B6F8263282182071000A92B217
:104E08006071062A8BBF40F2E24264220027012724
:104E18008CBFB3FBF2F3B3FBF2F36370B6F8303236
:104E2800A3711B0AE371B6F8323223721B0A63724C
:104E3800686890F817313BB906F5097306F50A72E8
:104E4800D6F82C120AF0D0FEB6F82432A3721B0A48
:104E5800E372D6F8283247B164220C20B3FBF2F390
:104E6800A370C3F30723E370F8BD40F2E242F4E70E
:104E78004668D6F81832C1F8013096F81C324B71E2
:104E8800406890F817313BB90AF060FE6B68B3F8D8
:104E980086301844A6F81E02B6F81E320820A37100
:104EA8001B0AE371E0E70378012B436802D193F80A
:104EB800183101E093F8213102206370D4E7436888
:104EC8001720D3F86022C1F80120D3F86422C1F872
:104ED8000520B3F86822A1F80920D3F84022C1F8C8
:104EE8000B20D3F84422C1F80F20D3F80831C1F8B9
:104EF8001330B9E74268D2F8D631C1F80130D2F898
:104F0800DA31C1F8053043680D20D3F80C31C1F807
:104F18000930A9E74368CAE7084600F0D9FA00282B
:104F2800A2D161E000F0E6FAF9E7102306204B7001
:104F380059238B700023CB70A1230B7130234B7145
:104F480092E7436893F81231B6E70278436852B99A
:104F580093F818213AB193F815214A7093F814314F
:104F68000320A37080E793F81321627093F812313D
:104F7800F6E743680920B3F85C204A70120A8A7081
:104F8800B3F81A21CA70120A0A71B3F858204A7184
:104F9800120A8A71B3F81831CB711B0A0B7263E7D6
:104FA800436893F82E214A7093F82F31D8E70146C9
:104FB800204609F09EFEB2E743680F211888FCF7E7
:104FC800C3FF00F15B0120460AF0E1FB23204BE719
:104FD80008460CF095F8A2E708460CF09AF89EE708
:104FE8002B4B1B68002B41D14FF4A4615120FCF7D7
:104FF8008DFB284BF5E7284BF3E7284BF1E7284BC7
:105008001B68002BF0D002462320984704202BE78A
:10501800234B1B68002BE7D0024624209847052025
:1050280022E71F4B1B68002BDED002462520F5E740
:1050380043680F211888FCF787FF00F17D0200F113
:105048005B0120460AF0AFFB2B200DE7154BC8E7A4
:10505800154BC6E7154BC4E7154BC2E7154BC0E720
:10506800154BBEE7154BBCE7154BBAE7294620465A
:10507800984754E74368204693F8A722D3F8A81224
:105088000AF052FB6B6893F8A70248E70120EBE6A9
:105098003C18002044180020401800204818002020
:1050A8004C180020581800205C18002060180020B8
:1050B8006418002050180020541800206818002098
:1050C8006C1800203F289ABF024B53F8200000209C
:1050D800704700BF3C1600203F289ABF024B53F888
:1050E80020000020704700BF3C17002030F8023C29
:1050F800F7B504460D4630F8A86C73B1012268462E
:10510800ADF801608DF80020ADF80330FEF774FAB1
:1051180018B195216320FCF7F9FA194B1B6813B1F4
:10512800A4F128009847174B1B680BB130469847E5
:105138000A230027A5F803602B70AF70637A54F830
:10514800940C6B7108F051FA08B9BA21E2E73946B4
:105158003046FCF70FFF02213046FCF70BFF18B969
:10516800094B1B6803B198474FF40173002003F003
:1051780004021B0A62F3070063F30F2003B0F0BDBB
:10518800701800207418002078180020F7B54568BA
:1051980004464FF6FF772E690DF102010DF1010269
:1051A8003046ADF8027008F0CFF901A9304608F092
:1051B800EDF940B1019808F0B5FA61680022027271
:1051C800FFF744FCE8E7044905F1A80003B0BDE88F
:1051D800F0400AF04FBB00BFF5500000F0B50446A0
:1051E80085B00D46FF2600F8E96C10F8EA3CF3B1EB
:1051F800174F3B781BB15F211F20FCF787FA0C2162
:10520800381DFCF777FC3E70002304F8E93C0923BD
:105218002A4602F8033BD4F80930C5F80330D4F81D
:105228000D305360D4F81130936005B0F0BD01A87B
:105238000C21FCF75FFCA4F5DE73039A1A6001AB3E
:1052480003CB44F8F20C44F8EE1C04F8EA6CDBE7F4
:10525800AC10002010B5054C23782BB90C21201D6B
:10526800FCF748FCFF23237010BD00BFAC100020E2
:10527800024690F8DE31BBB990F8DF3103F0FF0148
:105288000BB100207047094B18780028F9D0197025
:10529800D9680433C2F80C1103CBC2F8D601C2F89E
:1052A800DA11FF2382F8DE3101207047AC100020AC
:1052B800426838B592F88E3004460D463BB1132B40
:1052C80005D0113B0F2B8CBF0120082038BDD2F828
:1052D8001C3193BB92F8D03013B920460AF0E6FB94
:1052E8006268D5F80B30C2F8CE31D5F80F30C2F865
:1052F800D2316368D5F81320C3F808211A88A3F8B7
:10530800D122D5F80120C3F8D322D5F80520C3F857
:10531800D7226368B5F80920A3F8DB226368002266
:1053280083F8DE2160680C4900F532700AF09FFAB4
:105338006368162283F88E200BE00C222046032196
:105348000AF0D8FB63683522204683F88E200AF0DD
:10535800ADFB0020BAE700BFE551000038B543684F
:10536800044693F88E20202A04D04FF410711F2091
:10537800FCF7CCF9002293F8D0101D8803F29B109B
:1053880083F8CF2069B10B4983F8D020A3F8A55141
:1053980083F8A4210AF06BFA6368002283F88E2050
:1053A80038BD012283F8A411A3F8A551024983F856
:1053B800A721EFE781FE000073FE000038B50578ED
:1053C800446825B994F88E302BB101201CE0D4F83C
:1053D8008030DB07F9D4D1F801200F4BD1F8051044
:1053E80013400E4AC4F8E030C3F307630A4043F0A1
:1053F8000803C4F8E42084F8E3300AF057FB25B921
:10540800042384F88E30002038BDD4F8803043F06F
:105418000103C4F88030F6E72FC904F76FDB00807A
:1054280038B5436893F88D20042A32D1D1F8012089
:105438004C1CD1F80550C3F8E020C2F30762C3F84A
:10544800E45042F0080283F8E320002283F8CA20DF
:1054580083F88D2002780AB983F8332193F8342130
:10546800AAB993F87D2102F0FF0082B91A8883F85F
:105478007E0103F27510A3F87F21D1F801200649B7
:10548800C3F881216268C3F885210AF0F0F9002089
:1054980038BD0120FCE700BF81FF0000436893F896
:1054A800342112B1084B1B68184793F87D2152B973
:1054B8001A8803F275100549A3F87F211A2283F888
:1054C8007E210AF0D4B970477C18002081FF0000C3
:1054D80010B50446FEF738FC044A054B0240092083
:1054E8000B40C4F80120C4F8053010BD2FC904F7DB
:1054F8006FDB008037B50C464568FEF725FC0A4B84
:105508000A4A03400A4095F8E01000930B400192C4
:105518008DF800306B4603CBC4F801000920C4F8AD
:10552800051003B030BD00BF2FC904F76FDB008042
:1055380038B5DB04154604D5C37C13B10023436397
:1055480038BD446B013444630AF0A0FD836B9C4270
:10555800F6D30023034943632846BDE838400AF0E0
:105568008FB900BFEFFF000070B5446805460678A4
:1055780094F88D30012B09D026B994F88E302BB1D0
:1055880001203DE0D4F880309807F9D494F8D13060
:105598009A0713D44A78D80784F8DB204A88A4F8F5
:1055A800DC208A88A4F8DE2043F0020284F8D120A7
:1055B80010D5194904F1D2000AF062F994F8D130F3
:1055C800D90712D4EEB994F88E3043B15321402054
:1055D800FCF79CF894F83231002BEAD1EEE701236E
:1055E80084F88E3028460AF061FA94F88D3000204D
:1055F800012B4FF0000304BF84F88D3084F8CA30C3
:1056080070BDD4F880309A0701D55821DFE743F000
:105618000203C4F88030E5E7B500010070B54568BD
:10562800044603F00DFE054B014685F88B001B6808
:105638001BB12046BDE87040184770BD8418002093
:10564800024B1B6803B11847704700BF8018002041
:10565800F0B51F4D00242B7814709BB1013B6D6889
:10566800DBB21E1B012E0FDC05EBC40655F83470A7
:1056780076688E4208BF874227D0B84271EB06068B
:1056880012D214700020F0BD1E197710C6F3470619
:1056980055F837C005EBC70E8445DEF804708F4116
:1056A8002CBF33463446DCE705EBC30455F83350CA
:1056B80064688C4208BF854206D0A84271EB040496
:1056C80028BF01331370DDE71C4601201470DAE7A8
:1056D800CC10002010F0070208B503D06321482041
:1056E800FCF714F818B1034B197258601A70C80007
:1056F80008BD00BFCC100020014B00221A70704773
:10570800CC100020024B187A003818BF01207047CF
:10571800DC100020FF23084A0B700D234B708223F6
:105728008B701368C1F803305368C1F80730936869
:10573800C1F80B30704700BFE61000201622002188
:1057480001480CF041BA00BFE6100020F7B51E4C26
:1057580002AB03E90300637DA3B39DF800300D4657
:105768002BBBD1E96E760AF019FD95F87020174B1E
:10577800463053F822304FF47A7203F2E733B3FB22
:10578800F2F3DB192A8846F100061B18228046F13D
:1057980000066360A660B5F8863002220C4904F161
:1057A8000C00638003B0BDE8F040FFF761B9530611
:1057B80008D50B882380D1F858326360D1F85C3261
:1057C800A360E8E703B0F0BDE6100020807D02008A
:1057D8001D570000094B53F8203003F5224370B5DC
:1057E800B13316464FF47A720C46B3FBF2F53444E3
:1057F80004F042FD2C44204470BD00BF747D0200BB
:105808002DE9F04F98468BB0002304460F460392CB
:10581800069390F871A009F0B1F9054694F87B0059
:10582800FEF766FE05440AF0B9FC94F88E3000F1E4
:105838003C06ADB2472B43D00D2B41D094F88D9048
:10584800A9F14702D2F1000949EB0209039B002B99
:1058580069D194F88C30032B65D1B9F1000F62D06F
:10586800B4F8B032BB425ED1D4F8F8312046B4F86F
:10587800CC21C4F8E831A369C4F8EC31B4F86A3231
:105888001344C4F8F03103F03DFC94F879B0BBF14F
:10589800000F09D0D4F8B82241F64B539A428CBF76
:1058A8004FF0000B4FF0010B94F8C4325BB9A269BA
:1058B800D4F8B8329A421ED020880BF040FC1AE087
:1058C8004FF00109C2E720880BF036FC20B940F2FE
:1058D80052713020FBF71AFFB4F8C0324FF0000BBA
:1058E800E385B4F8C2328381B4F8B032A0F80EB0C0
:1058F8004381013B038294F87A30002B36D1BBF107
:10590800000F36D1D4F8B43284F87AB0A362B4F870
:10591800B232A385D4F8B832A361D4F8BC3223627A
:10592800022384F88C3004F50E73B4F886C0029311
:10593800A7EB0C0CB4F868320FFA8CFCFB1A1BB2FC
:10594800002B22DAD4E99423C4E998230023012206
:1059580084F80B32634694F88C10032900F2BF8157
:10596800DFE811F0150027016D004801BBF1000FB9
:1059780005D04FF04D1323630023A386C2E74FF0F1
:105988009613A4F834B02363BCE74246E3E794F8DF
:10599800711094F8C60109F0BFFB8246A06A294637
:1059A800504405F0F1FB2946C4F8F401A06905F05C
:1059B800EBFB94F87A3007A95B00DBB2034408A834
:1059C800C4F8F83104F070FB079B0093DDE9082365
:1059D800D4E998010BF0A0FC054620460AF0FCFB30
:1059E800D4F86C3294F87100D4F828B0069304F017
:1059F8004BFC069B00F52240D4F8F4114FF47A7260
:105A0800203BB1305B445B1A30319B1BB0FBF2F09A
:105A1800534432465B1B1B1A94F871000693A38DFE
:105A280003EB4101FFF7D6FED4F86C22069BC4F8BD
:105A3800FC019B1ACC2B5DD84FF4996149E7A36A06
:105A48002946D4F8EC01184405F09EFB2946C4F811
:105A5800F401A06905F098FB94F87A305B00DBB29A
:105A680003442046C4F8F8310AF0B6FBA36AD4F818
:105A7800EC511D44B4F8CC31002B40F09680B8F1BD
:105A8800000F00F0928094F8710004F0FDFBD4F848
:105A9800F411D4F8583200F522406D1A94F87120A8
:105AA800B130203D1D44A84B53F822204FF47A739F
:105AB80002F2E732D4E994ABB2FBF3F2A5EB0A05A4
:105AC800B0FBF3F01544AD1B2D1AD4F8E831D4F827
:105AD800F02194F8710002FB0311A38D324606955C
:105AE800303103EB4101FFF775FE0123C4F8FC01D7
:105AF80084F88C30A56904F13800D4F8F831A93D50
:105B08000699ED1AD4F8FC31AD1B9D4228BF1D46FD
:105B1800002384F83832C4F8C851D4E998325B18A5
:105B280042F10002C4E9923209F023FF0423284419
:105B3800A4F8687284F84132C4F83C02D4E992238C
:105B4800C4E9982302F084FD20B1D4F83C321E3316
:105B5800C4F83C32B4F8B831DB1B1BB2002BD4BFFD
:105B680000220122520084F84022B9F1000F40F0CF
:105B7800B980B8F1000F40F0B88094F88C30002B51
:105B880000F0CF80A16904F50E70D4F8F831C91A75
:105B980009F070FA80B2002800F0C380149B03B1AA
:105BA800188001200BB0BDE8F08FD4F8F4116D1AFD
:105BB8008BE7D4F8F801A269D4F8F011121AD4F8D6
:105BC800E8515A43D4F8F43106923033B4F8CC2172
:105BD80005FB01336244521AA18D013A00FB0233DE
:105BE800324694F8710001EB4301FFF7F3FDC4F866
:105BF800FC017FE7A06958430690B8F1000F2BD04D
:105C0800B4F8CC1141BB84F80B12D4F8F8B10BFBF3
:105C1800130E94F88D30292BCDF818E003D094F8A2
:105C28008E30292B09D1B4F8B032FB1A1B0404D4E6
:105C380094F8B332002B18BF9A46B4F8CC1182B34B
:105C480079BBD4E99650D4E99423AA4273EB0000B7
:105C580008D340F21C513CE694F80B1200297FF45B
:105C680049AFD2E794F87120203D374B4FF47A7052
:105C780053F822300293D4E99423CDE90423029BFC
:105C880003F2E732049BED1A029B03F52243B2FBB1
:105C9800F0F2B1331544B3FBF0F3ED1AAD1B7544C4
:105CA800069501EB0C05324650460BFB05F53035E1
