:020000040000FA
:1000000058080020893A0000F13A0000ADB900001C
:10001000CFB90000F1B9000035BA000013BA0000F2
:10002000D53A0000D53A0000D53A0000C955000085
:10003000F73A0000D53A0000FD3A0000033B00000B
:10004000D53A0000D53A0000D53A0000D53A000074
:10005000D53A0000D53A0000D53A0000D53A000064
:10006000D53A0000D53A0000D53A0000D53A000054
:10007000D53A0000D53A0000D53A0000D53A000044
:10008000D53A0000D53A0000D53A0000D53A000034
:10009000D53A0000D53A0000D53A0000D53A000024
:1000A000D53A0000D53A0000D53A0000D53A000014
:1000B000093B00000F3B0000153B00001B3B00000C
:1000C000D53A0000D53A0000D53A0000D53A0000F4
:1000D000D53A0000D53A0000D53A0000D53A0000E4
:1000E000D53A0000D53A0000D53A0000D53A0000D4
:1000F000D53A0000D53A0000D53A0000D53A0000C4
:10010000D53A0000D53A0000D53A0000D53A0000B3
:10011000D53A0000D53A0000D53A0000D53A0000A3
:10012000D53A0000D53A0000D53A0000D53A000093
:10013000D53A0000D53A0000D53A0000D53A000083
:10014000DF6000000D580000D53A0000D53A0000ED
:10015000D53A0000D53A0000213B0000273B0000C3
:1001600039EA0000D53A00002D3B0000333B000087
:10017000393B0000D53A0000D53A0000D53A0000DE
:10018000D53A0000D53A00003F3B0000453B000057
:10019000D53A00004B3B0000D53A0000D53A0000AC
:1001A000D53A0000D53A0000D53A0000D53A000013
:1001B000D53A0000D53A0000D53A0000D53A000003
:1001C000D53A0000D53A0000D53A0000D53A0000F3
:1001D000D53A0000D53A0000D53A0000D53A0000E3
:1001E000D53A0000D53A0000D53A0000D53A0000D3
:1001F000D53A0000D53A0000D53A0000D53A0000C3
:10020000D53A0000D53A0000D53A0000D53A0000B2
:10021000D53A0000D53A0000D53A0000D53A0000A2
:10022000D53A0000D53A0000D53A0000D53A000092
:10023000D53A0000D53A0000D53A0000D53A000082
:10024000FB600000D53A0000D53A0000D53A000026
:10025000D53A0000513B0000573B00005D3B0000D9
:10026000633B0000693B00006F3B0000753B0000F2
:10027000D53A0000D53A0000D53A0000D53A000042
:10028000D53A0000D53A0000D53A0000D53A000032
:10029000D53A0000D53A0000D53A0000D53A000022
:1002A000D53A0000D53A0000D53A0000D53A000012
:1002B000D53A0000D53A0000D53A0000D53A000002
:1002C000D53A0000D53A0000D53A0000D53A0000F2
:1002D000D53A0000D53A0000D53A0000D53A0000E2
:1002E000D53A0000D53A0000D53A0000D53A0000D2
:1002F000D53A0000D53A0000D53A0000D53A0000C2
:10030000D53A0000D53A0000D53A0000D53A0000B1
:10031000D53A0000D53A0000D53A0000D53A0000A1
:10032000D53A0000D53A0000D53A0000D53A000091
:10033000D53A0000D53A0000D53A0000D53A000081
:1003400017610000D53A0000D53A0000D53A000008
:10035000D53A0000D53A00007B3B0000813B00000D
:10036000873B00008D3B0000933B0000993B000061
:100370009F3B0000A53B0000AB3B0000D53A0000CE
:10038000D53A0000D53A0000B13B0000B73B000071
:10039000BD3B0000C33B0000C93B0000CF3B000059
:1003A000D53A0000D53A0000D53A0000D53B000010
:1003B000DB3B0000E13B0000D53A0000D53A0000ED
:1003C000E73B0000ED3B0000F33B0000F93B000081
:1003D000FF3B0000053C0000D53A0000D53A000084
:1003E000D53A0000D53A0000D53A0000D53A0000D1
:1003F000D53A0000D53A0000D53A0000D53A0000C1
:10040000D53A0000D53A0000D53A0000D53A0000B0
:10041000D53A0000D53A0000D53A0000D53A0000A0
:10042000D53A0000D53A0000D53A0000D53A000090
:10043000D53A0000D53A0000D53A0000D53A000080
:1004400033610000D53A0000D53A0000D53A0000EB
:100450000B3C0000113C0000173C0000D53A0000A6
:100460001D3C0000233C0000D53A0000D53A0000B6
:08047000D53A0000293C000010
:100480007FE97FE905F034BF7FE97FE905F042BFEE
:100490007FE97FE905F074BF7FE97FE905F062BF7E
:1004A0007FE97FE905F048BF000000000000000080
:1004B000000000000000000000000000000000003C
:1004C00001015F5F030100001F01000081120000B5
:1004D000000000000000000001000000010000001A
:1004E000000000000000000000000000000000000C
:1004F000021F00000000000000000000700000006B
:100500001605010080000000000F0000010000003F
:100510007106000001015F5F000100001F00000084
:10052000D1370000000000000000000003000000C0
:1005300001000000000000000000000000000000BA
:1005400000000000051F0000000000000000000087
:100550008000000070000000400000002105010044
:10056000600000000107000001000000652E00008F
:1005700001015F5F010100001F0100004B19000035
:10058000000000000000000000000000010000006A
:10059000000000000000000000000000000000005B
:1005A000011F000000000000000000003F050100E6
:1005B00070000000020F000001000000810D00002B
:1005C00001015F5F040100001F010000C929000054
:1005D000000000000000000000000000010000001A
:1005E000000000000000000000000000000000000B
:1005F000011F000000000000000000006405010071
:10060000400000000507000001000000B5270000C1
:1006100000015F5F02000000FE0B00005956000061
:10062000001E0000000000000000000000000000AC
:1006300000000000000000000100FFC3000000C433
:0C06400000FE0000E0530020000000005D
:10066000024B1B6803600020704700BFD831002098
:100670002DE9F04F04680646A3B0002C40F0EA8054
:10068000042702AD2022214628460EF013FC0DF16E
:100690004809202221460AA80EF00CFC40222146DF
:1006A00048460EF007FC06F1200353F8041D3A46B5
:1006B000013F09B1174601E0002FF6D14FF00408C1
:1006C00006F1300353F8041D424608F1FF3809B122
:1006D000904602E0B8F1000FF4D12FB96FF0830417
:1006E000204623B0BDE8F08F40234A4600217068C1
:1006F0000BF0F1F94028F1D1CDE902900124A9468F
:1007000006F1100AA74225D10DF128094C464FF0F9
:10071000000B06F11C0AD84529D1504BB26802994A
:100720001A600023CDE90033039B402B7ED10B8D53
:10073000180A032840D0012867D00968831ECDE934
:100740000012092B75D8DFE803F01F373C42484EF2
:10075000545A656B5AF8040FC9F80C0018B12146B9
:1007600070680BF0DAF949F8080F0134CAE75AF853
:10077000040F606018B1594670680BF0E6F944F850
:10078000080B0BF1010BC6E76A4628460AA901F0DF
:1007900026F804464FF0000AD0454DD14FF001082D
:1007A00047459DD055F838301BB1414670680BF075
:1007B000C0F908F10108F3E728460AA900F00AF990
:1007C000E7E76A4628460AA900F048FEE1E76A46DC
:1007D00028460AA900F062FDDBE76A4628460AA916
:1007E00000F0F3FED5E76A4628460AA900F0F1FFBB
:1007F000CFE76A4628460AA900F0EEFFC9E76A4635
:1008000028460AA900F0C8F9C3E728460AA901F05A
:1008100089F8BEE76A4628460AA901F090F8B8E7C9
:100820006A4628460AA901F08DF8B2E76FF0800405
:10083000B0E76FF08504ADE7D9F800302BB1514631
:10084000D9F8042070680BF08CF90AF1010A09F15B
:100850000809A1E76FF0850442E700BFD831002006
:1008600008B54FF4FA52002102480EF023FB002095
:1008700008BD00BF981200200023F7B50C6807469A
:100880000E461546019314BB22B3146001A8FFF76E
:10089000E7FEA8B94FF47A7C104A0CFB04F3D15858
:1008A000A646013471B94FF0010E02EB030C42F879
:1008B00003E0019910331344CCE9011734602B6035
:1008C00003B0F0BD082CE8D16FF08400F8E76FF0BA
:1008D0008800F5E76FF08600F2E700BF981200206D
:1008E0000023F7B505680193013D072D036004D986
:1008F0006FF08604204603B0F0BD01A8FFF7B0FEFC
:1009000004460028F6D14FF47A735D430A4E7359BA
:100910007719012BECD17A68019B9A42E8D105F155
:1009200010004FF47672214630440EF0C3FAC7E946
:1009300001447451DEE700BF98120020002373B514
:100940004C1E072C06461546019303D96FF088000C
:1009500002B070BDC2B101A8FFF782FE0028F7D136
:100960004FF47A7202FB04F1094B5C585A18012CBF
:10097000ECD19468B442E9D15468019A9442E5D12B
:10098000103119442960E3E76FF08600E0E700BF0B
:1009900098120020B0F5105F11D101F0FE43B3F1C1
:1009A000A06F094B08BF21F47E11994209D0074B73
:1009B000994206D006480B1A584258417047002009
:1009C00070470120704700BF00444004000240050A
:1009D0000002C00300232DE9F043D0F8008085B069
:1009E000B8F828900546A9F540720F460293082AE8
:1009F00050D8DFE802F0192A354F4F4F4F4F05000E
:100A00000A6812B96FF080040AE04B68032BF9D929
:100A1000D8F804305F49591A4B424B411360002407
:100A2000204605B0BDE8F0830B1D01934B68009391
:100A30000B68D0E90212D8F804000BF010FC044651
:100A40000028EDD000237B60EAE7436900938168CA
:100A5000D0E90323D8F804000BF014FC0446DFE7C8
:100A60000E68002ECED04B68032BCBD9D8F80830B7
:100A700031460320336002AAFFF7FEFE0446002839
:100A8000CED1D8F8041002980BF080FB0446002861
:100A9000C5D02BE00320D8F8081002AAFFF74EFFBC
:100AA0006FF441734B44022B04465DD83E68002E20
:100AB000A8D07B68032BA5D9D8F80830336000286C
:100AC00056D040F207339945A9D0A9E70298D5E955
:100AD00002120BF07BFBC1E7029807F10C03D7E988
:100AE00002120BF087FB044620B900243046FFF7C2
:100AF000F7FE95E70023FB6092E70298D5E9021222
:100B00000BF089FB044600288AD1EEE702980BF02F
:100B100032FB0446EAE700233E680393002E3FF4CD
:100B200071AF7B68032B7FF66DAFAB68002B3FF492
:100B300069AFEA68032A7FF665AF1B683146032078
:100B4000336003AAFFF798FE044600287FF468AFDD
:100B5000DDE902010BF0BFFB044600283FF460AF63
:100B6000C4E76FF085045BE700287FF459AF0646C1
:100B7000A9F20333042BF4D801A252F823F000BFEA
:100B8000CD0A0000170B0000D90A0000FB0A000084
:100B90000D0B00000900000200232DE9F047066854
:100BA0008EB0B6F828900DF1140807460D4692460F
:100BB000D2E900214046049300F0BCFEB9F5106F65
:100BC0000FD12B1D03936B6802932B680193FB6875
:100BD0000093BB68706898E806000BF0E3FF0446DA
:100BE00016E040F60113994516D12F68002F00F04A
:100BF00090806B68032B40F28C80B36839460420E8
:100C00003B6004AAFFF738FE0446002800F09280FB
:100C100020460EB0BDE8F0870420B16804AAFFF7B3
:100C20008DFE0446A8B140F60A139945F0D12F680D
:100C3000002F6ED06B68032B6BD9B3683B60002C20
:100C40007FD104980BF0D2FD04463846FFF748FEEA
:100C5000DEE7A9F60219B9F1080F68D801A353F825
:100C600029F000BF890C00009D0C0000A70C0000BB
:100C7000CF0C0000B50C0000190D0000C30C0000E3
:100C8000DD0C00002F0C00002968002941D06B68A2
:100C9000042B3ED104980BF0D7FDA0E7316B0498EC
:100CA0000BF0DBFD9BE7718D0498D7E902230BF075
:100CB0008AFE94E7718D0498D6E90C2306F082FC35
:100CC0008DE70498D5E900120BF0D8FD87E7718D08
:100CD000049898E80C000BF07FFE80E72E68C6B100
:100CE0006B68032B15D9B96899B1FA681C2A10D121
:100CF00007A80AF0B3FEDAF8040007A900F01DFE09
:100D00004246049907A80BF0CFFD059B04463360CB
:100D10007EE76FF080047BE7FB68718D0193BB6811
:100D20000498009398E80C0006F07EFC57E76FF0FB
:100D300085046DE77168049806F0EAFB0446002814
:100D400083D1002464E700BF08B514220249034898
:100D50000AF084FE014808BDFC2900009C520020D6
:100D600008B54FF40251044801F086FF034805F02E
:100D700077FB002008BD00BF1C3200202D190000A9
:100D80006FF47A72F0B50368044613448DB0032BF8
:100D900000F29380DFE803F0022E62800369082BE3
:100DA00002D06FF0800554E08569042DF9D100214F
:100DB000406808AA0AF08FFE0828F2D12B460221CB
:100DC000606806AA0AF087FE0428EAD165697DB149
:100DD000012160680AF0A1FE394B1860069BCDE93D
:100DE0000053DDE90823A06800F016F9054630E05D
:100DF0002846F1E70369082BD3D14569042DD0D1EA
:100E00000021406808AA0AF066FE0828C9D12B46CE
:100E10000121606806AA0AF05EFE0428C1D1266A94
:100E2000D6B1002160680AF090FE254B186005AB32
:100E3000CDE90163069B0093A068DDE9082300F07B
:100E40002BF9054628B926B10146059A60680AF0D3
:100E500088FE28460DB0F0BD3046E6E70369082B52
:100E60009FD1076A0C2F9CD10021406806AA0AF086
:100E700032FE082895D1DDE9062308AE0096A06869
:100E800000F046F905460028E3D101463B463246CC
:100E900060680AF02CFEDCE70369082B81D1002191
:100EA000406808AA0AF017FE08287FF47AAFDDE947
:100EB0000823A06800F03EF998E76FF08505C8E7C1
:100EC000DC310020014B1868704700BFDC31002086
:100ED0001FB5CDE90201084301921BD004220F483F
:100EE0000DEB02010AF0BAFD08220D480DEB0201DC
:100EF0000AF0B4FD01980B4BDFF82CC00B4AB0F59B
:100F0000807F08BF9C460549604600F00FFE05B093
:100F10005DF804FB6FF08600F9E700BFB0520020D7
:100F2000B4520020E0310020F831002010320020BF
:100F300030B5334B85B09D6AA8470369042B23D194
:100F4000A847304C8368A360A847037D01A8237697
:100F500003F0C0FEC0B9019BA26863609DF80C302D
:100F600021465343029A2848B2FBF3F22282274AD1
:100F7000E36000F082FD98B9234800F0BBFD30B972
:100F8000A8470369042B0DD06FF0800008E01E48CD
:100F900000F0CAFD20B91C4800F0ACFD0028EFD0DD
:100FA00005B030BDA8471A4C8368A360A847037DED
:100FB00001A8237603F080FE0028E5D1019BA268FA
:100FC00063609DF80C3021465343029A1148B2FBEE
:100FD000F3F222820D4AE36000F04FFD0028DFD1DA
:100FE0000C4800F087FD0028DAD00A4800F09CFD8C
:100FF0000028D5D1074805B0BDE8304000F07ABDE3
:10100000986100007C120020F8310020DC290000EB
:1010100060120020E031002019462DE9F04152EA2B
:1010200001030446DDE90665104626D0072D28D8C1
:101030002246FFF74DFF30B9134B9B68DB0705D500
:101040006FF084001BE010F18C0F18D10E4F45F4A7
:101050004035BD607E60FFF735FF00230B4D0790E4
:101060000B4806933A463346B4F5807F18BF2846AE
:10107000BDE8F041074900F06DBD6FF08600BDE8A6
:10108000F0816FF08500FAE710320020F83100207F
:10109000E0310020B05200202DE9F341194652EA18
:1010A00001030546089F10460A9E04D16FF0860092
:1010B00002B0BDE8F0812A46FFF70AFF0028F7D109
:1010C0000F4B1C68BC42F1D3099BE41B9C4228BF18
:1010D0001C460C4A0C4B3460B5F5807F14BF984613
:1010E0009046FFF7EFFE3B460090224640460749F8
:1010F00000F039FE0028DBD000233360D8E700BFC2
:1011000010320020E0310020F8310020B0520020E1
:1011100038B50546194610462A46049CFFF7D8FE06
:1011200028B9034B1A689B68C4E90022A36038BD44
:101130001032002010B50446194610462246FFF72B
:10114000C7FE80B9084B9B68DB070AD40748084BE9
:101150000849B4F5807F18BF1846BDE8104000F07C
:10116000F2BD6FF0840010BD10320020E03100208D
:10117000F8310020B0520020F8B51D46036804463F
:101180005B680E46174698470B4BC0F3410013F8B7
:10119000202063680699E0681D442368B1FBF2F2E1
:1011A00000FB065039469B6998470028B4BF6FF092
:1011B00091000020F8BD00BFF02900002DE9F74F95
:1011C0000C9C07469246002C55D0C26840681E18F9
:1011D0003B6802FB01665B689847284BC0F34100FF
:1011E00013F82080B6FBF8F908FB09F94E4540D00A
:1011F0003B680DF1040B0122594648465B6998474C
:10120000002804DA6FF0910003B0BDE8F08FA6EB80
:101210000901621890458EBF2546A8EB06054D448E
:101220002A46504659440AF019FC641B1FD0444515
:101230000FD3B4FBF8F93B684A465B690AEB05013A
:10124000A81998470028DDDB08FB09F3E41A0ED043
:101250001D443B6801225B6901A970199847002869
:10126000D0DB224601A90AEB05000AF0F7FB0020BB
:10127000CAE70025DBE72046C6E700BFF0290000EB
:1012800008B5FFF7EDFA40B9FFF75EFDFFF768FD1F
:1012900018B9BDE8084006F00DBC08BD134640F281
:1012A00009522DE9F04F0026D0F8008089B0B8F837
:1012B00028B0074693450D46059618D10A688368FD
:1012C0002AB96FF08004204609B0BDE8F08F496864
:1012D0000329F6D9002BF4D0C1680129F1D9D8F837
:1012E00004101888FFF756FB10600024EBE70DF19F
:1012F00018094846D3E9002100F01CFBBBF5A06F9C
:1013000013D12B1D03936B6802932B680193FB6829
:101310000093BB68D8F8042099E8030006F0EEF9C2
:1013200004460028CFD06E60CDE740F201539B45C4
:101330000FD12B1D03936B6802932B680193FB68FD
:101340000093BB68D8F8042099E8030005F08AFEF2
:10135000E6E7ABF2025A1FFA8AF3012B19D82E687E
:10136000002EAED06B68032BABD9D8F808303146CD
:101370000120336005AAFFF77FFA0446002CA2D1B2
:10138000BAF1060F67D8DFE80AF032411E2B495444
:1013900061000120D8F8081005AAFFF7CFFAABF2D8
:1013A0000753012B0446E9D82E68002E89D06B68BC
:1013B000032B86D9D8F8083033600028E0D0BBF57D
:1013C000A16F92D07FE705982B1DD5E900120BF095
:1013D0003CFB044600283FF476AF00236B6072E7C5
:1013E0000598D7E902120BF0C2F804466BE7D8F86B
:1013F0000430059899E806000BF0A1F8044600288F
:101400003FF473AF3046FFF76BFA5CE7D8F804306F
:10141000059899E806000BF09EF8EFE72B1D019365
:101420006B68059800932B68D7E902120BF0BDF8A2
:10143000CFE7059805F10C03D5E902120BF0CFF8C0
:1014400004460028DED00023EB603CE705980BF053
:1014500068F80446D6E76FF0850434E72DE9F04FCD
:101460000027D0F8009089B0B9F828B00DF118081D
:1014700006460D46D2E900214046059700F05AFA8B
:10148000BBF5806F15D12B1D03936B6802932B68FE
:101490000193F3680093B368D9F8042098E8030037
:1014A0000BF000F8044600B16F60204609B0BDE8BB
:1014B000F08F40F201439B450ED17369029333696B
:1014C0000193F3680093B368D9F8042098E8030007
:1014D0000AF0FDFF0446E8E7ABF2024A1FFA8AF37E
:1014E000012B1AD82F6817B96FF08004DDE76B68FD
:1014F000032BF9D9D9F80830394602203B6005AAF8
:10150000FFF7BAF90446002CCFD1BAF1050F59D82C
:10151000DFE80AF01F2D353B49530220D9F80810A7
:1015200005AAFFF70BFAABF20543022B0446EAD8F3
:101530002F68002FD8D06B68032BD5D9D9F8083085
:101540003B600028E1D040F207439B45ADD1002429
:10155000ABE7D9F80430059898E806000AF031FFA7
:1015600004460028F3D03846FFF7BAF99DE7D9F8CA
:101570000430059898E806000AF02FFFF0E7059878
:10158000D6E902120AF035FFA4E7059805F10C032D
:10159000D5E902120AF03FFF044608B90024E2E749
:1015A0000023EB6081E70598D6E902120AF060FF9C
:1015B000044600287FF479AFF0E705980AF0A5FE0D
:1015C0000446D0E76FF085046FE72DE9F04F4FF048
:1015D000000807688DB0B7F828B00DF12809064655
:1015E0000D46D2E900214846CDF8248000F0A2F94A
:1015F000BBF5C06F1ED12B1D07936B6806932B683C
:101600000593F3680493B368039373690293336992
:1016100001937B6A00937A6807F1140399E8030049
:1016200005F09CFD044608B1C5F8048020460DB0C5
:10163000BDE8F08F40F201639B4517D12B1D079346
:101640006B6806932B680593F3680493B368039360
:1016500073690293336901937B6A00937A6807F197
:10166000140399E8030005F0D3FDDBE7ABF2026A4F
:101670001FFA8AF3012B20D8D5F80080B8F1000FAB
:1016800002D16FF08004D1E76B68032BF9D9BB68F6
:1016900041460520C8F8003009AAFFF7EDF80446D6
:1016A000002CC3D1BAF1090F00F29080DFE80AF0F4
:1016B0002330525F66776C377D4D0520B96809AAE3
:1016C000FFF73CF96FF4C1635B44022B0446E7D893
:1016D000D5F80080B8F1000FD3D06B68032BD0D9B8
:1016E000BB68C8F800300028DCD040F20B639B4593
:1016F0009CD100249AE77B68099899E806000AF0D3
:1017000097FF04460028F4D04046FFF7E9F88DE73C
:101710007B68099899E806000AF096FFF1E705F161
:101720000C030293EB6809980193AB680093D5E929
:10173000041205F114030BF003F8044608B9002461
:10174000E2E70023EB606B6170E709980AF061FF44
:101750000446D9E709982B1DD5E900120BF0B8F91A
:10176000044600283FF462AF00236B605EE70998EF
:10177000D6E9021205F014FE044657E70998D7E9A6
:1017800003120AF06DFFF7E72B1D01936B680998B0
:1017900000932B68D6E902120AF0A6FFE0E7099849
:1017A000D6E902120AF078FFE6E7F3680998019398
:1017B000B3680093D5E9021205F10C030AF0F2FFB9
:1017C00004460028BBD00023EB602FE76FF08504B0
:1017D0002CE76FF0850070476FF0850070472DE9AA
:1017E000F0418EB003ACD0F8008006460D46174697
:1017F000D2E90021204600F09DF840F20322B8F81B
:101800002830934203D0A3F50273012B0ED8B168A0
:1018100011B96FF080043CE0F2681C2AF9D107A8E6
:101820000AF01CF9786807A900F087F8B8F82830A2
:10183000A3F50073092B72D8DFE803F01A71710564
:10184000142F3D464B63D6E904122E68002EE0D0DB
:101850006B68032BDDD9234607A805F0C3FA0446BD
:10186000039B4CE094E8030005F078FA044610E08E
:1018700094E8030007AA2E680AF045FB2B6804468B
:10188000002BC6D06A681C2AC3D8304607A90AF0C4
:10189000E5F820460EB0BDE8F0812B1D0093D5E998
:1018A000002394E803000AF068FB04460028F0D007
:1018B00000236B60EDE72B1D0093D5E9002394E82E
:1018C00003000AF083FBF0E794E803000BF0E5F96E
:1018D000CCE7002205A811462E6800F02BF82B68F3
:1018E000002B96D06B68032B93D994E8030005ABCB
:1018F00007AA0AF099FB04460028CAD1059B336069
:10190000C7E72E68002E84D06B68032B81D921464F
:1019100007A805F0A3FF04460028A1D0B9E76FF09F
:101920008504B6E7D1E9000105F0D6BE0FB400206A
:1019300004B07047C0E900217047886170476FF0BC
:10194000850070476FF085007047FFF7F1BA08B562
:10195000036800209B689847002818BF6FF091002B
:1019600008BD0020704770B504460E460025E368A8
:10197000AB4201D8002070BD606806FB03002368FD
:101980002844DB69984710B9A3681D44EFE76FF05E
:101990009100F0E72DE9F04F03688FB006AA0446E6
:1019A0000E46D3F80C8000F002FC00285FD10BA893
:1019B00000F0F4FE014600285CD1DDE9067A202221
:1019C00006A8099D0DF076FA3146204606AA00F0D9
:1019D00039FD00284BD1834681462368DB8A5B456D
:1019E00015D8002D35D12946204603AA00F067FC02
:1019F00000283CD12946204603AA00F082FEB0BB55
:101A0000204600F067FE78B36FF083002FE0B34507
:101A10001CD05946204606AA00F0C9FB38BB069BDD
:101A2000BB420DD10BA800F0B9FE48B9079B534546
:101A300006D9984528BF98465B1B0793099B994494
:101A40005946204606AA00F0FDFC80B90BF1010BB7
:101A5000C3E743462A4639462046CDE900A900F0AF
:101A6000A3F920B9002FCBD1204600F08BFB0FB09B
:101A7000BDE8F08F6FF08B00F9E7F8B50D4617461B
:101A8000064670B369B362B30B8ACA68C98A012B70
:101A90004FEA411112D9032B10D0022BA88A23D16F
:101AA000A2F114035B1A834234BF6FF08604002452
:101AB000824201D26FF08604012302E06FF08604B7
:101AC000023B0C20083100FB03118A4209D344B9C0
:101AD0001822214630460DF0EDF9C6E900572046A0
:101AE000F8BD6FF08604FAE7824234BF6FF08604D7
:101AF0000024E5E737B5054600F090FD044658B9E7
:101B00004FF08071284601AA00F0BBFB38B9284687
:101B10000199FFF73FFF0446204603B030BD10F1A6
:101B20008C0F18BF0446F7E700F09CBC10B58AB0D4
:101B3000144602AB01AA00F075FB40B9059B636037
:101B4000049B2360BDF81830A3600AB010BD6FF08D
:101B50008B00FAE72DE9F04393B00DF12808044615
:101B6000894615460021202240461F461A9E0DF048
:101B7000A1F94FF6FF73CDE9053325B96FF0860063
:101B800013B0BDE8F083AB68B3F1807FF6D2236871
:101B900049465A8A6B682046013B1344524213401F
:101BA0006B6005AA434600F03DFB002840F08580AD
:101BB000AB6805999A0306D50D9AD5F804C062451D
:101BC0006ED10C900E9306914FF6FF73069A9A42CF
:101BD0007CD121686B68898A8B42CFD807A9CDE96F
:101BE000028106A90191A9682046009105998A1AE7
:101BF00018BF0122494600F0C0FB0028C0D1002FC9
:101C00006CD120460A9907AA00F07BFD002851D12B
:101C100006994246204600F015FC0146002849D1AD
:101C2000DDE905539D4228BF1D4620462A4600F0A7
:101C3000DFFC00283ED14FF6FF72059B93420FD088
:101C4000069A93420CD09A4238BF1A462046691C25
:101C500000F0CEFC70BBDDE905539D4238BF1D4648
:101C600023682046DA8A691C00F0C2FC10BB0A9B7C
:101C7000002B62D1002F60D0204600F083FA0028AC
:101C80007FF47EAF4FF6FF73059999423FF478AF2A
:101C9000069B99423FF474AF2046FFF77BFE6FE747
:101CA0000E9B424643F0807320460E9300F0CAFB21
:101CB000002889D06FF0830062E710F18C0F7FF469
:101CC0005FAFAB68DB037FF55BAF7DE720460A992A
:101CD00007AA00F0F4FA002891D0EBE723685B8AAA
:101CE0005A1E3242E6D17D1E1D445B421D400C9BB4
:101CF0009E42DFD82A4631460D9800F043FD002869
:101D0000D8D11B9B4246CDE900532046334607A954
:101D100000F0C0F80028CDD10C9B3E440A999E42A9
:101D20002046079D88BF0C9600F027FA29460790A9
:101D30000A9A204600F083FB63E7204600F0CAFCC5
:101D4000002899D0B6E713B5002301AA044600F095
:101D500069FA28B920460199FFF71CFE02B010BDB0
:101D60006FF08B00FAE770B58CB015461C4603AADD
:101D700004AB064600F056FA98B92A462146069862
:101D800000F000FD58B9109B2246009330462B46C8
:101D900004A900F05EF8002818BF6FF083000CB0B3
:101DA00070BD6FF08B00FAE72DE9F04786B016465C
:101DB000DDE90E9703AA054688469A4600F07FFAA9
:101DC000044698B9059B414633442846059300F0E4
:101DD000D4F906467FB101464A462846CDE900A718
:101DE000039B00F0D7FB28B16FF08304204606B0B8
:101DF000BDE8F0870127049A4A450BD2A9EB0203FC
:101E0000CDE9002331462846039B00F0C3FB0028A0
:101E1000EAD1012742462846039900F010FB4146CB
:101E2000284603AA039600F06CFC044628B14246FB
:101E30003146284600F003FBD8E7B8F1000FD5D0B3
:101E4000002FD3D06B683146DB682868984704467A
:101E5000CCE72DE9FF410D461646096801AA044664
:101E60001F46DDF8288000F02AFA70B901994B1C52
:101E70000BD062686B680A9755684246AC4620688A
:101E8000334404B0BDE8F04160476FF0830004B014
:101E9000BDE8F0812DE9F3471546DDE90AA90F46B3
:101EA00098461168044600F068F96B687A689844AF
:101EB000A8EB0203CDE90023064601463B68204615
:101EC00000F068FB20BB6368CDF800A0D3F808A041
:101ED0004A46434631462068D047C8B9EB686A682D
:101EE000B9681A4423682046DB685B1A9B1ACDE95F
:101EF000002331463B6800F04DFB48B92B683BB1ED
:101F0000314663682068DB6802B0BDE8F0471847D7
:101F100002B0BDE8F08713B50C2404FB01F341685F
:101F200000948C68083341690068A04702B010BD76
:101F3000436810B5416904461B690068984750B969
:101F400023681A8A022A06D96268A1681846BDE881
:101F500010401269104710BD008A022814BF0338D0
:101F60000020704708B5FFF7F7FF0C2300FB033391
:101F700003EB4110083008BD2DE9F04F0024054661
:101F80000F46904626464FF00C098BB0D5F800A0BE
:101F90005046FFF7E1FF013086420ED300264FF096
:101FA0002009D5F800A0BAF816309E421DD30020B3
:101FB00088F800400BB0BDE8F08F09FB06F36A68B3
:101FC000CDF80090D2F804B039465046083302AA42
:101FD000D8470028EED102AB13F8012B01300C28B2
:101FE00084EA0204F8D10136D0E76B6831465046E6
:101FF000D3F804B0FFF7B6FF02AA034639465046AD
:10200000CDF80090D8470028D4D102AB13F8012BAB
:102010000130202884EA0204F8D10136C1E737B53F
:10202000837B01685A1CD2B28273097E04469142B6
:10203000416904BF02338373012900F10D020DD8F9
:10204000FFF79AFF40B90822636800929D686169B2
:102050000346A2182068A84703B030BD6FF0860081
:10206000FAE713B50C46114622790346012A09D135
:10207000036862791B7E9A420CBF6FF083000020D8
:1020800002B010BD022A04D11B68A2791B7E9A42BD
:1020900002D16FF08300F3E701290DD80DF107029B
:1020A000FFF76AFF0028EBD162799DF807309A426A
:1020B00018BF6FF09100E3E76FF08600E0E70822B9
:1020C000F0B5436887B000925C6800236A44054617
:1020D00019460068A0470246002834D000264FF079
:1020E000FF3408226B6800925F6801210023286892
:1020F00004AAB847002839D10122284604A9FFF7CD
:10210000B0FF002832D1002E35D02B689DF8162064
:102110001B7E9DF80E10B3FA83F35B0993421BD12B
:10212000002A0CBF01230223994203D191422CBF04
:102130000026012634462C61B4FA84F40020640998
:102140006C6107B0F0BD284602A9FFF78AFF04467C
:102150000028C3D10126C4E78B42E7D1002B0CBF76
:10216000012302239342E1D00646E3E7002EE2D1A9
:102170006FF08300E5E70124DDE709B940697047A6
:102180008068704710B50446FFF749FF70B963686F
:102190006169DB682068984740B9D4E90423204688
:1021A000C4E90432BDE81040FFF7C2BE10BDF7B568
:1021B000066805463046FFF7D5FE034620206968CD
:1021C00000904F68304629691446B847064640B922
:1021D0002868FFF7C1FE23680130834204D36FF003
:1021E0009706304603B0F0BD04F1140000F0D6FAB3
:1021F0000028F6D12D68E268AB8A9A42EFD8A3682E
:102200009A42ECD3D4E900372BB92846E98AFFF784
:10221000A9FEB842E3D83946E86800F0B3FA0028CE
:10222000DFD0DCE72DE9F0430746884691461C469F
:10223000002589B03B68DB8AAB4202D86FF08B0681
:1022400016E06A4629463846FFF7B1FFB0B90C22BE
:10225000414605A80CF0E8FD064668B9C9F80050EB
:1022600034B16D460FCD0FC495E80F0084E80F0020
:10227000304609B0BDE8F0830135DBE76FF0830637
:10228000F6E7F0B505460E461746002489B02B68E0
:10229000DB8AA34202D86FF08B0009E06A46214630
:1022A0002846FFF784FF38B9049B1E4202D03C60E9
:1022B00009B0F0BD0134EAE76FF08300F8E773B5C9
:1022C00006460C2000FB01F3716800904C683068F2
:1022D000316908331546A047044630B93368296888
:1022E0001A8A914204D36FF09704204602B070BD61
:1022F000D868D5E9011200F045FA04460028F2D169
:102300002B68012B03D83068C18AFFF72BFE6B685E
:102310008342EAD0E7E7F7B50C2606FB01F34168F4
:1023200000964F6808330169054600681446B847AF
:10233000034630B92B6821681A8A914204D36FF0A2
:102340009703184603B0F0BDD868D4E9011200F035
:1023500019FA03460028F2D12268012A09D82A680E
:102360001046FFF7F9FDD18A00FB066649010831E6
:10237000881962688242E4D0E1E72DE9F04F064611
:102380008B4691469846002789B0DDE9145A30689B
:10239000FFF7E2FD0130874202D36FF08D0421E0A8
:1023A000524639463046FFF78AFF0446002835D1A9
:1023B000DAF8082090452FD833685946DB682F603B
:1023C0009B1A6B600C22C5F80C8005F1140009F013
:1023D00045FB129BAC602B61DAF80830A3EB0803D5
:1023E000CAF8083000253368DB8A9D4205D26A4668
:1023F00029463046FFF7DBFE98B14FF6FF75139B79
:102400001D60CCB94FF6FF739D4208BF6FF08D047D
:10241000204609B0BDE8F08F0137B8E76FF08304BC
:10242000E0E705A800F0BAF920B1B9F1000FE6D154
:102430004FF001090135D6E76FF08D04E8E702B1EE
:102440008160704773B5056804462846FFF78AFD2A
:1024500003462020616800908E6828466169B04775
:1024600002B070BD70B58CB00546FFF728FE00289D
:1024700061D16E696B6831461B69286898470446CC
:10248000002878D1B6FA86F16B6828681B6949097B
:102490009847044600286ED12A680126137EB3FAB5
:1024A00083F35B09AB73138AC5E90406022B14BFDF
:1024B00002230123AB6002232B73D18A1046FFF75E
:1024C00051FDD36821461B1A029001AA28460393A6
:1024D0000196FFF720FD044600284CD106462B68E4
:1024E0000290DB6803932B681846FFF735FDB04276
:1024F00023D8002C4BD12B681846FFF72DFDA042A6
:1025000028D82022002104A80CF0D4FC00242B6839
:10251000DB8AA34232D82846FFF781FD48BB6B68AF
:102520006969DB6828689847044620BBD5E904231D
:10253000C5E904321FE000269CE7198A6A6802296F
:1025400014BF032100211846314412699047013617
:102550000443C8E71B8A2846022B14BF0323002329
:1025600023440134214601AA0193FFF7D4FC00283B
:10257000C1D06FF0830420460CB070BD21462846C0
:1025800004AAFFF75FFF0028F3D10134BFE76FF023
:102590009104F0E72DE9F04F044688461646994627
:1025A000C3B0DDE94CA51DB9284643B0BDE8F08FA6
:1025B000B5F5807F2F4628BF4FF48077636800977A
:1025C000D3F804B049465346206802AAD8470028E9
:1025D000EBD163680097D3F808B0414633462068D2
:1025E00002AAD8470028E0D13E44BA44ED1BDAE7FE
:1025F00073B5066804463046FFF7B4FC154602463C
:1026000029463046FFF7AEFC801ACDE9002020466F
:10261000D4E90431FFF7BEFF02B070BD2DE9F041EF
:10262000436805461B68006886B09847044628B989
:102630002846FFF744FD28B16FF08304204606B01A
:10264000BDE8F08108266B6805F108070096D3F80D
:1026500004803A46234629692868C0470028EBD100
:10266000394628462A69FFF7FCFC0028E4D12846B1
:10267000FFF75EFC04460028DED12B7B012B24D122
:10268000014603AA2846FFF746FE04460028D5D196
:10269000059B2A68C3F1FF23D26803F57F03F83353
:1026A0001344CDE90063324628462B696969FFF778
:1026B00071FF04460028C1D16B7B2846AB7302230F
:1026C0002B73FFF75FFD0446B8E7022B18BF6FF0CE
:1026D0008304B3E710B586B0002103AA0446FFF7D0
:1026E000EEFD60B92068049A059BD118C3682046A6
:1026F0005B1ACDE90023D4E90431FFF74BFF06B0A4
:1027000010BDF0B504460D4687B009B943691360A2
:1027100029462046FFF7FFFB0146C8B9D4E90476F5
:1027200085B90C2200212068FFF71CFC6A43143293
:10273000801ACDE900203B4631462046FFF72AFFAC
:1027400007B0F0BD204603AAFFF7B9FD014610B15E
:102750006FF08300F4E7204603AA0396FFF7DBFB44
:102760000028F5D1012DDCD00C2314226B430C3B47
:10277000019331463B4620460092FFF70BFF0028AD
:10278000CFD0DDE7814206D8401A904234BF6FF0C7
:102790008600002070476FF08600704700F10C0340
:1027A00010F8012B22B99842FAD16FF08B007047D4
:1027B000002070472DE9F04103680446A3F2F2338C
:1027C000A6B0032B00F2FD80DFE803F00D02919527
:1027D000042200F1200353F8040D1146013A0028A9
:1027E00052D00A4652E000230421169300F1200340
:1027F00053F8040D0A46013908B1114601E00029D9
:10280000F6D1042204F1300353F8045D1046013A76
:102810000DB1024601E0002AF6D12369042B03D052
:10282000012026B0BDE8F081206A0428F8D80129EB
:10283000F6D1012AF4D10021606806AA09F04BF90B
:102840000428EDD1A368002B16DB00220699A068AE
:1028500002F0BAFA0028E3D1216A069816AA02F01B
:1028600068FA05460028DBD1236A16AA00216068B1
:1028700009F03DF92846D4E7069806A902F0B9FA0E
:102880000028E2D00220CCE7002AA4D1042104F1E0
:10289000300353F8045D084601390DB1014601E0EB
:1028A0000029F6D12369042BBAD1012AB8D1002915
:1028B000B6D1606816AA09F00EF90428B0D1A36851
:1028C000002B0DDB00221699A06802F07DFA00288B
:1028D000A6D1169802F065FA003818BF0120A0E7CB
:1028E000169816A902F085FA0028EBD0CAE701F085
:1028F0003FFE002095E7002504260DF11808402230
:102900002946404616AFCDE90255CDE904550CF0F5
:10291000D1FA4022294638460CF0CCFA019504F150
:10292000200353F8041D3246013E59B13346164682
:10293000042504F1300252F8040D2946013D30B15E
:102940000D4606E0002EECD14FF0FF33F0E7002DEE
:10295000F1D12B43012B02D96FF0800061E70423F2
:10296000002160680DEB030209F0B5F80428F3D1EB
:10297000022E1FD16669402E20D8334642460121DF
:10298000606809F0A8F88642E6D1CDE9028602A97E
:1029900095B1236A402BDFD8CDE9047304AE3246EB
:1029A000019802F04BF90546002E3FF463AFDDE9D4
:1029B00004235BE70021EBE72E46F0E76FF0890088
:1029C0002FE76FF085002CE708B502F0B0F900287A
:1029D00014BF6FF09200002008BD00004F190000E6
:1029E000BD11000079110000631900006719000093
:1029F00001000000020000000400000054462D50B9
:102A000053412D43727970746F20312E312E300076
:102A100001680E4A0346914215D1C169A2F1102204
:102A2000A2F1EF1291420ED18268012A0BD8C2683E
:102A300012B101698A4206D0586928B19B691B1AF4
:102A40005842584170470120704700BF55AA00FF07
:102A50000E4B70B59E68B6B13046FFF7D9FF0446FD
:102A600018B9F3687BB935690DB9204670BD2846A1
:102A7000FFF7CEFF28B9EB68B34204D12E462D698B
:102A8000F2E70446F1E70124EFE700BFBC52002063
:102A9000394A2DE9F0411468D4B19468C4B10028D2
:102AA00068D0002966D001FB00F5B5FBF0F0884244
:102AB00060D1281D5ED8A9070DD025F0030104318F
:102AC000D46803E06068884207D2A469002CF9D179
:102AD0002046BDE8F0812946F2E7D4F80880B8F135
:102AE000000F02D0012008F0B6FF401A232804F19D
:102AF0002006D4E9057C1BD80123A360AFB1C7F839
:102B000018C0A36903B15F610023C4E905331369E9
:102B1000DB0703D5FFF79CFF0028E3D12A460021FD
:102B2000304634460CF0C6F9D2E7C2F80CC0E8E7EC
:102B300001F1200E04EB0E032038C3E901082069DF
:102B4000DFF83880DC60186144F80E80DFF830E090
:102B5000C3F81CE000B1C360C3E9057C47B1BB61A9
:102B6000986900B1436101202361C4E90110CBE7FA
:102B7000D360F5E70024ABE7BC52002055AA00FF64
:102B8000669911EEF8B5054600285DD0394F3B68CF
:102B9000002B59D0BA68002A56D0834203D87A68ED
:102BA0001344984202D3012008F055FFA0F12004FD
:102BB0002046FFF72DFF0028F5D155F8183C012BD2
:102BC000F1D155F8146C45F8180CB6B1B368002B68
:102BD0003BD155F81C3C03F1200273681344736029
:102BE00055F8103C336103B1DE60204620220021FD
:102BF0000CF060F9234634461E462069002830D088
:102C00008368002B2DD163684268203313446360CE
:102C10000369D4E905212361CAB9F1B9426981691F
:102C20006261A161DAB19461A26902B1546103B138
:102C3000DC60202200210CF03DF93B699B0703D5A5
:102C4000FFF706FF0028AED1F8BD0646D5E7916133
:102C5000A1690029E2D04A61E0E7F960F8E7FC6089
:102C6000E2E7002EE9D1FB68A36103B15C61FC607F
:102C7000E3E700BFBC52002038B50D461422002106
:102C8000044612480CF016F91149124803F0DEFB15
:102C9000232D1AD914F003031FBF043DED18C3F10F
:102CA0000403E4182A46002120460CF003F9074BE0
:102CB000094AC3E900459C602260A2F11022203D30
:102CC000A2F1EF126560E261DC6038BDBC52002009
:102CD000852B0000912A000055AA00FF000000008B
:102CE00008B54FF4CC7200210D480CF0E3F84FF416
:102CF00080730B498B6108A3D3E90023C1E9042346
:102D00000123A1F8903181F82830BDE8084000F097
:102D1000CBBA00BFAFF3008000BD40DFE143E14E1E
:102D2000A810002000000000002230B54C4C89B0F3
:102D300002AD04904FF4C87301200021CDE9004595
:102D4000CDE906220394ADF8142008F0BDFC10B1C3
:102D500001238DF81430049B0022009302204FF4CD
:102D6000C8730021019508F0AFFC10B101238DF864
:102D700015304FF4807238A1D1E90001039BC3E9FB
:102D800004019A61049BC3E904019A61002006A929
:102D900000F02DFE002858D12946012000F027FE22
:102DA000002852D1022007A900F021FE00284CD1B2
:102DB000079A029B9A429DF8143018BF0790012B86
:102DC00003D0002003A900F063FD9DF81530012B0E
:102DD00003D0012003A900F05BFD039B049993F845
:102DE0002830012B1CBF01238DF8143091F82830B6
:102DF000012B1CBF01238DF8153040F20113BDF8E3
:102E000014209A4225D09DF81430012B07D14FF49D
:102E1000C8721348A4F8903108F020FE07E09DF82E
:102E20001530022B13D04FF48073A4F8903194F82E
:102E300091010021013008F097FC10B110F18C0FC6
:102E400003D1074800F0A6FB002009B030BD0123E4
:102E5000DDE76FF08300F8E700BD40DFE143E14EBE
:102E6000A81000206FF47A72F0B5474B8DB018604F
:102E7000036804461344042B08D8DFE803F0032753
:102E80004867770003698668082B02D06FF08005D9
:102E900059E08569042DF9D10021406808AA08F09D
:102EA0001AFE0828F2D12B460221606806AA08F013
:102EB00012FE0428EAD1069B304601936369009311
:102EC000DDE9082300F092FC05463CE00369082B8D
:102ED000DCD14569042DD9D10021406808AA08F049
:102EE000FAFD0828D2D12B460121606805AA08F016
:102EF000F2FD0428CAD106AB0293236A0193059B15
:102F00000093A068DDE9082300F087FCDCE7036993
:102F1000082BBBD1076A0C2FB8D10021406806AA44
:102F200008F0D9FD0828B1D1DDE9062308AE0096E6
:102F3000A06800F086FC054628B901463B463246AB
:102F4000606808F0D4FD28460DB0F0BD0369082B79
:102F50009CD10021406808AA08F0BDFD082895D141
:102F6000DDE90823A06800F07CFCADE7056A042DCC
:102F70008CD100F089FC2B4608900021606808AADB
:102F800008F0B5FD0025DEE74012002038B5074BFC
:102F900002461D680C460B466868012108F09BFD3F
:102FA000844214BF6FF08000002038BD4012002022
:102FB0000B46044910B40C6802460021606810BC3E
:102FC00008F095BD4012002038B5084D2B4600F0A2
:102FD000FFF9044618B9BDE8384000F08DBA002169
:102FE000286808F0C1FB204638BD00BF441200200D
:102FF00008B50448FFF798FE024B034A383B53607C
:1030000008BD00BF98080020441200202DE9F347B6
:103010001F460023DFF864A001935346814688468B
:10302000164600F02BFA044608BB154DDAF80000EE
:10303000294601AAC5E90498AE6100F06FFC044678
:1030400078B9AE6ABE4216D30A9BF61B9E4228BFD1
:103050001E4605F1380031463844FFF7A9FF0B9BA7
:103060001E6040F64802002105480BF023FF204671
:1030700002B0BDE8F0876FF08604F2E7441200204A
:10308000600800202DE9F04F002585B0DDF838A05C
:103090000746BAF5006F0E4690469B46039571D8D9
:1030A000DFF8E8904B4600F0E9F9044600283AD1F1
:1030B000374DD9F80000294603AAC5E90476C5F8BA
:1030C000188000F02BFC044638BB2B6BDB074ED47A
:1030D000C5E90BAB4FF0010B5B46D9F800505146E8
:1030E0002C480193FFF752FF044698B9019B2749EA
:1030F000184600F041F9044660B9254BD9F80000A4
:103100001946C3F828A000F040FC0446F0B10DB108
:10311000C9F80050BBF1000F1FD042463846314677
:10312000FFF752FF19E010F18C0F1CD1184C40F63C
:103130004802294620460BF0BDFEC4E90BAB022332
:10314000AB46C4E90476C4F81880C8E7424638465E
:103150003146FFF739FF044660B140F648020021CE
:103160000B480BF0A7FE204605B0BDE8F08F6FF0CE
:103170008404D2E7002DF0D02146284608F0F4FA66
:103180000446EAE76FF08604EDE700BF4412002032
:1031900060080020980800202DE9F3471E46002310
:1031A000DFF84CA00193534681468846174600F04D
:1031B00065F90446B8B90F4DDAF80000294601AAAE
:1031C000C5E90498AF6100F0A9FB044628B9AB6AD1
:1031D0007360EB6A33602B6BB36040F648020021EA
:1031E00004480BF067FE204602B0BDE8F08700BF40
:1031F000441200206008002000232DE9F7431B4FF4
:1032000001933B4680460E46914600F037F904464E
:1032100020BB174D3868294601AAC5E90486C5F8C0
:10322000189000F07BFB044690B92B6BDB0719D498
:103230004A464046314600F037F9044640B900F0AE
:103240005BF9044620B92146386808F08DFA044637
:1032500040F64802002106480BF02CFE204603B041
:10326000BDE8F0836FF08404F2E700BF4412002051
:1032700060080020F0B500250A4CD4E910768E4293
:1032800008BF874205D1A66C964202D100201D607E
:10329000F0BD01350B2D04F12004EED16FF08B0051
:1032A000F6E700BFA81000200020F0B5DFB00290C4
:1032B00000F0A9FB02AD0246C0BB294600F097FB17
:1032C000024698BB2B4E029F304600F06BF9024637
:1032D00060BB03AC4FF4B47206F128012046C4F879
:1032E000687108F0BBFB4FF4B6722146304600F01F
:1032F00009FA0246D0B996F891714FF4C87200905D
:1033000033460021781C08F0C1F9024670B996F8DE
:103310009031206021460120029D86F8913186F887
:10332000907100F064FB68B16FF0830210465FB0EB
:10333000F0BD012000F067FB02460028F6D12368AB
:103340000133236023689D42F3D82146022000F018
:103350004EFB0028E8D123689D4201D80022E5E712
:10336000022000F050FB02460028DFD12368013321
:103370002360F0E7A810002070B50D4610B30023BD
:103380001C46124AD2E91016314308BF234604F105
:10339000010408BF00F1FF300B2C0ED020320028B2
:1033A000F0D1DC1C2046002108F0DEF910B110F14C
:1033B0008C0F01D100202C6070BD0028F1D06FF07F
:1033C0008D00F9E76FF08600F6E700BFA810002037
:1033D0002DE9F0471E4600238146884617468AB0ED
:1033E000244D02AC01930FCD0FC495E80F0084E883
:1033F0000F003A464846414601ABFFF73BFF1E4DE2
:10340000824668B9019C202205EB441430342146E1
:1034100002A808F023FB2022514620460BF04AFD6B
:1034200033687168DC1E05EB431343E9089805EB2C
:1034300044131C463034102220469F6408F00EFBD3
:10344000FFF732FF064688B1DDE90632134308D0A4
:10345000019B202205EB431502A905F1300008F07D
:10346000FDFA2022002120460BF024FD30460AB050
:10347000BDE8F087183A0000A810002037B51D46B7
:1034800001ABFFF7F7FE044648B9019B0549DA1C7A
:103490002A606868102201EB431108F0DFFA204629
:1034A00003B030BDD8100020002330B58BB001939D
:1034B00001ABFFF7DFFE0446C8B9019B0D4D20228A
:1034C00005EB4315294602A808F0C8FA2146202238
:1034D00028460BF0EFFCFFF7E7FE044620B1202260
:1034E000284602A908F0BAFA20460BB030BD6FF0AA
:1034F0008B04F9E7D8100020034B002193F89101C9
:10350000013008F031B900BFA810002030B589B0F3
:1035100004460D461822002102A80BF0CBFC002324
:103520004FF440710093194B6846CDE903134FF4F3
:103530001053ADF8043080234FF00821ADF8063069
:1035400008F030F800BB40F201116846104A07F05D
:10355000E3FFA0B90C232A4640F20121684608F097
:1035600045F860B92246694601A808F067F830B905
:10357000684607F0F5FF38B1206807F013FF68468A
:1035800007F0EEFF6FF0830009B030BD0002500578
:1035900002C0FF7F00F11C010C22014808F05EBA56
:1035A0004C1200201FB50822184904460DEB0200FA
:1035B00008F054FA042216490DEB020008F04EFA06
:1035C000029B039A013342F10002CDE90232134318
:1035D00014D008220D480DEB020108F03FFA042236
:1035E0000B480DEB020108F039FA0C22074904F1EF
:1035F0001C0008F033FA002004B010BD019B013319
:103600000193002BE5D16FF08300F5E74C12002009
:10361000541200202DE9F043994600238DB00E4648
:1036200009A904469046159F179D089300F05CF980
:1036300009A908A8FFF76AFF18BB169BCDE9006827
:10364000CDE90473149B1049CDE9029308980C232B
:10365000069504F11C0207F0C3FE28B1089807F094
:10366000A1FE6FF083000CE0296810221039296058
:103670002046394408F0F2F9089807F093FE002834
:10368000EFD10DB0BDE8F083000250052DE9F04107
:1036900004461D4600238CB0129E0F4609A9904691
:1036A000089300F021F921461022A81908F0D6F954
:1036B00009A908A8FFF72AFFC0B9159B1036069381
:1036C000149BCDE902560593139BCDE90078049332
:1036D0000B490C23089804F11C0207F0CFFE0346A7
:1036E000089833B107F05EFE6FF094000CB0BDE8AF
:1036F000F08107F057FE002818BF6FF08300F5E750
:1037000000025005002370B58EB00D460BA904468B
:1037100016460A9300F0E8F80BA90AA8FFF7F6FE90
:10372000F0B909AB06931023CDE90200CDE90443BB
:10373000CDE900560C230B490A9804F11C0207F04E
:103740004FFE03460A9813B9099B102B04D007F0CB
:1037500029FE6FF0830003E007F024FE0028F8D173
:103760000EB070BD00025005002370B58EB00D463E
:103770000BA9044616460A9300F0B6F80BA90AA84E
:10378000FFF7C4FEC0B909ABCDE9050310230490CF
:10379000CDE9024304F11C020C23CDE900560B498C
:1037A0000A9807F06BFE0346DDE90920134305D0B4
:1037B00007F0F8FD6FF094000EB070BD07F0F2FD59
:1037C000002818BF6FF08300F6E700BF0002500525
:1037D00000F000B808B5FFF70BFC30B100F056F868
:1037E00018B9BDE80840FFF703BC08BD30B419465E
:1037F00004461046DDE9022350EA010506D0072BF6
:1038000008D80292224630BCFFF73CBC6FF086001D
:1038100030BC70476FF08500FAE770B41946044673
:103820001046DDE9033250EA0106059D05D0CDE9D9
:103830000325224670BCFFF7E9BB6FF0860070BC21
:103840007047194610B40446104650EA0102019B25
:1038500003D0224610BCFFF79FBC6FF0860010BC5F
:103860007047194652EA010310B50446104608D0C5
:103870002246FFF7C1FC10F1950F08BF6FF08300DF
:1038800010BD6FF08600FBE700207047FFF728BAF5
:10389000F0B551F82070DDB0CB6801AD4FF4B472D3
:1038A00006460C46284607F128015B9308F0D6F837
:1038B0004FF4B67229463846FFF756FF80B12369A8
:1038C00083B14FF4B672294638465B93FFF74CFF3D
:1038D00000280CBF03230123344423725DB0F0BDE4
:1038E0000223F9E70123F7E71FB5D0E904230C46CB
:1038F000CDE90223042283690DEB020120460193E6
:1039000008F0ACF80822201D0DEB020108F0A6F823
:1039100004B010BD0F30000901307047F0B51546F6
:10392000002289B005AB019301F11C030F460093FF
:10393000114640F61C03064607F0C6FE00BB059C78
:103940000B2C1FD90C3CB4F5016F1BD820460696F2
:10395000FFF7E0FF07AB286003934FF4026307F122
:103960002806CDE90163042233463846009406A9AF
:10397000FFF78CFE10B9079B9C4201D06FF08300CB
:1039800009B0F0BD6FF09700FAE72DE9F04186B07D
:103990000490064608460D468F6AFFF703FE04466C
:1039A000B0B905AA03924FF4026207F1100805F1BD
:1039B0002803CDE9013228460422CDF8008004A96D
:1039C000FFF728FE10B9059B984505D06FF08304DA
:1039D000204606B0BDE8F08121460094304605F14E
:1039E0001C0307F11C0207F051FE0446F0E70A46EB
:1039F00008B511B96FF0830008BD042107F0E2FE9D
:103A00000028F9D0F6E708B507F0C4FE002814BF77
:103A10006FF08300002008BD0000000000000000DF
:103A20000000000000000000000000000000000096
:103A30000000000000000000000000000000000086
:103A400018060100E05200200B000000E005010014
:103A5000601200200E000000E00501006008002058
:103A6000000000000C530020E8090000981200201C
:103A700012100000600800208002000008B502F06B
:103A8000EBF800000000000008B572B60C4A0D4BC0
:103A90009A600D4B83F309880C4B83F30A8883F3F8
:103AA0000B880B4B04A1D1E90001C3E9000100F030
:103AB000E9F802F06FFC00BFA5EDF5FEA5EDF5FEFF
:103AC0000000000000ED00E0580800206000002029
:103AD00058080020EFF30880EFF309812DE9F00F7B
:103AE0006B46724600F074F908B0FFF7C7FFFEE7B7
:103AF00008B5FFF7EFFF08B5FFF7ECFF08B5FFF7D4
:103B0000E9FF08B5FFF7E6FF08B5FFF7E3FF08B5E3
:103B1000FFF7E0FF08B5FFF7DDFF08B5FFF7DAFFB5
:103B200008B5FFF7D7FF08B5FFF7D4FF08B5FFF7D3
:103B3000D1FF08B5FFF7CEFF08B5FFF7CBFF08B5FB
:103B4000FFF7C8FF08B5FFF7C5FF08B5FFF7C2FFCD
:103B500008B5FFF7BFFF08B5FFF7BCFF08B5FFF7D3
:103B6000B9FF08B5FFF7B6FF08B5FFF7B3FF08B513
:103B7000FFF7B0FF08B5FFF7ADFF08B5FFF7AAFFE5
:103B800008B5FFF7A7FF08B5FFF7A4FF08B5FFF7D3
:103B9000A1FF08B5FFF79EFF08B5FFF79BFF08B52B
:103BA000FFF798FF08B5FFF795FF08B5FFF792FFFD
:103BB00008B5FFF78FFF08B5FFF78CFF08B5FFF7D3
:103BC00089FF08B5FFF786FF08B5FFF783FF08B543
:103BD000FFF780FF08B5FFF77DFF08B5FFF77AFF15
:103BE00008B5FFF777FF08B5FFF774FF08B5FFF7D3
:103BF00071FF08B5FFF76EFF08B5FFF76BFF08B55B
:103C0000FFF768FF08B5FFF765FF08B5FFF762FF2C
:103C100008B5FFF75FFF08B5FFF75CFF08B5FFF7D2
:103C200059FF08B5FFF756FF08B5FFF753FF00002F
:103C3000064BD3F840231C2A05D1D3F84403431E76
:103C40005842584170470020704700BF00C0FF0035
:103C500003689A070CD50368DB070DD50922074BCB
:103C6000C3F80C250F22C3F8042501221A60FEE7D1
:103C7000034B0360EF3B0360704700BF00801050B0
:103C8000F000FA5008B50123424A4348C2F8003810
:103C9000424AD2F840231C2A04BF414AC2F80C34DD
:103CA000FFF7D6FF0830FFF7D3FF0830FFF7D0FF4C
:103CB0000830FFF7CDFF00F5F470FFF7C9FF394A70
:103CC000D2F88C3043F44063C2F88C300022D30029
:103CD00003F57F0303F54043D3F8001401310AD004
:103CE000D3F8001439B1D3F800140132D3F80434F6
:103CF000402A0B60EBD1274BD3F84024002A44D054
:103D0000FFF796FF48B1254BD3F83423264B9A4250
:103D10009EBF204B254AC3F84026FFF789FF18B104
:103D2000234B244AC3F8AC27FFF782FF48B1342263
:103D3000184BC3F82426D3F83C2622F40022C3F8FB
:103D40003C261D4B1749D3F80026D20744BF6FF01D
:103D50000102C3F80026194BD3F8182522F00302FC
:103D6000C3F81825D3F8182542F00302C3F8182524
:103D7000D1F88C2042F44062C1F88C200022104916
:103D8000C1F8D426C3F8A02508BDC822C3F8402432
:103D9000B6E700BF0000125000C50D5000C0FF0084
:103DA0000030055000ED00E0001D0A1840E0A91E9B
:103DB00000A0085078000A0400E0105000B0045041
:103DC00000600D507C22014907F048BE207200209F
:103DD00038B51D46234B244C5B68C3F308032360AE
:103DE000EFF3038363655306C4E90120E1602DD539
:103DF00002F00C020C2A08BF08460146206120226E
:103E00001A4807F02BFE25B120222946184807F052
:103E100025FE144B9A6AA265D96AE165986B206603
:103E200002F400406066586BA06602F08000E06615
:103E30009A62D962D3F8E4202267D3F8E810616768
:103E400002F04001A167C3F8E42038BDEFF394838A
:103E5000990704D5130702D5EFF38980CDE7EFF377
:103E60008880CAE700ED00E0207200203472002054
:103E70005472002000487047C46100001FB50D4A0D
:103E800001AB10685168128903C300211A80012315
:103E900001A88DF804308DF80810ADF8061000F078
:103EA000BBF818B110F1780F08BF002005B05DF81D
:103EB00004FB00BFDC610000F8B58507144618D18B
:103EC0000D4DA84215D82D1AB5EB820F11D30B4E0C
:103ED000D6F80075D6F8005507F00107C6F800754A
:103EE00000F072F8204605F47C553D43C6F80055B5
:103EF000F8BD6FF00400FBE700D0170000B00450DD
:103F000038B50346094D0846AB4214460AD8ED1AA7
:103F1000B5EB840F4FEA820204D3194607F09EFDE9
:103F2000204638BD6FF00400FBE700BF00D017004B
:103F300070B50478437841880679C288057A44EAE6
:103F40000324184B41EAC67142EA0542C3F8004512
:103F5000C3F80C15C3F81025D3F80424D207FBD5F9
:103F6000114A1268E2B10021427AC3F80C11D3F869
:103F70000C01C3F80411D3F80401C3F80811D3F8F5
:103F80000801C3F80011D3F8001152010749D2B259
:103F900081F84B234FF400628A600F22C3F8042398
:103FA00070BD00BF00B004500C7A002000E100E0BA
:103FB000044B40EA0120C3F80005D3F80024D207DF
:103FC000FBD5704700B004502DE9F04104460D4682
:103FD0001646DFF840800120D8F80075D8F80015A3
:103FE00007F00107C1F30521FFF7E2FF04EB8606A6
:103FF0002B1FA64204D13846BDE8F041FFF7D8BFD9
:1040000053F8042FD8F80404C007FBD544F8042B58
:10401000EFE700BF00B0045038B5064D2C7934B935
:104020002960FFF785FF012320462B7138BD6FF013
:104030007700FBE70C7A0020003A18BF0122003914
:1040400018BF012103688900074841EA420118634B
:1040500059605A6842F001025A60BFF34F8FBFF3B4
:104060006F8F0020704700BF04AAFF000123084A99
:10407000C2F8043302F58022C2F8043302F580222C
:10408000C2F8043302F58022C2F80433704700BF3F
:10409000000004500D4BD3F8000103F58023D3F842
:1040A000003183B9003818BF01208000084BD3F8D5
:1040B0000031002B074B18BF0420D3F80031002B30
:1040C00018BF042070470420F0E700BF0000045030
:1040D00000000C50000010500122024BC3F80423D2
:1040E000704700BF00100450034BD3F800010038A4
:1040F00018BF0120C0007047001004500022034B7D
:10410000C3F80021D3F80031704700BF00100450FD
:1041100000230A4AC2F80031D2F80021084AC2F846
:104120000031D2F80021074AC2F80031D2F800214C
:10413000054AC2F80031D2F800317047000004503F
:104140000000085000000C500000105000221046E3
:1041500030B50749074C51F8043BD3F800511DB165
:10416000D3F80404234018430132042AF3D130BDAC
:10417000E86100000000FFFF10B5FFF78BFF0B4C5C
:104180004207206002D5FFF7E1FF6060FFF7ACFF58
:10419000236818430307206006D5054BD3F8002495
:1041A0006260D3F80434A36010BD00BF147A00200D
:1041B000001004500C22014907F050BC147A002072
:1041C00000220D4BC3F80021D3F80011C3F80421DD
:1041D000D3F80411C3F80821D3F80811C3F80C214F
:1041E000D3F80C11C3F81021D3F81011C3F814211F
:1041F000D3F81431704700BF00500450054B064AF5
:104200001B680A20B3FBF2F35843044B43F001034D
:10421000184700BFE052002040420F00006200003B
:1042200070B54FF4FA7500F15024144E04F5802453
:1042300023682BB1236893B1FFF7C2FF00200DE084
:10424000D6F80831002BF5D1D6F80C31002BF1D17E
:10425000FFF7D4FF013DEBD16FF0730070BD074B4A
:10426000D3F8083123B1FFF7ABFF6FF00C00F5E78F
:10427000FFF7A6FF6FF00D00F0E700BF00500450FD
:104280002DE9F04105460E464FF4FA77104CD4F86C
:104290000084B8F1000F07D0FFF7B0FF013FF6D15F
:1042A0006FF00A00BDE8F0810123C4F800554FF417
:1042B0008870E360FFF7B4FF10F1740FF2D010F1D3
:1042C0000E0F14BF0020012030704046EAE700BF07
:1042D00000500450F8B506460D464FF4FA770B4CE3
:1042E000D4F8003433B1FFF789FF013FF8D16FF004
:1042F0000A00F8BD0123C4F804654FF48070C4F8C7
:1043000000552360BDE8F840FFF78ABF0050045015
:104310002DE9F04104464FF001080F4E4518A54223
:1043200001D800200AE04FF4FA77D6F800343BB108
:10433000FFF764FF013FF8D16FF00A00BDE8F0819C
:10434000C6F800454FF48270C6F80480FFF768FF96
:104350000028F3D10134E2E7005004502DE9F04188
:1043600004464FF001080F4E4518A54201D8002021
:104370000AE04FF4FA77D6F800343BB1FFF73EFF7E
:10438000013FF8D16FF00A00BDE8F081C6F80045A2
:104390004FF48470C6F80880FFF742FF0028F3D17D
:1043A0000134E2E700500450F8B505460E464FF4DC
:1043B000FA770C4CD4F8003433B1FFF71FFF013FFC
:1043C000F8D16FF00A00F8BD0123C4F800554FF48E
:1043D0008870E360FFF724FF0028F4D1D4F8083593
:1043E0003360F0E7005004502DE9F84316460446C8
:1043F0004FF00109124F4518A5421DD94FF4FA7824
:10440000D7F800343BB1FFF7F9FEB8F10108F7D156
:104410000120BDE8F883C7F800454FF48870C7F85D
:104420000C90FFF7FDFE10F1740FF1D00D300CBFB2
:1044300001230023337001D00020EAE70134DBE7D9
:104440000050045010B501F031FE044668B907F081
:10445000D5F960B1094AD36823F008031B041B0C8B
:1044600043F0BF6343F40033D360204610BD07F030
:104470000FFA0028EED045F22354F6E700ED00E0F5
:10448000024B1860024B002019607047247A00200C
:10449000207A00201FB5274C426923685A6282693E
:1044A0009A62C269DA62026A1A63426A5A63826A6B
:1044B0009A63C26ADA63026B1A64426B5A60826B57
:1044C0009A60C26BDA60026C1A61426C5A61826C4B
:1044D0009A61C26CDA61026D1A62826D5A65C26DB0
:1044E0009A65026FDA65026E1A66826E5A66426FCC
:1044F0009A66EFF388825A64EFF389829A6442687D
:10450000DA64EFF394821A65026801A81A67FFF76C
:1045100051FE2368019ADA6601221A70064B1C6864
:104520006408640020462146224623460AF040FDE6
:1045300004B010BD247A0020207A002000B5A1B07C
:1045400001A8FFF73FFC029B63B15B060AD4019B05
:1045500023F00203052B05D1044B1B6813B101A8FE
:10456000FFF798FF21B05DF804FB00BF207A002020
:10457000BFF34F8F0549064BCA6802F4E06213434C
:10458000CB60BFF34F8F00BFFDE700BF00ED00E041
:104590000400FA05254B264A4FF47A611A6001227D
:1045A000244B2548C3F80424D0F82436C3F308026A
:1045B000C3F309434B4382F480722049883201FBE4
:1045C00002334FF4FA215B00B3FBF1F201FB12332B
:1045D0001B49B3F57A3F28BF0132C1F80429D0F84E
:1045E00020364FF47A60C3F30802C3F30943434310
:1045F00042F21C5082F4807202F2172200FB023356
:104600004FF47A701B0AB3FBF0F200FB1233002068
:10461000B3F5FA7F4FF0010328BF0132C1F81C2720
:10462000C1F80009C1F80036704700BFE052002011
:104630000020A107002008E000C0FF00F82A008049
:104640000000125070B50446074E4518A54201D827
:10465000002070BD2046F369984710B904F58054D6
:10466000F4E743F65C20F4E7986100002DE9F84F89
:10467000DFF85CA00746DAF804308846154698470C
:104680000024144BC0F3410013F8209004F1800380
:10469000AB4294BF80262E1BB6FBF9FBDAF8143030
:1046A0005A460D493819984700280EDB5A46DAF861
:1046B0001830094908EB04009847002805DB34440A
:1046C000A542E3D80020BDE8F88F43F65C20FAE766
:1046D00098610000086200002C7A00202DE9F34761
:1046E000DFF870900546D9F804308846144698479C
:1046F000194BC0F3410013F820A0B5FBFAF70AFBF1
:10470000175727BBA4B9384602B0BDE8F0870AFBAB
:1047100006F6A41BF7D0012201A9A819C847002852
:1047200012DB224601A908EB060007F097F9EAE739
:10473000B4FBFAF605F50825324641462846D9F875
:104740001490C8470028E2DA43F65C27DBE74AF218
:10475000C537D8E798610000086200002DE9F04FE6
:1047600086187542C5F30B05354485B0B5F5805FF5
:104770000446019104D943F65C2005B0BDE8F08FF2
:10478000DFF86C81D8F8043098470422594BC0F305
:10479000410053F82070D8F8143057480093FBB20A
:1047A000B2FBF3F203A9009B9847039A531C023211
:1047B00008BF01230393002D34D024F47F6B2BF02A
:1047C0000F0BA5EB0B010BF50820FFF73BFF0028B3
:1047D000D1D1B5F5BE7FAA4628BF4FF4BE7ADA45DF
:1047E00029D8B5F5BE7F5ED3FBB20427B7FBF3F73C
:1047F000424D3A4629464048009B9847B6F5BE7F51
:104800005CD8042203A93D4807F028F9384B3A4602
:104810003A493B489B69984708B18742ABD100F0C1
:10482000F2FAAAE74FF480514FF40820FFF70AFF8D
:104830000028C2D09FE70BF180039A452CBF4FF0B0
:104840008009AAEB0B095FFA87F8B9FBF8F82B4946
:104850004246009B0BF5092098475E4516D909EBA7
:104860000B039C4212D2A3455A4638BF2246111B65
:10487000A2EB0B009E4294BFC2EB0602C2EB030206
:10488000019B19441D4B184407F0E8F8184B4246A9
:104890009B691A490BF50820984710B180457FF4B1
:1048A0006AAFCB449BE74FF4BE724FF408214FF43C
:1048B0000920FFF7DBFE002896D05CE7B4F5C07F47
:1048C0009FD2B4F5BE7F224638BF4FF4BE72019B23
:1048D000111BA2F5BE700B44B6F5C07F94BFC2EBAE
:1048E0000602C2F5C0721946284407F0B7F888E7F7
:1048F00098610000086200007C9108002C7A00207A
:104900007C8108002DE9F0414D4F86B00020BB6846
:10491000984700286BD104226946FFF7DFFE044662
:1049200000283FD104224FF4BE700DEB0201FFF7C7
:10493000D5FE0446002835D1424E009BB34203D138
:10494000019B013B03335ED97B6898473E4BC0F324
:10495000410053F8205004224FF4805004A9FFF77F
:10496000BDFE0446F0B9042241F27C1005A9FFF710
:10497000B5FE0446B0B9049B4FF48051B3424FF4E6
:10498000082013D1059B013B03330FD8FFF75AFED4
:1049900068BB4FF480524FF408214FF40920FFF711
:1049A00065FE20BB204606B0BDE8F081FFF74AFE59
:1049B0000146E0B94FF08008EDB2802223480AF0AA
:1049C00079FAB8FBF5F84FF40825BF692846424646
:1049D0001E498035B847B5F5092FF7D100F013FA15
:1049E00028B9042202A90296FFF7B8FE10B143F6D7
:1049F0005C24D7E70123042203A94FF4BE7003937C
:104A0000FFF7ACFECDE7042241F27C1005A9FFF7C9
:104A100065FE04460028C5D1059B5A1E033206D800
:104A2000019A934203D30233BCD1012ABAD100F0D8
:104A3000EAF943F65C23002818BF1C46B2E700BF22
:104A4000986100001281DEC0086200002C7A00200C
:104A500038B543680C2B01D0022038BD4B68042BBD
:104A6000FAD14FF0FF3304680D6821682B600029EC
:104A7000F2D0A268002AEFD00623012001F0D2FA7A
:104A80000028E9D161680B4B99420AD9A268053325
:104A90008818984208D8206806F0E0FF00202860B7
:104AA000DBE7054B9942D7D9A268044B8818984296
:104AB000D2D8F0E7030508E0FFD4FF0000DAFF00DA
:104AC000436810B50C2B14D14B68042B11D10B6823
:104AD00001210268196010680B49884209D102213E
:104AE00094681960032C04D1516811F0020002D0BF
:104AF0001C60022007E0054CD4F8182561F3010280
:104B0000C4F81825186010BD18B5045000B0045042
:104B10000420704700207047002070474B6830B574
:104B200013F01F052DD102680C681068C0F3072030
:104B3000844226D25068556094600C7C23F01F0399
:104B400004F001041C438B7CDB0003F018031C43BE
:104B50004B7C5B0003F006032343D3608B68013B6F
:104B600023F01F04CB685B0003F00E03234343F0E4
:104B7000010313615060BFF34F8FBFF36F8F28465F
:104B800030BD0120FCE7036800205A68C9B25860B4
:104B90009960D86018615A60704770B50546002466
:104BA00003681E68C6F30726B44201D1002070BD19
:104BB00021462846FFF7E7FF0134F5E700F47C03C0
:104BC00043F0A0431A0BC2EB1030C0B203EB8003DA
:104BD000D3F8002542F01002C3F80025D3F80025D1
:104BE00042F02002C3F8002529B1D3F8002542F491
:104BF0008072C3F80025704770B515460446461804
:104C0000A64206D929462046FFF73AFB10B92B7871
:104C10000BB9002070BD0134F2E708B5FFF78EFC38
:104C200072B620BFFDE7034610B100201870704730
:104C30004AF2C53070470020704770470346012B89
:104C4000084670B5114607D0062B09D0002B31D18C
:104C5000BDE87040FFF7FCBEBDE87040FFF730BF15
:104C60004368082B01D0022070BD5468042CFAD18F
:104C70004FF0FF3305681668296833600029F2D0C9
:104C80006B68002BEFD026237422012001F0CAF9B3
:104C90000028E8D1224623230120696801F0C2F9E7
:104CA00004460028DFD1D5E90001FFF7E9FB3060B9
:104CB0002046D9E70320D7E748B14FF400224FF44C
:104CC0008043C0E9002301230372002070474CF2A7
:104CD000DA20704748B14FF404224FF48043C0E912
:104CE000002301230372002070474CF2DA20704742
:104CF00037B504225C3084000D4620460DEB0201DE
:104D0000FFF7ECFC58B9019B5A1C0AD0AB420BD8F8
:104D1000042220460DEB02010195FFF71FFD03B0B1
:104D200030BD45F2A350FAE74AF2C530F7E7FFF786
:104D3000E9BD0B46042B114611D1012807D00228EA
:104D400009D078B91A464FF4B870FFF7C7BC1A46B5
:104D50004FF4BA70F9E71A464FF4BC70F5E743F622
:104D60005C2070474CF25A307047012837B5044632
:104D70000D4602D0022800D080B9FFF7B9FF58B91C
:104D80000421204601AAFFF7D4FF28B943F65C238B
:104D9000019AAA4218BF184603B030BD4CF25A30EF
:104DA000FAE713B5042101AA0446FFF7C2FF30B9A0
:104DB00001994B1C05D020460131FFF7D6FF02B008
:104DC00010BD45F2A350FAE7022905D90839022996
:104DD00009D94CF25A307047B0F5807F4CF25A3006
:104DE00008BF0020704700284CF25A30B8BF00209E
:104DF0007047022804D819B10830086000207047B5
:104E00004AF2C530704708B54FF480514FF409207D
:104E1000FFF718FC48B9BDE808404FF480524FF442
:104E200009214FF40820FFF721BC43F65C2008BDA0
:104E3000FFF768BD07B5164B83F30A88154801F0E4
:104E400020F908B100F008FFFFF7FCFA0028F9D1BB
:104E5000FFF7EEFF0028F5D10DF10700FFF7E3FEA5
:104E60000028EFD19DF807301BB1FFF7E4FE0028C2
:104E7000E8D1FFF7E2FE01F0AEF800F09BFE00F093
:104E8000D7FB00F0ADF8002003B05DF804FB00BFD5
:104E9000600000209C72002030B5094C0246616819
:104EA0000023084640B105686D68954205D11BB1E5
:104EB000826860609A60816030BD03468068F1E777
:104EC0002073002010B542B10B689B6813F4807FFB
:104ED0000CBF6FF0FC00002010BD0B4B1B680BB922
:104EE00000F0BAFE1B68996938338A4203D053F840
:104EF000044FA04205D191420CBF6FF0FC0000208E
:104F0000EAE70132F1E700BF2873002070B50446DC
:104F10000E461546002130220C3009F0CBFF074B1E
:104F200020461B68A6606360656101F038F80023C5
:104F300020612360C4F8803070BD00BF287300205A
:104F4000034B186810B1006800B14068704700BF9B
:104F50002873002008B5064B1B680BB900F07CFED7
:104F60001B68986800F44060003818BF012008BD35
:104F7000287300202DE9F041074690460C4639B3CE
:104F80004B0025D5154B01F01F0253F82250FDB1FF
:104F90002B685E68FFF7DEFF294602463046FFF7C2
:104FA00091FF90B9C4F30721284600F058FE04464B
:104FB00070B901F001F8064668B142462946FFF78C
:104FC000A5FF3E602046BDE8F0816FF08104F9E75F
:104FD0006FF08004F6E76FF08204F3E7A072002020
:104FE00038B500F0E8FF0023114A5360114A5360BE
:104FF00000F0DEFA0E4800F021F80446A0B10D4999
:1050000080230D4A00F098F80546204600F05BFE2C
:105010002068211D00F0E0FF08B100F01DFE2946C8
:10502000204600F071FAE5E7BDE8384000F082BAAA
:105030002C73002020730020A07200200146F8B5D8
:1050400008B900F009FE374C236813F1350F67D813
:10505000354A156803F13402AA4261D2DA699869C7
:1050600002EB82020F300244186A00EB4000024457
:10507000586A02EBC00292009A18E2D29542E0D33D
:1050800018682A4D060C3604AE42DAD180B2B0F56B
:10509000817FD6D258680028D3DBD3E90A56B542BF
:1050A000CFDC986810F4406F03D03542C9D548680A
:1050B00088B91F4E306800F1200535601D4E3668F6
:1050C000B542BED8A842BCD822604C6803608CB9F7
:1050D000C4614860F8BD0768D7F808C01CF4406F89
:1050E00006D0D7F828C0664502DBFF6ABD42A8DDBE
:1050F000C069DDE71E8E002223461D682D8EB54255
:1051000007D9002AE4D0D369C361D061E2E72B4616
:10511000F3E7DD691A46002DF9D1C561D861D9E7F9
:105120000020D7E7EC5200201C62000000005F5F07
:10513000E8520020186200002DE9F84F9B4600B1AC
:1051400009B900F089FD0468204EA569E76904F1FA
:105150003C0C0CEB850C3568A7B10C2404FB075400
:1051600034601B4E3668B442EBD8A542E9D800261D
:105170002C464FF01408B146B74200D025B90020A4
:10518000BDE8F88F3D46F2E708FB06CEC4E900E033
:10519000DEF808E0C4F808901EF4007F0FD0002A63
:1051A000CFD0BBF1800FCCD11EF0E00F5FFA8EFAAA
:1051B000C7D152F82A30002BC3D142F82A404B689D
:1051C0000136A3604C600C34D6E700BFE4520020E7
:1051D000146200002DE9F04F93B000935F4B074637
:1051E000D3F800B00BB2002B0D461646C1F302688F
:1051F000C1F3024A04DA6FF0800013B0BDE8F08F0B
:105200008B42C36001D10020F7E708EB0A03042BAF
:10521000F1D8CC0F64014FEAC80931464A46DBF8A1
:10522000040044F0020300F0FDFE01460028E2D134
:10523000202202A809F03EFE4A46314602A84FEA63
:10524000CA0606F00BFC32460099DBF8040044F075
:10525000060300F0E7FE81460028CCD1014620225B
:105260000AA809F027FE324600990AA802AE06F005
:10527000F5FB334609F10109C8452AD815F0006F3E
:1052800018BF20241022002107F11C0009F012FE93
:1052900007F118091022002107F12C0009F00AFE7D
:1052A00009EB880844F00203C1452AD1202C3FD1E4
:1052B000002D02DBC5F3C0456C0107F128050AAEDD
:1052C00005EB8A0A44F00604554533D1009BFB6781
:1052D00099E7D3E900E21EEB020201928BD21A4653
:1052E0004846404501D10833C4E7D2E902C16144D0
:1052F0008E4503D201998C45FFF47DAF0130083211
:10530000EFE77268DBF8040056F8081B019300F021
:1053100089FE00287FF46FAF56F8042C019B49F8F2
:10532000042F56F8082CC9F83000C9F82020BBE734
:105330000024C2E77268234656F8081BDBF8040015
:1053400000F070FE00287FF456AF56F8043C45F894
:10535000043F56F8083C28642B63B5E72873002007
:105360002DE9F0411F461D4B0C461646D3F8008030
:1053700000F087FC08B900F06FFCC368002BFADB73
:10538000032CF8D8D0F88020A10022FA01F39B0763
:10539000F1D104238B401343C0F880304418E569F1
:1053A000E36CED1AE7D3ADB106233A463146D8F89F
:1053B000040000F037FE0028DDD1BD4228BF3D4685
:1053C000E36CE16B2A461944304606F047FBE36C78
:1053D0002B44E3642846BDE8F08100BF2873002019
:1053E0002DE9F0411E461E4B0C461746D3F80080AF
:1053F00000F047FC08B900F02FFCC368002BFADB73
:10540000032CF8D800EB8405EA6EEB6A9A42F2D8D6
:105410009B1AB342EFD3D0F880200434A40022FAC0
:1054200004F39B07E7D10423A3401343C0F8803063
:10543000324602233946D8F8040000F0F3FD044652
:105440000028D8D1EB6EE86D32463946184406F094
:1054500005FBEB6E20463344EB66BDE8F08100BFF0
:10546000287300202DE9F04105464FF001080E4E4B
:105470000E4B37685C681CB928463760BDE8F08180
:105480002268936813F400700CD16369012B09D072
:10549000D368346023B19847002801DA00F0DCFBC0
:1054A000C4F81480E469E6E7287300202C73002018
:1054B00070B50446D0B18368C3B11A68B2B15D68F3
:1054C000A5B10C4BA86168691D6020B92B68DB6829
:1054D0004BB901236B61A36804F10C001B68BDE8A4
:1054E00070401B69184798470028F2DA6FF0800077
:1054F00070BD00BF287300204268024B08461A6046
:10550000704700BF287300200022036810B5C0E96F
:1055100005229A68044612F4406F07D0120503D59D
:10552000D3E90A0100F034F8014B1C6010BD00BF44
:105530002873002038B5124B1B681C68A36813F44D
:10554000406F01D100F088FB00F022F9626B236903
:105550000C49134423F00703A3F1080543E90211A2
:1055600085F30988073222F0070282F30B88BFF324
:105570006F8F054BE268054900F002FE002038BD40
:1055800028730020A5EDF5FE5808002065540000A2
:10559000014BC3E90001704734730020034BD3E98A
:1055A00000308342C8BF0020704700BF3473002022
:1055B00008B500F0E1F8034B986000F0E3F880F3E1
:1055C000888808BD00ED02E0EFF308807146EFF334
:1055D0000982EFF30B830CB406B400F00BFB864694
:1055E000009900F0080001F00801401A02DC12DB0B
:1055F00004B070471EF020031CBF2DE9F00FBDF171
:10560000080D0A4C254626462746A046A146A24636
:10561000A34630B4704704B030BC1EF020031CBF5A
:105620001DF1080DBDE8F00F04B07047A5EDF5FEC3
:10563000084BDA6882F07F4282F47F0242F48042B3
:10564000DA6000221A765A76DA76DA77602283F800
:105650002220704700ED00E0009A0A4B9A420FD1D9
:10566000012290430146024603460446054606468B
:1056700007468046814682468346844686460447DE
:10568000FEE70000A5EDF5FE70B5324C86B032485D
:10569000FFF783FA236801255A1C01932F4B2260E0
:1056A000DA681B694FF44076039300232A4801A966
:1056B00002920495ADF814608DF81630FFF72EFABB
:1056C00018B143F6DA3006B070BD23688DF81600C5
:1056D0005A1C0193224B20480293224B01A9CDE989
:1056E00003352260ADF81460FFF718FA0028E8D1FE
:1056F00023688DF816005A1C01931B4B1648029321
:105700001A4B01A9CDE903352260ADF81460FFF70B
:1057100005FA0028D5D123688DF816005A1C01938C
:10572000134B0D480293134B01A9039302230493D7
:1057300040F201132260ADF81430FFF7EFF9044690
:105740000028BED12A4629460348FEF775FC2046AC
:10575000B9E700BF3C730020F05200202062000037
:1057600080620000E0050100E02C0000403A0000EB
:105770006008002060120020014B1868704700BFCD
:1057800020620000014B1B6818687047206200000F
:10579000014B1B68586870472062000008B5FEF78F
:1057A000EBFCFEF7B5FC0B4B5B6899B2C3F3080347
:1057B000103B002B9AB20BDB5309A1F1100201211F
:1057C00002F01F0201FA02F20349603341F823207C
:1057D00000F042FA00ED00E000E100E0EFF30880A5
:1057E000EFF309812DE9F00F6B467246FEF7F0FAF0
:1057F00008B0FEF7C1FCFEF781FC0222024BC3F8A1
:10580000882100F029FA00BF00E100E0194A10B534
:10581000D2F8003153B3D2F80034D2F80404164A57
:10582000164CD2F8F010A34202F50072D2F8B8205C
:1058300001F0010118D903F16043B3F5802F2CBFAB
:105840000023012391B102F03002302A0ED1C204AC
:105850000CD510F4C04F09D143B9FEF74FFC02221A
:10586000074BC3F8882110BD0123EBE7BDE81040CA
:10587000FFF7B4BF0010045000ED00E0FFCF1700A9
:1058800000E100E00020034BD8765A6A42F470220F
:105890005A62704700ED00E00349044BCA680020DB
:1058A00092B21343CB60704700ED00E00800FA05A8
:1058B000054B00F01F0003EB8003D3F8802022F09B
:1058C000E042C3F88020704700820D50164BD3F899
:1058D000D02042F00102C3F8D0200022C3F8D82023
:1058E000124A516821F01F01C3F8DC101049C3F8B7
:1058F000E0100221C3F8D810D168126921F01F010D
:1059000022F01F0242F00302C3F8DC10C3F8E020CB
:105910000322C3F8D820074AC3F8DC206FF01E0228
:10592000C3F8E020704700BF00ED00E020620000F7
:1059300001D0FF00000002201B4A1C4B526870B5CA
:10594000C3F804281A4A0021C3F8082808254FF490
:1059500040721848C3F81018C3F81458C3F8002848
:10596000C3F8240800F50030C3F828084FF4807607
:105970000220C3F83018C3F83458C3F82028420175
:1059800002F1A04401301A4404F582240528C4F829
:105990000418C2F80818C2F81018C2F81458C4F84D
:1059A0000068ECD1002070BD20620000001004509F
:1059B00000D0FF000000022030B585B06C46002505
:1059C00001210F48FFF7FAF801210E48FFF7F6F81A
:1059D00001210D48FFF7F2F80C4B0FCB8DE80F00BB
:1059E000012154F8040B0135FFF7E8F8042DF7D135
:1059F0000121074805B0BDE83040FFF7DFB800BF20
:105A00000020055000F00C50003005504C620000A2
:105A1000000012502DE9F0414FF45C6286B0002185
:105A2000364809F047FA4FF45C620021344809F027
:105A300041FA4FF45C620021324809F03BFA4FF41E
:105A40005C620021304809F035FAFFF7B5FF00220B
:105A50000124CDE90122DFF8B4C0DFF8B4E001ADE4
:105A60000DF10C08002055F8047B560104FA00F3F0
:105A70003B4216D0CDE903CE58F82230311803F45A
:105A80007C0343F0A04303EB8103D3F8001841F0FB
:105A90001001C3F80018D3F8001841F48071C3F85E
:105AA000001801302028E1D1531C022B4FF00102D5
:105AB000D8D1FFF7FDFE2120FFF7FAFE154A164B5D
:105AC00010695169C3F8044403AB03C30021128B6E
:105AD00003A81A808DF80C408DF81010ADF80E1048
:105AE000FEF79AFA38B9FEF755FD08B143F65C2087
